:020000040800F2
:1000000000000220FD520008254F0008274F00087D
:10001000294F00082B4F00082D4F0008000000005A
:100020000000000000000000000000002F4F00084A
:10003000314F000800000000334F0008354F000822
:100040007153000871530008715300087153000880
:100050007153000871530008715300087153000870
:100060007153000871530008715300087153000860
:100070007153000871530008715300087153000850
:100080007153000871530008715300087153000840
:100090007153000871530008715300087153000830
:1000A0007153000871530008715300087153000820
:1000B0007153000871530008715300087153000810
:1000C0007153000871530008715300087153000800
:1000D0007153000871530008554F00087153000810
:1000E00071530008715300087153000871530008E0
:1000F00071530008715300087153000871530008D0
:10010000715300087153000871530008614F0008D3
:1001100071530008715300087153000871530008AF
:10012000715300087153000871530008715300089F
:10013000715300087153000871530008715300088F
:10014000715300087153000871530008715300087F
:10015000715300086D4F000871530008794F000873
:10016000715300087153000871530008715300085F
:10017000715300087153000871530008000000001B
:080180007153000871530008DF
:100188000000000000000000000000000000000067
:100198000000000000000000000000000000000057
:1001A8000000000000000000000000000000000047
:10118800EEEEEEEEEEEEEEEEEEEEEEEE000000002F
:101198000000000000000000000000000000000047
:1011A8000000000000000000000000000000000037
:1011B8000000000000000000000000000000000027
:1011C8000000000000000000000000000000000017
:1011D8000000000000000000000000000000000007
:1011E80000000000000000000000000000000000F7
:1011F80000000000000000000000000000000000E7
:1012080000000000000000000000000000000000D6
:1012180000000000000000000000000000000000C6
:1012280000000000000000000000000000000000B6
:1012380000000000000000000000000000000000A6
:101248000000000000000000000000000000000096
:0812580000000000000000008E
:1012600010F8012B11F8013B012A28BF9A42F7D050
:10127000D01A7047000000000000000000000000CD
:1012800001F0FF01102A2BDB10F0070F08D010F837
:10129000013B013A8B422DD010F0070F42B3F6D13B
:1012A000F0B441EA012141EA014122F007047FF054
:1012B00000070023F0E80256083C85EA010586EAAB
:1012C000010685FA47F5A3FA87F586FA47F6A5FAE7
:1012D00087F68EB9EED1F0BC01F0FF0102F00702F3
:1012E00032B110F8013B013A83EA010313B1F8D19E
:1012F0000020704701387047002D06BF354603387F
:10130000073815F0010F07D1013015F4807F02BFB7
:10131000013015F4C03F0130F0BC0138704700BF08
:10132000034613F8012B002AFBD1181A0138704725
:1013300053B94AB9002908BF00281CBF4FF0FF313C
:101340004FF0FF3000F00CB8ADF1080C6DE904CEA1
:101350000CF0F6FBDDF804E0DDE9022304B0704791
:10136000704700BF0348044B834202D0034B03B1D4
:10137000184770478C0100208C01002000000000FD
:101380000548064B1B1AD90F01EBA301491002D0E7
:10139000034B03B1184770478C0100208C010020DB
:1013A0000000000010B5064C237843B9FFF7DAFFC0
:1013B000044B13B10448AFF300800123237010BD28
:1013C0009001002000000000FCDD000808B5054B7E
:1013D0001BB105490548AFF30080BDE80840FFF7A1
:1013E000CFBF00BF0000000094010020FCDD00081A
:1013F0000369C26893429CBF81685B18013B981ADD
:1014000070472DE9F041D0E902840546A8EB0406B7
:101410004068964220440F46144406D90BF02EFD36
:10142000BFF35F8FEC60BDE8F0813246A4EB0804A7
:101430000BF024FD68682246B919EFE72DE9F8435F
:10144000C5680646894617464FF000083369B468F8
:1014500070689D4228BF1B19641BBC4203F1FF3317
:1014600028BF3C465B1B9C4228BF1C46494622467F
:1014700028440BF003FDB3682544A044A1443F1B5E
:10148000AB4208BF0025BFF35F8FF560002FDDD1B1
:101490004046BDE8F883000008B5144BA82200219F
:1014A00018460BF0C5FF0322026111494261114A3F
:1014B0008161C2614FF480620262002282624262F4
:1014C000C26201660C4941661021816603460267CB
:1014D000C2664267BFF35F8F084911F8010D985447
:1014E0000132102AF9D1BFF35F8F08BDC00500207B
:1014F000E0DF0008BD010020AD010020EBF700088F
:10150000F8B5144B182700FB07751D4407FB003383
:101510000E46DB6A012B14460AD0022B14D023B9E5
:101520002846FFF765FF844208D900242046F8BD0D
:101530002846FFF75DFF844228BF04462246314615
:101540002846FFF75EFFF1E72846BDE8F840FFF7C1
:1015500075BF00BFC0050020F8B50B4B1B780446D3
:101560000D4616460BB9FFF797FFEFF311874FF0C3
:10157000200181F31188324629462046FFF7C0FF3B
:1015800087F31188F8BD00BFC0050020F8B5184CDE
:10159000237805460E460BB9FFF77EFFEFF3118760
:1015A0004FF0200181F31188182202FB0542506A96
:1015B000116A431C994208BF0023D16A022902D153
:1015C000916A9942FBE7182202FB0541D1F828C035
:1015D0009C450BD005FB0222144462681654BFF3ED
:1015E0005F8F01204B6287F31188F8BD0020FAE776
:1015F000C00500202DE9F041154C1E462378054614
:10160000884617460BB9FFF747FF022D1DD8EFF3A9
:10161000118C4FF0200181F3118865B1182005FB72
:101620000003E21844F80380576000FB05420023E2
:10163000166293625362182303FB0544069BE36220
:101640008CF311880020BDE8F0814FF0FF30FAE7FD
:10165000C005002073B51C4D2B7804460BB9FFF76D
:101660001BFFFF230F2C8DF8043029D8174B1B5D6F
:101670008DF80530EFF311864FF0200181F31188CA
:10168000EA6A02F00302022A0AD1114B11481C70C7
:1016900001A9FFF7D3FE002086F3118802B070BDC8
:1016A0000C48FFF7A5FE012807D9094B09481C7013
:1016B000022201A9FFF7A5FEEDE74FF0FF30EBE7AF
:1016C0004FF0FF30EAE700BFC0050020ECF700084C
:1016D000AC010020D8050020826810B5044640689F
:1016E000531C834205D820688154A360E36801330A
:1016F000E360D4E901329A420BD121682069FFF7F7
:101700002BFFA368984215BF4FF0FF330023E3601F
:10171000A36010BD2DE9F84F9946DDE90A4316464E
:10172000054688460A464FF0010AB24212D2CA451F
:1017300038BFCA4613F0010B01D184B90024EB680D
:10174000002B3DDB0127B9F1010F1FD909F1FF394A
:101750007743F8E70AF1010AB2FBF6F2E5E79B07E7
:1017600012D5B9F1000F0CBF30272027A245E6D2D1
:1017700039462846FFF7B0FFEB68002B04F1FF3431
:10178000DDDB002CF2D1D9E72027EFE7B8FBF7F338
:101790009E42DDD9DFF84890B8FBF7F3284619F8E8
:1017A000031007FB1388FFF797FFEB68002B03DBA1
:1017B000B7FBF6F3B74205D2BBF1000F00D064B916
:1017C000BDE8F88F1F46E7E720212846FFF784FF92
:1017D000EB68002B04F1FF34F2DB5445F4D8EFE75B
:1017E000FCF700082DE9F04F00239BB00E46402186
:1017F000CDE90613CDE908300DF1280A039015460E
:10180000CDF814A016F8011B39B9089D002D00F37E
:10181000108108981BB0BDE8F08F252940F0BA80F0
:101820004FF0000B314611F8013B2D2B18D012D888
:10183000232B1CD02B2B17D00024314611F8013B51
:10184000A3F13000092815D80A2202FB0433A3F1C2
:1018500030040E46F1E7302BEED14BF0020B01E0E5
:101860004BF0010B0E46DDE74BF0040BFAE74BF0B3
:10187000080BF7E72E2B11D10E464FF000090A276F
:10188000304610F8011BA1F1300CBCF1090F07D84C
:1018900007FB0911A1F130090646F1E74FF00009F5
:1018A000304610F8011B01F0FB07682F0646F8D000
:1018B000782909D86F290BD8632967D020D8252922
:1018C00068D0582900F09580089B002B9ADA9CE795
:1018D00070390829F8D801A050F821F0231A00081F
:1018E000C9180008C9180008031A0008C918000818
:1018F000E1190008C9180008C9180008F319000800
:101900006429E1D129680F68081D87EAE77128601A
:10191000A1EBE7714FF001080A2009293EDCC84518
:1019200038BFC8462CB1002F02DB1BF0040F00D0DB
:10193000013C1BF0020F02D0B9F1000F04D01BF0E4
:10194000010F01D17CBB002408990029BCDB002FCA
:1019500035DA7F422D2105A8FFF7BEFE0899002940
:10196000B2DB0BF00301022904D1B9F1000F01D160
:1019700054BB002408990029A6DBCDE9004B4B4657
:101980000A22394605A8FFF7C5FE9DE72B681A1DF8
:1019900019782A6005A8FFF79FFE95E708F101086E
:1019A000B1FBF0F1B9E7A045CED2202105A8FFF7A1
:1019B00093FE0899002904F1FF34C3DAC4E71BF051
:1019C000040FCED02B21C6E7A045D3D2302105A8E5
:1019D000FFF782FE0899002904F1FF34C8DAC9E74D
:1019E0002968081D2860CDE9004B4B460A2209688A
:1019F000C8E72968081D2860CDE9004B4B46102236
:101A0000F5E72B681A1D2A601C6814F8011B0029D1
:101A10003FF45AAF05A8FFF75FFE089B002BF4DAEE
:101A200052E729680B1D2B6000220823CDE9003204
:101A3000E5E7079C24B1039822465146FFF78CFD49
:101A40002C440894E5E600BF0EB403B503AB01AA2D
:101A500053F8041B0193FFF7C5FE02B05DF804EBD9
:101A600003B0704770470000F0B5044685B00D46DE
:101A700016461F460A4804F0B5FC20280CD14FF04A
:101A8000FF33CDE90173009601232A46214604481D
:101A900004F0ECFA05B0F0BD0A2003F0BBFCE9E766
:101AA00070290020F0B5044685B00D4616461F4645
:101AB0000D4804F097FC2028FAD14FF0FF33CDE910
:101AC00001732A46084800960123214604F03EFA95
:101AD000054D4FF0FF3301222146284604F0CEFB8E
:101AE0000028F6D105B0F0BD7029002008B5138894
:101AF000054A13800246A020FFF7B6FF10B1FFF79A
:101B0000B1FF012008BD00BF6A0600200A464FF45D
:101B100096730146014804F0B1BB00BF7029002054
:101B200013460B4A10B513700246A020FFF7BAFF08
:101B3000044610B1FFF796FF012440F6B831A0200B
:101B4000FFF7E4FF10B1FFF78DFF0124204610BD21
:101B5000680600202DE9F84F11F00F0705460C46E6
:101B60001646C2F307185FFA82FA02F00F0B1DD176
:101B7000B8F1000F01D15A462FE010222146284625
:101B8000FFF7CEFF60B908F1FF38103418F0FF08F6
:101B9000A4B205F11005F0D1BBF1000F02D1002075
:101BA000BDE8F88F5A462146284616E05FFA87F9C5
:101BB000C7F11007FFB2B8F1000F12D19742DAD285
:101BC0003A46FFF7ADFF0028EAD1AAF1100A09EB67
:101BD0000A023919D2B289B2E819BDE8F84FFFF705
:101BE0009FBF3A46FFF79CFF0028D9D1F61B3D4422
:101BF0003C441FFA86F8641B06F47F662E44A4B2A8
:101C00002919B54289B203D118F00F02C7D0CBE72A
:101C100010222846FFF784FF0028C1D11035EFE7D6
:101C2000054B0A4619688B689B07FCD5014664235F
:101C3000014805F0B3B900BF2C28002007B5084BB8
:101C40008DF807001A6893689B07FCD5642301226E
:101C50000DF10701024805F0A1F903B05DF804FB9E
:101C60002C28002008B5074B1B78012B04D106480F
:101C70000022042103F0DAFEBDE80840012003F051
:101C8000C9BB00BF0C000020000C024008B5064B89
:101C90001A78012A03D10548042103F0C7FEBDE8E4
:101CA0000840012003F0B6BB0C000020000C0240ED
:101CB0001FB5FF238DF80E30094B1A6893689B07F8
:101CC000FCD5642300930DF10F0201230DF10E01E9
:101CD000034805F010FA9DF80F0005B05DF804FB0D
:101CE0002C28002013B5FFF7D1FF0A24FF20FFF7AF
:101CF000A5FF013CFAD1FFF7B5FF40230093062171
:101D00004FF415436846ADF80430FFF789FF4FF4F0
:101D10000054FFF7CDFF012809D1FFF7B7FFFF20DF
:101D2000FFF78CFF034B01221A7002B010BD013C7B
:101D3000EFD1F2E76C06002010B5064C4FF4FA73B1
:101D40002380FFF7B5FFFF2802D02388002BF8D1AE
:101D500010BD00BF6E06002070B506460D46FFF7A9
:101D6000EBFFFF284FF0000423D12846FFF766FF62
:101D7000FD2D18D04FF400713046FFF751FFFFF7EB
:101D800097FFFFF795FF4125FFF792FF00F01F0334
:101D9000052B044603D0013D15F0FF05F4D1FFF7F4
:101DA00087FF0028FBD004F01F04631F58425841EE
:101DB00070BD2046FCE738B504460D46FFF7BCFF72
:101DC000FF2828D12046FFF739FF280EFFF736FFFE
:101DD000C5F30740FFF732FFC5F30720FFF72EFFDB
:101DE000E8B2FFF72BFF402C13D0482C14BF012082
:101DF0008720FFF723FF4C2C01D1FFF759FF0A245E
:101E0000FFF756FF030603D5013C14F0FF04F7D19A
:101E100038BD9520EDE7FF20FAE7000070B50F4DC3
:101E2000C82304460E462B80FFF742FFFF2803D14C
:101E300028880028F8D170BDFE280DD1651E3444D5
:101E4000FFF736FF05F8010FA542F9D1FFF730FF84
:101E5000FFF72EFF0120EEE70020ECE770060020E0
:101E60002DE9F341002840F09D804F4E357815F064
:101E7000020504D03078C0B202B0BDE8F081FFF7AF
:101E800031FFFFF7EFFE29464020FFF794FF0128BE
:101E900004460DD00024454B1C70FFF7F7FEFFF7FA
:101EA00007FF002C7BD0337803F0FE033370E1E7AB
:101EB0003F4F4FF47A734FF4D57148203B80FFF7C2
:101EC0007AFF01283DD101ADA8460424FFF7F0FEBA
:101ED000013C14F0FF0408F8010BF7D19DF806301F
:101EE000012BD7D19DF80730AA2BD3D10021772021
:101EF000FFF761FF012803D93B88002BF6D1C9E722
:101F00004FF080416920FFF756FF01460028F3D1CA
:101F10003B88002BBED07A20FFF74DFF0028B9D1B7
:101F20000424FFF7C5FE013C14F0FF0405F8010B83
:101F3000F7D19DF8043013F0400F0CBF04240C249B
:101F4000A9E729467720FFF736FF012806D829465A
:101F50006920FFF730FF012898BF0224022C4FF0C0
:101F600000011AD17720FFF726FF012803D93B880B
:101F7000002BF3D18EE700216920FFF71CFF00281A
:101F8000F5D13B88002B85D04FF400715020FFF72E
:101F900012FF00287FF47EAF7DE74120EDE7054B7F
:101FA0001C7067E7012067E7000000206D06002035
:101FB000700600206C06002018B9034B1878C0B2D8
:101FC00070470120704700BF0000002070B50E462A
:101FD00015461C46002837D1002B35D01C4B1B78EA
:101FE000DA0733D41B4B1B785B0758BF6D02FFF732
:101FF00039FE012C294613D15120FFF7DCFE38B9F8
:102000004FF400713046FFF709FFB0FA80F464091D
:10201000FFF73CFEFFF74CFE201E18BF012070BDED
:102020005220FFF7C8FE0028F2D14FF4007130466D
:10203000FFF7F4FE18B1013C06F50076F5D100215A
:102040004C20FFF7B8FEE3E70420E8E70320E6E7CB
:10205000000000206D060020F8B50D4616461C460F
:10206000002847D1002B45D0254B1A78D00743D400
:102070001B78590742D4234F3B785A0758BF760242
:10208000FFF7F0FD012C13D131465820FFF793FEE6
:1020900070BBFE212846FFF75FFEB0FA80F46409AA
:1020A000FFF7F4FDFFF704FE201E18BF0120F8BD66
:1020B0003B789B0707D500217720FFF77CFE214660
:1020C0005720FFF778FE31465920FFF774FE0028AD
:1020D000E6D1FC212846FFF73FFE18B1013C05F58B
:1020E0000075F6D1FD210020FFF736FE0028D7D17C
:1020F0000124D5E70420DAE70320D8E70220D6E759
:10210000000000206D0600207FB50E4615460446EF
:10211000002840F08F80052913D11378012B09D0B6
:10212000022B0AD0002B40F08580444B18702046CB
:1021300004B070BDFFF7D6FDF9E7404B1B78537034
:10214000F5E73F4B1C7814F0010475D1FFF78AFDC9
:102150000D2E6DD8DFE806F04807446C6C6C6C6C93
:102160006C6C6C4F5D6000214920FFF724FE28B1A4
:102170000124FFF78BFDFFF79BFDD8E71021684690
:10218000FFF74CFE0028F3D09DF800109DF80930B1
:102190009DF808208909012906D1013303EB0223A8
:1021A0009BB29B022B60E4E79DF807109DF80A00A4
:1021B000920902EB81029DF80610890201F4406148
:1021C00001320A449DF805105B0001F00F0101EB9C
:1021D000D01103F006030B44073B02FA03F3E1E7D7
:1021E0004FF400732B80C4E7FFF7A6FDB0F1FF04A6
:1021F00018BF0124BDE700214920FFF7DCFD0028BE
:10220000B6D110212846FFF709FEB0FA80F4640920
:10221000AFE700214A20F0E700217A20FFF7CBFD4D
:1022200030B92C1DFFF744FD05F8010BAC42F9D184
:1022300004249EE704247AE7032478E76C06002050
:102240000000002030B5144987B00446112213481D
:1022500009F022FA0546E0B9214611480AF03AF998
:102260006B46122201A90D4809F0B2FB0B4809F098
:1022700066FE01A90B488DF815500AF02BF91222C1
:10228000214601A8FFF766FC2146024606480AF0EF
:1022900021F907B030BD00BF37E000087806002004
:1022A0003DE0000877E0000881E0000810B5094B28
:1022B0001B7898B004465D2253B9074968460AF076
:1022C000DDFD5D222146684602F0EEFB18B010BD30
:1022D0000249F3E7ED2900202EE100088BE1000818
:1022E00030B52D4C9BB0054601462C480AF0F2F85B
:1022F0002B491122204609F0CFF901AB02A90F2288
:10230000204609F065FB204609F019FE25491122F7
:10231000204609F0C1F901AB0DF117010F2220464B
:1023200009F056FB204609F00AFE1F4911222046FB
:1023300009F0B2F901AB0DF126010F22204609F098
:1023400047FB204609F0FBFD18491122204609F001
:10235000A3F901AB0DF135010F22204609F038FB3E
:10236000204609F0ECFD12491122204609F094F9AB
:102370002246212111A809F084FF204609F0DFFD43
:1023800002A90C480AF0A6F85D22294602A802F02C
:102390008BFB1BB030BD00BF78060020E8E10008D1
:1023A000EEE00008F6E00008FEE0000806E10008A4
:1023B0000EE1000820E20008F0B59DB001465D2264
:1023C00004A802F087FA04A90F226E486E4F6F4EE0
:1023D0006F4D704C0AF01CFE0DF11F010F226E486C
:1023E0000AF016FE0DF12E010F226C480AF010FEC5
:1023F0000DF13D010F226A480AF00AFE04A90322EA
:1024000003A80AF005FE03A80AF02AFF05A9387000
:10241000032203A80AF0FCFD03A80AF021FF06A985
:102420007870032203A80AF0F3FD03A80AF018FF4E
:1024300007A9B870032203A80AF0EAFD03A80AF06E
:102440000FFF0DF11F01F870032203A80AF0E0FD51
:1024500003A80AF005FF0DF123013070032203A841
:102460000AF0D6FD03A80AF0FBFE0DF127017070FB
:10247000032203A80AF0CCFD03A80AF0F1FE0DF137
:102480002B01B070032203A80AF0C2FD03A80AF0D2
:10249000E7FE0DF12E01F070032203A80AF0B8FD4B
:1024A00003A80AF0DDFE0DF132012870032203A813
:1024B0000AF0AEFD03A80AF0D3FE0DF136016870F4
:1024C000032203A80AF0A4FD03A80AF0C9FE0DF137
:1024D0003A01A870032203A80AF09AFD03A80AF0A3
:1024E000BFFE0DF13D01E870032203A80AF090FD44
:1024F00003A80AF0B5FE0DF141012070032203A8E4
:102500000AF086FD03A80AF0ABFE0DF145016070EC
:10251000032203A80AF07CFD03A80AF0A1FE0DF136
:102520004901A070032203A80AF072FD03A80AF073
:1025300097FE13A9E07020221A480AF069FDFB7883
:102540000093BB787A783978174809F0C3FFF3789D
:102550000093B37872783178144809F0BBFFEB78B8
:102560000093AB786A782978114809F0B3FFE378D3
:102570000093A378627821780E4809F0ABFF1DB074
:10258000F0BD00BF4F0000203F2700201227002091
:102590003B270020372700203F0000202F0000208D
:1025A0001F0000201627002031E2000848E2000842
:1025B0005FE2000876E20008F0B5054685B00B48FA
:1025C0000AF0A8FB0A4B6A4603F110071646186882
:1025D0005968144603C40833BB422246F7D110227F
:1025E0002946304602F060FA05B0F0BD8DE20008E1
:1025F000A2E20008F0B589B0102205460021684625
:102600000AF016FF0D4B04AA03F1100716461868CE
:102610005968144603C40833BB422246F7D1294601
:102620001022684602F056F90F22314668460AF039
:10263000DDFC003818BF012009B0F0BD27E000081C
:1026400030B58C4C8C488D4D8DB001F0BBFF8C4962
:102650001122204609F020F82246102103A809F093
:1026600010FE03A9874809F02DFF03A9032202A841
:102670000AF0CEFC02A80AF0F3FD04A92870032298
:1026800002A80AF0C5FC02A80AF0EAFD05A96870D4
:10269000032202A80AF0BCFC02A80AF0E1FD06A988
:1026A000A870032202A80AF0B3FC02A80AF0D8FD21
:1026B000E870C0B20090AB786A7829787248734DA0
:1026C00009F008FF204609F03AFC71491122204622
:1026D00008F0E2FF2246102103A809F0D2FD03A969
:1026E0006C4809F0EFFE03A9032202A80AF090FC4F
:1026F00002A80AF0B5FD04A92870032202A80AF076
:1027000087FC02A80AF0ACFD05A96870032202A8A4
:102710000AF07EFC02A80AF0A3FD06A9A870032215
:1027200002A80AF075FC02A80AF09AFDE870C0B28F
:102730000090AB786A7829785748584D09F0CAFE5E
:10274000204609F0FCFB56491122204608F0A4FF60
:102750002246102103A809F094FD03A9514809F06D
:10276000B1FE03A9032202A80AF052FC02A80AF053
:1027700077FD04A92870032202A80AF049FC02A8E8
:102780000AF06EFD05A96870032202A80AF040FC59
:1027900002A80AF065FD06A9A870032202A80AF0A3
:1027A00037FC02A80AF05CFDE870C0B20090AB787C
:1027B0006A7829783C483D4D09F08CFE204609F0A6
:1027C000BEFB3B491122204608F066FF224610213D
:1027D00003A809F056FD03A9364809F073FE03A9C2
:1027E000032202A80AF014FC02A80AF039FD04A989
:1027F0002870032202A80AF00BFC02A80AF030FDA0
:1028000005A96870032202A80AF002FC02A80AF0D7
:1028100027FD06A9A870032202A80AF0F9FB02A866
:102820000AF01EFDE870C0B20090AB786A78297893
:102830002148224D09F04EFE204609F080FB204938
:102840001122204608F028FF2246212103A809F082
:1028500018FD202203A928460AF0DAFB204609F0D9
:102860006EFB00232946174885F8203009F032FE18
:102870000DB030BD78060020B2E200083F270020EE
:10288000EEE000084F00002031E20008122700208F
:10289000F6E000083F00002048E200083B27002047
:1028A000FEE000082F0000205FE20008372700202C
:1028B00006E100081F00002076E20008162700202D
:1028C0000EE10008CFE2000808B51149114806F0F2
:1028D000CDFC1149114806F0C9FC1149114806F018
:1028E000C5FC1149114806F0C1FC1149114806F018
:1028F000BDFC1149114806F0B9FC1149114806F018
:10290000B5FCBDE808401049104806F0AFBC00BF58
:102910007F3001085DF300080CF800080AE00008A9
:10292000564F0108D9E200084F000020EEE00008F1
:102930003F000020F6E000082F000020FEE0000825
:102940001F00002006E100080D000020E3E200085F
:1029500010B5002204464FF400711C4803F066F8DD
:10296000462002F057FD01224FF40071174803F092
:102970005DF8462002F04EFD02F064FC144B154950
:102980001A689B888B80144B0A601B68C1F806305C
:10299000124B1B68C1F80E30114B00201B68C1F8A8
:1029A0000A3006F0E7F80F4A00231288012120467A
:1029B00005F07CFA204605F00BFB012805D12146E5
:1029C0000948BDE8104009F085BD10BD000802406F
:1029D0000C270020CC0000203F2700203B270020B0
:1029E0003727002008000020EBE2000810B510494E
:1029F0001048002208F026FE0F491048112208F066
:102A00004BFE38B90E4801F0DDFDBDE810400B4823
:102A100009F095BA0B4B0C480024012204211C70CC
:102A200003F004F809482246042102F0FFFFECE716
:102A3000B1E20008D0160020EEE000087806002081
:102A400007E300080C000020000C024000100240C8
:102A500008B505480122042102F0E8FFBDE808405E
:102A6000024801F017BF00BF000C02402C280020D4
:102A700038B5324B1B780BBB314D2B787BB94FF4FB
:102A8000D070FFF7B7FD044648B92E480AF042F966
:102A90002046FFF70BFC4FF4D070FFF78DFD2B782D
:102AA000012B06D1FFF7CCFDBDE838400020FFF731
:102AB00017BCBDE838400020FFF77EBC0020FFF7C0
:102AC000F5FB0020FFF778FC01224FF480511E48EF
:102AD00002F0ACFF642002F09DFC00224FF4805114
:102AE000194802F0A3FF642002F094FC01224FF485
:102AF0008051154802F09AFF642002F08BFC0022FE
:102B00004FF48051104802F091FF642002F082FCE3
:102B100001224FF480510C4802F088FF642002F03B
:102B200079FC094800224FF4805102F07FFF6420B5
:102B300002F070FCBDE8384002F0D2BCC42900208D
:102B40000C00002013E30008000C0240024A00239E
:102B50001288022105F0AAB90600002001220821EE
:102B600008B50C4802F062FF0B4A01215378DB43A1
:102B700003F0F003043143F005033129537002F1EF
:102B80000402F3D1BDE8084002480022082102F007
:102B90004DBF00BF000C0240181000100122082198
:102BA00008B50C4802F042FF0B4A01215378DB4381
:102BB00003F0F003043143F005033129537002F1AF
:102BC0000402F3D1BDE8084002480022082102F0C7
:102BD0002DBF00BF000C02404810001037B505465D
:102BE00002F012FC2F4B30491B88009304462F4BF8
:102BF0003022284605F066FB02F006FC04F5FA7464
:102C0000A0420AD200222A484FF4804102F00EFF6F
:102C1000284B01221A7003B030BD274C274894F985
:102C2000001009F057FC224800224FF4805102F0B6
:102C3000FDFE1F4800224FF4004102F0F7FE012282
:102C40004FF480411A4802F0F1FE642002F0E2FBEA
:102C500000224FF48041164802F0E8FE642002F0A2
:102C6000D9FB01224FF48041114802F0DFFE6420BD
:102C700002F0D0FB00224FF480410D4802F0D6FE56
:102C8000642002F0C7FB0E4803F0D6FB2378013B1B
:102C90005BB2002B2370BEDA03B0BDE8304002F017
:102CA0001FBC00BF060000205F000020122700208C
:102CB000000C0240EC2900200A00002023E3000859
:102CC0006429002008B505480AF024F8002006F021
:102CD000BDFABDE8084002F003BC00BF4FE30008A6
:102CE00010B51E4B8AB0B3F8A520ADF808200446F5
:102CF0001B4AD3F8A10093F8A7308DF80A300023BF
:102D0000CDE904230534174A019001A92046CDE9F5
:102D10000723ADF80B308DF80D30ADF81830ADF855
:102D20002430FEF79DFA48B104A92046FEF798FA30
:102D300020B107A92046FEF793FA38B90A4809F0EE
:102D4000E9FF0A4B01221A700AB010BD084809F0C9
:102D5000E1FF084A1378013B1370F5E714DE000821
:102D6000757365723132330065E30008C6290020AF
:102D70006EE300080500002008B50A49202208304B
:102D80000AF034F930B9084801F01CFC074B012265
:102D90001A7008BD064801F015FC064A1378013B7D
:102DA0001370F6E71627002081E30008C5290020EC
:102DB0008FE30008050000202DE9F04701468EB0A2
:102DC00004469F4809F086FB0023E25C2E2A03F1AB
:102DD0000107DBB205D038336B4403F8182C3B46AF
:102DE000F3E7032B18D1BDF820209DF82230ADF871
:102DF00010208DF8123004A80AF032FA3D46C6B20F
:102E0000625DEB1B2E2ADBB205F1010519D03833C8
:102E10006B4403F8182CF3E7022B09D130238DF80B
:102E200010309DF820308DF811309DF82130E0E70A
:102E3000012BE0D143F23003ADF810309DF8203083
:102E4000D7E7032B1AD1BDF820209DF82230ADF82A
:102E500014208DF8163005A80AF002FAAA46C7B267
:102E600014F80A20AAEB05032E2ADBB20AF1010AA4
:102E700019D038336B4403F8182CF1E7022B09D131
:102E800030238DF814309DF820308DF815309DF8E2
:102E90002130DEE7012BDED143F23003ADF81430F0
:102EA0009DF82030D5E7032B1DD1BDF820209DF8DB
:102EB0002230ADF818208DF81A3006A80AF0D0F9A3
:102EC00004EB0A0580465FFA80F9002415F8013BFF
:102ED000621CE4B2E3B104F138010DEB010404F823
:102EE000183C1446F2E7022B09D130238DF8183034
:102EF0009DF820308DF819309DF82130DBE7012B4B
:102F0000DBD143F23003ADF818309DF82030D2E722
:102F1000032C1ED1BDF820209DF82230ADF81C20D6
:102F20008DF81E30474C07A80AF09AF92378B3426F
:102F3000C0B223D16378BB4220D1A3784B451DD1C9
:102F4000E37883421AD1404809F0E4FE0EB0BDE8B0
:102F5000F087022C09D130238DF81C309DF82030E9
:102F60008DF81D309DF82130DAE7012CDAD143F2DB
:102F70003003ADF81C309DF82030D1E7E0702670AA
:102F8000677084F802905FFA88F300903A462F4801
:102F9000314609F09FFA2E4B1D78012D37D12D496E
:102FA0002D48122208F078FB0028CFD12B4809F0D9
:102FB000B1FE0A2304A903220AA88DF80C302E249E
:102FC0000AF026F805A903220BA88DF82B400AF079
:102FD0001FF806A903220CA88DF82F400AF018F854
:102FE00007A903220DA88DF833400AF011F82A46EC
:102FF00003A90DF137000AF00BF809AB10220AA95A
:10300000154808F0BBFD144808F099FF9EE71448E6
:1030100009F080FE0322002104A801F045FD0322EF
:10302000042105A801F040FD0322082106A801F0B3
:103030003BFD03220C2107A801F036FD86E700BF07
:10304000A1E300083F270020B3E30008D5E3000810
:103050000C000020EEE0000878060020F0E30008F5
:1030600016E400082DE9F04300238FB00446E25C2B
:103070002E2A03F10106DBB205D038336B4403F886
:10308000182C3346F3E7032B18D1BDF820209DF808
:103090002230ADF810208DF8123004A80AF0E0F8C4
:1030A0003746C5B2E25DBB1B2E2ADBB207F1010732
:1030B00019D038336B4403F8182CF3E7022B09D1ED
:1030C00030238DF810309DF820308DF811309DF8A8
:1030D0002130E0E7012BE0D143F23003ADF81030AE
:1030E0009DF82030D7E7032B1AD1BDF820209DF89A
:1030F0002230ADF814208DF8163005A80AF0B0F88B
:10310000B946C6B214F80920A9EB07032E2ADBB290
:1031100009F1010919D038336B4403F8182CF1E791
:10312000022B09D130238DF814309DF820308DF812
:1031300015309DF82130DEE7012BDED143F230035C
:10314000ADF814309DF82030D5E7032B1DD1BDF824
:1031500020209DF82230ADF818208DF81A3006A8EE
:103160000AF07EF804EB090207465FFA80F80024B3
:1031700012F8013B611CE4B2E3B104F138000DEB3D
:10318000000404F8183C0C46F2E7022B09D1302366
:103190008DF818309DF820308DF819309DF82130C9
:1031A000DBE7012BDBD143F23003ADF818309DF89B
:1031B0002030D2E7032C1ED1BDF820209DF822300C
:1031C000ADF81C208DF81E30454C07A80AF048F8D1
:1031D0002378AB42C0B223D16378B34220D1A37825
:1031E00043451DD1E37883421AD13E4809F092FD50
:1031F0000FB0BDE8F083022C09D130238DF81C30CC
:103200009DF820308DF81D309DF82130DAE7012C33
:10321000DAD143F23003ADF81C309DF82030D1E70D
:103220002570E070667084F80280FBB20090294639
:103230002D48324609F04EF92C4B1D78012D37D11F
:103240002B492C48122208F027FA0028D0D12A480E
:1032500009F060FD0A2304A903220AA88DF80C30A6
:103260002E2409F0D5FE05A903220BA88DF82B40CA
:1032700009F0CEFE06A903220CA88DF82F4009F014
:10328000C7FE07A903220DA88DF8334009F0C0FE40
:103290002A4603A90DF1370009F0BAFE09AB102246
:1032A0000AA9144808F06AFC124808F048FE9FE793
:1032B000124809F02FFD03222D2104A801F0F4FB90
:1032C0000322312105A801F0EFFB0322362106A8D5
:1032D00001F0EAFB03223A2107A801F0E5FB87E7AA
:1032E0003727002040E4000861E400080C000020BB
:1032F00006E10008780600207CE40008A2E400084B
:103300002DE9F04300238FB00446E25C2E2A03F13E
:103310000106DBB205D038336B4403F8182C334672
:10332000F3E7032B18D1BDF820209DF82230ADF82B
:1033300010208DF8123004A809F092FF3746C5B26C
:10334000E25DBB1B2E2ADBB207F1010719D038332F
:103350006B4403F8182CF3E7022B09D130238DF8C6
:1033600010309DF820308DF811309DF82130E0E7C5
:10337000012BE0D143F23003ADF810309DF820303E
:10338000D7E7032B1AD1BDF820209DF82230ADF8E5
:1033900014208DF8163005A809F062FFB946C6B2B0
:1033A00014F80920A9EB07032E2ADBB209F1010961
:1033B00019D038336B4403F8182CF1E7022B09D1EC
:1033C00030238DF814309DF820308DF815309DF89D
:1033D0002130DEE7012BDED143F23003ADF81430AB
:1033E0009DF82030D5E7032B1DD1BDF820209DF896
:1033F0002230ADF818208DF81A3006A809F030FFF9
:1034000004EB090207465FFA80F8002412F8013B3A
:10341000611CE4B2E3B104F138000DEB000404F8E0
:10342000183C0C46F2E7022B09D130238DF81830F6
:103430009DF820308DF819309DF82130DBE7012B05
:10344000DBD143F23003ADF818309DF82030D2E7DD
:10345000032C1ED1BDF820209DF82230ADF81C2091
:103460008DF81E30454C07A809F0FAFE2378AB42D0
:10347000C0B223D16378B34220D1A37843451DD194
:10348000E37883421AD13E4801F09CF80FB0BDE8C2
:10349000F083022C09D130238DF81C309DF82030A8
:1034A0008DF81D309DF82130DAE7012CDAD143F296
:1034B0003003ADF81C309DF82030D1E72570E07066
:1034C000667084F80280FBB2009029462D4832468F
:1034D00009F000F82C4B1D78012D37D12B492C48D1
:1034E000122208F0D9F80028D0D12A4809F012FC9D
:1034F0000A2304A903220AA88DF80C302E2409F00F
:1035000087FD05A903220BA88DF82B4009F080FD4B
:1035100006A903220CA88DF82F4009F079FD07A910
:1035200003220DA88DF8334009F072FD2A4603A945
:103530000DF1370009F06CFD09AB10220AA91448FF
:1035400008F01CFB124808F0FAFC9FE7124809F04B
:10355000E1FB03221E2104A801F0A6FA0322222186
:1035600005A801F0A1FA0322262106A801F09CFA81
:1035700003222A2107A801F097FA87E73B270020BA
:10358000CCE40008EFE400080C000020FEE0000896
:10359000780600200AE5000830E500082DE9F04330
:1035A00000238FB00446E25C2E2A03F10106DBB251
:1035B00005D038336B4403F8182C3346F3E7032B5C
:1035C00018D1BDF820209DF82230ADF810208DF8DC
:1035D000123004A809F044FE3746C5B2E25DBB1BB9
:1035E0002E2ADBB207F1010719D038336B4403F8F8
:1035F000182CF3E7022B09D130238DF810309DF8F9
:1036000020308DF811309DF82130E0E7012BE0D11A
:1036100043F23003ADF810309DF82030D7E7032B8C
:103620001AD1BDF820209DF82230ADF814208DF875
:10363000163005A809F014FEB946C6B214F80920E0
:10364000A9EB07032E2ADBB209F1010919D038339F
:103650006B4403F8182CF1E7022B09D130238DF8C5
:1036600014309DF820308DF815309DF82130DEE7BC
:10367000012BDED143F23003ADF814309DF8203039
:10368000D5E7032B1DD1BDF820209DF82230ADF8E1
:1036900018208DF81A3006A809F0E2FD04EB0902A3
:1036A00007465FFA80F8002412F8013B611CE4B27F
:1036B000E3B104F138000DEB000404F8183C0C46AB
:1036C000F2E7022B09D130238DF818309DF8203015
:1036D0008DF819309DF82130DBE7012BDBD143F267
:1036E0003003ADF818309DF82030D2E7032C1ED1FE
:1036F000BDF820209DF82230ADF81C208DF81E303A
:10370000454C07A809F0ACFD2378AB42C0B223D1E9
:103710006378B34220D1A37843451DD1E378834237
:103720001AD13E4800F04EFF0FB0BDE8F083022CE6
:1037300009D130238DF81C309DF820308DF81D30D4
:103740009DF82130DAE7012CDAD143F23003ADF8ED
:103750001C309DF82030D1E72570E070667084F849
:103760000280FBB2009029462D48324608F0B2FE96
:103770002C4B1D78012D37D12B492C48122207F0F4
:103780008BFF0028D0D12A4809F0C4FA0A2304A9E3
:1037900003220AA88DF80C302E2409F039FC05A963
:1037A00003220BA88DF82B4009F032FC06A9032256
:1037B0000CA88DF82F4009F02BFC07A903220DA8B7
:1037C0008DF8334009F024FC2A4603A90DF1370097
:1037D00009F01EFC09AB10220AA9144808F0CEF922
:1037E000124808F0ACFB9FE7124809F093FA032255
:1037F0000F2104A801F058F90322132105A801F0B4
:1038000053F90322172106A801F04EF903221B21C8
:1038100007A801F049F987E7122700205AE50008B8
:103820007DE500080C000020F6E000087806002086
:1038300098E50008BEE5000810B5014604461748A3
:1038400008F048FE164809F065FA164B1B78012B64
:1038500019D115491548122207F01EFFE8B914487E
:1038600009F058FA00220023104808F079FB0F49AC
:10387000204608F02BFD0D4808F0B4FABDE81040D2
:103880000A4808F05CBB0B4809F044FA20462122A4
:10389000BDE810403C2101F007B910BDE8E5000883
:1038A000B5F100080C0000200EE1000878060020A9
:1038B00000E6000822E60008F7B51E4F04460D4654
:1038C0001D4816460821012202F0B0F83B7833B9B2
:1038D0001A4900962B463022204604F0F3FC3B7830
:1038E000012B06D1164900962B463022204604F0C3
:1038F000E9FC144C10480022082102F097F82368D4
:103900000133142B236005D10B4800224FF4805162
:1039100002F08CF82368282B0AD1074800230122E3
:103920004FF48051236003B0BDE8F04002F07EB850
:1039300003B0F0BDED290020000C0240781000100B
:1039400018100010E8290020F0B53B4C236885B022
:103950000133236006460F46ADF80E2001F054FDFA
:10396000364B98421ED9256842F21073B5FBF3F22C
:1039700003FB1255B5B9324B1E6801361E60314B40
:103980001B7853B101F040FD4FF47A732E49B0FB20
:10399000F3F332462846FEF757F8236801332360D5
:1039A00005B0F0BD294C2A480122102102F03EF852
:1039B000237843B90DF10E03009326493B4630228C
:1039C000304604F027FD2378012B0BD10DF10E03B7
:1039D000009321493B463022304604F01BFD1E482F
:1039E00000F032FE00221A481C4C102102F01EF892
:1039F0001B4A13680133136023680133142B2360BF
:103A00000BD1134800224FF4804102F00FF8104808
:103A100000224FF4004102F009F82368282BBFD19F
:103A200000230B48236001224FF4004101F0FEFF08
:103A30000C4802F001FDB3E7DC290020878A010071
:103A4000D8290020D429002048E60008ED290020CC
:103A5000000C0240A810001048100010E4290020BB
:103A6000E0290020642900202DE9F74304464FF4A3
:103A70000041814801F0D4FF0128054640F0F9805B
:103A80007E4E3778002F40F0B680024620217C48D9
:103A9000DFF8308201F0CAFF79483A46202101F070
:103AA000C5FF78482A46202101F0C0FF4FF480531B
:103AB000754A764900937648302303F01CFB714821
:103AC0003A46202101F0B2FF72482A464FF4807135
:103AD00001F0ACFF6F483A464FF4807101F0A6FF49
:103AE0006D49694800F0BEFE98F800305BB1664849
:103AF00000F00CFE684800F061FE634800F032FE02
:103B0000614800F083FE65496348654D654F00F0EC
:103B1000B8FE654A00285DD02B6801332B6098F809
:103B200000304FF0000982F8009053B10620FDF7F5
:103B300091FD2A685D494846FDF786FF4846FDF736
:103B400089FD2A6846F678139A424AD13B8858493B
:103B500000933022574B204604F0B4FB564809F03E
:103B6000D9F801224FF48041464801F05FFF6420FC
:103B700001F050FC00224FF48041424801F056FF12
:103B8000642001F047FC01224FF480413D4801F0E0
:103B90004DFF642001F03EFC00224FF48041394883
:103BA00001F044FF642001F035FC01224FF4804114
:103BB000344801F03BFF642001F02CFC00224FF45C
:103BC0008041304801F032FF642001F023FCFFF710
:103BD00079F806E013780133DBB2642B1370B0D1AF
:103BE00028603A8833492046FFF766FE3A88314913
:103BF0002046FFF7A9FE3578012D3AD1FEF7CEFF1A
:103C00002A461F48202101F011FF1D4800222021D3
:103C100001F00CFF2A461B48202101F007FF4FF45A
:103C200080530093254A26491948302303F063FA4C
:103C300014480022202101F0F9FEFEF78FFF2A46EA
:103C40001448184D4FF4807101F0F0FE1148002225
:103C50004FF4807101F0EAFE2A8816492046FFF7EA
:103C600073FE2A881349204603B0BDE8F043FFF7EE
:103C700023BE03B0BDE8F08300040240ED2900201C
:103C800000080240000C024078100010A81000103C
:103C900084280020000002400C10001000100010CA
:103CA000D029002006000020CC29002069E6000869
:103CB0008F000020122700207BE60008181000105B
:103CC00048100010D4290020F0B5144B85B06D4683
:103CD000044603F110072A46186859682E4603C6A1
:103CE0000833BB423546F7D11346114625780022EA
:103CF000104611F8016BB54208BF80181032B2F5BA
:103D0000807FF6D16178002213F8014BA14208BFF1
:103D100080180132102AF7D105B0F0BD9EE60008E8
:103D20002DE9F04712248AB00DEB0402014605A8E4
:103D3000ADF81240FDF7DAFE224605A92D48DFF85E
:103D4000BCA009F065F905A9022204A809F060F9F0
:103D500004A8FFF7B9FF0DF1170107468AF8000024
:103D6000022204A809F054F904A8FFF7ADFF0DF1F1
:103D70001A0180468AF80100022204A809F048F9D5
:103D800004A8FFF7A1FF0DF11D0181468AF802008A
:103D9000022204A809F03CF904A8FFF795FF08A93E
:103DA0008AF803000222044604A809F031F904A8A5
:103DB000FFF78AFF0DF123018AF80400022205466D
:103DC00004A809F025F904A8FFF77EFFEDB2C6B2FA
:103DD000E4B28AF805005FFA89F30296019500942F
:103DE0005FFA88F2F9B2044808F074FB0AB0BDE843
:103DF000F08700BF0D000020E6E600080C27002039
:103E00002DE9F04FDFF8E4803449354F8BB01122B3
:103E1000404607F041FC00230022404608F0A0F88D
:103E20004246122105A808F02CFA05A912222D48B5
:103E300009F0EEF805A9022204A809F0E9F804A89F
:103E4000FFF742FF0DF1170181463870022204A8E6
:103E500009F0DEF804A8FFF737FF0DF11A018246DA
:103E60007870022204A809F0D3F804A8FFF72CFF09
:103E70000DF11D018346B870022204A809F0C8F8AC
:103E800004A8FFF721FF08A9F8700222044604A83D
:103E900009F0BEF804A8FFF717FF0DF123013871F0
:103EA0000222054604A809F0B3F804A8FFF70CFFA6
:103EB000EDB2C6B2E4B278715FFA8BF35FFA8AF2C0
:103EC0005FFA89F1029601950094074808F002FB19
:103ED000404608F034F80BB0BDE8F08F37E000083A
:103EE0000C2700200D0000200BE7000878060020BA
:103EF00008B5084B1B78012B4FF4907005D1FEF7E5
:103F0000A1F9BDE80840FFF77BBFBDE80840FFF717
:103F100007BF00BF0C00002008B572B6094C012293
:103F20004FF48041204601F081FD642001F072FAD7
:103F3000204600224FF4804101F078FD642001F01A
:103F400069FAECE7000C024030B5002495B0142269
:103F5000214603A8CDE9094409F06AFA1F4B0194F0
:103F60001A6C42F080521A641B6C03F08053019368
:103F7000019B1B4B02941A6842F480421A601B6832
:103F800003F480430293029B0A2308931022012327
:103F90000820CDE90B320D93A823CDE910030225AB
:103FA000072308A8CDE90E541295139302F04AFA9C
:103FB00008B1FFF7B1FF0F23CDE9033505904FF4AA
:103FC000A0524FF48053052103A8CDE9062302F047
:103FD00015FC0028EDD115B030BD00BF00380240FF
:103FE000007000402DE9F04F91B000247C4D01F0AD
:103FF000E5F9FFF7A9FF142200210BA809F018FA30
:1040000005942B6B774843F010032B632B6B03F065
:1040100010030593059B06942B6B43F004032B635D
:104020002B6B03F004030693069B07942B6B43F062
:1040300080032B632B6B03F080030793079B08948B
:104040002B6B43F001032B632B6B03F001030893ED
:10405000089B09942B6B43F002032B632B6B03F03B
:1040600002030993099B0A942B6B43F008032B630B
:104070002B6B03F008030A93012206210A9B01F02F
:10408000D5FC58482246082101F0D0FC56480122B0
:1040900040F2012101F0CAFC53482246202101F0E0
:1040A000C5FC524822464FF2FB6101F0BFFC4F486D
:1040B000012240F6040101F0B9FC01224C484FF402
:1040C000807101F0B3FC012646484FF0040A0BA9A9
:1040D000CDE90BA6CDE90D660A2701F0C9FB4148E1
:1040E0000BA9CDE90B76CDE90D4401F0C1FB2123ED
:1040F0003D480BA9CDE90B36CDE90D4401F0B8FBE5
:104100004FF4887338480D940BA9CDE90B3401F0B6
:10411000AFFB48F2040337480D940BA9CDE90B34EB
:104120004FF4807B01F0A4FB30480D940BA94FF0B5
:104130000309CDE90BB401F09BFB4FF6BB632B48A1
:10414000CDF838900BA9CDE90B360D944FF40078DB
:1041500001F08EFB24480BA9CDE90D49CDE90B8672
:1041600001F086FB22480BA9CDE90D49CDE90BB63C
:1041700001F07EFB1D480BA9CDE90BA6CDE90D662C
:1041800001F076FB402319480BA9CDE90B36CDE9A8
:104190000D4401F06DFB04942B6B43F480032B63FF
:1041A0002B6B03F480032246214604934520049B95
:1041B00001F056F9452001F085F90F480F4B0461D5
:1041C0004FF4E1390C25C0E90039C0E90244C0E9E7
:1041D0000554C46103F06EFA034688B1FFF79CFEF4
:1041E000003802400010024000080240000C02406B
:1041F0000000024000040240A427002000140140F7
:10420000C548C64AC0F818804FF482744FF0100AAF
:10421000C0E90233C0E90433C0E907A3C0E90933A8
:10422000C0E90024C76202F05DFE03460028D5D134
:10423000BB48BC4AC0E90233C0E90433C0E90833D3
:10424000C0E90A37C0E90024C0E9068A02F04AFE44
:1042500003460028C2D1B448B44AC0F81880C0E967
:1042600000240822C0E90233C0E90436C0E907236C
:10427000C0E90933C76202F035FE0028AED105F06F
:104280007BFCAB48AB4B036002F00AFC07460028FE
:10429000A4D1014614220BA809F0CAF8A64CA74BDA
:1042A00003977F20C4E90037FF23C4E902032046B7
:1042B000C4E90477A76102F03DFC00288ED1CDE966
:1042C0000E00ADF82C008DF82E0032460BA92046CA
:1042D00002F089FC002881D1994B0393324603A94F
:1042E000204602F0F1FC034600287FF477AF9548A2
:1042F0009549964A0362C0E900124FF48042C0E932
:104300000233C0E90423C0E9063301F077FD034618
:1043100000287FF463AF8E488E4AC0E90233C0E9BB
:104320000029C0E90435C0E9063303F0C3F90028C9
:104330007FF454AF884C894E0523C4E900632046BE
:104340004FF4FA63A36002F050F8054600287FF4AA
:1043500045AF01224FF48041814801F067FB6420A2
:1043600001F058F82A464FF480417D4801F05EFB89
:10437000642001F04FF801224FF48041784801F0A9
:1043800055FB642001F046F82A464FF480417448FA
:1043900001F04CFB642001F03DF801224FF4804114
:1043A0006F4801F043FB642001F034F82A464FF4D3
:1043B00080416B4801F03AFB642001F02BF80322A6
:1043C0000121684808F086F867484FF4807101F0D1
:1043D00027FB664B002840F085801870644808F081
:1043E00099FC06236360266041F664132046A360AF
:1043F00001F0FBFF00287FF4F1AEFEF7F7FAFFF7BC
:1044000077FDFEF725FBFEF733FB0020FEF7A0FA51
:1044100000F066F90420FEF799FB564B56495748C1
:10442000012204F003FFFEF74FFA04F049FF544B5A
:104430001B78002B3ED0002302241A46194618464A
:104440000094FDF7D7F80020FDF704F900F0DCFF39
:104450004C494FF47A72B0FBF2F20020FDF7F4FA07
:1044600049490020FDF7F0FA0120FDF7F3F847492C
:104470000020FDF7E9FA2046FDF7ECF8444900205A
:10448000FDF7E2FA0320FDF7E5F840490020FDF7CB
:10449000DBFA0420FDF7DEF83C490020FDF7D4FAF2
:1044A0000620FDF7D7F83B490020FDF7CDFA0020A4
:1044B000FDF7D0F8384D394E2B78F3B1002005F0D8
:1044C000F3F92B78012B71D1354C2378012B02D1D4
:1044D0000420FFF7C9FA2378002BEDD10420FEF762
:1044E0007DFBE9E701222F481A7008F013FC062330
:1044F0006360266041F6583378E7346800F084FF43
:1045000004F5922404F578748442D7D2264808F042
:1045100001FCFEF7D7FBD4E72C280020003C00402C
:10452000DC280020003001408428002000380040B2
:10453000542900200008065034290020002800409B
:10454000010509237029002000540040801A06004C
:10455000E82700200044004064290020003000408B
:10456000000C02402FE7000800080240ED2900205F
:104570004DE70008010000200008001000000010B6
:10458000D42900206CE7000880E7000888E70008CD
:1045900090E7000898E700080B000020C8290020D9
:1045A000EC2900205BE70008A0E70008034B1B781C
:1045B000002B81D0024801F03FFF7DE7050000207D
:1045C000642900200FB400B5ADF5037D84AB4FF432
:1045D000007153F8042B019302A808F0FBF802A81D
:1045E000FCF79EFE4FF0FF3382B202A9044803F0AD
:1045F0008FF80DF5037D5DF804EB04B0704700BF44
:10460000A42700202DE9F0410D4FDFF838800E4639
:1046100015460024AC4202DB2846BDE8F0814FF687
:10462000FF7301223119384603F072F898F8003010
:104630001BB1315D0020FCF7A9FF0134EAE700BFA0
:10464000A4270020D429002010B52249FCF708FE39
:10465000044600283CD101224FF480411E4801F05D
:10466000E5F9642000F0D6FE22464FF480411A4856
:1046700001F0DCF9642000F0CDFE01224FF480410E
:10468000154801F0D3F9642000F0C4FE22464FF42F
:104690008041114801F0CAF9642000F0BBFE0122FC
:1046A0004FF480410C4801F0C1F9642000F0B2FEE3
:1046B00022464FF48041084801F0B8F9642000F028
:1046C000A9FE064808F026FBBDE81040FEF7FABA3E
:1046D00010BD00BF8F000020000C0240BCE70008A6
:1046E00070B5002003F016FA0446152003F012FA04
:1046F00005462E2003F00EFA2A46034621460248BC
:10470000BDE8704007F0E6BEDFE7000810B50446DC
:104710008AB00120FCF79EFF94F82C30099394F89E
:104720002830089394F82430079394F820300693A7
:10473000237F0593237E0493237D0393237C02939D
:10474000237B0193237A0093237922780449002064
:10475000FDF77AF900200AB0BDE81040FCF77ABFF7
:104760003EE8000810B504468AB00320FCF772FF4B
:1047700094F82E30099394F82A30089394F8263050
:10478000079394F822300693A37F0593A37E0493A6
:10479000A37D0393A37C0293A37B0193A37A00934D
:1047A000A379A27804490020FDF74EF900200AB051
:1047B000BDE81040FCF74EBF3EE8000810B50446C7
:1047C0008AB00220FCF746FFE37A0993A37A0893A4
:1047D000637A0793237A0693E3790593A379049385
:1047E0006379039323790293E3780193A378009389
:1047F0006378227804490020FDF726F900200AB0EA
:10480000BDE81040FCF726BF3EE8000810B504469E
:104810008AB00420FCF71EFF94F82F30099394F817
:104820002B30089394F82730079394F8233006939D
:10483000E37F0593E37E0493E37D0393E37C02939C
:10484000E37B0193E37A0093E379E2780449002063
:10485000FDF7FAF800200AB0BDE81040FCF7FABEF8
:104860003EE8000870B50E46441C0025214670192C
:104870000122013508F0CCFB0C2D04F10404F5D124
:1048800070BD08B50C2208F0B1FB003818BF01203C
:1048900008BD0000014B1860704700BFF0290020E0
:1048A00070B50B4E04460D46306890F8513053B148
:1048B00042F210732A46214602F070FB38B1BDE87F
:1048C0007040FFF729BB012000F0A4FDECE770BDAC
:1048D000F0290020F7B51A4F05460C4616463B68EE
:1048E00093F85130012B23D1032316488DF804305F
:1048F0000421230C002264BA8DF80530ADF806407F
:1049000001F094F804210DEB0100FFF7C9FF3868AE
:104910004FF47A733246294602F0DDFC02280BD0B0
:1049200008480122042101F081F8012003B0F0BD04
:10493000012000F06FFDD2E7012000F06BFDE6E7FB
:10494000F02900200010024013B50A4C0022204636
:10495000042101F06BF8062301A801218DF8043031
:10496000FFF79EFF01220421204601F05FF802B00C
:1049700010BD00BF0010024037B50A4C04250022CC
:104980002046042101F052F80DEB050001218DF8BD
:104990000450FFF785FF01222946204601F046F822
:1049A00003B030BD0010024037B505230022144883
:1049B0008DF8002004218DF8043001F037F8012132
:1049C00001A8FFF76DFF0F4D2868C8230122694633
:1049D00002F081FC02284FF001000ED000F01AFD19
:1049E0009DF8000010F00104EED1054801220421D9
:1049F00001F01CF8204603B030BD00F00BFDE3E7EA
:104A000000100240F02900202DE9F743DFF89490D0
:104A100007460C469046D9F8003093F85130012BE8
:104A2000DEB239D1FFF790FF02238DF80430230C5A
:104A300064BA8DF80530ADF80640FFF785FF1848D9
:104A40000022042100F0F2FF04210DEB0100FFF72A
:104A500027FF0524D9F800004FF47A7342463946FF
:104A600002F09CFA0228054606D10520013C00F020
:104A7000D1FC14F0FF04EDD101220421084800F01C
:104A8000D5FFFFF791FFFFF777FF012D08BF022643
:104A9000304603B0BDE8F083012000F0BBFCBAE76C
:104AA00000100240F02900202DE9F04711F0FF0A24
:104AB00005460F4614465FFA82F81AD1FF2A2ED90E
:104AC000140A4FF4807239462846FFF79DFF0128EB
:104AD000064641D1013CA4B207F5807705F5807503
:104AE000002CEED1B8F1000F36D0424639462846A8
:104AF00015E0CAF58079FF2A1FFA89F913D8C14554
:104B00000DD24A46FFF780FF0128064624D1A8F5BA
:104B10008072524492B209EB070105EB0900BDE82F
:104B2000F047FFF771BF4A46FFF76EFF01280646C0
:104B300012D1A4F580741AFA84F44D441FFA84F853
:104B40004F4404F47F442C447F1BA54205EB07012E
:104B500005D118F0FF02CAD13046BDE8F0874FF406
:104B600080722846FFF750FF012802D105F58075B5
:104B7000EBE70646F0E7000082B00C4B0021009105
:104B80005A6C42F480425A645A6C02F48042009299
:104B9000009A01911A6C42F080521A641B6C03F067
:104BA00080530193019B02B0704700BF0038024060
:104BB00030B5044689B01422002103A808F038FC5F
:104BC0002268134B9A4221D1124C134800250195BB
:104BD000236B43F002032363236B03F0020301936F
:104BE000019BC0221223CDE9032303210423CDE935
:104BF000061303A900F03CFE0295236C43F4001356
:104C00002364236C03F400130293029B09B030BDAC
:104C10000054004000380240000402400268094B82
:104C20009A4282B00BD100230193074B5A6B42F09A
:104C300040025A635B6B03F040030193019B02B097
:104C4000704700BF00080650003802401FB50446F8
:104C500010220021684608F0EBFB2268094B9A42BB
:104C60000ED10223009368464FF40073039301F0C2
:104C70007FFE08B1FFF750F9034B0122C3F83C2E29
:104C800004B010BD0028004000004742F0B50446C3
:104C90008DB01422002107A808F0CAFB2368534AEC
:104CA000934223D1524B5348002100915A6C42F455
:104CB00080525A645A6C02F480520092009A019118
:104CC0001A6B42F001021A631B6B03F0010301939C
:104CD000019BE02202230321CDE907230523CDE92F
:104CE0000A1307A900F0C4FD0DB0F0BD424A93427B
:104CF00040D13F4B414800220292196C41F480415F
:104D00001964196C01F48041029102990392196BA4
:104D100041F004011963196B01F004010391039937
:104D200004921A6B42F002021A631B6B03F0020337
:104D30000493022603250524049B07A90423CDE937
:104D400007360127CDE90A5400F092FD08232B48CD
:104D50000B9407A9CDE90736CDE9097500F088FD68
:104D60004FF48063CDE90736CDE9097524480B94EB
:104D700007A9B7E7234A9342B6D11D4B1F48002429
:104D800005941A6C42F400421A641A6C02F4004250
:104D90000592059A06941A6B42F004021A631B6B83
:104DA00003F004030693069B02274FF48063032657
:104DB000062507A9CDE90737CDE90A6500F058FDBA
:104DC0004FF4C053CDE9073707A901230B480B95D2
:104DD000CDE9093600F04CFD22462146332000F093
:104DE0003FFB332000F06EFB7EE700BF0030014048
:104DF0000038024000000240003800400008024035
:104E000000040240003C004070B514228AB00646FF
:104E100000210DEB020008F00BFB33683A4A934285
:104E20002BD13A4B3A48002401941A6C42F40032D8
:104E30001A641A6C02F400320192019A02941A6BFD
:104E400042F001021A631B6B03F001030293029B01
:104E50000C250223CDE9055305A907230326CDE937
:104E6000086300F005FD26202246214600F0F8FAEE
:104E7000262000F027FB0AB070BD264A9342FAD1E3
:104E8000224B2548254C002503955A6C42F0200200
:104E90005A645A6C02F020020392039A04951A6B2A
:104EA00042F004021A631B6B03F004030493049B97
:104EB000C0220223CDE9052303210823CDE90813ED
:104EC00005A900F0D5FC16484FF02063C4E90003A3
:104ED0004023C4E902354FF48063C4E90435204619
:104EE0004FF40033C4E90655C4E9083500F034FB3B
:104EF00008B1FFF711F80022746347201146A6633A
:104F000000F0AEFA4720B4E7004400400038024009
:104F10000000024000140140000802404427002025
:104F2000A0640240FEE7FEE7FEE7FEE7FEE770470B
:104F300070477047054A13880BB1013B1380044A40
:104F400013880BB1013B138000F052BA70060020A9
:104F50006E060020014802F097BC00BFE827002041
:104F6000014802F057BA00BF2C280020014800F089
:104F7000C1BB00BF44270020014802F085BC00BF30
:104F8000A42700200120704708B508F013FA162363
:104F900003604FF0FF3008BD08B508F00BFA162388
:104FA0000360FEE770B50D4614460E46731B9C4227
:104FB00001DC204670BDAFF3008006F8010BF5E779
:104FC0004FF0FF3070474FF400534B6000207047A4
:104FD00001207047002070470B4A116810B5034646
:104FE00009B90A491160106809490A4C0344091BB0
:104FF0008B4206D908F0DEF90C2303604FF0FF3036
:1050000010BD1360FCE700BFF4290020C03600206B
:105010000000022000400000034AD2F8883043F428
:105020007003C2F88830704700ED00E030B59BB0E7
:10503000054614A80C4603F031FD9DF86530139326
:105040009DF8643012939DF8633011939DF862309F
:1050500010939DF85D300F939DF85C300E939DF892
:105060005B300D939DF85A300C939DF861300B9393
:105070009DF860300A939DF85F3009939DF85E308B
:1050800008939DF8593007939DF8583006939DF882
:10509000573005939DF8563004939DF8553003938F
:1050A0009DF8543002939DF8533001939DF852308F
:1050B00000939DF850209DF851300349284608F090
:1050C0005FF820801BB030BD7DE8000870B50C464D
:1050D000094906461546FCF7C3F840B10749304672
:1050E000FCF7BEF828B929462046FFF79FFF0120AC
:1050F00070BD0020FCE700BF3CE9000845E900085E
:1051000038B51649054603F0B7FF044600B30A2137
:1051100003F08AFFC4B20F2C1CD82846104903F0B4
:10512000ABFF054630B10A2103F07EFFC5B2012D69
:1051300028BF012521460B4807F0CCF90A4B0B4844
:1051400033F81410012D0CBF2A46002200F06EFC2B
:1051500060B238BD4FF0FF30FBE700BF55E90008F3
:1051600059E900085DE90008C4000020000C024075
:10517000F8B50E460C49074615461C46FCF770F874
:1051800068B10A493846FCF76BF850B93046FFF76A
:10519000B7FF0749C2B2284607F0F2FF208001207E
:1051A000F8BD0020FCE700BF3CE9000881E90008E9
:1051B00092E900080A464FF47A730146014802F06A
:1051C0008AB800BFDC28002007B5FF238DF8073020
:1051D00001224FF47A730DF10701044802F07BF8C5
:1051E0009DF8070003B05DF804FB00BFDC28002039
:1051F0000A464FF47A730146014801F0CFBE00BF62
:10520000DC28002007B54FF47A738DF807000122DF
:105210000DF10701024801F0C1FE03B05DF804FB87
:10522000DC280020024801224FF4006100F0FEBBA0
:10523000000C0240024800224FF4006100F0F6BB6F
:10524000000C024070B586B0FFF7ECFF2049214802
:1052500003F0E2F92049214803F0ECF92049214804
:1052600003F0FAF9204B02AA03F11006154618685C
:105270005968144603C40833B3422246F7D129467D
:10528000092003F06BFB2946002003F067FB294649
:10529000012003F063FB013006D114480A220121EA
:1052A00007F018F906B070BD0DF107010F2003F0EB
:1052B00055FB013003D10E480A220121F0E79DF889
:1052C0000730002BF0D00B4807F024FDEAE700BFC1
:1052D000255200083552000805520008C95100083F
:1052E000F1510008B5510008BFDE000895E900083B
:1052F000B1E90008CCE9000870477047DFF84CD0EE
:1053000013481449144A002302E0D458C45004330B
:10531000C4188C42F9D311481149124A002302E003
:10532000D458C4500433C4188C42F9D30E4A0F4CDD
:10533000002301E013600432A242FBD3FFF76CFEAE
:1053400007F09CF8FEF74EFE7047000000000220B8
:10535000000000208C010020105601080000001001
:10536000D81000108801000890010020BC360020F1
:10537000FEE7000038B50E4B1A784FF47A73B3FB92
:10538000F2F30C4A05461068B0FBF3F000F0BAF8EF
:10539000044658B90F2D09D8024629464FF0FF3070
:1053A00000F05EF8044B20461D6038BD0120FCE78C
:1053B000E3000020C0000020E400002008B50B4BF3
:1053C0001A6842F400721A601A6842F480621A6025
:1053D0001A6842F480721A60032000F02FF80F2040
:1053E000FFF7C8FFFFF7C8FB002008BD003C0240E4
:1053F000034A044B11681B780B441360704700BFCD
:10540000F8290020E3000020014B1868704700BF16
:10541000F829002038B50446FFF7F6FF631C1CBFCF
:10542000054B1B78054618BFE418FFF7EDFF431B3B
:10543000A342FAD338BD00BFE30000200749CA6881
:1054400022F4E0620302120403F4E063120C13433B
:1054500043F0BF6343F40033CB60704700ED00E0DE
:10546000164B30B5DC68C4F30224C4F10703251DD4
:10547000042B28BF0423062D4FF0FF358CBF033CBF
:10548000002405FA03F321EA0303A54022EA0502FA
:10549000A340002843EA0203ACBF00F16040084A81
:1054A0004FEA0313B8BF00F00F00DBB2AABF00F54C
:1054B0006140135480F8003330BD00BF00ED00E0C0
:1054C00014ED00E0002807DB4109044A00F01F004A
:1054D0000123834042F82130704700BF00E100E023
:1054E000BFF34F8F0549064BCA6802F4E0621343CD
:1054F000CB60BFF34F8F00BFFDE700BF00ED00E0C2
:105500000400FA050138B0F1807F0BD24FF0E023A0
:10551000054A5861F02182F8231000200722986183
:105520001A6170470120704700ED00E0036810B574
:10553000084C0246D9B210391820B1FBF0F0205CBB
:10554000D06523F47F7020F003005F2988BF04300A
:10555000906510BD5650010870B50446FFF754FF22
:105560000546002C60D0022384F8353022680023E1
:1055700084F83430136823F0010313602268136841
:10558000D8072ED413683248A1691840D4E90135F0
:105590002B43E5682B4325692B4365692B43E5695C
:1055A0000B432B43256A2B430343606A042802BF45
:1055B000D4E90B5635432B4313605369042823F079
:1055C000070343EA000335D1A06AE56A03438DB3BC
:1055D00091B9012820D030F002012BD1E90129D561
:1055E0001DE0FFF711FF401B0528C7D9202303202A
:1055F000636584F8350070BDB1F5005F16D10328EE
:1056000018D801A151F820F01F560008DD550008F8
:105610001F56000819560008B5F1C07F0AD1402373
:105620006365012384F835300120E4E70228F6D9C8
:105630000328D3D053612046FFF778FFE26D3F2364
:105640009340836000200123606584F83530D2E701
:105650003F8010F070B50446866DFFF7D5FE94F8D4
:105660003530022B054606D08023636501200023D8
:1056700084F8343070BD23681A6822F016021A606C
:105680005A6922F080025A61226C0AB9A26C1AB1DE
:105690001A6822F008021A601A6822F001021A60E1
:1056A0002368186810F0010007D1E26D3F23934092
:1056B000B360012384F83530D9E7FFF7A5FE401B1E
:1056C0000528EDD920230320636584F83500CEE753
:1056D00090F83530022B03D08023436501207047BA
:1056E0000268052380F83530136823F00103136046
:1056F00000207047F7B5002301935C4B856D1F6850
:10570000C36D2E6808229A40324204460CD00168CC
:105710000868400708D5086820F004000860AA60FF
:10572000626D42F00102626501229A40324208D065
:1057300021684969090641BFAA60626D42F0020210
:10574000626504229A40324208D0216809688807BD
:1057500041BFAA60626D42F00402626510229A4065
:10576000324210D02368196809070CD5AA601A685C
:10577000500337D51B68190301D4236C00E0A36CD8
:105780000BB120469847E16D20228A4032423AD040
:1057900023681868C60636D5AA6094F83520052A0D
:1057A0001A6827D122F016021A605A6922F0800284
:1057B0005A61226C0AB9A26C1AB11A6822F0080266
:1057C0001A603F238B40AB60012384F835300023FF
:1057D00084F83430236D002B45D0204603B0BDE85B
:1057E000F04018471A68D2055EBF1A6822F0080216
:1057F0001A60C2E7500327D51B68190331D4636CC4
:105800000BB120469847636D6BB3636DDA0719D50A
:1058100022684FF41653B7FBF3F7052384F83530AD
:10582000136823F001031360019B0133BB42019312
:1058300002D81368DB07F7D4012384F8353000233E
:1058400084F83430E36CC6E71A6812F4807208D129
:10585000196821F010011960012384F8353084F8AB
:105860003420E36BCCE703B0F0BD00BFC0000020E4
:105870002DE9F74FDFF8A491664A00230D68012453
:105880009C4004EA0506AC4340F0AF804D68032716
:1058900005F003044FEA430807FA08FC671E012FCE
:1058A0006FEA0C0C34D8876807EA0C0ECF6807FA49
:1058B00008F747EA0E078760476827EA060EC5F330
:1058C00000179F4047EA0E074760C76807EA0C0EBB
:1058D0008F6807FA08F747EA0E07022CC76019D14C
:1058E0004FEAD30A00EB8A0A03F0070BDAF82070BC
:1058F0004FEA8B0B4FF00F0E0EFA0BFE27EA0E0E3F
:105900000F6907FA0BF747EA0E07CAF8207001E0A3
:10591000032CDAD1076804FA08F407EA0C073C43C1
:1059200015F4403F046060D000240194D9F844404D
:1059300044F48044C9F84440D9F8444023F00307B4
:1059400007F1804704F4804407F59C37019403F085
:10595000030C019CD7F808E04FEA8C0C0F2404FAE2
:105960000CF42EEA040E2C4CA04245D004F58064C1
:10597000A04243D004F58064A04241D004F5806485
:10598000A0423FD004F58064A0423DD004F580647D
:10599000A0423BD004F58064A04239D004F5806475
:1059A000A04214BF0824072404FA0CF444EA0E04AD
:1059B000BC601468F74315F4803F0CBF3C4034438F
:1059C0001460546815F4003F0CBF3C4034435460ED
:1059D000946815F4801F0CBF3C4034439460D46835
:1059E000AD0254BF3C403443D4600133102B7FF4EC
:1059F00045AF03B0BDE8F08F0024D5E70124D3E71D
:105A00000224D1E70324CFE70424CDE70524CBE724
:105A10000624C9E7003C0140000002400038024073
:105A20000369194214BF0120002070470AB1816147
:105A300070470904FBE701684B6913F480634FF07A
:105A4000000210D06FF480634B612023026380F862
:105A50003D3080F83E20036C80F83C2043F0040386
:105A6000036401207047184670472DE9F846064642
:105A70000F4691461D464FEA114A3368BAF1010FAD
:105A80000CBF5C699C6927EA0404A4B2B4FA84F4EC
:105A90006409A14501D0002017E06A1CEED0FFF791
:105AA000B3FC089BC01AA84201D8002DE5D1002301
:105AB0002022336386F83D2086F83E30326C86F82B
:105AC0003C3042F0200232640120BDE8F8862DE926
:105AD000F04104460F46164698462568686927EA4D
:105AE000000080B2C0B16B695A0517D52B6843F42A
:105AF00000732B606FF480636B61202200232363AB
:105B000084F83D2084F83E30236C43F00403236482
:105B1000002384F83C300120BDE8F081731CDDD007
:105B2000FFF772FCA0EB0800B04209D90023202245
:105B3000236384F83D2084F83E30236C1343E6E76A
:105B4000002ECAD1F2E770B504460D46164623680A
:105B50005B691B0601D5002018E02046FFF76BFFAC
:105B600098B96A1CF3D0FFF74FFC801BA8420ED9EE
:105B700000232022236384F83D2084F83E30226CE9
:105B800084F83C3042F020022264012070BD002DD8
:105B9000DDD1EDE72DE9F0431546026885B0DDE97A
:105BA0000C789946136843F4807313600E463B46A5
:105BB000CDF8008000224FF001110446FFF755FF99
:105BC000236838B11B68DB0502D54FF400732364EA
:105BD000032620E006F0FE061E611A4943463A46B7
:105BE0002046FFF774FFA8B9236803905A6903920F
:105BF0009B690393424639462046039BFFF7A3FF68
:105C0000064660B1236C042B01BF2268136843F47D
:105C1000007313600126304605B0BDE8F083B9F18A
:105C2000010F236802D1EDB21D61F4E72A0A1A615F
:105C3000394642462046FFF786FF0028E2D1236816
:105C4000F1E700BF020001002DE9FF479A46036813
:105C500015461A6842F480621A601A68DDE90C7809
:105C600042F480721A600E463B46CDF80080002256
:105C70004FF001110446FFF7F8FE236838B11B68A6
:105C8000DB0544BF4FF400732364032021E05FFA77
:105C900086F906F0FE061E612B4943463A46204629
:105CA000FFF715FFA0B9236803905A6903929B6917
:105CB0000393424639462046039BFFF744FF58B101
:105CC000236C042B01BF2268136843F40073136034
:105CD000012004B0BDE8F087BAF1010F23681AD1A2
:105CE000EDB242461D6139462046FFF72CFF0246C1
:105CF0000028E5D121680B6843F480730B602046CF
:105D0000CDF800803B464FF00111FFF7AEFE226850
:105D100060B11368B4E72A0A1A6139464246204640
:105D2000FFF711FF0028CBD12368D9E749F0010321
:105D30001361054943463A462046FFF7C8FE00383E
:105D400018BF0120C5E700BF0200010070B504467E
:105D50000D46164623685B695B0701D5002018E0F5
:105D60002046FFF768FE98B96A1CF3D0FFF74CFB9A
:105D7000801BA8420ED900232022236384F83D20F3
:105D800084F83E30226C84F83C3042F020022264D9
:105D9000012070BD002DDDD1EDE770B504460D4644
:105DA000164621684B6913F0400301D0002011E032
:105DB0004A69D2060FD56FF010024A612022236390
:105DC00084F83D2084F83E30236C2364002384F85B
:105DD0003C30012070BDFFF717FB801BA84209D99A
:105DE00000232022236384F83D2084F83E30236C76
:105DF0001343EAE7002DD4D1F2E7000070B5044662
:105E000008B9012070BD90F83D3003F0FF021BB9C6
:105E100080F83C20FEF7CCFE242384F83D30236834
:105E20001A6822F001021A601A6842F400421A60ED
:105E30001A6822F400421A6000F07AFD3F4B656850
:105E40009D4294BF3E4B3F4B98428CBF00230123A1
:105E5000002BD6D12268394E51683B4BB0FBF3F38F
:105E600021F03F011943B542516088BF4FF4967647
:105E7000116A88BF734321F03F0184BF4FF47A76E3
:105E8000B3FBF6F301330B431362D169431E2B4876
:105E900021F44F41854221F0FF0132D86D0040F6D8
:105EA000FC70B3FBF5F30133034242D0C3F30B03A1
:105EB0001943D161D4E907301168034321F0C001CF
:105EC0000B4313609168D4E9030321F403410343B6
:105ED00021F0FF010B439360D4E90530D1680343FF
:105EE00021F0FF010B43D360136843F001031360FB
:105EF00000202023206484F83D30206384F83E0095
:105F000080E7A06850B905EB4505B3FBF5F3013315
:105F1000C3F30B037BB143F40043C9E71920684383
:105F2000B3FBF0F30133C3F30B0323B143F440435A
:105F3000BEE70423BCE70123BAE700BFA086010047
:105F40007F841E00FF083D0040420F002DE9F7430B
:105F5000044699460C9E0F469046FFF755FA94F872
:105F60003D30202B054603D0022003B0BDE8F0836E
:105F700000903C49192301222046FFF776FD0028B6
:105F8000F2D194F83C30012BEED02068012384F844
:105F90003C300368D9075EBF036843F00103036028
:105FA000036823F400630360212384F83D30402319
:105FB00084F83E30002323640A9B6362BDF82C30D2
:105FC0006385638D2385284BE3624246CDE90065F6
:105FD0004B4639462046FFF7DDFD00282AD0012038
:105FE000C3E7FFF7B0FD40B1236C042B01BF22686B
:105FF000136843F400731360F1E7636A27681A4675
:1060000012F8011B39616262628D218D013A92B2F0
:1060100062857A69481E80B2520720850AD548B148
:106020005A783A6102336362638D013B02399BB255
:1060300021856385238D2A4631462046002BD0D109
:10604000FFF784FE0028CFD12268136843F4007361
:106050001360202384F83D3084F83C0084F83E002F
:1060600083E700BF020010000000FFFF2DE9F043AE
:10607000044687B09946109F0D469046FFF7C4F935
:1060800094F83D30202B064604D00225284607B060
:10609000BDE8F08300907649192301222046FFF7DE
:1060A000E4FC0028F1D194F83C30012BEDD02068BD
:1060B000012384F83C300368DB075EBF036843F0CC
:1060C00001030360036823F400630360222384F860
:1060D0003D30402384F83E30002323640E9B6362EE
:1060E000BDF83C306385638D2385624BE3622946AE
:1060F000CDE900764B4642462046FFF7A5FD054612
:1061000008B10125C2E7228D2368B2B902905A690D
:1061100002929A690292029A1A6842F400721A6014
:10612000DFF85481238D002B2CD1202284F83D20D0
:1061300084F83C3084F83E30A8E7012A0AD11A6876
:1061400022F480621A6003905A6903929A6903925A
:10615000039AE1E7022A0ED11A6822F480621A60DB
:106160001A6842F400621A6004905A6904929B69AA
:106170000493049BD4E705905A6905929B690593A3
:10618000059BCDE7032B56D8012B15D13246394656
:106190002046FFF702FE0028B3D123681A69636A1C
:1061A0001A70636A01336362238D013B2385638D1B
:1061B000013B9BB26385B5E7022B00963B464FF04F
:1061C00000024146204619D1FFF74FFC002898D124
:1061D00023681A6842F400721A601A69636A1A70B6
:1061E000626A531C6362238D013B2385638D013BEF
:1061F0009BB2638523681B695370D2E7FFF735FCB8
:10620000024600287FF47DAF2368196821F480617D
:1062100019601969636A1970636A01336362238DB7
:10622000013B2385638D013B9BB26385414600960C
:106230003B462046C8E7324639462046FFF7ADFDCB
:1062400000287FF45EAF23681A69636A1A70626A75
:10625000531C6362238D013B2385638D013B9BB2FD
:1062600063852368596949077FF55CAFC3E700BFC1
:10627000020010000000FFFF040001002DE9F04FB4
:10628000044685B01E460F469146FFF7BDF894F8C8
:106290003D30202B054603D0022005B0BDE8F08F2D
:1062A00000904F49192301222046FFF7DEFB00280A
:1062B000F2D194F83C30012BEED0012384F83C302D
:1062C0002368DFF81CB11A68D0075EBF1A6842F075
:1062D00001021A601A6822F400621A60242384F80A
:1062E0003D3000232364A3F58033E3624FF0010ABD
:1062F00007F0FE072268136843F4807313604FF0C1
:1063000001113346009500222046FFF7AEFB2368BB
:1063100038B11B68D90544BF4FF4007323640320D0
:10632000BBE71F61FFF770F823685A695B69054690
:10633000C2F34002C3F380234FF0A00894F83D104D
:10634000A0291CD123684FF0200884F83D805A69A9
:1063500092072BD51A68224942F400721A60002273
:1063600003925A6903929B690393039B0095192337
:1063700001222046FFF779FB98B101208DE71343F6
:10638000E0D1FFF741F8401BB04200D80EB984F8C5
:106390003D8023685A695B69C2F34002C3F38023DE
:1063A000CCE784F83D8084F83C0076E71A6842F434
:1063B00000721A606FF480625A6159460095192381
:1063C00001222046FFF751FB0028D6D10AF1010A2D
:1063D000CA458FD384F83D8084F83C00CDE700BFE8
:1063E0000200100090F83D00704738B5044608B32D
:1063F00003684CF6CC421A6045F255521A60426866
:106400005A6082689A60FEF7FFFF05462268D068EE
:1064100010F0030003D14AF6AA23136038BDFEF73B
:10642000F3FF401B3128F1D92368DB689B07EDD0CF
:106430000320F3E70120F1E703684AF6AA221A6075
:10644000002070472DE9F341044640B30368DE079E
:1064500010D423689D075BD42368190700F19D8041
:1064600023685A0700F1BD80A369002B40F0248106
:1064700000202CE08D4B9A6802F00C02042A07D011
:106480009A6802F00C02082A0BD15B68590208D501
:10649000864B1B689A03DCD56368002BD9D1012099
:1064A00015E06368814DB3F5803F13D12B6843F449
:1064B00080332B60FEF7A8FF7C4E054633689B03B4
:1064C000C7D4FEF7A1FF401B6428F7D9032002B010
:1064D000BDE8F081B3F5A02F04D12B6843F48023ED
:1064E0002B60E3E72A6822F480322A602A6822F4CB
:1064F00080222A60002BDDD1FEF786FF06462B683E
:106500009F03A6D5FEF780FF801B6428F7D9DDE73F
:10651000664B9A6812F00C0F07D09A6802F00C02D2
:10652000082A11D15B685D020ED4604A136899078E
:1065300002D5E368012BB2D11368216923F0F80377
:1065400043EAC103136087E7E268594BB2B1012205
:106550001A60FEF759FF554D06462B689B0707D575
:106560002B68226923F0F80343EAC2032B6073E728
:10657000FEF74AFF801B0228EFD9A7E71A60FEF753
:1065800043FF4A4E054633689F077FF565AFFEF728
:106590003BFF401B0228F6D998E76269444B82B161
:1065A0000122C3F8802EFEF72FFF404E0546736F81
:1065B0009B073FF555AFFEF727FF401B0228F6D992
:1065C00084E7C3F8802EFEF71FFF384E0546736F31
:1065D0009F077FF545AFFEF717FF401B0228F6D94E
:1065E00074E7324B1A6C12F0805228D101921A6C67
:1065F00042F080521A641B6C03F080530193019B9C
:1066000001272C4D2B68D8051BD5A368274D012BDE
:1066100027D12B6F43F001032B67FEF7F5FE234EC6
:10662000054641F28838336F9A0739D5002F3FF479
:106630001BAF1E4A136C23F08053136414E700272A
:10664000DFE72B6843F480732B60FEF7DDFE064620
:106650002B68D905D9D4FEF7D7FE801B0228F7D9BD
:1066600034E7052B04D12B6F43F004032B67D0E7ED
:106670002A6F22F001022A672A6F22F004022A6799
:10668000002BCAD1FEF7C0FE41F2883806462B6FB8
:106690009B07CBD5FEF7B8FE801B4045F7D915E721
:1066A000FEF7B2FE401B4045BDD90FE7003802405F
:1066B0000000474200700040374DAA6802F00C020B
:1066C000082A3ED0022B354B4FF000021A662BD120
:1066D000FEF79AFE06462B6899011FD4D4E90732CB
:1066E0001343626A43EA8213E26A43EA0263A26ADC
:1066F0005208013A43EA02436B60284B264D0122BF
:106700001A66FEF781FE04462B689A013FF5B0AE8B
:10671000FEF77AFE001B0228F6D9D7E6FEF774FED4
:10672000801B0228D7D9D1E6FEF76EFE04462B68FF
:106730009B017FF59DAEFEF767FE001B0228F6D990
:10674000C4E6012B3FF4ABAE6B68E26903F4800151
:1067500091427FF4A4AE216A03F03F028A427FF4A3
:106760009EAE616A47F6C0721A40B2EB811F7FF499
:1067700096AEA26A520803F44031013AB1EB024FDF
:106780007FF48DAEE26A03F07063B3EB026F14BF67
:10679000012000209BE600BF003802400000474275
:1067A000134908B58B6803F00C03042B1CD0082B8D
:1067B0001CD14A684B68496813F4800314BF0D4824
:1067C0000D48C1F3881118BF002302F03F02A1FB5E
:1067D0000001FAF7ADFD064B5B68C3F301430133DB
:1067E0005B00B0FBF3F008BD0248FCE70248FAE7A3
:1067F00000380240404B4C000024F4002DE9F041E9
:106800000D46044610B90120BDE8F081434B1A68DB
:1068100002F007028A4228D321688F072DD4C807C7
:1068200040D43E4B1A6802F00702AA4265D822689B
:1068300051076BD4130707D5394A2169936823F4AC
:10684000604343EAC1039360FFF7AAFF344B354A24
:106850009B68C3F30313D35CD840334B1860334BAE
:106860001868FEF787FD0020CEE7CAB21A701B68D1
:1068700003F007038B42C6D1CEE7294B11F0040F7A
:106880001EBF9A6842F4E0529A600E0742BF9A68AF
:1068900042F460429A609A68A06822F0F0020243D3
:1068A0009A60BCE762681E4B012A1CD11B6813F476
:1068B000003FA8D01A4EB36823F003031343B3601C
:1068C000FEF7A2FD41F288380746B368626803F01C
:1068D0000C03B3EB820FA4D0FEF796FDC01B40451E
:1068E000F3D9032090E7911E01291B6802D813F009
:1068F000007FDEE713F0020FDBE7EAB21A701B68D5
:1069000003F00703AB427FF47EAF90E70449E068F1
:106910008B6823F4E05303438B608BE7003C024019
:106920000038024046500108C0000020E40000206A
:10693000044B054A9B68C3F38223D35C034A106867
:10694000D8407047003802403E500108C000002087
:10695000044B054A9B68C3F34233D35C034A106877
:10696000D8407047003802403E500108C000002067
:10697000036813F0050FF7B5044605D123689B079C
:106980002AD4002003B0F0BD424B434E00229A6649
:10699000FEF73AFD054633681F0116D4D4E90123FA
:1069A0001B0743EA8213C6F884303A4B3A4E012261
:1069B0009A66FEF729FD054633681801DED4FEF716
:1069C00023FD401B0228F7D904E0FEF71DFD401B04
:1069D0000228E0D90320D5E7002301932E4B2F4D49
:1069E0001A6C42F080521A641B6C03F080530193BE
:1069F000019B2B6843F480732B60FEF705FD064670
:106A00002B68D9051BD5244DE2682B6F13F4407316
:106A10001BD1E36803F44072B2F5407F1E4A34D1C3
:106A2000916823F0704021F4F81120F44070014384
:106A30009160116FC3F30B030B431367A1E7FEF7DC
:106A4000E3FC801B0228DBD9C4E702F440729342C6
:106A5000DFD02B6F0F4A0121C2F8401E23F4407390
:106A60000021C2F8401E2B672B6FDA07D1D5FEF745
:106A7000CBFC41F2883706462B6F9B07C9D4FEF743
:106A8000C3FC801BB842F7D9A4E7916821F4F81140
:106A9000CEE700BF000047420038024000700040CF
