:020000040801F1
:1000000000000220A5610108BD5D0108BF5D010877
:10001000C15D0108C35D0108C55D01080000000065
:10002000000000000000000000000000C75D0108A3
:10003000C95D010800000000CB5D0108CD5D01082D
:1000400019620108196201081962010819620108A0
:100050001962010819620108196201081962010890
:100060001962010819620108196201081962010880
:100070001962010819620108196201081962010870
:100080001962010819620108196201081962010860
:100090001962010819620108196201081962010850
:1000A0001962010819620108196201081962010840
:1000B0001962010819620108196201081962010830
:1000C0001962010819620108196201081962010820
:1000D0001962010819620108ED5D01081962010841
:1000E000F95D010819620108196201081962010825
:1000F00019620108196201081962010819620108F0
:10010000196201081962010819620108015E0108FB
:1001100019620108196201081962010819620108CF
:1001200019620108196201081962010819620108BF
:1001300019620108196201081962010819620108AF
:10014000196201081962010819620108196201089F
:10015000196201080D5E010819620108195E0108A3
:10016000196201081962010819620108196201087F
:1001700019620108196201081962010800000000F3
:0801800019620108196201086F
:100188000200000002000000180000000400000047
:10019800040000000B000000390000000F00000000
:0801A80020202020202020204F
:1001B000000000000000000000000000000000003F
:1001C000000000000000000000000000000000002F
:1001D000000000000000000000000000000000001F
:1011B000EEEEEEEEEEEEEEEEEEEEEEEE0000000007
:1011C000000000000000000000000000000000001F
:1011D000000000000000000000000000000000000F
:1011E00000000000000000000000000000000000FF
:1011F00000000000000000000000000000000000EF
:1012000000000000000000000000000000000000DE
:1012100000000000000000000000000000000000CE
:1012200000000000000000000000000000000000BE
:1012300000000000000000000000000000000000AE
:10124000000000000000000000000000000000009E
:10125000000000000000000000000000000000008E
:10126000000000000000000000000000000000007E
:10127000000000000000000000000000000000006E
:10128000000000000000000000000000000000005E
:10129000000000000000000000000000000000004E
:1012A000000000000000000000000000000000003E
:1012B000000000000000000000000000000000002E
:1012C000000000000000000000000000000000001E
:1012D000000000000000000000000000000000000E
:1012E00000000000000000000000000000000000FE
:1012F00000000000000000000000000000000000EE
:1013000000000000000000000000000000000000DD
:081310000000000000000000D5
:1013200010F8012B11F8013B012A28BF9A42F7D08F
:10133000D01A70470000000000000000000000000C
:1013400001F0FF01102A2BDB10F0070F08D010F876
:10135000013B013A8B422DD010F0070F42B3F6D17A
:10136000F0B441EA012141EA014122F007047FF093
:1013700000070023F0E80256083C85EA010586EAEA
:10138000010685FA47F5A3FA87F586FA47F6A5FA26
:1013900087F68EB9EED1F0BC01F0FF0102F0070232
:1013A00032B110F8013B013A83EA010313B1F8D1DD
:1013B0000020704701387047002D06BF35460338BE
:1013C000073815F0010F07D1013015F4807F02BFF7
:1013D000013015F4C03F0130F0BC0138704700BF48
:1013E000034613F8012B002AFBD1181A0138704765
:1013F00053B94AB9002908BF00281CBF4FF0FF317C
:101400004FF0FF3000F00CB8ADF1080C6DE904CEE0
:101410000DF0C8FBDDF804E0DDE9022304B07047FD
:10142000704700BF0348044B834202D0034B03B113
:1014300018477047D4010020D401002000000000AC
:101440000548064B1B1AD90F01EBA301491002D026
:10145000034B03B118477047D4010020D40100208A
:101460000000000010B5064C237843B9FFF7DAFFFF
:10147000044B13B10448AFF300800123237010BD67
:10148000D80100200000000060EE010808B5054BFF
:101490001BB105490548AFF30080BDE80840FFF7E0
:1014A000CFBF00BF00000000DC01002060EE01089B
:1014B0000369C26893429CBF81685B18013B981A1C
:1014C00070472DE9F041D0E902840546A8EB0406F7
:1014D0004068964220440F46144406D90CF0FCFCA8
:1014E000BFF35F8FEC60BDE8F0813246A4EB0804E7
:1014F0000CF0F2FC68682246B919EFE72DE9F843D1
:10150000C5680646894617464FF000083369B46837
:1015100070689D4228BF1B19641BBC4203F1FF3356
:1015200028BF3C465B1B9C4228BF1C4649462246BE
:1015300028440CF0D1FCB3682544A044A1443F1BCF
:10154000AB4208BF0025BFF35F8FF560002FDDD1F0
:101550004046BDE8F883000008B5144BA8220021DE
:1015600018460CF097FF0322026111494261114AAB
:101570008161C2614FF48062026200228262426233
:10158000C26201660C49416610218166034602670A
:10159000C2664267BFF35F8F084911F8010D985486
:1015A0000132102AF9D1BFF35F8F08BD0806002071
:1015B0004EF0010805020020F50100201F0E020870
:1015C000F8B5144B182700FB07751D4407FB0033C3
:1015D0000E46DB6A012B14460AD0022B14D023B925
:1015E0002846FFF765FF844208D900242046F8BD4D
:1015F0002846FFF75DFF844228BF04462246314655
:101600002846FFF75EFFF1E72846BDE8F840FFF700
:1016100075BF00BF08060020F8B50B4B1B780446C9
:101620000D4616460BB9FFF797FFEFF311874FF002
:10163000200181F31188324629462046FFF7C0FF7A
:1016400087F31188F8BD00BF08060020F8B5184CD4
:10165000237805460E460BB9FFF77EFFEFF311879F
:101660004FF0200181F31188182202FB0542506AD5
:10167000116A431C994208BF0023D16A022902D192
:10168000916A9942FBE7182202FB0541D1F828C074
:101690009C450BD005FB0222144462681654BFF32C
:1016A0005F8F01204B6287F31188F8BD0020FAE7B5
:1016B0000806002073B51C4D2B7804460BB9FFF7C4
:1016C0004BFFFF230F2C8DF8043029D8174B1B5DDF
:1016D0008DF80530EFF311864FF0200181F311886A
:1016E000EA6A02F00302022A0AD1114B11481C7067
:1016F00001A9FFF703FF002086F3118802B070BD37
:101700000C48FFF7D5FE012807D9094B09481C7082
:10171000022201A9FFF7D5FEEDE74FF0FF30EBE71E
:101720004FF0FF30EAE700BF08060020200E020855
:10173000F401002020060020826810B504464068AD
:10174000531C834205D820688154A360E3680133A9
:10175000E360D4E901329A420BD121682069FFF796
:101760005BFFA368984215BF4FF0FF330023E3608F
:10177000A36010BD2DE9F84F9946DDE90A431646EE
:10178000054688460A464FF0010AB24212D2CA45BF
:1017900038BFCA4613F0010B01D184B90024EB68AD
:1017A000002B3DDB0127B9F1010F1FD909F1FF39EA
:1017B0007743F8E70AF1010AB2FBF6F2E5E79B0787
:1017C00012D5B9F1000F0CBF30272027A245E6D271
:1017D00039462846FFF7B0FFEB68002B04F1FF34D1
:1017E000DDDB002CF2D1D9E72027EFE7B8FBF7F3D8
:1017F0009E42DDD9DFF84890B8FBF7F3284619F888
:10180000031007FB1388FFF797FFEB68002B03DB40
:10181000B7FBF6F3B74205D2BBF1000F00D064B9B5
:10182000BDE8F88F1F46E7E720212846FFF784FF31
:10183000EB68002B04F1FF34F2DB5445F4D8EFE7FA
:10184000300E02082DE9F04F00239BB00E464021D8
:10185000CDE90613CDE908300DF1280A03901546AD
:10186000CDF814A016F8011B39B9089D002D00F31E
:10187000108108981BB0BDE8F08F252940F0BA8090
:101880004FF0000B314611F8013B2D2B18D012D828
:10189000232B1CD02B2B17D00024314611F8013BF1
:1018A000A3F13000092815D80A2202FB0433A3F162
:1018B00030040E46F1E7302BEED14BF0020B01E085
:1018C0004BF0010B0E46DDE74BF0040BFAE74BF053
:1018D000080BF7E72E2B11D10E464FF000090A270F
:1018E000304610F8011BA1F1300CBCF1090F07D8EC
:1018F00007FB0911A1F130090646F1E74FF0000995
:10190000304610F8011B01F0FB07682F0646F8D09F
:10191000782909D86F290BD8632967D020D82529C1
:1019200068D0582900F09580089B002B9ADA9CE734
:1019300070390829F8D801A050F821F0831A01085D
:101940002919010829190108631A01082919010830
:10195000411A01082919010829190108531A010817
:101960006429E1D129680F68081D87EAE7712860BA
:10197000A1EBE7714FF001080A2009293EDCC845B8
:1019800038BFC8462CB1002F02DB1BF0040F00D07B
:10199000013C1BF0020F02D0B9F1000F04D01BF084
:1019A000010F01D17CBB002408990029BCDB002F6A
:1019B00035DA7F422D2105A8FFF7BEFE08990029E0
:1019C000B2DB0BF00301022904D1B9F1000F01D100
:1019D00054BB002408990029A6DBCDE9004B4B46F7
:1019E0000A22394605A8FFF7C5FE9DE72B681A1D98
:1019F00019782A6005A8FFF79FFE95E708F101080E
:101A0000B1FBF0F1B9E7A045CED2202105A8FFF740
:101A100093FE0899002904F1FF34C3DAC4E71BF0F0
:101A2000040FCED02B21C6E7A045D3D2302105A884
:101A3000FFF782FE0899002904F1FF34C8DAC9E7EC
:101A40002968081D2860CDE9004B4B460A22096829
:101A5000C8E72968081D2860CDE9004B4B461022D5
:101A6000F5E72B681A1D2A601C6814F8011B002971
:101A70003FF45AAF05A8FFF75FFE089B002BF4DA8E
:101A800052E729680B1D2B6000220823CDE90032A4
:101A9000E5E7079C24B1039822465146FFF7BCFDB9
:101AA0002C440894E5E600BF0EB403B503AB01AACD
:101AB00053F8041B0193FFF7C5FE02B05DF804EB79
:101AC00003B0704770470000F0B5044685B00D467E
:101AD00016461F460A4805F047FC20280CD14FF057
:101AE000FF33CDE90173009601232A4621460448BD
:101AF00005F07EFA05B0F0BD0A2004F0DFFBE9E74F
:101B0000142A0020F0B5044685B00D4616461F463F
:101B10000D4805F029FC2028FAD14FF0FF33CDE91C
:101B200001732A46084800960123214605F0D0F9A2
:101B3000054D4FF0FF3301222146284605F060FB9A
:101B40000028F6D105B0F0BD142A002008B513888E
:101B5000054A13800246A020FFF7B6FF10B1FFF739
:101B6000B1FF012008BD00BFB20600200A464FF4B5
:101B700096730146014805F043BB00BF142A0020BC
:101B800013460B4A10B513700246A020FFF7BAFFA8
:101B9000044610B1FFF796FF012440F6B831A020AB
:101BA000FFF7E4FF10B1FFF78DFF0124204610BDC1
:101BB000B00600202DE9F84F11F00F0705460C463E
:101BC0001646C2F307185FFA82FA02F00F0B1DD116
:101BD000B8F1000F01D15A462FE0102221462846C5
:101BE000FFF7CEFF60B908F1FF38103418F0FF0896
:101BF000A4B205F11005F0D1BBF1000F02D1002015
:101C0000BDE8F88F5A462146284616E05FFA87F964
:101C1000C7F11007FFB2B8F1000F12D19742DAD224
:101C20003A46FFF7ADFF0028EAD1AAF1100A09EB06
:101C30000A023919D2B289B2E819BDE8F84FFFF7A4
:101C40009FBF3A46FFF79CFF0028D9D1F61B3D44C1
:101C50003C441FFA86F8641B06F47F662E44A4B247
:101C60002919B54289B203D118F00F02C7D0CBE7CA
:101C700010222846FFF784FF0028C1D11035EFE776
:101C8000054B0A4619688B689B07FCD501466423FF
:101C9000014806F045B900BFD028002007B5084B21
:101CA0008DF807001A6893689B07FCD5642301220E
:101CB0000DF10701024806F033F903B05DF804FBAB
:101CC000D028002008B5074B1B78012B04D106480B
:101CD0000022042104F05EFEBDE80840012004F06B
:101CE000EDBA00BF12000020000C024008B5064B00
:101CF0001A78012A03D10548042104F04BFEBDE8FF
:101D00000840012004F0DABA12000020000C024062
:101D10001FB5FF238DF80E30094B1A6893689B0797
:101D2000FCD5642300930DF10F0201230DF10E0188
:101D3000034806F0A2F99DF80F0005B05DF804FB1A
:101D4000D028002013B5FFF7D1FF0A24FF20FFF7AA
:101D5000A5FF013CFAD1FFF7B5FF40230093062110
:101D60004FF415436846ADF80430FFF789FF4FF490
:101D70000054FFF7CDFF012809D1FFF7B7FFFF207F
:101D8000FFF78CFF034B01221A7002B010BD013C1B
:101D9000EFD1F2E7B406002010B5064C4FF4FA7309
:101DA0002380FFF7B5FFFF2802D02388002BF8D14E
:101DB00010BD00BFB606002070B506460D46FFF701
:101DC000EBFFFF284FF0000423D12846FFF766FF02
:101DD000FD2D18D04FF400713046FFF751FFFFF78B
:101DE00097FFFFF795FF4125FFF792FF00F01F03D4
:101DF000052B044603D0013D15F0FF05F4D1FFF794
:101E000087FF0028FBD004F01F04631F584258418D
:101E100070BD2046FCE738B504460D46FFF7BCFF11
:101E2000FF2828D12046FFF739FF280EFFF736FF9D
:101E3000C5F30740FFF732FFC5F30720FFF72EFF7A
:101E4000E8B2FFF72BFF402C13D0482C14BF012021
:101E50008720FFF723FF4C2C01D1FFF759FF0A24FD
:101E6000FFF756FF030603D5013C14F0FF04F7D13A
:101E700038BD9520EDE7FF20FAE7000070B50F4D63
:101E8000C82304460E462B80FFF742FFFF2803D1EC
:101E900028880028F8D170BDFE280DD1651E344475
:101EA000FFF736FF05F8010FA542F9D1FFF730FF24
:101EB000FFF72EFF0120EEE70020ECE7B806002038
:101EC0002DE9F341002840F09D804F4E357815F004
:101ED000020504D03078C0B202B0BDE8F081FFF74F
:101EE00031FFFFF7EFFE29464020FFF794FF01285E
:101EF00004460DD00024454B1C70FFF7F7FEFFF79A
:101F000007FF002C7BD0337803F0FE033370E1E74A
:101F10003F4F4FF47A734FF4D57148203B80FFF761
:101F20007AFF01283DD101ADA8460424FFF7F0FE59
:101F3000013C14F0FF0408F8010BF7D19DF80630BE
:101F4000012BD7D19DF80730AA2BD3D100217720C0
:101F5000FFF761FF012803D93B88002BF6D1C9E7C1
:101F60004FF080416920FFF756FF01460028F3D16A
:101F70003B88002BBED07A20FFF74DFF0028B9D157
:101F80000424FFF7C5FE013C14F0FF0405F8010B23
:101F9000F7D19DF8043013F0400F0CBF04240C243B
:101FA000A9E729467720FFF736FF012806D82946FA
:101FB0006920FFF730FF012898BF0224022C4FF060
:101FC00000011AD17720FFF726FF012803D93B88AB
:101FD000002BF3D18EE700216920FFF71CFF0028BA
:101FE000F5D13B88002B85D04FF400715020FFF7CE
:101FF00012FF00287FF47EAF7DE74120EDE7054B1F
:102000001C7067E7012067E700000020B50600208C
:10201000B8060020B406002018B9034B1878C0B2E7
:1020200070470120704700BF0000002070B50E46C9
:1020300015461C46002837D1002B35D01C4B1B7889
:10204000DA0733D41B4B1B785B0758BF6D02FFF7D1
:1020500039FE012C294613D15120FFF7DCFE38B997
:102060004FF400713046FFF709FFB0FA80F46409BD
:10207000FFF73CFEFFF74CFE201E18BF012070BD8D
:102080005220FFF7C8FE0028F2D14FF4007130460D
:10209000FFF7F4FE18B1013C06F50076F5D10021FA
:1020A0004C20FFF7B8FEE3E70420E8E70320E6E76B
:1020B00000000020B5060020F8B50D4616461C4667
:1020C000002847D1002B45D0254B1A78D00743D4A0
:1020D0001B78590742D4234F3B785A0758BF7602E2
:1020E000FFF7F0FD012C13D131465820FFF793FE86
:1020F00070BBFE212846FFF75FFEB0FA80F464094A
:10210000FFF7F4FDFFF704FE201E18BF0120F8BD05
:102110003B789B0707D500217720FFF77CFE2146FF
:102120005720FFF778FE31465920FFF774FE00284C
:10213000E6D1FC212846FFF73FFE18B1013C05F52A
:102140000075F6D1FD210020FFF736FE0028D7D11B
:102150000124D5E70420DAE70320D8E70220D6E7F8
:1021600000000020B50600207FB50E461546044647
:10217000002840F08F80052913D11378012B09D056
:10218000022B0AD0002B40F08580444B187020466B
:1021900004B070BDFFF7D6FDF9E7404B1B785370D4
:1021A000F5E73F4B1C7814F0010475D1FFF78AFD69
:1021B0000D2E6DD8DFE806F04807446C6C6C6C6C33
:1021C0006C6C6C4F5D6000214920FFF724FE28B144
:1021D0000124FFF78BFDFFF79BFDD8E71021684630
:1021E000FFF74CFE0028F3D09DF800109DF8093051
:1021F0009DF808208909012906D1013303EB022348
:102200009BB29B022B60E4E79DF807109DF80A0043
:10221000920902EB81029DF80610890201F44061E7
:1022200001320A449DF805105B0001F00F0101EB3B
:10223000D01103F006030B44073B02FA03F3E1E776
:102240004FF400732B80C4E7FFF7A6FDB0F1FF0445
:1022500018BF0124BDE700214920FFF7DCFD00285D
:10226000B6D110212846FFF709FEB0FA80F46409C0
:10227000AFE700214A20F0E700217A20FFF7CBFDED
:1022800030B92C1DFFF744FD05F8010BAC42F9D124
:1022900004249EE704247AE7032478E7B4060020A8
:1022A00000000020B0F5004F00D000BF70470000D4
:1022B00030B5144987B00446112213480AF01AFABF
:1022C0000546E0B9214611480BF032F96B4612225F
:1022D00001A90D480AF0AAFB0B480AF05EFE01A90D
:1022E0000B488DF815500BF023F91222214601A856
:1022F000FFF760FC2146024606480BF019F907B0CB
:1023000030BD00BFA5F00108C0060020ABF00108F9
:10231000E5F00108EFF0010810B5094B1B7898B003
:1023200004465D2253B9074968460BF0D5FD5D228E
:102330002146684603F0C0FA18B010BD0249F3E721
:102340008D2A00209CF10108F9F1010830B52D4CCF
:102350009BB0054601462C480BF0EAF82B491122A8
:1023600020460AF0C7F901AB02A90F2220460AF065
:102370005DFB20460AF011FE2549112220460AF095
:10238000B9F901AB0DF117010F2220460AF04EFBFF
:1023900020460AF002FE1F49112220460AF0AAF93F
:1023A00001AB0DF126010F2220460AF03FFB20462B
:1023B0000AF0F3FD1849112220460AF09BF901ABFF
:1023C0000DF135010F2220460AF030FB20460AF0BD
:1023D000E4FD1249112220460AF08CF922462121FF
:1023E00011A80AF07CFF20460AF0D7FD02A90C488C
:1023F0000BF09EF85D22294602A803F05DFA1BB09F
:1024000030BD00BFC006002056F201085CF1010893
:1024100064F101086CF1010874F101087CF1010814
:102420008EF20108F0B59DB001465D2204A803F0CC
:1024300059F904A90F226E486E4F6F4E6F4D704CC4
:102440000BF014FE0DF11F010F226E480BF00EFE73
:102450000DF12E010F226C480BF008FE0DF13D012D
:102460000F226A480BF002FE04A9032203A80BF016
:10247000FDFD03A80BF022FF05A93870032203A875
:102480000BF0F4FD03A80BF019FF06A978700322E6
:1024900003A80BF0EBFD03A80BF010FF07A9B87021
:1024A000032203A80BF0E2FD03A80BF007FF0DF1D8
:1024B0001F01F870032203A80BF0D8FD03A80BF04E
:1024C000FDFE0DF123013070032203A80BF0CEFDB9
:1024D00003A80BF0F3FE0DF127017070032203A88F
:1024E0000BF0C4FD03A80BF0E9FE0DF12B01B07059
:1024F000032203A80BF0BAFD03A80BF0DFFE0DF1D9
:102500002E01F070032203A80BF0B0FD03A80BF01E
:10251000D5FE0DF132012870032203A80BF0A6FDB1
:1025200003A80BF0CBFE0DF136016870032203A85F
:102530000BF09CFD03A80BF0C1FE0DF13A01A87051
:10254000032203A80BF092FD03A80BF0B7FE0DF1D8
:102550003D01E870032203A80BF088FD03A80BF0EF
:10256000ADFE0DF141012070032203A80BF07EFDAA
:1025700003A80BF0A3FE0DF145016070032203A830
:102580000BF074FD03A80BF099FE0DF14901A0704A
:10259000032203A80BF06AFD03A80BF08FFE13A91A
:1025A000E07020221A480BF061FDFB780093BB78A5
:1025B0007A78397817480AF0BBFFF3780093B3783C
:1025C0007278317814480AF0B3FFEB780093AB7857
:1025D0006A78297811480AF0ABFFE3780093A37872
:1025E000627821780E480AF0A3FF1DB0F0BD00BF4D
:1025F00063000020872700205A270020832700201F
:102600007F270020530000204300002033000020DB
:102610005E2700209FF20108B6F20108CDF2010802
:10262000E4F20108F0B5054685B00B480BF0A0FBBD
:102630000A4B6A4603F11007164618685968144693
:1026400003C40833BB422246F7D110222946304644
:1026500003F032F905B0F0BDFBF2010810F30108F8
:10266000F0B589B010220546002168460BF012FF34
:102670000D4B04AA03F11007164618685968144652
:1026800003C40833BB422246F7D1294610226846CC
:1026900003F028F80F22314668460BF0D5FC0038CD
:1026A00018BF012009B0F0BD95F0010830B58C4C81
:1026B0008C488D4D8DB002F04BFA8C49112220468A
:1026C0000AF018F82246102103A80AF008FE03A910
:1026D00087480AF025FF03A9032202A80BF0C6FCD5
:1026E00002A80BF0EBFD04A92870032202A80BF04E
:1026F000BDFC02A80BF0E2FD05A96870032202A848
:102700000BF0B4FC02A80BF0D9FD06A9A8700322B7
:1027100002A80BF0ABFC02A80BF0D0FDE870C0B231
:102720000090AB786A7829787248734D0AF000FF00
:1027300020460AF032FC71491122204609F0DAFFE6
:102740002246102103A80AF0CAFD03A96C480AF02A
:10275000E7FE03A9032202A80BF088FC02A80BF0F5
:10276000ADFD04A92870032202A80BF07FFC02A88B
:102770000BF0A4FD05A96870032202A80BF076FCFB
:1027800002A80BF09BFD06A9A870032202A80BF07B
:102790006DFC02A80BF092FDE870C0B20090AB781F
:1027A0006A7829785748584D0AF0C2FE20460AF048
:1027B000F4FB56491122204609F09CFF22461021C5
:1027C00003A80AF08CFD03A951480AF0A9FE03A949
:1027D000032202A80BF04AFC02A80BF06FFD04A92B
:1027E0002870032202A80BF041FC02A80BF066FD42
:1027F00005A96870032202A80BF038FC02A80BF0B0
:102800005DFD06A9A870032202A80BF02FFC02A808
:102810000BF054FDE870C0B20090AB786A7829786C
:102820003C483D4D0AF084FE20460AF0B6FB3B4989
:102830001122204609F05EFF2246102103A80AF06B
:102840004EFD03A936480AF06BFE03A9032202A835
:102850000BF00CFC02A80BF031FD04A92870032238
:1028600002A80BF003FC02A80BF028FD05A9687074
:10287000032202A80BF0FAFB02A80BF01FFD06A929
:10288000A870032202A80BF0F1FB02A80BF016FDC2
:10289000E870C0B20090AB786A7829782148224D60
:1028A0000AF046FE20460AF078FB20491122204615
:1028B00009F020FF2246212103A80AF010FD202262
:1028C00003A928460BF0D2FB20460AF066FB002342
:1028D0002946174885F820300AF02AFE0DB030BD91
:1028E000C006002020F30108872700205CF10108C2
:1028F000630000209FF201085A27002064F10108BC
:1029000053000020B6F20108832700206CF1010873
:1029100043000020CDF201087F27002074F1010858
:1029200033000020E4F201085E2700207CF101085A
:102930003DF3010808B51549154807F007FD15498D
:10294000154807F003FD1549154807F0FFFC154928
:10295000154807F0FBFC1549154807F0F7FC154929
:10296000154807F0F3FC1549154807F0EFFC154929
:10297000154807F0EBFC1549154807F0E7FCBDE8E2
:1029800008401449144807F0E1BC00BFE5570208AD
:1029900082090208400E020878F00108BC7602089D
:1029A00047F30108630000205CF101085300002098
:1029B00064F10108430000206CF10108330000209D
:1029C00074F101082100002051F301081B000020D0
:1029D00059F301081300002061F3010810B500222B
:1029E00004464FF400711C4803F0D4FF462003F066
:1029F00065FC01224FF40071174803F0CBFF46201D
:102A000003F05CFC03F072FB144B15491A689B88B9
:102A10008B80144B0A601B68C1F80630124B1B6890
:102A2000C1F80E30114B00201B68C1F80A3007F0C6
:102A3000FFF80F4A002312880121204606F094FA7D
:102A4000204606F023FB012805D121460948BDE8B0
:102A500010400AF06DBD10BD000802405427002050
:102A60001401002087270020832700207F270020D3
:102A70000A00002066F3010838B50546012209F076
:102A800039FE2C6928460AF088FAB4FA84F0400925
:102A9000800038BD10B518491848FFF7EDFFD8B9C8
:102AA00017491648FFF7E8FFB0B916491348FFF772
:102AB000E3FF88B914491148FFF7DEFF60B91349F5
:102AC0000E48FFF7D9FF38B911480BF051F9BDE8AE
:102AD00010400A480AF061BA0E4B0F480024012248
:102AE00004211C7003F056FF0C482246042103F019
:102AF00051FF0B48E9E700BF5CF10108C006002068
:102B000064F1010874F101086CF101087CF101081D
:102B100082F3010812000020000C02400010024065
:102B2000B6F3010808B505480122042103F032FF7D
:102B3000BDE80840024802F0B5BD00BF000C0240ED
:102B4000D028002038B5324B1B780BBB314D2B7889
:102B50007BB94FF4D070FFF783FD044648B92E4887
:102B60000BF006F92046FFF7D7FB4FF4D070FFF7C4
:102B700059FD2B78012B06D1FFF798FDBDE83840B1
:102B80000020FFF7E3BBBDE838400020FFF74ABC58
:102B90000020FFF7C1FB0020FFF744FC01224FF4A7
:102BA00080511E4803F0F6FE642003F087FB0022EC
:102BB0004FF48051194803F0EDFE642003F07EFBD2
:102BC00001224FF48051154803F0E4FE642003F025
:102BD00075FB00224FF48051104803F0DBFE6420A7
:102BE00003F06CFB01224FF480510C4803F0D2FE3D
:102BF000642003F063FB094800224FF4805103F086
:102C0000C9FE642003F05AFBBDE8384003F0BCBBAA
:102C1000682A002012000020E8F30108000C02409E
:102C2000024A00231288022106F09EB90800002003
:102C3000054B01225978043281F0FB01312A597089
:102C400003F10403F6D1704718100010054B012260
:102C50005978043281F0FB01312A597003F10403E1
:102C6000F6D170474810001037B5054603F020FB39
:102C70002F4B30491B88009304462F4B30222846A7
:102C800006F07EFB03F014FB04F5FA74A0420AD2AE
:102C900000222A484FF4804103F07CFE284B00229A
:102CA0001A7003B030BD274C274894F900100AF081
:102CB0003FFC224800224FF4805103F06BFE1F4876
:102CC00000224FF4004103F065FE01224FF48041E1
:102CD0001A4803F05FFE642003F0F0FA00224FF47C
:102CE0008041164803F056FE642003F0E7FA012203
:102CF0004FF48041114803F04DFE642003F0DEFAEA
:102D000000224FF480410D4803F044FE642003F09C
:102D1000D5FA0E4804F052FB2378013B5BB2002B3E
:102D20002370BEDA03B0BDE8304003F02DBB00BF16
:102D300008000020730000205A270020000C0240E9
:102D40001100002010000020F8F30108082A0020DC
:102D500008B505480BF00CF8002007F0E7FABDE8CD
:102D6000084003F011BB00BF24F4010810B5234B49
:102D70008AB0B3F8A51093F8A720ADF80810204941
:102D80008DF80A2004460022D3F8A1000190CDE975
:102D90000412D3F8AB00D3F8AF10ADF80B208DF8C8
:102DA0000D20ADF8182007AA03C20534B3F8B330DC
:102DB000138001A92046FEF7B3FA48B104A92046C2
:102DC000FEF7AEFA20B107A92046FEF7A9FA78B9B6
:102DD0000C480AF0CDFF0C4B002207A920461A70C0
:102DE000FEF79EFA10B9094B02221A700AB010BD04
:102DF00007480AF0BDFF074B0122F6E778EE01080D
:102E0000757365723AF40108060000200500002081
:102E100043F40108692A002038B50F4C0F49237884
:102E2000022B08BF00234FF0200200F1080008BF6A
:102E300023700BF009F9054620B9094801F088FE16
:102E4000257038BD074801F083FE2378012B04BFAD
:102E5000054A1370F5E700BF050000205E2700203B
:102E600056F4010864F40108692A00202DE9F047AE
:102E700001468EB004469F480AF05AFB0023E25CEC
:102E80002E2A03F10107DBB205D038336B4403F877
:102E9000182C3B46F3E7032B18D1BDF820209DF8F2
:102EA0002230ADF810208DF8123004A80BF006FA8D
:102EB0003D46C6B2625DEB1B2E2ADBB205F1010571
:102EC00019D038336B4403F8182CF3E7022B09D1DF
:102ED00030238DF810309DF820308DF811309DF89A
:102EE0002130E0E7012BE0D143F23003ADF81030A0
:102EF0009DF82030D7E7032B1AD1BDF820209DF88C
:102F00002230ADF814208DF8163005A80BF0D6F954
:102F1000AA46C7B214F80A20AAEB05032E2ADBB290
:102F20000AF1010A19D038336B4403F8182CF1E781
:102F3000022B09D130238DF814309DF820308DF804
:102F400015309DF82130DEE7012BDED143F230034E
:102F5000ADF814309DF82030D5E7032B1DD1BDF816
:102F600020209DF82230ADF818208DF81A3006A8E0
:102F70000BF0A4F904EB0A0580465FFA80F90024FF
:102F800015F8013B621CE4B2E3B104F138010DEB2A
:102F9000010404F8183C1446F2E7022B09D130234F
:102FA0008DF818309DF820308DF819309DF82130BB
:102FB000DBE7012BDBD143F23003ADF818309DF88D
:102FC0002030D2E7032C1ED1BDF820209DF82230FE
:102FD000ADF81C208DF81E30474C07A80BF06EF999
:102FE0002378B342C0B223D16378BB4220D1A37807
:102FF0004B451DD1E37883421AD140480AF0B8FE10
:103000000EB0BDE8F087022C09D130238DF81C30BA
:103010009DF820308DF81D309DF82130DAE7012C25
:10302000DAD143F23003ADF81C309DF82030D1E7FF
:10303000E0702670677084F802905FFA88F3009061
:103040003A462F4831460AF073FA2E4B1D78012D6F
:1030500037D12D492D48122209F04CFB0028CFD141
:103060002B480AF085FE0A2304A903220AA88DF83A
:103070000C302E240AF0FAFF05A903220BA88DF8C4
:103080002B400AF0F3FF06A903220CA88DF82F406D
:103090000AF0ECFF07A903220DA88DF833400AF0CF
:1030A000E5FF2A4603A90DF137000AF0DFFF09AB5F
:1030B00010220AA9154809F08FFD144809F06DFF88
:1030C0009EE714480AF054FE0322002104A802F0EF
:1030D000F3FB0322042105A802F0EEFB03220821E2
:1030E00006A802F0E9FB03220C2107A802F0E4FB8A
:1030F00086E700BF77F401088727002089F40108DC
:10310000ABF40108120000205CF10108C0060020A9
:10311000C6F40108ECF401082DE9F04300238FB058
:103120000446E25C2E2A03F10106DBB205D03833F7
:103130006B4403F8182C3346F3E7032B18D1BDF882
:1031400020209DF82230ADF810208DF8123004A810
:103150000BF0B4F83746C5B2E25DBB1B2E2ADBB2DA
:1031600007F1010719D038336B4403F8182CF3E743
:10317000022B09D130238DF810309DF820308DF8C6
:1031800011309DF82130E0E7012BE0D143F230030C
:10319000ADF810309DF82030D7E7032B1AD1BDF8D9
:1031A00020209DF82230ADF814208DF8163005A8A7
:1031B0000BF084F8B946C6B214F80920A9EB07034E
:1031C0002E2ADBB209F1010919D038336B4403F818
:1031D000182CF1E7022B09D130238DF814309DF81B
:1031E00020308DF815309DF82130DEE7012BDED13F
:1031F00043F23003ADF814309DF82030D5E7032BAF
:103200001DD1BDF820209DF82230ADF818208DF892
:103210001A3006A80BF052F804EB090207465FFAD1
:1032200080F8002412F8013B611CE4B2E3B104F120
:1032300038000DEB000404F8183C0C46F2E7022BB2
:1032400009D130238DF818309DF820308DF81930D1
:103250009DF82130DBE7012BDBD143F23003ADF8E1
:1032600018309DF82030D2E7032C1ED1BDF8202065
:103270009DF82230ADF81C208DF81E30454C07A873
:103280000BF01CF82378AB42C0B223D16378B34271
:1032900020D1A37843451DD1E37883421AD13E481B
:1032A0000AF066FD0FB0BDE8F083022C09D130238F
:1032B0008DF81C309DF820308DF81D309DF82130A0
:1032C000DAE7012CDAD143F23003ADF81C309DF877
:1032D0002030D1E72570E070667084F80280FBB280
:1032E000009029462D4832460AF022F92C4B1D78D1
:1032F000012D37D12B492C48122209F0FBF9002867
:10330000D0D12A480AF034FD0A2304A903220AA8CE
:103310008DF80C302E240AF0A9FE05A903220BA873
:103320008DF82B400AF0A2FE06A903220CA88DF806
:103330002F400AF09BFE07A903220DA88DF8334009
:103340000AF094FE2A4603A90DF137000AF08EFE1A
:1033500009AB10220AA9144809F03EFC124809F0F2
:103360001CFE9FE712480AF003FD03222D2104A84A
:1033700002F0A2FA0322312105A802F09DFA0322ED
:10338000362106A802F098FA03223A2107A802F093
:1033900093FA87E77F27002016F5010837F5010823
:1033A0001200002074F10108C006002052F5010847
:1033B00078F501082DE9F04300238FB00446E25C64
:1033C0002E2A03F10106DBB205D038336B4403F833
:1033D000182C3346F3E7032B18D1BDF820209DF8B5
:1033E0002230ADF810208DF8123004A80AF066FFE4
:1033F0003746C5B2E25DBB1B2E2ADBB207F10107DF
:1034000019D038336B4403F8182CF3E7022B09D199
:1034100030238DF810309DF820308DF811309DF854
:103420002130E0E7012BE0D143F23003ADF810305A
:103430009DF82030D7E7032B1AD1BDF820209DF846
:103440002230ADF814208DF8163005A80AF036FFAA
:10345000B946C6B214F80920A9EB07032E2ADBB23D
:1034600009F1010919D038336B4403F8182CF1E73E
:10347000022B09D130238DF814309DF820308DF8BF
:1034800015309DF82130DEE7012BDED143F2300309
:10349000ADF814309DF82030D5E7032B1DD1BDF8D1
:1034A00020209DF82230ADF818208DF81A3006A89B
:1034B0000AF004FF04EB090207465FFA80F80024D3
:1034C00012F8013B611CE4B2E3B104F138000DEBEA
:1034D000000404F8183C0C46F2E7022B09D1302313
:1034E0008DF818309DF820308DF819309DF8213076
:1034F000DBE7012BDBD143F23003ADF818309DF848
:103500002030D2E7032C1ED1BDF820209DF82230B8
:10351000ADF81C208DF81E30454C07A80AF0CEFEF1
:103520002378AB42C0B223D16378B34220D1A378D1
:1035300043451DD1E37883421AD13E4801F008FB90
:103540000FB0BDE8F083022C09D130238DF81C3078
:103550009DF820308DF81D309DF82130DAE7012CE0
:10356000DAD143F23003ADF81C309DF82030D1E7BA
:103570002570E070667084F80280FBB200902946E6
:103580002D48324609F0D4FF2C4B1D78012D37D140
:103590002B492C48122209F0ADF80028D0D12A4836
:1035A0000AF0E6FB0A2304A903220AA88DF80C30CE
:1035B0002E240AF05BFD05A903220BA88DF82B40F1
:1035C0000AF054FD06A903220CA88DF82F400AF03A
:1035D0004DFD07A903220DA88DF833400AF046FDE2
:1035E0002A4603A90DF137000AF040FD09AB10226D
:1035F0000AA9144809F0F0FA124809F0CEFC9FE736
:1036000012480AF0B5FB03221E2104A802F054F967
:103610000322222105A802F04FF90322262106A841
:1036200002F04AF903222A2107A802F045F987E7A8
:1036300083270020A2F50108C5F50108120000202B
:103640006CF10108C0060020E0F5010806F601084B
:103650002DE9F04300238FB00446E25C2E2A03F1EB
:103660000106DBB205D038336B4403F8182C33461F
:10367000F3E7032B18D1BDF820209DF82230ADF8D8
:1036800010208DF8123004A80AF018FE3746C5B293
:10369000E25DBB1B2E2ADBB207F1010719D03833DC
:1036A0006B4403F8182CF3E7022B09D130238DF873
:1036B00010309DF820308DF811309DF82130E0E772
:1036C000012BE0D143F23003ADF810309DF82030EB
:1036D000D7E7032B1AD1BDF820209DF82230ADF892
:1036E00014208DF8163005A80AF0E8FDB946C6B2D8
:1036F00014F80920A9EB07032E2ADBB209F101090E
:1037000019D038336B4403F8182CF1E7022B09D198
:1037100030238DF814309DF820308DF815309DF849
:103720002130DEE7012BDED143F23003ADF8143057
:103730009DF82030D5E7032B1DD1BDF820209DF842
:103740002230ADF818208DF81A3006A80AF0B6FD20
:1037500004EB090207465FFA80F8002412F8013BE7
:10376000611CE4B2E3B104F138000DEB000404F88D
:10377000183C0C46F2E7022B09D130238DF81830A3
:103780009DF820308DF819309DF82130DBE7012BB2
:10379000DBD143F23003ADF818309DF82030D2E78A
:1037A000032C1ED1BDF820209DF82230ADF81C203E
:1037B0008DF81E30454C07A80AF080FD2378AB42F7
:1037C000C0B223D16378B34220D1A37843451DD141
:1037D000E37883421AD13E4801F0BAF90FB0BDE850
:1037E000F083022C09D130238DF81C309DF8203055
:1037F0008DF81D309DF82130DAE7012CDAD143F243
:103800003003ADF81C309DF82030D1E72570E07012
:10381000667084F80280FBB2009029462D4832463B
:1038200009F086FE2C4B1D78012D37D12B492C48F1
:10383000122208F05FFF0028D0D12A480AF098FA37
:103840000A2304A903220AA88DF80C302E240AF0BA
:103850000DFC05A903220BA88DF82B400AF006FCED
:1038600006A903220CA88DF82F400AF0FFFB07A938
:1038700003220DA88DF833400AF0F8FB2A4603A96D
:103880000DF137000AF0F2FB09AB10220AA9144827
:1038900009F0A2F9124809F080FB9FE712480AF0EC
:1038A00067FA03220F2104A802F006F8032213216D
:1038B00005A802F001F80322172106A801F0FCFF79
:1038C00003221B2107A801F0F7FF87E75A270020F2
:1038D00030F6010853F601081200002064F10108D7
:1038E000C00600206EF6010894F6010810B50146E6
:1038F0000446174809F01CFE16480AF039FA164B20
:103900001B78012B19D115491548122208F0F2FE37
:10391000E8B914480AF02CFA00220023104809F0F4
:103920004DFB0F49204609F0FFFC0D4809F088FACD
:10393000BDE810400A4809F030BB0B480AF018FAFD
:1039400020462122BDE810403C2101F0B5BF10BD4A
:10395000BEF60108CBFE0108120000207CF1010830
:10396000C0060020D6F60108F8F60108F7B5144F96
:1039700004460D46134816460821012203F00AF8B2
:103980003B7833B9104900962B463022204605F08B
:10399000F7FC3B78012B06D10C4900962B463022D0
:1039A000204605F0EDFC07480022082102F0F2FF56
:1039B0002821142003B0BDE8F04001F0A9BA00BFEF
:1039C0008D2A0020000C0240781000101810001002
:1039D0002DE9F04385B0DFF86082ADF80E20DFF806
:1039E0005C92012205460E4686484FF4805102F053
:1039F000D1FF10218448012202F0CCFF02F058FCD4
:103A0000D8F8001099F800300131012B0446C8F8AD
:103A1000001040F0AC807D4B984235D940F6B83369
:103A2000B1FBF3F703FB171777BB794B1A78012A21
:103A30002AD13C26774DB0FBF5F54FF47A72B0FBF6
:103A4000F2F2B2FBF6F006FB10221F704EF6602079
:103A50001823B4FBF0F00192B0FBF6F206FB120063
:103A600000906D4AB5FBF3FC6C48B4FBF2F203FB2B
:103A70001C5301F04FF8634800224FF4805102F0CC
:103A800089FF05B0BDE8F083654B48F6CF324B4364
:103A9000B2EBB31F21D34FF03C0C4FF47A72B4FB5E
:103AA000F2F2B2FBFCFE0CFB1E22182301924EF632
:103AB0006022B4FBF2F2B2FBFCFE0CFB1E22554866
:103AC0000092B4FBF0F0544AB0FBF3F7B4FBF2F20F
:103AD00003FB1703534801F01DF80DF10E03524983
:103AE000009330223346284605F0F2FC4E4801F0A0
:103AF00071F8074600283AD101224FF4804142482C
:103B000002F048FF642002F0D9FB3A464FF48041AE
:103B10003D4802F03FFF642002F0D0FB01224FF449
:103B20008041394802F036FF642002F0C7FB3A4674
:103B30004FF48041344802F02DFF642002F0BEFBB8
:103B400001224FF48041304802F024FF642002F04B
:103B5000B5FB3A464FF480412B4802F01BFF64202E
:103B600002F0ACFB31480AF003F9FFF7F1F899F8DD
:103B7000003093BBD8F80010294B48F6CF324B43A6
:103B8000B2EBB31F20D33C274FF47A72B4FBF2F2AE
:103B9000B2FBF7FE07FB1E22182301924EF66022AD
:103BA000B4FBF2F2B2FBF7FE07FB1E2219480092AB
:103BB000B4FBF0F0184AB0FBF3FCB4FBF2F203FBE9
:103BC0001C031B4800F0A6FF0DF10E0300931949DA
:103BD00033463022284605F07BFC2821142001F0D2
:103BE000B7F94FF48041074802F0CEFE012808BF24
:103BF000074B4FF0000208BF18701021024802F076
:103C0000C9FE38E700040240000C0240A086010013
:103C10007F2A002080EE3600005C26051EF7010892
:103C2000DBD453BE62F70108481000109DF701086D
:103C3000C0F70108A8100010802A00208D2A00205B
:103C40002DE9F04FC44E337885B00446E3B9C34D37
:103C50002B78002B37D102F02BFB41F287339842AF
:103C600012D801F037F978B9BD480AF081F801227D
:103C7000FF234FF4407103A82A708DF80C3001F037
:103C80001BFEB8480AF074F83578012D1BD1B64FE9
:103C90003B78C3B902F00CFB41F28733984212D84B
:103CA00001F018F978B9AE480AF062F8FF232A4605
:103CB0004FF4407103A83D708DF80C3001F0FCFD0D
:103CC000A8480AF055F8A9484FF4004102F05CFEFC
:103CD0000128054640F0F98102462021A44802F05F
:103CE00059FE3778002F40F07681A248DFF8D49251
:103CF0002A46202102F04EFE9E483A46202102F03C
:103D000049FE4FF480539C4A9C4900939C483023C1
:103D100004F0B3F99B482A464FF4807102F03AFE52
:103D200098483A464FF4807102F034FE90483A4683
:103D3000202102F02FFE8E482A46202102F02AFE82
:103D400091498D4801F088F899F800305BB18B48B3
:103D500000F0D6FF8C4801F02BF8874800F0FCFFFC
:103D6000854801F04DF889498748DFF85C82884F23
:103D700001F081F80546002800F07281854B1D682E
:103D80000135012D1D602AD17B4800F039FF002349
:103D9000C8F80030804B1D6002F08AFA4FF03C0CEE
:103DA00018224FF47A71B0FBF1F1B1FBFCFB0CFB74
:103DB0001B117A4D0091B0FBF5F57949B5FBF2FE88
:103DC0004EF66023B0FBF1F1B0FBF3F302FB1E52A1
:103DD000B3FBFCFA73480CFB1A3300F09BFE3B6804
:103DE00001333B6099F800300025C8F8005053B10A
:103DF0000620FDF75FFC3A686B492846FDF754FE44
:103E00002846FDF757FC3A68684F46F678139A4201
:103E100042D13B88664900933022664B204605F02C
:103E2000AFFA654809F0A4FF01224FF480415048E1
:103E300002F0B0FD642002F041FA00224FF480410C
:103E40004B4802F0A7FD642002F038FA01224FF43B
:103E50008041474802F09EFD642002F02FFA0022C4
:103E60004FF48041424802F095FD642002F026FAAA
:103E700001224FF480413E4802F08CFD642002F0A4
:103E80001DFA3B4800224FF4804102F083FD64207C
:103E900002F014FAFEF75CFF304B1D78012D4FD174
:103EA000DFF8C49099F80080B8F1000F48D13B8842
:103EB0004249009330223F4B042005F061FA40480C
:103EC00009F056FF2A464FF48041294802F062FD6E
:103ED000642002F0F3F942464FF48041244802F096
:103EE00059FD642002F0EAF92A464FF48041204847
:103EF00002F050FD642002F0E1F942464FF48041A7
:103F00001B4802F047FD642002F0D8F92A464FF41E
:103F10008041174802F03EFD642002F0CFF942468E
:103F20004FF48041124802F035FD642002F0C6F9DA
:103F30004FF47A7089F8005002F0C0F901F054F99A
:103F40000B480022202102F025FD3A88194920461D
:103F5000FFF70CFD3AE000BF8D2A00207D2A0020EB
:103F6000F8F7010809F801087C2A00200004024043
:103F7000000C02400008024078100010A810001049
:103F800028290020000002400C1000100010001032
:103F9000782A0020702A00200C00002080EE3600D5
:103FA000005C260524F801085FF8010808000020DD
:103FB000D30000205A270020ACF80108A3000020FD
:103FC000CFF801087E2A0020742A00203A88404950
:103FD0002046FFF7FDFC3578012D76D1FEF736FE41
:103FE0003C482A46202102F0D5FC3A4800222021F4
:103FF00002F0D0FC4FF48053374A384900933848D8
:10400000302304F03AF837482A464FF4807102F022
:10401000C1FC00224FF48071324802F0BBFCFEF775
:1040200007FE31480022202102F0B4FC2F4B1B7800
:1040300043B92F4B1B78012B04D12E4809F098FE71
:1040400000F0E4FF2C4D22492A882046FFF7C0FCEF
:104050002A881F49204605B0BDE8F04FFFF786BC0F
:10406000D8F800300133642BC8F800307FF4CBAEB1
:10407000224BDFF8988018603860C8F8000002F022
:1040800017F94FF03C0E1E4AB0FBF2FC4FF47A7168
:104090001822B0FBF1F1B1FBFEFB0EFB1B110091EE
:1040A000BCFBF2F91749B0FBF1F14EF6602302FBBD
:1040B00019C2B0FBF3F31448B3FBFEFA0EFB1A333C
:1040C00000F028FDC8F800509DE605B0BDE8F08F6F
:1040D0005A27002000080240181000104810001055
:1040E0002829002000000240000C02407D2A002008
:1040F0007C2A0020FDF8010808000020702A00201A
:1041000080EE3600005C260571F801080C000020E6
:10411000F0B5144B85B06D46044603F110072A46EE
:10412000186859682E4603C60833BB423546F7D196
:104130001346114625780022104611F8016BB5424E
:1041400008BF80181032B2F5807FF6D16178002266
:1041500013F8014BA14208BF80180132102AF7D191
:1041600005B0F0BD25F901082DE9F04712248AB009
:104170000DEB0402014605A8ADF81240FDF7E6FC80
:10418000224605A92D48DFF8BCA009F06FFF05A95C
:10419000022204A809F06AFF04A8FFF7B9FF0DF195
:1041A000170107468AF80000022204A809F05EFF02
:1041B00004A8FFF7ADFF0DF11A0180468AF801004F
:1041C000022204A809F052FF04A8FFF7A1FF0DF195
:1041D0001D0181468AF80200022204A809F046FF68
:1041E00004A8FFF795FF08A98AF8030002220446F5
:1041F00004A809F03BFF04A8FFF78AFF0DF1230193
:104200008AF804000222054604A809F02FFF04A83A
:10421000FFF77EFFEDB2C6B2E4B28AF805005FFA9E
:1042200089F30296019500945FFA88F2F9B2044886
:1042300009F07EF90AB0BDE8F08700BF2100002038
:104240006DF90108542700202DE9F04FDFF8E480D4
:104250003449354F8BB01122404608F04BFA002309
:104260000022404608F0AAFE4246122105A809F0A5
:1042700036F805A912222D4809F0F8FE05A90222F8
:1042800004A809F0F3FE04A8FFF742FF0DF117019F
:1042900081463870022204A809F0E8FE04A8FFF75E
:1042A00037FF0DF11A0182467870022204A809F046
:1042B000DDFE04A8FFF72CFF0DF11D018346B87049
:1042C000022204A809F0D2FE04A8FFF721FF08A9E2
:1042D000F8700222044604A809F0C8FE04A8FFF7FB
:1042E00017FF0DF1230138710222054604A809F0D9
:1042F000BDFE04A8FFF70CFFEDB2C6B2E4B27871C0
:104300005FFA8BF35FFA8AF25FFA89F10296019500
:104310000094074809F00CF9404608F03EFE0BB047
:10432000BDE8F08FA5F001085427002021000020EF
:1043300092F90108C006002008B5084B1B78012B34
:104340004FF4907005D1FDF7B3FFBDE80840FFF7CB
:104350007BBFBDE80840FFF707BF00BF1200002089
:1043600008B572B6094C01224FF48041204602F094
:1043700011FB642001F0A2FF204600224FF480418F
:1043800002F008FB642001F099FFECE7000C02400A
:1043900030B5002495B01422214603A8CDE9094484
:1043A0000AF078F81F4B01941A6C42F080521A649C
:1043B0001B6C03F080530193019B1B4B02941A6802
:1043C00042F480421A601B6803F480430293029B0C
:1043D0000A230893102201230820CDE90B320D9304
:1043E000A823CDE910030225072308A8CDE90E5420
:1043F0001295139302F0E8FF08B1FFF7B1FF0F2306
:10440000CDE9033505904FF4A0524FF480530521B8
:1044100003A8CDE9062303F0B3F90028EDD115B0C8
:1044200030BD00BF00380240007000402DE9F04F61
:1044300093B00024924D01F015FFFFF7A9FF14225D
:1044400000210DA80AF026F807942B6B8D4843F045
:1044500010032B632B6B03F010030793079B089447
:104460002B6B43F004032B632B6B03F004030893C3
:10447000089B09942B6B43F080032B632B6B03F099
:1044800080030993099B0A942B6B43F001032B6370
:104490002B6B03F001030A930A9B0B942B6B43F0E5
:1044A00002032B632B6B03F002030B930B9B0C9407
:1044B0002B6B43F008032B632B6B03F008030C9367
:1044C000012206210C9B02F065FA6E482246182153
:1044D00002F060FA6C48012240F2012102F05AFA1F
:1044E00069482246202102F055FA684822464FF4D6
:1044F000805102F04FFA664822464FF2FB6102F00B
:1045000049FA6348012240F6040102F043FA01220D
:1045100060484FF4807102F03DFA01264FF0040923
:1045200058480DA9CDE90D96CDE90F6602F054F972
:104530001A2354480DA9CDE90D36CDE90F4402F0F8
:104540004BF9212350480DA9CDE90D36CDE90F4493
:1045500002F042F94FF488734B480F940DA9CDE94E
:104560000D3402F039F949480F940DA9CDE90D94A5
:1045700002F032F94FF4805344480DA9CDE90D36CD
:10458000CDE90F444FF4804802F026F902233F485A
:104590000F930DA9CDE90D8402F01EF94FF4004EE2
:1045A0004FF4881339480F940DA9CDE90DE34FF46A
:1045B000807B02F011F936480F940DA94FF0030AE1
:1045C000CDE90DB402F008F94FF6BB6330480F9403
:1045D0000DA9CDE90D36CDF840A04FF4007702F0DB
:1045E000FBF829480DA9CDE90D76CDE90F4A02F077
:1045F000F3F828480DA9CDE90DB6CDE90F4A02F030
:10460000EBF823480DA9CDE90D96CDE90F6602F030
:10461000E3F840231E480DA9CDE90D36CDE90F443E
:1046200002F0DAF822462146282001F06DFE28200B
:1046300001F09CFE06942B6B43F480032B632B6BE1
:1046400003F480032246214606934520069B01F091
:104650005BFE452001F08AFE0F48104B04614FF4C9
:10466000E1390C25C0E90039C0E90244C0E905542C
:10467000C46103F0E1FF034690B1FFF771FE00BF94
:1046800000380240001002400008024000040240CE
:10469000000C0240000002404828002000140140A5
:1046A000C848C94A87614FF4827A4FF0100B0A2438
:1046B000C0E90233C0E90433C0E907B3C0E90933F4
:1046C000C0E9002AC46203F0CFFB03460028D4D11E
:1046D000BE48BF4AC0E90233C0E90433C0E9083329
:1046E000C0E90A34C0E9002AC0E9067B03F0BCFB3C
:1046F00003460028C1D1B748B74A8761C0E9002AFC
:104700000822C0E90233C0E90436C0E90723C0E942
:104710000933C46203F0A8FB0028AED106F05AFAB0
:10472000AE48AF4B036003F07DF907460028A4D1E3
:10473000014614220DA809F0ADFEAA4CAA4B05971C
:10474000C4E900374FF07F0CFF232046C4E902C3C1
:10475000C4E90477A76103F0AFF900288DD1CDE952
:104760001000ADF834008DF8360032460DA9204611
:1047700003F0FBF9002880D19C4B0593324605A934
:10478000204603F063FA034600287FF476AF98488A
:10479000984A994C0362C0E90233C0E90483C0E936
:1047A0000633C0E9004202F0EBFA034600287FF42A
:1047B00064AF9248924AC0E90233C0E90029C0E9D7
:1047C0000435C0E9063303F037FF00287FF455AF06
:1047D0008C4C8D4F0523C4E9007320464FF4FA63D7
:1047E000A36002F0C4FD00287FF447AF8748884BE0
:1047F000036001F0EFFD034600287FF43EAF8548DB
:104800008549864A03624FF48045C0E90012C0E939
:104810000233C0E90453C0E9063302F0B1FA064698
:1048200000287FF42AAF4FF00108DFF854927C484B
:1048300089F800804246294602F0ACF8642001F075
:104840003DFD32462946764802F0A4F8642001F086
:1048500035FD42462946724802F09CF8642001F07A
:104860002DFD324629466E4802F094F8642001F08E
:1048700025FD424629466A4802F08CF8642001F082
:104880001DFD32462946664802F084F8642001F096
:1048900015FD644809F06CFA02221146624808F0DE
:1048A00047FE02231A466149614809F097FC614BB3
:1048B000614820221A7039230F22CDE901320B23DF
:1048C000009304231A464FF4FD6108F031FE5B4863
:1048D0004FF4807102F058F8594B002840F0E48002
:1048E0001870584809F044FA5749584808F018FE1B
:1048F00006236360276041F664132046A36002F03C
:1049000036FD00287FF4B9AE51495248002207F025
:10491000C7FEFEF7BFF8FFF70FFDFEF703F9FEF73E
:1049200011F90020FEF75AF800F09EFE0420FEF771
:1049300077F9494B49494A48012205F0E7FCFDF760
:10494000F9FF99F80030B3B30020FCF7B3FE01F093
:10495000AFFC44494FF47A72B0FBF2F20020FDF74D
:10496000A3F841490020FDF79FF80120FCF7A2FEC3
:104970003E490020FDF798F80220FCF79BFE3C49D9
:104980000020FDF791F80320FCF794FE3749002042
:10499000FDF78AF80420FCF78DFE34490020FDF76E
:1049A00083F80620FCF786FE32490020FDF77CF8EC
:1049B0000020FCF77FFE304D304E2B78012B00F0AD
:1049C00082805FE0D0280020003C00408029002049
:1049D000003001402829002000380040F82900203C
:1049E00000080650D82900200028004001050923AE
:1049F000142A0020801A0600005400408C28002051
:104A000000440040082A002000300040E027002039
:104A1000003002408C27002000580040A086010092
:104A2000000C0240B6F90108E8F9010806FA01088D
:104A30001B0000208801010810FA0108000802404C
:104A40008D2A00203AFA010848FA010813000020D4
:104A50001FF30108181700200100002000080010B3
:104A60000000001069FA01087DFA010885FA0108C2
:104A70008DFA010895FA01088C2A00206C2A002082
:104A80007E2A0020002005F03DFF2B7853BB1A4CF6
:104A9000237813B90420FFF7D3F82378012B8CD1A6
:104AA0000420FEF7E1F888E7144883F8008009F055
:104AB0005FF91349134808F033FD0623636027604C
:104AC00041F6583319E7346801F0F2FB04F59224FB
:104AD00004F578748442D5D20B4809F049F9FEF701
:104AE00037F9D2E7094B1B78002B7FF466AF0848F3
:104AF00002F064FC61E700BF1100002050FA0108D9
:104B000061FA0108130000209DFA0108692A0020BB
:104B1000082A00200FB400B5ADF5037D84AB4FF437
:104B2000007153F8042B019302A808F081FE02A83B
:104B3000FCF756FC02A982B2044803F001FE0DF511
:104B4000037D5DF804EB04B0704700BF48280020E7
:104B50000FB400B5ADF5037D84AB4FF4007153F88D
:104B6000042B019302A808F063FE02A8FCF738FCAE
:104B70004FF0FF3382B202A9044803F08BFD0DF51C
:104B8000037D5DF804EB04B0704700BF48280020A7
:104B90002DE9F0410D4FDFF838800E461546002410
:104BA000AC4202DB2846BDE8F0814FF6FF730122DC
:104BB0003119384603F06EFD98F800301BB1315DB5
:104BC0000020FCF743FD0134EAE700BF482800203D
:104BD0007E2A002010B508493022044609F034FA34
:104BE00040B106493022204609F02EFA00280CBFB9
:104BF0000120022010BD00BFD3000020A300002030
:104C000010B50446AEB00520FCF754FD94F82F30E3
:104C10002D9394F82B302C9394F827302B9394F801
:104C200023302A93E37F2993E37E2893E37D279320
:104C3000E37C2693E37B2593E37A2493E379239320
:104C4000E378229394F82E30219394F82A3020931D
:104C500094F826301F9394F822301E93A37F1D935F
:104C6000A37E1C93A37D1B93A37C1A93A37B199310
:104C7000A37A1893A3791793A378169394F82D30F9
:104C8000159394F82930149394F82530139394F8DD
:104C900021301293637F1193637E1093637D0F9392
:104CA000637C0E93637B0D93637A0C9363790B9310
:104CB00063780A9394F82C30099394F82830089379
:104CC00094F82430079394F820300693237F0593BB
:104CD000237E0493237D0393237C0293237B019300
:104CE000237A00932379227804490020FCF7DCFE24
:104CF00000202EB0BDE81040FCF7DCBCB9FA01087A
:104D000010B504468AB00120FCF7D4FC94F82C308E
:104D1000099394F82830089394F82430079394F872
:104D200020300693237F0593237E0493237D0393F2
:104D3000237C0293237B0193237A009323792278A7
:104D400004490020FCF7B0FE00200AB0BDE8104086
:104D5000FCF7B0BC80FB010810B504468AB0032004
:104D6000FCF7A8FC94F82E30099394F82A300893A5
:104D700094F82630079394F822300693A37F059386
:104D8000A37E0493A37D0393A37C0293A37B01934F
:104D9000A37A0093A379A27804490020FCF784FE4B
:104DA00000200AB0BDE81040FCF784BC80FB01087D
:104DB00010B504468AB00220FCF77CFCE37A099324
:104DC000A37A0893637A0793237A0693E37905938A
:104DD000A37904936379039323790293E37801938E
:104DE000A37800936378227804490020FCF75CFEE6
:104DF00000200AB0BDE81040FCF75CBC80FB010855
:104E000010B504468AB00420FCF754FC94F82F3007
:104E1000099394F82B30089394F82730079394F86B
:104E200023300693E37F0593E37E0493E37D0393AE
:104E3000E37C0293E37B0193E37A0093E379E278E6
:104E400004490020FCF730FE00200AB0BDE8104005
:104E5000FCF730BC80FB010870B50E46441C0025F1
:104E6000214670190122013509F000F90C2D04F1D9
:104E70000404F5D170BD08B50C2209F0E5F800383E
:104E800018BF012008BD000007B50E4B1B789BB969
:104E90000D4808F06DFF882301224FF4407101A8EE
:104EA0008DF8043000F008FD084808F061FFFDF7B8
:104EB0004FFF03B05DF804FB054803B05DF804EB59
:104EC00008F056BF8D2A0020BFFB0108F4FB010843
:104ED0000EFC010807B501224FF4407101A800F053
:104EE00001FC9DF80400883818BF012003B05DF86C
:104EF00004FB07B501224FF4806101A800F0F2FB2A
:104F00009DF80400883818BF012003B05DF804FB49
:104F100038B50D4C2368013383420D46236005D11B
:104F20000A4800224FF4805101F034FD23689D426D
:104F300009D1002323600548BDE8384001224FF421
:104F4000805101F027BD38BD882A0020000C0240A6
:104F500038B5124C2368013383420D4623600BD1D0
:104F60000F4800224FF4804101F014FD0C4800224C
:104F70004FF4004101F00EFD23689D420CD1002347
:104F80000748236001224FF4004101F003FDBDE812
:104F90003840044802F012BA38BD00BF842A00200D
:104FA000000C0240082A002010B58CB013460446BD
:104FB0000A466846044909F011F96946204608F096
:104FC000AFFA0CB010BD00BF3AFC010810B58EB0AE
:104FD00001F6E4420446084902A809F0FFF8074B2D
:104FE000019301A9204609F0CDF902A9033008F088
:104FF00097FA0EB010BD00BF48FC01085F5F5F006C
:1050000001460148FFF786BD4EFC01082DE9FF4728
:105010004848DFF834A1DFF8349108F0A9FE40F6E3
:10502000B833ADF80E3001F043F900F5EA37002649
:10503000C03701F03DF98742804605D23E4808F06E
:1050400097FEFDF785FEF4E74FF40041504601F06E
:105050009BFC01280546ECD10DF10E033749009366
:1050600030224B46042004F033FA3448FFF7B2FDF7
:10507000044600283AD12A464FF48041304801F0D6
:1050800089FC642001F01AF922464FF480412C4833
:1050900001F080FC642001F011F92A464FF48041B0
:1050A000274801F077FC642001F008F922464FF40C
:1050B0008041234801F06EFC642001F0FFF82A468D
:1050C0004FF480411E4801F065FC642001F0F6F8C1
:1050D00022464FF480411A4801F05CFC642001F044
:1050E000EDF8184808F044FEFDF732FE134841463B
:1050F000FFF76CFFBDF80E30009310494B4630228D
:105100000420013604F03CF9012E06D04FF4FA7267
:10511000B6FBF2F302FB136313B90848FFF770FF05
:1051200028211420FFF7F4FE28211420FFF710FF98
:105130007FE700BF56FC010873FC0108381100101E
:10514000000C02409DF70108000402405A2700208D
:1051500030B591B00A4604461C4904A809F03EF84F
:105160001B4B019301A9204609F00CF904A9033057
:1051700008F0D6F9174B029302A9204609F002F96C
:10518000154B0393C51C03A9204609F0FBF8134BEC
:10519000441BE4B222462946184608F067FF002265
:1051A000025509F08FF80E4B1B684FF4FA72B3FBEF
:1051B000F2F102FB1133044633B901F079F82146CC
:1051C00002460848FFF7A6FC11B030BDA1FC01085B
:1051D0003A3A3A002A2A2A005F5F5F008E2A0020AE
:1051E000A42A0020A4FC0108F0B52E482E4F2F4D14
:1051F00085B008F0BDFD40F6B833ADF80E3001F0D3
:1052000057F8064601F054F806F5EA33C0338342F6
:10521000044605D2264808F0ABFDFDF799FDF1E7FD
:105220004FF40041384601F0AFFB0128EAD129686C
:105230004CF250330131994229600DD11D4808F0DC
:1052400077F940F6B8331C49009330221B4B0420F9
:1052500004F096F8FDF77CFD296819482246FFF70F
:10526000A3FEBDF80E3000931549144B30220420E4
:1052700004F086F80DF10E03302212490093042049
:105280000E4B04F025F901F013F801460D48FFF725
:105290005FFF28211420FFF73BFE28211420FFF791
:1052A00057FEAFE7C3FC010800040240A42A002017
:1052B00073FC0108DEFC0108D30000205A270020FF
:1052C000D81000100811001007B50A4808F050FD6A
:1052D000882301224FF4806101A88DF8043000F08A
:1052E000EBFA054808F044FDFDF732FD03B05DF828
:1052F00004FB00BFFAFC01081AFD01081B4BF7B5BF
:105300001B4C00221A70082323801A4B1D880F465D
:10531000691C1980184B6DBAA5801D88691C6DBA6F
:1053200019800646E580E31D02F007010132202ABC
:1053300003F8011FF8D100230D491048638028228B
:1053400001F058F840F6B83340BA6080084900933D
:1053500028223B46304604F013F828B9084808F0E4
:1053600007FD002003B0F0BD0648F8E7432B0020FE
:10537000442B00200601002004010020E02700202B
:105380002BFD01084BFD0108F0B52B4E87B040F610
:10539000B83307460C461546002196223046ADF834
:1053A000163009F077F80DF1160300932A462346CC
:1053B0003146384604F08CF8337813BB82B231465C
:1053C0001E48B78801F016F8C14389B24FF6FF7343
:1053D000994205D01A4808F0ABF8002007B0F0BD9C
:1053E0007FBABFB20635CDE90175E3780093A378A3
:1053F00062782178134808F09BF8134B01221A7049
:10540000EBE7082B14D17188B788F68819B10F48DB
:10541000002208F08DF80635CDE902650197E378A2
:105420000093A37862782178094808F081F8E4E7CE
:10543000084808F09DFCD0E7AA2A0020E0270020B9
:1054400056FD01086AFD0108432B002097FD010865
:10545000C2FD010804FE01082DE9FF410446684829
:10546000684D08F085FC04272B78042B2DD8DFE845
:1054700003F003094164BB00634808F079FC012391
:105480002B7022E061484FF0010808F071FC08EB36
:105490008400C00000F5407003F09AFB0646D8B9BE
:1054A000204603F023FD41F20840414600EB441042
:1054B00003F0BCFB334640F6B8320321204603F02C
:1054C00053FD10B1524808F053FC013F17F0FF079D
:1054D000CAD104B0BDE8F0813228F6D14D4808F0B9
:1054E00047FC4D4A002313704C4A13704C4A13700A
:1054F0000223C5E74B4808F03BFC474B1B780F2BBA
:1055000001D90423BCE7454E337853B94649444A90
:1055100046481370CB7800938B784A78097808F066
:1055200007F833784049013320463370FFF7E6FE31
:1055300003232B703E4B00221A703E48374EDFF893
:10554000F08008F015FC204603F037FC0246C0B19D
:1055500035492046FFF718FF31490A7801320A70B1
:10556000354A1278034662B198F800203178334802
:1055700007F0DEFF02232B703378042B04BF0523D2
:10558000337098F80030322B26D92D4808F0F0FB04
:10559000002388F8003002232B703378042B1ED1AF
:1055A00005233370DFF878801F4998F800302548CC
:1055B000C3F10402CDE90132CB7800938B784A78AD
:1055C000097807F0B5FF144A002388F800303370DB
:1055D00013780133137078E7013388F8003033789B
:1055E000052B7FF472AFDDE7174808F0C1FB1748C1
:1055F00008F0BEFB204603F079FC002340E700BF23
:1056000012FE0108A92A00202EFE01083AFE010818
:105610004CFE010868FE0108A82A0020422B002049
:10562000412B00207AFE01085A27002085FE010840
:10563000402B002098FE0108432B0020A9FE010802
:10564000BDFE0108CDFE0108F1FE010807FF0108BB
:1056500008B5044808F08CFBBDE808400620FFF7B9
:10566000FBBE00BF1AFF010807B5FFF742FC90B967
:105670000A4808F07DFBFF2301224FF4806101A856
:105680008DF8043000F018F9054808F071FBFFF7B9
:10569000DFFFFDF75DFB03B05DF804FB2DFF0108A4
:1056A00035FF0108014B1860704700BF6C2B0020CC
:1056B00070B50B4E04460D46306890F8513053B12A
:1056C00042F210732A46214602F02AFC38B1BDE8A6
:1056D0007040FEF745BE012000F0F0FDECE770BD24
:1056E0006C2B0020F7B51A4F05460C4616463B6852
:1056F00093F85130012B23D1032316488DF8043041
:105700000421230C002264BA8DF80530ADF8064060
:1057100001F040F904210DEB0100FFF7C9FF3868E3
:105720004FF47A733246294602F097FD02280BD0D7
:1057300008480122042101F02DF9012003B0F0BD39
:10574000012000F0BBFDD2E7012000F0B7FDE6E745
:105750006C2B00200010024013B50A4C002220469A
:10576000042101F017F9062301A801218DF8043066
:10577000FFF79EFF01220421204601F00BF902B041
:1057800010BD00BF0010024037B50A4C04250022AE
:105790002046042101F0FEF80DEB050001218DF8F3
:1057A0000450FFF785FF01222946204601F0F2F858
:1057B00003B030BD0010024037B505230022144865
:1057C0008DF8002004218DF8043001F0E3F8012168
:1057D00001A8FFF76DFF0F4D2868C8230122694615
:1057E00002F03BFD02284FF001000ED000F066FDF4
:1057F0009DF8000010F00104EED1054801220421BB
:1058000001F0C8F8204603B030BD00F057FDE3E7D3
:10581000001002406C2B00202DE9F743DFF8949034
:1058200007460C469046D9F8003093F85130012BCA
:10583000DEB239D1FFF790FF02238DF80430230C3C
:1058400064BA8DF80530ADF80640FFF785FF1848BB
:105850000022042101F09EF804210DEB0100FFF766
:1058600027FF0524D9F800004FF47A7342463946E1
:1058700002F056FB0228054606D10520013C00F047
:105880001DFD14F0FF04EDD101220421084801F0B0
:1058900081F8FFF791FFFFF777FF012D08BF022680
:1058A000304603B0BDE8F083012000F007FDBAE701
:1058B000001002406C2B00202DE9F04711F0FF0A88
:1058C00005460F4614465FFA82F81AD1FF2A2ED9F0
:1058D000140A4FF4807239462846FFF79DFF0128CD
:1058E000064641D1013CA4B207F5807705F58075E5
:1058F000002CEED1B8F1000F36D04246394628468A
:1059000015E0CAF58079FF2A1FFA89F913D8C14535
:105910000DD24A46FFF780FF0128064624D1A8F59C
:105920008072524492B209EB070105EB0900BDE811
:10593000F047FFF771BF4A46FFF76EFF01280646A2
:1059400012D1A4F580741AFA84F44D441FFA84F835
:105950004F4404F47F442C447F1BA54205EB070110
:1059600005D118F0FF02CAD13046BDE8F0874FF4E8
:1059700080722846FFF750FF012802D105F5807597
:10598000EBE70646F0E7000082B00C4B00210091E7
:105990005A6C42F480425A645A6C02F4804200927B
:1059A000009A01911A6C42F080521A641B6C03F049
:1059B00080530193019B02B0704700BF0038024042
:1059C0000268094B9A4282B00BD100230193074B26
:1059D0001A6B42F480521A631B6B03F480530193D9
:1059E000019B02B0704700BF003002400038024007
:1059F00030B514228BB0044600210DEB020008F0F4
:105A000049FD2368274A934224D1274C002501955C
:105A1000236B43F002032363236B03F00203019320
:105A2000019BC0201223CDE905034FF0030C042392
:105A30001E4805A9CDE908C300F0CEFE0295236CEF
:105A400043F400132364236C03F400130293029BBA
:105A50000BB030BD164A9342FAD1134C13480025BF
:105A60000395236B43F002032363236B03F00203CC
:105A70000393039B4FF440621223CDE905230321D6
:105A80000423CDE9081305A900F0A6FE0495236CB4
:105A900043F480032364236C03F480030493049B86
:105AA000D6E700BF00540040003802400004024026
:105AB000005800400268094B9A4282B00BD1002383
:105AC0000193074B5A6B42F040025A635B6B03F041
:105AD00040030193019B02B0704700BF00080650CD
:105AE000003802401FB5044610220021684608F025
:105AF000D1FC2268094B9A420ED1022300936846DA
:105B00004FF40073039301F0F5FE08B1FEF728FC93
:105B1000034B0122C3F83C2E04B010BD0028004006
:105B200000004742F0B504468DB01422002107A8BA
:105B300008F0B0FC2368534A934223D1524B534898
:105B4000002100915A6C42F480525A645A6C02F45B
:105B500080520092009A01911A6B42F001021A637E
:105B60001B6B03F001030193019BE022022303213D
:105B7000CDE907230523CDE90A1307A900F02CFE80
:105B80000DB0F0BD424A934240D13F4B4148002204
:105B90000292196C41F480411964196C01F480413E
:105BA000029102990392196B41F004011963196B78
:105BB00001F004010391039904921A6B42F002026E
:105BC0001A631B6B03F002030493022603250524CA
:105BD000049B07A90423CDE907360127CDE90A5420
:105BE00000F0FAFD08232B480B9407A9CDE90736EE
:105BF000CDE9097500F0F0FD4FF40053CDE907360B
:105C0000CDE9097524480B9407A9B7E7234A9342C5
:105C1000B6D11D4B1F48002405941A6C42F4004273
:105C20001A641A6C02F400420592059A06941A6BE3
:105C300042F004021A631B6B03F004030693069BF5
:105C400002274FF480630326062507A9CDE907370D
:105C5000CDE90A6500F0C0FD4FF4C053CDE9073728
:105C600007A901230B480B95CDE9093600F0B4FDD7
:105C700022462146332000F047FB332000F076FB1C
:105C80007EE700BF003001400038024000000240C3
:105C9000003800400008024000040240003C004080
:105CA00070B514228AB0064600210DEB020008F000
:105CB000F1FB33683A4A93422BD13A4B3A480024DD
:105CC00001941A6C42F400321A641A6C02F4003225
:105CD0000192019A02941A6B42F001021A631B6B43
:105CE00003F001030293029B0C250223CDE9055327
:105CF00005A907230326CDE9086300F06DFD2620E2
:105D00002246214600F000FB262000F02FFB0AB0BF
:105D100070BD264A9342FAD1224B2548254C0025D6
:105D200003955A6C42F020025A645A6C02F0200229
:105D30000392039A04951A6B42F004021A631B6BD8
:105D400003F004030493049BC0220223CDE905233E
:105D500003210823CDE9081305A900F03DFD1648ED
:105D60004FF02063C4E900034023C4E902354FF437
:105D70008063C4E9043520464FF40033C4E9065576
:105D8000C4E9083500F062FB08B1FEF7E9FA002229
:105D9000746347201146A66300F0B6FA4720B4E7C3
:105DA000004400400038024000000240001401405E
:105DB00000080240E8270020A0640240FEE7FEE75A
:105DC000FEE7FEE7FEE7704770477047054A138815
:105DD0000BB1013B1380044A13880BB1013B1380C4
:105DE00000F05ABAB8060020B6060020014802F0BA
:105DF000A9BD00BF8C2800204FF4004000F0D0BDAA
:105E0000014802F0C9BA00BFD0280020014800F0C4
:105E100025BC00BFE8270020014802F093BD00BF69
:105E2000482800200120704708B508F0F5FA16232D
:105E300003604FF0FF3008BD08B508F0EDFA1623F7
:105E40000360FEE770B50D4614460E46731B9C4278
:105E500001DC204670BDAFF3008006F8010BF5E7CA
:105E60004FF0FF3070474FF400534B6000207047F5
:105E700001207047002070470B4A116810B5034697
:105E800009B90A491160106809490A4C0344091B01
:105E90008B4206D908F0C0FA0C2303604FF0FF30A4
:105EA00010BD1360FCE700BF702B002068110010CC
:105EB0000000022000800000044BD3F8882042F448
:105EC0007002C3F88820024A9A60704700ED00E033
:105ED0000000010830B59BB0054614A80C4603F03D
:105EE0003BFE9DF8653013939DF8643012939DF846
:105EF000633011939DF8623010939DF85D300F93DD
:105F00009DF85C300E939DF85B300D939DF85A30F0
:105F10000C939DF861300B939DF860300A939DF8C7
:105F20005F3009939DF85E3008939DF859300793D0
:105F30009DF8583006939DF8573005939DF85630DC
:105F400004939DF8553003939DF8543002939DF8C7
:105F5000533001939DF8523000939DF850209DF8E6
:105F600051300349284608F039F920801BB030BD74
:105F700047FF010870B50C46094906461546FBF770
:105F8000CFF940B107493046FBF7CAF928B929468D
:105F90002046FFF79FFF012070BD0020FCE700BFF7
:105FA000060002080F00020838B51649054604F03D
:105FB000D3F8044600B30A2104F0A6F8C4B20F2CAB
:105FC0001CD82846104904F0C7F8054630B10A210C
:105FD00004F09AF8C5B2012D28BF012521460B48CF
:105FE00007F0A6FA0A4B0B4833F81410012D0CBF2A
:105FF0002A46002200F0CEFC60B238BD4FF0FF30E0
:10600000FBE700BF1F000208230002082700020868
:106010000C010020000C0240F8B50E460C49074662
:1060200015461C46FBF77CF968B10A493846FBF770
:1060300077F950B93046FFF7B7FF0749C2B2284693
:1060400008F0CCF820800120F8BD0020FCE700BF5C
:10605000060002084B000208A1FC01080A464FF4A2
:106060007A730146014802F0F8B800BF8029002089
:1060700007B5FF238DF8073001224FF47A730DF135
:106080000701044802F0E9F89DF8070003B05DF845
:1060900004FB00BF802900200A464FF47A730146B2
:1060A000014801F03DBF00BF8029002007B54FF433
:1060B0007A738DF8070001220DF10701024801F003
:1060C0002FFF03B05DF804FB802900200248012265
:1060D000102100F05FBC00BF001002400248002207
:1060E000102100F057BC00BF0010024070B586B010
:1060F000FFF7ECFF2049214803F0ECFA2049214842
:1061000003F0F6FA2049214803F004FB204B02AAD1
:1061100003F11006154618685968144603C408337D
:10612000B3422246F7D12946092003F075FC2946DF
:10613000002003F071FC2946012003F06DFC0130C2
:1061400006D114480A22012107F0F2F906B070BD09
:106150000DF107010F2003F05FFC013003D10E4861
:106160000A220121F0E79DF80730002BF0D00B4800
:1061700007F0FEFDEAE700BFCD600108DD60010821
:10618000AD60010871600108996001085D60010857
:106190002DEF01085C000208780002089300020855
:1061A00070477047DFF84CD013481449144A002355
:1061B00002E0D458C4500433C4188C42F9D31148B7
:1061C0001149124A002302E0D458C4500433C418C1
:1061D0008C42F9D30E4A0F4C002301E013600432C5
:1061E000A242FBD3FFF768FE07F076F9FEF71EF92F
:1061F000704700000000022000000020D4010020B1
:10620000B47D02080000001068110010B001010800
:10621000D801002038380020FEE7000038B50E4BCA
:106220001A784FF47A73B3FBF2F30C4A0546106800
:10623000B0FBF3F000F0BAF8044658B90F2D09D8B6
:10624000024629464FF0FF3000F05EF8044B20462E
:106250001D6038BD0120FCE72B0100200801002053
:106260002C01002008B50B4B1A6842F400721A602A
:106270001A6842F480621A601A6842F480721A60E6
:10628000032000F02FF80F20FFF7C8FFFFF77CFB7B
:10629000002008BD003C0240034A044B11681B78F3
:1062A0000B441360704700BF742B00202B010020AB
:1062B000014B1868704700BF742B002038B50446A6
:1062C000FFF7F6FF631C1CBF054B1B78054618BF84
:1062D000E418FFF7EDFF431BA342FAD338BD00BF1C
:1062E0002B0100200749CA6822F4E062030212046D
:1062F00003F4E063120C134343F0BF6343F4003331
:10630000CB60704700ED00E0164B30B5DC68C4F39D
:106310000224C4F10703251D042B28BF0423062DE6
:106320004FF0FF358CBF033C002405FA03F321EA4C
:106330000303A54022EA0502A340002843EA020322
:10634000ACBF00F16040084A4FEA0313B8BF00F049
:106350000F00DBB2AABF00F56140135480F8003390
:1063600030BD00BF00ED00E014ED00E0002807DBC9
:106370004109044A00F01F000123834042F8213004
:10638000704700BF00E100E0BFF34F8F0549064BA7
:10639000CA6802F4E0621343CB60BFF34F8F00BFC3
:1063A000FDE700BF00ED00E00400FA050138B0F1A0
:1063B000807F0BD24FF0E023054A5861F02182F82C
:1063C00023100020072298611A617047012070474E
:1063D00000ED00E010B5044650B1437903F0FF0230
:1063E00013B90271FFF7ECFA01236371002010BDAD
:1063F0000120FCE7034602205871186810B5846834
:1064000044F00104846001EB8202914203D1012235
:1064100000685A7110BD51F8044B0460F5E70000A4
:10642000036810B5084C0246D9B210391820B1FBE8
:10643000F0F0205CD06523F47F7020F003005F292A
:1064400088BF0430906510BDFB77020870B5044624
:10645000FFF72EFF0546002C60D0022384F835306C
:106460002268002384F83430136823F0010313609A
:1064700022681368D8072ED413683248A1691840DF
:10648000D4E901352B43E5682B4325692B43656926
:106490002B43E5690B432B43256A2B430343606A77
:1064A000042802BFD4E90B5635432B4313605369CC
:1064B000042823F0070343EA000335D1A06AE56A04
:1064C00003438DB391B9012820D030F002012BD1C4
:1064D000E90129D51DE0FFF7EBFE401B0528C7D9D0
:1064E00020230320636584F8350070BDB1F5005F9B
:1064F00016D1032818D801A151F820F0136501081E
:10650000D1640108136501080D650108B5F1C07F6C
:106510000AD140236365012384F835300120E4E784
:106520000228F6D90328D3D053612046FFF778FF1D
:10653000E26D3F239340836000200123606584F86F
:106540003530D2E73F8010F070B590F83440866D5A
:10655000012C30D0012480F8344090F83540012CD3
:106560004FF0000425D1022580F8355044650468B9
:10657000256825F48025256063608368402B0EBF65
:10658000A260A160E260C26D08BFE1603F2393405A
:10659000B360236843F016032360036C1BB12368C8
:1065A00043F008032360236843F0010323600020C5
:1065B00070BD80F834400220FAE770B50446866D5D
:1065C000FFF776FE94F83530022B054606D080237F
:1065D00063650120002384F8343070BD23681A6895
:1065E00022F016021A605A6922F080025A61226C67
:1065F0000AB9A26C1AB11A6822F008021A601A6865
:1066000022F001021A602368186810F0010007D117
:10661000E26D3F239340B360012384F83530D9E71E
:10662000FFF746FE401B0528EDD9202303206365B4
:1066300084F83500CEE790F83530022B03D0802364
:106640004365012070470268052380F835301368E0
:1066500023F001031360002070470000F7B500230A
:1066600001935C4B856D1F68C36D2E6808229A40AC
:10667000324204460CD001680868400708D5086813
:1066800020F004000860AA60626D42F001026265B9
:1066900001229A40324208D021684969090641BF67
:1066A000AA60626D42F00202626504229A403242A0
:1066B00008D021680968880741BFAA60626D42F06E
:1066C0000402626510229A40324210D02368196891
:1066D00009070CD5AA601A68500337D51B6819033F
:1066E00001D4236C00E0A36C0BB120469847E16D08
:1066F00020228A4032423AD023681868C60636D52E
:10670000AA6094F83520052A1A6827D122F01602CB
:106710001A605A6922F080025A61226C0AB9A26C8E
:106720001AB11A6822F008021A603F238B40AB604E
:10673000012384F83530002384F83430236D002B96
:1067400045D0204603B0BDE8F04018471A68D2058E
:106750005EBF1A6822F008021A60C2E7500327D50C
:106760001B68190331D4636C0BB120469847636DE5
:106770006BB3636DDA0719D522684FF41653B7FB74
:10678000F3F7052384F83530136823F00103136011
:10679000019B0133BB42019302D81368DB07F7D496
:1067A000012384F83530002384F83430E36CC6E7E5
:1067B0001A6812F4807208D1196821F0100119606A
:1067C000012384F8353084F83420E36BCCE703B040
:1067D000F0BD00BF080100202DE9F74FDFF8A491BC
:1067E000664A00230D6801249C4004EA0506AC4378
:1067F00040F0AF804D68032705F003044FEA4308DB
:1068000007FA08FC671E012F6FEA0C0C34D8876862
:1068100007EA0C0ECF6807FA08F747EA0E07876009
:10682000476827EA060EC5F300179F4047EA0E07A0
:106830004760C76807EA0C0E8F6807FA08F747EA4F
:106840000E07022CC76019D14FEAD30A00EB8A0A5F
:1068500003F0070BDAF820704FEA8B0B4FF00F0EA6
:106860000EFA0BFE27EA0E0E0F6907FA0BF747EA3E
:106870000E07CAF8207001E0032CDAD1076804FA89
:1068800008F407EA0C073C4315F4403F046060D06D
:1068900000240194D9F8444044F48044C9F84440A9
:1068A000D9F8444023F0030707F1804704F48044FB
:1068B00007F59C37019403F0030C019CD7F808E01E
:1068C0004FEA8C0C0F2404FA0CF42EEA040E2C4C24
:1068D000A04245D004F58064A04243D004F5806412
:1068E000A04241D004F58064A0423FD004F580640A
:1068F000A0423DD004F58064A0423BD004F5806402
:10690000A04239D004F58064A04214BF08240724B3
:1069100004FA0CF444EA0E04BC601468F74315F45E
:10692000803F0CBF3C4034431460546815F4003F72
:106930000CBF3C4034435460946815F4801F0CBF76
:106940003C4034439460D468AD0254BF3C4034436F
:10695000D4600133102B7FF445AF03B0BDE8F08F56
:106960000024D5E70124D3E70224D1E70324CFE7AD
:106970000424CDE70524CBE70624C9E7003C014009
:1069800000000240003802400369194214BF012090
:10699000002070470AB1816170470904FBE70000DD
:1069A000044A5169014208B502D05061FBF77AFCF4
:1069B00008BD00BF003C014001684B6913F48063CF
:1069C0004FF0000210D06FF480634B61202302630C
:1069D00080F83D3080F83E20036C80F83C2043F086
:1069E0000403036401207047184670472DE9F846F8
:1069F00006460F4691461D464FEA114A3368BAF1E2
:106A0000010F0CBF5C699C6927EA0404A4B2B4FAC4
:106A100084F46409A14501D0002017E06A1CEED07F
:106A2000FFF746FC089BC01AA84201D8002DE5D10B
:106A300000232022336386F83D2086F83E30326CF6
:106A400086F83C3042F0200232640120BDE8F8862E
:106A50002DE9F04104460F461646984625686869B8
:106A600027EA000080B2C0B16B695A0517D52B68C0
:106A700043F400732B606FF480636B61202200236A
:106A8000236384F83D2084F83E30236C43F00403F4
:106A90002364002384F83C300120BDE8F081731C9E
:106AA000DDD0FFF705FCA0EB0800B04209D90023B8
