:020000040800F2
:1000000000000220E5350008A9310008AB310008E6
:10001000AD310008AF310008B13100080000000028
:10002000000000000000000000000000B3310008E4
:10003000B531000800000000B7310008B9310008F0
:1000400035360008353600083536000835360008E4
:1000500035360008353600083536000835360008D4
:1000600035360008353600083536000835360008C4
:1000700035360008353600083536000835360008B4
:1000800035360008353600083536000835360008A4
:100090003536000835360008353600083536000894
:1000A0003536000835360008353600083536000884
:1000B0003536000835360008353600083536000874
:1000C0003536000835360008353600083536000864
:1000D0003536000835360008353600083536000854
:1000E0003536000835360008353600083536000844
:1000F0003536000835360008353600083536000834
:10010000353600083536000835360008D931000884
:100110003536000835360008353600083536000813
:100120003536000835360008353600083536000803
:1001300035360008353600083536000835360008F3
:1001400035360008353600083536000835360008E3
:1001500035360008E531000835360008F131000871
:1001600035360008353600083536000835360008C3
:100170003536000835360008353600080000000026
:08018000353600083536000891
:1001900010F8012B11F8013B012A28BF9A42F7D031
:1001A000D01A7047000000000000000000000000AE
:1001B00001F0FF01102A2BDB10F0070F08D010F818
:1001C000013B013A8B422DD010F0070F42B3F6D11C
:1001D000F0B441EA012141EA014122F007047FF035
:1001E00000070023F0E80256083C85EA010586EA8C
:1001F000010685FA47F5A3FA87F586FA47F6A5FAC8
:1002000087F68EB9EED1F0BC01F0FF0102F00702D3
:1002100032B110F8013B013A83EA010313B1F8D17E
:100220000020704701387047002D06BF354603385F
:10023000073815F0010F07D1013015F4807F02BF98
:10024000013015F4C03F0130F0BC0138704700BFE9
:10025000034613F8012B002AFBD1181A0138704706
:1002600053B94AB9002908BF00281CBF4FF0FF311D
:100270004FF0FF3000F00CB8ADF1080C6DE904CE82
:100280000BF050FEDDF804E0DDE9022304B0704716
:10029000704700BF0348044B834202D0034B03B1B5
:1002A000184770475C0100205C010020000000003E
:1002B0000548064B1B1AD90F01EBA301491002D0C8
:1002C000034B03B1184770475C0100205C0100201C
:1002D0000000000010B5064C237843B9FFF7DAFFA1
:1002E000044B13B10448AFF300800123237010BD09
:1002F0001806002000000000E0C1000808B5054B0A
:100300001BB105490548AFF30080BDE80840FFF781
:10031000CFBF00BF000000001C060020E0C10008A5
:1003200070470000F0B5044685B00D4616461F46DE
:100330000A4804F08BFA20280CD14FF0FF33CDE9A6
:100340000173009601232A462146044804F0C2F8AE
:1003500005B0F0BD0A2003F091FAE9E7E838002083
:10036000F0B5044685B00D4616461F460D4804F00C
:100370006DFA2028FAD14FF0FF33CDE901732A46F8
:10038000084800960123214604F014F8054D4FF06B
:10039000FF3301222146284604F0A4F90028F6D1B3
:1003A00005B0F0BDE838002008B51388054A138071
:1003B0000246A020FFF7B6FF10B1FFF7B1FF012002
:1003C00008BD00BF360600200A464FF4967301466A
:1003D000014804F087B900BFE838002013460B4AF3
:1003E00010B513700246A020FFF7BAFF044610B103
:1003F000FFF796FF012440F6B831A020FFF7E4FF95
:1004000010B1FFF78DFF0124204610BD34060020F7
:100410002DE9F84F11F00F0705460C461646C2F3BA
:1004200007185FFA82FA02F00F0B1DD1B8F1000F26
:1004300001D15A462FE0102221462846FFF7CEFF71
:1004400060B908F1FF38103418F0FF08A4B205F1C4
:100450001005F0D1BBF1000F02D10020BDE8F88FEC
:100460005A462146284616E05FFA87F9C7F1100779
:10047000FFB2B8F1000F12D19742DAD23A46FFF735
:10048000ADFF0028EAD1AAF1100A09EB0A023919D6
:10049000D2B289B2E819BDE8F84FFFF79FBF3A46DC
:1004A000FFF79CFF0028D9D1F61B3D443C441FFABE
:1004B00086F8641B06F47F662E44A4B22919B5425F
:1004C00089B203D118F00F02C7D0CBE7102228461B
:1004D000FFF784FF0028C1D11035EFE7054B0A462E
:1004E00019688B689B07FCD501466423014804F01A
:1004F0005DBF00BFB037002007B5084B8DF807007F
:100500001A6893689B07FCD5642301220DF107014B
:10051000024804F04BFF03B05DF804FBB037002045
:1005200008B5074B1B78012B04D106480022042193
:1005300003F0B0FCBDE80840012003F09FB900BF04
:100540003B000020000C024008B5064B1A78012A37
:1005500003D10548042103F09DFCBDE808400120BB
:1005600003F08CB93B000020000C02401FB5FF23B4
:100570008DF80E30094B1A6893689B07FCD56423ED
:1005800000930DF10F0201230DF10E01034804F059
:10059000BAFF9DF80F0005B05DF804FBB0370020EE
:1005A00013B5FFF7D1FF0A24FF20FFF7A5FF013C99
:1005B000FAD1FFF7B5FF4023009306214FF415430E
:1005C0006846ADF80430FFF789FF4FF40054FFF799
:1005D000CDFF012809D1FFF7B7FFFF20FFF78CFF00
:1005E000034B01221A7002B010BD013CEFD1F2E7BB
:1005F0003806002010B5064C4FF4FA732380FFF73D
:10060000B5FFFF2802D02388002BF8D110BD00BF12
:100610003A06002070B506460D46FFF7EBFFFF28AF
:100620004FF0000423D12846FFF766FFFD2D18D0B8
:100630004FF400713046FFF751FFFFF797FFFFF7C8
:1006400095FF4125FFF792FF00F01F03052B04469D
:1006500003D0013D15F0FF05F4D1FFF787FF002817
:10066000FBD004F01F04631F5842584170BD204660
:10067000FCE738B504460D46FFF7BCFFFF2828D13C
:100680002046FFF739FF280EFFF736FFC5F3074076
:10069000FFF732FFC5F30720FFF72EFFE8B2FFF7A1
:1006A0002BFF402C13D0482C14BF01208720FFF7CC
:1006B00023FF4C2C01D1FFF759FF0A24FFF756FF07
:1006C000030603D5013C14F0FF04F7D138BD952093
:1006D000EDE7FF20FAE7000070B50F4DC823044690
:1006E0000E462B80FFF742FFFF2803D12888002801
:1006F000F8D170BDFE280DD1651E3444FFF736FFDA
:1007000005F8010FA542F9D1FFF730FFFFF72EFFE3
:100710000120EEE70020ECE73C0600202DE9F34144
:10072000002840F09D804F4E357815F0020504D02A
:100730003078C0B202B0BDE8F081FFF731FFFFF7BB
:10074000EFFE29464020FFF794FF012804460DD014
:100750000024454B1C70FFF7F7FEFFF707FF002C46
:100760007BD0337803F0FE033370E1E73F4F4FF463
:100770007A734FF4D57148203B80FFF77AFF012848
:100780003DD101ADA8460424FFF7F0FE013C14F072
:10079000FF0408F8010BF7D19DF80630012BD7D1E3
:1007A0009DF80730AA2BD3D100217720FFF761FFF6
:1007B000012803D93B88002BF6D1C9E74FF08041CF
:1007C0006920FFF756FF01460028F3D13B88002B34
:1007D000BED07A20FFF74DFF0028B9D10424FFF7DF
:1007E000C5FE013C14F0FF0405F8010BF7D19DF89C
:1007F000043013F0400F0CBF04240C24A9E7294651
:100800007720FFF736FF012806D829466920FFF731
:1008100030FF012898BF0224022C4FF000011AD1AA
:100820007720FFF726FF012803D93B88002BF3D15F
:100830008EE700216920FFF71CFF0028F5D13B88D7
:10084000002B85D04FF400715020FFF712FF0028D5
:100850007FF47EAF7DE74120EDE7054B1C7067E735
:10086000012067E700000020390600203C06002038
:100870003806002018B9034B1878C0B27047012021
:10088000704700BF0000002070B50E4615461C469C
:10089000002837D1002B35D01C4B1B78DA0733D416
:1008A0001B4B1B785B0758BF6D02FFF739FE012C0D
:1008B000294613D15120FFF7DCFE38B94FF40071FF
:1008C0003046FFF709FFB0FA80F46409FFF73CFEF9
:1008D000FFF74CFE201E18BF012070BD5220FFF70D
:1008E000C8FE0028F2D14FF400713046FFF7F4FE45
:1008F00018B1013C06F50076F5D100214C20FFF738
:10090000B8FEE3E70420E8E70320E6E70000002064
:1009100039060020F8B50D4616461C46002847D17A
:10092000002B45D0254B1A78D00743D41B785907A4
:1009300042D4234F3B785A0758BF7602FFF7F0FDA9
:10094000012C13D131465820FFF793FE70BBFE21D6
:100950002846FFF75FFEB0FA80F46409FFF7F4FD64
:10096000FFF704FE201E18BF0120F8BD3B789B074F
:1009700007D500217720FFF77CFE21465720FFF79F
:1009800078FE31465920FFF774FE0028E6D1FC219D
:100990002846FFF73FFE18B1013C05F50075F6D17A
:1009A000FD210020FFF736FE0028D7D10124D5E72E
:1009B0000420DAE70320D8E70220D6E70000002071
:1009C000390600207FB50E4615460446002840F043
:1009D0008F80052913D11378012B09D0022B0AD05F
:1009E000002B40F08580444B1870204604B070BD49
:1009F000FFF7D6FDF9E7404B1B785370F5E73F4B07
:100A00001C7814F0010475D1FFF78AFD0D2E6DD806
:100A1000DFE806F04807446C6C6C6C6C6C6C6C4FD7
:100A20005D6000214920FFF724FE28B10124FFF773
:100A30008BFDFFF79BFDD8E710216846FFF74CFEC2
:100A40000028F3D09DF800109DF809309DF808208B
:100A50008909012906D1013303EB02239BB29B02D2
:100A60002B60E4E79DF807109DF80A00920902EB5D
:100A700081029DF80610890201F4406101320A44A6
:100A80009DF805105B0001F00F0101EBD01103F0A0
:100A900006030B44073B02FA03F3E1E74FF400734C
:100AA0002B80C4E7FFF7A6FDB0F1FF0418BF0124B7
:100AB000BDE700214920FFF7DCFD0028B6D1102159
:100AC0002846FFF709FEB0FA80F46409AFE7002179
:100AD0004A20F0E700217A20FFF7CBFD30B92C1D2A
:100AE000FFF744FD05F8010BAC42F9D104249EE761
:100AF00004247AE7032478E7380600200000002069
:100B000030B5144987B004461122134808F0B6FFE7
:100B10000546E0B92146114809F0CEFE6B46122287
:100B200001A90D4809F046F90B4809F0FAFB01A9A3
:100B30000B488DF8155009F0BFFE1222214601A87E
:100B4000FFF766FC21460246064809F0B5FE07B0ED
:100B500030BD00BF12C400084006002018C40008C1
:100B600052C400085CC4000810B5014698B00446A1
:100B70000B4809F0A1FE0B4B1B785D2273B90A49A3
:100B800068460AF06DFB6946084809F095FE5D224B
:100B90002146684602F0FCF818B010BD0449EFE7A2
:100BA0001AC50008AD39002062C500084BC5000811
:100BB000BFC5000830B52D4C9BB0054601462C48FA
:100BC00009F07AFE2B491122204608F057FF01ABAD
:100BD00002A90F22204609F0EDF8204609F0A1FBFA
:100BE00025491122204608F049FF01AB0DF11701FC
:100BF0000F22204609F0DEF8204609F092FB1F493B
:100C00001122204608F03AFF01AB0DF126010F2218
:100C1000204609F0CFF8204609F083FB184911223D
:100C2000204608F02BFF01AB0DF135010F222046C5
:100C300009F0C0F8204609F074FB12491122204641
:100C400008F01CFF2246212111A809F00CFD2046C6
:100C500009F067FB02A90C4809F02EFE5D22294627
:100C600002A802F095F81BB030BD00BF400600207E
:100C70001CC60008C9C40008D1C40008D9C40008B3
:100C8000E1C40008E9C40008EDC400082DE9F04102
:100C900001469CB004467848784F794E794DDFF88C
:100CA000148209F009FE5D22214604A801F086FFA6
:100CB00004A97548754C09F0FFFD04A90F2274487A
:100CC0000AF098FB0DF11F010F2272480AF092FB07
:100CD0000DF12E010F2270480AF08CFB0DF13D0141
:100CE0000F226E480AF086FB04A9032203A80AF02B
:100CF00081FB03A80AF0A6FC05A93870032203A80B
:100D00000AF078FB03A80AF09DFC06A9787003227C
:100D100003A80AF06FFB03A80AF094FC07A9B870B7
:100D2000032203A80AF066FB03A80AF08BFC0DF16E
:100D30001F01F870032203A80AF05CFB03A80AF065
:100D400081FC0DF123013070032203A80AF052FB4D
:100D500003A80AF077FC0DF127017070032203A8A5
:100D60000AF048FB03A80AF06DFC0DF12B01B070EE
:100D7000032203A80AF03EFB03A80AF063FC0DF16E
:100D80002E01F070032203A80AF034FB03A80AF036
:100D900059FC0DF132012870032203A80AF02AFB46
:100DA00003A80AF04FFC0DF136016870032203A876
:100DB0000AF020FB03A80AF045FC0DF13A01A870E7
:100DC000032203A80AF016FB03A80AF03BFC0DF16E
:100DD0003D01E870032203A80AF00CFB03A80AF007
:100DE00031FC0DF141012070032203A80AF002FB3F
:100DF00003A80AF027FC0DF145016070032203A847
:100E00000AF0F8FA03A80AF01DFC0DF14901A070E0
:100E1000032203A80AF0EEFA03A80AF013FC13A9B0
:100E2000E070202240460AF0E5FAFB780093BB7898
:100E30007A7839781A4809F03FFDF3780093B3784F
:100E400072783178174809F037FDEB780093AB786A
:100E50006A782978144809F02FFDE3780093A37885
:100E600062782178114809F027FD4146104809F0C1
:100E700023FD1CB0BDE8F08154C6000807370020F0
:100E8000DA3600200337002080C60008FF36002035
:100E90007E0000206E0000205E0000204E0000203A
:100EA00092C60008A9C60008C0C60008D7C6000838
:100EB000EEC60008DE360020F0B5054685B00B48CA
:100EC0000AF01AF90A4B6A4603F110071646186829
:100ED0005968144603C40833BB422246F7D1102296
:100EE0002946304601F054FF05B0F0BDFBC60008AE
:100EF00010C70008F0B589B01022054600216846E9
:100F00000AF088FC0D4B04AA03F110071646186876
:100F10005968144603C40833BB422246F7D1294618
:100F20001022684601F04AFE0F22314668460AF058
:100F30004FFA003818BF012009B0F0BD02C4000804
:100F400030B58C4C8C488D4D8DB001F0E3FD8C4953
:100F50001122204608F092FD2246102103A809F034
:100F600082FB03A9874809F09FFC03A9032202A87A
:100F70000AF040FA02A80AF065FB04A928700322CF
:100F800002A80AF037FA02A80AF05CFB05A968700B
:100F9000032202A80AF02EFA02A80AF053FB06A9BF
:100FA000A870032202A80AF025FA02A80AF04AFB58
:100FB000E870C0B20090AB786A7829787248734DB7
:100FC00009F07AFC204609F0ACF97149112220465B
:100FD00008F054FD2246102103A809F044FB03A9A0
:100FE0006C4809F061FC03A9032202A80AF002FA86
:100FF00002A80AF027FB04A92870032202A80AF01D
:10100000F9F902A80AF01EFB05A96870032202A8DC
:101010000AF0F0F902A80AF015FB06A9A87003224D
:1010200002A80AF0E7F902A80AF00CFBE870C0B2C7
:101030000090AB786A7829785748584D09F03CFC05
:10104000204609F06EF956491122204608F016FD97
:101050002246102103A809F006FB03A9514809F014
:1010600023FC03A9032202A80AF0C4F902A80AF08B
:10107000E9FA04A92870032202A80AF0BBF902A821
:101080000AF0E0FA05A96870032202A80AF0B2F992
:1010900002A80AF0D7FA06A9A870032202A80AF04B
:1010A000A9F902A80AF0CEFAE870C0B20090AB78B5
:1010B0006A7829783C483D4D09F0FEFB204609F04E
:1010C00030F93B491122204608F0D8FC2246102175
:1010D00003A809F0C8FA03A9364809F0E5FB03A9FB
:1010E000032202A80AF086F902A80AF0ABFA04A9C2
:1010F0002870032202A80AF07DF902A80AF0A2FAD9
:1011000005A96870032202A80AF074F902A80AF07F
:1011100099FA06A9A870032202A80AF06BF902A89E
:101120000AF090FAE870C0B20090AB786A7829783B
:101130002148224D09F0C0FB204609F0F2F8204971
:101140001122204608F09AFC2246212103A809F02A
:101150008AFA202203A928460AF04CF9204609F011
:10116000E0F800232946174885F8203009F0A4FB51
:101170000DB030BD4006002020C700080737002012
:10118000C9C400087E00002092C60008DA3600209C
:10119000D1C400086E000020A9C600080337002053
:1011A000D9C400085E000020C0C60008FF36002039
:1011B000E1C400084E000020D7C60008DE3600203B
:1011C000E9C400083DC7000808B50F490F4806F0FC
:1011D00057FA0F490F4806F053FA0F490F4806F027
:1011E0004FFA0F490F4806F04BFA0F490F4806F027
:1011F00047FA0F490F4806F043FABDE808400E4988
:101200000E4806F03DBA00BFE814010807D80008F0
:1012100077DC0008E5C300087E000020C9C4000890
:101220006E000020D1C400085E000020D9C4000870
:101230004E000020E1C400083C00002047C7000821
:1012400010B50446214809F057FF00224FF4007101
:101250001F4802F01FFE462002F010FB01224FF44F
:1012600000711B4802F016FE462002F007FB02F058
:1012700025F9184809F040FF174B18491A689B8850
:101280008B80174B0A601B68C1F80630154B1B6832
:10129000C1F80E30144B00201B68C1F80A3005F06D
:1012A00073FE02F05FF9114A0023128801212046E3
:1012B00005F004F8204605F093F8012805D12146F1
:1012C0000B48BDE8104009F0F7BA10BD4FC7000841
:1012D0000008024063C70008D43600209C000020AC
:1012E0000737002003370020FF3600203800002099
:1012F0007AC7000810B512491248002208F094FB82
:1013000011491248112208F0B9FB38B9104801F010
:1013100001FCBDE810400D4809F003B80D4B0E4824
:101320000024012204211C7002F0B4FD0B48224667
:10133000042102F0AFFD0A4809F0DEFEE9E700BF34
:101340001FC7000898160020C9C4000840060020E6
:1013500090C700083B000020000C02400010024033
:101360009CC7000808B505480122042102F092FD3F
:10137000BDE80840024801F001BC00BF000C02407B
:10138000B037002038B5164B1B7803BB154D2B78B2
:101390007BB94FF4D070FFF7ADFD044698B9124801
:1013A00009F0AAFE2046FFF7DFFB4FF4D070FFF7ED
:1013B00083FD2B78012B0DD1FFF7C2FDBDE838402E
:1013C0000020FFF7F7BB094809F096FEF1E700207F
:1013D000FFF7CAFBBDE838400020FFF757BC00BF4D
:1013E0009C3900203B000020AAC70008BAC70008AB
:1013F00010B50446054809F07FFE054A20461288CC
:10140000BDE810400023022104F058BFCBC70008FC
:10141000360000200122082108B50C4802F03AFDF0
:101420000B4A01215378DB4303F0F003043143F00E
:1014300005033129537002F10402F3D1BDE80840DD
:1014400002480022082102F025BD00BF000C024026
:101450003C3900200122082108B50C4802F01AFD91
:101460000B4A01215378DB4303F0F003043143F0CE
:1014700005033129537002F10402F3D1BDE808409D
:1014800002480022082102F005BD00BF000C024006
:101490006C39002037B5054602F0EAF9204B2149A6
:1014A0001B8800930446204B3022284605F012F991
:1014B00002F0DEF904F5FA74A0420DD21B4809F0DF
:1014C0001BFE1B4800224FF4804102F0E3FC194B45
:1014D00001221A7003B030BD174809F00DFE144800
:1014E00000224FF4805102F0D5FC00224FF400415D
:1014F0000F4802F0CFFCC82002F0C0F900224FF4E0
:1015000080410B4802F0C6FCC82002F0B7F9084839
:1015100001224FF4804103B0BDE8304002F0BABC74
:101520003600002005000020DA360020DCC7000865
:10153000000C0240AC390020EBC7000808B5054894
:1015400009F0DAFD002006F08BF8BDE8084002F053
:10155000FBB900BF12C8000810B51D4B8AB0B3F824
:10156000A520ADF8082004461A4AD3F8A10093F844
:10157000A7308DF80A300023CDE904230534164A3C
:10158000019001A92046CDE90723ADF80B308DF875
:101590000D30ADF81830ADF82430FEF7F9FD48B144
:1015A00004A92046FEF7F4FD20B107A92046FEF766
:1015B000EFFD38B9094809F09FFD094B01221A7067
:1015C0000AB010BD07480AB0BDE8104009F094BD4C
:1015D000F8C10008757365723132330028C80008FD
:1015E0009E39002031C8000808B50949202208307A
:1015F00009F0EEFE30B9074801F08CFA064B0122E3
:101600001A7008BDBDE80840044801F083BA00BF65
:10161000DE36002044C800089D39002052C800086A
:101620002DE9F04701468EB004469F4809F044F981
:101630000023E25C2E2A03F10107DBB205D0383328
:101640006B4403F8182C3B46F3E7032B18D1BDF885
:1016500020209DF82230ADF810208DF8123004A81B
:1016600009F0F0FF3D46C6B2625DEB1B2E2ADBB2ED
:1016700005F1010519D038336B4403F8182CF3E752
:10168000022B09D130238DF810309DF820308DF8D1
:1016900011309DF82130E0E7012BE0D143F2300317
:1016A000ADF810309DF82030D7E7032B1AD1BDF8E4
:1016B00020209DF82230ADF814208DF8163005A8B2
:1016C00009F0C0FFAA46C7B214F80A20AAEB050326
:1016D0002E2ADBB20AF1010A19D038336B4403F821
:1016E000182CF1E7022B09D130238DF814309DF826
:1016F00020308DF815309DF82130DEE7012BDED14A
:1017000043F23003ADF814309DF82030D5E7032BB9
:101710001DD1BDF820209DF82230ADF818208DF89D
:101720001A3006A809F08EFF04EB0A0580465FFA1E
:1017300080F9002415F8013B621CE4B2E3B104F126
:1017400038010DEB010404F8183C1446F2E7022BB3
:1017500009D130238DF818309DF820308DF81930DC
:101760009DF82130DBE7012BDBD143F23003ADF8EC
:1017700018309DF82030D2E7032C1ED1BDF8202070
:101780009DF82230ADF81C208DF81E30474C07A87C
:1017900009F058FF2378B342C0B223D16378BB422B
:1017A00020D1A3784B451DD1E37883421AD140481C
:1017B00009F0A2FC0EB0BDE8F087022C09D130235D
:1017C0008DF81C309DF820308DF81D309DF82130AB
:1017D000DAE7012CDAD143F23003ADF81C309DF882
:1017E0002030D1E7E0702670677084F802905FFACD
:1017F00088F300903A462F48314609F05DF82E4BA9
:101800001D78012D37D12D492D48122208F036F9C7
:101810000028CFD12B4809F06FFC0A2304A903222A
:101820000AA88DF80C302E2409F0E4FD05A9032246
:101830000BA88DF82B4009F0DDFD06A903220CA8AA
:101840008DF82F4009F0D6FD07A903220DA88DF8C9
:10185000334009F0CFFD2A4603A90DF1370009F006
:10186000C9FD09AB10220AA9154808F079FB1448F4
:1018700008F057FD9EE7144809F03EFC03220021C2
:1018800004A801F085FA0322042105A801F080FADA
:101890000322082106A801F07BFA03220C2107A8E5
:1018A00001F076FA86E700BF64C800080737002019
:1018B00076C8000898C800083B000020C9C400088A
:1018C00040060020B3C80008D9C800082DE9F0433D
:1018D00000238FB00446E25C2E2A03F10106DBB23E
:1018E00005D038336B4403F8182C3346F3E7032B49
:1018F00018D1BDF820209DF82230ADF810208DF8C9
:10190000123004A809F09EFE3746C5B2E25DBB1B4B
:101910002E2ADBB207F1010719D038336B4403F8E4
:10192000182CF3E7022B09D130238DF810309DF8E5
:1019300020308DF811309DF82130E0E7012BE0D107
:1019400043F23003ADF810309DF82030D7E7032B79
:101950001AD1BDF820209DF82230ADF814208DF862
:10196000163005A809F06EFEB946C6B214F8092073
:10197000A9EB07032E2ADBB209F1010919D038338C
:101980006B4403F8182CF1E7022B09D130238DF8B2
:1019900014309DF820308DF815309DF82130DEE7A9
:1019A000012BDED143F23003ADF814309DF8203026
:1019B000D5E7032B1DD1BDF820209DF82230ADF8CE
:1019C00018208DF81A3006A809F03CFE04EB090235
:1019D00007465FFA80F8002412F8013B611CE4B26C
:1019E000E3B104F138000DEB000404F8183C0C4698
:1019F000F2E7022B09D130238DF818309DF8203002
:101A00008DF819309DF82130DBE7012BDBD143F253
:101A10003003ADF818309DF82030D2E7032C1ED1EA
:101A2000BDF820209DF82230ADF81C208DF81E3026
:101A3000454C07A809F006FE2378AB42C0B223D17B
:101A40006378B34220D1A37843451DD1E378834224
:101A50001AD13E4809F050FB0FB0BDE8F083022CCC
:101A600009D130238DF81C309DF820308DF81D30C1
:101A70009DF82130DAE7012CDAD143F23003ADF8DA
:101A80001C309DF82030D1E72570E070667084F836
:101A90000280FBB2009029462D48324608F00CFF28
:101AA0002C4B1D78012D37D12B492C48122207F0E1
:101AB000E5FF0028D0D12A4809F01EFB0A2304A91B
:101AC00003220AA88DF80C302E2409F093FC05A9F6
:101AD00003220BA88DF82B4009F08CFC06A90322E9
:101AE0000CA88DF82F4009F085FC07A903220DA84A
:101AF0008DF8334009F07EFC2A4603A90DF137002A
:101B000009F078FC09AB10220AA9144808F028FA59
:101B1000124808F006FC9FE7124809F0EDFA03228C
:101B20002D2104A801F034F90322312105A801F088
:101B30002FF90322362106A801F02AF903223A21BF
:101B400007A801F025F987E7FF36002003C9000840
:101B500024C900083B000020E1C400084006002022
:101B60003FC9000865C900082DE9F04300238FB084
:101B70000446E25C2E2A03F10106DBB205D03833BD
:101B80006B4403F8182C3346F3E7032B18D1BDF848
:101B900020209DF82230ADF810208DF8123004A8D6
:101BA00009F050FD3746C5B2E25DBB1B2E2ADBB201
:101BB00007F1010719D038336B4403F8182CF3E709
:101BC000022B09D130238DF810309DF820308DF88C
:101BD00011309DF82130E0E7012BE0D143F23003D2
:101BE000ADF810309DF82030D7E7032B1AD1BDF89F
:101BF00020209DF82230ADF814208DF8163005A86D
:101C000009F020FDB946C6B214F80920A9EB070374
:101C10002E2ADBB209F1010919D038336B4403F8DD
:101C2000182CF1E7022B09D130238DF814309DF8E0
:101C300020308DF815309DF82130DEE7012BDED104
:101C400043F23003ADF814309DF82030D5E7032B74
:101C50001DD1BDF820209DF82230ADF818208DF858
:101C60001A3006A809F0EEFC04EB090207465FFAF9
:101C700080F8002412F8013B611CE4B2E3B104F1E6
:101C800038000DEB000404F8183C0C46F2E7022B78
:101C900009D130238DF818309DF820308DF8193097
:101CA0009DF82130DBE7012BDBD143F23003ADF8A7
:101CB00018309DF82030D2E7032C1ED1BDF820202B
:101CC0009DF82230ADF81C208DF81E30454C07A839
:101CD00009F0B8FC2378AB42C0B223D16378B34299
:101CE00020D1A37843451DD1E37883421AD13E48E1
:101CF00000F010FF0FB0BDE8F083022C09D13023B3
:101D00008DF81C309DF820308DF81D309DF8213065
:101D1000DAE7012CDAD143F23003ADF81C309DF83C
:101D20002030D1E72570E070667084F80280FBB245
:101D3000009029462D48324608F0BEFD2C4B1D78F8
:101D4000012D37D12B492C48122207F097FE00288D
:101D5000D0D12A4809F0D0F90A2304A903220AA8FD
:101D60008DF80C302E2409F045FB05A903220BA8A1
:101D70008DF82B4009F03EFB06A903220CA88DF834
:101D80002F4009F037FB07A903220DA88DF8334037
:101D900009F030FB2A4603A90DF1370009F02AFBB0
:101DA00009AB10220AA9144808F0DAF8124808F022
:101DB000B8FA9FE7124809F09FF903221E2104A8F0
:101DC00000F0E6FF0322222105A800F0E1FF032234
:101DD000262106A800F0DCFF03222A2107A800F034
:101DE000D7FF87E7033700208FC90008B2C9000872
:101DF0003B000020D9C4000840060020CDC90008DF
:101E0000F3C900082DE9F04300238FB00446E25CDB
:101E10002E2A03F10106DBB205D038336B4403F8F8
:101E2000182C3346F3E7032B18D1BDF820209DF87A
:101E30002230ADF810208DF8123004A809F002FC11
:101E40003746C5B2E25DBB1B2E2ADBB207F10107A4
:101E500019D038336B4403F8182CF3E7022B09D15F
:101E600030238DF810309DF820308DF811309DF81A
:101E70002130E0E7012BE0D143F23003ADF8103020
:101E80009DF82030D7E7032B1AD1BDF820209DF80C
:101E90002230ADF814208DF8163005A809F0D2FBD9
:101EA000B946C6B214F80920A9EB07032E2ADBB203
:101EB00009F1010919D038336B4403F8182CF1E704
:101EC000022B09D130238DF814309DF820308DF885
:101ED00015309DF82130DEE7012BDED143F23003CF
:101EE000ADF814309DF82030D5E7032B1DD1BDF897
:101EF00020209DF82230ADF818208DF81A3006A861
:101F000009F0A0FB04EB090207465FFA80F8002401
:101F100012F8013B611CE4B2E3B104F138000DEBAF
:101F2000000404F8183C0C46F2E7022B09D13023D8
:101F30008DF818309DF820308DF819309DF821303B
:101F4000DBE7012BDBD143F23003ADF818309DF80D
:101F50002030D2E7032C1ED1BDF820209DF822307E
:101F6000ADF81C208DF81E30454C07A809F06AFB1F
:101F70002378AB42C0B223D16378B34220D1A37897
:101F800043451DD1E37883421AD13E4800F0C2FD9B
:101F90000FB0BDE8F083022C09D130238DF81C303E
:101FA0009DF820308DF81D309DF82130DAE7012CA6
:101FB000DAD143F23003ADF81C309DF82030D1E780
:101FC0002570E070667084F80280FBB200902946AC
:101FD0002D48324608F070FC2C4B1D78012D37D16E
:101FE0002B492C48122207F049FD0028D0D12A485D
:101FF00009F082F80A2304A903220AA88DF80C30FC
:102000002E2409F0F7F905A903220BA88DF82B401F
:1020100009F0F0F906A903220CA88DF82F4009F069
:10202000E9F907A903220DA88DF8334009F0E2F978
:102030002A4603A90DF1370009F0DCF909AB10229B
:102040000AA9144807F08CFF124808F06AF99FE7C4
:10205000124809F051F803220F2104A800F098FE5D
:102060000322132105A800F093FE0322172106A8DE
:1020700000F08EFE03221B2107A800F089FE87E7EF
:10208000DA3600201DCA000840CA00083B000020C4
:10209000D1C40008400600205BCA000881CA0008BD
:1020A00010B501460446174808F006FC164809F02A
:1020B00023F8164B1B78012B19D11549154812220C
:1020C00007F0DCFCE8B9144809F016F800220023F8
:1020D000104808F037F90F49204608F0E9FA0D4892
:1020E00008F072F8BDE810400A4808F01AB90B4829
:1020F00009F002F820462122BDE810403C2100F002
:1021000047BE10BDABCA00085FD600083B000020E8
:10211000E9C4000840060020C3CA0008E5CA000858
:1021200013B501224FF4007101A800F047FD9DF89E
:102130000430114C882B15D101231048237008F06E
:10214000DBFF23781BB94FF47A7001F097FBFF2374
:1021500001224FF4007101A88DF8043000F018FE40
:1021600002B010BD882301224FF4007101A88DF840
:10217000043000F00DFEE4E79C3900200BCB000892
:1021800030B5002495B01422214603A8CDE90944B6
:1021900009F040FB1F4B01941A6C42F080521A6404
:1021A0001B6C03F080530193019B1B4B02941A6834
:1021B00042F480421A601B6803F480430293029B3E
:1021C0000A230893102201230820CDE90B320D9336
:1021D000A823CDE910030225072308A8CDE90E5452
:1021E0001295139302F036FB08B172B6FEE70F2387
:1021F000CDE9033505904FF4A0524FF480530521EB
:1022000003A8CDE9062302F001FD08B172B6FEE78E
:1022100015B030BD0038024000700040F7B51E4FC9
:1022200004460D461D4816460821012201F032FEE3
:102230003B7833B91A4900962B463022204604F0E9
:1022400049FA3B78012B06D1154900962B463022DE
:10225000204604F03FFA134C10480022082101F0F8
:1022600019FE23680133142B236005D10B4800228B
:102270004FF4805101F00EFE2368282B0AD1074845
:10228000002301224FF48051236003B0BDE8F040E9
:1022900001F000BE03B0F0BDAD390020000C0240DB
:1022A0003C390020A83900207FB5214CADF80E2024
:1022B000226842F210739A4205460E4603D100236B
:1022C000236004B070BD1B480122102101F0E2FD23
:1022D0000DF10E031849009330223346284604F0CE
:1022E0009FFB14480022102101F0D4FD2368013324
:1022F0002360124C23680133142B23600BD10D484B
:1023000000224FF4804101F0C5FD0A4800224FF43D
:10231000004101F0BFFD2368282BD2D100230548DE
:10232000236001224FF4004101F0B4FDC9E700BF72
:10233000A0390020000C02406C390020A439002094
:10234000F7B504464FF400413E4801F09DFD0128D9
:10235000054675D13C4F3E78002E33D102462021F0
:102360003A4801F097FD39483246202101F092FDAC
:102370002A463748202101F08DFD4FF48053354A1D
:10238000354900933548302303F0BDF830483246D4
:10239000202101F07FFD2A463148324D4FF48071F3
:1023A00001F078FD2E4832464FF4807101F072FD45
:1023B0002A882D492046FFF731FF2A882A492046DE
:1023C000FFF772FF3D78012D3AD1FFF743F82A4617
:1023D0001E48202101F05EFD1C480022202101F052
:1023E00059FD2A461A48202101F054FD4FF480532C
:1023F0000093184A18491948302303F084F8144808
:102400000022202101F046FDFFF704F82A46144877
:10241000144D4FF4807101F03DFD114800224FF43E
:10242000807101F037FD2A880F492046FFF73CFFF5
:102430002A880D49204603B0BDE8F040FFF7EEBE04
:1024400003B0F0BD00040240AD3900200008024096
:10245000000C02403C3900206C3900200838002074
:102460000000024036000020DA360020F0B5144BA0
:1024700085B06D46044603F110072A46186859686E
:102480002E4603C60833BB423546F7D113461146E4
:1024900025780022104611F8016BB54208BF80185C
:1024A0001032B2F5807FF6D16178002213F8014B2B
:1024B000A14208BF80180132102AF7D105B0F0BD43
:1024C0003BCB00082DE9F04701468AB004461225AF
:1024D0003848DFF8F4A008F0EFF90DEB05022146CB
:1024E00005A8ADF81250FDF75FFF214602463248BD
:1024F00008F0E2F905A9314808F0DEF92A4605A9F5
:102500002F4808F077FF05A9022204A808F072FFFF
:1025100004A8FFF7ABFF0DF1170107468AF800008A
:10252000022204A808F066FF04A8FFF79FFF0DF140
:102530001A0180468AF80100022204A808F05AFF16
:1025400004A8FFF793FF0DF11D0181468AF80200F0
:10255000022204A808F04EFF04A8FFF787FF08A98D
:102560008AF803000222044604A808F043FF04A8E6
:10257000FFF77CFF0DF123018AF8040002220546D3
:1025800004A808F037FF04A8FFF770FFEDB2C6B249
:10259000E4B28AF805005FFA89F302960195009487
:1025A0005FFA88F2F9B2074808F086F90AB0BDE888
:1025B000F08700BFA8CB0008DBCB000806CC0008E2
:1025C0003C00002083CB0008D43600202DE9F04FDA
:1025D000DFF8E4803449354F8BB01122404607F0D4
:1025E0004DFA00230022404607F0ACFE424612217D
:1025F00005A808F038F805A912222D4808F0FAFEBF
:1026000005A9022204A808F0F5FE04A8FFF72EFF92
:102610000DF1170181463870022204A808F0EAFE85
:1026200004A8FFF723FF0DF11A01824678700222F9
:1026300004A808F0DFFE04A8FFF718FF0DF11D0144
:102640008346B870022204A808F0D4FE04A8FFF75D
:102650000DFF08A9F8700222044604A808F0CAFE7B
:1026600004A8FFF703FF0DF123013871022205468C
:1026700004A808F0BFFE04A8FFF7F8FEEDB2C6B24A
:10268000E4B278715FFA8BF35FFA8AF25FFA89F14C
:10269000029601950094074808F00EF9404607F0AD
:1026A00040FE0BB0BDE8F08F12C40008D436002005
:1026B0003C00002011CC00084006002008B5084B63
:1026C0001B78012B4FF4907005D1FEF719FABDE885
:1026D0000840FFF77BBFBDE80840FFF7F3BE00BF2F
:1026E0003B0000202DE9F04F8FB00024B54D01F0E4
:1026F00099F8FFF745FD1422002109A809F08AF88E
:1027000003942B6BB04843F010032B632B6B03F047
:1027100010030393039B04942B6B43F004032B637C
:102720002B6B03F004030493049B05942B6B43F081
:1027300080032B632B6B03F080030593059B0694AA
:102740002B6B43F001032B632B6B03F00103069308
:10275000069B07942B6B43F002032B632B6B03F058
:1027600002030793079B08942B6B43F008032B632A
:102770002B6B03F00803089301220621089B01F04C
:1027800089FB91482246082101F084FB8F480122F1
:1027900040F2012101F07EFB8C482246202101F00D
:1027A00079FB8B4822464FF2FB6101F073FB8848AE
:1027B000012240F6040101F06DFB012285484FF42F
:1027C000807101F067FB01267F484FF0040B09A9D7
:1027D000CDE909B6CDE90B660A2701F07DFA7A4802
:1027E00009A9CDE90976CDE90B4401F075FA212359
:1027F000764809A9CDE90936CDE90B4401F06CFA18
:102800004FF4887371480B9409A9CDE9093401F09C
:1028100063FA48F2040370480B9409A9CDE909341E
:102820004FF4807901F058FA69480B9409A94FF0E8
:10283000030ACDE9099401F04FFA4FF6BB636448EF
:102840000B9409A9CDE90936CDF830A04FF40078F2
:1028500001F042FA5D4809A9CDE90986CDE90B4AA4
:1028600001F03AFA5B4809A9CDE90996CDE90B4A8E
:1028700001F032FA564809A9CDE909B6CDE90B664F
:1028800001F02AFA4023524809A9CDE90936CDE9D9
:102890000B4401F021FA02942B6B43F480032B6369
:1028A0002B6B4E4D03F480032246214602934520B4
:1028B000029B01F009F8452001F038F848484FF430
:1028C0006133C0E900530C23C0E90534C0E9024478
:1028D0000461C46103F0F6F8034608B172B6FEE77E
:1028E0004048414AC0F818804FF482741025C0E96E
:1028F0000233C0E90433C0E90753C0E90933C0E932
:102900000024C76202F0F6FC034608B172B6FEE787
:102910003648374AC0E90233C0E90433C0E9083316
:10292000C0E90A37C0E90024C0E9068502F0E2FCEC
:10293000034608B172B6FEE72E482F4AC0F8188049
:10294000C0E900240822C0E90233C0E90436C0E926
:102950000723C0E90933C76202F0CCFC08B172B6A4
:10296000FEE705F0FBFA2548254B036002F0A0FACC
:10297000054608B172B6FEE70146142209A808F020
:1029800049FF204C204B01957F20C4E90035FF23EF
:10299000C4E902032046C4E90455A56102F0D2FA55
:1029A00008B172B6FEE7CDE90C00ADF824008DF851
:1029B0002600324609A9204602F01DFB30B372B64C
:1029C000FEE700BF0038024000100240000802404D
:1029D000000C0240000002400004024000140140CC
:1029E0006C370020B0370020003C004060380020E9
:1029F000003001400838002000380040D83800205E
:102A000000080650B838002000280040314B0193E0
:102A1000324601A9204602F05FFB034608B172B6B8
:102A2000FEE72D482D4A2E490362C0E900124FF4FB
:102A30008042C0E90233C0E90423C0E9063301F053
:102A400011FC08B172B6FEE7264808F055FB26488F
:102A5000494601F019FA254B002837D100222448B5
:102A60001A7008F049FBFEF745FCFFF727FEFEF75A
:102A700079FCFFF755FBFEF785FC0020FEF7E0FB35
:102A80000420FEF7B5FC1B4B1B491C481C4D1D4C7C
:102A9000012204F0D5FDFEF797FB04F01BFE1A4956
:102AA000002000F08DFE002005F0F8F82B78012BB7
:102AB000F9D12378012B02D10420FFF741FC2378C0
:102AC000002BF0D10420FEF7E5FCECE701220F48D3
:102AD0001A70C6E701050923E8380020A086010026
:102AE0000054004035CC000800080240AD390020F9
:102AF00045CC000801000020D42E0020D426002060
:102B00003A000020AC3900206DCC00085BCC0008F6
:102B100072B6FEE70FB400B5ADF5037D84AB4FF49C
:102B2000007153F8042B019302A808F045F802A89D
:102B3000FDF78EFB4FF0FF3382B202A9044802F08A
:102B4000EFFF0DF5037D5DF804EB04B0704700BFA7
:102B50006C370020F8B5084F0E4614460025A542F4
:102B600001DB2046F8BD71194FF6FF73012238468C
:102B700002F0D6FF0135F2E76C370020014B1860F8
:102B8000704700BFB039002070B50B4E04460D46AB
:102B9000306890F8513053B142F210732A46214602
:102BA00002F004FC38B1BDE87040FFF7B1BF01206E
:102BB00000F064FEECE770BDB0390020F7B51A4FA5
:102BC00005460C4616463B6893F85130012B23D13D
:102BD000032316488DF804300421230C002264BA24
:102BE0008DF80530ADF8064001F054F904210DEBE5
:102BF0000100FFF7C9FF38684FF47A73324629465F
:102C000002F071FD02280BD008480122042101F0D6
:102C100041F9012003B0F0BD012000F02FFED2E702
:102C2000012000F02BFEE6E7B03900200010024042
:102C300013B50A4C00222046042101F02BF906238B
:102C400001A801218DF80430FFF79EFF0122042125
:102C5000204601F01FF902B010BD00BF0010024075
:102C600037B50A4C042500222046042101F012F950
:102C70000DEB050001218DF80450FFF785FF0122BF
:102C80002946204601F006F903B030BD001002408D
:102C900037B50523002214488DF8002004218DF853
:102CA000043001F0F7F8012101A8FFF76DFF0F4D87
:102CB0002868C8230122694602F015FD02284FF05A
:102CC00001000ED000F0DAFD9DF8000010F00104C4
:102CD000EED105480122042101F0DCF8204603B0C2
:102CE00030BD00F0CBFDE3E700100240B03900201A
:102CF0002DE9F743DFF8949007460C469046D9F843
:102D0000003093F85130012BDEB239D1FFF790FF3C
:102D100002238DF80430230C64BA8DF80530ADF829
:102D20000640FFF785FF18480022042101F0B2F8A1
:102D300004210DEB0100FFF727FF0524D9F800005F
:102D40004FF47A734246394602F030FB02280546BA
:102D500006D10520013C00F091FD14F0FF04EDD1F7
:102D600001220421084801F095F8FFF791FFFFF7D1
:102D700077FF012D08BF0226304603B0BDE8F0837F
:102D8000012000F07BFDBAE700100240B0390020BE
:102D90002DE9F04711F0FF0A05460F4614465FFA89
:102DA00082F81AD1FF2A2ED9140A4FF480723946BC
:102DB0002846FFF79DFF0128064641D1013CA4B2F9
:102DC00007F5807705F58075002CEED1B8F1000F7E
:102DD00036D042463946284615E0CAF58079FF2AA2
:102DE0001FFA89F913D8C1450DD24A46FFF780FF73
:102DF0000128064624D1A8F58072524492B209EB0C
:102E0000070105EB0900BDE8F047FFF771BF4A462F
:102E1000FFF76EFF0128064612D1A4F580741AFA56
:102E200084F44D441FFA84F84F4404F47F442C4446
:102E30007F1BA54205EB070105D118F0FF02CAD19F
:102E40003046BDE8F0874FF480722846FFF750FF08
:102E5000012802D105F58075EBE70646F0E7000092
:102E600082B00C4B002100915A6C42F480425A64AB
:102E70005A6C02F480420092009A01911A6C42F05E
:102E800080521A641B6C03F080530193019B02B0C3
:102E9000704700BF0038024030B5044689B01422A4
:102EA000002103A808F0B6FC2268134B9A4221D1F6
:102EB000124C134800250195236B43F00203236352
:102EC000236B03F002030193019BC0221223CDE97F
:102ED000032303210423CDE9061303A900F0FCFE1C
:102EE0000295236C43F400132364236C03F4001352
:102EF0000293029B09B030BD0054004000380240EC
:102F0000000402400268094B9A4282B00BD10023B0
:102F10000193074B5A6B42F040025A635B6B03F01C
:102F200040030193019B02B0704700BF00080650A8
:102F3000003802401FB5044610220021684608F000
:102F400069FC2268094B9A420ED10223009368461D
:102F50004FF40073039301F013FF08B1FFF7D8FD9E
:102F6000034B0122C3F83C2E04B010BD00280040E2
:102F700000004742F0B504468DB01422002107A896
:102F800008F048FC2368534A934223D1524B5348DC
:102F9000002100915A6C42F480525A645A6C02F437
:102FA00080520092009A01911A6B42F001021A635A
:102FB0001B6B03F001030193019BE0220223032119
:102FC000CDE907230523CDE90A1307A900F084FE04
:102FD0000DB0F0BD424A934240D13F4B41480022E0
:102FE0000292196C41F480411964196C01F480411A
:102FF000029102990392196B41F004011963196B54
:1030000001F004010391039904921A6B42F0020249
:103010001A631B6B03F002030493022603250524A5
:10302000049B07A90423CDE907360127CDE90A54FB
:1030300000F052FE08232B480B9407A9CDE9073670
:10304000CDE9097500F048FE4FF48063CDE90736FD
:10305000CDE9097524480B9407A9B7E7234A9342A1
:10306000B6D11D4B1F48002405941A6C42F400424F
:103070001A641A6C02F400420592059A06941A6BBF
:1030800042F004021A631B6B03F004030693069BD1
:1030900002274FF480630326062507A9CDE90737E9
:1030A000CDE90A6500F018FE4FF4C053CDE90737AB
:1030B00007A901230B480B95CDE9093600F00CFE5A
:1030C00022462146332000F0FFFB332000F02EFC87
:1030D0007EE700BF0030014000380240000002409F
:1030E000003800400008024000040240003C00405C
:1030F00070B5064688B01422002103A808F08AFBA8
:103100003268254B9A4245D1002503F5923301954B
:103110005A6C2248224C42F020025A645A6C02F047
:1031200020020192019A02951A6B42F004021A637E
:103130001B6B03F004030293029BC0220223CDE920
:10314000032303210823CDE9061303A900F0C4FDDE
:1031500014484FF02063C4E900034023C4E902355A
:103160004FF48063C4E9043520464FF40033C4E9CA
:103170000655C4E9083500F023FC08B1FFF7C8FC88
:103180000022746347201146A66300F09DFB472090
:1031900000F0CCFB08B070BD0014014000080240F4
:1031A0000C370020A0640240FEE7FEE7FEE7FEE7E2
:1031B000FEE7704770477047054A13880BB1013B23
:1031C0001380044A13880BB1013B138000F044BB09
:1031D0003C0600203A060020014802F023BB00BF55
:1031E000B0370020014800F0B9BC00BF0C37002008
:1031F000014802F051BD00BF6C370020012070472C
:1032000008B508F0C9FA162303604FF0FF3008BD77
:1032100008B508F0C1FA16230360FEE770B50D4645
:1032200014460E46731B9C4201DC204670BDAFF372
:10323000008006F8010BF5E74FF0FF3070474FF4C0
:1032400000534B60002070470120704700207047FA
:103250000B4A116810B5034609B90A491160106894
:1032600009490A4C0344091B8B4206D908F094FA19
:103270000C2303604FF0FF3010BD1360FCE700BF6C
:10328000B4390020804600200000022000400000E9
:10329000034AD2F8883043F47003C2F8883070478C
:1032A00000ED00E030B59BB0054614A80C4603F0D5
:1032B000FFFD9DF8653013939DF8643012939DF8DF
:1032C000633011939DF8623010939DF85D300F9339
:1032D0009DF85C300E939DF85B300D939DF85A304D
:1032E0000C939DF861300B939DF860300A939DF824
:1032F0005F3009939DF85E3008939DF8593007932D
:103300009DF8583006939DF8573005939DF8563038
:1033100004939DF8553003939DF8543002939DF823
:10332000533001939DF8523000939DF850209DF842
:1033300051300349284608F015F920801BB030BDF4
:1033400087CC000870B50C46094906461546FCF7BF
:103350001FFF40B107493046FCF71AFF28B929463C
:103360002046FFF79FFF012070BD0020FCE700BF53
:1033700046CD00084FCD000838B51649054604F083
:1033800085F8044600B30A2104F058F8C4B20F2CA3
:103390001CD82846104904F079F8054630B10A21B6
:1033A00004F04CF8C5B2012D28BF012521460B4879
:1033B00007F082FA0A4B0B4833F81410012D0CBFAA
:1033C0002A46002200F066FD60B238BD4FF0FF30A3
:1033D000FBE700BF5FCD000863CD000867CD0008A4
:1033E00094000020000C0240F8B50E460C49074638
:1033F00015461C46FCF7CCFE68B10A493846FCF776
:10340000C7FE50B93046FFF7B7FF0749C2B228469A
:1034100008F0A8F820800120F8BD0020FCE700BFDC
:1034200046CD00088BCD00089CCD00080A464FF41D
:103430007A730146014802F056B900BF6038002097
:1034400007B5FF238DF8073001224FF47A730DF191
:103450000701044802F047F99DF8070003B05DF842
:1034600004FB00BF603800200A464FF47A7301461F
:10347000014801F09BBF00BF6038002007B54FF442
:103480007A738DF8070001220DF10701024801F05F
:103490008DFF03B05DF804FB603800200248012274
:1034A0004FF4006100F0F6BC000C0240024800221C
:1034B0004FF4006100F0EEBC000C024070B586B025
:1034C000FFF7ECFF1C491D4803F0B0FA1C491D48EA
:1034D00003F0BAFA1C491D4803F0C8FA1C4B02AAB3
:1034E00003F11006154618685968144603C40833DA
:1034F000B3422246F7D12946012003F039FC0130BE
:1035000006D114480A22012107F0D6F906B070BD91
:103510000DF107010F2003F02BFC013003D10E4801
:103520000A220121F0E79DF80730002BF0D00B486C
:1035300007F0E2FDEAE700BF9D340008AD34000863
:103540007D34000841340008693400082D34000837
:10355000A3C200089FCD0008BBCD0008D6CD00084F
:10356000704770471FB5194C204603F0A1FC6379E2
:10357000029323790193E3780093A378627821780A
:10358000134807F099F9637A0093237AE279A179D5
:10359000104807F091F9637B0093237BE27AA17ACC
:1035A0000D4807F089F9637C0093237CE27BA17BC3
:1035B0000A4807F081F9637D0093237DE27CA17CBA
:1035C000074807F079F904B010BD00BF9C00002047
:1035D000DFCD00080ACE000824CE00083BCE00084C
:1035E00053CE0008DFF834D00D480E490E4A0023B0
:1035F00002E0D458C4500433C4188C42F9D30B4AA7
:103600000B4C002301E013600432A242FBD3FFF70E
:103610003FFE07F025F9FFF765F87047000002202C
:10362000000000205C0100206C3801081806002012
:103630007C460020FEE70369C26893429CBF816814
:103640005B18013B981A70472DE9F041D0E90284DC
:103650000546A8EB04064068964220440F461444F1
:1036600004D907F0FDFDEC60BDE8F0813246A4EB23
:10367000080407F0F5FD68682246B919F1E72DE95D
:10368000F843C5680646894617464FF00008336977
:10369000B46870689D4228BF1B19641BBC4203F1CB
:1036A000FF3328BF3C465B1B9C4228BF1C46494653
:1036B0002844224607F0D4FDB3682544AB4208BF36
:1036C00000253F1BA044A144F560E0D14046BDE881
:1036D000F883000010B5114C114AA2610323C4E91C
:1036E0000433104BE36122664FF480630E4A0F49A6
:1036F0002362626600231022E01DA3626362E3621C
:103700002367E3666367A26607F0CEF808492046A0
:1037100007F0CAF82023A37110BD00BF6C0500207C
:103720006BCE00086C0100205C01002074CE000804
:1037300078CE0008F8B5144B182700FB07751D4418
:1037400007FB00330E46DB6A012B14460AD0022B1E
:1037500014D023B92846FFF76EFF844208D900240D
:103760002046F8BD2846FFF766FF844228BF04467E
:10377000224631462846FFF767FFF1E72846BDE8B5
:10378000F840FFF77CBF00BF6C050020F8B50B4B7D
:103790001B7804460D4616460BB9FFF79BFFEFF367
:1037A00011874FF0200181F31188324629462046C7
:1037B000FFF7C0FF87F31188F8BD00BF6C0500203C
:1037C00038B5054608460C46FCF742FD2146024640
:1037D0002846BDE83840FFF7D9BF000038B50E4B8A
:1037E0001A784FF47A73B3FBF2F30C4A054610686B
:1037F000B0FBF3F000F0BAF8044658B90F2D09D821
:10380000024629464FF0FF3000F05EF8044B204698
:103810001D6038BD0120FCE7B300002090000020AF
:10382000B400002008B50B4B1A6842F400721A600D
:103830001A6842F480621A601A6842F480721A6050
:10384000032000F02FF80F20FFF7C8FFFFF708FB59
:10385000002008BD003C0240034A044B11681B785D
:103860000B441360704700BFB8390020B30000203C
:10387000014B1868704700BFB839002038B50446BE
:10388000FFF7F6FF631C1CBF054B1B78054618BFEE
:10389000E418FFF7EDFF431BA342FAD338BD00BF86
:1038A000B30000200749CA6822F4E0620302120450
:1038B00003F4E063120C134343F0BF6343F400339B
:1038C000CB60704700ED00E0164B30B5DC68C4F308
:1038D0000224C4F10703251D042B28BF0423062D51
:1038E0004FF0FF358CBF033C002405FA03F321EAB7
:1038F0000303A54022EA0502A340002843EA02038D
:10390000ACBF00F16040084A4FEA0313B8BF00F0B3
:103910000F00DBB2AABF00F56140135480F80033FA
:1039200030BD00BF00ED00E014ED00E0002807DB33
:103930004109044A00F01F000123834042F821306E
:10394000704700BF00E100E0BFF34F8F0549064B11
:10395000CA6802F4E0621343CB60BFF34F8F00BF2D
:10396000FDE700BF00ED00E00400FA050138B0F10A
:10397000807F0BD24FF0E023054A5861F02182F896
:1039800023100020072298611A61704701207047B8
:1039900000ED00E0036810B5084C0246D9B21039BA
:1039A0001820B1FBF0F0205CD06523F47F7020F08C
:1039B00003005F2988BF0430906510BDB132010853
:1039C00070B50446FFF754FF0546002C60D0022373
:1039D00084F835302268002384F83430136823F0EB
:1039E0000103136022681368D8072ED41368324885
:1039F000A1691840D4E901352B43E5682B432569BB
:103A00002B4365692B43E5690B432B43256A2B4305
:103A10000343606A042802BFD4E90B5635432B43A5
:103A200013605369042823F0070343EA000335D1E8
:103A3000A06AE56A03438DB391B9012820D030F024
:103A400002012BD1E90129D51DE0FFF711FF401B31
:103A50000528C7D920230320636584F8350070BD8D
:103A6000B1F5005F16D1032818D801A151F820F054
:103A7000873A0008453A0008873A0008813A00086A
:103A8000B5F1C07F0AD140236365012384F8353046
:103A90000120E4E70228F6D90328D3D05361204659
:103AA000FFF778FFE26D3F239340836000200123FE
:103AB000606584F83530D2E73F8010F070B5044679
:103AC000866DFFF7D5FE94F83530022B054606D0FB
:103AD000802363650120002384F8343070BD23689F
:103AE0001A6822F016021A605A6922F080025A619E
:103AF000226C0AB9A26C1AB11A6822F008021A6084
:103B00001A6822F001021A602368186810F0010098
:103B100007D1E26D3F239340B360012384F8353031
:103B2000D9E7FFF7A5FE401B0528EDD92023032088
:103B3000636584F83500CEE790F83530022B03D06A
:103B400080234365012070470268052380F83530E3
:103B5000136823F00103136000207047F7B50023BA
:103B600001935C4B856D1F68C36D2E6808229A40D7
:103B7000324204460CD001680868400708D508683E
:103B800020F004000860AA60626D42F001026265E4
:103B900001229A40324208D021684969090641BF92
:103BA000AA60626D42F00202626504229A403242CB
:103BB00008D021680968880741BFAA60626D42F099
:103BC0000402626510229A40324210D023681968BC
:103BD00009070CD5AA601A68500337D51B6819036A
:103BE00001D4236C00E0A36C0BB120469847E16D33
:103BF00020228A4032423AD023681868C60636D559
:103C0000AA6094F83520052A1A6827D122F01602F6
:103C10001A605A6922F080025A61226C0AB9A26CB9
:103C20001AB11A6822F008021A603F238B40AB6079
:103C3000012384F83530002384F83430236D002BC1
:103C400045D0204603B0BDE8F04018471A68D205B9
:103C50005EBF1A6822F008021A60C2E7500327D537
:103C60001B68190331D4636C0BB120469847636D10
:103C70006BB3636DDA0719D522684FF41653B7FB9F
:103C8000F3F7052384F83530136823F0010313603C
:103C9000019B0133BB42019302D81368DB07F7D4C1
:103CA000012384F83530002384F83430E36CC6E710
:103CB0001A6812F4807208D1196821F01001196095
:103CC000012384F8353084F83420E36BCCE703B06B
:103CD000F0BD00BF900000202DE9F74FDFF8A49160
:103CE000664A00230D6801249C4004EA0506AC43A3
:103CF00040F0AF804D68032705F003044FEA430806
:103D000007FA08FC671E012F6FEA0C0C34D887688D
:103D100007EA0C0ECF6807FA08F747EA0E07876034
:103D2000476827EA060EC5F300179F4047EA0E07CB
:103D30004760C76807EA0C0E8F6807FA08F747EA7A
:103D40000E07022CC76019D14FEAD30A00EB8A0A8A
:103D500003F0070BDAF820704FEA8B0B4FF00F0ED1
:103D60000EFA0BFE27EA0E0E0F6907FA0BF747EA69
:103D70000E07CAF8207001E0032CDAD1076804FAB4
:103D800008F407EA0C073C4315F4403F046060D098
:103D900000240194D9F8444044F48044C9F84440D4
:103DA000D9F8444023F0030707F1804704F4804426
:103DB00007F59C37019403F0030C019CD7F808E049
:103DC0004FEA8C0C0F2404FA0CF42EEA040E2C4C4F
:103DD000A04245D004F58064A04243D004F580643D
:103DE000A04241D004F58064A0423FD004F5806435
:103DF000A0423DD004F58064A0423BD004F580642D
:103E0000A04239D004F58064A04214BF08240724DE
:103E100004FA0CF444EA0E04BC601468F74315F489
:103E2000803F0CBF3C4034431460546815F4003F9D
:103E30000CBF3C4034435460946815F4801F0CBFA1
:103E40003C4034439460D468AD0254BF3C4034439A
:103E5000D4600133102B7FF445AF03B0BDE8F08F81
:103E60000024D5E70124D3E70224D1E70324CFE7D8
:103E70000424CDE70524CBE70624C9E7003C014034
:103E800000000240003802400369194214BF0120BB
:103E9000002070470AB1816170470904FBE701689F
:103EA0004B6913F480634FF0000210D06FF480630D
:103EB0004B612023026380F83D3080F83E20036C84
:103EC00080F83C2043F00403036401207047184647
:103ED00070472DE9F84606460F4691461D464FEAC3
:103EE000114A3368BAF1010F0CBF5C699C6927EA7B
:103EF0000404A4B2B4FA84F46409A14501D00020FA
:103F000017E06A1CEED0FFF7B3FC089BC01AA8426A
:103F100001D8002DE5D100232022336386F83D200F
:103F200086F83E30326C86F83C3042F02002326433
:103F30000120BDE8F8862DE9F04104460F461646FB
:103F400098462568686927EA000080B2C0B16B69AD
:103F50005A0517D52B6843F400732B606FF4806308
:103F60006B6120220023236384F83D2084F83E30D7
:103F7000236C43F004032364002384F83C300120C5
:103F8000BDE8F081731CDDD0FFF772FCA0EB0800E8
:103F9000B04209D900232022236384F83D2084F80D
:103FA0003E30236C1343E6E7002ECAD1F2E770B52A
:103FB00004460D46164623685B691B0601D50020A2
:103FC00018E02046FFF76BFF98B96A1CF3D0FFF7A3
:103FD0004FFC801BA8420ED900232022236384F8C3
:103FE0003D2084F83E30226C84F83C3042F02002C0
:103FF0002264012070BD002DDDD1EDE72DE9F043F5
:104000001546026885B0DDE90C789946136843F4DB
:10401000807313600E463B46CDF8008000224FF0BF
:1040200001110446FFF755FF236838B11B68DB0513
:1040300002D54FF400732364032620E006F0FE0649
:104040001E611A4943463A462046FFF774FFA8B955
:10405000236803905A6903929B6903934246394649
:104060002046039BFFF7A3FF064660B1236C042B99
:1040700001BF2268136843F40073136001263046C1
:1040800005B0BDE8F083B9F1010F236802D1EDB2AC
:104090001D61F4E72A0A1A61394642462046FFF7B5
:1040A00086FF0028E2D12368F1E700BF020001008B
:1040B0002DE9FF479A46036815461A6842F4806264
:1040C0001A601A68DDE90C7842F480721A600E46B4
:1040D0003B46CDF8008000224FF001110446FFF767
:1040E000F8FE236838B11B68DB0544BF4FF400734A
:1040F0002364032021E05FFA86F906F0FE061E61C4
:104100002B4943463A462046FFF715FFA0B92368DE
:1041100003905A6903929B690393424639462046AD
:10412000039BFFF744FF58B1236C042B01BF2268A7
:10413000136843F400731360012004B0BDE8F087F6
:10414000BAF1010F23681AD1EDB242461D6139461A
:104150002046FFF72CFF02460028E5D121680B68B6
:1041600043F480730B602046CDF800803B464FF04F
:104170000111FFF7AEFE226860B11368B4E72A0AA6
:104180001A61394642462046FFF711FF0028CBD17D
:104190002368D9E749F001031361054943463A46CC
:1041A0002046FFF7C8FE003818BF0120C5E700BF52
:1041B0000200010070B504460D46164623685B698F
:1041C0005B0701D5002018E02046FFF768FE98B98C
:1041D0006A1CF3D0FFF74CFB801BA8420ED90023CA
:1041E0002022236384F83D2084F83E30226C84F83A
:1041F0003C3042F020022264012070BD002DDDD150
:10420000EDE770B504460D46164621684B6913F07C
:10421000400301D0002011E04A69D2060FD56FF0AB
:1042200010024A612022236384F83D2084F83E3046
:10423000236C2364002384F83C30012070BDFFF719
:1042400017FB801BA84209D900232022236384F88E
:104250003D2084F83E30236C1343EAE7002DD4D18F
:10426000F2E7000070B5044608B9012070BD90F86F
:104270003D3003F0FF021BB980F83C20FEF70CFE36
:10428000242384F83D3023681A6822F001021A6062
:104290001A6842F400421A601A6822F400421A6056
:1042A00000F04EFD3F4B65689D4294BF3E4B3F4B37
:1042B00098428CBF00230123002BD6D12268394EAF
:1042C00051683B4BB0FBF3F321F03F011943B5427A
:1042D000516088BF4FF49676116A88BF734321F00E
:1042E0003F0184BF4FF47A76B3FBF6F301330B43FF
:1042F0001362D169431E2B4821F44F41854221F0BE
:10430000FF0132D86D0040F6FC70B3FBF5F30133CA
:10431000034242D0C3F30B031943D161D4E9073000
:104320001168034321F0C0010B4313609168D4E985
:10433000030321F40341034321F0FF010B43936086
:10434000D4E90530D168034321F0FF010B43D3606A
:10435000136843F00103136000202023206484F8D5
:104360003D30206384F83E0080E7A06850B905EB3B
:104370004505B3FBF5F30133C3F30B037BB143F402
:104380000043C9E719206843B3FBF0F30133C3F3DB
:104390000B0323B143F44043BEE70423BCE70123EE
:1043A000BAE700BFA08601007F841E00FF083D0021
:1043B00040420F002DE9F743044699460C9E0F46F4
:1043C0009046FFF755FA94F83D30202B054603D070
:1043D000022003B0BDE8F08300903C49192301227C
:1043E0002046FFF776FD0028F2D194F83C30012BEF
:1043F000EED02068012384F83C300368D9075EBF03
:10440000036843F001030360036823F4006303605F
:10441000212384F83D30402384F83E300023236478
:104420000A9B6362BDF82C306385638D2385284B1E
:10443000E3624246CDE900654B4639462046FFF728
:10444000DDFD00282AD00120C3E7FFF7B0FD40B111
:10445000236C042B01BF2268136843F400731360BC
:10446000F1E7636A27681A4612F8011B3961626234
:10447000628D218D013A92B262857A69481E80B2BE
:10448000520720850AD548B15A783A6102336362EF
:10449000638D013B02399BB221856385238D2A46BA
:1044A00031462046002BD0D1FFF784FE0028CFD123
:1044B0002268136843F400731360202384F83D30AE
:1044C00084F83C0084F83E0083E700BF020010003F
:1044D0000000FFFF2DE9F043044687B09946109F86
:1044E0000D469046FFF7C4F994F83D30202B064660
:1044F00004D00225284607B0BDE8F0830090764935
:10450000192301222046FFF7E4FC0028F1D194F89A
:104510003C30012BEDD02068012384F83C30036847
:10452000DB075EBF036843F001030360036823F405
:1045300000630360222384F83D30402384F83E303A
:10454000002323640E9B6362BDF83C306385638D5A
:104550002385624BE3622946CDE900764B4642460D
:104560002046FFF7A5FD054608B10125C2E7228DCB
:104570002368B2B902905A6902929A690292029A29
:104580001A6842F400721A60DFF85481238D002B00
:104590002CD1202284F83D2084F83C3084F83E3031
:1045A000A8E7012A0AD11A6822F480621A600390EF
:1045B0005A6903929A690392039AE1E7022A0ED19B
:1045C0001A6822F480621A601A6842F400621A6063
:1045D00004905A6904929B690493049BD4E7059064
:1045E0005A6905929B690593059BCDE7032B56D825
:1045F000012B15D1324639462046FFF702FE00282E
:10460000B3D123681A69636A1A70636A01336362FB
:10461000238D013B2385638D013B9BB26385B5E709
:10462000022B00963B464FF000024146204619D12E
:10463000FFF74FFC002898D123681A6842F40072F3
:104640001A601A69636A1A70626A531C6362238D66
:10465000013B2385638D013B9BB2638523681B6906
:104660005370D2E7FFF735FC024600287FF47DAF98
:104670002368196821F4806119601969636A1970E7
:10468000636A01336362238D013B2385638D013BA4
:104690009BB26385414600963B462046C8E73246BA
:1046A00039462046FFF7ADFD00287FF45EAF236852
:1046B0001A69636A1A70626A531C6362238D013B34
:1046C0002385638D013B9BB2638523685969490744
:1046D0007FF55CAFC3E700BF020010000000FFFFE2
:1046E000040001002DE9F04F044685B01E460F4638
:1046F0009146FFF7BDF894F83D30202B054603D0D6
:10470000022005B0BDE8F08F00904F491923012227
:104710002046FFF7DEFB0028F2D194F83C30012B55
:10472000EED0012384F83C302368DFF81CB11A680E
:10473000D0075EBF1A6842F001021A601A6822F4BC
:1047400000621A60242384F83D3000232364A3F51B
:104750008033E3624FF0010A07F0FE072268136816
:1047600043F4807313604FF001113346009500222B
:104770002046FFF7AEFB236838B11B68D90544BF5C
:104780004FF4007323640320BBE71F61FFF770F849
:1047900023685A695B690546C2F34002C3F380236C
:1047A0004FF0A00894F83D10A0291CD123684FF0C9
:1047B000200884F83D805A6992072BD51A6822494F
:1047C00042F400721A60002203925A6903929B69B4
:1047D0000393039B0095192301222046FFF779FBE1
:1047E00098B101208DE71343E0D1FFF741F8401B5A
:1047F000B04200D80EB984F83D8023685A695B69DD
:10480000C2F34002C3F38023CCE784F83D8084F8F0
:104810003C0076E71A6842F400721A606FF4806216
:104820005A6159460095192301222046FFF751FB92
:104830000028D6D10AF1010ACA458FD384F83D80F9
:1048400084F83C00CDE700BF0200100090F83D0066
:10485000704700002DE9F341044640B30368DE07CA
:1048600010D423689D075BD42368190700F19D804D
:1048700023685A0700F1BD80A369002B40F0248112
:1048800000202CE08D4B9A6802F00C02042A07D01D
:104890009A6802F00C02082A0BD15B68590208D50D
:1048A000864B1B689A03DCD56368002BD9D10120A5
:1048B00015E06368814DB3F5803F13D12B6843F455
:1048C00080332B60FEF7D4FF7C4E054633689B0394
:1048D000C7D4FEF7CDFF401B6428F7D9032002B0F0
:1048E000BDE8F081B3F5A02F04D12B6843F48023F9
:1048F0002B60E3E72A6822F480322A602A6822F4D7
:1049000080222A60002BDDD1FEF7B2FF06462B681D
:104910009F03A6D5FEF7ACFF801B6428F7D9DDE71F
:10492000664B9A6812F00C0F07D09A6802F00C02DE
:10493000082A11D15B685D020ED4604A136899079A
:1049400002D5E368012BB2D11368216923F0F80383
:1049500043EAC103136087E7E268594BB2B1012211
:104960001A60FEF785FF554D06462B689B0707D555
:104970002B68226923F0F80343EAC2032B6073E734
:10498000FEF776FF801B0228EFD9A7E71A60FEF733
:104990006FFF4A4E054633689F077FF565AFFEF708
:1049A00067FF401B0228F6D998E76269444B82B141
:1049B0000122C3F8802EFEF75BFF404E0546736F61
:1049C0009B073FF555AFFEF753FF401B0228F6D972
:1049D00084E7C3F8802EFEF74BFF384E0546736F11
:1049E0009F077FF545AFFEF743FF401B0228F6D92E
:1049F00074E7324B1A6C12F0805228D101921A6C73
:104A000042F080521A641B6C03F080530193019BA7
:104A100001272C4D2B68D8051BD5A368274D012BEA
:104A200027D12B6F43F001032B67FEF721FF234EA5
:104A3000054641F28838336F9A0739D5002F3FF485
:104A40001BAF1E4A136C23F08053136414E7002736
:104A5000DFE72B6843F480732B60FEF709FF0646FF
:104A60002B68D905D9D4FEF703FF801B0228F7D99C
:104A700034E7052B04D12B6F43F004032B67D0E7F9
:104A80002A6F22F001022A672A6F22F004022A67A5
:104A9000002BCAD1FEF7ECFE41F2883806462B6F98
:104AA0009B07CBD5FEF7E4FE801B4045F7D915E701
:104AB000FEF7DEFE401B4045BDD90FE7003802403F
:104AC0000000474200700040374DAA6802F00C0217
:104AD000082A3ED0022B354B4FF000021A662BD12C
:104AE000FEF7C6FE06462B6899011FD4D4E90732AB
:104AF0001343626A43EA8213E26A43EA0263A26AE8
:104B00005208013A43EA02436B60284B264D0122CA
:104B10001A66FEF7ADFE04462B689A013FF5B0AE6B
:104B2000FEF7A6FE001B0228F6D9D7E6FEF7A0FE88
:104B3000801B0228D7D9D1E6FEF79AFE04462B68DF
:104B40009B017FF59DAEFEF793FE001B0228F6D970
:104B5000C4E6012B3FF4ABAE6B68E26903F480015D
:104B600091427FF4A4AE216A03F03F028A427FF4AF
:104B70009EAE616A47F6C0721A40B2EB811F7FF4A5
:104B800096AEA26A520803F44031013AB1EB024FEB
:104B90007FF48DAEE26A03F07063B3EB026F14BF73
:104BA000012000209BE600BF003802400000474281
:104BB000134908B58B6803F00C03042B1CD0082B99
:104BC0001CD14A684B68496813F4800314BF0D4830
:104BD0000D48C1F3881118BF002302F03F02A1FB6A
:104BE0000001FBF73DFB064B5B68C3F30143013358
:104BF0005B00B0FBF3F008BD0248FCE70248FAE7AF
:104C000000380240404B4C000024F4002DE9F041F4
:104C10000D46044610B90120BDE8F081434B1A68E7
:104C200002F007028A4228D321688F072DD4C807D3
:104C300040D43E4B1A6802F00702AA4265D82268A7
:104C400051076BD4130707D5394A2169936823F4B8
:104C5000604343EAC1039360FFF7AAFF344B354A30
:104C60009B68C3F30313D35CD840334B1860334BBA
:104C70001868FEF7B3FD0020CEE7CAB21A701B68B1
:104C800003F007038B42C6D1CEE7294B11F0040F86
:104C90001EBF9A6842F4E0529A600E0742BF9A68BB
:104CA00042F460429A609A68A06822F0F0020243DF
:104CB0009A60BCE762681E4B012A1CD11B6813F482
:104CC000003FA8D01A4EB36823F003031343B36028
:104CD000FEF7CEFD41F288380746B368626803F0FC
:104CE0000C03B3EB820FA4D0FEF7C2FDC01B4045FE
:104CF000F3D9032090E7911E01291B6802D813F015
:104D0000007FDEE713F0020FDBE7EAB21A701B68E0
:104D100003F00703AB427FF47EAF90E70449E068FD
:104D20008B6823F4E05303438B608BE7003C024025
:104D300000380240A132010890000020B400002099
:104D4000044B054A9B68C3F38223D35C034A106873
:104D5000D840704700380240993201089000002086
:104D6000044B054A9B68C3F34233D35C034A106883
:104D7000D840704700380240993201089000002066
:104D8000036813F0050FF7B5044605D123689B07A8
:104D90002AD4002003B0F0BD424B434E00229A6655
:104DA000FEF766FD054633681F0116D4D4E90123DA
:104DB0001B0743EA8213C6F884303A4B3A4E01226D
:104DC0009A66FEF755FD054633681801DED4FEF7F6
:104DD0004FFD401B0228F7D904E0FEF749FD401BB8
:104DE0000228E0D90320D5E7002301932E4B2F4D55
:104DF0001A6C42F080521A641B6C03F080530193CA
:104E0000019B2B6843F480732B60FEF731FD06464F
:104E10002B68D9051BD5244DE2682B6F13F4407322
:104E20001BD1E36803F44072B2F5407F1E4A34D1CF
:104E3000916823F0704021F4F81120F44070014390
:104E40009160116FC3F30B030B431367A1E7FEF7E8
:104E50000FFD801B0228DBD9C4E702F440729342A5
:104E6000DFD02B6F0F4A0121C2F8401E23F440739C
:104E70000021C2F8401E2B672B6FDA07D1D5FEF751
:104E8000F7FC41F2883706462B6F9B07C9D4FEF723
:104E9000EFFC801BB842F7D9A4E7916821F4F81120
:104EA000CEE700BF000047420038024000700040DB
:104EB00010B5044690B1437903F0FF0213B90271B3
:104EC000FEF720F8226802236371136843F004039D
:104ED0001360002001236371A06010BD0120FCE776
:104EE000026838B5D36823F0A003D3600446FEF708
:104EF000BFFC05462368DB689B0601D5002038BD52
:104F0000FEF7B6FC401BB0F57A7FF3D90320F6E735
:104F100038B50368DA685206044601D5002038BD6A
:104F20004FF0FF32DA60FEF7A3FC05462368DB682A
:104F30005B06F3D4FEF79CFC401BB0F57A7FF5D9F5
:104F40000320ECE738B50446B8B1437F03F0FF0215
:104F500013B90277FDF7EEFF022363772368CA22B5
:104F60005A6253225A622046FFF7D2FF2368054651
:104F700030B1FF225A62042363770125284638BDE9
:104F80009A68206922F4E00222F040029A60626886
:104F900099680243606902430A439A60E2681A61B1
:104FA0001A69A16842EA01421A61DA6822F08002B5
:104FB000DA609B689B0605D42046FFF791FF08B195
:104FC0002368D6E72368A1691A6C22F480221A6448
:104FD0001A6C0A431A64FF225A6201236377CDE7F1
:104FE0000023092803D840EA0310C0B270470A38EA
:104FF0000133C0B2F5E72DE9F041037F012B0546EF
:105000000E464FF002072ED0016847770123037741
:1050100030787478B7788B6842BB13F0400308BFD0
:10502000F370FFF7DDFF80462046FFF7D9FF044607
:105030003846FFF7D5FFF37840EA034343EA0843D5
:1050400043EA0424CA234B6253234B622846FFF7EA
:105050005FFF2A680746A8B1FF23536204236B77DA
:1050600000232B7701273846BDE8F08113F0400379
:1050700008BFF3702402F37844EA00443C4344EA56
:105080000344DFE704F07F3424F0FE4414609368A7
:1050900023F480239360D6E90330916803430B43E4
:1050A0009360D36823F08003D360946814F02004E5
:1050B0000AD12846FFF714FF30B12B68FF225A624D
:1050C00004236B772C77CDE72B68FF225A620123EC
:1050D0006B7700232B77C6E7F8B5037F012B0546D6
:1050E0004FF002061FD00123037746770E78C87869
:1050F0004C788F787603C2B146EA00433B4343EADB
:1051000004242B68CA225A6253225A622846FFF7A7
:10511000FFFE2A680646F8B1FF23536204236B772B
:1051200000232B7701263046F8BDE30642BF24F06A
:1051300010040A344C70FFF753FF04464878FFF719
:105140004FFF02463846FFF74BFF40EA060343EAAB
:10515000044343EA0224D4E724F07F4424F0C0044B
:105160005460D36823F08003D360946814F0200463
:105170000AD12846FFF7B4FE30B12B68FF225A62ED
:1051800004236B772C77CDE72B68FF225A6201232B
:105190006B7700232B77C6E72DE9F3411C461646B3
:1051A0000F460546FEF764FB3444241AFEF760FB05
:1051B000244B1B68C3F3CB336343804601932A68B7
:1051C000936837EA030301D000202EE0731CF7D068
:1051D000FEF74EFBA0EB0800A04229D32B685A68CB
:1051E00022F0E0025A606A68B2F5827F0AD1AA68AA
:1051F000B2F5004F02D0B2F5806F03D11A6822F0E9
:1052000040021A60AA6AB2F5005F07D11A6822F458
:1052100000521A601A6842F400521A60012385F89D
:105220005130002385F85030032002B0BDE8F081F2
:10523000019A019B002A03F1FF33019308BF144632
:10524000BDE700BF9000002038B513464268B2F5B4
:10525000827F044606D00A460121FFF79DFFB8B9B8
:10526000002038BD8268B2F5004F02D0B2F5806FE1
:1052700007D125682868B2F5806F20F040002860CB
:1052800003D00A4680212046E7E70A460121FAE7D3
:10529000636D43F0200363650320E2E737B51346EF
:1052A000124A1568124AB5FBF2F54FF47A7255436B
:1052B00042680195B2F5827F04460BD10A468021EF
:1052C000FFF76AFF78B1636D43F020036365032045
:1052D00003B030BD019B33B1019B013B01932368B7
:1052E0009B681B06F6D40020F2E700BF9000002068
:1052F00000366E0110B50446002855D0436A002BD5
:105300004ED14268B2F5827F00D0C3610023A36210
:1053100094F8513003F0FF0223B984F8502020465E
:10532000FDF728FE2168A068A269022384F85130A5
:105330000B6823F040030B60636800F4044003F43F
:1053400082730343E06800F400600343206900F0C7
:1053500002000343606900F00100034302F400709F
:105360000343E06900F038000343206A00F0800046
:105370000343A06A00F4005003430B60636A120CFD
:1053800003F0100302F004021A434A60CB6923F4CD
:105390000063CB6100200123606584F8513010BDAB
:1053A0000023C0E90433B1E70120F8E72DE9F74312
:1053B0001F4690F85030012B04460D46904600F0F1
:1053C000A080012380F85030FEF752FA94F8513053
:1053D000012B8146D8B240F09280002D61D0B8F107
:1053E000000F5ED0032384F8513000236365C4E9C5
:1053F0001033A4F83680A363A387E387A3682668E5
:105400002563B3F5004FA4F8348007D1336823F047
:1054100040033360336843F4804333603368E268A9
:105420005B065EBF336843F040033360B2F5006F44
:1054300063683FD113B1B8F1010F07D135F8023BD2
:10544000F3602563E38E013B9BB2E386E38E9BB260
:10545000A3B94A4639462046FFF720FF00284BD122
:10546000A36833B901932368DA6801929B680193BA
:10547000019B606D003818BF012012E0226893681C
:10548000980705D5236B33F8021BD1602363D9E756
:10549000FEF7EEF9A0EB0900B842D7D3791CD5D0BE
:1054A0000320012384F85130002384F8503003B0E6
:1054B000BDE8F08313B1B8F1010F08D12B78337335
:1054C000236B01332363E38E013B9BB2E386E38EC0
:1054D0009BB2002BBDD023689A68920703D5226B3C
:1054E00012781A73ECE7FEF7C3F9A0EB0900B84293
:1054F000EDD37B1CEBD0D3E720236365B0E702201C
:10550000CFE70220D3E72DE9F7431E4690F850304D
:10551000DDF82880012B04460D46914600F0E1801D
:10552000012380F85030FEF7A3F994F851306268F7
:10553000012B0746D9B20AD0B2F5827F40F0CF8066
:10554000A368002B40F0CB80042940F0C88015B13F
:10555000B9F1000F09D10120012384F85130002353
:1055600084F8503003B0BDE8F083002EF3D094F8F7
:105570005130C4F83890042B1CBF052384F85130F7
:1055800000236365C4E910332368E687E68619685B
:10559000A687490658BF1968256358BF41F04001E6
:1055A000A68658BF1960E168B1F5006F48D10AB10D
:1055B000012E07D135F8022BDA60E38E2563013B1B
:1055C0009BB2E3860125E38E9BB263B9E38F9BB266
:1055D0004BB93A4641462046FFF760FE002872D09C
:1055E00020236365B7E721688B689A070DD5E38EA2
:1055F0009BB253B145B1236B33F8022BCA602363CE
:10560000E38E013B9BB2E38600258A6812F001021B
:105610000CD0E38F9BB24BB1A36BC96823F8021B7C
:10562000A363E38F013B9BB2E3871546FEF720F9A6
:10563000C01B4045C7D3B8F1FF3FC4D003208BE760
:105640000AB1012E08D12A781A73236B0133236320
:10565000E38E013B9BB2E3860125E38E9BB21BB92F
:10566000E38F9BB2002BB4D0226893689B070ED5C2
:10567000E38E9BB25BB14DB1236B1B781373236B2D
:1056800001332363E38E013B9BB2E386002522684E
:10569000916811F001010DD0E38F9BB253B1A36B60
:1056A000D2681A70A36B0133A363E38F013B9BB2F3
:1056B000E3870D46FEF7DCF8C01B4045CDD3B8F1BB
:1056C000FF3FCAD0BAE7A368002B7FF445AF236839
:1056D0000190DA6801929B680193019B3CE70220EC
:1056E0003AE702203EE72DE9F7431D464368B3F54C
:1056F000827F0446894617460CD1836853B9042338
:1057000080F85130134600950A46FFF7FCFE03B0BF
:10571000BDE8F08394F85030012B7FD0012384F84A
:105720005030FEF7A5F894F85130012B8046D8B2DE
:1057300072D1B9F1000F5CD0002F5AD0A268C4F822
:10574000389000260423B2F5004F84F85130C4E9A4
:10575000106666652368E787A7872663A686E686C0
:1057600007D11A6822F040021A601A6822F48042B7
:105770001A601A6856065EBF1A6842F040021A6044
:10578000E368F3B1E38F9BB2FBB123689A68D20759
:1057900036D5DA68A36B23F8022BA363E38F013BB2
:1057A0009BB2E387EEE723689A68D00718D5A26B0F
:1057B0001B7B1370A36B0133A363E38F013B9BB28D
:1057C000E387E38F9BB2002BEDD14246294620466A
:1057D000FFF73AFDE8B9606D003818BF012008E016
:1057E000FEF746F8A0EB0800A842EAD3691CE8D00F
:1057F0000320012384F85130002384F8503086E7D9
:10580000FEF736F8A0EB0800A842BBD36B1CB9D05A
:10581000EEE720236365DEE70220EAE7022076E771
:1058200070470000F0B503685D689A68560685B059
:1058300004464FEA9211C2F3801708D4D60706D562
:105840006E0604D5036C05B0BDE8F0401847960716
:1058500004D5280602D5636C2046F4E741EA5211CC
:1058600002F4807001F0010101434FEA521657D053
:10587000AA0655D57FB194F85120032A4FF00001B4
:1058800048D0626D42F0040262650091DA680092CD
:105890009A680092009AF1070CD5626D42F00102FD
:1058A0006265002202929A6802921A6822F040020F
:1058B0001A60029A40B1626D42F0080262650022ED
:1058C00003929A680392039A626D4AB35A6822F06F
:1058D000E0025A60012284F85120AA0722D05A68B7
:1058E000E06C22F003025A6040B1104B0365FEF7F2
:1058F00023F918B1636D43F040036365A06C78B180
:105900000A4B0365FEF718F950B1636D43F040038D
:10591000636505E00191DA6801929B680193019B40
:1059200005B0F0BD2046FFF77BFFF9E731590008CD
:1059300008B5806B0023C387C386FFF771FF08BDDE
:10594000026802F10C0353E8003F23F490730C3219
:1059500042E8003102680029F2D102F1140353E851
:10596000003F23F0010302F1140C4CE80031002940
:10597000F3D1036B012B0BD102F10C0353E8003F71
:1059800023F0100302F10C0C4CE800310029F3D194
:10599000202380F83E300023036370470268C1680B
:1059A00038B5136923F440530B43136105468368EC
:1059B0000069D168034368690343E86921F416412B
:1059C00021F00C0103430B43D3605369A96923F40D
:1059D00040730B4353611F4B9A4203D003F580631E
:1059E0009A4224D1FFF7BCF9EA691921B2F5004FB8
:1059F000D5E90043A0FB01011CD1DA184FF00005E6
:105A000045EB0503FAF72CFC6422B0FBF2F102FB34
:105A10001103DB003233B3FBF2F303F007025B0048
:105A200002EB011203F4F8731344A36038BDFFF7CF
:105A300087F9D9E79A009B0FFAF712FC6422B0FBB2
:105A4000F2F102FB11031B013233B3FBF2F303EB60
:105A50000113EAE700100140F8B504460E46174668
:105A60001D462268136836EA030301D1002028E0AE
:105A70006B1CF7D025B1FDF7FBFEC01B8542F0D2B1
:105A8000226802F10C0353E8003F23F4D0730C3278
:105A900042E8003021680028F2D101F1140353E8F4
:105AA000003F23F0010301F1140040E80032002A16
:105AB000F3D1202384F83D3084F83C2084F83E3034
:105AC0000320F8BD10B5044640B390F83D3003F014
:105AD000FF021BB980F83C20FDF70AFB2268242353
