:020000040800F2
:1000000000000220FD590008255600082756000868
:10001000295600082B5600082D5600080000000045
:100020000000000000000000000000002F56000843
:10003000315600080000000033560008355600080D
:10004000715A0008715A0008715A0008715A000864
:10005000715A0008715A0008715A0008715A000854
:10006000715A0008715A0008715A0008715A000844
:10007000715A0008715A0008715A0008715A000834
:10008000715A0008715A0008715A0008715A000824
:10009000715A0008715A0008715A0008715A000814
:1000A000715A0008715A0008715A0008715A000804
:1000B000715A0008715A0008715A0008715A0008F4
:1000C000715A0008715A0008715A0008715A0008E4
:1000D000715A0008715A000855560008715A0008F4
:1000E000715A0008715A0008715A0008715A0008C4
:1000F000715A0008715A0008715A0008715A0008B4
:10010000715A0008715A0008715A000861560008B7
:10011000715A0008715A0008715A0008715A000893
:10012000715A0008715A0008715A0008715A000883
:10013000715A0008715A0008715A0008715A000873
:10014000715A0008715A0008715A0008715A000863
:10015000715A00086D560008715A00087956000857
:10016000715A0008715A0008715A0008715A000843
:10017000715A0008715A0008715A00080000000006
:08018000715A0008715A0008D1
:100188000000000000000000000000000000000067
:100198000000000000000000000000000000000057
:1001A8000000000000000000000000000000000047
:10118800EEEEEEEEEEEEEEEEEEEEEEEE000000002F
:101198000000000000000000000000000000000047
:1011A8000000000000000000000000000000000037
:1011B8000000000000000000000000000000000027
:1011C8000000000000000000000000000000000017
:1011D8000000000000000000000000000000000007
:1011E80000000000000000000000000000000000F7
:1011F80000000000000000000000000000000000E7
:1012080000000000000000000000000000000000D6
:1012180000000000000000000000000000000000C6
:1012280000000000000000000000000000000000B6
:1012380000000000000000000000000000000000A6
:101248000000000000000000000000000000000096
:101258000000000000000000000000000000000086
:101268000000000000000000000000000000000076
:101278000000000000000000000000000000000066
:101288000000000000000000000000000000000056
:101298000000000000000000000000000000000046
:1012A8000000000000000000000000000000000036
:1012B8000000000000000000000000000000000026
:1012C8000000000000000000000000000000000016
:1012D8000000000000000000000000000000000006
:0812E8000000000000000000FE
:1012F00010F8012B11F8013B012A28BF9A42F7D0C0
:10130000D01A70470000000000000000000000003C
:1013100001F0FF01102A2BDB10F0070F08D010F8A6
:10132000013B013A8B422DD010F0070F42B3F6D1AA
:10133000F0B441EA012141EA014122F007047FF0C3
:1013400000070023F0E80256083C85EA010586EA1A
:10135000010685FA47F5A3FA87F586FA47F6A5FA56
:1013600087F68EB9EED1F0BC01F0FF0102F0070262
:1013700032B110F8013B013A83EA010313B1F8D10D
:101380000020704701387047002D06BF35460338EE
:10139000073815F0010F07D1013015F4807F02BF27
:1013A000013015F4C03F0130F0BC0138704700BF78
:1013B000034613F8012B002AFBD1181A0138704795
:1013C00053B94AB9002908BF00281CBF4FF0FF31AC
:1013D0004FF0FF3000F00CB8ADF1080C6DE904CE11
:1013E0000DF012F8DDF804E0DDE9022304B07047E7
:1013F000704700BF0348044B834202D0034B03B144
:1014000018477047BC010020BC010020000000000C
:101410000548064B1B1AD90F01EBA301491002D056
:10142000034B03B118477047BC010020BC010020EA
:101430000000000010B5064C237843B9FFF7DAFF2F
:10144000044B13B10448AFF300800123237010BD97
:101450006811001000000000C4E6000808B5054B44
:101460001BB105490548AFF30080BDE80840FFF710
:10147000CFBF00BF000000006C110010C4E60008E0
:101480000369C26893429CBF81685B18013B981A4C
:1014900070472DE9F041D0E902840546A8EB040627
:1014A0004068964220440F46144406D90CF046F991
:1014B000BFF35F8FEC60BDE8F0813246A4EB080417
:1014C0000CF03CF968682246B919EFE72DE9F843BA
:1014D000C5680646894617464FF000083369B46868
:1014E00070689D4228BF1B19641BBC4203F1FF3387
:1014F00028BF3C465B1B9C4228BF1C4649462246EF
:1015000028440CF01BF9B3682544A044A1443F1BB8
:10151000AB4208BF0025BFF35F8FF560002FDDD120
:101520004046BDE8F883000008B5144BA82200210E
:1015300018460CF0E1FB0322026111494261114A95
:101540008161C2614FF48062026200228262426263
:10155000C26201660C49416610218166034602673A
:10156000C2664267BFF35F8F084911F8010D9854B6
:101570000132102AF9D1BFF35F8F08BD9815001012
:10158000A8E800089511001085110010E302010879
:10159000F8B5144B182700FB07751D4407FB0033F3
:1015A0000E46DB6A012B14460AD0022B14D023B955
:1015B0002846FFF765FF844208D900242046F8BD7D
:1015C0002846FFF75DFF844228BF04462246314685
:1015D0002846FFF75EFFF1E72846BDE8F840FFF731
:1015E00075BF00BF98150010F8B50B4B1B7804466B
:1015F0000D4616460BB9FFF797FFEFF311874FF033
:10160000200181F31188324629462046FFF7C0FFAA
:1016100087F31188F8BD00BF98150010F8B5184C75
:10162000237805460E460BB9FFF77EFFEFF31187CF
:101630004FF0200181F31188182202FB0542506A05
:10164000116A431C994208BF0023D16A022902D1C2
:10165000916A9942FBE7182202FB0541D1F828C0A4
:101660009C450BD005FB0222144462681654BFF35C
:101670005F8F01204B6287F31188F8BD0020FAE7E5
:10168000981500102DE9F041154C1E4623780546AB
:10169000884617460BB9FFF747FF022D1DD8EFF319
:1016A000118C4FF0200181F3118865B1182005FBE2
:1016B0000003E21844F80380576000FB0542002352
:1016C000166293625362182303FB0544069BE36290
:1016D0008CF311880020BDE8F0814FF0FF30FAE76D
:1016E0009815001073B51C4D2B7804460BB9FFF705
:1016F0001BFFFF230F2C8DF8043029D8174B1B5DDF
:101700008DF80530EFF311864FF0200181F3118839
:10171000EA6A02F00302022A0AD1114B11481C7036
:1017200001A9FFF7D3FE002086F3118802B070BD37
:101730000C48FFF7A5FE012807D9094B09481C7082
:10174000022201A9FFF7A5FEEDE74FF0FF30EBE71E
:101750004FF0FF30EAE700BF98150010E4020108DF
:1017600084110010B0150010826810B5044640685E
:10177000531C834205D820688154A360E368013379
:10178000E360D4E901329A420BD121682069FFF766
:101790002BFFA368984215BF4FF0FF330023E3608F
:1017A000A36010BD2DE9F84F9946DDE90A431646BE
:1017B000054688460A464FF0010AB24212D2CA458F
:1017C00038BFCA4613F0010B01D184B90024EB687D
:1017D000002B3DDB0127B9F1010F1FD909F1FF39BA
:1017E0007743F8E70AF1010AB2FBF6F2E5E79B0757
:1017F00012D5B9F1000F0CBF30272027A245E6D241
:1018000039462846FFF7B0FFEB68002B04F1FF34A0
:10181000DDDB002CF2D1D9E72027EFE7B8FBF7F3A7
:101820009E42DDD9DFF84890B8FBF7F3284619F857
:10183000031007FB1388FFF797FFEB68002B03DB10
:10184000B7FBF6F3B74205D2BBF1000F00D064B985
:10185000BDE8F88F1F46E7E720212846FFF784FF01
:10186000EB68002B04F1FF34F2DB5445F4D8EFE7CA
:10187000F40201082DE9F04F00239BB00E464021F1
:10188000CDE90613CDE908300DF1280A039015467D
:10189000CDF814A016F8011B39B9089D002D00F3EE
:1018A000108108981BB0BDE8F08F252940F0BA8060
:1018B0004FF0000B314611F8013B2D2B18D012D8F8
:1018C000232B1CD02B2B17D00024314611F8013BC1
:1018D000A3F13000092815D80A2202FB0433A3F132
:1018E00030040E46F1E7302BEED14BF0020B01E055
:1018F0004BF0010B0E46DDE74BF0040BFAE74BF023
:10190000080BF7E72E2B11D10E464FF000090A27DE
:10191000304610F8011BA1F1300CBCF1090F07D8BB
:1019200007FB0911A1F130090646F1E74FF0000964
:10193000304610F8011B01F0FB07682F0646F8D06F
:10194000782909D86F290BD8632967D020D8252991
:1019500068D0582900F09580089B002B9ADA9CE704
:1019600070390829F8D801A050F821F0B31A0008FE
:101970005919000859190008931A00085919000844
:10198000711A00085919000859190008831A00082B
:101990006429E1D129680F68081D87EAE77128608A
:1019A000A1EBE7714FF001080A2009293EDCC84588
:1019B00038BFC8462CB1002F02DB1BF0040F00D04B
:1019C000013C1BF0020F02D0B9F1000F04D01BF054
:1019D000010F01D17CBB002408990029BCDB002F3A
:1019E00035DA7F422D2105A8FFF7BEFE08990029B0
:1019F000B2DB0BF00301022904D1B9F1000F01D1D0
:101A000054BB002408990029A6DBCDE9004B4B46C6
:101A10000A22394605A8FFF7C5FE9DE72B681A1D67
:101A200019782A6005A8FFF79FFE95E708F10108DD
:101A3000B1FBF0F1B9E7A045CED2202105A8FFF710
:101A400093FE0899002904F1FF34C3DAC4E71BF0C0
:101A5000040FCED02B21C6E7A045D3D2302105A854
:101A6000FFF782FE0899002904F1FF34C8DAC9E7BC
:101A70002968081D2860CDE9004B4B460A220968F9
:101A8000C8E72968081D2860CDE9004B4B461022A5
:101A9000F5E72B681A1D2A601C6814F8011B002941
:101AA0003FF45AAF05A8FFF75FFE089B002BF4DA5E
:101AB00052E729680B1D2B6000220823CDE9003274
:101AC000E5E7079C24B1039822465146FFF78CFDB9
:101AD0002C440894E5E600BF0EB403B503AB01AA9D
:101AE00053F8041B0193FFF7C5FE02B05DF804EB49
:101AF00003B0704770470000F0B5044685B00D464E
:101B000016461F460A4805F027F820280CD14FF04A
:101B1000FF33CDE90173009601232A46214604488C
:101B200004F05EFE05B0F0BD0A2003F0F3FFE9E724
:101B300048390010F0B5044685B00D4616461F46DC
:101B40000D4805F009F82028FAD14FF0FF33CDE910
:101B500001732A46084800960123214604F0B0FD8F
:101B6000054D4FF0FF3301222146284604F040FF87
:101B70000028F6D105B0F0BD4839001008B513882B
:101B8000054A13800246A020FFF7B6FF10B1FFF709
:101B9000B1FF012008BD00BF421600100A464FF4F5
:101BA00096730146014804F023BF00BF4839001076
:101BB00013460B4A10B513700246A020FFF7BAFF78
:101BC000044610B1FFF796FF012440F6B831A0207B
:101BD000FFF7E4FF10B1FFF78DFF0124204610BD91
:101BE000401600102DE9F84F11F00F0705460C467E
:101BF0001646C2F307185FFA82FA02F00F0B1DD1E6
:101C0000B8F1000F01D15A462FE010222146284694
:101C1000FFF7CEFF60B908F1FF38103418F0FF0865
:101C2000A4B205F11005F0D1BBF1000F02D10020E4
:101C3000BDE8F88F5A462146284616E05FFA87F934
:101C4000C7F11007FFB2B8F1000F12D19742DAD2F4
:101C50003A46FFF7ADFF0028EAD1AAF1100A09EBD6
:101C60000A023919D2B289B2E819BDE8F84FFFF774
:101C70009FBF3A46FFF79CFF0028D9D1F61B3D4491
:101C80003C441FFA86F8641B06F47F662E44A4B217
:101C90002919B54289B203D118F00F02C7D0CBE79A
:101CA00010222846FFF784FF0028C1D11035EFE746
:101CB000054B0A4619688B689B07FCD501466423CF
:101CC000014805F025BD00BF0438001007B5084BDA
:101CD0008DF807001A6893689B07FCD564230122DE
:101CE0000DF10701024805F013FD03B05DF804FB98
:101CF0000438001008B5074B1B78012B04D10648A7
:101D00000022042104F04CFABDE80840012003F051
:101D100001BF00BF0C000020000C024008B5064BBC
:101D20001A78012A03D10548042104F039FABDE8E4
:101D30000840012003F0EEBE0C000020000C024021
:101D40001FB5FF238DF80E30094B1A6893689B0767
:101D5000FCD5642300930DF10F0201230DF10E0158
:101D6000034805F082FD9DF80F0005B05DF804FB07
:101D70000438001013B5FFF7D1FF0A24FF20FFF746
:101D8000A5FF013CFAD1FFF7B5FF402300930621E0
:101D90004FF415436846ADF80430FFF789FF4FF460
:101DA0000054FFF7CDFF012809D1FFF7B7FFFF204F
:101DB000FFF78CFF034B01221A7002B010BD013CEB
:101DC000EFD1F2E74416001010B5064C4FF4FA7349
:101DD0002380FFF7B5FFFF2802D02388002BF8D11E
:101DE00010BD00BF4616001070B506460D46FFF741
:101DF000EBFFFF284FF0000423D12846FFF766FFD2
:101E0000FD2D18D04FF400713046FFF751FFFFF75A
:101E100097FFFFF795FF4125FFF792FF00F01F03A3
:101E2000052B044603D0013D15F0FF05F4D1FFF763
:101E300087FF0028FBD004F01F04631F584258415D
:101E400070BD2046FCE738B504460D46FFF7BCFFE1
:101E5000FF2828D12046FFF739FF280EFFF736FF6D
:101E6000C5F30740FFF732FFC5F30720FFF72EFF4A
:101E7000E8B2FFF72BFF402C13D0482C14BF0120F1
:101E80008720FFF723FF4C2C01D1FFF759FF0A24CD
:101E9000FFF756FF030603D5013C14F0FF04F7D10A
:101EA00038BD9520EDE7FF20FAE7000070B50F4D33
:101EB000C82304460E462B80FFF742FFFF2803D1BC
:101EC00028880028F8D170BDFE280DD1651E344445
:101ED000FFF736FF05F8010FA542F9D1FFF730FFF4
:101EE000FFF72EFF0120EEE70020ECE74816001078
:101EF0002DE9F341002840F09D804F4E357815F0D4
:101F0000020504D03078C0B202B0BDE8F081FFF71E
:101F100031FFFFF7EFFE29464020FFF794FF01282D
:101F200004460DD00024454B1C70FFF7F7FEFFF769
:101F300007FF002C7BD0337803F0FE033370E1E71A
:101F40003F4F4FF47A734FF4D57148203B80FFF731
:101F50007AFF01283DD101ADA8460424FFF7F0FE29
:101F6000013C14F0FF0408F8010BF7D19DF806308E
:101F7000012BD7D19DF80730AA2BD3D10021772090
:101F8000FFF761FF012803D93B88002BF6D1C9E791
:101F90004FF080416920FFF756FF01460028F3D13A
:101FA0003B88002BBED07A20FFF74DFF0028B9D127
:101FB0000424FFF7C5FE013C14F0FF0405F8010BF3
:101FC000F7D19DF8043013F0400F0CBF04240C240B
:101FD000A9E729467720FFF736FF012806D82946CA
:101FE0006920FFF730FF012898BF0224022C4FF030
:101FF00000011AD17720FFF726FF012803D93B887B
:10200000002BF3D18EE700216920FFF71CFF002889
:10201000F5D13B88002B85D04FF400715020FFF79D
:1020200012FF00287FF47EAF7DE74120EDE7054BEE
:102030001C7067E7012067E70000002045160010CC
:10204000481600104416001018B9034B1878C0B297
:1020500070470120704700BF0000002070B50E4699
:1020600015461C46002837D1002B35D01C4B1B7859
:10207000DA0733D41B4B1B785B0758BF6D02FFF7A1
:1020800039FE012C294613D15120FFF7DCFE38B967
:102090004FF400713046FFF709FFB0FA80F464098D
:1020A000FFF73CFEFFF74CFE201E18BF012070BD5D
:1020B0005220FFF7C8FE0028F2D14FF400713046DD
:1020C000FFF7F4FE18B1013C06F50076F5D10021CA
:1020D0004C20FFF7B8FEE3E70420E8E70320E6E73B
:1020E0000000002045160010F8B50D4616461C46A7
:1020F000002847D1002B45D0254B1A78D00743D470
:102100001B78590742D4234F3B785A0758BF7602B1
:10211000FFF7F0FD012C13D131465820FFF793FE55
:1021200070BBFE212846FFF75FFEB0FA80F4640919
:10213000FFF7F4FDFFF704FE201E18BF0120F8BDD5
:102140003B789B0707D500217720FFF77CFE2146CF
:102150005720FFF778FE31465920FFF774FE00281C
:10216000E6D1FC212846FFF73FFE18B1013C05F5FA
:102170000075F6D1FD210020FFF736FE0028D7D1EB
:102180000124D5E70420DAE70320D8E70220D6E7C8
:1021900000000020451600107FB50E461546044687
:1021A000002840F08F80052913D11378012B09D026
:1021B000022B0AD0002B40F08580444B187020463B
:1021C00004B070BDFFF7D6FDF9E7404B1B785370A4
:1021D000F5E73F4B1C7814F0010475D1FFF78AFD39
:1021E0000D2E6DD8DFE806F04807446C6C6C6C6C03
:1021F0006C6C6C4F5D6000214920FFF724FE28B114
:102200000124FFF78BFDFFF79BFDD8E710216846FF
:10221000FFF74CFE0028F3D09DF800109DF8093020
:102220009DF808208909012906D1013303EB022317
:102230009BB29B022B60E4E79DF807109DF80A0013
:10224000920902EB81029DF80610890201F44061B7
:1022500001320A449DF805105B0001F00F0101EB0B
:10226000D01103F006030B44073B02FA03F3E1E746
:102270004FF400732B80C4E7FFF7A6FDB0F1FF0415
:1022800018BF0124BDE700214920FFF7DCFD00282D
:10229000B6D110212846FFF709FEB0FA80F4640990
:1022A000AFE700214A20F0E700217A20FFF7CBFDBD
:1022B00030B92C1DFFF744FD05F8010BAC42F9D1F4
:1022C00004249EE704247AE7032478E744160010E8
:1022D0000000002030B5144987B00446112213488D
:1022E00009F03AFE0546E0B9214611480AF052FDD0
:1022F0006B46122201A90D4809F0CAFF0B480AF0EB
:102300007EFA01A90B488DF815500AF043FD122200
:10231000214601A8FFF766FC2146024606480AF05E
:1023200039FD07B030BD00BFFFE8000850160010AF
:1023300005E900083FE9000849E9000810B5094B24
:102340001B7898B004465D2253B9074968460BF0E4
:10235000F5F95D222146684602F026FF18B010BD4F
:102360000249F3E7C1390010F6E9000853EA000812
:1023700030B52D4C9BB0054601462C480AF00AFDAD
:102380002B491122204609F0E7FD01AB02A90F22DB
:10239000204609F07DFF20460AF031FA2549112236
:1023A000204609F0D9FD01AB0DF117010F2220469F
:1023B00009F06EFF20460AF022FA1F49112220463A
:1023C00009F0CAFD01AB0DF126010F22204609F0EC
:1023D0005FFF20460AF013FA18491122204609F03F
:1023E000BBFD01AB0DF135010F22204609F050FF76
:1023F00020460AF004FA12491122204609F0ACFDE9
:102400002246212111A80AF09CFB20460AF0F7F988
:1024100002A90C480AF0BEFC5D22294602A802F07F
:10242000C3FE1BB030BD00BF50160010B0EA00085C
:10243000B6E90008BEE90008C6E90008CEE90008D0
:10244000D6E90008E8EA0008F0B59DB001465D2233
:1024500004A802F0BFFD04A90F226E486E4F6F4E14
:102460006F4D704C0BF034FA0DF11F010F226E48C6
:102470000BF02EFA0DF12E010F226C480BF028FA0A
:102480000DF13D010F226A480BF022FA04A9032244
:1024900003A80BF01DFA03A80BF042FB05A9387046
:1024A000032203A80BF014FA03A80BF039FB06A9CA
:1024B0007870032203A80BF00BFA03A80BF030FB93
:1024C00007A9B870032203A80BF002FA03A80BF0C7
:1024D00027FB0DF11F01F870032203A80BF0F8F998
:1024E00003A80BF01DFB0DF123013070032203A89C
:1024F0000BF0EEF903A80BF013FB0DF12701707040
:10250000032203A80BF0E4F903A80BF009FB0DF17B
:102510002B01B070032203A80BF0DAF903A80BF02B
:10252000FFFA0DF12E01F070032203A80BF0D0F991
:1025300003A80BF0F5FA0DF132012870032203A86D
:102540000BF0C6F903A80BF0EBFA0DF13601687039
:10255000032203A80BF0BCF903A80BF0E1FA0DF17C
:102560003A01A870032203A80BF0B2F903A80BF0FC
:10257000D7FA0DF13D01E870032203A80BF0A8F98A
:1025800003A80BF0CDFA0DF141012070032203A83E
:102590000BF09EF903A80BF0C3FA0DF14501607032
:1025A000032203A80BF094F903A80BF0B9FA0DF17C
:1025B0004901A070032203A80BF08AF903A80BF0CD
:1025C000AFFA13A9E07020221A480BF081F9FB78CA
:1025D0000093BB787A78397817480AF0DBFBF378F8
:1025E0000093B3787278317814480AF0D3FBEB7813
:1025F0000093AB786A78297811480AF0CBFBE3782E
:102600000093A378627821780E480AF0C3FB1DB0CE
:10261000F0BD00BF4F00002017370010EA36001051
:10262000133700100F3700103F0000202F0000204C
:102630001F000020EE360010F9EA000810EB000839
:1026400027EB00083EEB0008F0B5054685B00B48C7
:102650000AF0C0FF0A4B6A4603F1100716461868D5
:102660005968144603C40833BB422246F7D11022EE
:102670002946304602F098FD05B0F0BD55EB000844
:102680006AEB0008F0B589B01022054600216846C3
:102690000BF032FB0D4B04AA03F110071646186825
:1026A0005968144603C40833BB422246F7D1294671
:1026B0001022684602F08EFC0F22314668460BF06D
:1026C000F5F8003818BF012009B0F0BDEFE80008A8
:1026D00030B58C4C8C488D4D8DB002F017F98C497B
:1026E0001122204609F038FC2246102103A80AF0E6
:1026F00028FA03A987480AF045FB03A9032202A888
:102700000BF0E6F802A80BF00BFA04A928700322DC
:1027100002A80BF0DDF802A80BF002FA05A9687018
:10272000032202A80BF0D4F802A80BF0F9F906A9CD
:10273000A870032202A80BF0CBF802A80BF0F0F966
:10274000E870C0B20090AB786A7829787248734D0F
:102750000AF020FB20460AF052F871491122204667
:1027600009F0FAFB2246102103A80AF0EAF903A9AE
:102770006C480AF007FB03A9032202A80BF0A8F893
:1027800002A80BF0CDF904A92870032202A80BF0CF
:102790009FF802A80BF0C4F905A96870032202A8EB
:1027A0000BF096F802A80BF0BBF906A9A87003225B
:1027B00002A80BF08DF802A80BF0B2F9E870C0B2D5
:1027C0000090AB786A7829785748584D0AF0E2FAB9
:1027D00020460AF014F856491122204609F0BCFBA5
:1027E0002246102103A80AF0ACF903A951480AF0C7
:1027F000C9FA03A9032202A80BF06AF802A80BF099
:102800008FF904A92870032202A80BF061F802A82E
:102810000BF086F905A96870032202A80BF058F89E
:1028200002A80BF07DF906A9A870032202A80BF0FC
:102830004FF802A80BF074F9E870C0B20090AB78C2
:102840006A7829783C483D4D0AF0A4FA204609F000
:10285000D6FF3B491122204609F07EFB224610217B
:1028600003A80AF06EF903A936480AF08BFA03A907
:10287000032202A80BF02CF802A80BF051F904A9CE
:102880002870032202A80BF023F802A80BF048F9E5
:1028900005A96870032202A80BF01AF802A80BF031
:1028A0003FF906A9A870032202A80BF011F802A8AC
:1028B0000BF036F9E870C0B20090AB786A782978EE
:1028C0002148224D0AF066FA204609F098FF204977
:1028D0001122204609F040FB2246212103A80AF0DC
:1028E00030F9202203A928460AF0F2FF204609F019
:1028F00086FF00232946174885F820300AF04AFA57
:102900000DB030BD501600107AEB000817370010DC
:10291000B6E900084F000020F9EA0008EA36001086
:10292000BEE900083F00002010EB0008133700103C
:10293000C6E900082F00002027EB00080F37001021
:10294000CEE900081F0000203EEB0008EE36001024
:10295000D6E9000897EB000808B51149114807F0BF
:10296000DBF81149114807F0D7F81149114807F071
:10297000D3F81149114807F0CFF81149114807F071
:10298000CBF81149114807F0C7F81149114807F071
:10299000C3F8BDE808401049104807F0BDB800BFB3
:1029A0003E3D01084BFE000804030108D2E8000880
:1029B000155C0108A1EB00084F000020B6E90008F3
:1029C0003F000020BEE900082F000020C6E90008F3
:1029D0001F000020CEE900080D000020ABEB00082E
:1029E00010B5002204464FF400711C4803F0D8FBD8
:1029F000462003F08FF801224FF40071174803F0CE
:102A0000CFFB462003F086F802F09CFF144B1549DB
:102A10001A689B888B80144B0A601B68C1F80630CB
:102A2000124B1B68C1F80E30114B00201B68C1F817
:102A30000A3006F0F5FC0F4A0023128801212046D7
:102A400005F08AFE204605F019FF012805D1214630
:102A50000948BDE810400AF09DB910BD00080240C9
:102A6000E4360010FC000020173700101337001068
:102A70000F37001008000020B3EB000810B5104914
:102A80001048002209F03EFA0F491048112209F0BF
:102A900063FA38B90E4801F039FFBDE810400B4821
:102AA00009F0ADBE0B4B0C480024012204211C7020
:102AB00003F076FB09482246042103F071FBECE7A2
:102AC00079EB0008A8260010B6E90008501600109F
:102AD000CFEB00080C000020000C02400010024068
:102AE00008B505480122042103F05AFBBDE808405F
:102AF000024802F04FBA00BF000C02400438001038
:102B000038B5324B1B780BBB314D2B787BB94FF46A
:102B1000D070FFF7B7FD044648B92E480AF05AFDB9
:102B20002046FFF70BFC4FF4D070FFF78DFD2B789C
:102B3000012B06D1FFF7CCFDBDE838400020FFF7A0
:102B400017BCBDE838400020FFF77EBC0020FFF72F
:102B5000F5FB0020FFF778FC01224FF480511E485E
:102B600003F01EFB642002F0D5FF00224FF48051D9
:102B7000194803F015FB642002F0CCFF01224FF44A
:102B80008051154803F00CFB642002F0C3FF0022C3
:102B90004FF48051104803F003FB642002F0BAFFA9
:102BA00001224FF480510C4803F0FAFA642002F03D
:102BB000B1FF094800224FF4805103F0F1FA64207C
:102BC00002F0A8FFBDE8384003F00AB89C390010B5
:102BD0000C000020DBEB0008000C0240024A00233E
:102BE0001288022105F0B8BD06000020012208214C
:102BF00008B50C4803F0D4FA0B4A01215378DB43A3
:102C000003F0F003043143F005033129537002F15E
:102C10000402F3D1BDE8084002480022082103F075
:102C2000BFBA00BF000C024018100010012208219A
:102C300008B50C4803F0B4FA0B4A01215378DB4382
:102C400003F0F003043143F005033129537002F11E
:102C50000402F3D1BDE8084002480022082103F035
:102C60009FBA00BF000C02404810001037B505465F
:102C700002F04AFF2F4B30491B88009304462F4B2C
:102C80003022284605F074FF02F03EFF04F5FA7486
:102C9000A0420AD200222A484FF4804103F080FA71
:102CA000284B01221A7003B030BD274C274894F9F5
:102CB00000100AF06FF8224800224FF4805103F010
:102CC0006FFA1F4800224FF4004103F069FA012215
:102CD0004FF480411A4803F063FA642002F01AFFAF
:102CE00000224FF48041164803F05AFA642002F0A3
:102CF00011FF01224FF48041114803F051FA642082
:102D000002F008FF00224FF480410D4803F048FA1A
:102D1000642002F0FFFE0E4803F048FF2378013BD9
:102D20005BB2002B2370BEDA03B0BDE8304002F086
:102D300057BF00BF060000205F000020EA360010E9
:102D4000000C0240C03900100A000020EBEB000824
:102D50003C39001008B505480AF03CFC002006F09C
:102D6000CBFEBDE8084002F03BBF00BF17EC0008F7
:102D700010B51E4B8AB0B3F8A520ADF80820044664
:102D80001B4AD3F8A10093F8A7308DF80A3000232E
:102D9000CDE904230534174A019001A92046CDE965
:102DA0000723ADF80B308DF80D30ADF81830ADF8C5
:102DB0002430FEF79DFA48B104A92046FEF798FAA0
:102DC00020B107A92046FEF793FA38B90A480AF05D
:102DD00001FC0A4B01221A700AB010BD08480AF023
:102DE000F9FB084A1378013B1370F5E7DCE60008AD
:102DF00075736572313233002DEC00089E39001076
:102E000036EC00080500002008B50A4920220830E9
:102E10000AF04CFD30B9084801F078FD074B01225B
:102E20001A7008BD064801F071FD064A1378013B8F
:102E30001370F6E7EE36001049EC00089D390010DB
:102E400057EC0008050000202DE9F04701468EB040
:102E500004469F4809F09EFF0023E25C2E2A03F1FE
:102E60000107DBB205D038336B4403F8182C3B461E
:102E7000F3E7032B18D1BDF820209DF82230ADF8E0
:102E800010208DF8123004A80AF04AFE3D46C6B262
:102E9000625DEB1B2E2ADBB205F1010519D0383338
:102EA0006B4403F8182CF3E7022B09D130238DF87B
:102EB00010309DF820308DF811309DF82130E0E77A
:102EC000012BE0D143F23003ADF810309DF82030F3
:102ED000D7E7032B1AD1BDF820209DF82230ADF89A
:102EE00014208DF8163005A80AF01AFEAA46C7B2BB
:102EF00014F80A20AAEB05032E2ADBB20AF1010A14
:102F000019D038336B4403F8182CF1E7022B09D1A0
:102F100030238DF814309DF820308DF815309DF851
:102F20002130DEE7012BDED143F23003ADF814305F
:102F30009DF82030D5E7032B1DD1BDF820209DF84A
:102F40002230ADF818208DF81A3006A80AF0E8FDF6
:102F500004EB0A0580465FFA80F9002415F8013B6E
:102F6000621CE4B2E3B104F138010DEB010404F892
:102F7000183C1446F2E7022B09D130238DF81830A3
:102F80009DF820308DF819309DF82130DBE7012BBA
:102F9000DBD143F23003ADF818309DF82030D2E792
:102FA000032C1ED1BDF820209DF82230ADF81C2046
:102FB0008DF81E30474C07A80AF0B2FD2378B342C3
:102FC000C0B223D16378BB4220D1A3784B451DD139
:102FD000E37883421AD140480AF0FCFA0EB0BDE80B
:102FE000F087022C09D130238DF81C309DF8203059
:102FF0008DF81D309DF82130DAE7012CDAD143F24B
:103000003003ADF81C309DF82030D1E7E070267019
:10301000677084F802905FFA88F300903A462F4870
:10302000314609F0B7FE2E4B1D78012D37D12D49C1
:103030002D48122208F090FF0028CFD12B480AF02B
:10304000C9FA0A2304A903220AA88DF80C302E24F9
:103050000AF03EFC05A903220BA88DF82B400AF0CC
:1030600037FC06A903220CA88DF82F400AF030FC8B
:1030700007A903220DA88DF833400AF029FC2A463F
:1030800003A90DF137000AF023FC09AB10220AA9AD
:10309000154809F0D3F9144809F0B1FB9EE714482C
:1030A0000AF098FA0322002104A802F07DF8032216
:1030B000042105A802F078F80322082106A802F0EE
:1030C00073F803220C2107A802F06EF886E700BF10
:1030D00069EC0008173700107BEC00089DEC000835
:1030E0000C000020B6E9000850160010B8EC0008EB
:1030F000DEEC00082DE9F04300238FB00446E25CCB
:103100002E2A03F10106DBB205D038336B4403F8F5
:10311000182C3346F3E7032B18D1BDF820209DF877
:103120002230ADF810208DF8123004A80AF0F8FC17
:103130003746C5B2E25DBB1B2E2ADBB207F10107A1
:1031400019D038336B4403F8182CF3E7022B09D15C
:1031500030238DF810309DF820308DF811309DF817
:103160002130E0E7012BE0D143F23003ADF810301D
:103170009DF82030D7E7032B1AD1BDF820209DF809
:103180002230ADF814208DF8163005A80AF0C8FCDE
:10319000B946C6B214F80920A9EB07032E2ADBB200
:1031A00009F1010919D038336B4403F8182CF1E701
:1031B000022B09D130238DF814309DF820308DF882
:1031C00015309DF82130DEE7012BDED143F23003CC
:1031D000ADF814309DF82030D5E7032B1DD1BDF894
:1031E00020209DF82230ADF818208DF81A3006A85E
:1031F0000AF096FC04EB090207465FFA80F8002407
:1032000012F8013B611CE4B2E3B104F138000DEBAC
:10321000000404F8183C0C46F2E7022B09D13023D5
:103220008DF818309DF820308DF819309DF8213038
:10323000DBE7012BDBD143F23003ADF818309DF80A
:103240002030D2E7032C1ED1BDF820209DF822307B
:10325000ADF81C208DF81E30454C07A80AF060FC24
:103260002378AB42C0B223D16378B34220D1A37894
:1032700043451DD1E37883421AD13E480AF0AAF9AA
:103280000FB0BDE8F083022C09D130238DF81C303B
:103290009DF820308DF81D309DF82130DAE7012CA3
:1032A000DAD143F23003ADF81C309DF82030D1E77D
:1032B0002570E070667084F80280FBB200902946A9
:1032C0002D48324609F066FD2C4B1D78012D37D173
:1032D0002B492C48122208F03FFE0028D0D12A4862
:1032E0000AF078F90A2304A903220AA88DF80C3001
:1032F0002E240AF0EDFA05A903220BA88DF82B4025
:103300000AF0E6FA06A903220CA88DF82F400AF06D
:10331000DFFA07A903220DA88DF833400AF0D8FA86
:103320002A4603A90DF137000AF0D2FA09AB1022A0
:103330000AA9144809F082F8124809F060FA9FE7D8
:1033400012480AF047F903222D2104A801F02CFFAE
:103350000322312105A801F027FF0322362106A808
:1033600001F022FF03223A2107A801F01DFF87E7A1
:103370000F37001008ED000829ED00080C000020B0
:10338000CEE900085016001044ED00086AED000870
:103390002DE9F04300238FB00446E25C2E2A03F1AE
:1033A0000106DBB205D038336B4403F8182C3346E2
:1033B000F3E7032B18D1BDF820209DF82230ADF89B
:1033C00010208DF8123004A80AF0AAFB3746C5B2C7
:1033D000E25DBB1B2E2ADBB207F1010719D038339F
:1033E0006B4403F8182CF3E7022B09D130238DF836
:1033F00010309DF820308DF811309DF82130E0E735
:10340000012BE0D143F23003ADF810309DF82030AD
:10341000D7E7032B1AD1BDF820209DF82230ADF854
:1034200014208DF8163005A80AF07AFBB946C6B20A
:1034300014F80920A9EB07032E2ADBB209F10109D0
:1034400019D038336B4403F8182CF1E7022B09D15B
:1034500030238DF814309DF820308DF815309DF80C
:103460002130DEE7012BDED143F23003ADF814301A
:103470009DF82030D5E7032B1DD1BDF820209DF805
:103480002230ADF818208DF81A3006A80AF048FB53
:1034900004EB090207465FFA80F8002412F8013BAA
:1034A000611CE4B2E3B104F138000DEB000404F850
:1034B000183C0C46F2E7022B09D130238DF8183066
:1034C0009DF820308DF819309DF82130DBE7012B75
:1034D000DBD143F23003ADF818309DF82030D2E74D
:1034E000032C1ED1BDF820209DF82230ADF81C2001
:1034F0008DF81E30454C07A80AF012FB2378AB422A
:10350000C0B223D16378B34220D1A37843451DD103
:10351000E37883421AD13E4801F0F8F90FB0BDE8D4
:10352000F083022C09D130238DF81C309DF8203017
:103530008DF81D309DF82130DAE7012CDAD143F205
:103540003003ADF81C309DF82030D1E72570E070D5
:10355000667084F80280FBB2009029462D483246FE
:1035600009F018FC2C4B1D78012D37D12B492C4824
:10357000122208F0F1FC0028D0D12A480AF02AF8DB
:103580000A2304A903220AA88DF80C302E240AF07D
:103590009FF905A903220BA88DF82B400AF098F992
:1035A00006A903220CA88DF82F400AF091F907A96B
:1035B00003220DA88DF833400AF08AF92A4603A9A0
:1035C0000DF137000AF084F909AB10220AA914485A
:1035D00008F034FF124809F012F99FE7124809F089
:1035E000F9FF03221E2104A801F0DEFD032222219F
:1035F00005A801F0D9FD0322262106A801F0D4FD7B
:1036000003222A2107A801F0CFFD87E71337001016
:1036100094ED0008B7ED00080C000020C6E9000892
:1036200050160010D2ED0008F8ED00082DE9F04327
:1036300000238FB00446E25C2E2A03F10106DBB2C0
:1036400005D038336B4403F8182C3346F3E7032BCB
:1036500018D1BDF820209DF82230ADF810208DF84B
:10366000123004A80AF05CFA3746C5B2E25DBB1B13
:103670002E2ADBB207F1010719D038336B4403F867
:10368000182CF3E7022B09D130238DF810309DF868
:1036900020308DF811309DF82130E0E7012BE0D18A
:1036A00043F23003ADF810309DF82030D7E7032BFC
:1036B0001AD1BDF820209DF82230ADF814208DF8E5
:1036C000163005A80AF02CFAB946C6B214F809203B
:1036D000A9EB07032E2ADBB209F1010919D038330F
:1036E0006B4403F8182CF1E7022B09D130238DF835
:1036F00014309DF820308DF815309DF82130DEE72C
:10370000012BDED143F23003ADF814309DF82030A8
:10371000D5E7032B1DD1BDF820209DF82230ADF850
:1037200018208DF81A3006A80AF0FAF904EB0902FD
:1037300007465FFA80F8002412F8013B611CE4B2EE
:10374000E3B104F138000DEB000404F8183C0C461A
:10375000F2E7022B09D130238DF818309DF8203084
:103760008DF819309DF82130DBE7012BDBD143F2D6
:103770003003ADF818309DF82030D2E7032C1ED16D
:10378000BDF820209DF82230ADF81C208DF81E30A9
:10379000454C07A80AF0C4F92378AB42C0B223D144
:1037A0006378B34220D1A37843451DD1E3788342A7
:1037B0001AD13E4801F0AAF80FB0BDE8F083022C00
:1037C00009D130238DF81C309DF820308DF81D3044
:1037D0009DF82130DAE7012CDAD143F23003ADF85D
:1037E0001C309DF82030D1E72570E070667084F8B9
:1037F0000280FBB2009029462D48324609F0CAFAF1
:103800002C4B1D78012D37D12B492C48122208F062
:10381000A3FB0028D0D12A4809F0DCFE0A2304A922
:1038200003220AA88DF80C302E240AF051F805A9BD
:1038300003220BA88DF82B400AF04AF806A90322B0
:103840000CA88DF82F400AF043F807A903220DA811
:103850008DF833400AF03CF82A4603A90DF13700F1
:103860000AF036F809AB10220AA9144808F0E6FD60
:10387000124808F0C4FF9FE7124809F0ABFE03228C
:103880000F2104A801F090FC0322132105A801F0E8
:103890008BFC0322172106A801F086FC03221B21C2
:1038A00007A801F081FC87E7EA36001022EE000845
:1038B00045EE00080C000020BEE90008501600107C
:1038C00060EE000886EE000810B501460446174871
:1038D00009F060FA164809F07DFE164B1B78012BA3
:1038E00019D115491548122208F036FBE8B91448D9
:1038F00009F070FE00220023104808F091FF0F49E4
:10390000204609F043F90D4808F0CCFEBDE8104010
:103910000A4808F074BF0B4809F05CFE20462122DB
:10392000BDE810403C2101F03FBC10BDB0EE0008E6
:10393000A3FC00080C000020D6E900085016001077
:10394000C8EE0008EAEE0008F7B5144F04460D462D
:10395000134816460821012202F022FC3B7833B9B5
:10396000104900962B463022204605F001F93B789D
:10397000012B06D10C4900962B463022204605F03B
:10398000F7F807480022082102F00AFC2821142039
:1039900003B0BDE8F04001F021B900BFC13900100B
:1039A000000C024078100010181000102DE9F041B2
:1039B00088B0824EADF816200746884602F0A4F87B
:1039C00032687F4B01329842044632603FD942F25E
:1039D0001073B2FBF3F103FB1120002837D1794BB0
:1039E000794D1A68B4FBF5F501321A60774BB4FBD8
:1039F000F3F81823B5FBF3F103FB11553C234EF606
:103A00006027B4FBF7F7B7FBF3F103FB11774FF433
:103A10007A71B4FBF1F4B4FBF3F103FB11446C4B8A
:103A20001B7833B1CDE901746A4900954346FEF72E
:103A300053F8CDE900742B4631686748424600F0E0
:103A400047FF33680133336008B0BDE8F081634C51
:103A500063480122102102F0A3FB237843B90DF142
:103A6000160300935F4943463022384605F028F993
:103A70002578012D40F097800DF116035A490093E7
:103A800030224346384605F01BF9574800F080FFC6
:103A9000044600283AD12A464FF48041504802F0AB
:103AA0007FFB642002F036F822464FF480414C48F8
:103AB00002F076FB642002F02DF82A464FF4804194
:103AC000474802F06DFB642002F024F822464FF4D0
:103AD0008041434802F064FB642002F01BF82A4650
:103AE0004FF480413E4802F05BFB642002F012F884
:103AF00022464FF480413A4802F052FB642002F023
:103B000009F83A4809F066FDFFF724F9364800F055
:103B10003FFF0128044646D102464FF48041304819
:103B200002F03EFB642001F0F5FF00224FF48041DB
:103B30002B4802F035FB642001F0ECFF22464FF4E5
:103B40008041274802F02CFB642001F0E3FF0022B3
:103B50004FF48041224802F023FB642001F0DAFF99
:103B600022464FF480411E4802F01AFB642001F007
:103B7000D1FF00224FF48041194802F011FB64206C
:103B800001F0C8FF1A4809F025FD882322464FF4AA
:103B9000407107A88DF81C3001F006FB154809F0AC
:103BA00019FDFFF7D7F80E480022102102F0F8FAAD
:103BB0002821142001F032F846E700BFB439001084
:103BC000A0860100B039001080EE3600005C2605AA
:103BD000AE39001010EF00083FEF0008C1390010A7
:103BE000000C0240A81000104810001072EF0008EE
:103BF00095EF0008C0EF00082DE9F043794E3378C7
:103C000085B00446E3B9784D2B78002B37D101F00D
:103C10007BFF41F28733984212D800F0CFFF78B98A
:103C2000724809F0D7FC0122FF234FF4407103A82A
:103C30002A708DF80C3001F0B7FA6D4809F0CAFC13
:103C40003578012D1BD16B4F3B78C3B901F05CFF78
:103C500041F28733984212D800F0B0FF78B9634838
:103C600009F0B8FCFF232A464FF4407103A83D70C9
:103C70008DF80C3001F098FA5D4809F0ABFC5E4815
:103C80004FF4004102F086FA0128054640F0858194
:103C90003778002F40F03781024620215748DFF85F
:103CA000988102F07DFA55483A46202102F078FAD0
:103CB00053482A46202102F073FA4FF48053514AA8
:103CC000514900935148302303F0CFFD4C483A4608
:103CD000202102F065FA4E482A464FF4807102F026
:103CE0005FFA4B483A464FF4807102F059FA49495D
:103CF000444800F025FF98F800305BB1414800F0DF
:103D000073FE444800F0C8FE3E4800F099FE3D486E
:103D100000F0EAFE40493F48404D414F00F01FFF90
:103D2000404A002800F08A802B6801332B6098F805
:103D300000304FF0000982F8009053B10620FDF7E3
:103D4000D1FC2A6838494846FDF7C6FE4846FDF7CB
:103D5000C9FC2A6846F678139A4276D13B883349E3
:103D600000933022324B204604F002FF314809F024
:103D700031FC01224FF48041214802F011FA642005
:103D800001F0C8FE00224FF480411D4802F008FAFD
:103D9000642001F0BFFE01224FF48041184802F078
:103DA000FFF9642001F0B6FE00224FF48041144870
:103DB00002F0F6F9642001F0ADFE01224FF48041DB
:103DC0000F4802F0EDF9642001F0A4FE00224FF448
:103DD00080410B4802F0E4F9642001F09BFEFEF7FD
:103DE000B9FF32E0C1390010AD390010DAEF000838
:103DF000EBEF0008AC39001000040240000802405C
:103E0000000C024078100010A81000105C38001060
:103E1000000002400C10001000100010A839001023
:103E200006000020A439001006F00008BF000020A2
:103E3000EA36001018F00008AE390010137801338C
:103E4000DBB2642B137084D12860554B1D78012D93
:103E50004FD1DFF8749199F80080B8F1000F48D184
:103E60003B885049009330224F4B042004F080FEE1
:103E70004E4809F0AFFB2A464FF480414C4802F00F
:103E80008FF9642001F046FE42464FF480414848D5
:103E900002F086F9642001F03DFE2A464FF480418D
:103EA000434802F07DF9642001F034FE42464FF4AD
:103EB00080413F4802F074F9642001F02BFE2A464D
:103EC0004FF480413A4802F06BF9642001F022FE81
:103ED00042464FF48041364802F062F9642001F016
:103EE00019FE4FF47A7089F8005001F013FE00F0CB
:103EF000E1FF3A882C492046FFF726FD3A882A49F7
:103F00002046FFF753FD3578012D46D1FEF78EFE92
:103F100028482A46202102F043F926480022202181
:103F200002F03EF922482A46202102F039F94FF4E6
:103F30008053214A214900932148302303F095FC06
:103F40001B480022202102F02BF9FEF74FFE1D48EE
:103F50002A464FF4807102F023F91A4800224FF4E8
:103F6000807102F01DF90E4B1B7843B9164B1B787C
:103F7000012B04D1154809F02DFB00F0ADFE144DC6
:103F800009492A882046FFF711FD2A88064920465C
:103F900005B0BDE8F043FFF7D7BC05B0BDE8F0833E
:103FA000AD3900108F000020EA3600103BF0000809
:103FB000000C0240000802401810001048100010C9
:103FC0005C38001000000240AC39001069F00008B5
:103FD00006000020F0B5144B85B06D46044603F191
:103FE00010072A46186859682E4603C60833BB4294
:103FF0003546F7D11346114625780022104611F8B0
:10400000016BB54208BF80181032B2F5807FF6D13F
:104010006178002213F8014BA14208BF80180132D9
:10402000102AF7D105B0F0BD91F000082DE9F04756
:1040300012248AB00DEB0402014605A8ADF8124027
:10404000FDF79CFD224605A92D48DFF8BCA009F02C
:104050003FFC05A9022204A809F03AFC04A8FFF7D6
:10406000B9FF0DF1170107468AF80000022204A8E3
:1040700009F02EFC04A8FFF7ADFF0DF11A018046F0
:104080008AF80100022204A809F022FC04A8FFF724
:10409000A1FF0DF11D0181468AF80200022204A849
:1040A00009F016FC04A8FFF795FF08A98AF8030099
:1040B0000222044604A809F00BFC04A8FFF78AFFBB
:1040C0000DF123018AF804000222054604A809F034
:1040D000FFFB04A8FFF77EFFEDB2C6B2E4B28AF898
:1040E00005005FFA89F30296019500945FFA88F261
:1040F000F9B2044808F04EFE0AB0BDE8F08700BFF0
:104100000D000020D9F00008E43600102DE9F04F32
:10411000DFF8E4803449354F8BB01122404607F078
:104120001BFF00230022404608F07AFB4246122182
:1041300005A808F006FD05A912222D4809F0C8FBC4
:1041400005A9022204A809F0C3FB04A8FFF742FF57
:104150000DF1170181463870022204A809F0B8FB5E
:1041600004A8FFF737FF0DF11A018246787002228A
:1041700004A809F0ADFB04A8FFF72CFF0DF11D0109
:104180008346B870022204A809F0A2FB04A8FFF736
:1041900021FF08A9F8700222044604A809F098FB40
:1041A00004A8FFF717FF0DF123013871022205461D
:1041B00004A809F08DFB04A8FFF70CFFEDB2C6B20E
:1041C000E4B278715FFA8BF35FFA8AF25FFA89F1F1
:1041D000029601950094074808F0DCFD404608F07F
:1041E0000EFB0BB0BDE8F08FFFE80008E4360010CE
:1041F0000D000020FEF000085016001008B5084B16
:104200001B78012B4FF4907005D1FEF763F8BDE8E1
:104210000840FFF77BBFBDE80840FFF707BF00BFBE
:104220000C00002008B572B6094C01224FF4804101
:10423000204601F0B5FF642001F06CFC204600220E
:104240004FF4804101F0ACFF642001F063FCECE727
:10425000000C024030B5002495B01422214603A87A
:10426000CDE9094409F048FD1F4B01941A6C42F056
:1042700080521A641B6C03F080530193019B1B4B0B
:1042800002941A6842F480421A601B6803F4804367
:104290000293029B0A230893102201230820CDE9F0
:1042A0000B320D93A823CDE910030225072308A89C
:1042B000CDE90E541295139302F07EFC08B1FFF77E
:1042C000B1FF0F23CDE9033505904FF4A0524FF411
:1042D0008053052103A8CDE9062302F049FE0028FA
:1042E000EDD115B030BD00BF003802400070004075
:1042F0002DE9F04F91B000247C4D01F0DFFBFFF77A
:10430000A9FF142200210BA809F0F6FC05942B6BE1
:10431000774843F010032B632B6B03F010030593D6
:10432000059B06942B6B43F004032B632B6B03F06C
:1043300004030693069B07942B6B43F080032B63C7
:104340002B6B03F080030793079B08942B6B43F0C0
:1043500001032B632B6B03F001030893089B099463
:104360002B6B43F002032B632B6B03F002030993C7
:10437000099B0A942B6B43F008032B632B6B03F010
:1043800008030A93012206210A9B01F009FF5848FD
:104390002246082101F004FF5648012240F2012183
:1043A00001F0FEFE53482246202101F0F9FE52485A
:1043B00022464FF2FB6101F0F3FE4F48012240F626
:1043C000040101F0EDFE01224C484FF4807101F030
:1043D000E7FE012646484FF0040A0BA9CDE90BA6DB
:1043E000CDE90D660A2701F0FDFD41480BA9CDE995
:1043F0000B76CDE90D4401F0F5FD21233D480BA9D5
:10440000CDE90B36CDE90D4401F0ECFD4FF4887396
:1044100038480D940BA9CDE90B3401F0E3FD48F2C7
:10442000040337480D940BA9CDE90B344FF4807B7E
:1044300001F0D8FD30480D940BA94FF00309CDE9E8
:104440000BB401F0CFFD4FF6BB632B48CDF838908D
:104450000BA9CDE90B360D944FF4007801F0C2FDA5
:1044600024480BA9CDE90D49CDE90B8601F0BAFD31
:1044700022480BA9CDE90D49CDE90BB601F0B2FDFB
:104480001D480BA9CDE90BA6CDE90D6601F0AAFDEB
:10449000402319480BA9CDE90B36CDE90D4401F0B5
:1044A000A1FD04942B6B43F480032B632B6B03F46B
:1044B00080032246214604934520049B01F050FBD3
:1044C000452001F07FFB0F480F4B04614FF4E139A9
:1044D0000C25C0E90039C0E90244C0E90554C461B3
:1044E00003F0A2FC034688B1FFF79CFE00380240AF
:1044F0000010024000080240000C02400000024090
:10450000000402407C37001000140140C548C64A30
:10451000C0F818804FF482744FF0100AC0E90233DB
:10452000C0E90433C0E907A3C0E90933C0E90024A6
:10453000C76203F091F803460028D5D1BB48BC4AB6
:10454000C0E90233C0E90433C0E90833C0E90A37DF
:10455000C0E90024C0E9068A03F07EF8034600287B
:10456000C2D1B448B44AC0F81880C0E90024082277
:10457000C0E90233C0E90436C0E90723C0E90933C2
:10458000C76203F069F80028AED105F055FFAB48CB
:10459000AB4B036002F03EFE07460028A4D1014663
:1045A00014220BA809F0A8FBA64CA74B03977F2069
:1045B000C4E90037FF23C4E902032046C4E90477B5
:1045C000A76102F071FE00288ED1CDE90E00ADF892
:1045D0002C008DF82E0032460BA9204602F0BDFEBD
:1045E000002881D1994B0393324603A9204602F05B
:1045F00025FF034600287FF477AF95489549964AF2
:104600000362C0E900124FF48042C0E90233C0E9FE
:104610000423C0E9063301F0ABFF034600287FF412
:1046200063AF8E488E4AC0E90233C0E90029C0E971
:104630000435C0E9063303F0F7FB00287FF454AFDC
:10464000884C894E0523C4E9006320464FF4FA6381
:10465000A36002F084FA054600287FF445AF0122EA
:104660004FF48041814801F09BFD642001F052FA33
:104670002A464FF480417D4801F092FD642001F00C
:1046800049FA01224FF48041784801F089FD642005
:1046900001F040FA2A464FF48041744801F080FD51
:1046A000642001F037FA01224FF480416F4801F095
:1046B00077FD642001F02EFA2A464FF480416B48C2
:1046C00001F06EFD642001F025FA04220121684802
:1046D00008F060FB67484FF4807101F05BFD664BAA
:1046E000002840F085801870644808F073FF0623A6
:1046F0006360266041F664132046A36002F02FFA3F
:1047000000287FF4F1AEFEF7B9F9FFF777FDFEF769
:10471000E7F9FEF7F5F90020FEF762F900F04EF92F
:104720000420FEF75BFA564B56495748012205F024
:10473000D3F9FEF711F905F019FA544B1B78002B49
:104740003ED0002302241A46194618460094FCF76E
:1047500099FF0020FCF7C6FF01F0D6F94C494FF451
:104760007A72B0FBF2F20020FDF7B6F94949002059
:10477000FDF7B2F90120FCF7B5FF47490020FDF72E
:10478000ABF92046FCF7AEFF44490020FDF7A4F941
:104790000320FCF7A7FF40490020FDF79DF9042006
:1047A000FCF7A0FF3C490020FDF796F90620FCF736
:1047B00099FF3B490020FDF78FF90020FCF792FF9D
:1047C000384D394E2B78F3B1002005F0CDFC2B7815
:1047D000012B71D1354C2378012B02D10420FFF736
:1047E0000BFA2378002BEDD10420FEF73FFAE9E71E
:1047F00001222F481A7008F0EDFE06236360266040
:1048000041F6583378E7346801F07EF904F59224D4
:1048100004F578748442D7D2264808F0DBFEFEF710
:1048200099FAD4E704380010003C0040B438001076
:10483000003001405C380010003800402C39001076
:10484000000806500C39001000280040010509231B
:104850004839001000540040801A0600C03700108C
:10486000004400403C39001000300040000C024081
:1048700022F1000800080240C139001040F1000890
:10488000010000200008001000000010AE390010E8
:104890005FF1000873F100087BF1000883F1000864
:1048A0008BF100080B000020A0390010C039001067
:1048B0004EF1000893F10008034B1B78002B81D0C8
:1048C000024802F073F97DE7050000203C39001032
:1048D0000FB400B5ADF5037D84AB4FF4007153F810
:1048E000042B019302A808F0D5FB02A8FCF760FD99
:1048F00002A982B2044803F01BFB0DF5037D5DF8AD
:1049000004EB04B0704700BF7C3700100FB400B553
:10491000ADF5037D84AB4FF4007153F8042B019384
:1049200002A808F0B7FB02A8FCF742FD4FF0FF33E6
:1049300082B202A9044803F0A5FA0DF5037D5DF8E3
:1049400004EB04B0704700BF7C3700102DE9F04144
:104950000D4FDFF838800E4615460024AC4202DBCE
:104960002846BDE8F0814FF6FF7301223119384621
:1049700003F088FA98F800301BB1315D0020FCF795
:104980004DFE0134EAE700BF7C370010AE3900105D
:1049900010B508493022044608F088FF40B10649A6
:1049A0003022204608F082FF00280CBF01200220A0
:1049B00010BD00BFBF0000208F00002070B5002098
:1049C00003F0FEFC0446152003F0FAFC05462E20F9
:1049D00003F0F6FC2A46034621460248BDE8704033
:1049E00008F0D8B9AFF1000810B504468AB001202C
:1049F000FCF778FE94F82C30099394F8283008934B
:104A000094F82430079394F820300693237F05937D
:104A1000237E0493237D0393237C0293237B0193C2
:104A2000237A00932379227804490020FDF754F873
:104A300000200AB0BDE81040FCF754BE0EF200089A
:104A400010B504468AB00320FCF74CFE94F82E30D3
:104A5000099394F82A30089394F82630079394F831
:104A600022300693A37F0593A37E0493A37D039333
:104A7000A37C0293A37B0193A37A0093A379A278EA
:104A800004490020FDF728F800200AB0BDE81040D6
:104A9000FCF728BE0EF2000810B504468AB00220CA
:104AA000FCF720FEE37A0993A37A0893637A0793CD
:104AB000237A0693E3790593A379049363790393A7
:104AC00023790293E3780193A378009363782278A3
:104AD00004490020FDF700F800200AB0BDE81040AE
:104AE000FCF700BE0EF2000810B504468AB00420A0
:104AF000FCF7F8FD94F82F30099394F82B300893C5
:104B000094F82730079394F823300693E37F0593B6
:104B1000E37E0493E37D0393E37C0293E37B0193C1
:104B2000E37A0093E379E27804490020FCF7D4FFAC
:104B300000200AB0BDE81040FCF7D4BD0EF200081A
:104B400070B50E46441C002521467019012201351E
:104B500008F0BEFE0C2D04F10404F5D170BD08B5BB
:104B60000C2208F0A3FE003818BF012008BD000089
:104B700007B50E4B1B789BB90D4808F02BFD882319
:104B800001224FF4407101A88DF8043000F00CFBB5
:104B9000084808F01FFDFEF7DDF803B05DF804FBE0
:104BA000054803B05DF804EB08F014BDC1390010EE
:104BB0004DF20008C0EF000882F2000807B501229C
:104BC0004FF4407101A800F005FA9DF80400883800
:104BD00018BF012003B05DF804FB000038B50D4C90
:104BE0002368013383420D46236005D10A48002221
:104BF0004FF4805101F0D4FA23689D4209D100237B
:104C000023600548BDE8384001224FF4805101F08F
:104C1000C7BA38BDBC390010000C024038B5124C80
:104C20002368013383420D4623600BD10F480022D5
:104C30004FF4804101F0B4FA0C4800224FF40041D7
:104C400001F0AEFA23689D420CD10023074823608F
:104C500001224FF4004101F0A3FABDE838400448B6
:104C600001F0A4BF38BD00BFB8390010000C0240ED
:104C70003C39001010B58CB0134604460A4668460D
:104C8000044908F0DDFE6946204608F07BF80CB0C8
:104C900010BD00BFAEF2000810B58EB001F6E442C0
:104CA0000446084902A808F0CBFE074B019301A96E
:104CB000204608F099FF02A9033008F063F80EB00F
:104CC00010BD00BFBCF200085F5F5F0001460148F5
:104CD000FFF7FEBDC2F200082DE9FF474848DFF8A4
:104CE00034A1DFF8349108F075FC40F6B833ADF824
:104CF0000E3000F009FF00F5EA370026C03700F05B
:104D000003FF8742804605D23E4808F063FCFEF769
:104D100021F8F4E74FF40041504601F03BFA012836
:104D20000546ECD10DF10E033749009330224B4676
:104D3000042003F0C5FF3448FFF72AFE044600288C
:104D40003AD12A464FF48041304801F029FA6420D4
:104D500000F0E0FE22464FF480412C4801F020FA9A
:104D6000642000F0D7FE2A464FF48041274801F026
:104D700017FA642000F0CEFE22464FF4804123480B
:104D800001F00EFA642000F0C5FE2A464FF480417F
:104D90001E4801F005FA642000F0BCFE22464FF4E4
:104DA00080411A4801F0FCF9642000F0B3FE184875
:104DB00008F010FCFDF7CEFF13484146FFF76CFFEB
:104DC000BDF80E30009310494B46302204200136C6
:104DD00003F0CEFE012E06D04FF4FA72B6FBF2F3CA
:104DE00002FB136313B90848FFF770FF2821142052
:104DF000FFF7F4FE28211420FFF710FF7FE700BF24
:104E0000CAF20008E7F2000838110010000C024056
:104E100072EF000800040240EA36001030B591B08D
:104E20000A4604461C4904A808F00AFE1B4B0193DD
:104E300001A9204608F0D8FE04A9033007F0A2FF1C
:104E4000174B029302A9204608F0CEFE154B0393A0
:104E5000C51C03A9204608F0C7FE134B441BE4B24F
:104E600022462946184608F033FD0022025508F074
:104E70005BFE0E4B1B684FF4FA72B3FBF2F102FBC0
:104E80001133044633B900F03FFE2146024608487C
:104E9000FFF71EFD11B030BD15F300083A3A3A0095
:104EA0002A2A2A005F5F5F00C2390010D83900103B
:104EB00018F30008F0B52E482E4F2F4D85B008F09E
:104EC00089FB40F6B833ADF80E3000F01DFE064603
:104ED00000F01AFE06F5EA33C0338342044605D2D9
:104EE000264808F077FBFDF735FFF1E74FF4004166
:104EF000384601F04FF90128EAD129684CF25033C5
:104F00000131994229600DD11D4807F043FF40F659
:104F1000B8331C49009330221B4B042003F028FEB9
:104F2000FDF718FF296819482246FFF7A3FEBDF8D0
:104F30000E3000931549144B3022042003F018FE64
:104F40000DF10E0330221249009304200E4B03F0A2
:104F5000B7FE00F0D9FD01460D48FFF75FFF28219D
:104F60001420FFF73BFE28211420FFF757FEAFE780
:104F700037F3000800040240D8390010E7F20008B7
:104F800052F30008BF000020EA360010D8100010CD
:104F900008110010014B1860704700BFDC39001089
:104FA00070B50B4E04460D46306890F8513053B141
:104FB00042F210732A46214602F0AAFB38B1BDE83E
:104FC0007040FFF72FB9012000F0A4FDECE770BDA1
:104FD000DC390010F7B51A4F05460C4616463B68FB
:104FE00093F85130012B23D1032316488DF8043058
:104FF0000421230C002264BA8DF80530ADF8064078
:1050000001F0CEF804210DEB0100FFF7C9FF38686D
:105010004FF47A733246294602F017FD02280BD06E
:1050200008480122042101F0BBF8012003B0F0BDC3
:10503000012000F06FFDD2E7012000F06BFDE6E7F4
:10504000DC3900100010024013B50A4C0022204643
:10505000042101F0A5F8062301A801218DF80430F0
:10506000FFF79EFF01220421204601F099F802B0CB
:1050700010BD00BF0010024037B50A4C04250022C5
:105080002046042101F08CF80DEB050001218DF87C
:105090000450FFF785FF01222946204601F080F8E1
:1050A00003B030BD0010024037B50523002214487C
:1050B0008DF8002004218DF8043001F071F80121F1
:1050C00001A8FFF76DFF0F4D2868C823012269462C
:1050D00002F0BBFC02284FF001000ED000F01AFDD8
:1050E0009DF8000010F00104EED1054801220421D2
:1050F00001F056F8204603B030BD00F00BFDE3E7A9
:1051000000100240DC3900102DE9F743DFF89490DD
:1051100007460C469046D9F8003093F85130012BE1
:10512000DEB239D1FFF790FF02238DF80430230C53
:1051300064BA8DF80530ADF80640FFF785FF1848D2
:105140000022042101F02CF804210DEB0100FFF7EF
:1051500027FF0524D9F800004FF47A7342463946F8
:1051600002F0D6FA0228054606D10520013C00F0DF
:10517000D1FC14F0FF04EDD101220421084801F014
:105180000FF8FFF791FFFFF777FF012D08BF022609
:10519000304603B0BDE8F083012000F0BBFCBAE765
:1051A00000100240DC3900102DE9F04711F0FF0A31
:1051B00005460F4614465FFA82F81AD1FF2A2ED907
:1051C000140A4FF4807239462846FFF79DFF0128E4
:1051D000064641D1013CA4B207F5807705F58075FC
:1051E000002CEED1B8F1000F36D0424639462846A1
:1051F00015E0CAF58079FF2A1FFA89F913D8C1454D
:105200000DD24A46FFF780FF0128064624D1A8F5B3
:105210008072524492B209EB070105EB0900BDE828
:10522000F047FFF771BF4A46FFF76EFF01280646B9
:1052300012D1A4F580741AFA84F44D441FFA84F84C
:105240004F4404F47F442C447F1BA54205EB070127
:1052500005D118F0FF02CAD13046BDE8F0874FF4FF
:1052600080722846FFF750FF012802D105F58075AE
:10527000EBE70646F0E7000082B00C4B00210091FE
:105280005A6C42F480425A645A6C02F48042009292
:10529000009A01911A6C42F080521A641B6C03F060
:1052A00080530193019B02B0704700BF0038024059
:1052B00030B5044689B01422002103A808F01CFD73
:1052C0002268134B9A4221D1124C134800250195B4
:1052D000236B43F002032363236B03F00203019368
:1052E000019BC0221223CDE9032303210423CDE92E
:1052F000061303A900F076FE0295236C43F4001315
:105300002364236C03F400130293029B09B030BDA5
:105310000054004000380240000402400268094B7B
:105320009A4282B00BD100230193074B5A6B42F093
:1053300040025A635B6B03F040030193019B02B090
:10534000704700BF00080650003802401FB50446F1
:1053500010220021684608F0CFFC2268094B9A42CF
:105360000ED10223009368464FF40073039301F0BB
:10537000B9FE08B1FEF756FF034B0122C3F83C2EDD
:1053800004B010BD0028004000004742F0B50446BC
:105390008DB01422002107A808F0AEFC2368534A00
:1053A000934223D1524B5348002100915A6C42F44E
:1053B00080525A645A6C02F480520092009A019111
:1053C0001A6B42F001021A631B6B03F00103019395
:1053D000019BE02202230321CDE907230523CDE928
:1053E0000A1307A900F0FEFD0DB0F0BD424A93423A
:1053F00040D13F4B414800220292196C41F4804158
:105400001964196C01F48041029102990392196B9D
:1054100041F004011963196B01F004010391039930
:1054200004921A6B42F002021A631B6B03F0020330
:105430000493022603250524049B07A90423CDE930
:1054400007360127CDE90A5400F0CCFD08232B488C
:105450000B9407A9CDE90736CDE9097500F0C2FD27
:105460004FF48063CDE90736CDE9097524480B94E4
:1054700007A9B7E7234A9342B6D11D4B1F48002422
:1054800005941A6C42F400421A641A6C02F4004249
:105490000592059A06941A6B42F004021A631B6B7C
:1054A00003F004030693069B02274FF48063032650
:1054B000062507A9CDE90737CDE90A6500F092FD79
:1054C0004FF4C053CDE9073707A901230B480B95CB
:1054D000CDE9093600F086FD22462146332000F052
:1054E0003FFB332000F06EFB7EE700BF0030014041
:1054F000003802400000024000380040000802402E
:1055000000040240003C004070B514228AB00646F8
:1055100000210DEB020008F0EFFB33683A4A93429A
:105520002BD13A4B3A48002401941A6C42F40032D1
:105530001A641A6C02F400320192019A02941A6BF6
:1055400042F001021A631B6B03F001030293029BFA
:105550000C250223CDE9055305A907230326CDE930
:10556000086300F03FFD26202246214600F0F8FAAD
:10557000262000F027FB0AB070BD264A9342FAD1DC
:10558000224B2548254C002503955A6C42F02002F9
:105590005A645A6C02F020020392039A04951A6B23
:1055A00042F004021A631B6B03F004030493049B90
:1055B000C0220223CDE9052303210823CDE90813E6
:1055C00005A900F00FFD16484FF02063C4E9000361
:1055D0004023C4E902354FF48063C4E90435204612
:1055E0004FF40033C4E90655C4E9083500F034FB34
:1055F00008B1FEF717FE0022746347201146A66328
:1056000000F0AEFA4720B4E7004400400038024002
:105610000000024000140140000802401C37001046
:10562000A0640240FEE7FEE7FEE7FEE7FEE7704704
:1056300070477047054A13880BB1013B1380044A39
:1056400013880BB1013B138000F052BA48160010CA
:1056500046160010014802F06DBD00BFC0370010B3
:10566000014802F091BA00BF04380010014800F070
:10567000FBBB00BF1C370010014802F05BBD00BF40
:105680007C3700100120704708B508F0F7FA1623A0
:1056900003604FF0FF3008BD08B508F0EFFA16239D
:1056A0000360FEE770B50D4614460E46731B9C4220
:1056B00001DC204670BDAFF3008006F8010BF5E772
:1056C0004FF0FF3070474FF400534B60002070479D
:1056D00001207047002070470B4A116810B503463F
:1056E00009B90A491160106809490A4C0344091BA9
:1056F0008B4206D908F0C2FA0C2303604FF0FF304A
:1057000010BD1360FCE700BFE0390010A846001090
:105710000000022000400000034AD2F8883043F421
:105720007003C2F88830704700ED00E030B59BB0E0
:10573000054614A80C4603F007FE9DF86530139348
:105740009DF8643012939DF8633011939DF8623098
:1057500010939DF85D300F939DF85C300E939DF88B
:105760005B300D939DF85A300C939DF861300B938C
:105770009DF860300A939DF85F3009939DF85E3084
:1057800008939DF8593007939DF8583006939DF87B
:10579000573005939DF8563004939DF85530039388
:1057A0009DF8543002939DF8533001939DF8523088
:1057B00000939DF850209DF851300349284608F089
:1057C0003FF920801BB030BD6EF3000870B50C4669
:1057D000094906461546FBF78BFD40B1074930469F
:1057E000FBF786FD28B929462046FFF79FFF0120D9
:1057F00070BD0020FCE700BF2DF4000836F400085F
:1058000038B51649054604F08DF8044600B30A2160
:1058100004F060F8C4B20F2C1CD82846104904F0DC
:1058200081F8054630B10A2104F054F8C5B2012DC3
:1058300028BF012521460B4807F0ACFA0A4B0B485C
:1058400033F81410012D0CBF2A46002200F0A8FCEA
:1058500060B238BD4FF0FF30FBE700BF46F40008F0
:105860004AF400084EF40008F4000020000C024046
:10587000F8B50E460C49074615461C46FBF738FDA1
:1058800068B10A493846FBF733FD50B93046FFF797
:10589000B7FF0749C2B2284608F0D2F8208001209D
:1058A000F8BD0020FCE700BF2DF4000872F40008EA
:1058B00015F300080A464FF47A730146014802F0D6
:1058C000C4B800BFB438001007B5FF238DF8073007
:1058D00001224FF47A730DF10701044802F0B5F884
:1058E0009DF8070003B05DF804FB00BFB43800105A
:1058F0000A464FF47A730146014801F009BF00BF20
:10590000B438001007B54FF47A738DF80700012200
:105910000DF10701024801F0FBFE03B05DF804FB46
:10592000B4380010024801224FF4006100F038BC86
:10593000000C0240024800224FF4006100F030BC2D
:10594000000C024070B586B0FFF7ECFF20492148FB
:1059500003F0B8FA2049214803F0C2FA204921484F
:1059600003F0D0FA204B02AA03F11006154618687E
:105970005968144603C40833B3422246F7D1294676
:10598000092003F041FC2946002003F03DFC294694
:10599000012003F039FC013006D114480A2201210C
:1059A00007F0F8F906B070BD0DF107010F2003F004
:1059B0002BFC013003D10E480A220121F0E79DF8AB
:1059C0000730002BF0D00B4807F004FEEAE700BFD9
:1059D000255900083559000805590008C95800081C
:1059E000F1580008B558000887E7000883F400085C
:1059F0009FF40008BAF4000870477047DFF84CD0F5
:105A000013481449144A002302E0D458C450043304
:105A1000C4188C42F9D311481149124A002302E0FC
:105A2000D458C4500433C4188C42F9D30E4A0F4CD6
:105A3000002301E013600432A242FBD3FFF76CFEA7
:105A400007F07CF9FEF754FC7047000000000220CC
:105A500000000020BC010020D062010800000010FE
:105A6000681100108801000868110010A846001095
:105A7000FEE7000038B50E4B1A784FF47A73B3FB8B
:105A8000F2F30C4A05461068B0FBF3F000F0BAF8E8
:105A9000044658B90F2D09D8024629464FF0FF3069
:105AA00000F05EF8044B20461D6038BD0120FCE785
:105AB00013010020F00000201401002008B50B4B5A
:105AC0001A6842F400721A601A6842F480621A601E
:105AD0001A6842F480721A60032000F02FF80F2039
:105AE000FFF7C8FFFFF7C8FB002008BD003C0240DD
:105AF000034A044B11681B780B441360704700BFC6
:105B0000E439001013010020014B1868704700BFF2
:105B1000E439001038B50446FFF7F6FF631C1CBFDC
:105B2000054B1B78054618BFE418FFF7EDFF431B34
:105B3000A342FAD338BD00BF130100200749CA6849
:105B400022F4E0620302120403F4E063120C134334
:105B500043F0BF6343F40033CB60704700ED00E0D7
:105B6000164B30B5DC68C4F30224C4F10703251DCD
:105B7000042B28BF0423062D4FF0FF358CBF033CB8
:105B8000002405FA03F321EA0303A54022EA0502F3
:105B9000A340002843EA0203ACBF00F16040084A7A
:105BA0004FEA0313B8BF00F00F00DBB2AABF00F545
:105BB0006140135480F8003330BD00BF00ED00E0B9
:105BC00014ED00E0002807DB4109044A00F01F0043
:105BD0000123834042F82130704700BF00E100E01C
:105BE000BFF34F8F0549064BCA6802F4E0621343C6
:105BF000CB60BFF34F8F00BFFDE700BF00ED00E0BB
:105C00000400FA050138B0F1807F0BD24FF0E02399
:105C1000054A5861F02182F823100020072298617C
:105C20001A6170470120704700ED00E0036810B56D
:105C3000084C0246D9B210391820B1FBF0F0205CB4
:105C4000D06523F47F7020F003005F2988BF043003
:105C5000906510BD155D010870B50446FFF754FF4F
:105C60000546002C60D0022384F8353022680023DA
:105C700084F83430136823F001031360226813683A
:105C8000D8072ED413683248A1691840D4E90135E9
:105C90002B43E5682B4325692B4365692B43E56955
:105CA0000B432B43256A2B430343606A042802BF3E
:105CB000D4E90B5635432B4313605369042823F072
:105CC000070343EA000335D1A06AE56A03438DB3B5
:105CD00091B9012820D030F002012BD1E90129D55A
:105CE0001DE0FFF711FF401B0528C7D92023032023
:105CF000636584F8350070BDB1F5005F16D10328E7
:105D000018D801A151F820F01F5D0008DD5C0008E3
:105D10001F5D0008195D0008B5F1C07F0AD140235E
:105D20006365012384F835300120E4E70228F6D9C1
:105D30000328D3D053612046FFF778FFE26D3F235D
:105D40009340836000200123606584F83530D2E7FA
:105D50003F8010F070B590F83440866D012C30D043
:105D6000012480F8344090F83540012C4FF00004B5
:105D700025D1022580F8355044650468256825F44E
:105D80008025256063608368402B0EBFA260A16000
:105D9000E260C26D08BFE1603F239340B3602368B7
:105DA00043F016032360036C1BB1236843F0080320
:105DB0002360236843F001032360002070BD80F856
:105DC00034400220FAE770B50446866DFFF79CFE6A
:105DD00094F83530022B054606D0802363650120F8
:105DE000002384F8343070BD23681A6822F016024C
:105DF0001A605A6922F080025A61226C0AB9A26CB8
:105E00001AB11A6822F008021A601A6822F0010218
:105E10001A602368186810F0010007D1E26D3F2373
:105E20009340B360012384F83530D9E7FFF76CFE67
:105E3000401B0528EDD920230320636584F8350035
:105E4000CEE790F83530022B03D080234365012044
:105E500070470268052380F83530136823F001038A
:105E60001360002070470000F7B5002301935C4BDE
:105E7000856D1F68C36D2E6808229A403242044621
:105E80000CD001680868400708D5086820F00400B5
:105E90000860AA60626D42F00102626501229A40C8
:105EA000324208D021684969090641BFAA60626D83
:105EB00042F00202626504229A40324208D0216810
:105EC0000968880741BFAA60626D42F004026265FA
:105ED00010229A40324210D02368196809070CD565
:105EE000AA601A68500337D51B68190301D4236CC4
:105EF00000E0A36C0BB120469847E16D20228A4058
:105F000032423AD023681868C60636D5AA6094F89B
:105F10003520052A1A6827D122F016021A605A691C
:105F200022F080025A61226C0AB9A26C1AB11A6876
:105F300022F008021A603F238B40AB60012384F8F3
:105F40003530002384F83430236D002B45D02046B3
:105F500003B0BDE8F04018471A68D2055EBF1A6862
:105F600022F008021A60C2E7500327D51B68190304
:105F700031D4636C0BB120469847636D6BB3636D8E
:105F8000DA0719D522684FF41653B7FBF3F7052348
:105F900084F83530136823F001031360019B01334B
:105FA000BB42019302D81368DB07F7D4012384F8BE
:105FB0003530002384F83430E36CC6E71A6812F4F5
:105FC000807208D1196821F010011960012384F84A
:105FD000353084F83420E36BCCE703B0F0BD00BF6C
:105FE000F00000202DE9F74FDFF8A491664A002366
:105FF0000D6801249C4004EA0506AC4340F0AF80E4
:106000004D68032705F003044FEA430807FA08FC2C
:10601000671E012F6FEA0C0C34D8876807EA0C0E54
:10602000CF6807FA08F747EA0E078760476827EA4C
:10603000060EC5F300179F4047EA0E074760C76882
:1060400007EA0C0E8F6807FA08F747EA0E07022CDA
:10605000C76019D14FEAD30A00EB8A0A03F0070B95
:10606000DAF820704FEA8B0B4FF00F0E0EFA0BFE92
:1060700027EA0E0E0F6907FA0BF747EA0E07CAF870
:10608000207001E0032CDAD1076804FA08F407EA6B
:106090000C073C4315F4403F046060D00024019499
:1060A000D9F8444044F48044C9F84440D9F8444005
:1060B00023F0030707F1804704F4804407F59C3779
:1060C000019403F0030C019CD7F808E04FEA8C0C14
:1060D0000F2404FA0CF42EEA040E2C4CA04245D0F6
:1060E00004F58064A04243D004F58064A04241D00E
:1060F00004F58064A0423FD004F58064A0423DD006
:1061000004F58064A0423BD004F58064A04239D0FD
:1061100004F58064A04214BF0824072404FA0CF498
:1061200044EA0E04BC601468F74315F4803F0CBFCA
:106130003C4034431460546815F4003F0CBF3C40AD
:1061400034435460946815F4801F0CBF3C403443C2
:106150009460D468AD0254BF3C403443D4600133F2
:10616000102B7FF445AF03B0BDE8F08F0024D5E7D6
:106170000124D3E70224D1E70324CFE70424CDE7A9
:106180000524CBE70624C9E7003C0140000002409B
:10619000003802400369194214BF012000207047F3
:1061A0000AB1816170470904FBE701684B6913F488
:1061B00080634FF0000210D06FF480634B612023A6
:1061C000026380F83D3080F83E20036C80F83C206C
:1061D00043F00403036401207047184670472DE91B
:1061E000F84606460F4691461D464FEA114A336867
:1061F000BAF1010F0CBF5C699C6927EA0404A4B2E0
:10620000B4FA84F46409A14501D0002017E06A1CA7
:10621000EED0FFF779FC089BC01AA84201D8002DE8
:10622000E5D100232022336386F83D2086F83E30F6
:10623000326C86F83C3042F0200232640120BDE826
:10624000F8862DE9F04104460F4616469846256823
:10625000686927EA000080B2C0B16B695A0517D59A
:106260002B6843F400732B606FF480636B61202212
:106270000023236384F83D2084F83E30236C43F0F0
:1062800004032364002384F83C300120BDE8F0813E
:10629000731CDDD0FFF738FCA0EB0800B04209D931
:1062A00000232022236384F83D2084F83E30236CB1
:1062B0001343E6E7002ECAD1F2E770B504460D4657
:1062C000164623685B691B0601D5002018E02046AE
:1062D000FFF76BFF98B96A1CF3D0FFF715FC801B22
:1062E000A8420ED900232022236384F83D2084F89D
:1062F0003E30226C84F83C3042F0200222640120BF
:1063000070BD002DDDD1EDE72DE9F04315460268A3
:1063100085B0DDE90C789946136843F48073136007
:106320000E463B46CDF8008000224FF00111044696
:10633000FFF755FF236838B11B68DB0502D54FF422
:1063400000732364032620E006F0FE061E611A494E
:1063500043463A462046FFF774FFA8B923680390E6
:106360005A6903929B690393424639462046039B30
:10637000FFF7A3FF064660B1236C042B01BF226820
:10638000136843F4007313600126304605B0BDE87E
:10639000F083B9F1010F236802D1EDB21D61F4E77A
:1063A0002A0A1A61394642462046FFF786FF00282E
:1063B000E2D12368F1E700BF020001002DE9FF47A9
:1063C0009A46036815461A6842F480621A601A6891
:1063D000DDE90C7842F480721A600E463B46CDF837
:1063E000008000224FF001110446FFF7F8FE2368F9
:1063F00038B11B68DB0544BF4FF4007323640320EE
:1064000021E05FFA86F906F0FE061E612B4943463D
:106410003A462046FFF715FFA0B9236803905A6952
:1064200003929B690393424639462046039BFFF73C
:1064300044FF58B1236C042B01BF2268136843F456
:1064400000731360012004B0BDE8F087BAF1010FBA
:1064500023681AD1EDB242461D6139462046FFF746
:106460002CFF02460028E5D121680B6843F48073B5
:106470000B602046CDF800803B464FF00111FFF73E
:10648000AEFE226860B11368B4E72A0A1A61394681
:1064900042462046FFF711FF0028CBD12368D9E7F9
:1064A00049F001031361054943463A462046FFF788
:1064B000C8FE003818BF0120C5E700BF0200010078
:1064C00070B504460D46164623685B695B0701D527
:1064D000002018E02046FFF768FE98B96A1CF3D048
:1064E000FFF712FB801BA8420ED900232022236352
:1064F00084F83D2084F83E30226C84F83C3042F031
:1065000020022264012070BD002DDDD1EDE770B5C1
:1065100004460D46164621684B6913F0400301D02E
:10652000002011E04A69D2060FD56FF010024A61CF
:106530002022236384F83D2084F83E30236C2364BA
:10654000002384F83C30012070BDFFF7DDFA801B8A
:10655000A84209D900232022236384F83D2084F82F
:106560003E30236C1343EAE7002DD4D1F2E700005C
:1065700070B5044608B9012070BD90F83D3003F0B5
:10658000FF021BB980F83C20FEF792FE242384F81A
:106590003D3023681A6822F001021A601A6842F43A
:1065A00000421A601A6822F400421A6000F07AFD74
:1065B0003F4B65689D4294BF3E4B3F4B98428CBF1A
:1065C00000230123002BD6D12268394E51683B4B62
:1065D000B0FBF3F321F03F011943B542516088BF8E
:1065E0004FF49676116A88BF734321F03F0184BF50
:1065F0004FF47A76B3FBF6F301330B431362D169A0
:10660000431E2B4821F44F41854221F0FF0132D82F
:106610006D0040F6FC70B3FBF5F30133034242D04A
:10662000C3F30B031943D161D4E907301168034365
:1066300021F0C0010B4313609168D4E9030321F4F6
:106640000341034321F0FF010B439360D4E905307C
:10665000D168034321F0FF010B43D360136843F07B
:106660000103136000202023206484F83D30206360
:1066700084F83E0080E7A06850B905EB4505B3FB00
:10668000F5F30133C3F30B037BB143F40043C9E7D4
:1066900019206843B3FBF0F30133C3F30B0323B1B9
:1066A00043F44043BEE70423BCE70123BAE700BF3D
:1066B000A08601007F841E00FF083D0040420F00BD
:1066C0002DE9F743044699460C9E0F469046FFF786
:1066D0001BFA94F83D30202B054603D0022003B06E
:1066E000BDE8F08300903C49192301222046FFF7C2
:1066F00076FD0028F2D194F83C30012BEED02068D2
:10670000012384F83C300368D9075EBF036843F077
:1067100001030360036823F400630360212384F80A
:106720003D30402384F83E30002323640A9B63629B
:10673000BDF82C306385638D2385284BE362424688
:10674000CDE900654B4639462046FFF7DDFD0028C0
:106750002AD00120C3E7FFF7B0FD40B1236C042B22
:1067600001BF2268136843F400731360F1E7636AA2
:1067700027681A4612F8011B39616262628D218D09
:10678000013A92B262857A69481E80B2520720852A
:106790000AD548B15A783A6102336362638D013B8E
:1067A00002399BB221856385238D2A4631462046D6
:1067B000002BD0D1FFF784FE0028CFD122681368C8
:1067C00043F400731360202384F83D3084F83C00C8
:1067D00084F83E0083E700BF020010000000FFFFC6
:1067E0002DE9F043044687B09946109F0D46904628
:1067F000FFF78AF994F83D30202B064604D0022595
:10680000284607B0BDE8F08300907649192301229D
:106810002046FFF7E4FC0028F1D194F83C30012B2E
:10682000EDD02068012384F83C300368DB075EBFAD
:10683000036843F001030360036823F4006303600B
:10684000222384F83D30402384F83E300023236423
:106850000E9B6362BDF83C306385638D2385624B7C
:10686000E3622946CDE900764B4642462046FFF7D3
:10687000A5FD054608B10125C2E7228D2368B2B9FE
:1068800002905A6902929A690292029A1A6842F434
:1068900000721A60DFF85481238D002B2CD1202246
:1068A00084F83D2084F83C3084F83E30A8E7012A83
:1068B0000AD11A6822F480621A6003905A6903921E
:1068C0009A690392039AE1E7022A0ED11A6822F428
:1068D00080621A601A6842F400621A6004905A6971
:1068E00004929B690493049BD4E705905A6905922E
:1068F0009B690593059BCDE7032B56D8012B15D13A
:10690000324639462046FFF702FE0028B3D12368FD
:106910001A69636A1A70636A01336362238D013BEB
:106920002385638D013B9BB26385B5E7022B0096FF
:106930003B464FF000024146204619D1FFF74FFC7D
:10694000002898D123681A6842F400721A601A6904
:10695000636A1A70626A531C6362238D013B23854C
:10696000638D013B9BB2638523681B695370D2E73B
:10697000FFF735FC024600287FF47DAF23681968D5
:1069800021F4806119601969636A1970636A0133BF
:106990006362238D013B2385638D013B9BB263853D
:1069A000414600963B462046C8E7324639462046D7
:1069B000FFF7ADFD00287FF45EAF23681A69636AB4
:1069C0001A70626A531C6362238D013B2385638DB9
:1069D000013B9BB263852368596949077FF55CAF2A
:1069E000C3E700BF020010000000FFFF0400010029
:1069F0002DE9F04F044685B01E460F469146FFF73D
:106A000083F894F83D30202B054603D0022005B0D2
:106A1000BDE8F08F00904F49192301222046FFF76F
:106A2000DEFB0028F2D194F83C30012BEED001239C
:106A300084F83C302368DFF81CB11A68D0075EBFC9
:106A40001A6842F001021A601A6822F400621A60A1
:106A5000242384F83D3000232364A3F58033E362CC
:106A60004FF0010A07F0FE072268136843F48073B1
:106A700013604FF001113346009500222046FFF7C6
:106A8000AEFB236838B11B68D90544BF4FF40073CF
:106A900023640320BBE71F61FFF736F823685A69B8
