:020000040800F2
:1000000000000220753E0008AD3A0008AF3A000833
:10001000B13A0008B33A0008B53A00080000000001
:10002000000000000000000000000000B73A0008D7
:10003000B93A000800000000BB3A0008BD3A0008C9
:10004000C53E0008C53E0008C53E0008C53E000884
:10005000C53E0008C53E0008C53E0008C53E000874
:10006000C53E0008C53E0008C53E0008C53E000864
:10007000C53E0008C53E0008C53E0008C53E000854
:10008000C53E0008C53E0008C53E0008C53E000844
:10009000C53E0008C53E0008C53E0008C53E000834
:1000A000C53E0008C53E0008C53E0008C53E000824
:1000B000C53E0008C53E0008C53E0008C53E000814
:1000C000C53E0008C53E0008C53E0008C53E000804
:1000D000C53E0008C53E0008DD3A0008C53E0008E0
:1000E000C53E0008C53E0008C53E0008C53E0008E4
:1000F000C53E0008C53E0008C53E0008C53E0008D4
:10010000C53E0008C53E0008C53E0008E93A0008A3
:10011000C53E0008C53E0008C53E0008C53E0008B3
:10012000C53E0008C53E0008C53E0008C53E0008A3
:10013000C53E0008C53E0008C53E0008C53E000893
:10014000C53E0008C53E0008C53E0008C53E000883
:10015000C53E0008F53A0008C53E0008013B00080E
:10016000C53E0008C53E0008C53E0008C53E000863
:10017000C53E0008C53E0008C53E0008000000005E
:08018000C53E0008C53E000861
:1001900010F8012B11F8013B012A28BF9A42F7D031
:1001A000D01A7047000000000000000000000000AE
:1001B00001F0FF01102A2BDB10F0070F08D010F818
:1001C000013B013A8B422DD010F0070F42B3F6D11C
:1001D000F0B441EA012141EA014122F007047FF035
:1001E00000070023F0E80256083C85EA010586EA8C
:1001F000010685FA47F5A3FA87F586FA47F6A5FAC8
:1002000087F68EB9EED1F0BC01F0FF0102F00702D3
:1002100032B110F8013B013A83EA010313B1F8D17E
:100220000020704701387047002D06BF354603385F
:10023000073815F0010F07D1013015F4807F02BF98
:10024000013015F4C03F0130F0BC0138704700BFE9
:10025000034613F8012B002AFBD1181A0138704706
:1002600053B94AB9002908BF00281CBF4FF0FF311D
:100270004FF0FF3000F00CB8ADF1080C6DE904CE82
:100280000CF0D4F9DDF804E0DDE9022304B0704796
:10029000704700BF0348044B834202D0034B03B1B5
:1002A000184770475C0100205C010020000000003E
:1002B0000548064B1B1AD90F01EBA301491002D0C8
:1002C000034B03B1184770475C0100205C0100201C
:1002D0000000000010B5064C237843B9FFF7DAFFA1
:1002E000044B13B10448AFF300800123237010BD09
:1002F0006001002000000000E8C8000808B5054BB8
:100300001BB105490548AFF30080BDE80840FFF781
:10031000CFBF00BF0000000064010020E8C8000853
:100320000369C26893429CBF81685B18013B981ABD
:1003300070472DE9F041D0E902840546A8EB040698
:100340004068964220440F46144406D90BF00CFB3B
:10035000BFF35F8FEC60BDE8F0813246A4EB080488
:100360000BF002FB68682246B919EFE72DE9F84364
:10037000C5680646894617464FF000083369B468D9
:1003800070689D4228BF1B19641BBC4203F1FF33F8
:1003900028BF3C465B1B9C4228BF1C464946224660
:1003A00028440BF0E1FAB3682544A044A1443F1B64
:1003B000AB4208BF0025BFF35F8FF560002FDDD192
:1003C0004046BDE8F883000008B5144BA822002180
:1003D00018460BF0A3FD0322026111494261114A44
:1003E0008161C2614FF480620262002282624262D5
:1003F000C26201660C4941661021816603460267AC
:10040000C2664267BFF35F8F084911F8010D985427
:100410000132102AF9D1BFF35F8F08BD8C0500208F
:10042000CCCA00088C0100207C0100209DE100085E
:10043000F8B5144B182700FB07751D4407FB003364
:100440000E46DB6A012B14460AD0022B14D023B9C6
:100450002846FFF765FF844208D900242046F8BDEE
:100460002846FFF75DFF844228BF044622463146F6
:100470002846FFF75EFFF1E72846BDE8F840FFF7A2
:1004800075BF00BF8C050020F8B50B4B1B780446E8
:100490000D4616460BB9FFF797FFEFF311874FF0A4
:1004A000200181F31188324629462046FFF7C0FF1C
:1004B00087F31188F8BD00BF8C050020F8B5184CF3
:1004C000237805460E460BB9FFF77EFFEFF3118741
:1004D0004FF0200181F31188182202FB0542506A77
:1004E000116A431C994208BF0023D16A022902D134
:1004F000916A9942FBE7182202FB0541D1F828C016
:100500009C450BD005FB0222144462681654BFF3CD
:100510005F8F01204B6287F31188F8BD0020FAE756
:100520008C0500202DE9F041154C1E462378054628
:10053000884617460BB9FFF747FF022D1DD8EFF38A
:10054000118C4FF0200181F3118865B1182005FB53
:100550000003E21844F80380576000FB05420023C3
:10056000166293625362182303FB0544069BE36201
:100570008CF311880020BDE8F0814FF0FF30FAE7DE
:100580008C050020826810B504464068531C8342E5
:1005900005D820688154A360E3680133E360D4E99F
:1005A00001329A420BD121682069FFF76DFFA368E1
:1005B000984215BF4FF0FF330023E360A36010BDE6
:1005C0002DE9F84F9946DDE90A4316460546884667
:1005D0000A464FF0010AB24212D2CA4538BFCA4693
:1005E00013F0010B01D184B90024EB68002B3DDB33
:1005F0000127B9F1010F1FD909F1FF397743F8E756
:100600000AF1010AB2FBF6F2E5E79B0712D5B9F150
:10061000000F0CBF30272027A245E6D239462846D6
:10062000FFF7B0FFEB68002B04F1FF34DDDB002C9B
:10063000F2D1D9E72027EFE7B8FBF7F39E42DDD9E7
:10064000DFF84890B8FBF7F3284619F8031007FBCA
:100650001388FFF797FFEB68002B03DBB7FBF6F37C
:10066000B74205D2BBF1000F00D064B9BDE8F88FE6
:100670001F46E7E720212846FFF784FFEB68002BA1
:1006800004F1FF34F2DB5445F4D8EFE79EE10008B3
:100690002DE9F04F00239BB00E464021CDE9061313
:1006A000CDE908300DF1280A03901546CDF814A0C5
:1006B00016F8011B39B9089D002D00F31081089828
:1006C0001BB0BDE8F08F252940F0BA804FF0000B39
:1006D000314611F8013B2D2B18D012D8232B1CD0FA
:1006E0002B2B17D00024314611F8013BA3F1300029
:1006F000092815D80A2202FB0433A3F130040E4660
:10070000F1E7302BEED14BF0020B01E04BF0010B87
:100710000E46DDE74BF0040BFAE74BF0080BF7E76A
:100720002E2B11D10E464FF000090A27304610F843
:10073000011BA1F1300CBCF1090F07D807FB09110F
:10074000A1F130090646F1E74FF00009304610F8F4
:10075000011B01F0FB07682F0646F8D0782909D85D
:100760006F290BD8632967D020D8252968D058294C
:1007700000F09580089B002B9ADA9CE770390829D5
:10078000F8D801A050F821F0CF080008750700083C
:1007900075070008AF080008750700088D080008F5
:1007A00075070008750700089F0800086429E1D153
:1007B00029680F68081D87EAE7712860A1EBE771D7
:1007C0004FF001080A2009293EDCC84538BFC84659
:1007D0002CB1002F02DB1BF0040F00D0013C1BF0FA
:1007E000020F02D0B9F1000F04D01BF0010F01D1AC
:1007F0007CBB002408990029BCDB002F35DA7F423E
:100800002D2105A8FFF7BEFE08990029B2DB0BF0E9
:100810000301022904D1B9F1000F01D154BB002416
:1008200008990029A6DBCDE9004B4B460A22394640
:1008300005A8FFF7C5FE9DE72B681A1D19782A60E9
:1008400005A8FFF79FFE95E708F10108B1FBF0F15D
:10085000B9E7A045CED2202105A8FFF793FE08995D
:10086000002904F1FF34C3DAC4E71BF0040FCED033
:100870002B21C6E7A045D3D2302105A8FFF782FE81
:100880000899002904F1FF34C8DAC9E72968081D6E
:100890002860CDE9004B4B460A220968C8E7296861
:1008A000081D2860CDE9004B4B461022F5E72B6868
:1008B0001A1D2A601C6814F8011B00293FF45AAF66
:1008C00005A8FFF75FFE089B002BF4DA52E72968C2
:1008D0000B1D2B6000220823CDE90032E5E7079CC1
:1008E00024B1039822465146FFF7CEFD2C440894CC
:1008F000E5E600BF0EB403B503AB01AA53F8041B31
:100900000193FFF7C5FE02B05DF804EB03B070473A
:1009100070470000F0B5044685B00D4616461F46E8
:100920000A4804F009FB20280CD14FF0FF33CDE931
:100930000173009601232A462146044804F040F939
:1009400005B0F0BD0A2003F00FFBE9E738390020BD
:10095000F0B5044685B00D4616461F460D4804F016
:10096000EBFA2028FAD14FF0FF33CDE901732A4684
:10097000084800960123214604F092F8054D4FF0F7
:10098000FF3301222146284604F022FA0028F6D13E
:1009900005B0F0BD3839002008B51388054A13802A
:1009A0000246A020FFF7B6FF10B1FFF7B1FF01200C
:1009B00008BD00BF360600200A464FF49673014674
:1009C000014804F005BA00BF3839002013460B4A2D
:1009D00010B513700246A020FFF7BAFF044610B10D
:1009E000FFF796FF012440F6B831A020FFF7E4FF9F
:1009F00010B1FFF78DFF0124204610BD3406002002
:100A00002DE9F84F11F00F0705460C461646C2F3C4
:100A100007185FFA82FA02F00F0B1DD1B8F1000F30
:100A200001D15A462FE0102221462846FFF7CEFF7B
:100A300060B908F1FF38103418F0FF08A4B205F1CE
:100A40001005F0D1BBF1000F02D10020BDE8F88FF6
:100A50005A462146284616E05FFA87F9C7F1100783
:100A6000FFB2B8F1000F12D19742DAD23A46FFF73F
:100A7000ADFF0028EAD1AAF1100A09EB0A023919E0
:100A8000D2B289B2E819BDE8F84FFFF79FBF3A46E6
:100A9000FFF79CFF0028D9D1F61B3D443C441FFAC8
:100AA00086F8641B06F47F662E44A4B22919B54269
:100AB00089B203D118F00F02C7D0CBE71022284625
:100AC000FFF784FF0028C1D11035EFE7054B0A4638
:100AD00019688B689B07FCD501466423014805F023
:100AE00007B800BFF437002007B5084B8DF80700A2
:100AF0001A6893689B07FCD5642301220DF1070156
:100B0000024804F0F5FF03B05DF804FBF437002061
:100B100008B5074B1B78012B04D10648002204219D
:100B200003F02EFDBDE80840012003F01DBA00BF10
:100B30003C000020000C024008B5064B1A78012A40
:100B400003D10548042103F01BFDBDE80840012046
:100B500003F00ABA3C000020000C02401FB5FF233E
:100B60008DF80E30094B1A6893689B07FCD56423F7
:100B700000930DF10F0201230DF10E01034805F062
:100B800064F89DF80F0005B05DF804FBF437002011
:100B900013B5FFF7D1FF0A24FF20FFF7A5FF013CA3
:100BA000FAD1FFF7B5FF4023009306214FF4154318
:100BB0006846ADF80430FFF789FF4FF40054FFF7A3
:100BC000CDFF012809D1FFF7B7FFFF20FFF78CFF0A
:100BD000034B01221A7002B010BD013CEFD1F2E7C5
:100BE0003806002010B5064C4FF4FA732380FFF747
:100BF000B5FFFF2802D02388002BF8D110BD00BF1D
:100C00003A06002070B506460D46FFF7EBFFFF28B9
:100C10004FF0000423D12846FFF766FFFD2D18D0C2
:100C20004FF400713046FFF751FFFFF797FFFFF7D2
:100C300095FF4125FFF792FF00F01F03052B0446A7
:100C400003D0013D15F0FF05F4D1FFF787FF002821
:100C5000FBD004F01F04631F5842584170BD20466A
:100C6000FCE738B504460D46FFF7BCFFFF2828D146
:100C70002046FFF739FF280EFFF736FFC5F3074080
:100C8000FFF732FFC5F30720FFF72EFFE8B2FFF7AB
:100C90002BFF402C13D0482C14BF01208720FFF7D6
:100CA00023FF4C2C01D1FFF759FF0A24FFF756FF11
:100CB000030603D5013C14F0FF04F7D138BD95209D
:100CC000EDE7FF20FAE7000070B50F4DC82304469A
:100CD0000E462B80FFF742FFFF2803D1288800280B
:100CE000F8D170BDFE280DD1651E3444FFF736FFE4
:100CF00005F8010FA542F9D1FFF730FFFFF72EFFEE
:100D00000120EEE70020ECE73C0600202DE9F3414E
:100D1000002840F09D804F4E357815F0020504D034
:100D20003078C0B202B0BDE8F081FFF731FFFFF7C5
:100D3000EFFE29464020FFF794FF012804460DD01E
:100D40000024454B1C70FFF7F7FEFFF707FF002C50
:100D50007BD0337803F0FE033370E1E73F4F4FF46D
:100D60007A734FF4D57148203B80FFF77AFF012852
:100D70003DD101ADA8460424FFF7F0FE013C14F07C
:100D8000FF0408F8010BF7D19DF80630012BD7D1ED
:100D90009DF80730AA2BD3D100217720FFF761FF00
:100DA000012803D93B88002BF6D1C9E74FF08041D9
:100DB0006920FFF756FF01460028F3D13B88002B3E
:100DC000BED07A20FFF74DFF0028B9D10424FFF7E9
:100DD000C5FE013C14F0FF0405F8010BF7D19DF8A6
:100DE000043013F0400F0CBF04240C24A9E729465B
:100DF0007720FFF736FF012806D829466920FFF73C
:100E000030FF012898BF0224022C4FF000011AD1B4
:100E10007720FFF726FF012803D93B88002BF3D169
:100E20008EE700216920FFF71CFF0028F5D13B88E1
:100E3000002B85D04FF400715020FFF712FF0028DF
:100E40007FF47EAF7DE74120EDE7054B1C7067E73F
:100E5000012067E700000020390600203C06002042
:100E60003806002018B9034B1878C0B2704701202B
:100E7000704700BF0000002070B50E4615461C46A6
:100E8000002837D1002B35D01C4B1B78DA0733D420
:100E90001B4B1B785B0758BF6D02FFF739FE012C17
:100EA000294613D15120FFF7DCFE38B94FF4007109
:100EB0003046FFF709FFB0FA80F46409FFF73CFE03
:100EC000FFF74CFE201E18BF012070BD5220FFF717
:100ED000C8FE0028F2D14FF400713046FFF7F4FE4F
:100EE00018B1013C06F50076F5D100214C20FFF742
:100EF000B8FEE3E70420E8E70320E6E7000000206F
:100F000039060020F8B50D4616461C46002847D184
:100F1000002B45D0254B1A78D00743D41B785907AE
:100F200042D4234F3B785A0758BF7602FFF7F0FDB3
:100F3000012C13D131465820FFF793FE70BBFE21E0
:100F40002846FFF75FFEB0FA80F46409FFF7F4FD6E
:100F5000FFF704FE201E18BF0120F8BD3B789B0759
:100F600007D500217720FFF77CFE21465720FFF7A9
:100F700078FE31465920FFF774FE0028E6D1FC21A7
:100F80002846FFF73FFE18B1013C05F50075F6D184
:100F9000FD210020FFF736FE0028D7D10124D5E738
:100FA0000420DAE70320D8E70220D6E7000000207B
:100FB000390600207FB50E4615460446002840F04D
:100FC0008F80052913D11378012B09D0022B0AD069
:100FD000002B40F08580444B1870204604B070BD53
:100FE000FFF7D6FDF9E7404B1B785370F5E73F4B11
:100FF0001C7814F0010475D1FFF78AFD0D2E6DD811
:10100000DFE806F04807446C6C6C6C6C6C6C6C4FE1
:101010005D6000214920FFF724FE28B10124FFF77D
:101020008BFDFFF79BFDD8E710216846FFF74CFECC
:101030000028F3D09DF800109DF809309DF8082095
:101040008909012906D1013303EB02239BB29B02DC
:101050002B60E4E79DF807109DF80A00920902EB67
:1010600081029DF80610890201F4406101320A44B0
:101070009DF805105B0001F00F0101EBD01103F0AA
:1010800006030B44073B02FA03F3E1E74FF4007356
:101090002B80C4E7FFF7A6FDB0F1FF0418BF0124C1
:1010A000BDE700214920FFF7DCFD0028B6D1102163
:1010B0002846FFF709FEB0FA80F46409AFE7002183
:1010C0004A20F0E700217A20FFF7CBFD30B92C1D34
:1010D000FFF744FD05F8010BAC42F9D104249EE76B
:1010E00004247AE7032478E7380600200000002073
:1010F00030B5144987B004461122134809F042F86C
:101100000546E0B92146114809F05AFF6B46122204
:1011100001A90D4809F0D2F90B4809F086FC01A994
:101120000B488DF8155009F04BFF1222214601A8FB
:10113000FFF766FC21460246064809F041FF07B06A
:1011400030BD00BF23CB00084006002029CB00089B
:1011500063CB00086DCB000810B5094B1B7898B025
:1011600004465D2253B9074968460AF0FDFB5D223B
:101170002146684602F05CFA18B010BD0249F3E758
:10118000053A00201ACC000877CC000830B52D4C69
:101190009BB0054601462C4809F012FF2B4911224D
:1011A000204608F0EFFF01AB02A90F22204609F00C
:1011B00085F9204609F039FC25491122204608F01E
:1011C000E1FF01AB0DF117010F22204609F076F97E
:1011D000204609F02AFC1F491122204608F0D2FFC0
:1011E00001AB0DF126010F22204609F067F92046D8
:1011F00009F01BFC18491122204608F0C3FF01AB7F
:101200000DF135010F22204609F058F9204609F06A
:101210000CFC12491122204608F0B4FF224621217D
:1012200011A809F0A4FD204609F0FFFB02A90C4813
:1012300009F0C6FE5D22294602A802F0F9F91BB0AA
:1012400030BD00BF40060020D4CC0008DACB000837
:10125000E2CB0008EACB0008F2CB0008FACB00088A
:101260000CCD0008F0B59DB001465D2204A802F047
:10127000F5F804A90F226E486E4F6F4E6F4D704CFB
:101280000AF03CFC0DF11F010F226E480AF036FCFB
:101290000DF12E010F226C480AF030FC0DF13D01DA
:1012A0000F226A480AF02AFC04A9032203A80AF0C4
:1012B00025FC03A80AF04AFD05A93870032203A8FB
:1012C0000AF01CFC03A80AF041FD06A9787003226D
:1012D00003A80AF013FC03A80AF038FD07A9B870A8
:1012E000032203A80AF00AFC03A80AF02FFD0DF15F
:1012F0001F01F870032203A80AF000FC03A80AF0FB
:1013000025FD0DF123013070032203A80AF0F6FB3E
:1013100003A80AF01BFD0DF127017070032203A83A
:101320000AF0ECFB03A80AF011FD0DF12B01B070DF
:10133000032203A80AF0E2FB03A80AF007FD0DF15F
:101340002E01F070032203A80AF0D8FB03A80AF0CC
:10135000FDFC0DF132012870032203A80AF0CEFB38
:1013600003A80AF0F3FC0DF136016870032203A80C
:101370000AF0C4FB03A80AF0E9FC0DF13A01A870D9
:10138000032203A80AF0BAFB03A80AF0DFFC0DF160
:101390003D01E870032203A80AF0B0FB03A80AF09D
:1013A000D5FC0DF141012070032203A80AF0A6FB31
:1013B00003A80AF0CBFC0DF145016070032203A8DD
:1013C0000AF09CFB03A80AF0C1FC0DF14901A070D2
:1013D000032203A80AF092FB03A80AF0B7FC13A9A2
:1013E000E07020221A480AF089FBFB780093BB7852
:1013F0007A783978174809F0E3FDF3780093B378E9
:1014000072783178144809F0DBFDEB780093AB7803
:101410006A782978114809F0D3FDE3780093A3781E
:10142000627821780E4809F0CBFD1DB0F0BD00BFF9
:101430007F00002007370020DA3600200337002025
:10144000FF3600206F0000205F0000204F000020CA
:10145000DE3600201DCD000834CD00084BCD00083D
:1014600062CD0008F0B5054685B00B480AF0C8F912
:101470000A4B6A4603F11007164618685968144665
:1014800003C40833BB422246F7D110222946304616
:1014900002F0CEF805B0F0BD79CD00088ECD000881
:1014A000F0B589B010220546002168460AF036FDE5
:1014B0000D4B04AA03F11007164618685968144624
:1014C00003C40833BB422246F7D12946102268469E
:1014D00001F0C4FF0F22314668460AF0FDFA0038D9
:1014E00018BF012009B0F0BD13CB000830B58C4CFB
:1014F0008C488D4D8DB001F055FF8C49112220464E
:1015000008F040FE2246102103A809F030FC03A990
:10151000874809F04DFD03A9032202A80AF0EEFA5C
:1015200002A80AF013FC04A92870032202A80AF0FA
:10153000E5FA02A80AF00AFC05A96870032202A8CD
:101540000AF0DCFA02A80AF001FC06A9A87003223E
:1015500002A80AF0D3FA02A80AF0F8FBE870C0B2B9
:101560000090AB786A7829787248734D09F028FDAD
:10157000204609F05AFA71491122204608F002FE6D
:101580002246102103A809F0F2FB03A96C4809F0D8
:101590000FFD03A9032202A80AF0B0FA02A80AF07C
:1015A000D5FB04A92870032202A80AF0A7FA02A812
:1015B0000AF0CCFB05A96870032202A80AF09EFA83
:1015C00002A80AF0C3FB06A9A870032202A80AF029
:1015D00095FA02A80AF0BAFBE870C0B20090AB78A6
:1015E0006A7829785748584D09F0EAFC204609F0F6
:1015F0001CFA56491122204608F0C4FD224610214B
:1016000003A809F0B4FB03A9514809F0D1FC03A9D0
:10161000032202A80AF072FA02A80AF097FB04A9B2
:101620002870032202A80AF069FA02A80AF08EFBC9
:1016300005A96870032202A80AF060FA02A80AF05D
:1016400085FB06A9A870032202A80AF057FA02A88F
:101650000AF07CFBE870C0B20090AB786A78297819
:101660003C483D4D09F0ACFC204609F0DEF93B4911
:101670001122204608F086FD2246102103A809F019
:1016800076FB03A9364809F093FC03A9032202A8BC
:101690000AF034FA02A80AF059FB04A928700322C0
:1016A00002A80AF02BFA02A80AF050FB05A96870FC
:1016B000032202A80AF022FA02A80AF047FB06A9B0
:1016C000A870032202A80AF019FA02A80AF03EFB49
:1016D000E870C0B20090AB786A7829782148224D32
:1016E00009F06EFC204609F0A0F92049112220469D
:1016F00008F048FD2246212103A809F038FB2022EA
:1017000003A928460AF0FAF9204609F08EF90023C9
:101710002946174885F8203009F052FC0DB030BD3D
:10172000400600209ECD000807370020DACB0008D5
:101730007F0000201DCD0008DA360020E2CB000833
:101740006F00002034CD000803370020EACB0008EA
:101750005F0000204BCD0008FF360020F2CB0008D0
:101760004F00002062CD0008DE360020FACB0008D2
:10177000BBCD000808B50F490F4806F057FB0F49CD
:101780000F4806F053FB0F490F4806F04FFB0F4977
:101790000F4806F04BFB0F490F4806F047FB0F4977
:1017A0000F4806F043FBBDE808400E490E4806F01E
:1017B0003DBB00BF1F1A01081DDD0008AEE1000897
:1017C000F6CA00087F000020DACB00086F00002076
:1017D000E2CB00085F000020EACB00084F000020A9
:1017E000F2CB00083D000020C5CD000810B5002256
:1017F00004464FF400711C4802F0C2FE462002F07D
:10180000B3FB01224FF40071174802F0B9FE4620E5
:1018100002F0AAFB02F0DAFA144B15491A689B8809
:101820008B80144B0A601B68C1F80630124B1B6892
:10183000C1F80E30114B00201B68C1F80A3005F0CA
:1018400079FF0F4A002312880121204605F00CF988
:10185000204605F09BF9012805D121460948BDE83D
:10186000104009F0ADBB10BD00080240D436002086
:101870009C0000200737002003370020FF3600209F
:1018800038000020CDCD000810B5104910480022C6
:1018900008F04EFC0F491048112208F073FC38B9CB
:1018A0000E4801F07FFDBDE810400B4809F0BDB8BF
:1018B0000B4B0C480024012204211C7002F060FE36
:1018C00009482246042102F05BFEECE79DCD0008AA
:1018D00098160020DACB000840060020E9CD000869
:1018E0003C000020000C02400010024008B50548F2
:1018F0000122042102F044FEBDE80840024801F044
:101900008DBD00BF000C0240F437002038B5324BCB
:101910001B780BBB314D2B787BB94FF4D070FFF7A0
:10192000BFFD044648B92E4809F06AFF2046FFF77C
:1019300013FC4FF4D070FFF795FD2B78012B06D1E7
:10194000FFF7D4FDBDE838400020FFF71FBCBDE81D
:1019500038400020FFF786BC0020FFF7FDFB002089
:10196000FFF780FC01224FF480511E4802F008FE70
:10197000642002F0F9FA00224FF48051194802F075
:10198000FFFD642002F0F0FA01224FF48051154867
:1019900002F0F6FD642002F0E7FA00224FF48051D5
:1019A000104802F0EDFD642002F0DEFA01224FF44F
:1019B00080510C4802F0E4FD642002F0D5FA094899
:1019C00000224FF4805102F0DBFD642002F0CCFADB
:1019D000BDE8384002F02EBBEC3900203C0000206E
:1019E000F5CD0008000C0240024A002312880221B3
:1019F00005F03AB8360000200122082108B50C484D
:101A000002F0BEFD0B4A01215378DB4303F0F003E3
:101A1000043143F005033129537002F10402F3D17C
:101A2000BDE8084002480022082102F0A9BD00BF1D
:101A3000000C02408C3900200122082108B50C4816
:101A400002F09EFD0B4A01215378DB4303F0F003C3
:101A5000043143F005033129537002F10402F3D13C
:101A6000BDE8084002480022082102F089BD00BFFD
:101A7000000C0240BC39002037B5054602F06EFA72
:101A80002E4B2F491B88009304462E4B30222846AC
:101A900005F0F6F902F062FA04F5FA74A0420AD2EF
:101AA000002229484FF4804102F06AFD274B0122B1
:101AB0001A7003B030BD264809F0A2FE2248002269
:101AC0004FF4805102F05CFD1F4800224FF40041AA
:101AD00002F056FD01224FF480411B4802F050FDF8
:101AE000642002F041FA00224FF48041164802F0CF
:101AF00047FD642002F038FA01224FF48041124879
:101B000002F03EFD642002F02FFA00224FF48041E3
:101B10000D4802F035FD642002F026FA0D4803F06E
:101B200035FA0D4A1378013B5BB2002B1370C0DA13
:101B300003B0BDE8304002F07DBA00BF360000209F
:101B400005000020DA360020000C0240043A002094
:101B500005CE00082C3900203A00002008B50548C1
:101B600009F04EFE002006F051F9BDE8084002F0F1
:101B700061BA00BF2CCE000810B51D4B8AB0B3F877
:101B8000A520ADF8082004461A4AD3F8A10093F81E
:101B9000A7308DF80A300023CDE904230534164A16
:101BA000019001A92046CDE90723ADF80B308DF84F
:101BB0000D30ADF81830ADF82430FEF7E9FA48B131
:101BC00004A92046FEF7E4FA20B107A92046FEF753
:101BD000DFFA38B9094809F013FE094B01221A70DF
:101BE0000AB010BD07480AB0BDE8104009F008BEB1
:101BF00000C90008757365723132330042CE0008A7
:101C0000EE3900204BCE000808B5094920220830E3
:101C100009F062FF30B9074801F0C4FB064B01220E
:101C20001A7008BDBDE80840044801F0BBBB00BF06
:101C3000DE3600205ECE0008ED3900206CCE0008B4
:101C40002DE9F04701468EB004469F4809F0B8F9E7
:101C50000023E25C2E2A03F10107DBB205D0383302
:101C60006B4403F8182C3B46F3E7032B18D1BDF85F
:101C700020209DF82230ADF810208DF8123004A8F5
:101C80000AF064F83D46C6B2625DEB1B2E2ADBB259
:101C900005F1010519D038336B4403F8182CF3E72C
:101CA000022B09D130238DF810309DF820308DF8AB
:101CB00011309DF82130E0E7012BE0D143F23003F1
:101CC000ADF810309DF82030D7E7032B1AD1BDF8BE
:101CD00020209DF82230ADF814208DF8163005A88C
:101CE0000AF034F8AA46C7B214F80A20AAEB050392
:101CF0002E2ADBB20AF1010A19D038336B4403F8FB
:101D0000182CF1E7022B09D130238DF814309DF8FF
:101D100020308DF815309DF82130DEE7012BDED123
:101D200043F23003ADF814309DF82030D5E7032B93
:101D30001DD1BDF820209DF82230ADF818208DF877
:101D40001A3006A80AF002F804EB0A0580465FFA8A
:101D500080F9002415F8013B621CE4B2E3B104F100
:101D600038010DEB010404F8183C1446F2E7022B8D
:101D700009D130238DF818309DF820308DF81930B6
:101D80009DF82130DBE7012BDBD143F23003ADF8C6
:101D900018309DF82030D2E7032C1ED1BDF820204A
:101DA0009DF82230ADF81C208DF81E30474C07A856
:101DB00009F0CCFF2378B342C0B223D16378BB4291
:101DC00020D1A3784B451DD1E37883421AD14048F6
:101DD00009F016FD0EB0BDE8F087022C09D13023C2
:101DE0008DF81C309DF820308DF81D309DF8213085
:101DF000DAE7012CDAD143F23003ADF81C309DF85C
:101E00002030D1E7E0702670677084F802905FFAA6
:101E100088F300903A462F48314609F0D1F82E4B0E
:101E20001D78012D37D12D492D48122208F0AAF92D
:101E30000028CFD12B4809F0E3FC0A2304A9032290
:101E40000AA88DF80C302E2409F058FE05A90322AB
:101E50000BA88DF82B4009F051FE06A903220CA80F
:101E60008DF82F4009F04AFE07A903220DA88DF82E
:101E7000334009F043FE2A4603A90DF1370009F06B
:101E80003DFE09AB10220AA9154808F0EDFB1448E5
:101E900008F0CBFD9EE7144809F0B2FC03220021B4
:101EA00004A801F0C5FB0322042105A801F0C0FB32
:101EB0000322082106A801F0BBFB03220C2107A87E
:101EC00001F0B6FB86E700BF7ECE00080737002092
:101ED00090CE0008B2CE00083C000020DACB00080B
:101EE00040060020CDCE0008F3CE00082DE9F043D7
:101EF00000238FB00446E25C2E2A03F10106DBB218
:101F000005D038336B4403F8182C3346F3E7032B22
:101F100018D1BDF820209DF82230ADF810208DF8A2
:101F2000123004A809F012FF3746C5B2E25DBB1BB0
:101F30002E2ADBB207F1010719D038336B4403F8BE
:101F4000182CF3E7022B09D130238DF810309DF8BF
:101F500020308DF811309DF82130E0E7012BE0D1E1
:101F600043F23003ADF810309DF82030D7E7032B53
:101F70001AD1BDF820209DF82230ADF814208DF83C
:101F8000163005A809F0E2FEB946C6B214F80920D9
:101F9000A9EB07032E2ADBB209F1010919D0383366
:101FA0006B4403F8182CF1E7022B09D130238DF88C
:101FB00014309DF820308DF815309DF82130DEE783
:101FC000012BDED143F23003ADF814309DF8203000
:101FD000D5E7032B1DD1BDF820209DF82230ADF8A8
:101FE00018208DF81A3006A809F0B0FE04EB09029B
:101FF00007465FFA80F8002412F8013B611CE4B246
:10200000E3B104F138000DEB000404F8183C0C4671
:10201000F2E7022B09D130238DF818309DF82030DB
:102020008DF819309DF82130DBE7012BDBD143F22D
:102030003003ADF818309DF82030D2E7032C1ED1C4
:10204000BDF820209DF82230ADF81C208DF81E3000
:10205000454C07A809F07AFE2378AB42C0B223D1E1
:102060006378B34220D1A37843451DD1E3788342FE
:102070001AD13E4809F0C4FB0FB0BDE8F083022C32
:1020800009D130238DF81C309DF820308DF81D309B
:102090009DF82130DAE7012CDAD143F23003ADF8B4
:1020A0001C309DF82030D1E72570E070667084F810
:1020B0000280FBB2009029462D48324608F080FF8E
:1020C0002C4B1D78012D37D12B492C48122208F0BA
:1020D00059F80028D0D12A4809F092FB0A2304A914
:1020E00003220AA88DF80C302E2409F007FD05A95B
:1020F00003220BA88DF82B4009F000FD06A903224E
:102100000CA88DF82F4009F0F9FC07A903220DA8AF
:102110008DF8334009F0F2FC2A4603A90DF137008F
:1021200009F0ECFC09AB10220AA9144808F09CFA4B
:10213000124808F07AFC9FE7124809F061FB03227D
:102140002D2104A801F074FA0322312105A801F021
:102150006FFA0322362106A801F06AFA03223A2117
:1021600007A801F065FA87E7FF3600201DCF0008B9
:102170003ECF00083C000020F2CB000840060020C3
:1021800059CF00087FCF00082DE9F04300238FB01E
:102190000446E25C2E2A03F10106DBB205D0383397
:1021A0006B4403F8182C3346F3E7032B18D1BDF822
:1021B00020209DF82230ADF810208DF8123004A8B0
:1021C00009F0C4FD3746C5B2E25DBB1B2E2ADBB267
:1021D00007F1010719D038336B4403F8182CF3E7E3
:1021E000022B09D130238DF810309DF820308DF866
:1021F00011309DF82130E0E7012BE0D143F23003AC
:10220000ADF810309DF82030D7E7032B1AD1BDF878
:1022100020209DF82230ADF814208DF8163005A846
:1022200009F094FDB946C6B214F80920A9EB0703DA
:102230002E2ADBB209F1010919D038336B4403F8B7
:10224000182CF1E7022B09D130238DF814309DF8BA
:1022500020308DF815309DF82130DEE7012BDED1DE
:1022600043F23003ADF814309DF82030D5E7032B4E
:102270001DD1BDF820209DF82230ADF818208DF832
:102280001A3006A809F062FD04EB090207465FFA5E
:1022900080F8002412F8013B611CE4B2E3B104F1C0
:1022A00038000DEB000404F8183C0C46F2E7022B52
:1022B00009D130238DF818309DF820308DF8193071
:1022C0009DF82130DBE7012BDBD143F23003ADF881
:1022D00018309DF82030D2E7032C1ED1BDF8202005
:1022E0009DF82230ADF81C208DF81E30454C07A813
:1022F00009F02CFD2378AB42C0B223D16378B342FE
:1023000020D1A37843451DD1E37883421AD13E48BA
:1023100001F048F80FB0BDE8F083022C09D130235A
:102320008DF81C309DF820308DF81D309DF821303F
:10233000DAE7012CDAD143F23003ADF81C309DF816
:102340002030D1E72570E070667084F80280FBB21F
:10235000009029462D48324608F032FE2C4B1D785D
:10236000012D37D12B492C48122207F00BFF0028F2
:10237000D0D12A4809F044FA0A2304A903220AA862
:102380008DF80C302E2409F0B9FB05A903220BA807
:102390008DF82B4009F0B2FB06A903220CA88DF89A
:1023A0002F4009F0ABFB07A903220DA88DF833409D
:1023B00009F0A4FB2A4603A90DF1370009F09EFBA2
:1023C00009AB10220AA9144808F04EF9124808F087
:1023D0002CFB9FE7124809F013FA03221E2104A8E0
:1023E00001F026F90322222105A801F021F9032298
:1023F000262106A801F01CF903222A2107A801F0D2
:1024000017F987E703370020A9CF0008CCCF0008D1
:102410003C000020EACB000840060020E7CF00087F
:102420000DD000082DE9F04300238FB00446E25C94
:102430002E2A03F10106DBB205D038336B4403F8D2
:10244000182C3346F3E7032B18D1BDF820209DF854
:102450002230ADF810208DF8123004A809F076FC77
:102460003746C5B2E25DBB1B2E2ADBB207F101077E
:1024700019D038336B4403F8182CF3E7022B09D139
:1024800030238DF810309DF820308DF811309DF8F4
:102490002130E0E7012BE0D143F23003ADF81030FA
:1024A0009DF82030D7E7032B1AD1BDF820209DF8E6
:1024B0002230ADF814208DF8163005A809F046FC3E
:1024C000B946C6B214F80920A9EB07032E2ADBB2DD
:1024D00009F1010919D038336B4403F8182CF1E7DE
:1024E000022B09D130238DF814309DF820308DF85F
:1024F00015309DF82130DEE7012BDED143F23003A9
:10250000ADF814309DF82030D5E7032B1DD1BDF870
:1025100020209DF82230ADF818208DF81A3006A83A
:1025200009F014FC04EB090207465FFA80F8002466
:1025300012F8013B611CE4B2E3B104F138000DEB89
:10254000000404F8183C0C46F2E7022B09D13023B2
:102550008DF818309DF820308DF819309DF8213015
:10256000DBE7012BDBD143F23003ADF818309DF8E7
:102570002030D2E7032C1ED1BDF820209DF8223058
:10258000ADF81C208DF81E30454C07A809F0DEFB85
:102590002378AB42C0B223D16378B34220D1A37871
:1025A00043451DD1E37883421AD13E4800F0FAFE3C
:1025B0000FB0BDE8F083022C09D130238DF81C3018
:1025C0009DF820308DF81D309DF82130DAE7012C80
:1025D000DAD143F23003ADF81C309DF82030D1E75A
:1025E0002570E070667084F80280FBB20090294686
:1025F0002D48324608F0E4FC2C4B1D78012D37D1D4
:102600002B492C48122207F0BDFD0028D0D12A48C2
:1026100009F0F6F80A2304A903220AA88DF80C3061
:102620002E2409F06BFA05A903220BA88DF82B4084
:1026300009F064FA06A903220CA88DF82F4009F0CE
:102640005DFA07A903220DA88DF8334009F056FA68
:102650002A4603A90DF1370009F050FA09AB102200
:102660000AA9144808F000F8124808F0DEF99FE7BC
:10267000124809F0C5F803220F2104A800F0D8FF82
:102680000322132105A800F0D3FF0322172106A877
:1026900000F0CEFF03221B2107A800F0C9FF87E747
:1026A000DA36002037D000085AD000083C0000205D
:1026B000E2CB00084006002075D000089BD000083F
:1026C00010B501460446174808F07AFC164809F090
:1026D00097F8164B1B78012B19D115491548122272
:1026E00007F050FDE8B9144809F08AF800220023E9
:1026F000104808F0ABF90F49204608F05DFB0D4883
:1027000008F0E6F8BDE810400A4808F08EB90B481A
:1027100009F076F820462122BDE810403C2100F067
:1027200087BF10BDC5D000088CCD00083C0000203C
:10273000FACB000840060020DDD00008FFD00008DA
:1027400013B501224FF4007101A800F087FE9DF837
:102750000430114C882B15D101231048237009F047
:102760004FF823781BB94FF47A7001F0FDFBFF237B
:1027700001224FF4007101A88DF8043000F058FFD9
:1027800002B010BD882301224FF4007101A88DF81A
:10279000043000F04DFFE4E7EC39002025D10008BB
:1027A000F7B51E4F04460D461D4816460821012266
:1027B00001F0E6FE3B7833B91A4900962B463022E9
:1027C000204604F05DFB3B78012B06D115490096AD
:1027D0002B463022204604F053FB134C10480022B5
:1027E000082101F0CDFE23680133142B236005D1AD
:1027F0000B4800224FF4805101F0C2FE2368282BC1
:102800000AD10748002301224FF48051236003B00E
:10281000BDE8F04001F0B4BE03B0F0BD053A0020C1
:10282000000C02408C390020003A0020F0B5314CF9
:1028300085B00646ADF80E20226801320F462260B0
:1028400001F08CFB2C4B98421BD9256843F698224B
:10285000B5FBF2F302FB13559DB9284B1E680136F8
:102860001E6001F07BFB26494FF47A733246B0FBC1
:10287000F3F32846FEF73EF823680133236005B0E2
:10288000F0BD2048204C0122102101F079FE0DF10D
:102890000E031E49009330223B46304604F096FC5E
:1028A00000221848102101F06BFE194A1368013309
:1028B000136023680133142B23600BD111480022CD
:1028C0004FF4804101F05CFE0E4800224FF40041BD
:1028D00001F056FE2368282BD1D10023094823603C
:1028E00001224FF4004101F04BFE0A4802F04EFB7A
:1028F000C5E700BFF4390020878A0100F0390020C5
:1029000055D10008000C0240FC390020BC390020E1
:10291000F83900202C390020F7B504464FF4004167
:102920003E4801F027FE0128054675D13C4F3E7810
:10293000002E33D1024620213A4801F021FE3948C9
:102940003246202101F01CFE2A463748202101F0A2
:1029500017FE4FF48053354A3549009335483023EC
:1029600003F073F930483246202101F009FE2A466F
:102970003148324D4FF4807101F002FE2E4832464C
:102980004FF4807101F0FCFD2A882D492046FFF7A5
:1029900007FF2A882A492046FFF748FF3D78012D86
:1029A0003AD1FFF749F82A461E48202101F0E8FDF8
:1029B0001C480022202101F0E3FD2A461A4820216C
:1029C00001F0DEFD4FF480530093184A184919486E
:1029D000302303F03AF914480022202101F0D0FD01
:1029E000FFF70AF82A461448144D4FF4807101F09D
:1029F000C7FD114800224FF4807101F0C1FD2A8803
:102A00000F492046FFF712FF2A880D49204603B0E0
:102A1000BDE8F040FFF7C4BE03B0F0BD00040240C3
:102A2000053A002000080240000C02408C390020CA
:102A3000BC3900204C380020000002403600002045
:102A4000DA360020F0B5144B85B06D46044603F12C
:102A500010072A46186859682E4603C60833BB4239
:102A60003546F7D11346114625780022104611F855
:102A7000016BB54208BF80181032B2F5807FF6D1E5
:102A80006178002213F8014BA14208BF801801327F
:102A9000102AF7D105B0F0BD76D100082DE9F04736
:102AA00012248AB00DEB0402014605A8ADF81240CD
:102AB000FDF772FF224605A92D48DFF8BCA009F0FA
:102AC0001DF805A9022204A809F018F804A8FFF7C8
:102AD000B9FF0DF1170107468AF80000022204A889
:102AE00009F00CF804A8FFF7ADFF0DF11A018046BC
:102AF0008AF80100022204A809F000F804A8FFF7F0
:102B0000A1FF0DF11D0181468AF80200022204A8EE
:102B100008F0F4FF04A8FFF795FF08A98AF803005E
:102B20000222044604A808F0E9FF04A8FFF78AFF80
:102B30000DF123018AF804000222054604A808F0DA
:102B4000DDFF04A8FFF77EFFEDB2C6B2E4B28AF85B
:102B500005005FFA89F30296019500945FFA88F206
:102B6000F9B2044808F02CFA0AB0BDE8F08700BFBB
:102B70003D000020BED10008D43600202DE9F04FE2
:102B8000DFF8E4803449354F8BB01122404607F01E
:102B9000F9FA00230022404607F058FF424612216E
:102BA00005A808F0E4F805A912222D4808F0A6FFB0
:102BB00005A9022204A808F0A1FF04A8FFF742FF1C
:102BC0000DF1170181463870022204A808F096FF23
:102BD00004A8FFF737FF0DF11A0182467870022230
:102BE00004A808F08BFF04A8FFF72CFF0DF11D01CE
:102BF0008346B870022204A808F080FF04A8FFF7FB
:102C000021FF08A9F8700222044604A808F076FF04
:102C100004A8FFF717FF0DF12301387102220546C2
:102C200004A808F06BFF04A8FFF70CFFEDB2C6B2D2
:102C3000E4B278715FFA8BF35FFA8AF25FFA89F196
:102C4000029601950094074808F0BAF9404607F04B
:102C5000ECFE0BB0BDE8F08F23CB0008D43600208B
:102C60003D00002037D200084006002008B5084B80
:102C70001B78012B4FF4907005D1FEF739FABDE8AF
:102C80000840FFF77BBFBDE80840FFF707BF00BF64
:102C90003C00002008B572B6094C01224FF4804177
:102CA000204601F06DFC642001F05EF92046002210
:102CB0004FF4804101F064FC642001F055F9ECE729
:102CC000000C024030B5002495B01422214603A820
:102CD000CDE9094409F022F91F4B01941A6C42F026
:102CE00080521A641B6C03F080530193019B1B4BB1
:102CF00002941A6842F480421A601B6803F480430D
:102D00000293029B0A230893102201230820CDE995
:102D10000B320D93A823CDE910030225072308A841
:102D2000CDE90E541295139302F036F908B1FFF76E
:102D3000B1FF0F23CDE9033505904FF4A0524FF4B6
:102D40008053052103A8CDE9062302F001FB0028EA
:102D5000EDD115B030BD00BF00380240007000401A
:102D60002DE9F04F93B000247C4D01F0D1F8FFF72E
:102D7000A9FF142200210DA809F0D0F807942B6BAD
:102D8000774843F010032B632B6B03F0100307937A
:102D9000079B08942B6B43F004032B632B6B03F00E
:102DA00004030893089B09942B6B43F080032B6367
:102DB0002B6B03F080030993099B0A942B6B43F060
:102DC00001032B632B6B03F001030A930A9B0B9403
:102DD0002B6B43F002032B632B6B03F002030B936B
:102DE0000B9B0C942B6B43F008032B632B6B03F0B2
:102DF00008030C93012206210C9B01F0C1FB5848EB
:102E00002246082101F0BCFB5648012240F2012174
:102E100001F0B6FB53482246202101F0B1FB524895
:102E200022464FF2FB6101F0ABFB4F48012240F616
:102E3000040101F0A5FB01224C484FF4807101F020
:102E40009FFB012646484FF0040A0DA9CDE90DA6C7
:102E5000CDE90F660A2701F0B5FA41480DA9CDE981
:102E60000D76CDE90F4401F0ADFA21233D480DA9BF
:102E7000CDE90D36CDE90F4401F0A4FA4FF4887383
:102E800038480F940DA9CDE90D3401F09BFA48F2B2
:102E9000040337480F940DA9CDE90D344FF4807B1E
:102EA00001F090FA30480F940DA94FF00309CDE9D5
:102EB0000DB401F087FA4FF6BB632B48CDF8409074
:102EC0000DA9CDE90D360F944FF4007801F07AFA90
:102ED00024480DA9CDE90F49CDE90D8601F072FA1C
:102EE00022480DA9CDE90F49CDE90DB601F06AFAE6
:102EF0001D480DA9CDE90DA6CDE90F6601F062FAD6
:102F0000402319480DA9CDE90D36CDE90F4401F054
:102F100059FA06942B6B43F480032B632B6B03F459
:102F200080032246214606934520069B01F042F885
:102F3000452001F071F80F480F4B04614FF4E1395F
:102F40000C25C0E90039C0E90244C0E90554C46158
:102F500003F05AF9034688B1FFF79CFE003802409F
:102F60000010024000080240000C02400000024035
:102F7000000402406C37002000140140C448C54AD8
:102F8000C0F818804FF482744FF0100AC0E9023381
:102F9000C0E90433C0E907A3C0E90933C0E900244C
:102FA000C76202F049FD03460028D5D1BA48BB4AA2
:102FB000C0E90233C0E90433C0E90833C0E90A3785
:102FC000C0E90024C0E9068A02F036FD0346002865
:102FD000C2D1B348B34AC0F81880C0E9002408221F
:102FE000C0E90233C0E90436C0E90723C0E9093368
:102FF000C76202F021FD0028AED105F033FBAA48DC
:10300000AA4B036002F0F6FA07460028A4D1014655
:1030100014220DA808F082FFA54CA64B05977F202F
:10302000C4E90037FF23C4E902032046C4E904775A
:10303000A76102F029FB00288ED1CDE91000ADF880
:1030400034008DF8360032460DA9204602F075FB9B
:10305000002881D1984B0593324605A9204602F0FD
:10306000DDFB034600287FF477AF94489449954AE6
:103070000362C0E900124FF48042C0E90233C0E9A4
:103080000423C0E9063301F063FC034600287FF403
:1030900063AF8D488D4AC0E90233C0E90029C0E919
:1030A0000435C0E9063303F0AFF800287FF454AFCD
:1030B000874C884E05254FF4FA632046C4E9006525
:1030C000A36001F03CFF00287FF446AF01221146C7
:1030D000814807F075FF81484FF4807101F04AFA8A
:1030E0007F4B002840F0B38018707E4808F088FBC2
:1030F000C4E900654FF47A632046A36001F01FFF26
:1031000000287FF429AFFEF7BFFBFFF7AFFDFEF706
:10311000EDFBFFF715FBFEF7F9FB7048102101F0FE
:1031200029FA012840F0F0806F48704D704C684ECD
:1031300008F066FB6D4811220DA903F0B4FA284689
:1031400003F092FA202840F08C8002220DA905A8F5
:1031500008F0D4FC05A8FFF775FCDFF8A8A102224F
:103160000DF1370107468AF8000005A808F0C6FCF3
:1031700005A8FFF767FC02220DF13A0180468AF8A4
:10318000010005A808F0BAFC05A8FFF75BFC0222C5
:103190000DF13D0181468AF8020005A808F0AEFC59
:1031A00005A8FFF74FFC022210A904468AF8030085
:1031B00005A808F0A3FC05A8FFF744FC02220DF1C6
:1031C000430105468AF8040005A808F097FC05A805
:1031D000FFF738FCE4B2C6B2EDB28AF805005FFA38
:1031E00089F300945FFA88F2F9B242480296019599
:1031F00007F0E6FE002312224FF490710DA88DF81F
:103200004530FDF7FDFB4FF4907102463A48384CCB
:1032100007F0D6FE01224FF48051204601F0B0F9AC
:10322000642000F0A1FE00224FF48051204601F0FE
:10323000A7F9642000F098FE4FF4FA7000F094FEB5
:103240002E4808F0DDFA224801F0A0FEE2E7012254
:103250002B481A7008F0D4FAC4E9006540F6B83378
:103260004AE701224FF40041204601F089F9642029
:1032700000F07AFE00224FF40041204601F080F970
:10328000642000F071FE304601F080FE57E700BF79
:10329000F4370020003C0040A438002000300140FA
:1032A0004C380020003800401C390020000806502F
:1032B000FC3800200028004001050923383900208F
:1032C00000540040801A0600B0370020004400403F
:1032D0002C39002000300040E3D1000800080240F3
:1032E000053A002001D2000820D200086C370020E7
:1032F000000C024033D200085BD2000896D20008CE
:103300000FD20008D43600200020FEF76FFA042008
:10331000FEF76AFB1B4B1C491C481D4D1D4C01222E
:1033200004F064FDFEF726FA0223009300231A46F8
:1033300019461846FDF7F6F800F010FE16494FF44E
:103340007A72B0FBF2F20020FDF7D4FA13490020A4
:10335000FDF7D0FA002005F025F82B78012B0CD1D1
:103360002378012B02D10420FFF7D6FA2378002B13
:10337000F0D10420FEF780FBECE7094801F006FEDF
:10338000E8E700BF01000020D42E0020D426002052
:103390003B000020043A0020AED20008C2D2000850
:1033A0002C3900200FB400B5ADF5037D84AB4FF48C
:1033B000007153F8042B019302A807F081FF02A8C3
:1033C000FCF746FF4FF0FF3382B202A9044802F037
:1033D00049FF0DF5037D5DF804EB04B0704700BFB5
:1033E0006C3700202DE9F041DFF82C800E461546A1
:1033F0000C46A31B9D4202DC2846BDE8F081214615
:103400004FF6FF730122404602F02CFF2178002086
:103410000134FDF753F8ECE76C370020014B1860DE
:10342000704700BF083A002070B50B4E04460D46A9
:10343000306890F8513053B142F210732A46214659
:1034400002F056FB38B1BDE87040FFF723BC012005
:1034500000F08AFDECE770BD083A0020F7B51A4F7E
:1034600005460C4616463B6893F85130012B23D194
:10347000032316488DF804300421230C002264BA7B
:103480008DF80530ADF8064001F07AF804210DEB17
:103490000100FFF7C9FF38684FF47A7332462946B6
:1034A00002F0C3FC02280BD008480122042101F0DD
:1034B00067F8012003B0F0BD012000F055FDD2E710
:1034C000012000F051FDE6E7083A0020001002401C
:1034D00013B50A4C00222046042101F051F80623BE
:1034E00001A801218DF80430FFF79EFF012204217D
:1034F000204601F045F802B010BD00BF00100240A8
:1035000037B50A4C042500222046042101F038F882
:103510000DEB050001218DF80450FFF785FF012216
:103520002946204601F02CF803B030BD00100240BF
:1035300037B50523002214488DF8002004218DF8AA
:10354000043001F01DF8012101A8FFF76DFF0F4DB8
:103550002868C8230122694602F067FC02284FF060
:1035600001000ED000F000FD9DF8000010F00104F5
:10357000EED105480122042101F002F8204603B0F3
:1035800030BD00F0F1FCE3E700100240083A0020F3
:103590002DE9F743DFF8949007460C469046D9F89A
:1035A000003093F85130012BDEB239D1FFF790FF94
:1035B00002238DF80430230C64BA8DF80530ADF881
:1035C0000640FFF785FF18480022042100F0D8FFCD
:1035D00004210DEB0100FFF727FF0524D9F80000B7
:1035E0004FF47A734246394602F082FA02280546C1
:1035F00006D10520013C00F0B7FC14F0FF04EDD12A
:1036000001220421084800F0BBFFFFF791FFFFF7FC
:1036100077FF012D08BF0226304603B0BDE8F083D6
:10362000012000F0A1FCBAE700100240083A002097
:103630002DE9F04711F0FF0A05460F4614465FFAE0
:1036400082F81AD1FF2A2ED9140A4FF48072394613
:103650002846FFF79DFF0128064641D1013CA4B250
:1036600007F5807705F58075002CEED1B8F1000FD5
:1036700036D042463946284615E0CAF58079FF2AF9
:103680001FFA89F913D8C1450DD24A46FFF780FFCA
:103690000128064624D1A8F58072524492B209EB63
:1036A000070105EB0900BDE8F047FFF771BF4A4687
:1036B000FFF76EFF0128064612D1A4F580741AFAAE
:1036C00084F44D441FFA84F84F4404F47F442C449E
:1036D0007F1BA54205EB070105D118F0FF02CAD1F7
:1036E0003046BDE8F0874FF480722846FFF750FF60
:1036F000012802D105F58075EBE70646F0E70000EA
:1037000082B00C4B002100915A6C42F480425A6402
:103710005A6C02F480420092009A01911A6C42F0B5
:1037200080521A641B6C03F080530193019B02B01A
:10373000704700BF0038024030B5044689B01422FB
:10374000002103A808F0EAFB2268134B9A4221D11A
:10375000124C134800250195236B43F002032363A9
:10376000236B03F002030193019BC0221223CDE9D6
:10377000032303210423CDE9061303A900F022FE4D
:103780000295236C43F400132364236C03F40013A9
:103790000293029B09B030BD005400400038024043
:1037A000000402400268094B9A4282B00BD1002308
:1037B0000193074B5A6B42F040025A635B6B03F074
:1037C00040030193019B02B0704700BF0008065000
:1037D000003802401FB5044610220021684608F058
:1037E0009DFB2268094B9A420ED102230093684642
:1037F0004FF40073039301F065FE08B1FFF74AFA36
:10380000034B0122C3F83C2E04B010BD0028004039
:1038100000004742F0B504468DB01422002107A8ED
:1038200008F07CFB2368534A934223D1524B534800
:10383000002100915A6C42F480525A645A6C02F48E
:1038400080520092009A01911A6B42F001021A63B1
:103850001B6B03F001030193019BE0220223032170
:10386000CDE907230523CDE90A1307A900F0AAFD36
:103870000DB0F0BD424A934240D13F4B4148002237
:103880000292196C41F480411964196C01F4804171
:10389000029102990392196B41F004011963196BAB
:1038A00001F004010391039904921A6B42F00202A1
:1038B0001A631B6B03F002030493022603250524FD
:1038C000049B07A90423CDE907360127CDE90A5453
:1038D00000F078FD08232B480B9407A9CDE90736A3
:1038E000CDE9097500F06EFD4FF48063CDE9073630
:1038F000CDE9097524480B9407A9B7E7234A9342F9
:10390000B6D11D4B1F48002405941A6C42F40042A6
:103910001A641A6C02F400420592059A06941A6B16
:1039200042F004021A631B6B03F004030693069B28
:1039300002274FF480630326062507A9CDE9073740
:10394000CDE90A6500F03EFD4FF4C053CDE90737DD
:1039500007A901230B480B95CDE9093600F032FD8C
:1039600022462146332000F025FB332000F054FB93
:103970007EE700BF003001400038024000000240F6
:10398000003800400008024000040240003C0040B3
:1039900070B514228AB0064600210DEB020008F033
:1039A000BDFA33683A4A93422BD13A4B3A48002445
:1039B00001941A6C42F400321A641A6C02F4003258
:1039C0000192019A02941A6B42F001021A631B6B76
:1039D00003F001030293029B0C250223CDE905535A
:1039E00005A907230326CDE9086300F0EBFC262098
:1039F0002246214600F0DEFA262000F00DFB0AB038
:103A000070BD264A9342FAD1224B2548254C002509
:103A100003955A6C42F020025A645A6C02F020025C
:103A20000392039A04951A6B42F004021A631B6B0B
:103A300003F004030493049BC0220223CDE9052371
:103A400003210823CDE9081305A900F0BBFC1648A3
:103A50004FF02063C4E900034023C4E902354FF46A
:103A60008063C4E9043520464FF40033C4E90655A9
:103A7000C4E9083500F01AFB08B1FFF70BF9002282
:103A8000746347201146A66300F094FA4720B4E718
:103A90000044004000380240000002400014014091
:103AA000000802400C370020A0640240FEE7FEE759
:103AB000FEE7FEE7FEE7704770477047054A138848
:103AC0000BB1013B1380044A13880BB1013B1380F7
:103AD00000F038BA3C0600203A060020014802F007
:103AE0007DBC00BFB0370020014802F03DBA00BFE6
:103AF000F4370020014800F0A7BB00BF0C370020BE
:103B0000014802F06BBC00BF6C37002001207047F9
:103B100008B508F0C5F9162303604FF0FF3008BD63
:103B200008B508F0BDF916230360FEE770B50D4631
:103B300014460E46731B9C4201DC204670BDAFF359
:103B4000008006F8010BF5E74FF0FF3070474FF4A7
:103B500000534B60002070470120704700207047E1
:103B60000B4A116810B5034609B90A49116010687B
:103B700009490A4C0344091B8B4206D908F090F905
:103B80000C2303604FF0FF3010BD1360FCE700BF53
:103B90000C3A0020D846002000000220004000001F
:103BA000034AD2F8883043F47003C2F88830704773
:103BB00000ED00E030B59BB0054614A80C4603F0BC
:103BC0004DFD9DF8653013939DF8643012939DF878
:103BD000633011939DF8623010939DF85D300F9320
:103BE0009DF85C300E939DF85B300D939DF85A3034
:103BF0000C939DF861300B939DF860300A939DF80B
:103C00005F3009939DF85E3008939DF85930079313
:103C10009DF8583006939DF8573005939DF856301F
:103C200004939DF8553003939DF8543002939DF80A
:103C3000533001939DF8523000939DF850209DF829
:103C400051300349284608F011F820801BB030BDE0
:103C5000DDD2000870B50C46094906461546FCF74A
:103C600097FA40B107493046FCF792FA28B929463D
:103C70002046FFF79FFF012070BD0020FCE700BF3A
:103C80009CD30008A5D3000838B51649054603F0B3
:103C9000D3FF044600B30A2103F0A6FFC4B20F2CE1
:103CA0001CD82846104903F0C7FF054630B10A2149
:103CB00003F09AFFC5B2012D28BF012521460B480C
:103CC00007F07EF90A4B0B4833F81410012D0CBF96
:103CD0002A46002200F054FC60B238BD4FF0FF309D
:103CE000FBE700BFB5D30008B9D30008BDD3000877
:103CF00094000020000C0240F8B50E460C4907461F
:103D000015461C46FCF744FA68B10A493846FCF7E8
:103D10003FFA50B93046FFF7B7FF0749C2B228460D
:103D200007F0A4FF20800120F8BD0020FCE700BFC1
:103D30009CD30008E1D30008F2D300080A464FF4F0
:103D40007A730146014802F070B800BFA438002021
:103D500007B5FF238DF8073001224FF47A730DF178
:103D60000701044802F061F89DF8070003B05DF810
:103D700004FB00BFA43800200A464FF47A730146C2
:103D8000014801F0B5BE00BFA438002007B54FF4CC
:103D90007A738DF8070001220DF10701024801F046
:103DA000A7FE03B05DF804FBA438002002480122FE
:103DB0004FF4006100F0E4BB000C02400248002216
:103DC0004FF4006100F0DCBB000C024070B586B01F
:103DD000FFF7ECFF1C491D4803F0FEF91C491D4884
:103DE00003F008FA1C491D4803F016FA1C4B02AAFE
:103DF00003F11006154618685968144603C40833C1
:103E0000B3422246F7D12946012003F087FB013057
:103E100006D114480A22012107F0D2F806B070BD7D
:103E20000DF107010F2003F079FB013003D10E489B
:103E30000A220121F0E79DF80730002BF0D00B4853
:103E400007F0DEFCEAE700BFAD3D0008BD3D00081D
:103E50008D3D0008513D0008793D00083D3D0008BA
:103E6000ABC90008F5D3000811D400082CD4000811
:103E700070477047DFF834D00D480E490E4A0023D2
:103E800002E0D458C4500433C4188C42F9D30B4A0E
:103E90000B4C002301E013600432A242FBD3FFF776
:103EA0007FFE07F061F8FEF75BFF7047000002201D
:103EB000000000205C010020A03D010860010020FE
:103EC000D4460020FEE7000038B50E4B1A784FF4B8
:103ED0007A73B3FBF2F30C4A05461068B0FBF3F0BB
:103EE00000F0BAF8044658B90F2D09D80246294601
:103EF0004FF0FF3000F05EF8044B20461D6038BDE7
:103F00000120FCE7B300002090000020B400002056
:103F100008B50B4B1A6842F400721A601A6842F432
:103F200080621A601A6842F480721A60032000F0FE
:103F30002FF80F20FFF7C8FFFFF7E2FB002008BDB6
:103F4000003C0240034A044B11681B780B44136089
:103F5000704700BF103A0020B3000020014B1868E2
:103F6000704700BF103A002038B50446FFF7F6FF4F
:103F7000631C1CBF054B1B78054618BFE418FFF7F0
:103F8000EDFF431BA342FAD338BD00BFB3000020AE
:103F90000749CA6822F4E0620302120403F4E063F2
:103FA000120C134343F0BF6343F40033CB607047FC
:103FB00000ED00E0164B30B5DC68C4F30224C4F118
:103FC0000703251D042B28BF0423062D4FF0FF35C2
:103FD0008CBF033C002405FA03F321EA0303A54048
:103FE00022EA0502A340002843EA0203ACBF00F125
:103FF0006040084A4FEA0313B8BF00F00F00DBB27D
:10400000AABF00F56140135480F8003330BD00BFF3
:1040100000ED00E014ED00E0002807DB4109044A50
:1040200000F01F000123834042F82130704700BF99
:1040300000E100E0BFF34F8F0549064BCA6802F468
:10404000E0621343CB60BFF34F8F00BFFDE700BFBB
:1040500000ED00E00400FA050138B0F1807F0BD2DA
:104060004FF0E023054A5861F02182F82310002028
:10407000072298611A6170470120704700ED00E047
:10408000036810B5084C0246D9B210391820B1FBAC
:10409000F0F0205CD06523F47F7020F003005F29EE
:1040A00088BF0430906510BDE837010870B504463C
:1040B000FFF754FF0546002C60D0022384F835300A
:1040C0002268002384F83430136823F0010313605E
:1040D00022681368D8072ED413683248A1691840A3
:1040E000D4E901352B43E5682B4325692B436569EA
:1040F0002B43E5690B432B43256A2B430343606A3B
:10410000042802BFD4E90B5635432B43136053698F
:10411000042823F0070343EA000335D1A06AE56AC7
:1041200003438DB391B9012820D030F002012BD187
:10413000E90129D51DE0FFF711FF401B0528C7D96C
:1041400020230320636584F8350070BDB1F5005F5E
:1041500016D1032818D801A151F820F073410008A6
:1041600031410008734100086D410008B5F1C07F7E
:104170000AD140236365012384F835300120E4E748
:104180000228F6D90328D3D053612046FFF778FFE1
:10419000E26D3F239340836000200123606584F833
:1041A0003530D2E73F8010F070B50446866DFFF7DA
:1041B000D5FE94F83530022B054606D08023636582
:1041C0000120002384F8343070BD23681A6822F07F
:1041D00016021A605A6922F080025A61226C0AB9EA
:1041E000A26C1AB11A6822F008021A601A6822F04A
:1041F00001021A602368186810F0010007D1E26D0F
:104200003F239340B360012384F83530D9E7FFF7AB
:10421000A5FE401B0528EDD920230320636584F803
:104220003500CEE790F83530022B03D0802343656C
:10423000012070470268052380F83530136823F0A9
:104240000103136000207047F7B5002301935C4B16
:10425000856D1F68C36D2E6808229A40324204465D
:104260000CD001680868400708D5086820F00400F1
:104270000860AA60626D42F00102626501229A4004
:10428000324208D021684969090641BFAA60626DBF
:1042900042F00202626504229A40324208D021684C
:1042A0000968880741BFAA60626D42F00402626536
:1042B00010229A40324210D02368196809070CD5A1
:1042C000AA601A68500337D51B68190301D4236C00
:1042D00000E0A36C0BB120469847E16D20228A4094
:1042E00032423AD023681868C60636D5AA6094F8D8
:1042F0003520052A1A6827D122F016021A605A6959
:1043000022F080025A61226C0AB9A26C1AB11A68B2
:1043100022F008021A603F238B40AB60012384F82F
:104320003530002384F83430236D002B45D02046EF
:1043300003B0BDE8F04018471A68D2055EBF1A689E
:1043400022F008021A60C2E7500327D51B68190340
:1043500031D4636C0BB120469847636D6BB3636DCA
:10436000DA0719D522684FF41653B7FBF3F7052384
:1043700084F83530136823F001031360019B013387
:10438000BB42019302D81368DB07F7D4012384F8FA
:104390003530002384F83430E36CC6E71A6812F431
:1043A000807208D1196821F010011960012384F886
:1043B000353084F83420E36BCCE703B0F0BD00BFA8
:1043C000900000202DE9F74FDFF8A491664A002302
:1043D0000D6801249C4004EA0506AC4340F0AF8020
:1043E0004D68032705F003044FEA430807FA08FC69
:1043F000671E012F6FEA0C0C34D8876807EA0C0E91
:10440000CF6807FA08F747EA0E078760476827EA88
:10441000060EC5F300179F4047EA0E074760C768BE
:1044200007EA0C0E8F6807FA08F747EA0E07022C16
:10443000C76019D14FEAD30A00EB8A0A03F0070BD1
:10444000DAF820704FEA8B0B4FF00F0E0EFA0BFECE
:1044500027EA0E0E0F6907FA0BF747EA0E07CAF8AC
:10446000207001E0032CDAD1076804FA08F407EAA7
:104470000C073C4315F4403F046060D000240194D5
:10448000D9F8444044F48044C9F84440D9F8444041
:1044900023F0030707F1804704F4804407F59C37B5
:1044A000019403F0030C019CD7F808E04FEA8C0C50
:1044B0000F2404FA0CF42EEA040E2C4CA04245D032
:1044C00004F58064A04243D004F58064A04241D04A
:1044D00004F58064A0423FD004F58064A0423DD042
:1044E00004F58064A0423BD004F58064A04239D03A
:1044F00004F58064A04214BF0824072404FA0CF4D5
:1045000044EA0E04BC601468F74315F4803F0CBF06
:104510003C4034431460546815F4003F0CBF3C40E9
:1045200034435460946815F4801F0CBF3C403443FE
:104530009460D468AD0254BF3C403443D46001332E
:10454000102B7FF445AF03B0BDE8F08F0024D5E712
:104550000124D3E70224D1E70324CFE70424CDE7E5
:104560000524CBE70624C9E7003C014000000240D7
:10457000003802400369194214BF0120002070472F
:104580000AB1816170470904FBE701684B6913F4C4
:1045900080634FF0000210D06FF480634B612023E2
:1045A000026380F83D3080F83E20036C80F83C20A8
:1045B00043F00403036401207047184670472DE957
:1045C000F84606460F4691461D464FEA114A3368A3
:1045D000BAF1010F0CBF5C699C6927EA0404A4B21C
:1045E000B4FA84F46409A14501D0002017E06A1CE4
:1045F000EED0FFF7B3FC089BC01AA84201D8002DEB
:10460000E5D100232022336386F83D2086F83E3032
:10461000326C86F83C3042F0200232640120BDE862
:10462000F8862DE9F04104460F461646984625685F
:10463000686927EA000080B2C0B16B695A0517D5D6
:104640002B6843F400732B606FF480636B6120224E
:104650000023236384F83D2084F83E30236C43F02C
:1046600004032364002384F83C300120BDE8F0817A
:10467000731CDDD0FFF772FCA0EB0800B04209D933
:1046800000232022236384F83D2084F83E30236CED
:104690001343E6E7002ECAD1F2E770B504460D4693
:1046A000164623685B691B0601D5002018E02046EA
:1046B000FFF76BFF98B96A1CF3D0FFF74FFC801B24
:1046C000A8420ED900232022236384F83D2084F8D9
:1046D0003E30226C84F83C3042F0200222640120FB
:1046E00070BD002DDDD1EDE72DE9F04315460268E0
:1046F00085B0DDE90C789946136843F48073136044
:104700000E463B46CDF8008000224FF001110446D2
:10471000FFF755FF236838B11B68DB0502D54FF45E
:1047200000732364032620E006F0FE061E611A498A
:1047300043463A462046FFF774FFA8B92368039022
:104740005A6903929B690393424639462046039B6C
:10475000FFF7A3FF064660B1236C042B01BF22685C
:10476000136843F4007313600126304605B0BDE8BA
:10477000F083B9F1010F236802D1EDB21D61F4E7B6
:104780002A0A1A61394642462046FFF786FF00286A
:10479000E2D12368F1E700BF020001002DE9FF47E5
:1047A0009A46036815461A6842F480621A601A68CD
:1047B000DDE90C7842F480721A600E463B46CDF873
:1047C000008000224FF001110446FFF7F8FE236835
:1047D00038B11B68DB0544BF4FF40073236403202A
:1047E00021E05FFA86F906F0FE061E612B4943467A
:1047F0003A462046FFF715FFA0B9236803905A698F
:1048000003929B690393424639462046039BFFF778
:1048100044FF58B1236C042B01BF2268136843F492
:1048200000731360012004B0BDE8F087BAF1010FF6
:1048300023681AD1EDB242461D6139462046FFF782
:104840002CFF02460028E5D121680B6843F48073F1
:104850000B602046CDF800803B464FF00111FFF77A
:10486000AEFE226860B11368B4E72A0A1A613946BD
:1048700042462046FFF711FF0028CBD12368D9E735
:1048800049F001031361054943463A462046FFF7C4
:10489000C8FE003818BF0120C5E700BF02000100B4
:1048A00070B504460D46164623685B695B0701D563
:1048B000002018E02046FFF768FE98B96A1CF3D084
:1048C000FFF74CFB801BA8420ED900232022236354
:1048D00084F83D2084F83E30226C84F83C3042F06D
:1048E00020022264012070BD002DDDD1EDE770B5FE
:1048F00004460D46164621684B6913F0400301D06B
:10490000002011E04A69D2060FD56FF010024A610B
:104910002022236384F83D2084F83E30236C2364F6
:10492000002384F83C30012070BDFFF717FB801B8B
:10493000A84209D900232022236384F83D2084F86B
:104940003E30236C1343EAE7002DD4D1F2E7000098
:1049500070B5044608B9012070BD90F83D3003F0F1
:10496000FF021BB980F83C20FEF7E6FE242384F802
:104970003D3023681A6822F001021A601A6842F476
:1049800000421A601A6822F400421A6000F07AFDB0
:104990003F4B65689D4294BF3E4B3F4B98428CBF56
:1049A00000230123002BD6D12268394E51683B4B9E
:1049B000B0FBF3F321F03F011943B542516088BFCA
:1049C0004FF49676116A88BF734321F03F0184BF8C
:1049D0004FF47A76B3FBF6F301330B431362D169DC
:1049E000431E2B4821F44F41854221F0FF0132D86C
:1049F0006D0040F6FC70B3FBF5F30133034242D087
:104A0000C3F30B031943D161D4E9073011680343A1
:104A100021F0C0010B4313609168D4E9030321F432
:104A20000341034321F0FF010B439360D4E90530B8
:104A3000D168034321F0FF010B43D360136843F0B7
:104A40000103136000202023206484F83D3020639C
:104A500084F83E0080E7A06850B905EB4505B3FB3C
:104A6000F5F30133C3F30B037BB143F40043C9E710
:104A700019206843B3FBF0F30133C3F30B0323B1F5
:104A800043F44043BEE70423BCE70123BAE700BF79
:104A9000A08601007F841E00FF083D0040420F00F9
:104AA0002DE9F743044699460C9E0F469046FFF7C2
:104AB00055FA94F83D30202B054603D0022003B070
:104AC000BDE8F08300903C49192301222046FFF7FE
:104AD00076FD0028F2D194F83C30012BEED020680E
:104AE000012384F83C300368D9075EBF036843F0B4
:104AF00001030360036823F400630360212384F847
:104B00003D30402384F83E30002323640A9B6362D7
:104B1000BDF82C306385638D2385284BE3624246C4
:104B2000CDE900654B4639462046FFF7DDFD0028FC
:104B30002AD00120C3E7FFF7B0FD40B1236C042B5E
:104B400001BF2268136843F400731360F1E7636ADE
:104B500027681A4612F8011B39616262628D218D45
:104B6000013A92B262857A69481E80B25207208566
:104B70000AD548B15A783A6102336362638D013BCA
:104B800002399BB221856385238D2A463146204612
:104B9000002BD0D1FFF784FE0028CFD12268136804
:104BA00043F400731360202384F83D3084F83C0004
:104BB00084F83E0083E700BF020010000000FFFF02
:104BC0002DE9F043044687B09946109F0D46904664
:104BD000FFF7C4F994F83D30202B064604D0022597
:104BE000284607B0BDE8F0830090764919230122DA
:104BF0002046FFF7E4FC0028F1D194F83C30012B6B
:104C0000EDD02068012384F83C300368DB075EBFE9
:104C1000036843F001030360036823F40063036047
:104C2000222384F83D30402384F83E30002323645F
:104C30000E9B6362BDF83C306385638D2385624BB8
:104C4000E3622946CDE900764B4642462046FFF70F
:104C5000A5FD054608B10125C2E7228D2368B2B93A
:104C600002905A6902929A690292029A1A6842F470
:104C700000721A60DFF85481238D002B2CD1202282
:104C800084F83D2084F83C3084F83E30A8E7012ABF
:104C90000AD11A6822F480621A6003905A6903925A
:104CA0009A690392039AE1E7022A0ED11A6822F464
:104CB00080621A601A6842F400621A6004905A69AD
:104CC00004929B690493049BD4E705905A6905926A
:104CD0009B690593059BCDE7032B56D8012B15D176
:104CE000324639462046FFF702FE0028B3D123683A
:104CF0001A69636A1A70636A01336362238D013B28
:104D00002385638D013B9BB26385B5E7022B00963B
:104D10003B464FF000024146204619D1FFF74FFCB9
:104D2000002898D123681A6842F400721A601A6940
:104D3000636A1A70626A531C6362238D013B238588
:104D4000638D013B9BB2638523681B695370D2E777
:104D5000FFF735FC024600287FF47DAF2368196811
:104D600021F4806119601969636A1970636A0133FB
:104D70006362238D013B2385638D013B9BB2638579
:104D8000414600963B462046C8E732463946204613
:104D9000FFF7ADFD00287FF45EAF23681A69636AF0
:104DA0001A70626A531C6362238D013B2385638DF5
:104DB000013B9BB263852368596949077FF55CAF66
:104DC000C3E700BF020010000000FFFF0400010065
:104DD0002DE9F04F044685B01E460F469146FFF779
:104DE000BDF894F83D30202B054603D0022005B0D5
:104DF000BDE8F08F00904F49192301222046FFF7AC
:104E0000DEFB0028F2D194F83C30012BEED00123D8
:104E100084F83C302368DFF81CB11A68D0075EBF05
:104E20001A6842F001021A601A6822F400621A60DD
:104E3000242384F83D3000232364A3F58033E36208
:104E40004FF0010A07F0FE072268136843F48073ED
:104E500013604FF001113346009500222046FFF702
:104E6000AEFB236838B11B68D90544BF4FF400730B
:104E700023640320BBE71F61FFF770F823685A69BA
:104E80005B690546C2F34002C3F380234FF0A008DC
:104E900094F83D10A0291CD123684FF0200884F815
:104EA0003D805A6992072BD51A68224942F4007254
:104EB0001A60002203925A6903929B690393039B31
:104EC0000095192301222046FFF779FB98B10120B4
:104ED0008DE71343E0D1FFF741F8401BB04200D803
:104EE0000EB984F83D8023685A695B69C2F34002B9
:104EF000C3F38023CCE784F83D8084F83C0076E758
:104F00001A6842F400721A606FF480625A6159465E
:104F10000095192301222046FFF751FB0028D6D126
:104F20000AF1010ACA458FD384F83D8084F83C0019
:104F3000CDE700BF0200100090F83D00704738B583
:104F4000044608B303684CF6CC421A6045F2555249
:104F50001A6042685A6082689A60FEF7FFFF054651
:104F60002268D06810F0030003D14AF6AA23136028
:104F700038BDFEF7F3FF401B3128F1D92368DB6809
:104F80009B07EDD00320F3E70120F1E703684AF621
:104F9000AA221A60002070472DE9F341044640B36D
:104FA0000368DE0710D423689D075BD423681907C4
:104FB00000F19D8023685A0700F1BD80A369002B92
:104FC00040F0248100202CE08D4B9A6802F00C0206
:104FD000042A07D09A6802F00C02082A0BD15B68F9
:104FE000590208D5864B1B689A03DCD56368002BF1
:104FF000D9D1012015E06368814DB3F5803F13D10D
:105000002B6843F480332B60FEF7A8FF7C4E0546E7
:1050100033689B03C7D4FEF7A1FF401B6428F7D970
:10502000032002B0BDE8F081B3F5A02F04D12B68B6
:1050300043F480232B60E3E72A6822F480322A605D
:105040002A6822F480222A60002BDDD1FEF786FF39
:1050500006462B689F03A6D5FEF780FF801B6428B9
:10506000F7D9DDE7664B9A6812F00C0F07D09A6803
:1050700002F00C02082A11D15B685D020ED4604A6E
:105080001368990702D5E368012BB2D1136821692F
:1050900023F0F80343EAC103136087E7E268594B42
:1050A000B2B101221A60FEF759FF554D06462B6832
:1050B0009B0707D52B68226923F0F80343EAC20354
:1050C0002B6073E7FEF74AFF801B0228EFD9A7E7A2
:1050D0001A60FEF743FF4A4E054633689F077FF587
:1050E00065AFFEF73BFF401B0228F6D998E76269DF
:1050F000444B82B10122C3F8802EFEF72FFF404EB1
:105100000546736F9B073FF555AFFEF727FF401B22
:105110000228F6D984E7C3F8802EFEF71FFF384E29
:105120000546736F9F077FF545AFFEF717FF401BDE
:105130000228F6D974E7324B1A6C12F0805228D14B
:1051400001921A6C42F080521A641B6C03F0805377
:105150000193019B01272C4D2B68D8051BD5A36813
:10516000274D012B27D12B6F43F001032B67FEF74F
:10517000F5FE234E054641F28838336F9A0739D53C
:10518000002F3FF41BAF1E4A136C23F080531364AF
:1051900014E70027DFE72B6843F480732B60FEF7EA
:1051A000DDFE06462B68D905D9D4FEF7D7FE801B55
:1051B0000228F7D934E7052B04D12B6F43F0040301
:1051C0002B67D0E72A6F22F001022A672A6F22F0AC
:1051D00004022A67002BCAD1FEF7C0FE41F28838CC
:1051E00006462B6F9B07CBD5FEF7B8FE801B4045CC
:1051F000F7D915E7FEF7B2FE401B4045BDD90FE7D2
:10520000003802400000474200700040374DAA6855
:1052100002F00C02082A3ED0022B354B4FF0000260
:105220001A662BD1FEF79AFE06462B6899011FD409
:10523000D4E907321343626A43EA8213E26A43EA1B
:105240000263A26A5208013A43EA02436B60284BA8
:10525000264D01221A66FEF781FE04462B689A014C
:105260003FF5B0AEFEF77AFE001B0228F6D9D7E66E
:10527000FEF774FE801B0228D7D9D1E6FEF76EFE3A
:1052800004462B689B017FF59DAEFEF767FE001B71
:105290000228F6D9C4E6012B3FF4ABAE6B68E26995
:1052A00003F4800191427FF4A4AE216A03F03F022F
:1052B0008A427FF49EAE616A47F6C0721A40B2EB32
:1052C000811F7FF496AEA26A520803F44031013A7E
:1052D000B1EB024F7FF48DAEE26A03F07063B3EB83
:1052E000026F14BF012000209BE600BF003802407F
:1052F00000004742134908B58B6803F00C03042BE8
:105300001CD0082B1CD14A684B68496813F48003F1
:1053100014BF0D480D48C1F3881118BF002302F0D7
:105320003F02A1FB0001FAF79BFF064B5B68C3F34A
:10533000014301335B00B0FBF3F008BD0248FCE71A
:105340000248FAE700380240404B4C000024F400C9
:105350002DE9F0410D46044610B90120BDE8F08169
:10536000434B1A6802F007028A4228D321688F074C
:105370002DD4C80740D43E4B1A6802F00702AA4257
:1053800065D8226851076BD4130707D5394A2169BC
:10539000936823F4604343EAC1039360FFF7AAFFD5
:1053A000344B354A9B68C3F30313D35CD840334B6B
:1053B0001860334B1868FEF787FD0020CEE7CAB2AD
:1053C0001A701B6803F007038B42C6D1CEE7294B46
:1053D00011F0040F1EBF9A6842F4E0529A600E0763
:1053E00042BF9A6842F460429A609A68A06822F0CC
:1053F000F00202439A60BCE762681E4B012A1CD18E
:105400001B6813F4003FA8D01A4EB36823F00303BF
:105410001343B360FEF7A2FD41F288380746B36834
:10542000626803F00C03B3EB820FA4D0FEF796FD85
:10543000C01B4045F3D9032090E7911E01291B684A
:1054400002D813F0007FDEE713F0020FDBE7EAB2C9
:105450001A701B6803F00703AB427FF47EAF90E73E
:105460000449E0688B6823F4E05303438B608BE7C7
:10547000003C024000380240D8370108900000206C
:10548000B4000020044B054A9B68C3F38223D35C1D
:10549000034A1068D840704700380240D0370108EE
:1054A00090000020044B054A9B68C3F34233D35C51
:1054B000034A1068D840704700380240D0370108CE
:1054C00090000020036813F0050FF7B5044605D1DE
:1054D00023689B072AD4002003B0F0BD424B434E03
:1054E00000229A66FEF73AFD054633681F0116D47E
:1054F000D4E901231B0743EA8213C6F884303A4BF0
:105500003A4E01229A66FEF729FD054633681801D6
:10551000DED4FEF723FD401B0228F7D904E0FEF796
:105520001DFD401B0228E0D90320D5E7002301938D
:105530002E4B2F4D1A6C42F080521A641B6C03F0F4
:1055400080530193019B2B6843F480732B60FEF71B
:1055500005FD06462B68D9051BD5244DE2682B6F47
:1055600013F440731BD1E36803F44072B2F5407F3B
:105570001E4A34D1916823F0704021F4F81120F4D0
:10558000407001439160116FC3F30B030B4313672A
:10559000A1E7FEF7E3FC801B0228DBD9C4E702F495
:1055A00040729342DFD02B6F0F4A0121C2F8401E98
:1055B00023F440730021C2F8401E2B672B6FDA07DB
:1055C000D1D5FEF7CBFC41F2883706462B6F9B07FF
:1055D000C9D4FEF7C3FC801BB842F7D9A4E7916891
:1055E00021F4F811CEE700BF000047420038024026
:1055F0000070004010B5044690B1437903F0FF02FB
:1056000013B90271FEF7CEF82268022363711368A2
:1056100043F004031360002001236371A06010BDF8
:105620000120FCE7026838B5D36823F0A003D360FB
:105630000446FEF793FC05462368DB689B0601D50C
:10564000002038BDFEF78AFC401BB0F57A7FF3D905
:105650000320F6E738B50368DA685206044601D538
:10566000002038BD4FF0FF32DA60FEF777FC0546C8
:105670002368DB685B06F3D4FEF770FC401BB0F5D3
:105680007A7FF5D90320ECE738B50446B8B1437FFB
:1056900003F0FF0213B90277FEF79CF80223637749
:1056A0002368CA225A6253225A622046FFF7D2FF69
:1056B0002368054630B1FF225A620423637701252F
:1056C000284638BD9A68206922F4E00222F04002A0
:1056D0009A60626899680243606902430A439A606B
:1056E000E2681A611A69A16842EA01421A61DA683D
:1056F00022F08002DA609B689B0605D42046FFF703
:1057000091FF08B12368D6E72368A1691A6C22F4D7
:1057100080221A641A6C0A431A64FF225A62012317
:105720006377CDE70023092803D840EA0310C0B20D
:1057300070470A380133C0B2F5E72DE9F041037F25
:10574000012B05460E464FF002072ED00168477721
:105750000123037730787478B7788B6842BB13F0F5
:10576000400308BFF370FFF7DDFF80462046FFF7D8
:10577000D9FF04463846FFF7D5FFF37840EA0343E4
:1057800043EA084343EA0424CA234B6253234B628F
:105790002846FFF75FFF2A680746A8B1FF23536238
:1057A00004236B7700232B7701273846BDE8F0816F
:1057B00013F0400308BFF3702402F37844EA004476
:1057C0003C4344EA0344DFE704F07F3424F0FE4422
:1057D0001460936823F480239360D6E903309168C2
:1057E00003430B439360D36823F08003D360946832
:1057F00014F020040AD12846FFF714FF30B12B68BB
:10580000FF225A6204236B772C77CDE72B68FF22A7
:105810005A6201236B7700232B77C6E7F8B5037F25
:10582000012B05464FF002061FD001230377467770
:105830000E78C8784C788F787603C2B146EA004378
:105840003B4343EA04242B68CA225A6253225A6219
:105850002846FFF7FFFE2A680646F8B1FF23536289
:1058600004236B7700232B7701263046F8BDE3062F
:1058700042BF24F010040A344C70FFF753FF044673
:105880004878FFF74FFF02463846FFF74BFF40EAE4
:10589000060343EA044343EA0224D4E724F07F44A6
:1058A00024F0C0045460D36823F08003D36094686C
:1058B00014F020040AD12846FFF7B4FE30B12B685B
:1058C000FF225A6204236B772C77CDE72B68FF22E7
:1058D0005A6201236B7700232B77C6E72DE9F3414A
:1058E0001C4616460F460546FEF738FB3444241A7C
:1058F000FEF734FB244B1B68C3F3CB336343804672
:1059000001932A68936837EA030301D000202EE050
:10591000731CF7D0FEF722FBA0EB0800A04229D3AE
:105920002B685A6822F0E0025A606A68B2F5827FFA
:105930000AD1AA68B2F5004F02D0B2F5806F03D148
:105940001A6822F040021A60AA6AB2F5005F07D115
:105950001A6822F400521A601A6842F400521A605F
:10596000012385F85130002385F85030032002B020
:10597000BDE8F081019A019B002A03F1FF330193F6
:1059800008BF1446BDE700BF9000002038B513469D
:105990004268B2F5827F044606D00A460121FFF72D
:1059A0009DFFB8B9002038BD8268B2F5004F02D023
:1059B000B2F5806F07D125682868B2F5806F20F0B6
:1059C0004000286003D00A4680212046E7E70A46C7
:1059D0000121FAE7636D43F0200363650320E2E7EA
:1059E00037B51346124A1568124AB5FBF2F54FF463
:1059F0007A72554342680195B2F5827F04460BD115
:105A00000A468021FFF76AFF78B1636D43F02003F7
:105A10006365032003B030BD019B33B1019B013BA3
:105A2000019323689B681B06F6D40020F2E700BFB1
:105A30009000002000366E0110B50446002855D0B5
:105A4000436A002B4ED14268B2F5827F00D0C36119
:105A50000023A36294F8513003F0FF0223B984F8C5
:105A600050202046FDF7D6FE2168A068A2690223D7
:105A700084F851300B6823F040030B60636800F436
:105A8000044003F482730343E06800F400600343BE
:105A9000206900F002000343606900F00100034345
:105AA00002F400700343E06900F038000343206A09
:105AB00000F080000343A06A00F4005003430B6031
:105AC000636A120C03F0100302F004021A434A60E6
:105AD000CB6923F40063CB6100200123606584F867
