:020000040800F2
:1000000000000220B53D0008ED390008EF39000876
:10001000F1390008F3390008F53900080000000044
:10002000000000000000000000000000F739000898
:10003000F939000800000000FB390008FD3900080C
:10004000053E0008053E0008053E0008053E000884
:10005000053E0008053E0008053E0008053E000874
:10006000053E0008053E0008053E0008053E000864
:10007000053E0008053E0008053E0008053E000854
:10008000053E0008053E0008053E0008053E000844
:10009000053E0008053E0008053E0008053E000834
:1000A000053E0008053E0008053E0008053E000824
:1000B000053E0008053E0008053E0008053E000814
:1000C000053E0008053E0008053E0008053E000804
:1000D000053E0008053E00081D3A0008053E0008E0
:1000E000053E0008053E0008053E0008053E0008E4
:1000F000053E0008053E0008053E0008053E0008D4
:10010000053E0008053E0008053E0008293A0008A3
:10011000053E0008053E0008053E0008053E0008B3
:10012000053E0008053E0008053E0008053E0008A3
:10013000053E0008053E0008053E0008053E000893
:10014000053E0008053E0008053E0008053E000883
:10015000053E0008353A0008053E0008413A00080F
:10016000053E0008053E0008053E0008053E000863
:10017000053E0008053E0008053E0008000000009E
:08018000053E0008053E0008E1
:1001900010F8012B11F8013B012A28BF9A42F7D031
:1001A000D01A7047000000000000000000000000AE
:1001B00001F0FF01102A2BDB10F0070F08D010F818
:1001C000013B013A8B422DD010F0070F42B3F6D11C
:1001D000F0B441EA012141EA014122F007047FF035
:1001E00000070023F0E80256083C85EA010586EA8C
:1001F000010685FA47F5A3FA87F586FA47F6A5FAC8
:1002000087F68EB9EED1F0BC01F0FF0102F00702D3
:1002100032B110F8013B013A83EA010313B1F8D17E
:100220000020704701387047002D06BF354603385F
:10023000073815F0010F07D1013015F4807F02BF98
:10024000013015F4C03F0130F0BC0138704700BFE9
:10025000034613F8012B002AFBD1181A0138704706
:1002600053B94AB9002908BF00281CBF4FF0FF311D
:100270004FF0FF3000F00CB8ADF1080C6DE904CE82
:100280000CF040F9DDF804E0DDE9022304B070472A
:10029000704700BF0348044B834202D0034B03B1B5
:1002A000184770475C0100205C010020000000003E
:1002B0000548064B1B1AD90F01EBA301491002D0C8
:1002C000034B03B1184770475C0100205C0100201C
:1002D0000000000010B5064C237843B9FFF7DAFFA1
:1002E000044B13B10448AFF300800123237010BD09
:1002F0006001002000000000C0C7000808B5054BE1
:100300001BB105490548AFF30080BDE80840FFF781
:10031000CFBF00BF0000000064010020C0C700087C
:100320000369C26893429CBF81685B18013B981ABD
:1003300070472DE9F041D0E902840546A8EB040698
:100340004068964220440F46144406D90BF078FAD0
:10035000BFF35F8FEC60BDE8F0813246A4EB080488
:100360000BF06EFA68682246B919EFE72DE9F843F9
:10037000C5680646894617464FF000083369B468D9
:1003800070689D4228BF1B19641BBC4203F1FF33F8
:1003900028BF3C465B1B9C4228BF1C464946224660
:1003A00028440BF04DFAB3682544A044A1443F1BF8
:1003B000AB4208BF0025BFF35F8FF560002FDDD192
:1003C0004046BDE8F883000008B5144BA822002180
:1003D00018460BF00FFD0322026111494261114AD8
:1003E0008161C2614FF480620262002282624262D5
:1003F000C26201660C4941661021816603460267AC
:10040000C2664267BFF35F8F084911F8010D985427
:100410000132102AF9D1BFF35F8F08BD900500208B
:10042000A4C900088D0100207D01002021E0000802
:10043000F8B5144B182700FB07751D4407FB003364
:100440000E46DB6A012B14460AD0022B14D023B9C6
:100450002846FFF765FF844208D900242046F8BDEE
:100460002846FFF75DFF844228BF044622463146F6
:100470002846FFF75EFFF1E72846BDE8F840FFF7A2
:1004800075BF00BF90050020F8B50B4B1B780446E4
:100490000D4616460BB9FFF797FFEFF311874FF0A4
:1004A000200181F31188324629462046FFF7C0FF1C
:1004B00087F31188F8BD00BF90050020F8B5184CEF
:1004C000237805460E460BB9FFF77EFFEFF3118741
:1004D0004FF0200181F31188182202FB0542506A77
:1004E000116A431C994208BF0023D16A022902D134
:1004F000916A9942FBE7182202FB0541D1F828C016
:100500009C450BD005FB0222144462681654BFF3CD
:100510005F8F01204B6287F31188F8BD0020FAE756
:10052000900500202DE9F041154C1E462378054624
:10053000884617460BB9FFF747FF022D1DD8EFF38A
:10054000118C4FF0200181F3118865B1182005FB53
:100550000003E21844F80380576000FB05420023C3
:10056000166293625362182303FB0544069BE36201
:100570008CF311880020BDE8F0814FF0FF30FAE7DE
:100580009005002073B51C4D2B7804460BB9FFF77E
:100590001BFFFF230F2C8DF8043029D8174B1B5D50
:1005A0008DF80530EFF311864FF0200181F31188AB
:1005B000EA6A02F00302022A0AD1114B11481C70A8
:1005C00001A9FFF7D3FE002086F3118802B070BDA9
:1005D0000C48FFF7A5FE012807D9094B09481C70F4
:1005E000022201A9FFF7A5FEEDE74FF0FF30EBE790
:1005F0004FF0FF30EAE700BF9005002022E000083E
:100600007C010020A8050020826810B504464068DF
:10061000531C834205D820688154A360E3680133EA
:10062000E360D4E901329A420BD121682069FFF7D7
:100630002BFFA368984215BF4FF0FF330023E36000
:10064000A36010BD2DE9F84F9946DDE90A4316462F
:10065000054688460A464FF0010AB24212D2CA4500
:1006600038BFCA4613F0010B01D184B90024EB68EE
:10067000002B3DDB0127B9F1010F1FD909F1FF392B
:100680007743F8E70AF1010AB2FBF6F2E5E79B07C8
:1006900012D5B9F1000F0CBF30272027A245E6D2B2
:1006A00039462846FFF7B0FFEB68002B04F1FF3412
:1006B000DDDB002CF2D1D9E72027EFE7B8FBF7F319
:1006C0009E42DDD9DFF84890B8FBF7F3284619F8C9
:1006D000031007FB1388FFF797FFEB68002B03DB82
:1006E000B7FBF6F3B74205D2BBF1000F00D064B9F7
:1006F000BDE8F88F1F46E7E720212846FFF784FF73
:10070000EB68002B04F1FF34F2DB5445F4D8EFE73B
:1007100032E000082DE9F04F00239BB00E46402147
:10072000CDE90613CDE908300DF1280A03901546EE
:10073000CDF814A016F8011B39B9089D002D00F35F
:10074000108108981BB0BDE8F08F252940F0BA80D1
:100750004FF0000B314611F8013B2D2B18D012D869
:10076000232B1CD02B2B17D00024314611F8013B32
:10077000A3F13000092815D80A2202FB0433A3F1A3
:1007800030040E46F1E7302BEED14BF0020B01E0C6
:100790004BF0010B0E46DDE74BF0040BFAE74BF094
:1007A000080BF7E72E2B11D10E464FF000090A2750
:1007B000304610F8011BA1F1300CBCF1090F07D82D
:1007C00007FB0911A1F130090646F1E74FF00009D6
:1007D000304610F8011B01F0FB07682F0646F8D0E1
:1007E000782909D86F290BD8632967D020D8252903
:1007F00068D0582900F09580089B002B9ADA9CE776
:1008000070390829F8D801A050F821F053090008E0
:10081000F9070008F907000833090008F90700087C
:1008200011090008F9070008F90700082309000862
:100830006429E1D129680F68081D87EAE7712860FB
:10084000A1EBE7714FF001080A2009293EDCC845F9
:1008500038BFC8462CB1002F02DB1BF0040F00D0BC
:10086000013C1BF0020F02D0B9F1000F04D01BF0C5
:10087000010F01D17CBB002408990029BCDB002FAB
:1008800035DA7F422D2105A8FFF7BEFE0899002921
:10089000B2DB0BF00301022904D1B9F1000F01D141
:1008A00054BB002408990029A6DBCDE9004B4B4638
:1008B0000A22394605A8FFF7C5FE9DE72B681A1DD9
:1008C00019782A6005A8FFF79FFE95E708F101084F
:1008D000B1FBF0F1B9E7A045CED2202105A8FFF782
:1008E00093FE0899002904F1FF34C3DAC4E71BF032
:1008F000040FCED02B21C6E7A045D3D2302105A8C6
:10090000FFF782FE0899002904F1FF34C8DAC9E72D
:100910002968081D2860CDE9004B4B460A2209686A
:10092000C8E72968081D2860CDE9004B4B46102216
:10093000F5E72B681A1D2A601C6814F8011B0029B2
:100940003FF45AAF05A8FFF75FFE089B002BF4DACF
:1009500052E729680B1D2B6000220823CDE90032E5
:10096000E5E7079C24B1039822465146FFF78CFD2A
:100970002C440894E5E600BF0EB403B503AB01AA0E
:1009800053F8041B0193FFF7C5FE02B05DF804EBBA
:1009900003B0704770470000F0B5044685B00D46BF
:1009A00016461F460A4804F067FA20280CD14FF07B
:1009B000FF33CDE90173009601232A4621460448FE
:1009C00004F09EF805B0F0BD0A2003F06DFAE9E7E7
:1009D00040390020F0B5044685B00D4616461F4646
:1009E0000D4804F049FA2028FAD14FF0FF33CDE941
:1009F00001732A46084800960123214603F0F0FFC0
:100A0000054D4FF0FF3301222146284604F080F9BE
:100A10000028F6D105B0F0BD4039002008B5138894
:100A2000054A13800246A020FFF7B6FF10B1FFF77A
:100A3000B1FF012008BD00BF3A0600200A464FF46E
:100A400096730146014804F063B900BF40390020A5
:100A500013460B4A10B513700246A020FFF7BAFFE9
:100A6000044610B1FFF796FF012440F6B831A020EC
:100A7000FFF7E4FF10B1FFF78DFF0124204610BD02
:100A8000380600202DE9F84F11F00F0705460C46F7
:100A90001646C2F307185FFA82FA02F00F0B1DD157
:100AA000B8F1000F01D15A462FE010222146284606
:100AB000FFF7CEFF60B908F1FF38103418F0FF08D7
:100AC000A4B205F11005F0D1BBF1000F02D1002056
:100AD000BDE8F88F5A462146284616E05FFA87F9A6
:100AE000C7F11007FFB2B8F1000F12D19742DAD266
:100AF0003A46FFF7ADFF0028EAD1AAF1100A09EB48
:100B00000A023919D2B289B2E819BDE8F84FFFF7E5
:100B10009FBF3A46FFF79CFF0028D9D1F61B3D4402
:100B20003C441FFA86F8641B06F47F662E44A4B288
:100B30002919B54289B203D118F00F02C7D0CBE70B
:100B400010222846FFF784FF0028C1D11035EFE7B7
:100B5000054B0A4619688B689B07FCD50146642340
:100B6000014804F065BF00BFFC37002007B5084B03
:100B70008DF807001A6893689B07FCD5642301224F
:100B80000DF10701024804F053FF03B05DF804FBC8
:100B9000FC37002008B5074B1B78012B04D1064811
:100BA0000022042103F08CFCBDE80840012003F082
:100BB0007BB900BF3C000020000C024008B5064B8A
:100BC0001A78012A03D10548042103F079FCBDE815
:100BD0000840012003F068B93C000020000C0240EE
:100BE0001FB5FF238DF80E30094B1A6893689B07D9
:100BF000FCD5642300930DF10F0201230DF10E01CA
:100C0000034804F0C2FF9DF80F0005B05DF804FB37
:100C1000FC37002013B5FFF7D1FF0A24FF20FFF7B0
:100C2000A5FF013CFAD1FFF7B5FF40230093062151
:100C30004FF415436846ADF80430FFF789FF4FF4D1
:100C40000054FFF7CDFF012809D1FFF7B7FFFF20C0
:100C5000FFF78CFF034B01221A7002B010BD013C5C
:100C6000EFD1F2E73C06002010B5064C4FF4FA73C2
:100C70002380FFF7B5FFFF2802D02388002BF8D18F
:100C800010BD00BF3E06002070B506460D46FFF7BA
:100C9000EBFFFF284FF0000423D12846FFF766FF43
:100CA000FD2D18D04FF400713046FFF751FFFFF7CC
:100CB00097FFFFF795FF4125FFF792FF00F01F0315
:100CC000052B044603D0013D15F0FF05F4D1FFF7D5
:100CD00087FF0028FBD004F01F04631F58425841CF
:100CE00070BD2046FCE738B504460D46FFF7BCFF53
:100CF000FF2828D12046FFF739FF280EFFF736FFDF
:100D0000C5F30740FFF732FFC5F30720FFF72EFFBB
:100D1000E8B2FFF72BFF402C13D0482C14BF012062
:100D20008720FFF723FF4C2C01D1FFF759FF0A243E
:100D3000FFF756FF030603D5013C14F0FF04F7D17B
:100D400038BD9520EDE7FF20FAE7000070B50F4DA4
:100D5000C82304460E462B80FFF742FFFF2803D12D
:100D600028880028F8D170BDFE280DD1651E3444B6
:100D7000FFF736FF05F8010FA542F9D1FFF730FF65
:100D8000FFF72EFF0120EEE70020ECE740060020F1
:100D90002DE9F341002840F09D804F4E357815F045
:100DA000020504D03078C0B202B0BDE8F081FFF790
:100DB00031FFFFF7EFFE29464020FFF794FF01289F
:100DC00004460DD00024454B1C70FFF7F7FEFFF7DB
:100DD00007FF002C7BD0337803F0FE033370E1E78C
:100DE0003F4F4FF47A734FF4D57148203B80FFF7A3
:100DF0007AFF01283DD101ADA8460424FFF7F0FE9B
:100E0000013C14F0FF0408F8010BF7D19DF80630FF
:100E1000012BD7D19DF80730AA2BD3D10021772001
:100E2000FFF761FF012803D93B88002BF6D1C9E702
:100E30004FF080416920FFF756FF01460028F3D1AB
:100E40003B88002BBED07A20FFF74DFF0028B9D198
:100E50000424FFF7C5FE013C14F0FF0405F8010B64
:100E6000F7D19DF8043013F0400F0CBF04240C247C
:100E7000A9E729467720FFF736FF012806D829463B
:100E80006920FFF730FF012898BF0224022C4FF0A1
:100E900000011AD17720FFF726FF012803D93B88EC
:100EA000002BF3D18EE700216920FFF71CFF0028FB
:100EB000F5D13B88002B85D04FF400715020FFF70F
:100EC00012FF00287FF47EAF7DE74120EDE7054B60
:100ED0001C7067E7012067E7000000203D06002046
:100EE000400600203C06002018B9034B1878C0B219
:100EF00070470120704700BF0000002070B50E460B
:100F000015461C46002837D1002B35D01C4B1B78CA
:100F1000DA0733D41B4B1B785B0758BF6D02FFF712
:100F200039FE012C294613D15120FFF7DCFE38B9D8
:100F30004FF400713046FFF709FFB0FA80F46409FE
:100F4000FFF73CFEFFF74CFE201E18BF012070BDCE
:100F50005220FFF7C8FE0028F2D14FF4007130464E
:100F6000FFF7F4FE18B1013C06F50076F5D100213B
:100F70004C20FFF7B8FEE3E70420E8E70320E6E7AC
:100F8000000000203D060020F8B50D4616461C4620
:100F9000002847D1002B45D0254B1A78D00743D4E1
:100FA0001B78590742D4234F3B785A0758BF760223
:100FB000FFF7F0FD012C13D131465820FFF793FEC7
:100FC00070BBFE212846FFF75FFEB0FA80F464098B
:100FD000FFF7F4FDFFF704FE201E18BF0120F8BD47
:100FE0003B789B0707D500217720FFF77CFE214641
:100FF0005720FFF778FE31465920FFF774FE00288E
:10100000E6D1FC212846FFF73FFE18B1013C05F56B
:101010000075F6D1FD210020FFF736FE0028D7D15C
:101020000124D5E70420DAE70320D8E70220D6E739
:10103000000000203D0600207FB50E461546044600
:10104000002840F08F80052913D11378012B09D097
:10105000022B0AD0002B40F08580444B18702046AC
:1010600004B070BDFFF7D6FDF9E7404B1B78537015
:10107000F5E73F4B1C7814F0010475D1FFF78AFDAA
:101080000D2E6DD8DFE806F04807446C6C6C6C6C74
:101090006C6C6C4F5D6000214920FFF724FE28B185
:1010A0000124FFF78BFDFFF79BFDD8E71021684671
:1010B000FFF74CFE0028F3D09DF800109DF8093092
:1010C0009DF808208909012906D1013303EB022389
:1010D0009BB29B022B60E4E79DF807109DF80A0085
:1010E000920902EB81029DF80610890201F4406129
:1010F00001320A449DF805105B0001F00F0101EB7D
:10110000D01103F006030B44073B02FA03F3E1E7B7
:101110004FF400732B80C4E7FFF7A6FDB0F1FF0486
:1011200018BF0124BDE700214920FFF7DCFD00289E
:10113000B6D110212846FFF709FEB0FA80F4640901
:10114000AFE700214A20F0E700217A20FFF7CBFD2E
:1011500030B92C1DFFF744FD05F8010BAC42F9D165
:1011600004249EE704247AE7032478E73C06002061
:101170000000002030B5144987B0044611221348FE
:1011800008F06CFF0546E0B92146114809F084FEDD
:101190006B46122201A90D4809F0FCF80B4809F032
:1011A000B0FB01A90B488DF8155009F075FE12220D
:1011B000214601A8FFF766FC21460246064809F0D1
:1011C0006BFE07B030BD00BFFBC900084806002019
:1011D00001CA00083BCA000845CA000810B5094BFF
:1011E0001B7898B004465D2253B9074968460AF057
:1011F00027FB5D222146684602F0BAF918B010BDFF
:101200000249F3E70D3A0020F2CA00084FCB00086C
:1012100030B52D4C9BB0054601462C4809F03CFEEC
:101220002B491122204608F019FF01AB02A90F2219
:10123000204609F0AFF8204609F063FB254911224A
:10124000204608F00BFF01AB0DF117010F222046DD
:1012500009F0A0F8204609F054FB1F49112220464E
:1012600008F0FCFE01AB0DF126010F22204609F02B
:1012700091F8204609F045FB18491122204608F054
:10128000EDFE01AB0DF135010F22204609F082F889
:10129000204609F036FB12491122204608F0DEFEF6
:1012A0002246212111A809F0CEFC204609F029FB95
:1012B00002A90C4809F0F0FD5D22294602A802F0BF
:1012C00057F91BB030BD00BF48060020ACCB00086A
:1012D000B2CA0008BACA0008C2CA0008CACA0008CE
:1012E000D2CA0008E4CB0008F0B59DB001465D22EB
:1012F00004A802F053F804A90F226E486E4F6F4EF7
:101300006F4D704C0AF066FB0DF11F010F226E4805
:101310000AF060FB0DF12E010F226C480AF05AFB17
:101320000DF13D010F226A480AF054FB04A9032283
:1013300003A80AF04FFB03A80AF074FC05A9387053
:10134000032203A80AF046FB03A80AF06BFC06A9D7
:101350007870032203A80AF03DFB03A80AF062FCA0
:1013600007A9B870032203A80AF034FB03A80AF007
:1013700059FC0DF11F01F870032203A80AF02AFBA3
:1013800003A80AF04FFC0DF123013070032203A8DB
:101390000AF020FB03A80AF045FC0DF1270170704C
:1013A000032203A80AF016FB03A80AF03BFC0DF188
:1013B0002B01B070032203A80AF00CFB03A80AF06B
:1013C00031FC0DF12E01F070032203A80AF002FB9C
:1013D00003A80AF027FC0DF132012870032203A8AC
:1013E0000AF0F8FA03A80AF01DFC0DF13601687046
:1013F000032203A80AF0EEFA03A80AF013FC0DF189
:101400003A01A870032203A80AF0E4FA03A80AF03C
:1014100009FC0DF13D01E870032203A80AF0DAFA95
:1014200003A80AF0FFFB0DF141012070032203A87D
:101430000AF0D0FA03A80AF0F5FB0DF1450160703F
:10144000032203A80AF0C6FA03A80AF0EBFB0DF189
:101450004901A070032203A80AF0BCFA03A80AF00D
:10146000E1FB13A9E07020221A480AF0B3FAFB78D6
:101470000093BB787A783978174809F00DFDF37836
:101480000093B37872783178144809F005FDEB7851
:101490000093AB786A782978114809F0FDFCE3786D
:1014A0000093A378627821780E4809F0F5FC1DB00E
:1014B000F0BD00BF7F0000200F370020E236002083
:1014C0000B370020073700206F0000205F0000204E
:1014D0004F000020E6360020F5CB00080CCC0008B9
:1014E00023CC00083ACC0008F0B5054685B00B487F
:1014F0000AF0F2F80A4B6A4603F11007164618681C
:101500005968144603C40833BB422246F7D110225F
:101510002946304602F02CF805B0F0BD51CC000849
:1015200066CC0008F0B589B0102205460021684657
:101530000AF060FC0D4B04AA03F110071646186868
:101540005968144603C40833BB422246F7D12946E2
:101550001022684601F022FF0F22314668460AF049
:1015600027FA003818BF012009B0F0BDEBC9000808
:1015700030B58C4C8C488D4D8DB001F0ADFE8C4952
:101580001122204608F06AFD2246102103A809F026
:101590005AFB03A9874809F077FC03A9032202A894
:1015A0000AF018FA02A80AF03DFB04A928700322E9
:1015B00002A80AF00FFA02A80AF034FB05A9687025
:1015C000032202A80AF006FA02A80AF02BFB06A9D9
:1015D000A870032202A80AF0FDF902A80AF022FB73
:1015E000E870C0B20090AB786A7829787248734D81
:1015F00009F052FC204609F084F971491122204675
:1016000008F02CFD2246102103A809F01CFB03A9B9
:101610006C4809F039FC03A9032202A80AF0DAF9A0
:1016200002A80AF0FFFA04A92870032202A80AF00F
:10163000D1F902A80AF0F6FA05A96870032202A8F7
:101640000AF0C8F902A80AF0EDFA06A9A870032268
:1016500002A80AF0BFF902A80AF0E4FAE870C0B2E2
:101660000090AB786A7829785748584D09F014FCF7
:10167000204609F046F956491122204608F0EEFCB2
:101680002246102103A809F0DEFA03A9514809F007
:10169000FBFB03A9032202A80AF09CF902A80AF0A6
:1016A000C1FA04A92870032202A80AF093F902A83B
:1016B0000AF0B8FA05A96870032202A80AF08AF9AC
:1016C00002A80AF0AFFA06A9A870032202A80AF03D
:1016D00081F902A80AF0A6FAE870C0B20090AB78CF
:1016E0006A7829783C483D4D09F0D6FB204609F040
:1016F00008F93B491122204608F0B0FC224610218F
:1017000003A809F0A0FA03A9364809F0BDFB03A914
:10171000032202A80AF05EF902A80AF083FA04A9DB
:101720002870032202A80AF055F902A80AF07AFAF2
:1017300005A96870032202A80AF04CF902A80AF071
:1017400071FA06A9A870032202A80AF043F902A8B8
:101750000AF068FAE870C0B20090AB786A7829782D
:101760002148224D09F098FB204609F0CAF820498B
:101770001122204608F072FC2246212103A809F01C
:1017800062FA202203A928460AF024F9204609F02B
:10179000B8F800232946174885F8203009F07CFB6B
:1017A0000DB030BD4806002076CC00080F37002071
:1017B000B2CA00087F000020F5CB0008E236002006
:1017C000BACA00086F0000200CCC00080B370020BC
:1017D000C2CA00085F00002023CC000807370020A1
:1017E000CACA00084F0000203ACC0008E6360020A4
:1017F000D2CA000893CC000808B50F490F4806F07C
:1018000081FA0F490F4806F07DFA0F490F4806F09C
:1018100079FA0F490F4806F075FA0F490F4806F09C
:1018200071FA0F490F4806F06DFABDE808400E49FD
:101830000E4806F067BA00BFB3180108A1DB000824
:1018400042E00008CEC900087F000020B2CA0008AC
:101850006F000020BACA00085F000020C2CA00085A
:101860004F000020CACA00083D0000209DCC00089F
:1018700010B5002204464FF400711C4802F020FE0F
:10188000462002F011FB01224FF40071174802F0CC
:1018900017FE462002F008FB02F038FA144B1549F7
:1018A0001A689B888B80144B0A601B68C1F806304D
:1018B000124B1B68C1F80E30114B00201B68C1F899
:1018C0000A3005F0A3FE0F4A0023128801212046AA
:1018D00005F036F8204605F0C5F8012805D1214667
:1018E0000948BDE8104009F0D7BA10BD0008024011
:1018F000DC3600209C0000200F3700200B37002032
:101900000737002038000020A5CC000810B510498A
:101910001048002208F078FB0F491048112208F007
:101920009DFB38B90E4801F0D7FCBDE810400B48CC
:1019300008F0E7BF0B4B0C480024012204211C7067
:1019400002F0BEFD09482246042102F0B9FDECE791
:1019500075CC0008A0160020B2CA00084806002076
:10196000C1CC00083C000020000C024000100240E6
:1019700008B505480122042102F0A2FDBDE8084097
:10198000024801F0EBBC00BF000C0240FC37002015
:1019900038B5324B1B780BBB314D2B787BB94FF4EC
:1019A000D070FFF7BFFD044648B92E4809F094FEF9
:1019B0002046FFF713FC4FF4D070FFF795FD2B780E
:1019C000012B06D1FFF7D4FDBDE838400020FFF71A
:1019D0001FBCBDE838400020FFF786BC0020FFF7A1
:1019E000FDFB0020FFF780FC01224FF480511E48D0
:1019F00002F066FD642002F057FA00224FF4805195
:101A0000194802F05DFD642002F04EFA01224FF405
:101A10008051154802F054FD642002F045FA00227E
:101A20004FF48051104802F04BFD642002F03CFA64
:101A300001224FF480510C4802F042FD642002F074
:101A400033FA094800224FF4805102F039FD642036
:101A500002F02AFABDE8384002F08CBAF4390020CE
:101A60003C000020CDCC0008000C0240024A0023BC
:101A70001288022104F064BF3600002001220821F0
:101A800008B50C4802F01CFD0B4A01215378DB43DA
:101A900003F0F003043143F005033129537002F1E0
:101AA0000402F3D1BDE8084002480022082102F0F8
:101AB00007BD00BF000C024094390020012208211C
:101AC00008B50C4802F0FCFC0B4A01215378DB43BB
:101AD00003F0F003043143F005033129537002F1A0
:101AE0000402F3D1BDE8084002480022082102F0B8
:101AF000E7BC00BF000C0240C439002037B50546E2
:101B000002F0CCF92F4B30491B88009304462F4B31
:101B10003022284605F020F902F0C0F904F5FA74E5
:101B2000A0420AD200222A484FF4804102F0C8FCA9
:101B3000284B01221A7003B030BD274C274894F976
:101B4000001009F0A9F9224800224FF4805102F058
:101B5000B7FC1F4800224FF4004102F0B1FC012203
:101B60004FF480411A4802F0ABFC642002F09CF96B
:101B700000224FF48041164802F0A2FC642002F0DB
:101B800093F901224FF48041114802F099FC64203E
:101B900002F08AF900224FF480410D4802F090FCD7
:101BA000642002F081F90E4803F090F92378013B9C
:101BB0005BB2002B2370BEDA03B0BDE8304002F008
:101BC000D9B900BF3600002005000020E236002011
:101BD000000C02400C3A00203A000020DDCC000846
:101BE0003439002008B5054809F076FD002006F0DC
:101BF00079F8BDE8084002F0BDB900BF09CD000882
:101C000010B51D4B8AB0B3F8A520ADF808200446E6
:101C10001A4AD3F8A10093F8A7308DF80A300023B0
:101C2000CDE904230534164A019001A92046CDE9E7
:101C30000723ADF80B308DF80D30ADF81830ADF846
:101C40002430FEF7A5FA48B104A92046FEF7A0FA11
:101C500020B107A92046FEF79BFA38B9094809F0D8
:101C60003BFD094B01221A700AB010BD07480AB0AB
:101C7000BDE8104009F030BDD8C700087573657223
:101C8000313233001FCD0008F639002028CD00087E
:101C900008B509492022083009F08AFE30B9074802
:101CA00001F01AFB064B01221A7008BDBDE808407E
:101CB000044801F011BB00BFE63600203BCD000810
:101CC000F539002049CD00082DE9F04701468EB0D6
:101CD00004469F4809F0E0F80023E25C2E2A03F155
:101CE0000107DBB205D038336B4403F8182C3B46B0
:101CF000F3E7032B18D1BDF820209DF82230ADF872
:101D000010208DF8123004A809F08CFF3D46C6B2B1
:101D1000625DEB1B2E2ADBB205F1010519D03833C9
:101D20006B4403F8182CF3E7022B09D130238DF80C
:101D300010309DF820308DF811309DF82130E0E70B
:101D4000012BE0D143F23003ADF810309DF8203084
:101D5000D7E7032B1AD1BDF820209DF82230ADF82B
:101D600014208DF8163005A809F05CFFAA46C7B20A
:101D700014F80A20AAEB05032E2ADBB20AF1010AA5
:101D800019D038336B4403F8182CF1E7022B09D132
:101D900030238DF814309DF820308DF815309DF8E3
:101DA0002130DEE7012BDED143F23003ADF81430F1
:101DB0009DF82030D5E7032B1DD1BDF820209DF8DC
:101DC0002230ADF818208DF81A3006A809F02AFF45
:101DD00004EB0A0580465FFA80F9002415F8013B00
:101DE000621CE4B2E3B104F138010DEB010404F824
:101DF000183C1446F2E7022B09D130238DF8183035
:101E00009DF820308DF819309DF82130DBE7012B4B
:101E1000DBD143F23003ADF818309DF82030D2E723
:101E2000032C1ED1BDF820209DF82230ADF81C20D7
:101E30008DF81E30474C07A809F0F4FE2378B34212
:101E4000C0B223D16378BB4220D1A3784B451DD1CA
:101E5000E37883421AD1404809F03EFC0EB0BDE859
:101E6000F087022C09D130238DF81C309DF82030EA
:101E70008DF81D309DF82130DAE7012CDAD143F2DC
:101E80003003ADF81C309DF82030D1E7E0702670AB
:101E9000677084F802905FFA88F300903A462F4802
:101EA000314608F0F9FF2E4B1D78012D37D12D4911
:101EB0002D48122208F0D2F80028CFD12B4809F083
:101EC0000BFC0A2304A903220AA88DF80C302E2447
:101ED00009F080FD05A903220BA88DF82B4009F01D
:101EE00079FD06A903220CA88DF82F4009F072FD98
:101EF00007A903220DA88DF8334009F06BFD2A468F
:101F000003A90DF1370009F065FD09AB10220AA9FC
:101F1000154808F015FB144808F0F3FC9EE7144838
:101F200009F0DAFB0322002104A801F021FB0322BF
:101F3000042105A801F01CFB0322082106A801F0DA
:101F400017FB03220C2107A801F012FB86E700BF54
:101F50005BCD00080F3700206DCD00088FCD000845
:101F60003C000020B2CA000848060020AACD0008A4
:101F7000D0CD00082DE9F04300238FB00446E25C89
:101F80002E2A03F10106DBB205D038336B4403F887
:101F9000182C3346F3E7032B18D1BDF820209DF809
:101FA0002230ADF810208DF8123004A809F03AFE66
:101FB0003746C5B2E25DBB1B2E2ADBB207F1010733
:101FC00019D038336B4403F8182CF3E7022B09D1EE
:101FD00030238DF810309DF820308DF811309DF8A9
:101FE0002130E0E7012BE0D143F23003ADF81030AF
:101FF0009DF82030D7E7032B1AD1BDF820209DF89B
:102000002230ADF814208DF8163005A809F00AFE2C
:10201000B946C6B214F80920A9EB07032E2ADBB291
:1020200009F1010919D038336B4403F8182CF1E792
:10203000022B09D130238DF814309DF820308DF813
:1020400015309DF82130DEE7012BDED143F230035D
:10205000ADF814309DF82030D5E7032B1DD1BDF825
:1020600020209DF82230ADF818208DF81A3006A8EF
:1020700009F0D8FD04EB090207465FFA80F8002456
:1020800012F8013B611CE4B2E3B104F138000DEB3E
:10209000000404F8183C0C46F2E7022B09D1302367
:1020A0008DF818309DF820308DF819309DF82130CA
:1020B000DBE7012BDBD143F23003ADF818309DF89C
:1020C0002030D2E7032C1ED1BDF820209DF822300D
:1020D000ADF81C208DF81E30454C07A809F0A2FD74
:1020E0002378AB42C0B223D16378B34220D1A37826
:1020F00043451DD1E37883421AD13E4809F0ECFAFA
:102100000FB0BDE8F083022C09D130238DF81C30CC
:102110009DF820308DF81D309DF82130DAE7012C34
:10212000DAD143F23003ADF81C309DF82030D1E70E
:102130002570E070667084F80280FBB2009029463A
:102140002D48324608F0A8FE2C4B1D78012D37D1C2
:102150002B492C48122207F081FF0028D0D12A48B1
:1021600009F0BAFA0A2304A903220AA88DF80C3050
:102170002E2409F02FFC05A903220BA88DF82B4073
:1021800009F028FC06A903220CA88DF82F4009F0BD
:1021900021FC07A903220DA88DF8334009F01AFC91
:1021A0002A4603A90DF1370009F014FC09AB1022EF
:1021B0000AA9144808F0C4F9124808F0A2FB9FE7E6
:1021C000124809F089FA03222D2104A801F0D0F960
:1021D0000322312105A801F0CBF90322362106A8FC
:1021E00001F0C6F903223A2107A801F0C1F987E7F7
:1021F00007370020FACD00081BCE00083C00002065
:10220000CACA00084806002036CE00085CCE000886
:102210002DE9F04300238FB00446E25C2E2A03F13F
:102220000106DBB205D038336B4403F8182C334673
:10223000F3E7032B18D1BDF820209DF82230ADF82C
:1022400010208DF8123004A809F0ECFC3746C5B216
:10225000E25DBB1B2E2ADBB207F1010719D0383330
:102260006B4403F8182CF3E7022B09D130238DF8C7
:1022700010309DF820308DF811309DF82130E0E7C6
:10228000012BE0D143F23003ADF810309DF820303F
:10229000D7E7032B1AD1BDF820209DF82230ADF8E6
:1022A00014208DF8163005A809F0BCFCB946C6B25A
:1022B00014F80920A9EB07032E2ADBB209F1010962
:1022C00019D038336B4403F8182CF1E7022B09D1ED
:1022D00030238DF814309DF820308DF815309DF89E
:1022E0002130DEE7012BDED143F23003ADF81430AC
:1022F0009DF82030D5E7032B1DD1BDF820209DF897
:102300002230ADF818208DF81A3006A809F08AFCA2
:1023100004EB090207465FFA80F8002412F8013B3B
:10232000611CE4B2E3B104F138000DEB000404F8E1
:10233000183C0C46F2E7022B09D130238DF81830F7
:102340009DF820308DF819309DF82130DBE7012B06
:10235000DBD143F23003ADF818309DF82030D2E7DE
:10236000032C1ED1BDF820209DF82230ADF81C2092
:102370008DF81E30454C07A809F054FC2378AB4279
:10238000C0B223D16378B34220D1A37843451DD195
:10239000E37883421AD13E4800F09EFF0FB0BDE8BB
:1023A000F083022C09D130238DF81C309DF82030A9
:1023B0008DF81D309DF82130DAE7012CDAD143F297
:1023C0003003ADF81C309DF82030D1E72570E07067
:1023D000667084F80280FBB2009029462D48324690
:1023E00008F05AFD2C4B1D78012D37D12B492C4874
:1023F000122207F033FE0028D0D12A4809F06CF9E8
:102400000A2304A903220AA88DF80C302E2409F00F
:10241000E1FA05A903220BA88DF82B4009F0DAFA9E
:1024200006A903220CA88DF82F4009F0D3FA07A9BA
:1024300003220DA88DF8334009F0CCFA2A4603A9EF
:102440000DF1370009F0C6FA09AB10220AA91448A9
:1024500008F076F8124808F054FA9FE7124809F09D
:102460003BF903221E2104A801F082F80322222155
:1024700005A801F07DF80322262106A801F078F8CE
:1024800003222A2107A801F073F887E70B37002001
:1024900086CE0008A9CE00083C000020C2CA000871
:1024A00048060020C4CE0008EACE00082DE9F0431B
:1024B00000238FB00446E25C2E2A03F10106DBB252
:1024C00005D038336B4403F8182C3346F3E7032B5D
:1024D00018D1BDF820209DF82230ADF810208DF8DD
:1024E000123004A809F09EFB3746C5B2E25DBB1B63
:1024F0002E2ADBB207F1010719D038336B4403F8F9
:10250000182CF3E7022B09D130238DF810309DF8F9
:1025100020308DF811309DF82130E0E7012BE0D11B
:1025200043F23003ADF810309DF82030D7E7032B8D
:102530001AD1BDF820209DF82230ADF814208DF876
:10254000163005A809F06EFBB946C6B214F809208A
:10255000A9EB07032E2ADBB209F1010919D03833A0
:102560006B4403F8182CF1E7022B09D130238DF8C6
:1025700014309DF820308DF815309DF82130DEE7BD
:10258000012BDED143F23003ADF814309DF820303A
:10259000D5E7032B1DD1BDF820209DF82230ADF8E2
:1025A00018208DF81A3006A809F03CFB04EB09024C
:1025B00007465FFA80F8002412F8013B611CE4B280
:1025C000E3B104F138000DEB000404F8183C0C46AC
:1025D000F2E7022B09D130238DF818309DF8203016
:1025E0008DF819309DF82130DBE7012BDBD143F268
:1025F0003003ADF818309DF82030D2E7032C1ED1FF
:10260000BDF820209DF82230ADF81C208DF81E303A
:10261000454C07A809F006FB2378AB42C0B223D192
:102620006378B34220D1A37843451DD1E378834238
:102630001AD13E4800F050FE0FB0BDE8F083022CE6
:1026400009D130238DF81C309DF820308DF81D30D5
:102650009DF82130DAE7012CDAD143F23003ADF8EE
:102660001C309DF82030D1E72570E070667084F84A
:102670000280FBB2009029462D48324608F00CFC3F
:102680002C4B1D78012D37D12B492C48122207F0F5
:10269000E5FC0028D0D12A4809F01EF80A2304A935
:1026A00003220AA88DF80C302E2409F093F905A90D
:1026B00003220BA88DF82B4009F08CF906A9032200
:1026C0000CA88DF82F4009F085F907A903220DA861
:1026D0008DF8334009F07EF92A4603A90DF1370041
:1026E00009F078F909AB10220AA9144807F028FF6D
:1026F000124808F006F99FE7124808F0EDFF0322A0
:102700000F2104A800F034FF0322132105A800F0D4
:102710002FFF0322172106A800F02AFF03221B2106
:1027200007A800F025FF87E7E236002014CF000855
:1027300037CF00083C000020BACA00084806002035
:1027400052CF000878CF000810B50146044617485C
:1027500008F0A2FB164808F0BFFF164B1B78012BB0
:1027600019D115491548122207F078FCE8B9144828
:1027700008F0B2FF00220023104808F0D3F80F49F8
:10278000204608F085FA0D4808F00EF8BDE8104024
:102790000A4808F0B6B80B4808F09EFF20462122F0
:1027A000BDE810403C2100F0E3BE10BDA2CF000800
:1027B00064CC00083C000020D2CA00084806002073
:1027C000BACF0008DCCF000813B501224FF4007126
:1027D00001A800F0E3FD9DF80430114C882B15D1C1
:1027E00001231048237008F077FF23781BB94FF4BA
:1027F0007A7001F059FBFF2301224FF4007101A808
:102800008DF8043000F0B4FE02B010BD8823012220
:102810004FF4007101A88DF8043000F0A9FEE4E740
:10282000F439002002D00008F7B51E4F04460D46CB
:102830001D4816460821012201F042FE3B7833B9BB
:102840001A4900962B463022204604F085FA3B7840
:10285000012B06D1154900962B463022204604F064
:102860007BFA134C10480022082101F029FE23684E
:102870000133142B236005D10B4800224FF4805103
:1028800001F01EFE2368282B0AD1074800230122ED
:102890004FF48051236003B0BDE8F04001F010BE5A
:1028A00003B0F0BD0D3A0020000C02409439002026
:1028B000083A0020F0B5324C85B00646ADF80E203F
:1028C000226801320F46226001F0E8FA2D4B98424F
:1028D0001ED9256843F69822B5FBF2F302FB135587
:1028E000B5B9294B1E6801361E60284B1B7853B1C1
:1028F00001F0D4FA4FF47A732549B0FBF3F3324672
:102900002846FEF739F823680133236005B0F0BD8F
:102910002048214C0122102101F0D2FD0DF10E03BF
:102920001E49009330223B46304604F0BBFB002298
:102930001848102101F0C4FD194A136801331360CF
:1029400023680133142B23600BD1124800224FF46B
:10295000804101F0B5FD0F4800224FF4004101F025
:10296000AFFD2368282BD1D100230A482360012220
:102970004FF4004101F0A4FD0A4802F0A7FAC5E7B0
:10298000FC390020878A0100F8390020F73900203F
:1029900032D00008000C0240043A0020C439002064
:1029A000003A002034390020F7B504464FF40041C6
:1029B0003E4801F07FFD0128054675D13C4F3E7829
:1029C000002E33D1024620213A4801F079FD3948E2
:1029D0003246202101F074FD2A463748202101F0BB
:1029E0006FFD4FF48053354A354900933548302305
:1029F00003F0CBF830483246202101F061FD2A4631
:102A00003148324D4FF4807101F05AFD2E48324664
:102A10004FF4807101F054FD2A882D492046FFF7BC
:102A200003FF2A882A492046FFF744FF3D78012DFD
:102A30003AD1FFF743F82A461E48202101F040FD15
:102A40001C480022202101F03BFD2A461A48202183
:102A500001F036FD4FF480530093184A1849194885
:102A6000302303F092F814480022202101F028FDC1
:102A7000FFF704F82A461448144D4FF4807101F012
:102A80001FFD114800224FF4807101F019FD2A88C2
:102A90000F492046FFF70EFF2A880D49204603B054
:102AA000BDE8F040FFF7C0BE03B0F0BD0004024037
:102AB0000D3A002000080240000C0240943900202A
:102AC000C4390020543800200000024036000020A5
:102AD000E2360020F0B5144B85B06D46044603F194
:102AE00010072A46186859682E4603C60833BB42A9
:102AF0003546F7D11346114625780022104611F8C5
:102B0000016BB54208BF80181032B2F5807FF6D154
:102B10006178002213F8014BA14208BF80180132EE
:102B2000102AF7D105B0F0BD53D000082DE9F047C9
:102B300012248AB00DEB0402014605A8ADF812403C
:102B4000FDF76CFF224605A92D48DFF8BCA008F070
:102B500041FF05A9022204A808F03CFF04A8FFF7E2
:102B6000B9FF0DF1170107468AF80000022204A8F8
:102B700008F030FF04A8FFF7ADFF0DF11A01804601
:102B80008AF80100022204A808F024FF04A8FFF735
:102B9000A1FF0DF11D0181468AF80200022204A85E
:102BA00008F018FF04A8FFF795FF08A98AF80300AA
:102BB0000222044604A808F00DFF04A8FFF78AFFCC
:102BC0000DF123018AF804000222054604A808F04A
:102BD00001FF04A8FFF77EFFEDB2C6B2E4B28AF8A7
:102BE00005005FFA89F30296019500945FFA88F276
:102BF000F9B2044808F050F90AB0BDE8F08700BF08
:102C00003D0000209BD00008DC3600202DE9F04F6D
:102C1000DFF8E4803449354F8BB01122404607F08D
:102C20001DFA00230022404607F07CFE4246122196
:102C300005A808F008F805A912222D4808F0CAFED8
:102C400005A9022204A808F0C5FE04A8FFF742FF68
:102C50000DF1170181463870022204A808F0BAFE6F
:102C600004A8FFF737FF0DF11A018246787002229F
:102C700004A808F0AFFE04A8FFF72CFF0DF11D011A
:102C80008346B870022204A808F0A4FE04A8FFF747
:102C900021FF08A9F8700222044604A808F09AFE51
:102CA00004A8FFF717FF0DF1230138710222054632
:102CB00004A808F08FFE04A8FFF70CFFEDB2C6B21F
:102CC000E4B278715FFA8BF35FFA8AF25FFA89F106
:102CD000029601950094074808F0DEF8404607F098
:102CE00010FE0BB0BDE8F08FFBC90008DC360020F9
:102CF0003D000020C0D000084806002008B5084B61
:102D00001B78012B4FF4907005D1FEF733FABDE824
:102D10000840FFF77BBFBDE80840FFF707BF00BFD3
:102D20003C00002008B572B6094C01224FF48041E6
:102D3000204601F0C5FB642001F0B6F820460022D1
:102D40004FF4804101F0BCFB642001F0ADF8ECE7EA
:102D5000000C024030B5002495B01422214603A88F
:102D6000CDE9094409F046F81F4B01941A6C42F072
:102D700080521A641B6C03F080530193019B1B4B20
:102D800002941A6842F480421A601B6803F480437C
:102D90000293029B0A230893102201230820CDE905
:102DA0000B320D93A823CDE910030225072308A8B1
:102DB000CDE90E541295139302F08EF808B1FFF787
:102DC000B1FF0F23CDE9033505904FF4A0524FF426
:102DD0008053052103A8CDE9062302F059FA002803
:102DE000EDD115B030BD00BF00380240007000408A
:102DF0002DE9F04F91B000247C4D01F029F8FFF748
:102E0000A9FF142200210BA808F0F4FF05942B6BF6
:102E1000774843F010032B632B6B03F010030593EB
:102E2000059B06942B6B43F004032B632B6B03F081
:102E300004030693069B07942B6B43F080032B63DC
:102E40002B6B03F080030793079B08942B6B43F0D5
:102E500001032B632B6B03F001030893089B099478
:102E60002B6B43F002032B632B6B03F002030993DC
:102E7000099B0A942B6B43F008032B632B6B03F025
:102E800008030A93012206210A9B01F019FB584806
:102E90002246082101F014FB5648012240F201218C
:102EA00001F00EFB53482246202101F009FB524855
:102EB00022464FF2FB6101F003FB4F48012240F62E
:102EC000040101F0FDFA01224C484FF4807101F039
:102ED000F7FA012646484FF0040A0BA9CDE90BA6E4
:102EE000CDE90D660A2701F00DFA41480BA9CDE99D
:102EF0000B76CDE90D4401F005FA21233D480BA9DD
:102F0000CDE90B36CDE90D4401F0FCF94FF488739F
:102F100038480D940BA9CDE90B3401F0F3F948F2D0
:102F2000040337480D940BA9CDE90B344FF4807B93
:102F300001F0E8F930480D940BA94FF00309CDE9F1
:102F40000BB401F0DFF94FF6BB632B48CDF8389096
:102F50000BA9CDE90B360D944FF4007801F0D2F9AE
:102F600024480BA9CDE90D49CDE90B8601F0CAF93A
:102F700022480BA9CDE90D49CDE90BB601F0C2F904
:102F80001D480BA9CDE90BA6CDE90D6601F0BAF9F4
:102F9000402319480BA9CDE90B36CDE90D4401F0CA
:102FA000B1F904942B6B43F480032B632B6B03F474
:102FB00080032246214604934520049B00F09AFF9B
:102FC000452000F0C9FF0F480F4B04614FF4E13971
:102FD0000C25C0E90039C0E90244C0E90554C461C8
:102FE00003F0B2F8034688B1FFF79CFE00380240B8
:102FF0000010024000080240000C024000000240A5
:103000000004024074370020001401409148924AA5
:10301000C0F818804FF482744FF0100AC0E90233F0
:10302000C0E90433C0E907A3C0E90933C0E90024BB
:10303000C76202F0A1FC03460028D5D18748884A20
:10304000C0E90233C0E90433C0E90833C0E90A37F4
:10305000C0E90024C0E9068A02F08EFC034600287D
:10306000C2D18048804AC0F81880C0E900240822F4
:10307000C0E90233C0E90436C0E90723C0E90933D7
:10308000C76202F079FC0028AED105F057FA774804
:10309000774B036002F04EFA07460028A4D10146A0
:1030A00014220BA808F0A6FE724C734B03977F20E6
:1030B000C4E90037FF23C4E902032046C4E90477CA
:1030C000A76102F081FA00288ED1CDE90E00ADF89B
:1030D0002C008DF82E0032460BA9204602F0CDFAC6
:1030E000002881D1654B0393324603A9204602F0A4
:1030F00035FB034600287FF477AF61486149624A97
:103100000362C0E900124FF48042C0E90233C0E913
:103110000423C0E9063301F0BBFB034600287FF41B
:1031200063AF5A485A4AC0E90233C0E90029C0E9EE
:103130000435C0E9063303F007F800287FF454AFE4
:10314000544C554E05254FF4FA632046C4E90065FA
:10315000A36001F094FE00287FF446AF01221146DF
:103160004E4807F099FE4E484FF4807101F0A2F9E5
:103170004C4B00285FD118704B4808F0ADFAC4E9F9
:1031800000654FF47A632046A36001F078FE0028C2
:103190007FF42AAFFEF7BAFBFFF7B0FDFEF7E8FBBE
:1031A000FFF712FBFEF7F4FB0020FEF761FB0420A3
:1031B000FEF75CFC3D4B3E493E48012204F082FD97
:1031C000FEF71AFB3C4B1B7803B30223009300234A
:1031D0001A4619461846FDF7A5F900F05FFE374973
:1031E0004FF47A72B0FBF2F20020FDF7C5FB01202C
:1031F000FDF7C8F932490020FDF7BEFB3149002038
:10320000FDF7BAFB30490020FDF7B6FB2F4D304CDF
:10321000002005F033F82B78012B16D12378012BF1
:1032200002D10420FFF7C0FB2378002BF0D104204B
:10323000FEF764FCECE7012226481A7008F04CFA0D
:10324000C4E9006540F6B8339DE7124801F03EFE40
:10325000DEE700BFFC370020003C0040AC38002017
:10326000003001405438002000380040243900204C
:1032700000080650043900200028004001050923F9
:103280004039002000540040801A0600B837002062
:10329000004400403439002000300040E4D00008F1
:1032A000000802400D3A002002D100080100002071
:1032B000DC2E0020DC260020F739002021D1000878
:1032C00035D100083ED1000846D100083B0000205F
:1032D0000C3A002010D100080FB400B5ADF5037D05
:1032E00084AB4FF4007153F8042B019302A807F04C
:1032F00053FF02A8FCF7ACFF4FF0FF3382B202A9E4
:10330000044802F04FFF0DF5037D5DF804EB04B0B7
:10331000704700BF743700202DE9F0410D4FDFF8F2
:1033200038800E4615460024AC4202DB2846BDE834
:10333000F0814FF6FF7301223119384602F032FF57
:1033400098F800301BB1315D0020FDF7B7F801346B
:10335000EAE700BF74370020F7390020014B1860FE
:10336000704700BF103A002070B50B4E04460D4662
:10337000306890F8513053B142F210732A4621461A
:1033800002F056FB38B1BDE87040FFF7CBBC01201E
:1033900000F08AFDECE770BD103A0020F7B51A4F37
:1033A00005460C4616463B6893F85130012B23D155
:1033B000032316488DF804300421230C002264BA3C
:1033C0008DF80530ADF8064001F07AF804210DEBD8
:1033D0000100FFF7C9FF38684FF47A733246294677
:1033E00002F0C3FC02280BD008480122042101F09E
:1033F00067F8012003B0F0BD012000F055FDD2E7D1
:10340000012000F051FDE6E7103A002000100240D4
:1034100013B50A4C00222046042101F051F806237E
:1034200001A801218DF80430FFF79EFF012204213D
:10343000204601F045F802B010BD00BF0010024068
:1034400037B50A4C042500222046042101F038F843
:103450000DEB050001218DF80450FFF785FF0122D7
:103460002946204601F02CF803B030BD0010024080
:1034700037B50523002214488DF8002004218DF86B
:10348000043001F01DF8012101A8FFF76DFF0F4D79
:103490002868C8230122694602F067FC02284FF021
:1034A00001000ED000F000FD9DF8000010F00104B6
:1034B000EED105480122042101F002F8204603B0B4
:1034C00030BD00F0F1FCE3E700100240103A0020AC
:1034D0002DE9F743DFF8949007460C469046D9F85B
:1034E000003093F85130012BDEB239D1FFF790FF55
:1034F00002238DF80430230C64BA8DF80530ADF842
:103500000640FFF785FF18480022042100F0D8FF8D
:1035100004210DEB0100FFF727FF0524D9F8000077
:103520004FF47A734246394602F082FA0228054681
:1035300006D10520013C00F0B7FC14F0FF04EDD1EA
:1035400001220421084800F0BBFFFFF791FFFFF7BD
:1035500077FF012D08BF0226304603B0BDE8F08397
:10356000012000F0A1FCBAE700100240103A002050
:103570002DE9F04711F0FF0A05460F4614465FFAA1
:1035800082F81AD1FF2A2ED9140A4FF480723946D4
:103590002846FFF79DFF0128064641D1013CA4B211
:1035A00007F5807705F58075002CEED1B8F1000F96
:1035B00036D042463946284615E0CAF58079FF2ABA
:1035C0001FFA89F913D8C1450DD24A46FFF780FF8B
:1035D0000128064624D1A8F58072524492B209EB24
:1035E000070105EB0900BDE8F047FFF771BF4A4648
:1035F000FFF76EFF0128064612D1A4F580741AFA6F
:1036000084F44D441FFA84F84F4404F47F442C445E
:103610007F1BA54205EB070105D118F0FF02CAD1B7
:103620003046BDE8F0874FF480722846FFF750FF20
:10363000012802D105F58075EBE70646F0E70000AA
:1036400082B00C4B002100915A6C42F480425A64C3
:103650005A6C02F480420092009A01911A6C42F076
:1036600080521A641B6C03F080530193019B02B0DB
:10367000704700BF0038024030B5044689B01422BC
:10368000002103A808F0B6FB2268134B9A4221D10F
:10369000124C134800250195236B43F0020323636A
:1036A000236B03F002030193019BC0221223CDE997
:1036B000032303210423CDE9061303A900F022FE0E
:1036C0000295236C43F400132364236C03F400136A
:1036D0000293029B09B030BD005400400038024004
:1036E000000402400268094B9A4282B00BD10023C9
:1036F0000193074B5A6B42F040025A635B6B03F035
:1037000040030193019B02B0704700BF00080650C0
:10371000003802401FB5044610220021684608F018
:1037200069FB2268094B9A420ED102230093684636
:103730004FF40073039301F065FE08B1FFF7F2FA4E
:10374000034B0122C3F83C2E04B010BD00280040FA
:1037500000004742F0B504468DB01422002107A8AE
:1037600008F048FB2368534A934223D1524B5348F5
:10377000002100915A6C42F480525A645A6C02F44F
:1037800080520092009A01911A6B42F001021A6372
:103790001B6B03F001030193019BE0220223032131
:1037A000CDE907230523CDE90A1307A900F0AAFDF7
:1037B0000DB0F0BD424A934240D13F4B41480022F8
:1037C0000292196C41F480411964196C01F4804132
:1037D000029102990392196B41F004011963196B6C
:1037E00001F004010391039904921A6B42F0020262
:1037F0001A631B6B03F002030493022603250524BE
:10380000049B07A90423CDE907360127CDE90A5413
:1038100000F078FD08232B480B9407A9CDE9073663
:10382000CDE9097500F06EFD4FF48063CDE90736F0
:10383000CDE9097524480B9407A9B7E7234A9342B9
:10384000B6D11D4B1F48002405941A6C42F4004267
:103850001A641A6C02F400420592059A06941A6BD7
:1038600042F004021A631B6B03F004030693069BE9
:1038700002274FF480630326062507A9CDE9073701
:10388000CDE90A6500F03EFD4FF4C053CDE907379E
:1038900007A901230B480B95CDE9093600F032FD4D
:1038A00022462146332000F025FB332000F054FB54
:1038B0007EE700BF003001400038024000000240B7
:1038C000003800400008024000040240003C004074
:1038D00070B514228AB0064600210DEB020008F0F4
:1038E00089FA33683A4A93422BD13A4B3A4800243A
:1038F00001941A6C42F400321A641A6C02F4003219
:103900000192019A02941A6B42F001021A631B6B36
:1039100003F001030293029B0C250223CDE905531A
:1039200005A907230326CDE9086300F0EBFC262058
:103930002246214600F0DEFA262000F00DFB0AB0F8
:1039400070BD264A9342FAD1224B2548254C0025CA
:1039500003955A6C42F020025A645A6C02F020021D
:103960000392039A04951A6B42F004021A631B6BCC
:1039700003F004030493049BC0220223CDE9052332
:1039800003210823CDE9081305A900F0BBFC164864
:103990004FF02063C4E900034023C4E902354FF42B
:1039A0008063C4E9043520464FF40033C4E906556A
:1039B000C4E9083500F01AFB08B1FFF7B3F900229B
:1039C000746347201146A66300F094FA4720B4E7D9
:1039D0000044004000380240000002400014014052
:1039E0000008024014370020A0640240FEE7FEE712
:1039F000FEE7FEE7FEE7704770477047054A138809
:103A00000BB1013B1380044A13880BB1013B1380B7
:103A100000F038BA400600203E060020014802F0BF
:103A20007DBC00BFB8370020014802F03DBA00BF9E
:103A3000FC370020014800F0A7BB00BF143700206E
:103A4000014802F06BBC00BF7437002001207047B2
:103A500008B508F091F9162303604FF0FF3008BD58
:103A600008B508F089F916230360FEE770B50D4626
:103A700014460E46731B9C4201DC204670BDAFF31A
:103A8000008006F8010BF5E74FF0FF3070474FF468
:103A900000534B60002070470120704700207047A2
:103AA0000B4A116810B5034609B90A49116010683C
:103AB00009490A4C0344091B8B4206D908F05CF9FA
:103AC0000C2303604FF0FF3010BD1360FCE700BF14
:103AD000143A0020E04600200000022000400000D0
:103AE000034AD2F8883043F47003C2F88830704734
:103AF00000ED00E030B59BB0054614A80C4603F07D
:103B000019FD9DF8653013939DF8643012939DF86C
:103B1000633011939DF8623010939DF85D300F93E0
:103B20009DF85C300E939DF85B300D939DF85A30F4
:103B30000C939DF861300B939DF860300A939DF8CB
:103B40005F3009939DF85E3008939DF859300793D4
:103B50009DF8583006939DF8573005939DF85630E0
:103B600004939DF8553003939DF8543002939DF8CB
:103B7000533001939DF8523000939DF850209DF8EA
:103B800051300349284607F0DDFF20801BB030BDCF
:103B900061D1000870B50C46094906461546FCF788
:103BA000F7FA40B107493046FCF7F2FA28B929463E
:103BB0002046FFF79FFF012070BD0020FCE700BFFB
:103BC00020D2000829D2000838B51649054603F06E
:103BD0009FFF044600B30A2103F072FFC4B20F2C0A
:103BE0001CD82846104903F093FF054630B10A213E
:103BF00003F066FFC5B2012D28BF012521460B4801
:103C000007F04AF90A4B0B4833F81410012D0CBF8A
:103C10002A46002200F054FC60B238BD4FF0FF305D
:103C2000FBE700BF39D200083DD2000841D20008AE
:103C300094000020000C0240F8B50E460C490746DF
:103C400015461C46FCF7A4FA68B10A493846FCF749
:103C50009FFA50B93046FFF7B7FF0749C2B228466E
:103C600007F070FF20800120F8BD0020FCE700BFB6
:103C700020D2000865D2000876D200080A464FF428
:103C80007A730146014802F070B800BFAC380020DA
:103C900007B5FF238DF8073001224FF47A730DF139
:103CA0000701044802F061F89DF8070003B05DF8D1
:103CB00004FB00BFAC3800200A464FF47A7301467B
:103CC000014801F0B5BE00BFAC38002007B54FF485
:103CD0007A738DF8070001220DF10701024801F007
:103CE000A7FE03B05DF804FBAC38002002480122B7
:103CF0004FF4006100F0E4BB000C024002480022D7
:103D00004FF4006100F0DCBB000C024070B586B0DF
:103D1000FFF7ECFF1C491D4803F0CAF91C491D4878
:103D200003F0D4F91C491D4803F0E2F91C4B02AA28
:103D300003F11006154618685968144603C4083381
:103D4000B3422246F7D12946012003F053FB01304C
:103D500006D114480A22012107F09EF806B070BD72
:103D60000DF107010F2003F045FB013003D10E4890
:103D70000A220121F0E79DF80730002BF0D00B4814
:103D800007F0AAFCEAE700BFED3C0008FD3C000894
:103D9000CD3C0008913C0008B93C00087D3C00087F
:103DA00083C8000879D2000895D20008B0D2000874
:103DB00070477047DFF834D00D480E490E4A002393
:103DC00002E0D458C4500433C4188C42F9D30B4ACF
:103DD0000B4C002301E013600432A242FBD3FFF737
:103DE0007FFE07F02DF8FFF703F870470000022070
:103DF000000000205C010020343C0108600100202C
:103E0000DC460020FEE7000038B50E4B1A784FF470
:103E10007A73B3FBF2F30C4A05461068B0FBF3F07B
:103E200000F0BAF8044658B90F2D09D802462946C1
:103E30004FF0FF3000F05EF8044B20461D6038BDA7
:103E40000120FCE7B300002090000020B400002017
:103E500008B50B4B1A6842F400721A601A6842F4F3
:103E600080621A601A6842F480721A60032000F0BF
:103E70002FF80F20FFF7C8FFFFF7E2FB002008BD77
:103E8000003C0240034A044B11681B780B4413604A
:103E9000704700BF183A0020B3000020014B18689B
:103EA000704700BF183A002038B50446FFF7F6FF08
:103EB000631C1CBF054B1B78054618BFE418FFF7B1
:103EC000EDFF431BA342FAD338BD00BFB30000206F
:103ED0000749CA6822F4E0620302120403F4E063B3
:103EE000120C134343F0BF6343F40033CB607047BD
:103EF00000ED00E0164B30B5DC68C4F30224C4F1D9
:103F00000703251D042B28BF0423062D4FF0FF3582
:103F10008CBF033C002405FA03F321EA0303A54008
:103F200022EA0502A340002843EA0203ACBF00F1E5
:103F30006040084A4FEA0313B8BF00F00F00DBB23D
:103F4000AABF00F56140135480F8003330BD00BFB4
:103F500000ED00E014ED00E0002807DB4109044A11
:103F600000F01F000123834042F82130704700BF5A
:103F700000E100E0BFF34F8F0549064BCA6802F429
:103F8000E0621343CB60BFF34F8F00BFFDE700BF7C
:103F900000ED00E00400FA050138B0F1807F0BD29B
:103FA0004FF0E023054A5861F02182F823100020E9
:103FB000072298611A6170470120704700ED00E008
:103FC000036810B5084C0246D9B210391820B1FB6D
:103FD000F0F0205CD06523F47F7020F003005F29AF
:103FE00088BF0430906510BD7C36010870B504466A
:103FF000FFF754FF0546002C60D0022384F83530CB
:104000002268002384F83430136823F0010313601E
:1040100022681368D8072ED413683248A169184063
:10402000D4E901352B43E5682B4325692B436569AA
:104030002B43E5690B432B43256A2B430343606AFB
:10404000042802BFD4E90B5635432B431360536950
:10405000042823F0070343EA000335D1A06AE56A88
:1040600003438DB391B9012820D030F002012BD148
:10407000E90129D51DE0FFF711FF401B0528C7D92D
:1040800020230320636584F8350070BDB1F5005F1F
:1040900016D1032818D801A151F820F0B340000828
:1040A00071400008B3400008AD400008B5F1C07F82
:1040B0000AD140236365012384F835300120E4E709
:1040C0000228F6D90328D3D053612046FFF778FFA2
:1040D000E26D3F239340836000200123606584F8F4
:1040E0003530D2E73F8010F070B50446866DFFF79B
:1040F000D5FE94F83530022B054606D08023636543
:104100000120002384F8343070BD23681A6822F03F
:1041100016021A605A6922F080025A61226C0AB9AA
:10412000A26C1AB11A6822F008021A601A6822F00A
:1041300001021A602368186810F0010007D1E26DCF
:104140003F239340B360012384F83530D9E7FFF76C
:10415000A5FE401B0528EDD920230320636584F8C4
:104160003500CEE790F83530022B03D0802343652D
:10417000012070470268052380F83530136823F06A
:104180000103136000207047F7B5002301935C4BD7
:10419000856D1F68C36D2E6808229A40324204461E
:1041A0000CD001680868400708D5086820F00400B2
:1041B0000860AA60626D42F00102626501229A40C5
:1041C000324208D021684969090641BFAA60626D80
:1041D00042F00202626504229A40324208D021680D
:1041E0000968880741BFAA60626D42F004026265F7
:1041F00010229A40324210D02368196809070CD562
:10420000AA601A68500337D51B68190301D4236CC0
:1042100000E0A36C0BB120469847E16D20228A4054
:1042200032423AD023681868C60636D5AA6094F898
:104230003520052A1A6827D122F016021A605A6919
:1042400022F080025A61226C0AB9A26C1AB11A6873
:1042500022F008021A603F238B40AB60012384F8F0
:104260003530002384F83430236D002B45D02046B0
:1042700003B0BDE8F04018471A68D2055EBF1A685F
:1042800022F008021A60C2E7500327D51B68190301
:1042900031D4636C0BB120469847636D6BB3636D8B
:1042A000DA0719D522684FF41653B7FBF3F7052345
:1042B00084F83530136823F001031360019B013348
:1042C000BB42019302D81368DB07F7D4012384F8BB
:1042D0003530002384F83430E36CC6E71A6812F4F2
:1042E000807208D1196821F010011960012384F847
:1042F000353084F83420E36BCCE703B0F0BD00BF69
:10430000900000202DE9F74FDFF8A491664A0023C2
:104310000D6801249C4004EA0506AC4340F0AF80E0
:104320004D68032705F003044FEA430807FA08FC29
:10433000671E012F6FEA0C0C34D8876807EA0C0E51
:10434000CF6807FA08F747EA0E078760476827EA49
:10435000060EC5F300179F4047EA0E074760C7687F
:1043600007EA0C0E8F6807FA08F747EA0E07022CD7
:10437000C76019D14FEAD30A00EB8A0A03F0070B92
:10438000DAF820704FEA8B0B4FF00F0E0EFA0BFE8F
:1043900027EA0E0E0F6907FA0BF747EA0E07CAF86D
:1043A000207001E0032CDAD1076804FA08F407EA68
:1043B0000C073C4315F4403F046060D00024019496
:1043C000D9F8444044F48044C9F84440D9F8444002
:1043D00023F0030707F1804704F4804407F59C3776
:1043E000019403F0030C019CD7F808E04FEA8C0C11
:1043F0000F2404FA0CF42EEA040E2C4CA04245D0F3
:1044000004F58064A04243D004F58064A04241D00A
:1044100004F58064A0423FD004F58064A0423DD002
:1044200004F58064A0423BD004F58064A04239D0FA
:1044300004F58064A04214BF0824072404FA0CF495
:1044400044EA0E04BC601468F74315F4803F0CBFC7
:104450003C4034431460546815F4003F0CBF3C40AA
:1044600034435460946815F4801F0CBF3C403443BF
:104470009460D468AD0254BF3C403443D4600133EF
:10448000102B7FF445AF03B0BDE8F08F0024D5E7D3
:104490000124D3E70224D1E70324CFE70424CDE7A6
:1044A0000524CBE70624C9E7003C01400000024098
:1044B000003802400369194214BF012000207047F0
:1044C0000AB1816170470904FBE701684B6913F485
:1044D00080634FF0000210D06FF480634B612023A3
:1044E000026380F83D3080F83E20036C80F83C2069
:1044F00043F00403036401207047184670472DE918
:10450000F84606460F4691461D464FEA114A336863
:10451000BAF1010F0CBF5C699C6927EA0404A4B2DC
:10452000B4FA84F46409A14501D0002017E06A1CA4
:10453000EED0FFF7B3FC089BC01AA84201D8002DAB
:10454000E5D100232022336386F83D2086F83E30F3
:10455000326C86F83C3042F0200232640120BDE823
:10456000F8862DE9F04104460F4616469846256820
:10457000686927EA000080B2C0B16B695A0517D597
:104580002B6843F400732B606FF480636B6120220F
:104590000023236384F83D2084F83E30236C43F0ED
:1045A00004032364002384F83C300120BDE8F0813B
:1045B000731CDDD0FFF772FCA0EB0800B04209D9F4
:1045C00000232022236384F83D2084F83E30236CAE
:1045D0001343E6E7002ECAD1F2E770B504460D4654
:1045E000164623685B691B0601D5002018E02046AB
:1045F000FFF76BFF98B96A1CF3D0FFF74FFC801BE5
:10460000A8420ED900232022236384F83D2084F899
:104610003E30226C84F83C3042F0200222640120BB
:1046200070BD002DDDD1EDE72DE9F04315460268A0
:1046300085B0DDE90C789946136843F48073136004
:104640000E463B46CDF8008000224FF00111044693
:10465000FFF755FF236838B11B68DB0502D54FF41F
:1046600000732364032620E006F0FE061E611A494B
:1046700043463A462046FFF774FFA8B923680390E3
:104680005A6903929B690393424639462046039B2D
:10469000FFF7A3FF064660B1236C042B01BF22681D
:1046A000136843F4007313600126304605B0BDE87B
:1046B000F083B9F1010F236802D1EDB21D61F4E777
:1046C0002A0A1A61394642462046FFF786FF00282B
:1046D000E2D12368F1E700BF020001002DE9FF47A6
:1046E0009A46036815461A6842F480621A601A688E
:1046F000DDE90C7842F480721A600E463B46CDF834
:10470000008000224FF001110446FFF7F8FE2368F5
:1047100038B11B68DB0544BF4FF4007323640320EA
:1047200021E05FFA86F906F0FE061E612B4943463A
:104730003A462046FFF715FFA0B9236803905A694F
:1047400003929B690393424639462046039BFFF739
:1047500044FF58B1236C042B01BF2268136843F453
:1047600000731360012004B0BDE8F087BAF1010FB7
:1047700023681AD1EDB242461D6139462046FFF743
:104780002CFF02460028E5D121680B6843F48073B2
:104790000B602046CDF800803B464FF00111FFF73B
:1047A000AEFE226860B11368B4E72A0A1A6139467E
:1047B00042462046FFF711FF0028CBD12368D9E7F6
:1047C00049F001031361054943463A462046FFF785
:1047D000C8FE003818BF0120C5E700BF0200010075
:1047E00070B504460D46164623685B695B0701D524
:1047F000002018E02046FFF768FE98B96A1CF3D045
:10480000FFF74CFB801BA8420ED900232022236314
:1048100084F83D2084F83E30226C84F83C3042F02D
:1048200020022264012070BD002DDDD1EDE770B5BE
:1048300004460D46164621684B6913F0400301D02B
:10484000002011E04A69D2060FD56FF010024A61CC
:104850002022236384F83D2084F83E30236C2364B7
:10486000002384F83C30012070BDFFF717FB801B4C
:10487000A84209D900232022236384F83D2084F82C
:104880003E30236C1343EAE7002DD4D1F2E7000059
:1048900070B5044608B9012070BD90F83D3003F0B2
:1048A000FF021BB980F83C20FEF7E6FE242384F8C3
:1048B0003D3023681A6822F001021A601A6842F437
:1048C00000421A601A6822F400421A6000F07AFD71
:1048D0003F4B65689D4294BF3E4B3F4B98428CBF17
:1048E00000230123002BD6D12268394E51683B4B5F
:1048F000B0FBF3F321F03F011943B542516088BF8B
:104900004FF49676116A88BF734321F03F0184BF4C
:104910004FF47A76B3FBF6F301330B431362D1699C
:10492000431E2B4821F44F41854221F0FF0132D82C
:104930006D0040F6FC70B3FBF5F30133034242D047
:10494000C3F30B031943D161D4E907301168034362
:1049500021F0C0010B4313609168D4E9030321F4F3
:104960000341034321F0FF010B439360D4E9053079
:10497000D168034321F0FF010B43D360136843F078
:104980000103136000202023206484F83D3020635D
:1049900084F83E0080E7A06850B905EB4505B3FBFD
:1049A000F5F30133C3F30B037BB143F40043C9E7D1
:1049B00019206843B3FBF0F30133C3F30B0323B1B6
:1049C00043F44043BEE70423BCE70123BAE700BF3A
:1049D000A08601007F841E00FF083D0040420F00BA
:1049E0002DE9F743044699460C9E0F469046FFF783
:1049F00055FA94F83D30202B054603D0022003B031
:104A0000BDE8F08300903C49192301222046FFF7BE
:104A100076FD0028F2D194F83C30012BEED02068CE
:104A2000012384F83C300368D9075EBF036843F074
:104A300001030360036823F400630360212384F807
:104A40003D30402384F83E30002323640A9B636298
:104A5000BDF82C306385638D2385284BE362424685
:104A6000CDE900654B4639462046FFF7DDFD0028BD
:104A70002AD00120C3E7FFF7B0FD40B1236C042B1F
:104A800001BF2268136843F400731360F1E7636A9F
:104A900027681A4612F8011B39616262628D218D06
:104AA000013A92B262857A69481E80B25207208527
:104AB0000AD548B15A783A6102336362638D013B8B
:104AC00002399BB221856385238D2A4631462046D3
:104AD000002BD0D1FFF784FE0028CFD122681368C5
:104AE00043F400731360202384F83D3084F83C00C5
:104AF00084F83E0083E700BF020010000000FFFFC3
:104B00002DE9F043044687B09946109F0D46904624
:104B1000FFF7C4F994F83D30202B064604D0022557
:104B2000284607B0BDE8F08300907649192301229A
:104B30002046FFF7E4FC0028F1D194F83C30012B2B
:104B4000EDD02068012384F83C300368DB075EBFAA
:104B5000036843F001030360036823F40063036008
:104B6000222384F83D30402384F83E300023236420
:104B70000E9B6362BDF83C306385638D2385624B79
:104B8000E3622946CDE900764B4642462046FFF7D0
:104B9000A5FD054608B10125C2E7228D2368B2B9FB
:104BA00002905A6902929A690292029A1A6842F431
:104BB00000721A60DFF85481238D002B2CD1202243
:104BC00084F83D2084F83C3084F83E30A8E7012A80
:104BD0000AD11A6822F480621A6003905A6903921B
:104BE0009A690392039AE1E7022A0ED11A6822F425
:104BF00080621A601A6842F400621A6004905A696E
:104C000004929B690493049BD4E705905A6905922A
:104C10009B690593059BCDE7032B56D8012B15D136
:104C2000324639462046FFF702FE0028B3D12368FA
:104C30001A69636A1A70636A01336362238D013BE8
:104C40002385638D013B9BB26385B5E7022B0096FC
:104C50003B464FF000024146204619D1FFF74FFC7A
:104C6000002898D123681A6842F400721A601A6901
:104C7000636A1A70626A531C6362238D013B238549
:104C8000638D013B9BB2638523681B695370D2E738
:104C9000FFF735FC024600287FF47DAF23681968D2
:104CA00021F4806119601969636A1970636A0133BC
:104CB0006362238D013B2385638D013B9BB263853A
:104CC000414600963B462046C8E7324639462046D4
:104CD000FFF7ADFD00287FF45EAF23681A69636AB1
:104CE0001A70626A531C6362238D013B2385638DB6
:104CF000013B9BB263852368596949077FF55CAF27
:104D0000C3E700BF020010000000FFFF0400010025
:104D10002DE9F04F044685B01E460F469146FFF739
:104D2000BDF894F83D30202B054603D0022005B095
:104D3000BDE8F08F00904F49192301222046FFF76C
:104D4000DEFB0028F2D194F83C30012BEED0012399
:104D500084F83C302368DFF81CB11A68D0075EBFC6
:104D60001A6842F001021A601A6822F400621A609E
:104D7000242384F83D3000232364A3F58033E362C9
:104D80004FF0010A07F0FE072268136843F48073AE
:104D900013604FF001113346009500222046FFF7C3
:104DA000AEFB236838B11B68D90544BF4FF40073CC
:104DB00023640320BBE71F61FFF770F823685A697B
:104DC0005B690546C2F34002C3F380234FF0A0089D
:104DD00094F83D10A0291CD123684FF0200884F8D6
:104DE0003D805A6992072BD51A68224942F4007215
:104DF0001A60002203925A6903929B690393039BF2
:104E00000095192301222046FFF779FB98B1012074
:104E10008DE71343E0D1FFF741F8401BB04200D8C3
:104E20000EB984F83D8023685A695B69C2F3400279
:104E3000C3F38023CCE784F83D8084F83C0076E718
:104E40001A6842F400721A606FF480625A6159461F
:104E50000095192301222046FFF751FB0028D6D1E7
:104E60000AF1010ACA458FD384F83D8084F83C00DA
:104E7000CDE700BF0200100090F83D00704738B544
:104E8000044608B303684CF6CC421A6045F255520A
:104E90001A6042685A6082689A60FEF7FFFF054612
:104EA0002268D06810F0030003D14AF6AA231360E9
:104EB00038BDFEF7F3FF401B3128F1D92368DB68CA
:104EC0009B07EDD00320F3E70120F1E703684AF6E2
:104ED000AA221A60002070472DE9F341044640B32E
:104EE0000368DE0710D423689D075BD42368190785
:104EF00000F19D8023685A0700F1BD80A369002B53
:104F000040F0248100202CE08D4B9A6802F00C02C6
:104F1000042A07D09A6802F00C02082A0BD15B68B9
:104F2000590208D5864B1B689A03DCD56368002BB1
:104F3000D9D1012015E06368814DB3F5803F13D1CD
:104F40002B6843F480332B60FEF7A8FF7C4E0546A8
:104F500033689B03C7D4FEF7A1FF401B6428F7D931
:104F6000032002B0BDE8F081B3F5A02F04D12B6877
:104F700043F480232B60E3E72A6822F480322A601E
:104F80002A6822F480222A60002BDDD1FEF786FFFA
:104F900006462B689F03A6D5FEF780FF801B64287A
:104FA000F7D9DDE7664B9A6812F00C0F07D09A68C4
:104FB00002F00C02082A11D15B685D020ED4604A2F
:104FC0001368990702D5E368012BB2D113682169F0
:104FD00023F0F80343EAC103136087E7E268594B03
:104FE000B2B101221A60FEF759FF554D06462B68F3
:104FF0009B0707D52B68226923F0F80343EAC20315
:105000002B6073E7FEF74AFF801B0228EFD9A7E762
:105010001A60FEF743FF4A4E054633689F077FF547
:1050200065AFFEF73BFF401B0228F6D998E762699F
:10503000444B82B10122C3F8802EFEF72FFF404E71
:105040000546736F9B073FF555AFFEF727FF401BE3
:105050000228F6D984E7C3F8802EFEF71FFF384EEA
:105060000546736F9F077FF545AFFEF717FF401B9F
:105070000228F6D974E7324B1A6C12F0805228D10C
:1050800001921A6C42F080521A641B6C03F0805338
:105090000193019B01272C4D2B68D8051BD5A368D4
:1050A000274D012B27D12B6F43F001032B67FEF710
:1050B000F5FE234E054641F28838336F9A0739D5FD
:1050C000002F3FF41BAF1E4A136C23F08053136470
:1050D00014E70027DFE72B6843F480732B60FEF7AB
:1050E000DDFE06462B68D905D9D4FEF7D7FE801B16
:1050F0000228F7D934E7052B04D12B6F43F00403C2
:105100002B67D0E72A6F22F001022A672A6F22F06C
:1051100004022A67002BCAD1FEF7C0FE41F288388C
:1051200006462B6F9B07CBD5FEF7B8FE801B40458C
:10513000F7D915E7FEF7B2FE401B4045BDD90FE792
:10514000003802400000474200700040374DAA6816
:1051500002F00C02082A3ED0022B354B4FF0000221
:105160001A662BD1FEF79AFE06462B6899011FD4CA
:10517000D4E907321343626A43EA8213E26A43EADC
:105180000263A26A5208013A43EA02436B60284B69
:10519000264D01221A66FEF781FE04462B689A010D
:1051A0003FF5B0AEFEF77AFE001B0228F6D9D7E62F
:1051B000FEF774FE801B0228D7D9D1E6FEF76EFEFB
:1051C00004462B689B017FF59DAEFEF767FE001B32
:1051D0000228F6D9C4E6012B3FF4ABAE6B68E26956
:1051E00003F4800191427FF4A4AE216A03F03F02F0
:1051F0008A427FF49EAE616A47F6C0721A40B2EBF3
:10520000811F7FF496AEA26A520803F44031013A3E
:10521000B1EB024F7FF48DAEE26A03F07063B3EB43
:10522000026F14BF012000209BE600BF003802403F
:1052300000004742134908B58B6803F00C03042BA8
:105240001CD0082B1CD14A684B68496813F48003B2
:1052500014BF0D480D48C1F3881118BF002302F098
:105260003F02A1FB0001FAF7FBFF064B5B68C3F3AB
:10527000014301335B00B0FBF3F008BD0248FCE7DB
:105280000248FAE700380240404B4C000024F4008A
:105290002DE9F0410D46044610B90120BDE8F0812A
:1052A000434B1A6802F007028A4228D321688F070D
:1052B0002DD4C80740D43E4B1A6802F00702AA4218
:1052C00065D8226851076BD4130707D5394A21697D
:1052D000936823F4604343EAC1039360FFF7AAFF96
:1052E000344B354A9B68C3F30313D35CD840334B2C
:1052F0001860334B1868FEF787FD0020CEE7CAB26E
:105300001A701B6803F007038B42C6D1CEE7294B06
:1053100011F0040F1EBF9A6842F4E0529A600E0723
:1053200042BF9A6842F460429A609A68A06822F08C
:10533000F00202439A60BCE762681E4B012A1CD14E
:105340001B6813F4003FA8D01A4EB36823F0030380
:105350001343B360FEF7A2FD41F288380746B368F5
:10536000626803F00C03B3EB820FA4D0FEF796FD46
:10537000C01B4045F3D9032090E7911E01291B680B
:1053800002D813F0007FDEE713F0020FDBE7EAB28A
:105390001A701B6803F00703AB427FF47EAF90E7FF
:1053A0000449E0688B6823F4E05303438B608BE788
:1053B000003C0240003802406C360108900000209A
:1053C000B4000020044B054A9B68C3F38223D35CDE
:1053D000034A1068D840704700380240643601081C
:1053E00090000020044B054A9B68C3F34233D35C12
:1053F000034A1068D84070470038024064360108FC
:1054000090000020036813F0050FF7B5044605D19E
:1054100023689B072AD4002003B0F0BD424B434EC3
:1054200000229A66FEF73AFD054633681F0116D43E
:10543000D4E901231B0743EA8213C6F884303A4BB0
:105440003A4E01229A66FEF729FD05463368180197
:10545000DED4FEF723FD401B0228F7D904E0FEF757
:105460001DFD401B0228E0D90320D5E7002301934E
:105470002E4B2F4D1A6C42F080521A641B6C03F0B5
:1054800080530193019B2B6843F480732B60FEF7DC
:1054900005FD06462B68D9051BD5244DE2682B6F08
:1054A00013F440731BD1E36803F44072B2F5407FFC
:1054B0001E4A34D1916823F0704021F4F81120F491
:1054C000407001439160116FC3F30B030B431367EB
:1054D000A1E7FEF7E3FC801B0228DBD9C4E702F456
:1054E00040729342DFD02B6F0F4A0121C2F8401E59
:1054F00023F440730021C2F8401E2B672B6FDA079C
:10550000D1D5FEF7CBFC41F2883706462B6F9B07BF
:10551000C9D4FEF7C3FC801BB842F7D9A4E7916851
:1055200021F4F811CEE700BF0000474200380240E6
:105530000070004010B5044690B1437903F0FF02BB
:1055400013B90271FEF7CEF8226802236371136863
:1055500043F004031360002001236371A06010BDB9
:105560000120FCE7026838B5D36823F0A003D360BC
:105570000446FEF793FC05462368DB689B0601D5CD
:10558000002038BDFEF78AFC401BB0F57A7FF3D9C6
:105590000320F6E738B50368DA685206044601D5F9
:1055A000002038BD4FF0FF32DA60FEF777FC054689
:1055B0002368DB685B06F3D4FEF770FC401BB0F594
:1055C0007A7FF5D90320ECE738B50446B8B1437FBC
:1055D00003F0FF0213B90277FEF79CF8022363770A
:1055E0002368CA225A6253225A622046FFF7D2FF2A
:1055F0002368054630B1FF225A62042363770125F0
:10560000284638BD9A68206922F4E00222F0400260
:105610009A60626899680243606902430A439A602B
:10562000E2681A611A69A16842EA01421A61DA68FD
:1056300022F08002DA609B689B0605D42046FFF7C3
:1056400091FF08B12368D6E72368A1691A6C22F498
:1056500080221A641A6C0A431A64FF225A620123D8
:105660006377CDE70023092803D840EA0310C0B2CE
:1056700070470A380133C0B2F5E72DE9F041037FE6
:10568000012B05460E464FF002072ED001684777E2
:105690000123037730787478B7788B6842BB13F0B6
:1056A000400308BFF370FFF7DDFF80462046FFF799
:1056B000D9FF04463846FFF7D5FFF37840EA0343A5
:1056C00043EA084343EA0424CA234B6253234B6250
:1056D0002846FFF75FFF2A680746A8B1FF235362F9
:1056E00004236B7700232B7701273846BDE8F08130
:1056F00013F0400308BFF3702402F37844EA004437
:105700003C4344EA0344DFE704F07F3424F0FE44E2
:105710001460936823F480239360D6E90330916882
:1057200003430B439360D36823F08003D3609468F2
:1057300014F020040AD12846FFF714FF30B12B687B
:10574000FF225A6204236B772C77CDE72B68FF2268
:105750005A6201236B7700232B77C6E7F8B5037FE6
:10576000012B05464FF002061FD001230377467731
:105770000E78C8784C788F787603C2B146EA004339
:105780003B4343EA04242B68CA225A6253225A62DA
:105790002846FFF7FFFE2A680646F8B1FF2353624A
:1057A00004236B7700232B7701263046F8BDE306F0
:1057B00042BF24F010040A344C70FFF753FF044634
:1057C0004878FFF74FFF02463846FFF74BFF40EAA5
:1057D000060343EA044343EA0224D4E724F07F4467
:1057E00024F0C0045460D36823F08003D36094682D
:1057F00014F020040AD12846FFF7B4FE30B12B681C
:10580000FF225A6204236B772C77CDE72B68FF22A7
:105810005A6201236B7700232B77C6E72DE9F3410A
:105820001C4616460F460546FEF738FB3444241A3C
:10583000FEF734FB244B1B68C3F3CB336343804632
:1058400001932A68936837EA030301D000202EE011
:10585000731CF7D0FEF722FBA0EB0800A04229D36F
:105860002B685A6822F0E0025A606A68B2F5827FBB
:105870000AD1AA68B2F5004F02D0B2F5806F03D109
:105880001A6822F040021A60AA6AB2F5005F07D1D6
:105890001A6822F400521A601A6842F400521A6020
:1058A000012385F85130002385F85030032002B0E1
:1058B000BDE8F081019A019B002A03F1FF330193B7
:1058C00008BF1446BDE700BF9000002038B513465E
:1058D0004268B2F5827F044606D00A460121FFF7EE
:1058E0009DFFB8B9002038BD8268B2F5004F02D0E4
:1058F000B2F5806F07D125682868B2F5806F20F077
:105900004000286003D00A4680212046E7E70A4687
:105910000121FAE7636D43F0200363650320E2E7AA
:1059200037B51346124A1568124AB5FBF2F54FF423
:105930007A72554342680195B2F5827F04460BD1D5
:105940000A468021FFF76AFF78B1636D43F02003B8
:105950006365032003B030BD019B33B1019B013B64
:10596000019323689B681B06F6D40020F2E700BF72
:105970009000002000366E0110B50446002855D076
:10598000436A002B4ED14268B2F5827F00D0C361DA
:105990000023A36294F8513003F0FF0223B984F886
:1059A00050202046FDF7D6FE2168A068A269022398
:1059B00084F851300B6823F040030B60636800F4F7
:1059C000044003F482730343E06800F4006003437F
:1059D000206900F002000343606900F00100034306
:1059E00002F400700343E06900F038000343206ACA
:1059F00000F080000343A06A00F4005003430B60F2
:105A0000636A120C03F0100302F004021A434A60A6
:105A1000CB6923F40063CB6100200123606584F827
:105A2000513010BD0023C0E90433B1E70120F8E78D
:105A30002DE9F7431F4690F85030012B04460D46E0
:105A4000904600F0A080012380F85030FEF726FA3F
:105A500094F85130012B8146D8B240F09280002D4D
:105A600061D0B8F1000F5ED0032384F851300023D9
:105A70006365C4E91033A4F83680A363A387E38782
:105A8000A36826682563B3F5004FA4F8348007D1D6
:105A9000336823F040033360336843F4804333605A
:105AA0003368E2685B065EBF336843F040033360EF
:105AB000B2F5006F63683FD113B1B8F1010F07D1A0
:105AC00035F8023BF3602563E38E013B9BB2E3862E
:105AD000E38E9BB2A3B94A4639462046FFF720FF22
