:020000040800F2
:10000000000002201D410008453D0008473D000852
:10001000493D00084B3D00084D3D00080000000030
:100020000000000000000000000000004F3D00083C
:10003000513D000800000000533D0008553D0008F8
:100040006D4100086D4100086D4100086D410008D8
:100050006D4100086D4100086D4100086D410008C8
:100060006D4100086D4100086D4100086D410008B8
:100070006D4100086D4100086D4100086D410008A8
:100080006D4100086D4100086D4100086D41000898
:100090006D4100086D4100086D4100086D41000888
:1000A0006D4100086D4100086D4100086D41000878
:1000B0006D4100086D4100086D4100086D41000868
:1000C0006D4100086D4100086D4100086D41000858
:1000D0006D4100086D410008753D00086D41000844
:1000E0006D4100086D4100086D4100086D41000838
:1000F0006D4100086D4100086D4100086D41000828
:100100006D4100086D4100086D410008813D000807
:100110006D4100086D4100086D4100086D41000807
:100120006D4100086D4100086D4100086D410008F7
:100130006D4100086D4100086D4100086D410008E7
:100140006D4100086D4100086D4100086D410008D7
:100150006D4100088D3D00086D410008993D000883
:100160006D4100086D4100086D4100086D410008B7
:100170006D4100086D4100086D410008000000005D
:080180006D4100086D4100080B
:1001900010F8012B11F8013B012A28BF9A42F7D031
:1001A000D01A7047000000000000000000000000AE
:1001B00001F0FF01102A2BDB10F0070F08D010F818
:1001C000013B013A8B422DD010F0070F42B3F6D11C
:1001D000F0B441EA012141EA014122F007047FF035
:1001E00000070023F0E80256083C85EA010586EA8C
:1001F000010685FA47F5A3FA87F586FA47F6A5FAC8
:1002000087F68EB9EED1F0BC01F0FF0102F00702D3
:1002100032B110F8013B013A83EA010313B1F8D17E
:100220000020704701387047002D06BF354603385F
:10023000073815F0010F07D1013015F4807F02BF98
:10024000013015F4C03F0130F0BC0138704700BFE9
:10025000034613F8012B002AFBD1181A0138704706
:1002600053B94AB9002908BF00281CBF4FF0FF311D
:100270004FF0FF3000F00CB8ADF1080C6DE904CE82
:100280000CF0F2FADDF804E0DDE9022304B0704777
:10029000704700BF0348044B834202D0034B03B1B5
:1002A00018477047980100209801002000000000C6
:1002B0000548064B1B1AD90F01EBA301491002D0C8
:1002C000034B03B1184770479801002098010020A4
:1002D0000000000010B5064C237843B9FFF7DAFFA1
:1002E000044B13B10448AFF300800123237010BD09
:1002F000980100200000000024CB000808B5054B41
:100300001BB105490548AFF30080BDE80840FFF781
:10031000CFBF00BF000000009C01002024CB0008DC
:100320000369C26893429CBF81685B18013B981ABD
:1003300070472DE9F041D0E902840546A8EB040698
:100340004068964220440F46144406D90BF02AFC1C
:10035000BFF35F8FEC60BDE8F0813246A4EB080488
:100360000BF020FC68682246B919EFE72DE9F84345
:10037000C5680646894617464FF000083369B468D9
:1003800070689D4228BF1B19641BBC4203F1FF33F8
:1003900028BF3C465B1B9C4228BF1C464946224660
:1003A00028440BF0FFFBB3682544A044A1443F1B45
:1003B000AB4208BF0025BFF35F8FF560002FDDD192
:1003C0004046BDE8F883000008B5144BA822002180
:1003D00018460BF0C1FE0322026111494261114A25
:1003E0008161C2614FF480620262002282624262D5
:1003F000C26201660C4941661021816603460267AC
:10040000C2664267BFF35F8F084911F8010D985427
:100410000132102AF9D1BFF35F8F08BDC805002053
:1004200008CD0008C5010020B5010020E0E3000868
:10043000F8B5144B182700FB07751D4407FB003364
:100440000E46DB6A012B14460AD0022B14D023B9C6
:100450002846FFF765FF844208D900242046F8BDEE
:100460002846FFF75DFF844228BF044622463146F6
:100470002846FFF75EFFF1E72846BDE8F840FFF7A2
:1004800075BF00BFC8050020F8B50B4B1B780446AC
:100490000D4616460BB9FFF797FFEFF311874FF0A4
:1004A000200181F31188324629462046FFF7C0FF1C
:1004B00087F31188F8BD00BFC8050020F8B5184CB7
:1004C000237805460E460BB9FFF77EFFEFF3118741
:1004D0004FF0200181F31188182202FB0542506A77
:1004E000116A431C994208BF0023D16A022902D134
:1004F000916A9942FBE7182202FB0541D1F828C016
:100500009C450BD005FB0222144462681654BFF3CD
:100510005F8F01204B6287F31188F8BD0020FAE756
:10052000C80500202DE9F041154C1E4623780546EC
:10053000884617460BB9FFF747FF022D1DD8EFF38A
:10054000118C4FF0200181F3118865B1182005FB53
:100550000003E21844F80380576000FB05420023C3
:10056000166293625362182303FB0544069BE36201
:100570008CF311880020BDE8F0814FF0FF30FAE7DE
:10058000C805002073B51C4D2B7804460BB9FFF746
:100590001BFFFF230F2C8DF8043029D8174B1B5D50
:1005A0008DF80530EFF311864FF0200181F31188AB
:1005B000EA6A02F00302022A0AD1114B11481C70A8
:1005C00001A9FFF7D3FE002086F3118802B070BDA9
:1005D0000C48FFF7A5FE012807D9094B09481C70F4
:1005E000022201A9FFF7A5FEEDE74FF0FF30EBE790
:1005F0004FF0FF30EAE700BFC8050020E1E3000844
:10060000B4010020E0050020826810B5044640686F
:10061000531C834205D820688154A360E3680133EA
:10062000E360D4E901329A420BD121682069FFF7D7
:100630002BFFA368984215BF4FF0FF330023E36000
:10064000A36010BD2DE9F84F9946DDE90A4316462F
:10065000054688460A464FF0010AB24212D2CA4500
:1006600038BFCA4613F0010B01D184B90024EB68EE
:10067000002B3DDB0127B9F1010F1FD909F1FF392B
:100680007743F8E70AF1010AB2FBF6F2E5E79B07C8
:1006900012D5B9F1000F0CBF30272027A245E6D2B2
:1006A00039462846FFF7B0FFEB68002B04F1FF3412
:1006B000DDDB002CF2D1D9E72027EFE7B8FBF7F319
:1006C0009E42DDD9DFF84890B8FBF7F3284619F8C9
:1006D000031007FB1388FFF797FFEB68002B03DB82
:1006E000B7FBF6F3B74205D2BBF1000F00D064B9F7
:1006F000BDE8F88F1F46E7E720212846FFF784FF73
:10070000EB68002B04F1FF34F2DB5445F4D8EFE73B
:10071000F1E300082DE9F04F00239BB00E46402185
:10072000CDE90613CDE908300DF1280A03901546EE
:10073000CDF814A016F8011B39B9089D002D00F35F
:10074000108108981BB0BDE8F08F252940F0BA80D1
:100750004FF0000B314611F8013B2D2B18D012D869
:10076000232B1CD02B2B17D00024314611F8013B32
:10077000A3F13000092815D80A2202FB0433A3F1A3
:1007800030040E46F1E7302BEED14BF0020B01E0C6
:100790004BF0010B0E46DDE74BF0040BFAE74BF094
:1007A000080BF7E72E2B11D10E464FF000090A2750
:1007B000304610F8011BA1F1300CBCF1090F07D82D
:1007C00007FB0911A1F130090646F1E74FF00009D6
:1007D000304610F8011B01F0FB07682F0646F8D0E1
:1007E000782909D86F290BD8632967D020D8252903
:1007F00068D0582900F09580089B002B9ADA9CE776
:1008000070390829F8D801A050F821F053090008E0
:10081000F9070008F907000833090008F90700087C
:1008200011090008F9070008F90700082309000862
:100830006429E1D129680F68081D87EAE7712860FB
:10084000A1EBE7714FF001080A2009293EDCC845F9
:1008500038BFC8462CB1002F02DB1BF0040F00D0BC
:10086000013C1BF0020F02D0B9F1000F04D01BF0C5
:10087000010F01D17CBB002408990029BCDB002FAB
:1008800035DA7F422D2105A8FFF7BEFE0899002921
:10089000B2DB0BF00301022904D1B9F1000F01D141
:1008A00054BB002408990029A6DBCDE9004B4B4638
:1008B0000A22394605A8FFF7C5FE9DE72B681A1DD9
:1008C00019782A6005A8FFF79FFE95E708F101084F
:1008D000B1FBF0F1B9E7A045CED2202105A8FFF782
:1008E00093FE0899002904F1FF34C3DAC4E71BF032
:1008F000040FCED02B21C6E7A045D3D2302105A8C6
:10090000FFF782FE0899002904F1FF34C8DAC9E72D
:100910002968081D2860CDE9004B4B460A2209686A
:10092000C8E72968081D2860CDE9004B4B46102216
:10093000F5E72B681A1D2A601C6814F8011B0029B2
:100940003FF45AAF05A8FFF75FFE089B002BF4DACF
:1009500052E729680B1D2B6000220823CDE90032E5
:10096000E5E7079C24B1039822465146FFF78CFD2A
:100970002C440894E5E600BF0EB403B503AB01AA0E
:1009800053F8041B0193FFF7C5FE02B05DF804EBBA
:1009900003B0704770470000F0B5044685B00D46BF
:1009A00016461F460A4804F01BFC20280CD14FF0C5
:1009B000FF33CDE90173009601232A4621460448FE
:1009C00004F052FA05B0F0BD0A2003F021FCE9E77B
:1009D00078390020F0B5044685B00D4616461F460E
:1009E0000D4804F0FDFB2028FAD14FF0FF33CDE98C
:1009F00001732A46084800960123214604F0A4F911
:100A0000054D4FF0FF3301222146284604F034FB08
:100A10000028F6D105B0F0BD7839002008B513885C
:100A2000054A13800246A020FFF7B6FF10B1FFF77A
:100A3000B1FF012008BD00BF720600200A464FF436
:100A400096730146014804F017BB00BF78390020B7
:100A500013460B4A10B513700246A020FFF7BAFFE9
:100A6000044610B1FFF796FF012440F6B831A020EC
:100A7000FFF7E4FF10B1FFF78DFF0124204610BD02
:100A8000700600202DE9F84F11F00F0705460C46BF
:100A90001646C2F307185FFA82FA02F00F0B1DD157
:100AA000B8F1000F01D15A462FE010222146284606
:100AB000FFF7CEFF60B908F1FF38103418F0FF08D7
:100AC000A4B205F11005F0D1BBF1000F02D1002056
:100AD000BDE8F88F5A462146284616E05FFA87F9A6
:100AE000C7F11007FFB2B8F1000F12D19742DAD266
:100AF0003A46FFF7ADFF0028EAD1AAF1100A09EB48
:100B00000A023919D2B289B2E819BDE8F84FFFF7E5
:100B10009FBF3A46FFF79CFF0028D9D1F61B3D4402
:100B20003C441FFA86F8641B06F47F662E44A4B288
:100B30002919B54289B203D118F00F02C7D0CBE70B
:100B400010222846FFF784FF0028C1D11035EFE7B7
:100B5000054B0A4619688B689B07FCD50146642340
:100B6000014805F019B900BF3438002007B5084B1B
:100B70008DF807001A6893689B07FCD5642301224F
:100B80000DF10701024805F007F903B05DF804FB19
:100B90003438002008B5074B1B78012B04D10648D8
:100BA0000022042103F040FEBDE80840012003F0CC
:100BB0002FBB00BF78000020000C024008B5064B98
:100BC0001A78012A03D10548042103F02DFEBDE85F
:100BD0000840012003F01CBB78000020000C0240FC
:100BE0001FB5FF238DF80E30094B1A6893689B07D9
:100BF000FCD5642300930DF10F0201230DF10E01CA
:100C0000034805F076F99DF80F0005B05DF804FB88
:100C10003438002013B5FFF7D1FF0A24FF20FFF777
:100C2000A5FF013CFAD1FFF7B5FF40230093062151
:100C30004FF415436846ADF80430FFF789FF4FF4D1
:100C40000054FFF7CDFF012809D1FFF7B7FFFF20C0
:100C5000FFF78CFF034B01221A7002B010BD013C5C
:100C6000EFD1F2E77406002010B5064C4FF4FA738A
:100C70002380FFF7B5FFFF2802D02388002BF8D18F
:100C800010BD00BF7606002070B506460D46FFF782
:100C9000EBFFFF284FF0000423D12846FFF766FF43
:100CA000FD2D18D04FF400713046FFF751FFFFF7CC
:100CB00097FFFFF795FF4125FFF792FF00F01F0315
:100CC000052B044603D0013D15F0FF05F4D1FFF7D5
:100CD00087FF0028FBD004F01F04631F58425841CF
:100CE00070BD2046FCE738B504460D46FFF7BCFF53
:100CF000FF2828D12046FFF739FF280EFFF736FFDF
:100D0000C5F30740FFF732FFC5F30720FFF72EFFBB
:100D1000E8B2FFF72BFF402C13D0482C14BF012062
:100D20008720FFF723FF4C2C01D1FFF759FF0A243E
:100D3000FFF756FF030603D5013C14F0FF04F7D17B
:100D400038BD9520EDE7FF20FAE7000070B50F4DA4
:100D5000C82304460E462B80FFF742FFFF2803D12D
:100D600028880028F8D170BDFE280DD1651E3444B6
:100D7000FFF736FF05F8010FA542F9D1FFF730FF65
:100D8000FFF72EFF0120EEE70020ECE778060020B9
:100D90002DE9F341002840F09D804F4E357815F045
:100DA000020504D03078C0B202B0BDE8F081FFF790
:100DB00031FFFFF7EFFE29464020FFF794FF01289F
:100DC00004460DD00024454B1C70FFF7F7FEFFF7DB
:100DD00007FF002C7BD0337803F0FE033370E1E78C
:100DE0003F4F4FF47A734FF4D57148203B80FFF7A3
:100DF0007AFF01283DD101ADA8460424FFF7F0FE9B
:100E0000013C14F0FF0408F8010BF7D19DF80630FF
:100E1000012BD7D19DF80730AA2BD3D10021772001
:100E2000FFF761FF012803D93B88002BF6D1C9E702
:100E30004FF080416920FFF756FF01460028F3D1AB
:100E40003B88002BBED07A20FFF74DFF0028B9D198
:100E50000424FFF7C5FE013C14F0FF0405F8010B64
:100E6000F7D19DF8043013F0400F0CBF04240C247C
:100E7000A9E729467720FFF736FF012806D829463B
:100E80006920FFF730FF012898BF0224022C4FF0A1
:100E900000011AD17720FFF726FF012803D93B88EC
:100EA000002BF3D18EE700216920FFF71CFF0028FB
:100EB000F5D13B88002B85D04FF400715020FFF70F
:100EC00012FF00287FF47EAF7DE74120EDE7054B60
:100ED0001C7067E7012067E700000020750600200E
:100EE000780600207406002018B9034B1878C0B2A9
:100EF00070470120704700BF0000002070B50E460B
:100F000015461C46002837D1002B35D01C4B1B78CA
:100F1000DA0733D41B4B1B785B0758BF6D02FFF712
:100F200039FE012C294613D15120FFF7DCFE38B9D8
:100F30004FF400713046FFF709FFB0FA80F46409FE
:100F4000FFF73CFEFFF74CFE201E18BF012070BDCE
:100F50005220FFF7C8FE0028F2D14FF4007130464E
:100F6000FFF7F4FE18B1013C06F50076F5D100213B
:100F70004C20FFF7B8FEE3E70420E8E70320E6E7AC
:100F80000000002075060020F8B50D4616461C46E8
:100F9000002847D1002B45D0254B1A78D00743D4E1
:100FA0001B78590742D4234F3B785A0758BF760223
:100FB000FFF7F0FD012C13D131465820FFF793FEC7
:100FC00070BBFE212846FFF75FFEB0FA80F464098B
:100FD000FFF7F4FDFFF704FE201E18BF0120F8BD47
:100FE0003B789B0707D500217720FFF77CFE214641
:100FF0005720FFF778FE31465920FFF774FE00288E
:10100000E6D1FC212846FFF73FFE18B1013C05F56B
:101010000075F6D1FD210020FFF736FE0028D7D15C
:101020000124D5E70420DAE70320D8E70220D6E739
:1010300000000020750600207FB50E4615460446C8
:10104000002840F08F80052913D11378012B09D097
:10105000022B0AD0002B40F08580444B18702046AC
:1010600004B070BDFFF7D6FDF9E7404B1B78537015
:10107000F5E73F4B1C7814F0010475D1FFF78AFDAA
:101080000D2E6DD8DFE806F04807446C6C6C6C6C74
:101090006C6C6C4F5D6000214920FFF724FE28B185
:1010A0000124FFF78BFDFFF79BFDD8E71021684671
:1010B000FFF74CFE0028F3D09DF800109DF8093092
:1010C0009DF808208909012906D1013303EB022389
:1010D0009BB29B022B60E4E79DF807109DF80A0085
:1010E000920902EB81029DF80610890201F4406129
:1010F00001320A449DF805105B0001F00F0101EB7D
:10110000D01103F006030B44073B02FA03F3E1E7B7
:101110004FF400732B80C4E7FFF7A6FDB0F1FF0486
:1011200018BF0124BDE700214920FFF7DCFD00289E
:10113000B6D110212846FFF709FEB0FA80F4640901
:10114000AFE700214A20F0E700217A20FFF7CBFD2E
:1011500030B92C1DFFF744FD05F8010BAC42F9D165
:1011600004249EE704247AE7032478E77406002029
:101170000000002030B5144987B0044611221348FE
:1011800009F01EF90546E0B9214611480AF036F883
:101190006B46122201A90D4809F0AEFA0B4809F07E
:1011A00062FD01A90B488DF815500AF027F81222AC
:1011B000214601A8FFF766FC2146024606480AF0D0
:1011C0001DF807B030BD00BF5FCD000880060020CD
:1011D00065CD00089FCD0008A9CD000810B5094BCA
:1011E0001B7898B004465D2253B9074968460AF057
:1011F000D9FC5D222146684602F066FB18B010BD9E
:101200000249F3E7B93A002056CE0008B3CE0008F1
:1012100030B52D4C9BB0054601462C4809F0EEFF39
:101220002B491122204609F0CBF801AB02A90F226D
:10123000204609F061FA204609F015FD25491122E2
:10124000204609F0BDF801AB0DF117010F22204631
:1012500009F052FA204609F006FD1F4911222046E6
:1012600009F0AEF801AB0DF126010F22204609F07E
:1012700043FA204609F0F7FC18491122204609F0EC
:101280009FF801AB0DF135010F22204609F034FA29
:10129000204609F0E8FC12491122204609F090F896
:1012A0002246212111A809F080FE204609F0DBFC2E
:1012B00002A90C4809F0A2FF5D22294602A802F00B
:1012C00003FB1BB030BD00BF8006002010CF00081C
:1012D00016CE00081ECE000826CE00082ECE00082E
:1012E00036CE000848CF0008F0B59DB001465D221B
:1012F00004A802F0FFF904A90F226E486E4F6F4E4A
:101300006F4D704C0AF018FD0DF11F010F226E4851
:101310000AF012FD0DF12E010F226C480AF00CFDAF
:101320000DF13D010F226A480AF006FD04A90322CF
:1013300003A80AF001FD03A80AF026FE05A93870EB
:10134000032203A80AF0F8FC03A80AF01DFE06A970
:101350007870032203A80AF0EFFC03A80AF014FE39
:1013600007A9B870032203A80AF0E6FC03A80AF054
:101370000BFE0DF11F01F870032203A80AF0DCFC3C
:1013800003A80AF001FE0DF123013070032203A827
:101390000AF0D2FC03A80AF0F7FD0DF127017070E6
:1013A000032203A80AF0C8FC03A80AF0EDFD0DF122
:1013B0002B01B070032203A80AF0BEFC03A80AF0B8
:1013C000E3FD0DF12E01F070032203A80AF0B4FC36
:1013D00003A80AF0D9FD0DF132012870032203A8F9
:1013E0000AF0AAFC03A80AF0CFFD0DF136016870DF
:1013F000032203A80AF0A0FC03A80AF0C5FD0DF122
:101400003A01A870032203A80AF096FC03A80AF088
:10141000BBFD0DF13D01E870032203A80AF08CFC2E
:1014200003A80AF0B1FD0DF141012070032203A8C9
:101430000AF082FC03A80AF0A7FD0DF145016070D7
:10144000032203A80AF078FC03A80AF09DFD0DF121
:101450004901A070032203A80AF06EFC03A80AF059
:1014600093FD13A9E07020221A480AF065FCFB786E
:101470000093BB787A783978174809F0BFFEF37883
:101480000093B37872783178144809F0B7FEEB789E
:101490000093AB786A782978114809F0AFFEE378B9
:1014A0000093A378627821780E4809F0A7FE1DB05A
:1014B000F0BD00BFBB000020473700201A370020D6
:1014C000433700203F370020AB0000209B00002066
:1014D0008B0000201E37002059CF000870CF000875
:1014E00087CF00089ECF0008F0B5054685B00B48B1
:1014F0000AF0A4FA0A4B6A4603F110071646186868
:101500005968144603C40833BB422246F7D110225F
:101510002946304602F0D8F905B0F0BDB5CF000835
:10152000CACF0008F0B589B01022054600216846F0
:101530000AF012FE0D4B04AA03F1100716461868B4
:101540005968144603C40833BB422246F7D12946E2
:101550001022684602F0CEF80F22314668460AF0A3
:10156000D9FB003818BF012009B0F0BD4FCD0008ED
:1015700030B58C4C8C488D4D8DB001F095FF8C4969
:101580001122204608F01CFF2246102103A809F072
:101590000CFD03A9874809F029FE03A9032202A82C
:1015A0000AF0CAFB02A80AF0EFFC04A92870032283
:1015B00002A80AF0C1FB02A80AF0E6FC05A96870BF
:1015C000032202A80AF0B8FB02A80AF0DDFC06A973
:1015D000A870032202A80AF0AFFB02A80AF0D4FC0C
:1015E000E870C0B20090AB786A7829787248734D81
:1015F00009F004FE204609F036FB7149112220460D
:1016000008F0DEFE2246102103A809F0CEFC03A953
:101610006C4809F0EBFD03A9032202A80AF08CFB39
:1016200002A80AF0B1FC04A92870032202A80AF05B
:1016300083FB02A80AF0A8FC05A96870032202A88F
:101640000AF07AFB02A80AF09FFC06A9A870032200
:1016500002A80AF071FB02A80AF096FCE870C0B27A
:101660000090AB786A7829785748584D09F0C6FD44
:10167000204609F0F8FA56491122204608F0A0FE4B
:101680002246102103A809F090FC03A9514809F053
:10169000ADFD03A9032202A80AF04EFB02A80AF03E
:1016A00073FC04A92870032202A80AF045FB02A8D3
:1016B0000AF06AFC05A96870032202A80AF03CFB44
:1016C00002A80AF061FC06A9A870032202A80AF089
:1016D00033FB02A80AF058FCE870C0B20090AB7867
:1016E0006A7829783C483D4D09F088FD204609F08C
:1016F000BAFA3B491122204608F062FE2246102128
:1017000003A809F052FC03A9364809F06FFD03A9AC
:10171000032202A80AF010FB02A80AF035FC04A973
:101720002870032202A80AF007FB02A80AF02CFC8A
:1017300005A96870032202A80AF0FEFA02A80AF0BE
:1017400023FC06A9A870032202A80AF0F5FA02A851
:101750000AF01AFCE870C0B20090AB786A78297879
:101760002148224D09F04AFD204609F07CFA204923
:101770001122204608F024FE2246212103A809F068
:1017800014FC202203A928460AF0D6FA204609F0C4
:101790006AFA00232946174885F8203009F02EFD03
:1017A0000DB030BD80060020DACF0008473700209A
:1017B00016CE0008BB00002059CF00081A370020C1
:1017C0001ECE0008AB00002070CF00084337002079
:1017D00026CE00089B00002087CF00083F3700205E
:1017E0002ECE00088B0000209ECF00081E37002060
:1017F00036CE0008F7CF000808B50F490F4806F0AD
:1018000033FC0F490F4806F02FFC0F490F4806F034
:101810002BFC0F490F4806F027FC0F490F4806F034
:1018200023FC0F490F4806F01FFCBDE808400E4995
:101830000E4806F019BC00BF721C010860DF0008EA
:1018400001E4000832CD0008BB00002016CE0008DD
:10185000AB0000201ECE00089B00002026CE000812
:101860008B0000202ECE00087900002001D0000857
:1018700010B5002204464FF400711C4802F0D4FF5A
:10188000462002F0C5FC01224FF40071174802F017
:10189000CBFF462002F0BCFC02F0E4FB144B1549E0
:1018A0001A689B888B80144B0A601B68C1F806304D
:1018B000124B1B68C1F80E30114B00201B68C1F899
:1018C0000A3006F055F80F4A0023128801212046FD
:1018D00005F0EAF9204605F079FA012805D12146FC
:1018E0000948BDE8104009F089BC10BD000802405D
:1018F00014370020D800002047370020433700204D
:101900003F3700207400002009D0000810B51049AE
:101910001048002208F02AFD0F491048112208F053
:101920004FFD38B90E4801F0BFFDBDE810400B482F
:1019300009F099B90B4B0C480024012204211C70BA
:1019400002F072FF09482246042102F06DFFECE725
:10195000D9CF0008D816002016CE00088006002037
:1019600025D0000878000020000C02400010024042
:1019700008B505480122042102F056FFBDE80840E1
:10198000024801F097BE00BF000C0240343800202E
:1019900038B5324B1B780BBB314D2B787BB94FF4EC
:1019A000D070FFF7BFFD044648B92E480AF046F84C
:1019B0002046FFF713FC4FF4D070FFF795FD2B780E
:1019C000012B06D1FFF7D4FDBDE838400020FFF71A
:1019D0001FBCBDE838400020FFF786BC0020FFF7A1
:1019E000FDFB0020FFF780FC01224FF480511E48D0
:1019F00002F01AFF642002F00BFC00224FF4805129
:101A0000194802F011FF642002F002FC01224FF499
:101A10008051154802F008FF642002F0F9FB002213
:101A20004FF48051104802F0FFFE642002F0F0FBFA
:101A300001224FF480510C4802F0F6FE642002F0BF
:101A4000E7FB094800224FF4805102F0EDFE6420CC
:101A500002F0DEFBBDE8384002F040BC983A0020BE
:101A60007800002031D00008000C0240024A002318
:101A70001288022105F018B9720000200122082105
:101A800008B50C4802F0D0FE0B4A01215378DB4325
:101A900003F0F003043143F005033129537002F1E0
:101AA0000402F3D1BDE8084002480022082102F0F8
:101AB000BBBE00BF000C0240D83900200122082123
:101AC00008B50C4802F0B0FE0B4A01215378DB4305
:101AD00003F0F003043143F005033129537002F1A0
:101AE0000402F3D1BDE8084002480022082102F0B8
:101AF0009BBE00BF000C0240083A002037B50546E7
:101B000002F080FB2F4B30491B88009304462F4B7B
:101B10003022284605F0D4FA02F074FB04F5FA747A
:101B2000A0420AD200222A484FF4804102F07CFEF3
:101B3000284B01221A7003B030BD274C274894F976
:101B4000001009F05BFB224800224FF4805102F0A4
:101B50006BFE1F4800224FF4004102F065FE012297
:101B60004FF480411A4802F05FFE642002F050FBFF
:101B700000224FF48041164802F056FE642002F025
:101B800047FB01224FF48041114802F04DFE6420D2
:101B900002F03EFB00224FF480410D4802F044FE6B
:101BA000642002F035FB0E4803F044FB2378013B30
:101BB0005BB2002B2370BEDA03B0BDE8304002F008
:101BC0008DBB00BF72000020050000201A370020E6
:101BD000000C0240B83A00207600002041D00008F6
:101BE0006C39002008B5054809F028FF002006F0F0
:101BF0002BFABDE8084002F071BB00BF6DD00008B1
:101C000010B51D4B8AB0B3F8A520ADF808200446E6
:101C10001A4AD3F8A10093F8A7308DF80A300023B0
:101C2000CDE904230534164A019001A92046CDE9E7
:101C30000723ADF80B308DF80D30ADF81830ADF846
:101C40002430FEF7A5FA48B104A92046FEF7A0FA11
:101C500020B107A92046FEF79BFA38B9094809F0D8
:101C6000EDFE094B01221A700AB010BD07480AB0F8
:101C7000BDE8104009F0E2BE3CCB00087573657208
:101C80003132330083D000089A3A00208CD000080B
:101C900008B50949202208300AF03CF830B9074855
:101CA00001F002FC064B01221A7008BDBDE8084095
:101CB000044801F0F9BB00BF1E3700209FD0000888
:101CC000993A0020ADD000082DE9F04701468EB0CA
:101CD00004469F4809F092FA0023E25C2E2A03F1A1
:101CE0000107DBB205D038336B4403F8182C3B46B0
:101CF000F3E7032B18D1BDF820209DF82230ADF872
:101D000010208DF8123004A80AF03EF93D46C6B204
:101D1000625DEB1B2E2ADBB205F1010519D03833C9
:101D20006B4403F8182CF3E7022B09D130238DF80C
:101D300010309DF820308DF811309DF82130E0E70B
:101D4000012BE0D143F23003ADF810309DF8203084
:101D5000D7E7032B1AD1BDF820209DF82230ADF82B
:101D600014208DF8163005A80AF00EF9AA46C7B25D
:101D700014F80A20AAEB05032E2ADBB20AF1010AA5
:101D800019D038336B4403F8182CF1E7022B09D132
:101D900030238DF814309DF820308DF815309DF8E3
:101DA0002130DEE7012BDED143F23003ADF81430F1
:101DB0009DF82030D5E7032B1DD1BDF820209DF8DC
:101DC0002230ADF818208DF81A3006A80AF0DCF899
:101DD00004EB0A0580465FFA80F9002415F8013B00
:101DE000621CE4B2E3B104F138010DEB010404F824
:101DF000183C1446F2E7022B09D130238DF8183035
:101E00009DF820308DF819309DF82130DBE7012B4B
:101E1000DBD143F23003ADF818309DF82030D2E723
:101E2000032C1ED1BDF820209DF82230ADF81C20D7
:101E30008DF81E30474C07A80AF0A6F82378B34265
:101E4000C0B223D16378BB4220D1A3784B451DD1CA
:101E5000E37883421AD1404809F0F0FD0EB0BDE8A6
:101E6000F087022C09D130238DF81C309DF82030EA
:101E70008DF81D309DF82130DAE7012CDAD143F2DC
:101E80003003ADF81C309DF82030D1E7E0702670AB
:101E9000677084F802905FFA88F300903A462F4802
:101EA000314609F0ABF92E4B1D78012D37D12D4964
:101EB0002D48122208F084FA0028CFD12B4809F0CF
:101EC000BDFD0A2304A903220AA88DF80C302E2494
:101ED00009F032FF05A903220BA88DF82B4009F069
:101EE0002BFF06A903220CA88DF82F4009F024FF30
:101EF00007A903220DA88DF8334009F01DFF2A46DB
:101F000003A90DF1370009F017FF09AB10220AA948
:101F1000154808F0C7FC144808F0A5FE9EE71448D1
:101F200009F08CFD0322002104A801F0CDFC03225E
:101F3000042105A801F0C8FC0322082106A801F02D
:101F4000C3FC03220C2107A801F0BEFC86E700BFFA
:101F5000BFD0000847370020D1D00008F3D00008D8
:101F60007800002016CE0008800600200ED1000860
:101F700034D100082DE9F04300238FB00446E25C21
:101F80002E2A03F10106DBB205D038336B4403F887
:101F9000182C3346F3E7032B18D1BDF820209DF809
:101FA0002230ADF810208DF8123004A809F0ECFFB3
:101FB0003746C5B2E25DBB1B2E2ADBB207F1010733
:101FC00019D038336B4403F8182CF3E7022B09D1EE
:101FD00030238DF810309DF820308DF811309DF8A9
:101FE0002130E0E7012BE0D143F23003ADF81030AF
:101FF0009DF82030D7E7032B1AD1BDF820209DF89B
:102000002230ADF814208DF8163005A809F0BCFF79
:10201000B946C6B214F80920A9EB07032E2ADBB291
:1020200009F1010919D038336B4403F8182CF1E792
:10203000022B09D130238DF814309DF820308DF813
:1020400015309DF82130DEE7012BDED143F230035D
:10205000ADF814309DF82030D5E7032B1DD1BDF825
:1020600020209DF82230ADF818208DF81A3006A8EF
:1020700009F08AFF04EB090207465FFA80F80024A2
:1020800012F8013B611CE4B2E3B104F138000DEB3E
:10209000000404F8183C0C46F2E7022B09D1302367
:1020A0008DF818309DF820308DF819309DF82130CA
:1020B000DBE7012BDBD143F23003ADF818309DF89C
:1020C0002030D2E7032C1ED1BDF820209DF822300D
:1020D000ADF81C208DF81E30454C07A809F054FFC0
:1020E0002378AB42C0B223D16378B34220D1A37826
:1020F00043451DD1E37883421AD13E4809F09EFC46
:102100000FB0BDE8F083022C09D130238DF81C30CC
:102110009DF820308DF81D309DF82130DAE7012C34
:10212000DAD143F23003ADF81C309DF82030D1E70E
:102130002570E070667084F80280FBB2009029463A
:102140002D48324609F05AF82C4B1D78012D37D115
:102150002B492C48122208F033F90028D0D12A4804
:1021600009F06CFC0A2304A903220AA88DF80C309C
:102170002E2409F0E1FD05A903220BA88DF82B40C0
:1021800009F0DAFD06A903220CA88DF82F4009F00A
:10219000D3FD07A903220DA88DF8334009F0CCFD2B
:1021A0002A4603A90DF1370009F0C6FD09AB10223C
:1021B0000AA9144808F076FB124808F054FD9FE77E
:1021C000124809F03BFC03222D2104A801F07CFBFE
:1021D0000322312105A801F077FB0322362106A84E
:1021E00001F072FB03223A2107A801F06DFB87E79B
:1021F0003F3700205ED100087FD100087800002022
:102200002ECE0008800600209AD10008C0D1000818
:102210002DE9F04300238FB00446E25C2E2A03F13F
:102220000106DBB205D038336B4403F8182C334673
:10223000F3E7032B18D1BDF820209DF82230ADF82C
:1022400010208DF8123004A809F09EFE3746C5B262
:10225000E25DBB1B2E2ADBB207F1010719D0383330
:102260006B4403F8182CF3E7022B09D130238DF8C7
:1022700010309DF820308DF811309DF82130E0E7C6
:10228000012BE0D143F23003ADF810309DF820303F
:10229000D7E7032B1AD1BDF820209DF82230ADF8E6
:1022A00014208DF8163005A809F06EFEB946C6B2A6
:1022B00014F80920A9EB07032E2ADBB209F1010962
:1022C00019D038336B4403F8182CF1E7022B09D1ED
:1022D00030238DF814309DF820308DF815309DF89E
:1022E0002130DEE7012BDED143F23003ADF81430AC
:1022F0009DF82030D5E7032B1DD1BDF820209DF897
:102300002230ADF818208DF81A3006A809F03CFEEE
:1023100004EB090207465FFA80F8002412F8013B3B
:10232000611CE4B2E3B104F138000DEB000404F8E1
:10233000183C0C46F2E7022B09D130238DF81830F7
:102340009DF820308DF819309DF82130DBE7012B06
:10235000DBD143F23003ADF818309DF82030D2E7DE
:10236000032C1ED1BDF820209DF82230ADF81C2092
:102370008DF81E30454C07A809F006FE2378AB42C5
:10238000C0B223D16378B34220D1A37843451DD195
:10239000E37883421AD13E4801F086F80FB0BDE8D9
:1023A000F083022C09D130238DF81C309DF82030A9
:1023B0008DF81D309DF82130DAE7012CDAD143F297
:1023C0003003ADF81C309DF82030D1E72570E07067
:1023D000667084F80280FBB2009029462D48324690
:1023E00008F00CFF2C4B1D78012D37D12B492C48C0
:1023F000122207F0E5FF0028D0D12A4809F01EFB81
:102400000A2304A903220AA88DF80C302E2409F00F
:1024100093FC05A903220BA88DF82B4009F08CFC36
:1024200006A903220CA88DF82F4009F085FC07A906
:1024300003220DA88DF8334009F07EFC2A4603A93B
:102440000DF1370009F078FC09AB10220AA91448F5
:1024500008F028FA124808F006FC9FE7124809F035
:10246000EDFA03221E2104A801F02EFA03222221F4
:1024700005A801F029FA0322262106A801F024FA72
:1024800003222A2107A801F01FFA87E7433700201B
:10249000EAD100080DD200087800002026CE0008FE
:1024A0008006002028D200084ED200082DE9F04313
:1024B00000238FB00446E25C2E2A03F10106DBB252
:1024C00005D038336B4403F8182C3346F3E7032B5D
:1024D00018D1BDF820209DF82230ADF810208DF8DD
:1024E000123004A809F050FD3746C5B2E25DBB1BAF
:1024F0002E2ADBB207F1010719D038336B4403F8F9
:10250000182CF3E7022B09D130238DF810309DF8F9
:1025100020308DF811309DF82130E0E7012BE0D11B
:1025200043F23003ADF810309DF82030D7E7032B8D
:102530001AD1BDF820209DF82230ADF814208DF876
:10254000163005A809F020FDB946C6B214F80920D6
:10255000A9EB07032E2ADBB209F1010919D03833A0
:102560006B4403F8182CF1E7022B09D130238DF8C6
:1025700014309DF820308DF815309DF82130DEE7BD
:10258000012BDED143F23003ADF814309DF820303A
:10259000D5E7032B1DD1BDF820209DF82230ADF8E2
:1025A00018208DF81A3006A809F0EEFC04EB090299
:1025B00007465FFA80F8002412F8013B611CE4B280
:1025C000E3B104F138000DEB000404F8183C0C46AC
:1025D000F2E7022B09D130238DF818309DF8203016
:1025E0008DF819309DF82130DBE7012BDBD143F268
:1025F0003003ADF818309DF82030D2E7032C1ED1FF
:10260000BDF820209DF82230ADF81C208DF81E303A
:10261000454C07A809F0B8FC2378AB42C0B223D1DF
:102620006378B34220D1A37843451DD1E378834238
:102630001AD13E4800F038FF0FB0BDE8F083022CFD
:1026400009D130238DF81C309DF820308DF81D30D5
:102650009DF82130DAE7012CDAD143F23003ADF8EE
:102660001C309DF82030D1E72570E070667084F84A
:102670000280FBB2009029462D48324608F0BEFD8C
:102680002C4B1D78012D37D12B492C48122207F0F5
:1026900097FE0028D0D12A4809F0D0F90A2304A9CE
:1026A00003220AA88DF80C302E2409F045FB05A959
:1026B00003220BA88DF82B4009F03EFB06A903224C
:1026C0000CA88DF82F4009F037FB07A903220DA8AD
:1026D0008DF8334009F030FB2A4603A90DF137008D
:1026E00009F02AFB09AB10220AA9144808F0DAF80D
:1026F000124808F0B8FA9FE7124809F09FF9032240
:102700000F2104A801F0E0F80322132105A801F02D
:10271000DBF80322172106A801F0D6F803221B21BB
:1027200007A801F0D1F887E71A37002078D200080F
:102730009BD20008780000201ECE000880060020F2
:10274000B6D20008DCD2000810B50146044617488E
:1027500008F054FD164809F071F9164B1B78012B4F
:1027600019D115491548122207F02AFEE8B9144874
:1027700009F064F900220023104808F085FA0F4997
:10278000204608F037FC0D4808F0C0F9BDE81040BD
:102790000A4808F068BA0B4809F050F9204621228F
:1027A000BDE810403C2101F08FB810BD06D30008F1
:1027B000C8CF00087800002036CE00088006002030
:1027C0001ED3000840D30008F7B51E4F04460D463F
:1027D0001D4816460821012202F026F83B7833B93D
:1027E0001A4900962B463022204604F069FC3B78BB
:1027F000012B06D1164900962B463022204604F0C4
:102800005FFC144C10480022082102F00DF82368E8
:102810000133142B236005D10B4800224FF4805163
:1028200002F002F82368282B0AD10748002301226E
:102830004FF48051236003B0BDE8F04001F0F4BFD5
:1028400003B0F0BDB93A0020000C0240383A002035
:10285000D8390020B43A0020F0B55B4C236885B02D
:102860000133236006460F46ADF80E2001F0CAFC86
:10287000564B98421ED9256842F21073B5FBF3F20D
:1028800003FB1255B5B9524B1E6801361E60514B01
:102890001B7853B101F0B6FC4FF47A734E49B0FB8C
:1028A000F3F332462846FEF767F8236801332360C6
:1028B00005B0F0BD494C4A480122102101F0B4FF97
:1028C000237843B90DF10E03009346493B4630226D
:1028D000304604F09DFC2578012D4AD10DF10E0300
:1028E0004149009330223B46304604F091FC3F4979
:1028F0003D48FDF74DFC044600283AD12A464FF4E6
:102900008041374801F090FF642001F081FC2246AD
:102910004FF48041324801F087FF642001F078FCD9
:102920002A464FF480412E4801F07EFF642001F0DA
:102930006FFC22464FF48041294801F075FF642066
:1029400001F066FC2A464FF48041254801F06CFFF7
:10295000642001F05DFC22464FF48041204801F0E4
:1029600063FF642001F054FC214809F067F8FFF789
:1029700039F900221A481F4C102101F055FF1E4A58
:1029800013680133136023680133142B23600BD1C8
:10299000134800224FF4804101F046FF1048002206
:1029A0004FF4004101F040FF2368282B80D1002321
:1029B0000B48236001224FF4004101F035FF0F481E
:1029C00002F038FC74E700BFA83A0020878A0100B3
:1029D000A43A0020A03A002066D30008B93A0020AB
:1029E000000C0240683A0020083A00204100002014
:1029F00087D30008B03A0020AC3A00206C390020A0
:102A00002DE9F74304464FF40041814801F006FFE9
:102A10000128054640F0F9807E4E3778002F40F0BF
:102A2000B680024620217C48DFF8308201F0FCFEAF
:102A300079483A46202101F0F7FE78482A462021BD
:102A400001F0F2FE4FF48053754A764900937648C0
:102A5000302303F04EFA71483A46202101F0E4FE9B
:102A600072482A464FF4807101F0DEFE6F483A4604
:102A70004FF4807101F0D8FE6D49694800F002FE04
:102A800098F800305BB1664800F050FD684800F0EF
:102A9000A5FD634800F076FD614800F0C7FD65497B
:102AA0006348654D654F00F0FCFD654A00285DD028
:102AB0002B6801332B6098F800304FF0000982F842
:102AC000009053B10620FDF75DFD2A685D49484638
:102AD000FDF752FF4846FDF755FD2A6846F6781384
:102AE0009A424AD13B88584900933022574B20469E
:102AF00004F0E6FA564808F0A1FF01224FF48041A5
:102B0000464801F091FE642001F082FB00224FF460
:102B10008041424801F088FE642001F079FB0122E7
:102B20004FF480413D4801F07FFE642001F070FBCE
:102B300000224FF48041394801F076FE642001F014
:102B400067FB01224FF48041344801F06DFE6420A0
:102B500001F05EFB00224FF48041304801F064FE3A
:102B6000642001F055FBFFF73DF806E013780133D0
:102B7000DBB2642B1370B0D128603A883349204609
:102B8000FFF722FE3A8831492046FFF765FE357887
:102B9000012D3AD1FEF792FF2A461F48202101F06D
:102BA00043FE1D480022202101F03EFE2A461B481C
:102BB000202101F039FE4FF480530093254A264925
:102BC0001948302303F095F914480022202101F020
:102BD0002BFEFEF753FF2A461448184D4FF4807120
:102BE00001F022FE114800224FF4807101F01CFE1A
:102BF0002A8816492046FFF72FFE2A8813492046C7
:102C000003B0BDE8F043FFF7DFBD03B0BDE8F083DC
:102C100000040240B93A002000080240000C0240C3
:102C2000383A0020683A00208C380020000002402A
:102C3000CC390020350000209C3A00207200002092
:102C40009B3A0020AAD30008410000201A37002038
:102C5000BCD30008D8390020083A0020A03A002050
:102C6000F0B5144B85B06D46044603F110072A46B3
:102C7000186859682E4603C60833BB423546F7D15B
:102C80001346114625780022104611F8016BB54213
:102C900008BF80181032B2F5807FF6D1617800222B
:102CA00013F8014BA14208BF80180132102AF7D156
:102CB00005B0F0BDDFD300082DE9F04712248AB03B
:102CC0000DEB0402014605A8ADF81240FDF7A6FE83
:102CD000224605A92D48DFF8BCA009F02DF805A96A
:102CE000022204A809F028F804A8FFF7B9FF0DF1A3
:102CF000170107468AF80000022204A809F01CF810
:102D000004A8FFF7ADFF0DF11A0180468AF8010013
:102D1000022204A809F010F804A8FFF7A1FF0DF1A2
:102D20001D0181468AF80200022204A809F004F875
:102D300004A8FFF795FF08A98AF8030002220446B9
:102D400004A808F0F9FF04A8FFF78AFF0DF123019A
:102D50008AF804000222054604A808F0EDFF04A842
:102D6000FFF77EFFEDB2C6B2E4B28AF805005FFA63
:102D700089F30296019500945FFA88F2F9B204484B
:102D800008F03CFA0AB0BDE8F08700BF79000020E7
:102D900027D40008143700202DE9F04FDFF8E48035
:102DA0003449354F8BB01122404607F009FB002310
:102DB0000022404607F068FF4246122105A808F0AD
:102DC000F4F805A912222D4808F0B6FF05A9022241
:102DD00004A808F0B1FF04A8FFF742FF0DF11701A6
:102DE00081463870022204A808F0A6FF04A8FFF765
:102DF00037FF0DF11A0182467870022204A808F00C
:102E00009BFF04A8FFF72CFF0DF11D018346B8704E
:102E1000022204A808F090FF04A8FFF721FF08A9E8
:102E2000F8700222044604A808F086FF04A8FFF701
:102E300017FF0DF1230138710222054604A808F09E
:102E40007BFF04A8FFF70CFFEDB2C6B2E4B27871C5
:102E50005FFA8BF35FFA8AF25FFA89F102960195C5
:102E60000094074808F0CAF9404607F0FCFE0BB092
:102E7000BDE8F08F5FCD00081437002079000020F6
:102E80004CD400088006002008B5084B1B78012BA5
:102E90004FF4907005D1FEF76DF9BDE80840FFF7DB
:102EA0007BBFBDE80840FFF707BF00BF78000020E8
:102EB00008B572B6094C01224FF48041204601F05A
:102EC000B3FC642001F0A4F9204600224FF48041B5
:102ED00001F0AAFC642001F09BF9ECE7000C024031
:102EE00030B5002495B01422214603A8CDE9094449
:102EF00009F032F91F4B01941A6C42F080521A64A7
:102F00001B6C03F080530193019B1B4B02941A68C6
:102F100042F480421A601B6803F480430293029BD0
:102F20000A230893102201230820CDE90B320D93C8
:102F3000A823CDE910030225072308A8CDE90E54E4
:102F40001295139302F07CF908B1FFF7B1FF0F233C
:102F5000CDE9033505904FF4A0524FF4805305217D
:102F600003A8CDE9062302F047FB0028EDD115B0F8
:102F700030BD00BF00380240007000402DE9F04F26
:102F800091B000247C4D01F017F9FFF7A9FF14223E
:102F900000210BA809F0E0F805942B6B774843F06B
:102FA00010032B632B6B03F010030593059B069412
:102FB0002B6B43F004032B632B6B03F0040306938A
:102FC000069B07942B6B43F080032B632B6B03F062
:102FD00080030793079B08942B6B43F001032B633B
:102FE0002B6B03F001030893089B09942B6B43F0B0
:102FF00002032B632B6B03F002030993099B0A94D2
:103000002B6B43F008032B632B6B03F008030A932D
:10301000012206210A9B01F007FC5848224608219C
:1030200001F002FC5648012240F2012101F0FCFBB4
:1030300053482246202101F0F7FB524822464FF226
:10304000FB6101F0F1FB4F48012240F6040101F061
:10305000EBFB01224C484FF4807101F0E5FB0126A7
:1030600046484FF0040A0BA9CDE90BA6CDE90D6641
:103070000A2701F0FBFA41480BA9CDE90B76CDE90F
:103080000D4401F0F3FA21233D480BA9CDE90B369D
:10309000CDE90D4401F0EAFA4FF4887338480D94F5
:1030A0000BA9CDE90B3401F0E1FA48F204033748EB
:1030B0000D940BA9CDE90B344FF4807B01F0D6FAC7
:1030C00030480D940BA94FF00309CDE90BB401F082
:1030D000CDFA4FF6BB632B48CDF838900BA9CDE95C
:1030E0000B360D944FF4007801F0C0FA24480BA978
:1030F000CDE90D49CDE90B8601F0B8FA22480BA9BC
:10310000CDE90D49CDE90BB601F0B0FA1D480BA988
:10311000CDE90BA6CDE90D6601F0A8FA40231948C8
:103120000BA9CDE90B36CDE90D4401F09FFA0494CB
:103130002B6B43F480032B632B6B03F48003224639
:10314000214604934520049B01F088F8452001F0B6
:10315000B7F80F480F4B04614FF4E1390C25C0E973
:103160000039C0E90244C0E90554C46103F0A0F984
:10317000034688B1FFF79CFE003802400010024071
:1031800000080240000C024000000240000402401F
:10319000AC37002000140140A148A24AC0F81880B2
:1031A0004FF482744FF0100AC0E90233C0E90433CF
:1031B000C0E907A3C0E90933C0E90024C76202F0EF
:1031C0008FFD03460028D5D19748984AC0E90233BD
:1031D000C0E90433C0E90833C0E90A37C0E9002474
:1031E000C0E9068A02F07CFD03460028C2D190485F
:1031F000904AC0F81880C0E900240822C0E90233D0
:10320000C0E90436C0E90723C0E90933C76202F008
:1032100067FD0028AED105F043FB8748874B03606C
:1032200002F03CFB07460028A4D1014614220BA85B
:1032300008F092FF824C834B03977F20C4E900374C
:10324000FF23C4E902032046C4E90477A76102F022
:103250006FFB00288ED1CDE90E00ADF82C008DF863
:103260002E0032460BA9204602F0BBFB002881D17C
:10327000754B0393324603A9204602F023FC034614
:1032800000287FF477AF71487149724A0362C0E940
:1032900000124FF48042C0E90233C0E90423C0E9C0
:1032A000063301F0A9FC034600287FF463AF6A48A7
:1032B0006A4AC0E90233C0E90029C0E90435C0E91F
:1032C000063303F0F5F800287FF454AF644C654FE3
:1032D00005264FF4FA632046C4E90076A36001F0A6
:1032E00082FF00287FF446AF0125DFF8B8815E48F1
:1032F00088F800502A46294607F080FF5B484FF4C3
:10330000807101F08BFA5A4B00287CD11870594813
:1033100008F094FBC4E900764FF47A632046A3607A
:1033200001F061FF00287FF425AFFEF7EFFAFFF709
:10333000ABFDFEF71DFBFEF72BFB0020FEF798FA16
:103340000420FEF793FB4C4B4C494D48012204F0FE
:103350006BFEFEF751FA98F80030002B3ED00023A8
:1033600002241A46194618460094FDF7DBF800209F
:10337000FDF708F900F046FF42494FF47A72B0FBBE
:10338000F2F20020FDF7F8FA3F490020FDF7F4FAC9
:103390000120FDF7F7F83D490020FDF7EDFA204642
:1033A000FDF7F0F83A490020FDF7E6FA0320FDF7B3
:1033B000E9F836490020FDF7DFFA0420FDF7E2F8CE
:1033C00032490020FDF7D8FA0620FDF7DBF8314935
:1033D0000020FDF7D1FA0020FDF7D4F82E4D2F4C38
:1033E000002005F0FDF82B78012B15D12378012B57
:1033F00002D10420FFF704FB2378002BF0D1042036
:10340000FEF77CFBECE726481D7008F017FBC4E9CB
:10341000007640F6B83381E7114801F00BFFDFE793
:1034200034380020003C0040E438002000300140E7
:103430008C380020003800405C390020000806501D
:103440003C3900200028004001050923783900207C
:1034500000540040801A0600F0370020004400406D
:103460006C3900200030004070D400080008024091
:10347000B93A00208ED4000801000020142F00204B
:1034800014270020ADD40008C1D40008C9D4000816
:10349000D1D40008D9D4000877000020B83A002021
:1034A0009CD40008A03A00200FB400B5ADF5037D10
:1034B00084AB4FF4007153F8042B019302A808F079
:1034C0001DF802A8FCF7C4FE4FF0FF3382B202A938
:1034D000044803F01BF80DF5037D5DF804EB04B020
:1034E000704700BFAC3700202DE9F0410D4FDFF8E9
:1034F00038800E4615460024AC4202DB2846BDE863
:10350000F0814FF6FF7301223119384602F0FEFFB9
:1035100098F800301BB1315D0020FCF7CFFF01347B
:10352000EAE700BFAC370020A03A002010B50446FF
:103530008AB00120FDF726F894F82C30099394F80E
:103540002830089394F82430079394F82030069399
:10355000237F0593237E0493237D0393237C02938F
:10356000237B0193237A0093237922780449002056
:10357000FDF702FA00200AB0BDE81040FDF702B8DE
:10358000E1D4000810B504468AB00320FCF7FAFF26
:1035900094F82E30099394F82A30089394F8263042
:1035A000079394F822300693A37F0593A37E049398
:1035B000A37D0393A37C0293A37B0193A37A00933F
:1035C000A379A27804490020FDF7D6F900200AB0BB
:1035D000BDE81040FCF7D6BFE1D4000810B50446A2
:1035E0008AB00220FCF7CEFFE37A0993A37A08930E
:1035F000637A0793237A0693E3790593A379049377
:103600006379039323790293E3780193A37800937A
:103610006378227804490020FDF7AEF900200AB053
:10362000BDE81040FCF7AEBFE1D4000810B5044679
:103630008AB00420FCF7A6FF94F82F30099394F881
:103640002B30089394F82730079394F8233006938F
:10365000E37F0593E37E0493E37D0393E37C02938E
:10366000E37B0193E37A0093E379E2780449002055
:10367000FDF782F900200AB0BDE81040FCF782BFD8
:10368000E1D4000870B50E46441C0025214670198F
:103690000122013508F050FB0C2D04F10404F5D192
:1036A00070BD08B50C2208F035FB003818BF0120AA
:1036B00008BD0000014B1860704700BFBC3A0020F5
:1036C00070B50B4E04460D46306890F8513053B13A
:1036D00042F210732A46214602F05EFB38B1BDE883
:1036E0007040FFF7E5BB012000F092FDECE770BDF4
:1036F000BC3A0020F7B51A4F05460C4616463B6803
:1037000093F85130012B23D1032316488DF8043050
:103710000421230C002264BA8DF80530ADF8064070
:1037200001F082F804210DEB0100FFF7C9FF3868B2
:103730004FF47A733246294602F0CBFC02280BD0B4
:1037400008480122042101F06FF8012003B0F0BD08
:10375000012000F05DFDD2E7012000F059FDE6E711
:10376000BC3A00200010024013B50A4C002220464B
:10377000042101F059F8062301A801218DF8043035
:10378000FFF79EFF01220421204601F04DF802B010
:1037900010BD00BF0010024037B50A4C04250022BE
:1037A0002046042101F040F80DEB050001218DF8C1
:1037B0000450FFF785FF01222946204601F034F826
:1037C00003B030BD0010024037B505230022144875
:1037D0008DF8002004218DF8043001F025F8012136
:1037E00001A8FFF76DFF0F4D2868C8230122694625
:1037F00002F06FFC02284FF001000ED000F008FD2F
:103800009DF8000010F00104EED1054801220421CA
:1038100001F00AF8204603B030BD00F0F9FCE3E700
:1038200000100240BC3A00202DE9F743DFF89490E5
:1038300007460C469046D9F8003093F85130012BDA
:10384000DEB239D1FFF790FF02238DF80430230C4C
:1038500064BA8DF80530ADF80640FFF785FF1848CB
:103860000022042100F0E0FF04210DEB0100FFF72E
:1038700027FF0524D9F800004FF47A7342463946F1
:1038800002F08AFA0228054606D10520013C00F024
:10389000BFFC14F0FF04EDD101220421084800F020
:1038A000C3FFFFF791FFFFF777FF012D08BF022647
:1038B000304603B0BDE8F083012000F0A9FCBAE770
:1038C00000100240BC3A00202DE9F04711F0FF0A39
:1038D00005460F4614465FFA82F81AD1FF2A2ED900
:1038E000140A4FF4807239462846FFF79DFF0128DD
:1038F000064641D1013CA4B207F5807705F58075F5
:10390000002CEED1B8F1000F36D042463946284699
:1039100015E0CAF58079FF2A1FFA89F913D8C14545
:103920000DD24A46FFF780FF0128064624D1A8F5AC
:103930008072524492B209EB070105EB0900BDE821
:10394000F047FFF771BF4A46FFF76EFF01280646B2
:1039500012D1A4F580741AFA84F44D441FFA84F845
:103960004F4404F47F442C447F1BA54205EB070120
:1039700005D118F0FF02CAD13046BDE8F0874FF4F8
:1039800080722846FFF750FF012802D105F58075A7
:10399000EBE70646F0E7000082B00C4B00210091F7
:1039A0005A6C42F480425A645A6C02F4804200928B
:1039B000009A01911A6C42F080521A641B6C03F059
:1039C00080530193019B02B0704700BF0038024052
:1039D00030B5044689B01422002103A808F0BCFBCE
:1039E0002268134B9A4221D1124C134800250195AD
:1039F000236B43F002032363236B03F00203019361
:103A0000019BC0221223CDE9032303210423CDE926
:103A1000061303A900F02AFE0295236C43F4001359
:103A20002364236C03F400130293029B09B030BD9E
:103A30000054004000380240000402400268094B74
:103A40009A4282B00BD100230193074B5A6B42F08C
:103A500040025A635B6B03F040030193019B02B089
:103A6000704700BF00080650003802401FB50446EA
:103A700010220021684608F06FFB2268094B9A4229
:103A80000ED10223009368464FF40073039301F0B4
:103A90006DFE08B1FFF70CFA034B0122C3F83C2E70
:103AA00004B010BD0028004000004742F0B50446B5
:103AB0008DB01422002107A808F04EFB2368534A5A
:103AC000934223D1524B5348002100915A6C42F447
:103AD00080525A645A6C02F480520092009A01910A
:103AE0001A6B42F001021A631B6B03F0010301938E
:103AF000019BE02202230321CDE907230523CDE921
:103B00000A1307A900F0B2FD0DB0F0BD424A93427E
:103B100040D13F4B414800220292196C41F4804150
:103B20001964196C01F48041029102990392196B96
:103B300041F004011963196B01F004010391039929
:103B400004921A6B42F002021A631B6B03F0020329
:103B50000493022603250524049B07A90423CDE929
:103B600007360127CDE90A5400F080FD08232B48D1
:103B70000B9407A9CDE90736CDE9097500F076FD6C
:103B80004FF48063CDE90736CDE9097524480B94DD
:103B900007A9B7E7234A9342B6D11D4B1F4800241B
:103BA00005941A6C42F400421A641A6C02F4004242
:103BB0000592059A06941A6B42F004021A631B6B75
:103BC00003F004030693069B02274FF48063032649
:103BD000062507A9CDE90737CDE90A6500F046FDBE
:103BE0004FF4C053CDE9073707A901230B480B95C4
:103BF000CDE9093600F03AFD22462146332000F097
:103C00002DFB332000F05CFB7EE700BF003001405D
:103C10000038024000000240003800400008024026
:103C200000040240003C004070B514228AB00646F1
:103C300000210DEB020008F08FFA33683A4A9342F4
:103C40002BD13A4B3A48002401941A6C42F40032CA
:103C50001A641A6C02F400320192019A02941A6BEF
:103C600042F001021A631B6B03F001030293029BF3
:103C70000C250223CDE9055305A907230326CDE929
:103C8000086300F0F3FC26202246214600F0E6FA05
:103C9000262000F015FB0AB070BD264A9342FAD1E7
:103CA000224B2548254C002503955A6C42F02002F2
:103CB0005A645A6C02F020020392039A04951A6B1C
:103CC00042F004021A631B6B03F004030493049B89
:103CD000C0220223CDE9052303210823CDE90813DF
:103CE00005A900F0C3FC16484FF02063C4E90003A7
:103CF0004023C4E902354FF48063C4E9043520460B
:103D00004FF40033C4E90655C4E9083500F022FB3E
:103D100008B1FFF7CDF80022746347201146A6636F
:103D200000F09CFA4720B4E700440040003802400D
:103D30000000024000140140000802404C370020FF
:103D4000A0640240FEE7FEE7FEE7FEE7FEE77047FD
:103D500070477047054A13880BB1013B1380044A32
:103D600013880BB1013B138000F040BA78060020A5
:103D700076060020014802F085BC00BFF037002025
:103D8000014802F045BA00BF34380020014800F075
:103D9000AFBB00BF4C370020014802F073BC00BF2E
:103DA000AC3700200120704708B508F097F91623BA
:103DB00003604FF0FF3008BD08B508F08FF91623F7
:103DC0000360FEE770B50D4614460E46731B9C4219
:103DD00001DC204670BDAFF3008006F8010BF5E76B
:103DE0004FF0FF3070474FF400534B600020704796
:103DF00001207047002070470B4A116810B5034638
:103E000009B90A491160106809490A4C0344091BA1
:103E10008B4206D908F062F90C2303604FF0FF30A3
:103E200010BD1360FCE700BFC03A002088470020A7
:103E30000000022000400000034AD2F8883043F41A
:103E40007003C2F88830704700ED00E030B59BB0D9
:103E5000054614A80C4603F01FFD9DF8653013932A
:103E60009DF8643012939DF8633011939DF8623091
:103E700010939DF85D300F939DF85C300E939DF884
:103E80005B300D939DF85A300C939DF861300B9385
:103E90009DF860300A939DF85F3009939DF85E307D
:103EA00008939DF8593007939DF8583006939DF874
:103EB000573005939DF8563004939DF85530039381
:103EC0009DF8543002939DF8533001939DF8523081
:103ED00000939DF850209DF851300349284607F083
:103EE000E3FF20801BB030BD20D5000870B50C4624
:103EF000094906461546FCF74BF940B107493046DB
:103F0000FCF746F928B929462046FFF79FFF012014
:103F100070BD0020FCE700BFDFD50008E8D5000831
:103F200038B51649054603F0A5FF044600B30A213B
:103F300003F078FFC4B20F2C1CD82846104903F0B8
:103F400099FF054630B10A2103F06CFFC5B2012D7F
:103F500028BF012521460B4807F050F90A4B0B48B2
:103F600033F81410012D0CBF2A46002200F05CFC2F
:103F700060B238BD4FF0FF30FBE700BFF8D5000856
:103F8000FCD5000800D60008D0000020000C02403C
:103F9000F8B50E460C49074615461C46FCF7F8F8DE
:103FA00068B10A493846FCF7F3F850B93046FFF7D4
:103FB000B7FF0749C2B2284607F076FF20800120EC
:103FC000F8BD0020FCE700BFDFD5000824D60008BC
:103FD00035D600080A464FF47A730146014802F0CC
:103FE00078B800BFE438002007B5FF238DF807300C
:103FF00001224FF47A730DF10701044802F069F8C9
:104000009DF8070003B05DF804FB00BFE438002012
:104010000A464FF47A730146014801F0BDBE00BF65
:10402000E438002007B54FF47A738DF807000122B9
:104030000DF10701024801F0AFFE03B05DF804FB8B
:10404000E4380020024801224FF4006100F0ECBB8C
:10405000000C0240024800224FF4006100F0E4BB73
:10406000000C024070B586B0FFF7ECFF20492148F4
:1040700003F0D0F92049214803F0DAF9204921481A
:1040800003F0E8F9204B02AA03F110061546186860
:104090005968144603C40833B3422246F7D129466F
:1040A000092003F059FB2946002003F055FB29465F
:1040B000012003F051FB013006D114480A220121EE
:1040C00007F09CF806B070BD0DF107010F2003F05A
:1040D00043FB013003D10E480A220121F0E79DF88D
:1040E0000730002BF0D00B4807F0A8FCEAE700BF30
:1040F000454000085540000825400008E93F0008F9
:1041000011400008D53F0008E7CB000838D600086A
:1041100054D600086FD6000870477047DFF834D0D7
:104120000D480E490E4A002302E0D458C45004330F
:10413000C4188C42F9D30B4A0B4C002301E01360E6
:104140000432A242FBD3FFF777FE07F02BF8FEF70D
:1041500015FF704700000220000000209801002099
:10416000F43F01089801002088470020FEE7000086
:1041700038B50E4B1A784FF47A73B3FBF2F30C4A4E
:1041800005461068B0FBF3F000F0BAF8044658B9E1
:104190000F2D09D8024629464FF0FF3000F05EF897
:1041A000044B20461D6038BD0120FCE7EF000020D5
:1041B000CC000020F000002008B50B4B1A6842F438
:1041C00000721A601A6842F480621A601A6842F437
:1041D00080721A60032000F02FF80F20FFF7C8FF4D
:1041E000FFF7DAFB002008BD003C0240034A044B05
:1041F00011681B780B441360704700BFC43A00205D
:10420000EF000020014B1868704700BFC43A00203F
:1042100038B50446FFF7F6FF631C1CBF054B1B783F
:10422000054618BFE418FFF7EDFF431BA342FAD37E
:1042300038BD00BFEF0000200749CA6822F4E062E1
:104240000302120403F4E063120C134343F0BF6350
:1042500043F40033CB60704700ED00E0164B30B5FF
:10426000DC68C4F30224C4F10703251D042B28BF16
:104270000423062D4FF0FF358CBF033C002405FAC4
:1042800003F321EA0303A54022EA0502A340002824
:1042900043EA0203ACBF00F16040084A4FEA03134F
:1042A000B8BF00F00F00DBB2AABF00F561401354A5
:1042B00080F8003330BD00BF00ED00E014ED00E0F9
:1042C000002807DB4109044A00F01F000123834056
:1042D00042F82130704700BF00E100E0BFF34F8F8C
:1042E0000549064BCA6802F4E0621343CB60BFF392
:1042F0004F8F00BFFDE700BF00ED00E00400FA05AE
:104300000138B0F1807F0BD24FF0E023054A5861AD
:10431000F02182F823100020072298611A6170476B
:104320000120704700ED00E0036810B5084C02461C
:10433000D9B210391820B1FBF0F0205CD06523F41D
:104340007F7020F003005F2988BF0430906510BDA6
:104350003B3A010870B50446FFF754FF0546002CB0
:1043600060D0022384F835302268002384F834308A
:10437000136823F00103136022681368D8072ED452
:1043800013683248A1691840D4E901352B43E56828
:104390002B4325692B4365692B43E5690B432B436D
:1043A000256A2B430343606A042802BFD4E90B56F5
:1043B00035432B4313605369042823F0070343EA72
:1043C000000335D1A06AE56A03438DB391B9012892
:1043D00020D030F002012BD1E90129D51DE0FFF7F3
:1043E00011FF401B0528C7D920230320636584F8EB
:1043F000350070BDB1F5005F16D1032818D801A1B2
:1044000051F820F01B440008D94300081B44000861
:1044100015440008B5F1C07F0AD14023636501232C
:1044200084F835300120E4E70228F6D90328D3D0F8
:1044300053612046FFF778FFE26D3F23934083608E
:1044400000200123606584F83530D2E73F8010F00A
:1044500070B50446866DFFF7D5FE94F83530022B13
:10446000054606D0802363650120002384F834309C
:1044700070BD23681A6822F016021A605A6922F089
:1044800080025A61226C0AB9A26C1AB11A6822F031
:1044900008021A601A6822F001021A60236818687C
:1044A00010F0010007D1E26D3F239340B360012378
:1044B00084F83530D9E7FFF7A5FE401B0528EDD974
:1044C00020230320636584F83500CEE790F835306B
:1044D000022B03D080234365012070470268052327
:1044E00080F83530136823F0010313600020704713
:1044F000F7B5002301935C4B856D1F68C36D2E6873
:1045000008229A40324204460CD0016808684007ED
:1045100008D5086820F004000860AA60626D42F0C7
:104520000102626501229A40324208D0216849693D
:10453000090641BFAA60626D42F002026265042270
:104540009A40324208D021680968880741BFAA60B2
:10455000626D42F00402626510229A40324210D02D
:104560002368196809070CD5AA601A68500337D563
:104570001B68190301D4236C00E0A36C0BB1204627
:104580009847E16D20228A4032423AD02368186869
:10459000C60636D5AA6094F83520052A1A6827D1B0
:1045A00022F016021A605A6922F080025A61226CC7
:1045B0000AB9A26C1AB11A6822F008021A603F23E5
:1045C0008B40AB60012384F83530002384F834300D
:1045D000236D002B45D0204603B0BDE8F0401847BE
:1045E0001A68D2055EBF1A6822F008021A60C2E794
:1045F000500327D51B68190331D4636C0BB12046D7
:104600009847636D6BB3636DDA0719D522684FF471
:104610001653B7FBF3F7052384F83530136823F0FE
:1046200001031360019B0133BB42019302D813685D
:10463000DB07F7D4012384F83530002384F83430C5
:10464000E36CC6E71A6812F4807208D1196821F089
:1046500010011960012384F8353084F83420E36BAD
:10466000CCE703B0F0BD00BFCC0000202DE9F74F30
:10467000DFF8A491664A00230D6801249C4004EAF7
:104680000506AC4340F0AF804D68032705F00304F6
:104690004FEA430807FA08FC671E012F6FEA0C0C6B
:1046A00034D8876807EA0C0ECF6807FA08F747EA9C
:1046B0000E078760476827EA060EC5F300179F407C
:1046C00047EA0E074760C76807EA0C0E8F6807FACB
:1046D00008F747EA0E07022CC76019D14FEAD30A40
:1046E00000EB8A0A03F0070BDAF820704FEA8B0B15
:1046F0004FF00F0E0EFA0BFE27EA0E0E0F6907FAA7
:104700000BF747EA0E07CAF8207001E0032CDAD154
:10471000076804FA08F407EA0C073C4315F4403F25
:10472000046060D000240194D9F8444044F48044EB
:10473000C9F84440D9F8444023F0030707F1804703
:1047400004F4804407F59C37019403F0030C019CAA
:10475000D7F808E04FEA8C0C0F2404FA0CF42EEA88
:10476000040E2C4CA04245D004F58064A04243D0F6
:1047700004F58064A04241D004F58064A0423FD09B
:1047800004F58064A0423DD004F58064A0423BD093
:1047900004F58064A04239D004F58064A04214BFBF
:1047A0000824072404FA0CF444EA0E04BC601468DC
:1047B000F74315F4803F0CBF3C4034431460546809
:1047C00015F4003F0CBF3C4034435460946815F42A
:1047D000801F0CBF3C4034439460D468AD0254BF8A
:1047E0003C403443D4600133102B7FF445AF03B019
:1047F000BDE8F08F0024D5E70124D3E70224D1E7F8
:104800000324CFE70424CDE70524CBE70624C9E73A
:10481000003C014000000240003802400369194298
:1048200014BF0120002070470AB18161704709045C
:10483000FBE701684B6913F480634FF0000210D06E
:104840006FF480634B612023026380F83D3080F871
:104850003E20036C80F83C2043F0040303640120F5
:104860007047184670472DE9F84606460F469146B0
:104870001D464FEA114A3368BAF1010F0CBF5C695B
:104880009C6927EA0404A4B2B4FA84F46409A1453B
:1048900001D0002017E06A1CEED0FFF7B3FC089BA4
:1048A000C01AA84201D8002DE5D10023202233638D
:1048B00086F83D2086F83E30326C86F83C3042F077
:1048C000200232640120BDE8F8862DE9F04104465B
:1048D0000F46164698462568686927EA000080B2A8
:1048E000C0B16B695A0517D52B6843F400732B6070
:1048F0006FF480636B6120220023236384F83D20E2
:1049000084F83E30236C43F004032364002384F8CE
:104910003C300120BDE8F081731CDDD0FFF772FC54
:10492000A0EB0800B04209D900232022236384F8B9
:104930003D2084F83E30236C1343E6E7002ECAD1B5
:10494000F2E770B504460D46164623685B691B0600
:1049500001D5002018E02046FFF76BFF98B96A1CCC
:10496000F3D0FFF74FFC801BA8420ED90023202272
:10497000236384F83D2084F83E30226C84F83C3078
:1049800042F020022264012070BD002DDDD1EDE750
:104990002DE9F0431546026885B0DDE90C789946AB
:1049A000136843F4807313600E463B46CDF80080D5
:1049B00000224FF001110446FFF755FF236838B17C
:1049C0001B68DB0502D54FF400732364032620E047
:1049D00006F0FE061E611A4943463A462046FFF796
:1049E00074FFA8B9236803905A6903929B690393E3
:1049F000424639462046039BFFF7A3FF064660B1B7
:104A0000236C042B01BF2268136843F40073136006
:104A10000126304605B0BDE8F083B9F1010F2368E7
:104A200002D1EDB21D61F4E72A0A1A613946424605
:104A30002046FFF786FF0028E2D12368F1E700BF98
:104A4000020001002DE9FF479A46036815461A68DF
:104A500042F480621A601A68DDE90C7842F48072D0
:104A60001A600E463B46CDF8008000224FF001113F
:104A70000446FFF7F8FE236838B11B68DB0544BF26
:104A80004FF400732364032021E05FFA86F906F0F7
:104A9000FE061E612B4943463A462046FFF715FFA6
:104AA000A0B9236803905A6903929B690393424615
:104AB00039462046039BFFF744FF58B1236C042B73
:104AC00001BF2268136843F400731360012004B02F
:104AD000BDE8F087BAF1010F23681AD1EDB2424662
:104AE0001D6139462046FFF72CFF02460028E5D11C
:104AF00021680B6843F480730B602046CDF800807A
:104B00003B464FF00111FFF7AEFE226860B113681B
:104B1000B4E72A0A1A61394642462046FFF711FFD8
:104B20000028CBD12368D9E749F001031361054977
:104B300043463A462046FFF7C8FE003818BF01201A
:104B4000C5E700BF0200010070B504460D461646D9
:104B500023685B695B0701D5002018E02046FFF75A
:104B600068FE98B96A1CF3D0FFF74CFB801BA84283
:104B70000ED900232022236384F83D2084F83E30A0
:104B8000226C84F83C3042F020022264012070BD87
:104B9000002DDDD1EDE770B504460D4616462168BF
:104BA0004B6913F0400301D0002011E04A69D2069E
:104BB0000FD56FF010024A612022236384F83D2054
:104BC00084F83E30236C2364002384F83C300120B9
:104BD00070BDFFF717FB801BA84209D900232022D4
:104BE000236384F83D2084F83E30236C1343EAE7C6
:104BF000002DD4D1F2E7000070B5044608B90120B9
:104C000070BD90F83D3003F0FF021BB980F83C20E6
:104C1000FEF7DEFE242384F83D3023681A6822F074
:104C200001021A601A6842F400421A601A6822F4FB
:104C300000421A6000F07AFD3F4B65689D4294BFC8
:104C40003E4B3F4B98428CBF00230123002BD6D113
:104C50002268394E51683B4BB0FBF3F321F03F0122
:104C60001943B542516088BF4FF49676116A88BFE8
:104C7000734321F03F0184BF4FF47A76B3FBF6F320
:104C800001330B431362D169431E2B4821F44F417A
:104C9000854221F0FF0132D86D0040F6FC70B3FB75
:104CA000F5F30133034242D0C3F30B031943D1613F
:104CB000D4E907301168034321F0C0010B431360AE
:104CC0009168D4E9030321F40341034321F0FF0178
:104CD0000B439360D4E90530D168034321F0FF0111
:104CE0000B43D360136843F00103136000202023BB
:104CF000206484F83D30206384F83E0080E7A0689B
:104D000050B905EB4505B3FBF5F30133C3F30B03D2
:104D10007BB143F40043C9E719206843B3FBF0F3C8
:104D20000133C3F30B0323B143F44043BEE7042331
:104D3000BCE70123BAE700BFA08601007F841E0004
:104D4000FF083D0040420F002DE9F7430446994615
:104D50000C9E0F469046FFF755FA94F83D30202BF5
:104D6000054603D0022003B0BDE8F08300903C4923
:104D7000192301222046FFF776FD0028F2D194F88E
:104D80003C30012BEED02068012384F83C300368CE
:104D9000D9075EBF036843F001030360036823F48F
:104DA00000630360212384F83D30402384F83E30C3
:104DB000002323640A9B6362BDF82C306385638DF6
:104DC0002385284BE3624246CDE900654B463946D0
:104DD0002046FFF7DDFD00282AD00120C3E7FFF7BA
:104DE000B0FD40B1236C042B01BF2268136843F46B
:104DF00000731360F1E7636A27681A4612F8011B13
:104E000039616262628D218D013A92B262857A695E
:104E1000481E80B2520720850AD548B15A783A61B7
:104E200002336362638D013B02399BB22185638546
:104E3000238D2A4631462046002BD0D1FFF784FE31
:104E40000028CFD12268136843F400731360202335
:104E500084F83D3084F83C0084F83E0083E700BFCE
:104E6000020010000000FFFF2DE9F043044687B068
:104E70009946109F0D469046FFF7C4F994F83D30CF
:104E8000202B064604D00225284607B0BDE8F08353
:104E900000907649192301222046FFF7E4FC002800
:104EA000F1D194F83C30012BEDD02068012384F837
:104EB0003C300368DB075EBF036843F00103036017
:104EC000036823F400630360222384F83D30402309
:104ED00084F83E30002323640E9B6362BDF83C30AF
:104EE0006385638D2385624BE3622946CDE90076B5
:104EF0004B4642462046FFF7A5FD054608B1012571
:104F0000C2E7228D2368B2B902905A6902929A6967
:104F10000292029A1A6842F400721A60DFF8548111
:104F2000238D002B2CD1202284F83D2084F83C30A6
:104F300084F83E30A8E7012A0AD11A6822F4806278
:104F40001A6003905A6903929A690392039AE1E7FF
:104F5000022A0ED11A6822F480621A601A6842F49A
:104F600000621A6004905A6904929B690493049B3E
:104F7000D4E705905A6905929B690593059BCDE797
:104F8000032B56D8012B15D1324639462046FFF760
:104F900002FE0028B3D123681A69636A1A70636A33
:104FA00001336362238D013B2385638D013B9BB2FB
:104FB0006385B5E7022B00963B464FF00002414661
:104FC000204619D1FFF74FFC002898D123681A68B2
:104FD00042F400721A601A69636A1A70626A531C9A
:104FE0006362238D013B2385638D013B9BB2638507
:104FF00023681B695370D2E7FFF735FC024600288F
:105000007FF47DAF2368196821F480611960196904
:10501000636A1970636A01336362238D013B2385E0
:10502000638D013B9BB26385414600963B4620461B
:10503000C8E7324639462046FFF7ADFD00287FF429
:105040005EAF23681A69636A1A70626A531C6362EE
:10505000238D013B2385638D013B9BB263852368D0
:10506000596949077FF55CAFC3E700BF0200100034
:105070000000FFFF040001002DE9F04F044685B059
:105080001E460F469146FFF7BDF894F83D30202BA1
:10509000054603D0022005B0BDE8F08F00904F49CF
:1050A000192301222046FFF7DEFB0028F2D194F8F5
:1050B0003C30012BEED0012384F83C302368DFF82C
:1050C0001CB11A68D0075EBF1A6842F001021A606C
:1050D0001A6822F400621A60242384F83D30002309
:1050E0002364A3F58033E3624FF0010A07F0FE0763
:1050F0002268136843F4807313604FF00111334644
:10510000009500222046FFF7AEFB236838B11B68EC
:10511000D90544BF4FF4007323640320BBE71F612C
:10512000FFF770F823685A695B690546C2F34002CD
:10513000C3F380234FF0A00894F83D10A0291CD1A0
:1051400023684FF0200884F83D805A6992072BD5D8
:105150001A68224942F400721A60002203925A69C6
:1051600003929B690393039B009519230122204618
:10517000FFF779FB98B101208DE71343E0D1FFF7EA
:1051800041F8401BB04200D80EB984F83D80236836
:105190005A695B69C2F34002C3F38023CCE784F809
:1051A0003D8084F83C0076E71A6842F400721A6089
:1051B0006FF480625A6159460095192301222046F6
:1051C000FFF751FB0028D6D10AF1010ACA458FD357
:1051D00084F83D8084F83C00CDE700BF0200100059
:1051E00090F83D00704738B5044608B303684CF6A4
:1051F000CC421A6045F255521A6042685A60826881
:105200009A60FEF7FFFF05462268D06810F00300A1
:1052100003D14AF6AA23136038BDFEF7F3FF401B03
:105220003128F1D92368DB689B07EDD00320F3E731
:105230000120F1E703684AF6AA221A6000207047AD
:105240002DE9F341044640B30368DE0710D4236818
:105250009D075BD42368190700F19D8023685A07D6
:1052600000F1BD80A369002B40F0248100202CE0D8
:105270008D4B9A6802F00C02042A07D09A6802F05B
:105280000C02082A0BD15B68590208D5864B1B68B3
:105290009A03DCD56368002BD9D1012015E063683F
:1052A000814DB3F5803F13D12B6843F480332B60DD
:1052B000FEF7A8FF7C4E054633689B03C7D4FEF774
:1052C000A1FF401B6428F7D9032002B0BDE8F0819C
:1052D000B3F5A02F04D12B6843F480232B60E3E7C0
:1052E0002A6822F480322A602A6822F480222A6006
:1052F000002BDDD1FEF786FF06462B689F03A6D55F
:10530000FEF780FF801B6428F7D9DDE7664B9A68BB
:1053100012F00C0F07D09A6802F00C02082A11D183
:105320005B685D020ED4604A1368990702D5E36892
:10533000012BB2D11368216923F0F80343EAC103BA
:10534000136087E7E268594BB2B101221A60FEF799
:1053500059FF554D06462B689B0707D52B682269D8
:1053600023F0F80343EAC2032B6073E7FEF74AFF1A
:10537000801B0228EFD9A7E71A60FEF743FF4A4EC9
:10538000054633689F077FF565AFFEF73BFF401B7F
:105390000228F6D998E76269444B82B10122C3F82A
:1053A000802EFEF72FFF404E0546736F9B073FF59B
:1053B00055AFFEF727FF401B0228F6D984E7C3F854
:1053C000802EFEF71FFF384E0546736F9F077FF54F
:1053D00045AFFEF717FF401B0228F6D974E7324BA2
:1053E0001A6C12F0805228D101921A6C42F080524D
:1053F0001A641B6C03F080530193019B01272C4D11
:105400002B68D8051BD5A368274D012B27D12B6FFF
:1054100043F001032B67FEF7F5FE234E054641F2EC
:105420008838336F9A0739D5002F3FF41BAF1E4AD7
:10543000136C23F08053136414E70027DFE72B6815
:1054400043F480732B60FEF7DDFE06462B68D9051A
:10545000D9D4FEF7D7FE801B0228F7D934E7052BF5
:1054600004D12B6F43F004032B67D0E72A6F22F09F
:1054700001022A672A6F22F004022A67002BCAD190
:10548000FEF7C0FE41F2883806462B6F9B07CBD54E
:10549000FEF7B8FE801B4045F7D915E7FEF7B2FED0
:1054A000401B4045BDD90FE700380240000047428D
:1054B00000700040374DAA6802F00C02082A3ED066
:1054C000022B354B4FF000021A662BD1FEF79AFEE5
:1054D00006462B6899011FD4D4E907321343626A48
:1054E00043EA8213E26A43EA0263A26A5208013A7B
:1054F00043EA02436B60284B264D01221A66FEF7F1
:1055000081FE04462B689A013FF5B0AEFEF77AFEA5
:10551000001B0228F6D9D7E6FEF774FE801B02288E
:10552000D7D9D1E6FEF76EFE04462B689B017FF5C6
:105530009DAEFEF767FE001B0228F6D9C4E6012BDC
:105540003FF4ABAE6B68E26903F4800191427FF4F3
:10555000A4AE216A03F03F028A427FF49EAE616AE4
:1055600047F6C0721A40B2EB811F7FF496AEA26A72
:10557000520803F44031013AB1EB024F7FF48DAE93
:10558000E26A03F07063B3EB026F14BF01200020E6
:105590009BE600BF0038024000004742134908B5AF
:1055A0008B6803F00C03042B1CD0082B1CD14A6819
:1055B0004B68496813F4800314BF0D480D48C1F3CC
:1055C000881118BF002302F03F02A1FB0001FAF787
:1055D00047FE064B5B68C3F3014301335B00B0FB3E
:1055E000F3F008BD0248FCE70248FAE70038024041
:1055F000404B4C000024F4002DE9F0410D460446D8
:1056000010B90120BDE8F081434B1A6802F007028F
:105610008A4228D321688F072DD4C80740D43E4B37
:105620001A6802F00702AA4265D8226851076BD4B3
:10563000130707D5394A2169936823F4604343EA85
:10564000C1039360FFF7AAFF344B354A9B68C3F34D
:105650000313D35CD840334B1860334B1868FEF704
:1056600087FD0020CEE7CAB21A701B6803F007035B
:105670008B42C6D1CEE7294B11F0040F1EBF9A68AA
:1056800042F4E0529A600E0742BF9A6842F46042C8
:105690009A609A68A06822F0F00202439A60BCE720
:1056A00062681E4B012A1CD11B6813F4003FA8D06E
:1056B0001A4EB36823F003031343B360FEF7A2FD51
:1056C00041F288380746B368626803F00C03B3EB15
:1056D000820FA4D0FEF796FDC01B4045F3D90320EE
:1056E00090E7911E01291B6802D813F0007FDEE7C6
:1056F00013F0020FDBE7EAB21A701B6803F007032E
:10570000AB427FF47EAF90E70449E0688B6823F4F6
:10571000E05303438B608BE7003C024000380240BB
:105720002B3A0108CC000020F0000020044B054A71
:105730009B68C3F38223D35C034A1068D840704748
:1057400000380240233A0108CC000020044B054AEF
:105750009B68C3F34233D35C034A1068D840704758
:1057600000380240233A0108CC000020036813F0FF
:10577000050FF7B5044605D123689B072AD40020FE
:1057800003B0F0BD424B434E00229A66FEF73AFD4D
:10579000054633681F0116D4D4E901231B0743EAE9
:1057A0008213C6F884303A4B3A4E01229A66FEF7CD
:1057B00029FD054633681801DED4FEF723FD401BA2
:1057C0000228F7D904E0FEF71DFD401B0228E0D9AE
:1057D0000320D5E7002301932E4B2F4D1A6C42F086
:1057E00080521A641B6C03F080530193019B2B6859
:1057F00043F480732B60FEF705FD06462B68D90540
:105800001BD5244DE2682B6F13F440731BD1E36862
:1058100003F44072B2F5407F1E4A34D1916823F000
:10582000704021F4F81120F4407001439160116F31
:10583000C3F30B030B431367A1E7FEF7E3FC801BE5
:105840000228DBD9C4E702F440729342DFD02B6F09
:105850000F4A0121C2F8401E23F440730021C2F810
:10586000401E2B672B6FDA07D1D5FEF7CBFC41F238
:10587000883706462B6F9B07C9D4FEF7C3FC801BF5
:10588000B842F7D9A4E7916821F4F811CEE700BF38
:1058900000004742003802400070004010B5044646
:1058A00090B1437903F0FF0213B90271FEF7C6F815
:1058B000226802236371136843F00403136000201D
:1058C00001236371A06010BD0120FCE7026838B5B8
:1058D000D36823F0A003D3600446FEF793FC05468B
:1058E0002368DB689B0601D5002038BDFEF78AFCE3
:1058F000401BB0F57A7FF3D90320F6E738B503688B
:10590000DA685206044601D5002038BD4FF0FF3258
:10591000DA60FEF777FC05462368DB685B06F3D4A4
:10592000FEF770FC401BB0F57A7FF5D90320ECE759
:1059300038B50446B8B1437F03F0FF0213B90277CC
:10594000FEF794F8022363772368CA225A6253222F
:105950005A622046FFF7D2FF2368054630B1FF2286
:105960005A62042363770125284638BD9A68206966
:1059700022F4E00222F040029A60626899680243D1
:10598000606902430A439A60E2681A611A69A16871
:1059900042EA01421A61DA6822F08002DA609B680A
:1059A0009B0605D42046FFF791FF08B12368D6E790
:1059B0002368A1691A6C22F480221A641A6C0A43C3
:1059C0001A64FF225A6201236377CDE70023092876
:1059D00003D840EA0310C0B270470A380133C0B29E
:1059E000F5E72DE9F041037F012B05460E464FF008
:1059F00002072ED001684777012303773078747847
:105A0000B7788B6842BB13F0400308BFF370FFF711
:105A1000DDFF80462046FFF7D9FF04463846FFF7F2
:105A2000D5FFF37840EA034343EA084343EA0424FA
:105A3000CA234B6253234B622846FFF75FFF2A6855
:105A40000746A8B1FF23536204236B7700232B770B
:105A500001273846BDE8F08113F0400308BFF3701A
:105A60002402F37844EA00443C4344EA0344DFE779
:105A700004F07F3424F0FE441460936823F4802300
:105A80009360D6E90330916803430B439360D36876
:105A900023F08003D360946814F020040AD12846D0
:105AA000FFF714FF30B12B68FF225A6204236B7793
:105AB0002C77CDE72B68FF225A6201236B770023F6
:105AC0002B77C6E7F8B5037F012B05464FF002069A
:105AD0001FD00123037746770E78C8784C788F78EB
