:020000040800F2
:1000000000000220353700086D3300086F33000808
:1000100071330008733300087533000800000000D6
:10002000000000000000000000000000773300081E
:1000300079330008000000007B3300087D3300089E
:1000400085370008853700088537000885370008A0
:100050008537000885370008853700088537000890
:100060008537000885370008853700088537000880
:100070008537000885370008853700088537000870
:100080008537000885370008853700088537000860
:100090008537000885370008853700088537000850
:1000A0008537000885370008853700088537000840
:1000B0008537000885370008853700088537000830
:1000C0008537000885370008853700088537000820
:1000D00085370008853700089D33000885370008FC
:1000E0008537000885370008853700088537000800
:1000F00085370008853700088537000885370008F0
:10010000853700088537000885370008A9330008BF
:1001100085370008853700088537000885370008CF
:1001200085370008853700088537000885370008BF
:1001300085370008853700088537000885370008AF
:10014000853700088537000885370008853700089F
:1001500085370008B533000885370008C13300082B
:10016000853700088537000885370008853700087F
:100170008537000885370008853700080000000033
:080180008537000885370008EF
:1001900010F8012B11F8013B012A28BF9A42F7D031
:1001A000D01A7047000000000000000000000000AE
:1001B00001F0FF01102A2BDB10F0070F08D010F818
:1001C000013B013A8B422DD010F0070F42B3F6D11C
:1001D000F0B441EA012141EA014122F007047FF035
:1001E00000070023F0E80256083C85EA010586EA8C
:1001F000010685FA47F5A3FA87F586FA47F6A5FAC8
:1002000087F68EB9EED1F0BC01F0FF0102F00702D3
:1002100032B110F8013B013A83EA010313B1F8D17E
:100220000020704701387047002D06BF354603385F
:10023000073815F0010F07D1013015F4807F02BF98
:10024000013015F4C03F0130F0BC0138704700BFE9
:10025000034613F8012B002AFBD1181A0138704706
:1002600053B94AB9002908BF00281CBF4FF0FF311D
:100270004FF0FF3000F00CB8ADF1080C6DE904CE82
:100280000BF006FFDDF804E0DDE9022304B070475F
:10029000704700BF0348044B834202D0034B03B1B5
:1002A000184770475C0100205C010020000000003E
:1002B0000548064B1B1AD90F01EBA301491002D0C8
:1002C000034B03B1184770475C0100205C0100201C
:1002D0000000000010B5064C237843B9FFF7DAFFA1
:1002E000044B13B10448AFF300800123237010BD09
:1002F00018060020000000004CC3000808B5054B9C
:100300001BB105490548AFF30080BDE80840FFF781
:10031000CFBF00BF000000001C0600204CC3000837
:1003200070470000F0B5044685B00D4616461F46DE
:100330000A4804F033FB20280CD14FF0FF33CDE9FD
:100340000173009601232A462146044804F06AF905
:1003500005B0F0BD0A2003F039FBE9E73839002089
:10036000F0B5044685B00D4616461F460D4804F00C
:1003700015FB2028FAD14FF0FF33CDE901732A464F
:10038000084800960123214604F0BCF8054D4FF0C3
:10039000FF3301222146284604F04CFA0028F6D10A
:1003A00005B0F0BD3839002008B51388054A138020
:1003B0000246A020FFF7B6FF10B1FFF7B1FF012002
:1003C00008BD00BF360600200A464FF4967301466A
:1003D000014804F02FBA00BF3839002013460B4AF9
:1003E00010B513700246A020FFF7BAFF044610B103
:1003F000FFF796FF012440F6B831A020FFF7E4FF95
:1004000010B1FFF78DFF0124204610BD34060020F7
:100410002DE9F84F11F00F0705460C461646C2F3BA
:1004200007185FFA82FA02F00F0B1DD1B8F1000F26
:1004300001D15A462FE0102221462846FFF7CEFF71
:1004400060B908F1FF38103418F0FF08A4B205F1C4
:100450001005F0D1BBF1000F02D10020BDE8F88FEC
:100460005A462146284616E05FFA87F9C7F1100779
:10047000FFB2B8F1000F12D19742DAD23A46FFF735
:10048000ADFF0028EAD1AAF1100A09EB0A023919D6
:10049000D2B289B2E819BDE8F84FFFF79FBF3A46DC
:1004A000FFF79CFF0028D9D1F61B3D443C441FFABE
:1004B00086F8641B06F47F662E44A4B22919B5425F
:1004C00089B203D118F00F02C7D0CBE7102228461B
:1004D000FFF784FF0028C1D11035EFE7054B0A462E
:1004E00019688B689B07FCD501466423014805F019
:1004F00031B800BFF437002007B5084B8DF807006E
:100500001A6893689B07FCD5642301220DF107014B
:10051000024805F01FF803B05DF804FBF437002033
:1005200008B5074B1B78012B04D106480022042193
:1005300003F058FDBDE80840012003F047BA00BFB2
:100540003B000020000C024008B5064B1A78012A37
:1005500003D10548042103F045FDBDE80840012012
:1005600003F034BA3B000020000C02401FB5FF230B
:100570008DF80E30094B1A6893689B07FCD56423ED
:1005800000930DF10F0201230DF10E01034805F058
:100590008EF89DF80F0005B05DF804FBF4370020DD
:1005A00013B5FFF7D1FF0A24FF20FFF7A5FF013C99
:1005B000FAD1FFF7B5FF4023009306214FF415430E
:1005C0006846ADF80430FFF789FF4FF40054FFF799
:1005D000CDFF012809D1FFF7B7FFFF20FFF78CFF00
:1005E000034B01221A7002B010BD013CEFD1F2E7BB
:1005F0003806002010B5064C4FF4FA732380FFF73D
:10060000B5FFFF2802D02388002BF8D110BD00BF12
:100610003A06002070B506460D46FFF7EBFFFF28AF
:100620004FF0000423D12846FFF766FFFD2D18D0B8
:100630004FF400713046FFF751FFFFF797FFFFF7C8
:1006400095FF4125FFF792FF00F01F03052B04469D
:1006500003D0013D15F0FF05F4D1FFF787FF002817
:10066000FBD004F01F04631F5842584170BD204660
:10067000FCE738B504460D46FFF7BCFFFF2828D13C
:100680002046FFF739FF280EFFF736FFC5F3074076
:10069000FFF732FFC5F30720FFF72EFFE8B2FFF7A1
:1006A0002BFF402C13D0482C14BF01208720FFF7CC
:1006B00023FF4C2C01D1FFF759FF0A24FFF756FF07
:1006C000030603D5013C14F0FF04F7D138BD952093
:1006D000EDE7FF20FAE7000070B50F4DC823044690
:1006E0000E462B80FFF742FFFF2803D12888002801
:1006F000F8D170BDFE280DD1651E3444FFF736FFDA
:1007000005F8010FA542F9D1FFF730FFFFF72EFFE3
:100710000120EEE70020ECE73C0600202DE9F34144
:10072000002840F09D804F4E357815F0020504D02A
:100730003078C0B202B0BDE8F081FFF731FFFFF7BB
:10074000EFFE29464020FFF794FF012804460DD014
:100750000024454B1C70FFF7F7FEFFF707FF002C46
:100760007BD0337803F0FE033370E1E73F4F4FF463
:100770007A734FF4D57148203B80FFF77AFF012848
:100780003DD101ADA8460424FFF7F0FE013C14F072
:10079000FF0408F8010BF7D19DF80630012BD7D1E3
:1007A0009DF80730AA2BD3D100217720FFF761FFF6
:1007B000012803D93B88002BF6D1C9E74FF08041CF
:1007C0006920FFF756FF01460028F3D13B88002B34
:1007D000BED07A20FFF74DFF0028B9D10424FFF7DF
:1007E000C5FE013C14F0FF0405F8010BF7D19DF89C
:1007F000043013F0400F0CBF04240C24A9E7294651
:100800007720FFF736FF012806D829466920FFF731
:1008100030FF012898BF0224022C4FF000011AD1AA
:100820007720FFF726FF012803D93B88002BF3D15F
:100830008EE700216920FFF71CFF0028F5D13B88D7
:10084000002B85D04FF400715020FFF712FF0028D5
:100850007FF47EAF7DE74120EDE7054B1C7067E735
:10086000012067E700000020390600203C06002038
:100870003806002018B9034B1878C0B27047012021
:10088000704700BF0000002070B50E4615461C469C
:10089000002837D1002B35D01C4B1B78DA0733D416
:1008A0001B4B1B785B0758BF6D02FFF739FE012C0D
:1008B000294613D15120FFF7DCFE38B94FF40071FF
:1008C0003046FFF709FFB0FA80F46409FFF73CFEF9
:1008D000FFF74CFE201E18BF012070BD5220FFF70D
:1008E000C8FE0028F2D14FF400713046FFF7F4FE45
:1008F00018B1013C06F50076F5D100214C20FFF738
:10090000B8FEE3E70420E8E70320E6E70000002064
:1009100039060020F8B50D4616461C46002847D17A
:10092000002B45D0254B1A78D00743D41B785907A4
:1009300042D4234F3B785A0758BF7602FFF7F0FDA9
:10094000012C13D131465820FFF793FE70BBFE21D6
:100950002846FFF75FFEB0FA80F46409FFF7F4FD64
:10096000FFF704FE201E18BF0120F8BD3B789B074F
:1009700007D500217720FFF77CFE21465720FFF79F
:1009800078FE31465920FFF774FE0028E6D1FC219D
:100990002846FFF73FFE18B1013C05F50075F6D17A
:1009A000FD210020FFF736FE0028D7D10124D5E72E
:1009B0000420DAE70320D8E70220D6E70000002071
:1009C000390600207FB50E4615460446002840F043
:1009D0008F80052913D11378012B09D0022B0AD05F
:1009E000002B40F08580444B1870204604B070BD49
:1009F000FFF7D6FDF9E7404B1B785370F5E73F4B07
:100A00001C7814F0010475D1FFF78AFD0D2E6DD806
:100A1000DFE806F04807446C6C6C6C6C6C6C6C4FD7
:100A20005D6000214920FFF724FE28B10124FFF773
:100A30008BFDFFF79BFDD8E710216846FFF74CFEC2
:100A40000028F3D09DF800109DF809309DF808208B
:100A50008909012906D1013303EB02239BB29B02D2
:100A60002B60E4E79DF807109DF80A00920902EB5D
:100A700081029DF80610890201F4406101320A44A6
:100A80009DF805105B0001F00F0101EBD01103F0A0
:100A900006030B44073B02FA03F3E1E74FF400734C
:100AA0002B80C4E7FFF7A6FDB0F1FF0418BF0124B7
:100AB000BDE700214920FFF7DCFD0028B6D1102159
:100AC0002846FFF709FEB0FA80F46409AFE7002179
:100AD0004A20F0E700217A20FFF7CBFD30B92C1D2A
:100AE000FFF744FD05F8010BAC42F9D104249EE761
:100AF00004247AE7032478E7380600200000002069
:100B000030B5144987B004461122134809F06CF837
:100B10000546E0B92146114809F084FF6B461222D0
:100B200001A90D4809F0FCF90B4809F0B0FC01A936
:100B30000B488DF8155009F075FF1222214601A8C7
:100B4000FFF766FC21460246064809F06BFF07B036
:100B500030BD00BF7EC500084006002084C50008E7
:100B6000BEC50008C8C5000810B5014698B00446C7
:100B70000B4809F057FF0B4B1B785D2273B90A49EC
:100B800068460AF023FC6946084809F04BFF5D22DD
:100B90002146684602F0ACF918B010BD0449EFE7F1
:100BA00075C60008FD390020BDC60008A6C60008AD
:100BB0001AC7000830B52D4C9BB0054601462C489D
:100BC00009F030FF2B491122204609F00DF801AB46
:100BD00002A90F22204609F0A3F9204609F057FC8C
:100BE00025491122204608F0FFFF01AB0DF1170146
:100BF0000F22204609F094F9204609F048FC1F49CD
:100C00001122204608F0F0FF01AB0DF126010F2262
:100C1000204609F085F9204609F039FC18491122CF
:100C2000204608F0E1FF01AB0DF135010F2220460F
:100C300009F076F9204609F02AFC124911222046D3
:100C400008F0D2FF2246212111A809F0C2FD20465A
:100C500009F01DFC02A90C4809F0E4FE5D222946BA
:100C600002A802F045F91BB030BD00BF40060020CD
:100C700077C7000835C600083DC6000845C600080D
:100C80004DC6000855C60008AFC70008F0B59DB0B6
:100C900001465D2204A802F041F804A90F226E4823
:100CA0006E4F6F4E6F4D704C0AF05AFC0DF11F01E4
:100CB0000F226E480AF054FC0DF12E010F226C48F1
:100CC0000AF04EFC0DF13D010F226A480AF048FC83
:100CD00004A9032203A80AF043FC03A80AF068FD54
:100CE00005A93870032203A80AF03AFC03A80AF009
:100CF0005FFD06A97870032203A80AF031FC03A85F
:100D00000AF056FD07A9B870032203A80AF028FCD0
:100D100003A80AF04DFD0DF11F01F870032203A88E
:100D20000AF01EFC03A80AF043FD0DF12301307008
:100D3000032203A80AF014FC03A80AF039FD0DF100
:100D400027017070032203A80AF00AFC03A80AF026
:100D50002FFD0DF12B01B070032203A80AF000FC57
:100D600003A80AF025FD0DF12E01F070032203A85F
:100D70000AF0F6FB03A80AF01BFD0DF13201287002
:100D8000032203A80AF0ECFB03A80AF011FD0DF101
:100D900036016870032203A80AF0E2FB03A80AF0F8
:100DA00007FD0DF13A01A870032203A80AF0D8FB51
:100DB00003A80AF0FDFC0DF13D01E870032203A831
:100DC0000AF0CEFB03A80AF0F3FC0DF141012070FC
:100DD000032203A80AF0C4FB03A80AF0E9FC0DF102
:100DE00045016070032203A80AF0BAFB03A80AF0C9
:100DF000DFFC0DF14901A070032203A80AF0B0FB4B
:100E000003A80AF0D5FC13A9E07020221A480AF0C2
:100E1000A7FBFB780093BB787A783978174809F0FC
:100E200001FEF3780093B37872783178144809F0B2
:100E3000F9FDEB780093AB786A782978114809F0CE
:100E4000F1FDE3780093A378627821780E4809F0E9
:100E5000E9FD1DB0F0BD00BF7E0000200737002077
:100E6000DA36002003370020FF3600206E00002015
:100E70005E0000204E000020DE360020C0C70008C3
:100E8000D7C70008EEC7000805C80008F0B505463A
:100E900085B00B480AF0E6F90A4B6A4603F11007E1
:100EA000164618685968144603C40833BB422246E4
:100EB000F7D110222946304602F01AF805B0F0BDED
:100EC0001CC8000831C80008F0B589B010220546DA
:100ED000002168460AF054FD0D4B04AA03F11007E7
:100EE000164618685968144603C40833BB422246A4
:100EF000F7D129461022684601F010FF0F22314633
:100F000068460AF01BFB003818BF012009B0F0BD8D
:100F10006EC5000830B58C4C8C488D4D8DB001F0FD
:100F2000A9FE8C491122204608F05EFE22461021BF
:100F300003A809F04EFC03A9874809F06BFD03A93B
:100F4000032202A80AF00CFB02A80AF031FC04A953
:100F50002870032202A80AF003FB02A80AF028FC6A
:100F600005A96870032202A80AF0FAFA02A80AF09A
:100F70001FFC06A9A870032202A80AF0F1FA02A831
:100F80000AF016FCE870C0B20090AB786A78297855
:100F90007248734D09F046FD204609F078FA714910
:100FA0001122204608F020FE2246102103A809F055
:100FB00010FC03A96C4809F02DFD03A9032202A827
:100FC0000AF0CEFA02A80AF0F3FB04A92870032263
:100FD00002A80AF0C5FA02A80AF0EAFB05A968709F
:100FE000032202A80AF0BCFA02A80AF0E1FB06A953
:100FF000A870032202A80AF0B3FA02A80AF0D8FBEC
:10100000E870C0B20090AB786A7829785748584D9C
:1010100009F008FD204609F03AFA56491122204607
:1010200008F0E2FD2246102103A809F0D2FB03A933
:10103000514809F0EFFC03A9032202A80AF090FA34
:1010400002A80AF0B5FB04A92870032202A80AF03E
:1010500087FA02A80AF0ACFB05A96870032202A86F
:101060000AF07EFA02A80AF0A3FB06A9A8700322E0
:1010700002A80AF075FA02A80AF09AFBE870C0B25A
:101080000090AB786A7829783C483D4D09F0CAFC5D
:10109000204609F0FCF93B491122204608F0A4FD46
:1010A0002246102103A809F094FB03A9364809F051
:1010B000B1FC03A9032202A80AF052FA02A80AF01E
:1010C00077FB04A92870032202A80AF049FA02A8B3
:1010D0000AF06EFB05A96870032202A80AF040FA24
:1010E00002A80AF065FB06A9A870032202A80AF06C
:1010F00037FA02A80AF05CFBE870C0B20090AB7847
:101100006A7829782148224D09F08CFC204609F0A4
:10111000BEF920491122204608F066FD2246212111
:1011200003A809F056FB202203A928460AF018FA62
:10113000204609F0ACF900232946174885F82030ED
:1011400009F070FC0DB030BD4006002041C8000819
:101150000737002035C600087E000020C0C7000801
:10116000DA3600203DC600086E000020D7C7000810
:101170000337002045C600085E000020EEC70008C7
:10118000FF3600204DC600084E00002005C80008AC
:10119000DE36002055C600085EC8000808B50F49B5
:1011A0000F4806F075FB0F490F4806F071FB0F4919
:1011B0000F4806F06DFB0F490F4806F069FB0F4919
:1011C0000F4806F065FB0F490F4806F061FBBDE8CC
:1011D00008400E490E4806F05BBB00BF7F140108B3
:1011E0009ED700080EDC000851C500087E000020D4
:1011F00035C600086E0000203DC600085E000020D5
:1012000045C600084E0000204DC600083C000020E6
:1012100068C8000810B5002204464FF400711C484D
:1012200002F0E0FE462002F0D1FB01224FF40071F3
:10123000174802F0D7FE462002F0C8FB02F026FA5B
:10124000144B15491A689B888B80144B0A601B68E5
:10125000C1F80630124B1B68C1F80E30114B00204C
:101260001B68C1F80A3005F097FF0F4A0023128867
:101270000121204605F02AF9204605F0B9F9012898
:1012800005D121460948BDE8104009F0CBBB10BD8F
:1012900000080240D43600209C00002007370020C0
:1012A00003370020FF3600203800002070C80008F7
:1012B00010B510491048002208F06CFC0F49104886
:1012C000112208F091FC38B90E4801F0D3FCBDE8BA
:1012D00010400B4809F0DBB80B4B0C4800240122EE
:1012E00004211C7002F07EFE09482246042102F00F
:1012F00079FEECE740C800089816002035C60008C3
:10130000400600208CC800083B000020000C024072
:101310000010024008B505480122042102F062FED7
:10132000BDE80840024801F0D9BC00BF000C0240F3
:10133000F437002038B5144B1B78E3B9134D2B78E4
:101340007BB94FF4D070FFF7BFFD044648B9104891
:1013500009F088FF2046FFF707FC4FF4D070FFF735
:1013600095FD2B78012B09D1FFF7D4FDBDE838405E
:101370000020FFF71FBC0020FFF7F6FBBDE8384058
:101380000020FFF783BC00BFEC3900203B000020A9
:1013900098C80008024A00231288022105F096B876
:1013A000360000200122082108B50C4802F01AFE80
:1013B0000B4A01215378DB4303F0F003043143F07F
:1013C00005033129537002F10402F3D1BDE808404E
:1013D00002480022082102F005BE00BF000C0240B6
:1013E0008C3900200122082108B50C4802F0FAFDD2
:1013F0000B4A01215378DB4303F0F003043143F03F
:1014000005033129537002F10402F3D1BDE808400D
:1014100002480022082102F0E5BD00BF000C024096
:10142000BC39002037B5054602F0CAFA1F4B2049E7
:101430001B88009304461F4B3022284605F052FAC1
:1014400002F0BEFA04F5FA74A0420AD21A48002249
:101450004FF4804102F0C6FD184B01221A7003B010
:1014600030BD174809F0FEFE134800224FF48051AA
:1014700002F0B8FD00224FF400410F4802F0B2FD27
:10148000C82002F0A3FA00224FF480410A4802F07B
:10149000A9FDC82002F09AFA074801224FF48041C2
:1014A00003B0BDE8304002F09DBD00BF3600002013
:1014B00005000020DA360020000C0240FC39002034
:1014C000A8C8000808B5054809F0CCFE002006F0C1
:1014D000CFF9BDE8084002F0DFBA00BFCFC800086E
:1014E00010B51D4B8AB0B3F8A520ADF8082004460E
:1014F0001A4AD3F8A10093F8A7308DF80A300023D8
:10150000CDE904230534164A019001A92046CDE90E
:101510000723ADF80B308DF80D30ADF81830ADF86D
:101520002430FEF735FE48B104A92046FEF730FE10
:1015300020B107A92046FEF72BFE38B9094809F06B
:1015400091FE094B01221A700AB010BD07480AB07B
:10155000BDE8104009F086BE64C30008757365726B
:1015600031323300E5C80008EE390020EEC800082B
:1015700008B509492022083009F0E0FF30B90748D2
:1015800001F078FB064B01221A7008BDBDE8084047
:10159000044801F06FBB00BFDE36002001C900081F
:1015A000ED3900200FC900082DE9F04701468EB043
:1015B00004469F4809F036FA0023E25C2E2A03F124
:1015C0000107DBB205D038336B4403F8182C3B46D7
:1015D000F3E7032B18D1BDF820209DF82230ADF899
:1015E00010208DF8123004A80AF0E2F83D46C6B289
:1015F000625DEB1B2E2ADBB205F1010519D03833F1
:101600006B4403F8182CF3E7022B09D130238DF833
:1016100010309DF820308DF811309DF82130E0E732
:10162000012BE0D143F23003ADF810309DF82030AB
:10163000D7E7032B1AD1BDF820209DF82230ADF852
:1016400014208DF8163005A80AF0B2F8AA46C7B2E1
:1016500014F80A20AAEB05032E2ADBB20AF1010ACC
:1016600019D038336B4403F8182CF1E7022B09D159
:1016700030238DF814309DF820308DF815309DF80A
:101680002130DEE7012BDED143F23003ADF8143018
:101690009DF82030D5E7032B1DD1BDF820209DF803
:1016A0002230ADF818208DF81A3006A80AF080F81C
:1016B00004EB0A0580465FFA80F9002415F8013B27
:1016C000621CE4B2E3B104F138010DEB010404F84B
:1016D000183C1446F2E7022B09D130238DF818305C
:1016E0009DF820308DF819309DF82130DBE7012B73
:1016F000DBD143F23003ADF818309DF82030D2E74B
:10170000032C1ED1BDF820209DF82230ADF81C20FE
:101710008DF81E30474C07A80AF04AF82378B342E8
:10172000C0B223D16378BB4220D1A3784B451DD1F1
:10173000E37883421AD1404809F094FD0EB0BDE829
:10174000F087022C09D130238DF81C309DF8203011
:101750008DF81D309DF82130DAE7012CDAD143F203
:101760003003ADF81C309DF82030D1E7E0702670D2
:10177000677084F802905FFA88F300903A462F4829
:10178000314609F04FF92E4B1D78012D37D12D49E7
:101790002D48122208F028FA0028CFD12B4809F052
:1017A00061FD0A2304A903220AA88DF80C302E2417
:1017B00009F0D6FE05A903220BA88DF82B4009F0ED
:1017C000CFFE06A903220CA88DF82F4009F0C8FE11
:1017D00007A903220DA88DF8334009F0C1FE2A465F
:1017E00003A90DF1370009F0BBFE09AB10220AA9CD
:1017F000154808F06BFC144808F049FE9EE71448B1
:1018000009F030FD0322002104A801F071FB03223E
:10181000042105A801F06CFB0322082106A801F0B1
:1018200067FB03220C2107A801F062FB86E700BFDB
:1018300021C900080737002033C9000855C900082E
:101840003B00002035C600084006002070C9000893
:1018500096C900082DE9F04300238FB00446E25CEE
:101860002E2A03F10106DBB205D038336B4403F8AE
:10187000182C3346F3E7032B18D1BDF820209DF830
:101880002230ADF810208DF8123004A809F090FF36
:101890003746C5B2E25DBB1B2E2ADBB207F101075A
:1018A00019D038336B4403F8182CF3E7022B09D115
:1018B00030238DF810309DF820308DF811309DF8D0
:1018C0002130E0E7012BE0D143F23003ADF81030D6
:1018D0009DF82030D7E7032B1AD1BDF820209DF8C2
:1018E0002230ADF814208DF8163005A809F060FFFD
:1018F000B946C6B214F80920A9EB07032E2ADBB2B9
:1019000009F1010919D038336B4403F8182CF1E7B9
:10191000022B09D130238DF814309DF820308DF83A
:1019200015309DF82130DEE7012BDED143F2300384
:10193000ADF814309DF82030D5E7032B1DD1BDF84C
:1019400020209DF82230ADF818208DF81A3006A816
:1019500009F02EFF04EB090207465FFA80F8002425
:1019600012F8013B611CE4B2E3B104F138000DEB65
:10197000000404F8183C0C46F2E7022B09D130238E
:101980008DF818309DF820308DF819309DF82130F1
:10199000DBE7012BDBD143F23003ADF818309DF8C3
:1019A0002030D2E7032C1ED1BDF820209DF8223034
:1019B000ADF81C208DF81E30454C07A809F0F8FE44
:1019C0002378AB42C0B223D16378B34220D1A3784D
:1019D00043451DD1E37883421AD13E4809F042FCC9
:1019E0000FB0BDE8F083022C09D130238DF81C30F4
:1019F0009DF820308DF81D309DF82130DAE7012C5C
:101A0000DAD143F23003ADF81C309DF82030D1E735
:101A10002570E070667084F80280FBB20090294661
:101A20002D48324608F0FEFF2C4B1D78012D37D192
:101A30002B492C48122208F0D7F80028D0D12A4888
:101A400009F010FC0A2304A903220AA88DF80C301F
:101A50002E2409F085FD05A903220BA88DF82B4043
:101A600009F07EFD06A903220CA88DF82F4009F08D
:101A700077FD07A903220DA88DF8334009F070FD0A
:101A80002A4603A90DF1370009F06AFD09AB1022BF
:101A90000AA9144808F01AFB124808F0F8FC9FE75E
:101AA000124809F0DFFB03222D2104A801F020FADF
:101AB0000322312105A801F01BFA0322362106A8D2
:101AC00001F016FA03223A2107A801F011FA87E77C
:101AD000FF360020C0C90008E1C900083B00002013
:101AE0004DC6000840060020FCC9000822CA0008B4
:101AF0002DE9F04300238FB00446E25C2E2A03F167
:101B00000106DBB205D038336B4403F8182C33469A
:101B1000F3E7032B18D1BDF820209DF82230ADF853
:101B200010208DF8123004A809F042FE3746C5B2E5
:101B3000E25DBB1B2E2ADBB207F1010719D0383357
:101B40006B4403F8182CF3E7022B09D130238DF8EE
:101B500010309DF820308DF811309DF82130E0E7ED
:101B6000012BE0D143F23003ADF810309DF8203066
:101B7000D7E7032B1AD1BDF820209DF82230ADF80D
:101B800014208DF8163005A809F012FEB946C6B229
:101B900014F80920A9EB07032E2ADBB209F1010989
:101BA00019D038336B4403F8182CF1E7022B09D114
:101BB00030238DF814309DF820308DF815309DF8C5
:101BC0002130DEE7012BDED143F23003ADF81430D3
:101BD0009DF82030D5E7032B1DD1BDF820209DF8BE
:101BE0002230ADF818208DF81A3006A809F0E0FD73
:101BF00004EB090207465FFA80F8002412F8013B63
:101C0000611CE4B2E3B104F138000DEB000404F808
:101C1000183C0C46F2E7022B09D130238DF818301E
:101C20009DF820308DF819309DF82130DBE7012B2D
:101C3000DBD143F23003ADF818309DF82030D2E705
:101C4000032C1ED1BDF820209DF82230ADF81C20B9
:101C50008DF81E30454C07A809F0AAFD2378AB4249
:101C6000C0B223D16378B34220D1A37843451DD1BC
:101C7000E37883421AD13E4800F0FCFF0FB0BDE884
:101C8000F083022C09D130238DF81C309DF82030D0
:101C90008DF81D309DF82130DAE7012CDAD143F2BE
:101CA0003003ADF81C309DF82030D1E72570E0708E
:101CB000667084F80280FBB2009029462D483246B7
:101CC00008F0B0FE2C4B1D78012D37D12B492C4844
:101CD000122207F089FF0028D0D12A4809F0C2FA61
:101CE0000A2304A903220AA88DF80C302E2409F037
:101CF00037FC05A903220BA88DF82B4009F030FC16
:101D000006A903220CA88DF82F4009F029FC07A989
:101D100003220DA88DF8334009F022FC2A4603A9BE
:101D20000DF1370009F01CFC09AB10220AA9144878
:101D300008F0CCF9124808F0AAFB9FE7124809F016
:101D400091FA03221E2104A801F0D2F803222221D5
:101D500005A801F0CDF80322262106A801F0C8F855
:101D600003222A2107A801F0C3F887E703370020E0
:101D70004CCA00086FCA00083B00002045C6000896
:101D8000400600208ACA0008B0CA00082DE9F043C6
:101D900000238FB00446E25C2E2A03F10106DBB279
:101DA00005D038336B4403F8182C3346F3E7032B84
:101DB00018D1BDF820209DF82230ADF810208DF804
:101DC000123004A809F0F4FC3746C5B2E25DBB1B33
:101DD0002E2ADBB207F1010719D038336B4403F820
:101DE000182CF3E7022B09D130238DF810309DF821
:101DF00020308DF811309DF82130E0E7012BE0D143
:101E000043F23003ADF810309DF82030D7E7032BB4
:101E10001AD1BDF820209DF82230ADF814208DF89D
:101E2000163005A809F0C4FCB946C6B214F809205A
:101E3000A9EB07032E2ADBB209F1010919D03833C7
:101E40006B4403F8182CF1E7022B09D130238DF8ED
:101E500014309DF820308DF815309DF82130DEE7E4
:101E6000012BDED143F23003ADF814309DF8203061
:101E7000D5E7032B1DD1BDF820209DF82230ADF809
:101E800018208DF81A3006A809F092FC04EB09021C
:101E900007465FFA80F8002412F8013B611CE4B2A7
:101EA000E3B104F138000DEB000404F8183C0C46D3
:101EB000F2E7022B09D130238DF818309DF820303D
:101EC0008DF819309DF82130DBE7012BDBD143F28F
:101ED0003003ADF818309DF82030D2E7032C1ED126
:101EE000BDF820209DF82230ADF81C208DF81E3062
:101EF000454C07A809F05CFC2378AB42C0B223D163
:101F00006378B34220D1A37843451DD1E37883425F
:101F10001AD13E4800F0AEFE0FB0BDE8F083022CAF
:101F200009D130238DF81C309DF820308DF81D30FC
:101F30009DF82130DAE7012CDAD143F23003ADF815
:101F40001C309DF82030D1E72570E070667084F871
:101F50000280FBB2009029462D48324608F062FD0F
:101F60002C4B1D78012D37D12B492C48122207F01C
:101F70003BFE0028D0D12A4809F074F90A2304A9AD
:101F800003220AA88DF80C302E2409F0E9FA05A9DD
:101F900003220BA88DF82B4009F0E2FA06A90322D0
:101FA0000CA88DF82F4009F0DBFA07A903220DA831
:101FB0008DF8334009F0D4FA2A4603A90DF1370011
:101FC00009F0CEFA09AB10220AA9144808F07EF8ED
:101FD000124808F05CFA9FE7124809F043F903221F
:101FE0000F2104A800F084FF0322132105A800F0AC
:101FF0007FFF0322172106A800F07AFF03221B218E
:1020000007A800F075FF87E7DA360020DACA000873
:10201000FDCA00083B0000203DC600084006002025
:1020200018CB00083ECB000810B5014604461748FF
:1020300008F0F8FC164809F015F9164B1B78012B2F
:1020400019D115491548122207F0CEFDE8B91448F8
:1020500009F008F900220023104808F029FA0F4976
:10206000204608F0DBFB0D4808F064F9BDE810409D
:102070000A4808F00CBA0B4809F0F4F8204621226F
:10208000BDE810403C2100F033BF10BD68CB000814
:102090002FC800083B00002055C60008400600205D
:1020A00080CB0008A2CB000813B501224FF40071C9
:1020B00001A800F033FE9DF80430114C882B15D197
:1020C00001231048237009F0CDF823781BB94FF491
:1020D0007A7001F07BFCFF2301224FF4007101A80C
:1020E0008DF8043000F004FF02B010BD88230122F7
:1020F0004FF4007101A88DF8043000F0F9FEE4E718
:10210000EC390020C8CB0008F7B51E4F04460D4639
:102110001D4816460821012201F064FF3B7833B9BF
:102120001A4900962B463022204604F0DBFB3B7810
:10213000012B06D1154900962B463022204604F08B
:10214000D1FB134C10480022082101F04BFF2368FB
:102150000133142B236005D10B4800224FF480512A
:1021600001F040FF2368282B0AD1074800230122F1
:102170004FF48051236003B0BDE8F04001F032BF5E
:1021800003B0F0BDFD390020000C02408C39002066
:10219000F83900207FB5224CADF80E20226842F2BB
:1021A00010739A4205460E4603D10023236004B003
:1021B00070BD1C480122102101F014FF0DF10E0327
:1021C0001949009330223346284604F031FD154862
:1021D0000022102101F006FF236801332360134C15
:1021E00023680133142B23600BD10E4800224FF4D7
:1021F000804101F0F7FE0B4800224FF4004101F04E
:10220000F1FE2368282BD2D1002306482360012247
:102210004FF4004101F0E6FE054802F0E9FBC6E795
:10222000F0390020000C0240BC390020F4390020B5
:102230002C390020F7B504464FF400413E4801F028
:10224000CBFE0128054675D13C4F3E78002E33D198
:10225000024620213A4801F0C5FE39483246202185
:1022600001F0C0FE2A463748202101F0BBFE4FF4A2
:102270008053354A354900933548302303F017FA27
:1022800030483246202101F0ADFE2A463148324D19
:102290004FF4807101F0A6FE2E4832464FF4807153
:1022A00001F0A0FE2A882D492046FFF72DFF2A883D
:1022B0002A492046FFF76EFF3D78012D3AD1FFF7FE
:1022C00091F82A461E48202101F08CFE1C4800226D
:1022D000202101F087FE2A461A48202101F082FEC3
:1022E0004FF480530093184A18491948302303F0DB
:1022F000DEF914480022202101F074FEFFF752F8A5
:102300002A461448144D4FF4807101F06BFE1148B9
:1023100000224FF4807101F065FE2A880F492046A3
:10232000FFF738FF2A880D49204603B0BDE8F0408A
:10233000FFF7EABE03B0F0BD00040240FD39002003
:1023400000080240000C02408C390020BC390020FB
:102350004C3800200000024036000020DA36002011
:10236000F0B5144B85B06D46044603F110072A46BC
:10237000186859682E4603C60833BB423546F7D164
:102380001346114625780022104611F8016BB5421C
:1023900008BF80181032B2F5807FF6D16178002234
:1023A00013F8014BA14208BF80180132102AF7D15F
:1023B00005B0F0BDF8CB00082DE9F04712248AB033
:1023C0000DEB0402014605A8ADF81240FDF7ECFF45
:1023D000224605A92D48DFF8BCA009F0C1F805A9DF
:1023E000022204A809F0BCF804A8FFF7B9FF0DF118
:1023F000170107468AF80000022204A809F0B0F885
:1024000004A8FFF7ADFF0DF11A0180468AF801001C
:10241000022204A809F0A4F804A8FFF7A1FF0DF117
:102420001D0181468AF80200022204A809F098F8EA
:1024300004A8FFF795FF08A98AF8030002220446C2
:1024400004A809F08DF804A8FFF78AFF0DF1230115
:102450008AF804000222054604A809F081F804A8BD
:10246000FFF77EFFEDB2C6B2E4B28AF805005FFA6C
:1024700089F30296019500945FFA88F2F9B2044854
:1024800008F0D0FA0AB0BDE8F08700BF3C00002099
:1024900040CC0008D43600202DE9F04FDFF8E4806E
:1024A0003449354F8BB01122404607F09DFB002385
:1024B0000022404607F0FCFF4246122105A808F022
:1024C00088F905A912222D4809F04AF805A9022227
:1024D00004A809F045F804A8FFF742FF0DF1170121
:1024E00081463870022204A809F03AF804A8FFF7E0
:1024F00037FF0DF11A0182467870022204A809F014
:102500002FF804A8FFF72CFF0DF11D018346B870CA
:10251000022204A809F024F804A8FFF721FF08A963
:10252000F8700222044604A809F01AF804A8FFF77C
:1025300017FF0DF1230138710222054604A809F0A6
:102540000FF804A8FFF70CFFEDB2C6B2E4B2787141
:102550005FFA8BF35FFA8AF25FFA89F102960195CE
:102560000094074808F05EFA404607F090FF0BB071
:10257000BDE8F08F7EC50008D43600203C00002066
:102580009ACC00084006002008B5084B1B78012BA8
:102590004FF4907005D1FEF7B3FABDE80840FFF79D
:1025A0007BBFBDE80840FFF707BF00BF3B0000202E
:1025B00008B572B6094C01224FF48041204601F063
:1025C00011FD642001F002FA204600224FF4804100
:1025D00001F008FD642001F0F9F9ECE7000C02407D
:1025E00030B5002495B01422214603A8CDE9094452
:1025F00009F0C6F91F4B01941A6C42F080521A641C
:102600001B6C03F080530193019B1B4B02941A68CF
:1026100042F480421A601B6803F480430293029BD9
:102620000A230893102201230820CDE90B320D93D1
:10263000A823CDE910030225072308A8CDE90E54ED
:102640001295139302F0DAF908B1FFF7B1FF0F23E7
:10265000CDE9033505904FF4A0524FF48053052186
:1026600003A8CDE9062302F0A5FB0028EDD115B0A3
:1026700030BD00BF00380240007000402DE9F04F2F
:1026800093B000247C4D01F075F9FFF7A9FF1422E7
:1026900000210DA809F074F907942B6B774843F0DB
:1026A00010032B632B6B03F010030793079B089415
:1026B0002B6B43F004032B632B6B03F00403089391
:1026C000089B09942B6B43F080032B632B6B03F067
:1026D00080030993099B0A942B6B43F001032B633E
:1026E0002B6B03F001030A930A9B0B942B6B43F0B3
:1026F00002032B632B6B03F002030B930B9B0C94D5
:102700002B6B43F008032B632B6B03F008030C9334
:10271000012206210C9B01F065FC58482246082145
:1027200001F060FC5648012240F2012101F05AFC00
:1027300053482246202101F055FC524822464FF2D0
:10274000FB6101F04FFC4F48012240F6040101F00B
:1027500049FC01224C484FF4807101F043FC0126F2
:1027600046484FF0040A0DA9CDE90DA6CDE90F6644
:102770000A2701F059FB41480DA9CDE90D76CDE9B5
:102780000F4401F051FB21233D480DA9CDE90D3641
:10279000CDE90F4401F048FB4FF4887338480F949B
:1027A0000DA9CDE90D3401F03FFB48F20403374891
:1027B0000F940DA9CDE90D344FF4807B01F034FB6B
:1027C00030480F940DA94FF00309CDE90DB401F085
:1027D0002BFB4FF6BB632B48CDF840900DA9CDE9FC
:1027E0000D360F944FF4007801F01EFB24480DA91C
:1027F000CDE90F49CDE90D8601F016FB22480DA960
:10280000CDE90F49CDE90DB601F00EFB1D480DA92C
:10281000CDE90DA6CDE90F6601F006FB402319486E
:102820000DA9CDE90D36CDE90F4401F0FDFA06946E
:102830002B6B43F480032B632B6B03F48003224642
:10284000214606934520069B01F0E6F8452001F05D
:1028500015F90F480F4B04614FF4E1390C25C0E91D
:102860000039C0E90244C0E90554C46103F0FEF92F
:10287000034688B1FFF79CFE00380240001002407A
:1028800000080240000C0240000002400004024028
:102890006C37002000140140AD48AE4AC0F81880E3
:1028A0004FF482744FF0100AC0E90233C0E90433D8
:1028B000C0E907A3C0E90933C0E90024C76202F0F8
:1028C000EDFD03460028D5D1A348A44AC0E9023350
:1028D000C0E90433C0E90833C0E90A37C0E900247D
:1028E000C0E9068A02F0DAFD03460028C2D19C48FE
:1028F0009C4AC0F81880C0E900240822C0E90233CD
:10290000C0E90436C0E90723C0E90933C76202F011
:10291000C5FD0028AED105F0D7FB9348934B03606B
:1029200002F09AFB07460028A4D1014614220DA804
:1029300009F026F88E4C8F4B05977F20C4E90037AD
:10294000FF23C4E902032046C4E90477A76102F02B
:10295000CDFB00288ED1CDE91000ADF834008DF804
:10296000360032460DA9204602F019FC002881D11C
:10297000814B0593324605A9204602F081FC0346AF
:1029800000287FF477AF7D487D497E4A0362C0E925
:1029900000124FF48042C0E90233C0E90423C0E9C9
:1029A000063301F007FD034600287FF463AF764845
:1029B000764AC0E90233C0E90029C0E90435C0E91C
:1029C000063303F053F900287FF454AF704C714A7A
:1029D0000423C4E90023204640F6FF73A36001F0FE
:1029E000E0FF024600287FF445AF01216A4808F065
:1029F00019F86A48514601F0EFFA012840F0DE80EC
:102A00006748684E684D08F02DFC664811220DA9F4
:102A100003F07BFB304603F059FB202840F0828016
:102A200002220DA905A808F09BFD05A8FFF798FC58
:102A3000DFF884A102220DF1370107468AF8000071
:102A400005A808F08DFD05A8FFF78AFC02220DF10C
:102A50003A0180468AF8010005A808F081FD05A822
:102A6000FFF77EFC02220DF13D0181468AF802004B
:102A700005A808F075FD05A8FFF772FC022210A951
:102A800004468AF8030005A808F06AFD05A8FFF7C8
:102A900067FC02220DF1430105468AF8040005A8EF
:102AA00008F05EFD05A8FFF75BFCE4B2C6B2EDB22C
:102AB0008AF805005FFA89F300945FFA88F2F9B2A8
:102AC0003A480296019507F0ADFF002312224FF419
:102AD00090710DA88DF84530FDF79AFC4FF4907178
:102AE00002463348304C07F09DFF01224FF48051DD
:102AF000204601F077FA642000F068FF00224FF4CE
:102B00008051204601F06EFA642000F05FFF4FF420
:102B1000FA7000F05BFF274808F0A4FB1C4801F0A6
:102B200067FFE2E701224FF40041284601F05AFA1C
:102B3000642000F04BFF00224FF40041284601F0D2
:102B400051FA642000F042FF204601F051FF61E796
:102B5000F4370020003C0040A43800200030014041
:102B60004C380020003800401C3900200008065076
:102B7000FC380020002800400105092338390020D6
:102B800000540040801A0600B03700200044004086
:102B90002C3900200030004065CC000800080240BD
:102BA00083CC00086C370020000C024096CC000853
:102BB000BECC0008F9CC0008D436002022484FF4DF
:102BC000807101F009FA214B002834D11870204897
:102BD000204D214C08F046FBFEF76AFBFFF7D4FCC2
:102BE000FEF798FBFFF760FAFEF7A4FB0020FEF764
:102BF00011FB0420FEF7CEFB184B1949194801229E
:102C000004F026FEFEF7CAFA1749002000F080FE05
:102C1000002005F0F9F82B78012B10D12378012B37
:102C200002D10420FFF706FB2378002BF0D104200B
:102C3000FEF7F8FBECE701220C481A70C8E70C48D5
:102C400001F0D6FEE4E700BF00080240FD39002095
:102C500011CD00083A000020FC39002001000020BE
:102C6000D42E0020D426002030CD00081FCD00082F
:102C70002C3900200FB400B5ADF5037D84AB4FF4C3
:102C8000007153F8042B019302A808F04BF802A836
:102C9000FDF7DEFA4FF0FF3382B202A9044803F0D9
:102CA00013F80DF5037D5DF804EB04B0704700BF29
:102CB0006C370020F8B5084F0E4614460025A54293
:102CC00001DB2046F8BD71194FF6FF73012238462B
:102CD00002F0FAFF0135F2E76C370020014B186073
:102CE000704700BF003A002070B50B4E04460D46F9
:102CF000306890F8513053B142F210732A462146A1
:102D000002F028FC38B1BDE87040FFF751BC01204B
:102D100000F05CFEECE770BD003A0020F7B51A4FFA
:102D200005460C4616463B6893F85130012B23D1DB
:102D3000032316488DF804300421230C002264BAC2
:102D40008DF80530ADF8064001F04CF904210DEB8B
:102D50000100FFF7C9FF38684FF47A7332462946FD
:102D600002F095FD02280BD008480122042101F051
:102D700039F9012003B0F0BD012000F027FED2E7B1
:102D8000012000F023FEE6E7003A00200010024098
:102D900013B50A4C00222046042101F023F9062332
:102DA00001A801218DF80430FFF79EFF01220421C4
:102DB000204601F017F902B010BD00BF001002401C
:102DC00037B50A4C042500222046042101F00AF9F7
:102DD0000DEB050001218DF80450FFF785FF01225E
:102DE0002946204601F0FEF803B030BD0010024035
:102DF00037B50523002214488DF8002004218DF8F2
:102E0000043001F0EFF8012101A8FFF76DFF0F4D2D
:102E10002868C8230122694602F039FD02284FF0D4
:102E200001000ED000F0D2FD9DF8000010F001046A
:102E3000EED105480122042101F0D4F8204603B068
:102E400030BD00F0C3FDE3E700100240003A00206F
:102E50002DE9F743DFF8949007460C469046D9F8E1
:102E6000003093F85130012BDEB239D1FFF790FFDB
:102E700002238DF80430230C64BA8DF80530ADF8C8
:102E80000640FFF785FF18480022042101F0AAF848
:102E900004210DEB0100FFF727FF0524D9F80000FE
:102EA0004FF47A734246394602F054FB0228054635
:102EB00006D10520013C00F089FD14F0FF04EDD19E
:102EC00001220421084801F08DF8FFF791FFFFF778
:102ED00077FF012D08BF0226304603B0BDE8F0831E
:102EE000012000F073FDBAE700100240003A002014
:102EF0002DE9F04711F0FF0A05460F4614465FFA28
:102F000082F81AD1FF2A2ED9140A4FF4807239465A
:102F10002846FFF79DFF0128064641D1013CA4B297
:102F200007F5807705F58075002CEED1B8F1000F1C
:102F300036D042463946284615E0CAF58079FF2A40
:102F40001FFA89F913D8C1450DD24A46FFF780FF11
:102F50000128064624D1A8F58072524492B209EBAA
:102F6000070105EB0900BDE8F047FFF771BF4A46CE
:102F7000FFF76EFF0128064612D1A4F580741AFAF5
:102F800084F44D441FFA84F84F4404F47F442C44E5
:102F90007F1BA54205EB070105D118F0FF02CAD13E
:102FA0003046BDE8F0874FF480722846FFF750FFA7
:102FB000012802D105F58075EBE70646F0E7000031
:102FC00082B00C4B002100915A6C42F480425A644A
:102FD0005A6C02F480420092009A01911A6C42F0FD
:102FE00080521A641B6C03F080530193019B02B062
:102FF000704700BF0038024030B5044689B0142243
:10300000002103A808F0BCFC2268134B9A4221D18E
:10301000124C134800250195236B43F002032363F0
:10302000236B03F002030193019BC0221223CDE91D
:10303000032303210423CDE9061303A900F0F4FEC2
:103040000295236C43F400132364236C03F40013F0
:103050000293029B09B030BD00540040003802408A
:10306000000402400268094B9A4282B00BD100234F
:103070000193074B5A6B42F040025A635B6B03F0BB
:1030800040030193019B02B0704700BF0008065047
:10309000003802401FB5044610220021684608F09F
:1030A0006FFC2268094B9A420ED1022300936846B6
:1030B0004FF40073039301F037FF08B1FFF778FA7C
:1030C000034B0122C3F83C2E04B010BD0028004081
:1030D00000004742F0B504468DB01422002107A835
:1030E00008F04EFC2368534A934223D1524B534875
:1030F000002100915A6C42F480525A645A6C02F4D6
:1031000080520092009A01911A6B42F001021A63F8
:103110001B6B03F001030193019BE02202230321B7
:10312000CDE907230523CDE90A1307A900F07CFEAA
:103130000DB0F0BD424A934240D13F4B414800227E
:103140000292196C41F480411964196C01F48041B8
:10315000029102990392196B41F004011963196BF2
:1031600001F004010391039904921A6B42F00202E8
:103170001A631B6B03F00203049302260325052444
:10318000049B07A90423CDE907360127CDE90A549A
:1031900000F04AFE08232B480B9407A9CDE9073617
:1031A000CDE9097500F040FE4FF48063CDE90736A4
:1031B000CDE9097524480B9407A9B7E7234A934240
:1031C000B6D11D4B1F48002405941A6C42F40042EE
:1031D0001A641A6C02F400420592059A06941A6B5E
:1031E00042F004021A631B6B03F004030693069B70
:1031F00002274FF480630326062507A9CDE9073788
:10320000CDE90A6500F010FE4FF4C053CDE9073751
:1032100007A901230B480B95CDE9093600F004FE00
:1032200022462146332000F0F7FB332000F026FC35
:103230007EE700BF0030014000380240000002403D
:10324000003800400008024000040240003C0040FA
:1032500070B514228AB0064600210DEB020008F07A
:103260008FFB33683A4A93422BD13A4B3A480024B9
:1032700001941A6C42F400321A641A6C02F400329F
:103280000192019A02941A6B42F001021A631B6BBD
:1032900003F001030293029B0C250223CDE90553A1
:1032A00005A907230326CDE9086300F0BDFD26200C
:1032B0002246214600F0B0FB262000F0DFFB0AB0DA
:1032C00070BD264A9342FAD1224B2548254C002551
:1032D00003955A6C42F020025A645A6C02F02002A4
:1032E0000392039A04951A6B42F004021A631B6B53
:1032F00003F004030493049BC0220223CDE90523B9
:1033000003210823CDE9081305A900F08DFD164817
:103310004FF02063C4E900034023C4E902354FF4B1
:103320008063C4E9043520464FF40033C4E90655F0
:10333000C4E9083500F0ECFB08B1FFF739F90022C9
:10334000746347201146A66300F066FB4720B4E78C
:1033500000440040003802400000024000140140D8
:10336000000802400C370020A0640240FEE7FEE7A0
:10337000FEE7FEE7FEE7704770477047054A13888F
:103380000BB1013B1380044A13880BB1013B13803E
:1033900000F00ABB3C0600203A060020014802F07B
:1033A0004FBD00BFB0370020014802F00FBB00BF87
:1033B000F4370020014800F079BC00BF0C37002032
:1033C000014802F03DBD00BF6C370020012070476E
:1033D00008B508F097FA162303604FF0FF3008BDD8
:1033E00008B508F08FFA16230360FEE770B50D46A6
:1033F00014460E46731B9C4201DC204670BDAFF3A1
:10340000008006F8010BF5E74FF0FF3070474FF4EE
:1034100000534B6000207047012070470020704728
:103420000B4A116810B5034609B90A4911601068C2
:1034300009490A4C0344091B8B4206D908F062FA79
:103440000C2303604FF0FF3010BD1360FCE700BF9A
:10345000043A0020D0460020000002200040000076
:10346000034AD2F8883043F47003C2F888307047BA
:1034700000ED00E030B59BB0054614A80C4603F003
:103480001FFE9DF8653013939DF8643012939DF8EC
:10349000633011939DF8623010939DF85D300F9367
:1034A0009DF85C300E939DF85B300D939DF85A307B
:1034B0000C939DF861300B939DF860300A939DF852
:1034C0005F3009939DF85E3008939DF8593007935B
:1034D0009DF8583006939DF8573005939DF8563067
:1034E00004939DF8553003939DF8543002939DF852
:1034F000533001939DF8523000939DF850209DF871
:1035000051300349284608F0E3F820801BB030BD55
:103510004ACD000870B50C46094906461546FCF729
:1035200037FE40B107493046FCF732FE28B929463C
:103530002046FFF79FFF012070BD0020FCE700BF81
:1035400009CE000812CE000838B51649054604F029
:10355000A5F8044600B30A2104F078F8C4B20F2C91
:103560001CD82846104904F099F8054630B10A21C4
:1035700004F06CF8C5B2012D28BF012521460B4887
:1035800007F050FA0A4B0B4833F81410012D0CBF0A
:103590002A46002200F026FD60B238BD4FF0FF3011
:1035A000FBE700BF22CE000826CE00082ACE000886
:1035B00094000020000C0240F8B50E460C49074666
:1035C00015461C46FCF7E4FD68B10A493846FCF78D
:1035D000DFFD50B93046FFF7B7FF0749C2B22846B2
:1035E00008F076F820800120F8BD0020FCE700BF3D
:1035F00009CE00084ECE00085FCE00080A464FF400
:103600007A730146014802F042B900BFA438002095
:1036100007B5FF238DF8073001224FF47A730DF1BF
:103620000701044802F033F99DF8070003B05DF884
:1036300004FB00BFA43800200A464FF47A73014609
:10364000014801F087BF00BFA438002007B54FF440
:103650007A738DF8070001220DF10701024801F08D
:1036600079FF03B05DF804FBA43800200248012272
:103670004FF4006100F0B6BC000C0240024800228A
:103680004FF4006100F0AEBC000C024070B586B093
:10369000FFF7ECFF1C491D4803F0D0FA1C491D48F8
:1036A00003F0DAFA1C491D4803F0E8FA1C4B02AAA1
:1036B00003F11006154618685968144603C4083308
:1036C000B3422246F7D12946012003F059FC0130CC
:1036D00006D114480A22012107F0A4F906B070BDF2
:1036E0000DF107010F2003F04BFC013003D10E4810
:1036F0000A220121F0E79DF80730002BF0D00B489B
:1037000007F0B0FDEAE700BF6D3600087D3600081F
:103710004D3600081136000839360008FD3500081E
:103720000FC4000862CE00087ECE000899CE0008C3
:1037300070477047DFF834D00D480E490E4A002319
:1037400002E0D458C4500433C4188C42F9D30B4A55
:103750000B4C002301E013600432A242FBD3FFF7BD
:103760007FFE07F033F9FEF789FF70470000022063
:10377000000000205C01002000380108180600202D
:10378000CC460020FEE70369C26893429CBF816873
:103790005B18013B981A70472DE9F041D0E902848B
:1037A0000546A8EB04064068964220440F461444A0
:1037B00004D907F00BFEEC60BDE8F0813246A4EBC3
:1037C000080407F003FE68682246B919F1E72DE9FD
:1037D000F843C5680646894617464FF00008336926
:1037E000B46870689D4228BF1B19641BBC4203F17A
:1037F000FF3328BF3C465B1B9C4228BF1C46494602
:103800002844224607F0E2FDB3682544AB4208BFD6
:1038100000253F1BA044A144F560E0D14046BDE82F
:10382000F883000010B5114C114AA2610323C4E9CA
:103830000433104BE36122664FF480630E4A0F4954
:103840002362626600231022E01DA3626362E362CA
:103850002367E3666367A26607F0DCF80849204641
:1038600007F0D8F82023A37110BD00BF6C0500201D
:10387000A2CE00086C0100205C010020ABCE000845
:10388000AFCE0008F8B5144B182700FB07751D4490
:1038900007FB00330E46DB6A012B14460AD0022BCD
:1038A00014D023B92846FFF76EFF844208D90024BC
:1038B0002046F8BD2846FFF766FF844228BF04462D
:1038C000224631462846FFF767FFF1E72846BDE864
:1038D000F840FFF77CBF00BF6C050020F8B50B4B2C
:1038E0001B7804460D4616460BB9FFF79BFFEFF316
:1038F00011874FF0200181F3118832462946204676
:10390000FFF7C0FF87F31188F8BD00BF6C050020EA
:1039100038B5054608460C46FCF79AFC2146024697
:103920002846BDE83840FFF7D9BF000038B50E4B38
:103930001A784FF47A73B3FBF2F30C4A0546106819
:10394000B0FBF3F000F0BAF8044658B90F2D09D8CF
:10395000024629464FF0FF3000F05EF8044B204647
:103960001D6038BD0120FCE7B3000020900000205E
:10397000B400002008B50B4B1A6842F400721A60BC
:103980001A6842F480621A601A6842F480721A60FF
:10399000032000F02FF80F20FFF7C8FFFFF710FB00
:1039A000002008BD003C0240034A044B11681B780C
:1039B0000B441360704700BF083A0020B30000209A
:1039C000014B1868704700BF083A002038B504461C
:1039D000FFF7F6FF631C1CBF054B1B78054618BF9D
:1039E000E418FFF7EDFF431BA342FAD338BD00BF35
:1039F000B30000200749CA6822F4E06203021204FF
:103A000003F4E063120C134343F0BF6343F4003349
:103A1000CB60704700ED00E0164B30B5DC68C4F3B6
:103A20000224C4F10703251D042B28BF0423062DFF
:103A30004FF0FF358CBF033C002405FA03F321EA65
:103A40000303A54022EA0502A340002843EA02033B
:103A5000ACBF00F16040084A4FEA0313B8BF00F062
:103A60000F00DBB2AABF00F56140135480F80033A9
:103A700030BD00BF00ED00E014ED00E0002807DBE2
:103A80004109044A00F01F000123834042F821301D
:103A9000704700BF00E100E0BFF34F8F0549064BC0
:103AA000CA6802F4E0621343CB60BFF34F8F00BFDC
:103AB000FDE700BF00ED00E00400FA050138B0F1B9
:103AC000807F0BD24FF0E023054A5861F02182F845
:103AD00023100020072298611A6170470120704767
:103AE00000ED00E0036810B5084C0246D9B2103969
:103AF0001820B1FBF0F0205CD06523F47F7020F03B
:103B000003005F2988BF0430906510BD483201086A
:103B100070B50446FFF754FF0546002C60D0022321
:103B200084F835302268002384F83430136823F099
:103B30000103136022681368D8072ED41368324833
:103B4000A1691840D4E901352B43E5682B43256969
:103B50002B4365692B43E5690B432B43256A2B43B4
:103B60000343606A042802BFD4E90B5635432B4354
:103B700013605369042823F0070343EA000335D197
:103B8000A06AE56A03438DB391B9012820D030F0D3
:103B900002012BD1E90129D51DE0FFF711FF401BE0
:103BA0000528C7D920230320636584F8350070BD3C
:103BB000B1F5005F16D1032818D801A151F820F003
:103BC000D73B0008953B0008D73B0008D13B0008D5
:103BD000B5F1C07F0AD140236365012384F83530F5
:103BE0000120E4E70228F6D90328D3D05361204608
:103BF000FFF778FFE26D3F239340836000200123AD
:103C0000606584F83530D2E73F8010F070B5044627
:103C1000866DFFF7D5FE94F83530022B054606D0A9
:103C2000802363650120002384F8343070BD23684D
:103C30001A6822F016021A605A6922F080025A614C
:103C4000226C0AB9A26C1AB11A6822F008021A6032
:103C50001A6822F001021A602368186810F0010047
:103C600007D1E26D3F239340B360012384F83530E0
:103C7000D9E7FFF7A5FE401B0528EDD92023032037
:103C8000636584F83500CEE790F83530022B03D019
:103C900080234365012070470268052380F8353092
:103CA000136823F00103136000207047F7B5002369
:103CB00001935C4B856D1F68C36D2E6808229A4086
:103CC000324204460CD001680868400708D50868ED
:103CD00020F004000860AA60626D42F00102626593
:103CE00001229A40324208D021684969090641BF41
:103CF000AA60626D42F00202626504229A4032427A
:103D000008D021680968880741BFAA60626D42F047
:103D10000402626510229A40324210D0236819686A
:103D200009070CD5AA601A68500337D51B68190318
:103D300001D4236C00E0A36C0BB120469847E16DE1
:103D400020228A4032423AD023681868C60636D507
:103D5000AA6094F83520052A1A6827D122F01602A5
:103D60001A605A6922F080025A61226C0AB9A26C68
:103D70001AB11A6822F008021A603F238B40AB6028
:103D8000012384F83530002384F83430236D002B70
:103D900045D0204603B0BDE8F04018471A68D20568
:103DA0005EBF1A6822F008021A60C2E7500327D5E6
:103DB0001B68190331D4636C0BB120469847636DBF
:103DC0006BB3636DDA0719D522684FF41653B7FB4E
:103DD000F3F7052384F83530136823F001031360EB
:103DE000019B0133BB42019302D81368DB07F7D470
:103DF000012384F83530002384F83430E36CC6E7BF
:103E00001A6812F4807208D1196821F01001196043
:103E1000012384F8353084F83420E36BCCE703B019
:103E2000F0BD00BF900000202DE9F74FDFF8A4910E
:103E3000664A00230D6801249C4004EA0506AC4351
:103E400040F0AF804D68032705F003044FEA4308B4
:103E500007FA08FC671E012F6FEA0C0C34D887683C
:103E600007EA0C0ECF6807FA08F747EA0E078760E3
:103E7000476827EA060EC5F300179F4047EA0E077A
:103E80004760C76807EA0C0E8F6807FA08F747EA29
:103E90000E07022CC76019D14FEAD30A00EB8A0A39
:103EA00003F0070BDAF820704FEA8B0B4FF00F0E80
:103EB0000EFA0BFE27EA0E0E0F6907FA0BF747EA18
:103EC0000E07CAF8207001E0032CDAD1076804FA63
:103ED00008F407EA0C073C4315F4403F046060D047
:103EE00000240194D9F8444044F48044C9F8444083
:103EF000D9F8444023F0030707F1804704F48044D5
:103F000007F59C37019403F0030C019CD7F808E0F7
:103F10004FEA8C0C0F2404FA0CF42EEA040E2C4CFD
:103F2000A04245D004F58064A04243D004F58064EB
:103F3000A04241D004F58064A0423FD004F58064E3
:103F4000A0423DD004F58064A0423BD004F58064DB
:103F5000A04239D004F58064A04214BF082407248D
:103F600004FA0CF444EA0E04BC601468F74315F438
:103F7000803F0CBF3C4034431460546815F4003F4C
:103F80000CBF3C4034435460946815F4801F0CBF50
:103F90003C4034439460D468AD0254BF3C40344349
:103FA000D4600133102B7FF445AF03B0BDE8F08F30
:103FB0000024D5E70124D3E70224D1E70324CFE787
:103FC0000424CDE70524CBE70624C9E7003C0140E3
:103FD00000000240003802400369194214BF01206A
:103FE000002070470AB1816170470904FBE701684E
:103FF0004B6913F480634FF0000210D06FF48063BC
:104000004B612023026380F83D3080F83E20036C32
:1040100080F83C2043F004030364012070471846F5
:1040200070472DE9F84606460F4691461D464FEA71
:10403000114A3368BAF1010F0CBF5C699C6927EA29
:104040000404A4B2B4FA84F46409A14501D00020A8
:1040500017E06A1CEED0FFF7B3FC089BC01AA84219
:1040600001D8002DE5D100232022336386F83D20BE
:1040700086F83E30326C86F83C3042F020023264E2
:104080000120BDE8F8862DE9F04104460F461646AA
:1040900098462568686927EA000080B2C0B16B695C
:1040A0005A0517D52B6843F400732B606FF48063B7
:1040B0006B6120220023236384F83D2084F83E3086
:1040C000236C43F004032364002384F83C30012074
:1040D000BDE8F081731CDDD0FFF772FCA0EB080097
:1040E000B04209D900232022236384F83D2084F8BC
:1040F0003E30236C1343E6E7002ECAD1F2E770B5D9
:1041000004460D46164623685B691B0601D5002050
:1041100018E02046FFF76BFF98B96A1CF3D0FFF751
:104120004FFC801BA8420ED900232022236384F871
:104130003D2084F83E30226C84F83C3042F020026E
:104140002264012070BD002DDDD1EDE72DE9F043A3
:104150001546026885B0DDE90C789946136843F48A
:10416000807313600E463B46CDF8008000224FF06E
:1041700001110446FFF755FF236838B11B68DB05C2
:1041800002D54FF400732364032620E006F0FE06F8
:104190001E611A4943463A462046FFF774FFA8B904
:1041A000236803905A6903929B69039342463946F8
:1041B0002046039BFFF7A3FF064660B1236C042B48
:1041C00001BF2268136843F4007313600126304670
:1041D00005B0BDE8F083B9F1010F236802D1EDB25B
:1041E0001D61F4E72A0A1A61394642462046FFF764
:1041F00086FF0028E2D12368F1E700BF020001003A
:104200002DE9FF479A46036815461A6842F4806212
:104210001A601A68DDE90C7842F480721A600E4662
:104220003B46CDF8008000224FF001110446FFF715
:10423000F8FE236838B11B68DB0544BF4FF40073F8
:104240002364032021E05FFA86F906F0FE061E6172
:104250002B4943463A462046FFF715FFA0B923688D
:1042600003905A6903929B6903934246394620465C
:10427000039BFFF744FF58B1236C042B01BF226856
:10428000136843F400731360012004B0BDE8F087A5
:10429000BAF1010F23681AD1EDB242461D613946C9
:1042A0002046FFF72CFF02460028E5D121680B6865
:1042B00043F480730B602046CDF800803B464FF0FE
:1042C0000111FFF7AEFE226860B11368B4E72A0A55
:1042D0001A61394642462046FFF711FF0028CBD12C
:1042E0002368D9E749F001031361054943463A467B
:1042F0002046FFF7C8FE003818BF0120C5E700BF01
:104300000200010070B504460D46164623685B693D
:104310005B0701D5002018E02046FFF768FE98B93A
:104320006A1CF3D0FFF74CFB801BA8420ED9002378
:104330002022236384F83D2084F83E30226C84F8E8
:104340003C3042F020022264012070BD002DDDD1FE
:10435000EDE770B504460D46164621684B6913F02B
:10436000400301D0002011E04A69D2060FD56FF05A
:1043700010024A612022236384F83D2084F83E30F5
:10438000236C2364002384F83C30012070BDFFF7C8
:1043900017FB801BA84209D900232022236384F83D
:1043A0003D2084F83E30236C1343EAE7002DD4D13E
:1043B000F2E7000070B5044608B9012070BD90F81E
:1043C0003D3003F0FF021BB980F83C20FEF714FEDD
:1043D000242384F83D3023681A6822F001021A6011
:1043E0001A6842F400421A601A6822F400421A6005
:1043F00000F07AFD3F4B65689D4294BF3E4B3F4BBA
:1044000098428CBF00230123002BD6D12268394E5D
:1044100051683B4BB0FBF3F321F03F011943B54228
:10442000516088BF4FF49676116A88BF734321F0BC
:104430003F0184BF4FF47A76B3FBF6F301330B43AD
:104440001362D169431E2B4821F44F41854221F06C
:10445000FF0132D86D0040F6FC70B3FBF5F3013379
:10446000034242D0C3F30B031943D161D4E90730AF
:104470001168034321F0C0010B4313609168D4E934
:10448000030321F40341034321F0FF010B43936035
:10449000D4E90530D168034321F0FF010B43D36019
:1044A000136843F00103136000202023206484F884
:1044B0003D30206384F83E0080E7A06850B905EBEA
:1044C0004505B3FBF5F30133C3F30B037BB143F4B1
:1044D0000043C9E719206843B3FBF0F30133C3F38A
:1044E0000B0323B143F44043BEE70423BCE701239D
:1044F000BAE700BFA08601007F841E00FF083D00D0
:1045000040420F002DE9F743044699460C9E0F46A2
:104510009046FFF755FA94F83D30202B054603D01E
:10452000022003B0BDE8F08300903C49192301222A
:104530002046FFF776FD0028F2D194F83C30012B9D
:10454000EED02068012384F83C300368D9075EBFB1
:10455000036843F001030360036823F4006303600E
:10456000212384F83D30402384F83E300023236427
:104570000A9B6362BDF82C306385638D2385284BCD
:10458000E3624246CDE900654B4639462046FFF7D7
:10459000DDFD00282AD00120C3E7FFF7B0FD40B1C0
:1045A000236C042B01BF2268136843F4007313606B
:1045B000F1E7636A27681A4612F8011B39616262E3
:1045C000628D218D013A92B262857A69481E80B26D
:1045D000520720850AD548B15A783A61023363629E
:1045E000638D013B02399BB221856385238D2A4669
:1045F00031462046002BD0D1FFF784FE0028CFD1D2
:104600002268136843F400731360202384F83D305C
:1046100084F83C0084F83E0083E700BF02001000ED
:104620000000FFFF2DE9F043044687B09946109F34
:104630000D469046FFF7C4F994F83D30202B06460E
:1046400004D00225284607B0BDE8F08300907649E3
:10465000192301222046FFF7E4FC0028F1D194F849
:104660003C30012BEDD02068012384F83C300368F6
:10467000DB075EBF036843F001030360036823F4B4
:1046800000630360222384F83D30402384F83E30E9
:10469000002323640E9B6362BDF83C306385638D09
:1046A0002385624BE3622946CDE900764B464246BC
:1046B0002046FFF7A5FD054608B10125C2E7228D7A
:1046C0002368B2B902905A6902929A690292029AD8
:1046D0001A6842F400721A60DFF85481238D002BAF
:1046E0002CD1202284F83D2084F83C3084F83E30E0
:1046F000A8E7012A0AD11A6822F480621A6003909E
:104700005A6903929A690392039AE1E7022A0ED149
:104710001A6822F480621A601A6842F400621A6011
:1047200004905A6904929B690493049BD4E7059012
:104730005A6905929B690593059BCDE7032B56D8D3
:10474000012B15D1324639462046FFF702FE0028DC
:10475000B3D123681A69636A1A70636A01336362AA
:10476000238D013B2385638D013B9BB26385B5E7B8
:10477000022B00963B464FF000024146204619D1DD
:10478000FFF74FFC002898D123681A6842F40072A2
:104790001A601A69636A1A70626A531C6362238D15
:1047A000013B2385638D013B9BB2638523681B69B5
:1047B0005370D2E7FFF735FC024600287FF47DAF47
:1047C0002368196821F4806119601969636A197096
:1047D000636A01336362238D013B2385638D013B53
:1047E0009BB26385414600963B462046C8E7324669
:1047F00039462046FFF7ADFD00287FF45EAF236801
:104800001A69636A1A70626A531C6362238D013BE2
:104810002385638D013B9BB26385236859694907F2
:104820007FF55CAFC3E700BF020010000000FFFF90
:10483000040001002DE9F04F044685B01E460F46E6
:104840009146FFF7BDF894F83D30202B054603D084
:10485000022005B0BDE8F08F00904F4919230122D6
:104860002046FFF7DEFB0028F2D194F83C30012B04
:10487000EED0012384F83C302368DFF81CB11A68BD
:10488000D0075EBF1A6842F001021A601A6822F46B
:1048900000621A60242384F83D3000232364A3F5CA
:1048A0008033E3624FF0010A07F0FE0722681368C5
:1048B00043F4807313604FF00111334600950022DA
:1048C0002046FFF7AEFB236838B11B68D90544BF0B
:1048D0004FF4007323640320BBE71F61FFF770F8F8
:1048E00023685A695B690546C2F34002C3F380231B
:1048F0004FF0A00894F83D10A0291CD123684FF078
:10490000200884F83D805A6992072BD51A682249FD
:1049100042F400721A60002203925A6903929B6962
:104920000393039B0095192301222046FFF779FB8F
:1049300098B101208DE71343E0D1FFF741F8401B08
:10494000B04200D80EB984F83D8023685A695B698B
:10495000C2F34002C3F38023CCE784F83D8084F89F
:104960003C0076E71A6842F400721A606FF48062C5
:104970005A6159460095192301222046FFF751FB41
:104980000028D6D10AF1010ACA458FD384F83D80A8
:1049900084F83C00CDE700BF0200100090F83D0015
:1049A000704738B5044608B303684CF6CC421A6029
:1049B00045F255521A6042685A6082689A60FEF762
:1049C000FFFF05462268D06810F0030003D14AF6C5
:1049D000AA23136038BDFEF7F3FF401B3128F1D93D
:1049E0002368DB689B07EDD00320F3E70120F1E7A4
:1049F00003684AF6AA221A60002070472DE9F341A5
:104A0000044640B30368DE0710D423689D075BD4D7
:104A10002368190700F19D8023685A0700F1BD80C3
:104A2000A369002B40F0248100202CE08D4B9A6874
:104A300002F00C02042A07D09A6802F00C02082A3D
:104A40000BD15B68590208D5864B1B689A03DCD5ED
:104A50006368002BD9D1012015E06368814DB3F55F
:104A6000803F13D12B6843F480332B60FEF7A8FFFF
:104A70007C4E054633689B03C7D4FEF7A1FF401B5D
:104A80006428F7D9032002B0BDE8F081B3F5A02F68
:104A900004D12B6843F480232B60E3E72A6822F4D7
:104AA00080322A602A6822F480222A60002BDDD11D
:104AB000FEF786FF06462B689F03A6D5FEF780FF0C
:104AC000801B6428F7D9DDE7664B9A6812F00C0F5B
:104AD00007D09A6802F00C02082A11D15B685D02C7
:104AE0000ED4604A1368990702D5E368012BB2D14E
:104AF0001368216923F0F80343EAC103136087E7D1
:104B0000E268594BB2B101221A60FEF759FF554DC8
:104B100006462B689B0707D52B68226923F0F8030C
:104B200043EAC2032B6073E7FEF74AFF801B0228AB
:104B3000EFD9A7E71A60FEF743FF4A4E05463368F0
:104B40009F077FF565AFFEF73BFF401B0228F6D9B4
:104B500098E76269444B82B10122C3F8802EFEF7C8
:104B60002FFF404E0546736F9B073FF555AFFEF78D
:104B700027FF401B0228F6D984E7C3F8802EFEF7F2
:104B80001FFF384E0546736F9F077FF545AFFEF751
:104B900017FF401B0228F6D974E7324B1A6C12F04B
:104BA000805228D101921A6C42F080521A641B6C18
:104BB00003F080530193019B01272C4D2B68D805EE
:104BC0001BD5A368274D012B27D12B6F43F0010381
:104BD0002B67FEF7F5FE234E054641F28838336F0A
:104BE0009A0739D5002F3FF41BAF1E4A136C23F0F0
:104BF0008053136414E70027DFE72B6843F48073C6
:104C00002B60FEF7DDFE06462B68D905D9D4FEF7EA
:104C1000D7FE801B0228F7D934E7052B04D12B6F70
:104C200043F004032B67D0E72A6F22F001022A67C2
:104C30002A6F22F004022A67002BCAD1FEF7C0FEB9
:104C400041F2883806462B6F9B07CBD5FEF7B8FE9E
:104C5000801B4045F7D915E7FEF7B2FE401B4045E3
:104C6000BDD90FE700380240000047420070004005
:104C7000374DAA6802F00C02082A3ED0022B354BB1
:104C80004FF000021A662BD1FEF79AFE06462B68FB
:104C900099011FD4D4E907321343626A43EA8213AD
:104CA000E26A43EA0263A26A5208013A43EA024313
:104CB0006B60284B264D01221A66FEF781FE0446E2
:104CC0002B689A013FF5B0AEFEF77AFE001B022872
:104CD000F6D9D7E6FEF774FE801B0228D7D9D1E6B5
:104CE000FEF76EFE04462B689B017FF59DAEFEF736
:104CF00067FE001B0228F6D9C4E6012B3FF4ABAED9
:104D00006B68E26903F4800191427FF4A4AE216AEA
:104D100003F03F028A427FF49EAE616A47F6C0729A
:104D20001A40B2EB811F7FF496AEA26A520803F4D8
:104D30004031013AB1EB024F7FF48DAEE26A03F0ED
:104D40007063B3EB026F14BF012000209BE600BF2D
:104D50000038024000004742134908B58B6803F051
:104D60000C03042B1CD0082B1CD14A684B684968E3
:104D700013F4800314BF0D480D48C1F3881118BF08
:104D8000002302F03F02A1FB0001FBF769FA064B8A
:104D90005B68C3F3014301335B00B0FBF3F008BD74
:104DA0000248FCE70248FAE700380240404B4C005A
:104DB0000024F4002DE9F0410D46044610B901200D
:104DC000BDE8F081434B1A6802F007028A4228D3FB
:104DD00021688F072DD4C80740D43E4B1A6802F0D3
:104DE0000702AA4265D8226851076BD4130707D57A
:104DF000394A2169936823F4604343EAC10393600D
:104E0000FFF7AAFF344B354A9B68C3F30313D35C07
:104E1000D840334B1860334B1868FEF787FD0020ED
:104E2000CEE7CAB21A701B6803F007038B42C6D1E3
:104E3000CEE7294B11F0040F1EBF9A6842F4E052EE
:104E40009A600E0742BF9A6842F460429A609A687C
:104E5000A06822F0F00202439A60BCE762681E4B31
:104E6000012A1CD11B6813F4003FA8D01A4EB36866
:104E700023F003031343B360FEF7A2FD41F2883829
:104E80000746B368626803F00C03B3EB820FA4D04B
:104E9000FEF796FDC01B4045F3D9032090E7911E15
:104EA00001291B6802D813F0007FDEE713F0020F20
:104EB000DBE7EAB21A701B6803F00703AB427FF42A
:104EC0007EAF90E70449E0688B6823F4E053034326
:104ED0008B608BE7003C024000380240383201080A
:104EE00090000020B4000020044B054A9B68C3F3E7
:104EF0008223D35C034A1068D840704700380240D0
:104F00003032010890000020044B054A9B68C3F32F
:104F10004233D35C034A1068D840704700380240DF
:104F20003032010890000020036813F0050FF7B538
:104F3000044605D123689B072AD4002003B0F0BDA6
:104F4000424B434E00229A66FEF73AFD054633680F
:104F50001F0116D4D4E901231B0743EA8213C6F8C4
:104F600084303A4B3A4E01229A66FEF729FD0546F7
:104F700033681801DED4FEF723FD401B0228F7D961
:104F800004E0FEF71DFD401B0228E0D90320D5E711
:104F9000002301932E4B2F4D1A6C42F080521A645D
:104FA0001B6C03F080530193019B2B6843F48073C7
:104FB0002B60FEF705FD06462B68D9051BD5244D51
:104FC000E2682B6F13F440731BD1E36803F4407263
:104FD000B2F5407F1E4A34D1916823F0704021F42D
:104FE000F81120F4407001439160116FC3F30B037B
:104FF0000B431367A1E7FEF7E3FC801B0228DBD914
:10500000C4E702F440729342DFD02B6F0F4A0121B4
:10501000C2F8401E23F440730021C2F8401E2B67E3
:105020002B6FDA07D1D5FEF7CBFC41F28837064665
:105030002B6F9B07C9D4FEF7C3FC801BB842F7D97E
:10504000A4E7916821F4F811CEE700BF00004742C1
:10505000003802400070004010B5044690B143791A
:1050600003F0FF0213B90271FDF7FCFF226802236F
:105070006371136843F0040313600020012363711C
:10508000A06010BD0120FCE7026838B5D36823F0AA
:10509000A003D3600446FEF793FC05462368DB6853
:1050A0009B0601D5002038BDFEF78AFC401BB0F5F9
:1050B0007A7FF3D90320F6E738B50368DA68520639
:1050C000044601D5002038BD4FF0FF32DA60FEF70C
:1050D00077FC05462368DB685B06F3D4FEF770FCBB
:1050E000401BB0F57A7FF5D90320ECE738B50446CC
:1050F000B8B1437F03F0FF0213B90277FDF7CAFF8F
:10510000022363772368CA225A6253225A622046D6
:10511000FFF7D2FF2368054630B1FF225A6204230D
:1051200063770125284638BD9A68206922F4E00299
:1051300022F040029A606268996802436069024303
:105140000A439A60E2681A611A69A16842EA014258
:105150001A61DA6822F08002DA609B689B0605D447
:105160002046FFF791FF08B12368D6E72368A169BD
:105170001A6C22F480221A641A6C0A431A64FF2201
:105180005A6201236377CDE70023092803D840EA58
:105190000310C0B270470A380133C0B2F5E72DE9F9
:1051A000F041037F012B05460E464FF002072ED03B
:1051B000016847770123037730787478B7788B6874
:1051C00042BB13F0400308BFF370FFF7DDFF8046DA
:1051D0002046FFF7D9FF04463846FFF7D5FFF3789E
:1051E00040EA034343EA084343EA0424CA234B62E8
:1051F00053234B622846FFF75FFF2A680746A8B192
:10520000FF23536204236B7700232B770127384653
:10521000BDE8F08113F0400308BFF3702402F37877
:1052200044EA00443C4344EA0344DFE704F07F34AB
:1052300024F0FE441460936823F480239360D6E93D
:105240000330916803430B439360D36823F08003DA
:10525000D360946814F020040AD12846FFF714FFA5
:1052600030B12B68FF225A6204236B772C77CDE78D
:105270002B68FF225A6201236B7700232B77C6E746
:10528000F8B5037F012B05464FF002061FD001231E
:10529000037746770E78C8784C788F787603C2B15A
:1052A00046EA00433B4343EA04242B68CA225A627D
:1052B00053225A622846FFF7FFFE2A680646F8B1D5
:1052C000FF23536204236B7700232B77012630469C
:1052D000F8BDE30642BF24F010040A344C70FFF717
:1052E00053FF04464878FFF74FFF02463846FFF762
:1052F0004BFF40EA060343EA044343EA0224D4E7AF
:1053000024F07F4424F0C0045460D36823F0800369
:10531000D360946814F020040AD12846FFF7B4FE45
:1053200030B12B68FF225A6204236B772C77CDE7CC
:105330002B68FF225A6201236B7700232B77C6E785
:105340002DE9F3411C4616460F460546FEF738FB8D
:105350003444241AFEF734FB244B1B68C3F3CB33CD
:105360006343804601932A68936837EA030301D0B8
:1053700000202EE0731CF7D0FEF722FBA0EB080004
:10538000A04229D32B685A6822F0E0025A606A686A
:10539000B2F5827F0AD1AA68B2F5004F02D0B2F509
:1053A000806F03D11A6822F040021A60AA6AB2F52F
:1053B000005F07D11A6822F400521A601A6842F49A
:1053C00000521A60012385F85130002385F85030CF
:1053D000032002B0BDE8F081019A019B002A03F18D
:1053E000FF33019308BF1446BDE700BF90000020C3
:1053F00038B513464268B2F5827F044606D00A46A5
:105400000121FFF79DFFB8B9002038BD8268B2F5D1
:10541000004F02D0B2F5806F07D125682868B2F539
:10542000806F20F04000286003D00A46802120468B
:10543000E7E70A460121FAE7636D43F0200363655D
:105440000320E2E737B51346124A1568124AB5FB46
:10545000F2F54FF47A72554342680195B2F5827FB6
:1054600004460BD10A468021FFF76AFF78B1636DCD
:1054700043F020036365032003B030BD019B33B1CB
:10548000019B013B019323689B681B06F6D4002017
:10549000F2E700BF9000002000366E0110B5044610
:1054A000002855D0436A002B4ED14268B2F5827F66
:1054B00000D0C3610023A36294F8513003F0FF02CF
:1054C00023B984F850202046FDF704FE2168A06827
:1054D000A269022384F851300B6823F040030B606B
:1054E000636800F4044003F482730343E06800F44B
:1054F00000600343206900F002000343606900F08C
:105500000100034302F400700343E06900F0380037
:105510000343206A00F080000343A06A00F40050B7
:1055200003430B60636A120C03F0100302F00402E1
:105530001A434A60CB6923F40063CB610020012346
:10554000606584F8513010BD0023C0E90433B1E731
:105550000120F8E72DE9F7431F4690F85030012B62
:1055600004460D46904600F0A080012380F850309C
:10557000FEF726FA94F85130012B8146D8B240F05C
:105580009280002D61D0B8F1000F5ED0032384F823
:10559000513000236365C4E91033A4F83680A36357
:1055A000A387E387A36826682563B3F5004FA4F8B3
:1055B000348007D1336823F040033360336843F409
:1055C000804333603368E2685B065EBF336843F054
:1055D00040033360B2F5006F63683FD113B1B8F197
:1055E000010F07D135F8023BF3602563E38E013BE1
:1055F0009BB2E386E38E9BB2A3B94A463946204666
:10560000FFF720FF00284BD1A36833B9019323682B
:10561000DA6801929B680193019B606D003818BFA6
:10562000012012E022689368980705D5236B33F8B0
:10563000021BD1602363D9E7FEF7C2F9A0EB090092
:10564000B842D7D3791CD5D00320012384F8513038
:10565000002384F8503003B0BDE8F08313B1B8F1F3
:10566000010F08D12B783373236B01332363E38E4F
:10567000013B9BB2E386E38E9BB2002BBDD0236837
:105680009A68920703D5226B12781A73ECE7FEF73B
:1056900097F9A0EB0900B842EDD37B1CEBD0D3E720
:1056A00020236365B0E70220CFE70220D3E72DE98E
:1056B000F7431E4690F85030DDF82880012B044651
:1056C0000D46914600F0E180012380F85030FEF74E
:1056D00077F994F851306268012B0746D9B20AD0A5
:1056E000B2F5827F40F0CF80A368002B40F0CB80E2
:1056F000042940F0C88015B1B9F1000F09D101208B
:10570000012384F85130002384F8503003B0BDE801
:10571000F083002EF3D094F85130C4F83890042B65
:105720001CBF052384F8513000236365C4E910339E
:105730002368E687E6861968A687490658BF196870
:10574000256358BF41F04001A68658BF1960E16843
:10575000B1F5006F48D10AB1012E07D135F8022BFF
:10576000DA60E38E2563013B9BB2E3860125E38E7D
:105770009BB263B9E38F9BB24BB93A464146204690
:10578000FFF760FE002872D020236365B7E7216829
:105790008B689A070DD5E38E9BB253B145B1236B4D
:1057A00033F8022BCA602363E38E013B9BB2E3868E
:1057B00000258A6812F001020CD0E38F9BB24BB136
:1057C000A36BC96823F8021BA363E38F013B9BB261
:1057D000E3871546FEF7F4F8C01B4045C7D3B8F180
:1057E000FF3FC4D003208BE70AB1012E08D12A78ED
:1057F0001A73236B01332363E38E013B9BB2E38671
:105800000125E38E9BB21BB9E38F9BB2002BB4D072
:10581000226893689B070ED5E38E9BB25BB14DB1B6
:10582000236B1B781373236B01332363E38E013BDC
:105830009BB2E38600252268916811F001010DD02A
:10584000E38F9BB253B1A36BD2681A70A36B013381
:10585000A363E38F013B9BB2E3870D46FEF7B0F8ED
:10586000C01B4045CDD3B8F1FF3FCAD0BAE7A3680B
:10587000002B7FF445AF23680190DA6801929B68A2
:105880000193019B3CE702203AE702203EE72DE925
:10589000F7431D464368B3F5827F044689461746A1
:1058A0000CD1836853B9042380F851301346009516
:1058B0000A46FFF7FCFE03B0BDE8F08394F85030D1
:1058C000012B7FD0012384F85030FEF779F894F84B
:1058D0005130012B8046D8B272D1B9F1000F5CD0A3
:1058E000002F5AD0A268C4F8389000260423B2F5DD
:1058F000004F84F85130C4E9106666652368E78775
:10590000A7872663A686E68607D11A6822F040029A
:105910001A601A6822F480421A601A6856065EBF3E
:105920001A6842F040021A60E368F3B1E38F9BB259
:10593000FBB123689A68D20736D5DA68A36B23F8DF
:10594000022BA363E38F013B9BB2E387EEE723685F
:105950009A68D00718D5A26B1B7B1370A36B013319
:10596000A363E38F013B9BB2E387E38F9BB2002BE2
:10597000EDD1424629462046FFF73AFDE8B9606D71
:10598000003818BF012008E0FEF71AF8A0EB080065
:10599000A842EAD3691CE8D00320012384F85130DF
:1059A000002384F8503086E7FEF70AF8A0EB0800E1
:1059B000A842BBD36B1CB9D0EEE720236365DEE7BA
:1059C0000220EAE7022076E770470000F0B503689E
:1059D0005D689A68560685B004464FEA9211C2F394
:1059E000801708D4D60706D56E0604D5036C05B01B
:1059F000BDE8F0401847960704D5280602D5636C29
:105A00002046F4E741EA521102F4807001F00101EE
:105A100001434FEA521657D0AA0655D57FB194F8E4
:105A20005120032A4FF0000148D0626D42F0040279
:105A300062650091DA6800929A680092009AF10714
:105A40000CD5626D42F001026265002202929A68F2
:105A500002921A6822F040021A60029A40B1626D06
:105A600042F008026265002203929A680392039A48
:105A7000626D4AB35A6822F0E0025A60012284F84B
:105A80005120AA0722D05A68E06C22F003025A6023
:105A900040B1104B0365FEF7F7F818B1636D43F0A2
:105AA00040036365A06C78B10A4B0365FEF7ECF820
:105AB00050B1636D43F04003636505E00191DA681E
:105AC00001929B680193019B05B0F0BD2046FFF752
:105AD0007BFFF9E7D95A000808B5806B0023C3871C
