:020000040801F1
:1000000000000220C15E0108E15A0108E35A01081C
:10001000E55A0108E75A0108E95A01080000000002
:10002000000000000000000000000000EB5A010882
:10003000ED5A010800000000EF5A0108F15A0108CA
:10004000355F0108355F0108355F0108355F01083C
:10005000355F0108355F0108355F0108355F01082C
:10006000355F0108355F0108355F0108355F01081C
:10007000355F0108355F0108355F0108355F01080C
:10008000355F0108355F0108355F0108355F0108FC
:10009000355F0108355F0108355F0108355F0108EC
:1000A000355F0108355F0108355F0108355F0108DC
:1000B000355F0108355F0108355F0108355F0108CC
:1000C000355F0108355F0108355F0108355F0108BC
:1000D000355F0108355F0108115B0108355F0108D4
:1000E000355F0108355F0108355F0108355F01089C
:1000F000355F0108355F0108355F0108355F01088C
:10010000355F0108355F0108355F01081D5B010897
:10011000355F0108355F0108355F0108355F01086B
:10012000355F0108355F0108355F0108355F01085B
:10013000355F0108355F0108355F0108355F01084B
:10014000355F0108355F0108355F0108355F01083B
:10015000355F0108295B0108355F0108355B01083F
:10016000355F0108355F0108355F0108355F01081B
:10017000355F0108355F0108355F010800000000A8
:08018000355F0108355F01083D
:10018800010000000A000000180000000300000041
:10019800040000000C0000002500000030000000F2
:0801A80020202020202020204F
:1001B000000000000000000000000000000000003F
:1001C000000000000000000000000000000000002F
:1001D000000000000000000000000000000000001F
:1011B000EEEEEEEEEEEEEEEEEEEEEEEE0000000007
:1011C000000000000000000000000000000000001F
:1011D000000000000000000000000000000000000F
:1011E00000000000000000000000000000000000FF
:1011F00000000000000000000000000000000000EF
:1012000000000000000000000000000000000000DE
:1012100000000000000000000000000000000000CE
:1012200000000000000000000000000000000000BE
:1012300000000000000000000000000000000000AE
:10124000000000000000000000000000000000009E
:10125000000000000000000000000000000000008E
:10126000000000000000000000000000000000007E
:10127000000000000000000000000000000000006E
:10128000000000000000000000000000000000005E
:10129000000000000000000000000000000000004E
:1012A000000000000000000000000000000000003E
:1012B000000000000000000000000000000000002E
:1012C000000000000000000000000000000000001E
:1012D000000000000000000000000000000000000E
:1012E00000000000000000000000000000000000FE
:1012F00000000000000000000000000000000000EE
:1013000000000000000000000000000000000000DD
:081310000000000000000000D5
:1013200010F8012B11F8013B012A28BF9A42F7D08F
:10133000D01A70470000000000000000000000000C
:1013400001F0FF01102A2BDB10F0070F08D010F876
:10135000013B013A8B422DD010F0070F42B3F6D17A
:10136000F0B441EA012141EA014122F007047FF093
:1013700000070023F0E80256083C85EA010586EAEA
:10138000010685FA47F5A3FA87F586FA47F6A5FA26
:1013900087F68EB9EED1F0BC01F0FF0102F0070232
:1013A00032B110F8013B013A83EA010313B1F8D1DD
:1013B0000020704701387047002D06BF35460338BE
:1013C000073815F0010F07D1013015F4807F02BFF7
:1013D000013015F4C03F0130F0BC0138704700BF48
:1013E000034613F8012B002AFBD1181A0138704765
:1013F00053B94AB9002908BF00281CBF4FF0FF317C
:101400004FF0FF3000F00CB8ADF1080C6DE904CEE0
:101410000DF092FADDF804E0DDE9022304B0704734
:10142000704700BF0348044B834202D0034B03B113
:1014300018477047C4010020C401002000000000CC
:101440000548064B1B1AD90F01EBA301491002D026
:10145000034B03B118477047C4010020C4010020AA
:101460000000000010B5064C237843B9FFF7DAFFFF
:10147000044B13B10448AFF300800123237010BD67
:10148000C801002000000000F4EB010808B5054B7E
:101490001BB105490548AFF30080BDE80840FFF7E0
:1014A000CFBF00BF00000000CC010020F4EB01081A
:1014B0000369C26893429CBF81685B18013B981A1C
:1014C00070472DE9F041D0E902840546A8EB0406F7
:1014D0004068964220440F46144406D90CF0C6FBDF
:1014E000BFF35F8FEC60BDE8F0813246A4EB0804E7
:1014F0000CF0BCFB68682246B919EFE72DE9F84308
:10150000C5680646894617464FF000083369B46837
:1015100070689D4228BF1B19641BBC4203F1FF3356
:1015200028BF3C465B1B9C4228BF1C4649462246BE
:1015300028440CF09BFBB3682544A044A1443F1B06
:10154000AB4208BF0025BFF35F8FF560002FDDD1F0
:101550004046BDE8F883000008B5144BA8220021DE
:1015600018460CF061FE0322026111494261114AE2
:101570008161C2614FF48062026200228262426233
:10158000C26201660C49416610218166034602670A
:10159000C2664267BFF35F8F084911F8010D985486
:1015A0000132102AF9D1BFF35F8F08BDF805002082
:1015B000E2ED0108F5010020E5010020F20A020831
:1015C000F8B5144B182700FB07751D4407FB0033C3
:1015D0000E46DB6A012B14460AD0022B14D023B925
:1015E0002846FFF765FF844208D900242046F8BD4D
:1015F0002846FFF75DFF844228BF04462246314655
:101600002846FFF75EFFF1E72846BDE8F840FFF700
:1016100075BF00BFF8050020F8B50B4B1B780446DA
:101620000D4616460BB9FFF797FFEFF311874FF002
:10163000200181F31188324629462046FFF7C0FF7A
:1016400087F31188F8BD00BFF8050020F8B5184CE5
:10165000237805460E460BB9FFF77EFFEFF311879F
:101660004FF0200181F31188182202FB0542506AD5
:10167000116A431C994208BF0023D16A022902D192
:10168000916A9942FBE7182202FB0541D1F828C074
:101690009C450BD005FB0222144462681654BFF32C
:1016A0005F8F01204B6287F31188F8BD0020FAE7B5
:1016B000F805002073B51C4D2B7804460BB9FFF7D5
:1016C0004BFFFF230F2C8DF8043029D8174B1B5DDF
:1016D0008DF80530EFF311864FF0200181F311886A
:1016E000EA6A02F00302022A0AD1114B11481C7067
:1016F00001A9FFF703FF002086F3118802B070BD37
:101700000C48FFF7D5FE012807D9094B09481C7082
:10171000022201A9FFF7D5FEEDE74FF0FF30EBE71E
:101720004FF0FF30EAE700BFF8050020F30A020897
:10173000E401002010060020826810B504464068CD
:10174000531C834205D820688154A360E3680133A9
:10175000E360D4E901329A420BD121682069FFF796
:101760005BFFA368984215BF4FF0FF330023E3608F
:10177000A36010BD2DE9F84F9946DDE90A431646EE
:10178000054688460A464FF0010AB24212D2CA45BF
:1017900038BFCA4613F0010B01D184B90024EB68AD
:1017A000002B3DDB0127B9F1010F1FD909F1FF39EA
:1017B0007743F8E70AF1010AB2FBF6F2E5E79B0787
:1017C00012D5B9F1000F0CBF30272027A245E6D271
:1017D00039462846FFF7B0FFEB68002B04F1FF34D1
:1017E000DDDB002CF2D1D9E72027EFE7B8FBF7F3D8
:1017F0009E42DDD9DFF84890B8FBF7F3284619F888
:10180000031007FB1388FFF797FFEB68002B03DB40
:10181000B7FBF6F3B74205D2BBF1000F00D064B9B5
:10182000BDE8F88F1F46E7E720212846FFF784FF31
:10183000EB68002B04F1FF34F2DB5445F4D8EFE7FA
:10184000030B02082DE9F04F00239BB00E46402108
:10185000CDE90613CDE908300DF1280A03901546AD
:10186000CDF814A016F8011B39B9089D002D00F31E
:10187000108108981BB0BDE8F08F252940F0BA8090
:101880004FF0000B314611F8013B2D2B18D012D828
:10189000232B1CD02B2B17D00024314611F8013BF1
:1018A000A3F13000092815D80A2202FB0433A3F162
:1018B00030040E46F1E7302BEED14BF0020B01E085
:1018C0004BF0010B0E46DDE74BF0040BFAE74BF053
:1018D000080BF7E72E2B11D10E464FF000090A270F
:1018E000304610F8011BA1F1300CBCF1090F07D8EC
:1018F00007FB0911A1F130090646F1E74FF0000995
:10190000304610F8011B01F0FB07682F0646F8D09F
:10191000782909D86F290BD8632967D020D82529C1
:1019200068D0582900F09580089B002B9ADA9CE734
:1019300070390829F8D801A050F821F0831A01085D
:101940002919010829190108631A01082919010830
:10195000411A01082919010829190108531A010817
:101960006429E1D129680F68081D87EAE7712860BA
:10197000A1EBE7714FF001080A2009293EDCC845B8
:1019800038BFC8462CB1002F02DB1BF0040F00D07B
:10199000013C1BF0020F02D0B9F1000F04D01BF084
:1019A000010F01D17CBB002408990029BCDB002F6A
:1019B00035DA7F422D2105A8FFF7BEFE08990029E0
:1019C000B2DB0BF00301022904D1B9F1000F01D100
:1019D00054BB002408990029A6DBCDE9004B4B46F7
:1019E0000A22394605A8FFF7C5FE9DE72B681A1D98
:1019F00019782A6005A8FFF79FFE95E708F101080E
:101A0000B1FBF0F1B9E7A045CED2202105A8FFF740
:101A100093FE0899002904F1FF34C3DAC4E71BF0F0
:101A2000040FCED02B21C6E7A045D3D2302105A884
:101A3000FFF782FE0899002904F1FF34C8DAC9E7EC
:101A40002968081D2860CDE9004B4B460A22096829
:101A5000C8E72968081D2860CDE9004B4B461022D5
:101A6000F5E72B681A1D2A601C6814F8011B002971
:101A70003FF45AAF05A8FFF75FFE089B002BF4DA8E
:101A800052E729680B1D2B6000220823CDE90032A4
:101A9000E5E7079C24B1039822465146FFF7BCFDB9
:101AA0002C440894E5E600BF0EB403B503AB01AACD
:101AB00053F8041B0193FFF7C5FE02B05DF804EB79
:101AC00003B0704770470000F0B5044685B00D467E
:101AD00016461F460A4805F0D1FA20280CD14FF0CF
:101AE000FF33CDE90173009601232A4621460448BD
:101AF00005F008F905B0F0BD0A2004F06DFAE9E739
:101B0000B0290020F0B5044685B00D4616461F46A4
:101B10000D4805F0B3FA2028FAD14FF0FF33CDE994
:101B200001732A46084800960123214605F05AF819
:101B3000054D4FF0FF3301222146284605F0EAF912
:101B40000028F6D105B0F0BDB029002008B51388F3
:101B5000054A13800246A020FFF7B6FF10B1FFF739
:101B6000B1FF012008BD00BFA20600200A464FF4C5
:101B700096730146014805F0CDB900BFB029002099
:101B800013460B4A10B513700246A020FFF7BAFFA8
:101B9000044610B1FFF796FF012440F6B831A020AB
:101BA000FFF7E4FF10B1FFF78DFF0124204610BDC1
:101BB000A00600202DE9F84F11F00F0705460C464E
:101BC0001646C2F307185FFA82FA02F00F0B1DD116
:101BD000B8F1000F01D15A462FE0102221462846C5
:101BE000FFF7CEFF60B908F1FF38103418F0FF0896
:101BF000A4B205F11005F0D1BBF1000F02D1002015
:101C0000BDE8F88F5A462146284616E05FFA87F964
:101C1000C7F11007FFB2B8F1000F12D19742DAD224
:101C20003A46FFF7ADFF0028EAD1AAF1100A09EB06
:101C30000A023919D2B289B2E819BDE8F84FFFF7A4
:101C40009FBF3A46FFF79CFF0028D9D1F61B3D44C1
:101C50003C441FFA86F8641B06F47F662E44A4B247
:101C60002919B54289B203D118F00F02C7D0CBE7CA
:101C700010222846FFF784FF0028C1D11035EFE776
:101C8000054B0A4619688B689B07FCD501466423FF
:101C9000014805F0CFBF00BF6C28002007B5084BF6
:101CA0008DF807001A6893689B07FCD5642301220E
:101CB0000DF10701024805F0BDFF03B05DF804FB1C
:101CC0006C28002008B5074B1B78012B04D106486F
:101CD0000022042104F0ECFCBDE80840012004F0DF
:101CE0007BB900BF0E000020000C024008B5064B77
:101CF0001A78012A03D10548042104F0D9FCBDE873
:101D00000840012004F068B90E000020000C0240D9
:101D10001FB5FF238DF80E30094B1A6893689B0797
:101D2000FCD5642300930DF10F0201230DF10E0188
:101D3000034806F02CF89DF80F0005B05DF804FB91
:101D40006C28002013B5FFF7D1FF0A24FF20FFF70E
:101D5000A5FF013CFAD1FFF7B5FF40230093062110
:101D60004FF415436846ADF80430FFF789FF4FF490
:101D70000054FFF7CDFF012809D1FFF7B7FFFF207F
:101D8000FFF78CFF034B01221A7002B010BD013C1B
:101D9000EFD1F2E7A406002010B5064C4FF4FA7319
:101DA0002380FFF7B5FFFF2802D02388002BF8D14E
:101DB00010BD00BFA606002070B506460D46FFF711
:101DC000EBFFFF284FF0000423D12846FFF766FF02
:101DD000FD2D18D04FF400713046FFF751FFFFF78B
:101DE00097FFFFF795FF4125FFF792FF00F01F03D4
:101DF000052B044603D0013D15F0FF05F4D1FFF794
:101E000087FF0028FBD004F01F04631F584258418D
:101E100070BD2046FCE738B504460D46FFF7BCFF11
:101E2000FF2828D12046FFF739FF280EFFF736FF9D
:101E3000C5F30740FFF732FFC5F30720FFF72EFF7A
:101E4000E8B2FFF72BFF402C13D0482C14BF012021
:101E50008720FFF723FF4C2C01D1FFF759FF0A24FD
:101E6000FFF756FF030603D5013C14F0FF04F7D13A
:101E700038BD9520EDE7FF20FAE7000070B50F4D63
:101E8000C82304460E462B80FFF742FFFF2803D1EC
:101E900028880028F8D170BDFE280DD1651E344475
:101EA000FFF736FF05F8010FA542F9D1FFF730FF24
:101EB000FFF72EFF0120EEE70020ECE7A806002048
:101EC0002DE9F341002840F09D804F4E357815F004
:101ED000020504D03078C0B202B0BDE8F081FFF74F
:101EE00031FFFFF7EFFE29464020FFF794FF01285E
:101EF00004460DD00024454B1C70FFF7F7FEFFF79A
:101F000007FF002C7BD0337803F0FE033370E1E74A
:101F10003F4F4FF47A734FF4D57148203B80FFF761
:101F20007AFF01283DD101ADA8460424FFF7F0FE59
:101F3000013C14F0FF0408F8010BF7D19DF80630BE
:101F4000012BD7D19DF80730AA2BD3D100217720C0
:101F5000FFF761FF012803D93B88002BF6D1C9E7C1
:101F60004FF080416920FFF756FF01460028F3D16A
:101F70003B88002BBED07A20FFF74DFF0028B9D157
:101F80000424FFF7C5FE013C14F0FF0405F8010B23
:101F9000F7D19DF8043013F0400F0CBF04240C243B
:101FA000A9E729467720FFF736FF012806D82946FA
:101FB0006920FFF730FF012898BF0224022C4FF060
:101FC00000011AD17720FFF726FF012803D93B88AB
:101FD000002BF3D18EE700216920FFF71CFF0028BA
:101FE000F5D13B88002B85D04FF400715020FFF7CE
:101FF00012FF00287FF47EAF7DE74120EDE7054B1F
:102000001C7067E7012067E700000020A50600209C
:10201000A8060020A406002018B9034B1878C0B207
:1020200070470120704700BF0000002070B50E46C9
:1020300015461C46002837D1002B35D01C4B1B7889
:10204000DA0733D41B4B1B785B0758BF6D02FFF7D1
:1020500039FE012C294613D15120FFF7DCFE38B997
:102060004FF400713046FFF709FFB0FA80F46409BD
:10207000FFF73CFEFFF74CFE201E18BF012070BD8D
:102080005220FFF7C8FE0028F2D14FF4007130460D
:10209000FFF7F4FE18B1013C06F50076F5D10021FA
:1020A0004C20FFF7B8FEE3E70420E8E70320E6E76B
:1020B00000000020A5060020F8B50D4616461C4677
:1020C000002847D1002B45D0254B1A78D00743D4A0
:1020D0001B78590742D4234F3B785A0758BF7602E2
:1020E000FFF7F0FD012C13D131465820FFF793FE86
:1020F00070BBFE212846FFF75FFEB0FA80F464094A
:10210000FFF7F4FDFFF704FE201E18BF0120F8BD05
:102110003B789B0707D500217720FFF77CFE2146FF
:102120005720FFF778FE31465920FFF774FE00284C
:10213000E6D1FC212846FFF73FFE18B1013C05F52A
:102140000075F6D1FD210020FFF736FE0028D7D11B
:102150000124D5E70420DAE70320D8E70220D6E7F8
:1021600000000020A50600207FB50E461546044657
:10217000002840F08F80052913D11378012B09D056
:10218000022B0AD0002B40F08580444B187020466B
:1021900004B070BDFFF7D6FDF9E7404B1B785370D4
:1021A000F5E73F4B1C7814F0010475D1FFF78AFD69
:1021B0000D2E6DD8DFE806F04807446C6C6C6C6C33
:1021C0006C6C6C4F5D6000214920FFF724FE28B144
:1021D0000124FFF78BFDFFF79BFDD8E71021684630
:1021E000FFF74CFE0028F3D09DF800109DF8093051
:1021F0009DF808208909012906D1013303EB022348
:102200009BB29B022B60E4E79DF807109DF80A0043
:10221000920902EB81029DF80610890201F44061E7
:1022200001320A449DF805105B0001F00F0101EB3B
:10223000D01103F006030B44073B02FA03F3E1E776
:102240004FF400732B80C4E7FFF7A6FDB0F1FF0445
:1022500018BF0124BDE700214920FFF7DCFD00285D
:10226000B6D110212846FFF709FEB0FA80F46409C0
:10227000AFE700214A20F0E700217A20FFF7CBFDED
:1022800030B92C1DFFF744FD05F8010BAC42F9D124
:1022900004249EE704247AE7032478E7A4060020B8
:1022A0000000002030B5144987B0044611221348BD
:1022B0000AF0EAF80546E0B9214611480BF002F8A9
:1022C0006B46122201A90D480AF07AFA0B480AF06F
:1022D0002EFD01A90B488DF815500AF0F3FF1222CC
:1022E000214601A8FFF766FC2146024606480AF08F
:1022F000E9FF07B030BD00BF39EE0108B00600208D
:102300003FEE010879EE010883EE010810B5094B94
:102310001B7898B004465D2253B9074968460BF014
:10232000A5FC5D222146684603F084F918B010BD73
:102330000249F3E7292A002030EF01088DEF010858
:1023400030B52D4C9BB0054601462C480AF0BAFF2B
:102350002B49112220460AF097F801AB02A90F225F
:1023600020460AF02DFA20460AF0E1FC2549112208
:1023700020460AF089F801AB0DF117010F22204623
:102380000AF01EFA20460AF0D2FC1F49112220460C
:102390000AF07AF801AB0DF126010F2220460AF06F
:1023A0000FFA20460AF0C3FC1849112220460AF011
:1023B0006BF801AB0DF135010F2220460AF000FA4F
:1023C00020460AF0B4FC1249112220460AF05CF8BB
:1023D0002246212111A80AF04CFE20460AF0A7FC53
:1023E00002A90C480AF06EFF5D22294602A803F0FC
:1023F00021F91BB030BD00BFB0060020EAEF010894
:10240000F0EE0108F8EE010800EF010808EF0108FE
:1024100010EF010822F00108F0B59DB001465D22E1
:1024200004A803F01DF804A90F226E486E4F6F4EEA
:102430006F4D704C0BF0E4FC0DF11F010F226E4844
:102440000BF0DEFC0DF12E010F226C480BF0D8FCD6
:102450000DF13D010F226A480BF0D2FC04A90322C2
:1024600003A80BF0CDFC03A80BF0F2FD05A9387012
:10247000032203A80BF0C4FC03A80BF0E9FD06A996
:102480007870032203A80BF0BBFC03A80BF0E0FD5F
:1024900007A9B870032203A80BF0B2FC03A80BF045
:1024A000D7FD0DF11F01F870032203A80BF0A8FC63
:1024B00003A80BF0CDFD0DF123013070032203A81A
:1024C0000BF09EFC03A80BF0C3FD0DF1270170700B
:1024D000032203A80BF094FC03A80BF0B9FD0DF147
:1024E0002B01B070032203A80BF08AFC03A80BF0A9
:1024F000AFFD0DF12E01F070032203A80BF080FC5C
:1025000003A80BF0A5FD0DF132012870032203A8EA
:102510000BF076FC03A80BF09BFD0DF13601687003
:10252000032203A80BF06CFC03A80BF091FD0DF146
:102530003A01A870032203A80BF062FC03A80BF079
:1025400087FD0DF13D01E870032203A80BF058FC54
:1025500003A80BF07DFD0DF141012070032203A8BB
:102560000BF04EFC03A80BF073FD0DF145016070FC
:10257000032203A80BF044FC03A80BF069FD0DF146
:102580004901A070032203A80BF03AFC03A80BF04A
:102590005FFD13A9E07020221A480BF031FCFB7894
:1025A0000093BB787A78397817480AF08BFEF37875
:1025B0000093B3787278317814480AF083FEEB7890
:1025C0000093AB786A78297811480AF07BFEE378AB
:1025D0000093A378627821780E480AF073FE1DB04C
:1025E000F0BD00BF51000020772700204A270020BF
:1025F000732700206F2700204100002031000020B9
:10260000210000204E27002033F001084AF0010885
:1026100061F0010878F00108F0B5054685B00B4877
:102620000BF070FA0A4B6A4603F110071646186859
:102630005968144603C40833BB422246F7D110221E
:102640002946304602F0F6FF05B0F0BD8FF00108D4
:10265000A4F00108F0B589B01022054600216846B3
:102660000BF0E2FD0D4B04AA03F1100716461868A3
:102670005968144603C40833BB422246F7D12946A1
:102680001022684602F0ECFE0F22314668460BF03D
:10269000A5FB003818BF012009B0F0BD29EE0108E4
:1026A00030B58C4C8C488D4D8DB002F077F98C494B
:1026B0001122204609F0E8FE2246102103A80AF064
:1026C000D8FC03A987480AF0F5FD03A9032202A854
:1026D0000BF096FB02A80BF0BBFC04A928700322A8
:1026E00002A80BF08DFB02A80BF0B2FC05A96870E4
:1026F000032202A80BF084FB02A80BF0A9FC06A998
:10270000A870032202A80BF07BFB02A80BF0A0FC30
:10271000E870C0B20090AB786A7829787248734D3F
:102720000AF0D0FD20460AF002FB71491122204632
:1027300009F0AAFE2246102103A80AF09AFC03A978
:102740006C480AF0B7FD03A9032202A80BF058FB5E
:1027500002A80BF07DFC04A92870032202A80BF04C
:102760004FFB02A80BF074FC05A96870032202A8B5
:102770000BF046FB02A80BF06BFC06A9A870032225
:1027800002A80BF03DFB02A80BF062FCE870C0B29F
:102790000090AB786A7829785748584D0AF092FD36
:1027A00020460AF0C4FA56491122204609F06CFE70
:1027B0002246102103A80AF05CFC03A951480AF044
:1027C00079FD03A9032202A80BF01AFB02A80BF063
:1027D0003FFC04A92870032202A80BF011FB02A8F9
:1027E0000BF036FC05A96870032202A80BF008FB69
:1027F00002A80BF02DFC06A9A870032202A80BF07A
:10280000FFFA02A80BF024FCE870C0B20090AB788D
:102810006A7829783C483D4D0AF054FD20460AF07C
:1028200086FA3B491122204609F02EFE224610214D
:1028300003A80AF01EFC03A936480AF03BFD03A9D1
:10284000032202A80BF0DCFA02A80BF001FC04A999
:102850002870032202A80BF0D3FA02A80BF0F8FBB1
:1028600005A96870032202A80BF0CAFA02A80BF0AF
:10287000EFFB06A9A870032202A80BF0C1FA02A878
:102880000BF0E6FBE870C0B20090AB786A7829786C
:102890002148224D0AF016FD20460AF048FA204948
:1028A0001122204609F0F0FD2246212103A80AF05A
:1028B000E0FB202203A928460BF0A2FA20460AF0EA
:1028C00036FA00232946174885F820300AF0FAFC2A
:1028D0000DB030BDB0060020B4F00108772700200D
:1028E000F0EE01085100002033F001084A270020D3
:1028F000F8EE0108410000204AF00108732700208B
:1029000000EF01083100002061F001086F2700206E
:1029100008EF01082100002078F001084E27002070
:1029200010EF0108D1F0010808B51149114807F06E
:1029300085FB1149114807F081FB1149114807F047
:102940007DFB1149114807F079FB1149114807F047
:1029500075FB1149114807F071FB1149114807F047
:102960006DFBBDE808401049104807F067BB00BF89
:10297000EB4A020855060208130B02080CEE010888
:10298000C2690208DBF0010851000020F0EE0108E6
:1029900041000020F8EE01083100002000EF01089E
:1029A0002100002008EF01080F000020E5F00108D9
:1029B00010B5002204464FF400711C4803F078FE65
:1029C000462003F009FB01224FF40071174803F081
:1029D0006FFE462003F000FB03F016FA144B154976
:1029E0001A689B888B80144B0A601B68C1F80630FC
:1029F000124B1B68C1F80E30114B00201B68C1F848
:102A00000A3006F09FFF0F4A00231288012120465A
:102A100006F034F9204606F0C3F9012805D1214615
:102A20000948BDE810400AF04DBC10BD0008024046
:102A3000442700200401002077270020732700206E
:102A40006F2700200A000020EDF0010838B5054688
:102A5000012209F019FD2C6928460AF068F9B4FA38
:102A600084F04009800038BD10B518491848FFF7B8
:102A7000EDFFD8B917491648FFF7E8FFB0B9164976
:102A80001348FFF7E3FF88B914491148FFF7DEFF49
:102A900060B913490E48FFF7D9FF38B911480BF058
:102AA00031F8BDE810400A480AF041B90E4B0F4812
:102AB0000024012204211C7003F0FAFD0C48224678
:102AC000042103F0F5FD0B48E9E700BFF0EE010833
:102AD000B0060020F8EE010808EF010800EF010839
:102AE00010EF010809F101080E000020000C02405F
:102AF000001002403DF1010808B5054801220421FB
:102B000003F0D6FDBDE80840024802F089BC00BFD2
:102B1000000C02406C28002038B5324B1B780BBBF0
:102B2000314D2B787BB94FF4D070FFF793FD0446FD
:102B300048B92E480AF0E6FF2046FFF7E7FB4FF4BE
:102B4000D070FFF769FD2B78012B06D1FFF7A8FDA8
:102B5000BDE838400020FFF7F3BBBDE83840002057
:102B6000FFF75ABC0020FFF7D1FB0020FFF754FC11
:102B700001224FF480511E4803F09AFD642003F0B7
:102B80002BFA00224FF48051194803F091FD642084
:102B900003F022FA01224FF48051154803F088FD1A
:102BA000642003F019FA00224FF48051104803F01A
:102BB0007FFD642003F010FA01224FF480510C488D
:102BC00003F076FD642003F007FA094800224FF471
:102BD000805103F06DFD642003F0FEF9BDE838403C
:102BE00003F060BA042A00200E00002071F10108F1
:102BF000000C0240024A00231288022106F03EB86F
:102C00000800002008B501220A48082103F050FD01
:102C1000094B01225978043281F0FB01312A5970A5
:102C200003F10403F6D1BDE8084002480022082160
:102C300003F03EBD000C02401810001008B5012240
:102C40000A48082103F034FD094B01225978043267
:102C500081F0FB01312A597003F10403F6D1BDE87C
:102C6000084002480022082103F022BD000C024067
:102C70004810001037B5054603F0A8F92F4B30492E
:102C80001B88009304462F4B3022284606F002FA98
:102C900003F09CF904F5FA74A0420AD200222A48F3
:102CA0004FF4804103F004FD284B00221A7003B05A
:102CB00030BD274C274894F900100AF003FB224846
:102CC00000224FF4805103F0F3FC1F4800224FF420
:102CD000004103F0EDFC01224FF480411A4803F05B
:102CE000E7FC642003F078F900224FF48041164895
:102CF00003F0DEFC642003F06FF901224FF4804101
:102D0000114803F0D5FC642003F066F900224FF46B
:102D100080410D4803F0CCFC642003F05DF90E48BF
:102D200004F0D6F92378013B5BB2002B2370BEDAA6
:102D300003B0BDE8304003F0B5B900BF0800002083
:102D4000610000204A270020000C02400D000020F6
:102D50000C00002081F10108A429002008B50548D5
:102D60000AF0D0FE002007F059F9BDE8084003F052
:102D700099B900BFADF1010810B5234B8AB0B3F883
:102D8000A51093F8A720ADF8081020498DF80A2067
:102D900004460022D3F8A1000190CDE90412D3F833
:102DA000AB00D3F8AF10ADF80B208DF80D20ADF8C7
:102DB000182007AA03C20534B3F8B330138001A961
:102DC0002046FEF7ADFA48B104A92046FEF7A8FA5E
:102DD00020B107A92046FEF7A3FA78B90C480AF0FB
:102DE00091FE0C4B002207A920461A70FEF798FAB4
:102DF00010B9094B02221A700AB010BD07480AF038
:102E000081FE074B0122F6E70CEC01087573657231
:102E1000C3F101080600002005000020CCF10108E4
:102E2000052A002038B50F4C0F492378022B08BF24
:102E300000234FF0200200F1080008BF23700AF0C1
:102E4000CDFF054620B9094801F0A8FD257038BD21
:102E5000074801F0A3FD2378012B04BF054A137036
:102E6000F5E700BF050000204E270020DFF1010834
:102E7000EDF10108052A00202DE9F04701468EB04A
:102E800004469F480AF01EFA0023E25C2E2A03F152
:102E90000107DBB205D038336B4403F8182C3B46EE
:102EA000F3E7032B18D1BDF820209DF82230ADF8B0
:102EB00010208DF8123004A80BF0CAF83D46C6B2B7
:102EC000625DEB1B2E2ADBB205F1010519D0383308
:102ED0006B4403F8182CF3E7022B09D130238DF84B
:102EE00010309DF820308DF811309DF82130E0E74A
:102EF000012BE0D143F23003ADF810309DF82030C3
:102F0000D7E7032B1AD1BDF820209DF82230ADF869
:102F100014208DF8163005A80BF09AF8AA46C7B20F
:102F200014F80A20AAEB05032E2ADBB20AF1010AE3
:102F300019D038336B4403F8182CF1E7022B09D170
:102F400030238DF814309DF820308DF815309DF821
:102F50002130DEE7012BDED143F23003ADF814302F
:102F60009DF82030D5E7032B1DD1BDF820209DF81A
:102F70002230ADF818208DF81A3006A80BF068F84A
:102F800004EB0A0580465FFA80F9002415F8013B3E
:102F9000621CE4B2E3B104F138010DEB010404F862
:102FA000183C1446F2E7022B09D130238DF8183073
:102FB0009DF820308DF819309DF82130DBE7012B8A
:102FC000DBD143F23003ADF818309DF82030D2E762
:102FD000032C1ED1BDF820209DF82230ADF81C2016
:102FE0008DF81E30474C07A80BF032F82378B34217
:102FF000C0B223D16378BB4220D1A3784B451DD109
:10300000E37883421AD140480AF07CFD0EB0BDE857
:10301000F087022C09D130238DF81C309DF8203028
:103020008DF81D309DF82130DAE7012CDAD143F21A
:103030003003ADF81C309DF82030D1E7E0702670E9
:10304000677084F802905FFA88F300903A462F4840
:1030500031460AF037F92E4B1D78012D37D12D4915
:103060002D48122209F010FA0028CFD12B480AF07F
:1030700049FD0A2304A903220AA88DF80C302E2446
:103080000AF0BEFE05A903220BA88DF82B400AF01A
:10309000B7FE06A903220CA88DF82F400AF0B0FE57
:1030A00007A903220DA88DF833400AF0A9FE2A468D
:1030B00003A90DF137000AF0A3FE09AB10220AA9FB
:1030C000154809F053FC144809F031FE9EE71448F6
:1030D0000AF018FD0322002104A802F0ABFA032233
:1030E000042105A802F0A6FA0322082106A802F08E
:1030F000A1FA03220C2107A802F09CFA86E700BF80
:1031000000F201087727002012F2010834F20108CA
:103110000E000020F0EE0108B00600204FF201087A
:1031200075F201082DE9F04300238FB00446E25CFC
:103130002E2A03F10106DBB205D038336B4403F8C5
:10314000182C3346F3E7032B18D1BDF820209DF847
:103150002230ADF810208DF8123004A80AF078FF64
:103160003746C5B2E25DBB1B2E2ADBB207F1010771
:1031700019D038336B4403F8182CF3E7022B09D12C
:1031800030238DF810309DF820308DF811309DF8E7
:103190002130E0E7012BE0D143F23003ADF81030ED
:1031A0009DF82030D7E7032B1AD1BDF820209DF8D9
:1031B0002230ADF814208DF8163005A80AF048FF2B
:1031C000B946C6B214F80920A9EB07032E2ADBB2D0
:1031D00009F1010919D038336B4403F8182CF1E7D1
:1031E000022B09D130238DF814309DF820308DF852
:1031F00015309DF82130DEE7012BDED143F230039C
:10320000ADF814309DF82030D5E7032B1DD1BDF863
:1032100020209DF82230ADF818208DF81A3006A82D
:103220000AF016FF04EB090207465FFA80F8002453
:1032300012F8013B611CE4B2E3B104F138000DEB7C
:10324000000404F8183C0C46F2E7022B09D13023A5
:103250008DF818309DF820308DF819309DF8213008
:10326000DBE7012BDBD143F23003ADF818309DF8DA
:103270002030D2E7032C1ED1BDF820209DF822304B
:10328000ADF81C208DF81E30454C07A80AF0E0FE72
:103290002378AB42C0B223D16378B34220D1A37864
:1032A00043451DD1E37883421AD13E480AF02AFCF7
:1032B0000FB0BDE8F083022C09D130238DF81C300B
:1032C0009DF820308DF81D309DF82130DAE7012C73
:1032D000DAD143F23003ADF81C309DF82030D1E74D
:1032E0002570E070667084F80280FBB20090294679
:1032F0002D48324609F0E6FF2C4B1D78012D37D1C1
:103300002B492C48122209F0BFF80028D0D12A48B6
:103310000AF0F8FB0A2304A903220AA88DF80C304E
:103320002E240AF06DFD05A903220BA88DF82B4071
:103330000AF066FD06A903220CA88DF82F400AF0BA
:103340005FFD07A903220DA88DF833400AF058FD50
:103350002A4603A90DF137000AF052FD09AB1022ED
:103360000AA9144809F002FB124809F0E0FC9FE7A3
:1033700012480AF0C7FB03222D2104A802F05AF9D3
:103380000322312105A802F055F90322362106A8AF
:1033900002F050F903223A2107A802F04BF987E71F
:1033A0006F2700209FF20108C0F201080E000020E4
:1033B00008EF0108B0060020DBF2010801F3010864
:1033C0002DE9F04300238FB00446E25C2E2A03F17E
:1033D0000106DBB205D038336B4403F8182C3346B2
:1033E000F3E7032B18D1BDF820209DF82230ADF86B
:1033F00010208DF8123004A80AF02AFE3746C5B214
:10340000E25DBB1B2E2ADBB207F1010719D038336E
:103410006B4403F8182CF3E7022B09D130238DF805
:1034200010309DF820308DF811309DF82130E0E704
:10343000012BE0D143F23003ADF810309DF820307D
:10344000D7E7032B1AD1BDF820209DF82230ADF824
:1034500014208DF8163005A80AF0FAFDB946C6B258
:1034600014F80920A9EB07032E2ADBB209F10109A0
:1034700019D038336B4403F8182CF1E7022B09D12B
:1034800030238DF814309DF820308DF815309DF8DC
:103490002130DEE7012BDED143F23003ADF81430EA
:1034A0009DF82030D5E7032B1DD1BDF820209DF8D5
:1034B0002230ADF818208DF81A3006A80AF0C8FDA1
:1034C00004EB090207465FFA80F8002412F8013B7A
:1034D000611CE4B2E3B104F138000DEB000404F820
:1034E000183C0C46F2E7022B09D130238DF8183036
:1034F0009DF820308DF819309DF82130DBE7012B45
:10350000DBD143F23003ADF818309DF82030D2E71C
:10351000032C1ED1BDF820209DF82230ADF81C20D0
:103520008DF81E30454C07A80AF092FD2378AB4277
:10353000C0B223D16378B34220D1A37843451DD1D3
:10354000E37883421AD13E4801F028FA0FB0BDE873
:10355000F083022C09D130238DF81C309DF82030E7
:103560008DF81D309DF82130DAE7012CDAD143F2D5
:103570003003ADF81C309DF82030D1E72570E070A5
:10358000667084F80280FBB2009029462D483246CE
:1035900009F098FE2C4B1D78012D37D12B492C4872
:1035A000122208F071FF0028D0D12A480AF0AAFAA6
:1035B0000A2304A903220AA88DF80C302E240AF04D
:1035C0001FFC05A903220BA88DF82B400AF018FC5C
:1035D00006A903220CA88DF82F400AF011FC07A9B8
:1035E00003220DA88DF833400AF00AFC2A4603A9ED
:1035F0000DF137000AF004FC09AB10220AA91448A7
:1036000009F0B4F9124809F092FB9FE712480AF05A
:1036100079FA03221E2104A802F00CF803222221C9
:1036200005A802F007F80322262106A802F002F8F6
:1036300003222A2107A801F0FDFF87E77327002056
:103640002BF301084EF301080E00002000EF0108E3
:10365000B006002069F301088FF301082DE9F0435B
:1036600000238FB00446E25C2E2A03F10106DBB290
:1036700005D038336B4403F8182C3346F3E7032B9B
:1036800018D1BDF820209DF82230ADF810208DF81B
:10369000123004A80AF0DCFC3746C5B2E25DBB1B61
:1036A0002E2ADBB207F1010719D038336B4403F837
:1036B000182CF3E7022B09D130238DF810309DF838
:1036C00020308DF811309DF82130E0E7012BE0D15A
:1036D00043F23003ADF810309DF82030D7E7032BCC
:1036E0001AD1BDF820209DF82230ADF814208DF8B5
:1036F000163005A80AF0ACFCB946C6B214F8092089
:10370000A9EB07032E2ADBB209F1010919D03833DE
:103710006B4403F8182CF1E7022B09D130238DF804
:1037200014309DF820308DF815309DF82130DEE7FB
:10373000012BDED143F23003ADF814309DF8203078
:10374000D5E7032B1DD1BDF820209DF82230ADF820
:1037500018208DF81A3006A80AF07AFC04EB09024A
:1037600007465FFA80F8002412F8013B611CE4B2BE
:10377000E3B104F138000DEB000404F8183C0C46EA
:10378000F2E7022B09D130238DF818309DF8203054
:103790008DF819309DF82130DBE7012BDBD143F2A6
:1037A0003003ADF818309DF82030D2E7032C1ED13D
:1037B000BDF820209DF82230ADF81C208DF81E3079
:1037C000454C07A80AF044FC2378AB42C0B223D191
:1037D0006378B34220D1A37843451DD1E378834277
:1037E0001AD13E4801F0DAF80FB0BDE8F083022CA0
:1037F00009D130238DF81C309DF820308DF81D3014
:103800009DF82130DAE7012CDAD143F23003ADF82C
:103810001C309DF82030D1E72570E070667084F888
:103820000280FBB2009029462D48324609F04AFD3D
:103830002C4B1D78012D37D12B492C48122208F032
:1038400023FE0028D0D12A480AF05CF90A2304A9F3
:1038500003220AA88DF80C302E240AF0D1FA05A90B
:1038600003220BA88DF82B400AF0CAFA06A90322FE
:103870000CA88DF82F400AF0C3FA07A903220DA85F
:103880008DF833400AF0BCFA2A4603A90DF137003F
:103890000AF0B6FA09AB10220AA9144809F066F832
:1038A000124809F044FA9FE712480AF02BF9032264
:1038B0000F2104A801F0BEFE0322132105A801F088
:1038C000B9FE0322172106A801F0B4FE03221B2132
:1038D00007A801F0AFFE87E74A270020B9F30108E7
:1038E000DCF301080E000020F8EE0108B00600200D
:1038F000F7F301081DF4010810B501460446174806
:1039000009F0E0FC16480AF0FDF8164B1B78012B75
:1039100019D115491548122208F0B6FDE8B9144826
:103920000AF0F0F800220023104809F011FA0F49BC
:10393000204609F0C3FB0D4809F04CF9BDE81040E2
:103940000A4809F0F4B90B480AF0DCF820462122B5
:10395000BDE810403C2101F06DBE10BD47F40108E8
:10396000AD0402080E00002010EF0108B006002090
:103970005FF4010881F40108F7B5144F04460D46C1
:10398000134816460821012202F092FE3B7833B913
:10399000104900962B463022204605F07BFB3B78F1
:1039A000012B06D10C4900962B463022204605F00B
:1039B00071FB07480022082102F07AFE282114201A
:1039C00003B0BDE8F04001F061B900BF292A002032
:1039D000000C024078100010181000102DE9F04182
:1039E00088B0824FADF816200646884602F0EEFAFF
:1039F0003A687F4B0132984204463A603FD942F21E
:103A00001073B2FBF3F003FB1020002837D1794983
:103A1000794D0B68B4FBF5F501330B60774BB4FBC4
:103A2000F3F81823B5FBF3F103FB11553C234EF6D5
:103A30006026B4FBF6F6B6FBF3F103FB11664FF418
:103A40007A71B4FBF1F4B4FBF3F103FB11446C4B5A
:103A50001B7833B1CDE901646A4900954346FEF70E
:103A600023F8CDE900642B4639686648424600F0E9
:103A700077FF3B6801333B6008B0BDE8F081624CE2
:103A800062480122102102F013FE237843B90DF1A0
:103A9000160300935E4943463022304605F0A2FBF0
:103AA0002578012D40F097800DF1160359490093B8
:103AB00030224346304605F095FB564800F0B0FFF3
:103AC000044600283AD12A464FF480414F4802F07C
:103AD000EFFD642002F080FA22464FF480414B480B
:103AE00002F0E6FD642002F077FA2A464FF48041A6
:103AF000464802F0DDFD642002F06EFA22464FF4E3
:103B00008041424802F0D4FD642002F065FA2A4662
:103B10004FF480413D4802F0CBFD642002F05CFA96
:103B200022464FF48041394802F0C2FD642002F081
:103B300053FA394809F0E6FFFFF710F9354800F06D
:103B40006FFF0128044646D102464FF480412F48BA
:103B500002F0AEFD642002F03FFA00224FF48041F3
:103B60002A4802F0A5FD642002F036FA22464FF4FE
:103B70008041264802F09CFD642002F02DFA0022CC
:103B80004FF48041214802F093FD642002F024FAB2
:103B900022464FF480411D4802F08AFD642002F065
:103BA0001BFA00224FF48041184802F081FD642086
:103BB00002F012FA194809F0A5FF882322464FF4B3
:103BC000407107A88DF81C3001F034FD144809F04D
:103BD00099FFFFF7C3F80D480022102102F068FD9D
:103BE0002821142001F072F846E700BF1C2A0020AB
:103BF000A0860100182A002080EE3600005C260511
:103C0000162A0020A7F40108292A0020000C0240EF
:103C1000A810001048100010DAF40108FDF40108A3
:103C200028F501082DE9F0437C4E337885B0044631
:103C3000E3B97B4D2B78002B37D102F0C7F941F265
:103C40008733984212D801F003F878B9754809F023
:103C500059FF0122FF234FF4407103A82A708DF809
:103C60000C3001F0E7FC704809F04CFF3578012D6D
:103C70001BD16E4F3B78C3B902F0A8F941F28733EC
:103C8000984212D800F0E4FF78B9664809F03AFF8C
:103C9000FF232A464FF4407103A83D708DF80C3085
:103CA00001F0C8FC604809F02DFF61484FF4004165
:103CB00002F0F8FC0128054640F08B815D484FF486
:103CC000804102F0FAFC3778002F40F038815A48E2
:103CD000DFF89C812A46202102F0EAFC56483A4649
:103CE000202102F0E5FC53482A46202102F0E0FCA6
:103CF0004FF48053514A524900935248302304F004
:103D000046F84C483A46202102F0D2FC4E482A465A
:103D10004FF4807102F0CCFC4B483A464FF480716E
:103D200002F0C6FC4949454800F054FF98F80030BD
:103D30005BB1424800F0A2FE444800F0F7FE3F4865
:103D400000F0C8FE3D4800F019FF41493F48414D91
:103D5000414F00F04EFF414A002800F08B802B6855
:103D600001332B6098F800304FF0000982F8009082
:103D700053B10620FDF79EFC2A6839494846FDF7F5
:103D800093FE4846FDF796FC2A6846F678139A4259
:103D900077D13B88334900933022334B204605F0DE
:103DA00079F9324809F0AEFE01224FF480412148F2
:103DB00002F07EFC642002F00FF900224FF48041F3
:103DC0001C4802F075FC642002F006F901224FF451
:103DD0008041184802F06CFC642002F0FDF80022DB
:103DE0004FF48041134802F063FC642002F0F4F8C1
:103DF00001224FF480410F4802F05AFC642002F087
:103E0000EBF800224FF480410A4802F051FC642094
:103E100002F0E2F8FEF7A2FF33E000BF292A0020FB
:103E2000152A002042F5010853F50108142A002044
:103E300000040240000C024000080240781000100C
:103E4000A8100010C4280020000002400C10001030
:103E500000100010102A0020080000200C2A00206A
:103E60006EF50108C10000204A27002080F50108F6
:103E7000162A002013780133DBB2642B137083D130
:103E80002860554B1D78012D4FD1DFF8749199F8BA
:103E90000080B8F1000F48D13B8850490093302290
:103EA0004F4B042005F0F6F84E4809F02BFE2A4649
:103EB0004FF480414C4802F0FBFB642002F08CF888
:103EC00042464FF48041484802F0F2FB642002F081
:103ED00083F82A464FF48041434802F0E9FB64200E
:103EE00002F07AF842464FF480413F4802F0E0FB8E
:103EF000642002F071F82A464FF480413A4802F0FB
:103F0000D7FB642002F068F842464FF480413648FF
:103F100002F0CEFB642002F05FF84FF47A7089F86B
:103F2000005002F059F801F01DF83A882C4920465B
:103F3000FFF722FD3A882A492046FFF74FFD3578E2
:103F4000012D46D1FEF77AFE28482A46202102F0AC
:103F5000AFFB26480022202102F0AAFB22482A4675
:103F6000202102F0A5FB4FF48053214A2149009300
:103F70002148302303F00BFF1B480022202102F0D0
:103F800097FBFEF73FFE1D482A464FF4807102F072
:103F90008FFB1A4800224FF4807102F089FB0E4B10
:103FA0001B7843B9164B1B78012B04D1154809F037
:103FB000A9FD00F0E9FE144D09492A882046FFF7C3
:103FC0000DFD2A880649204605B0BDE8F043FFF7FD
:103FD000D3BC05B0BDE8F083152A00209100002075
:103FE0004A270020A3F50108000C02400008024007
:103FF0001810001048100010C428002000000240D3
:10400000142A0020D1F5010808000020F0B5144B57
:1040100085B06D46044603F110072A4618685968B2
:104020002E4603C60833BB423546F7D11346114628
:1040300025780022104611F8016BB54208BF8018A0
:104040001032B2F5807FF6D16178002213F8014B6F
:10405000A14208BF80180132102AF7D105B0F0BD87
:10406000F9F501082DE9F04712248AB00DEB04029E
:10407000014605A8ADF81240FDF768FD224605A9E6
:104080002D48DFF8BCA009F0BBFE05A9022204A858
:1040900009F0B6FE04A8FFF7B9FF0DF117010746B6
:1040A0008AF80000022204A809F0AAFE04A8FFF77B
:1040B000ADFF0DF11A0180468AF80100022204A822
:1040C00009F09EFE04A8FFF7A1FF0DF11D01814636
:1040D0008AF80200022204A809F092FE04A8FFF761
:1040E00095FF08A98AF803000222044604A809F0F3
:1040F00087FE04A8FFF78AFF0DF123018AF8040068
:104100000222054604A809F07BFE04A8FFF77EFF03
:10411000EDB2C6B2E4B28AF805005FFA89F30296FE
:10412000019500945FFA88F2F9B2044809F0CAF8E0
:104130000AB0BDE8F08700BF0F00002041F601087B
:10414000442700202DE9F04FDFF8E4803449354F53
:104150008BB01122404608F097F900230022404618
:1041600008F0F6FD4246122105A808F082FF05A9D5
:1041700012222D4809F044FE05A9022204A809F0E4
:104180003FFE04A8FFF742FF0DF11701814638708A
:10419000022204A809F034FE04A8FFF737FF0DF14E
:1041A0001A0182467870022204A809F029FE04A8A8
:1041B000FFF72CFF0DF11D018346B870022204A801
:1041C00009F01EFE04A8FFF721FF08A9F8700222DB
:1041D000044604A809F014FE04A8FFF717FF0DF128
:1041E000230138710222054604A809F009FE04A83B
:1041F000FFF70CFFEDB2C6B2E4B278715FFA8BF351
:104200005FFA8AF25FFA89F10296019500940748F5
:1042100009F058F8404608F08AFD0BB0BDE8F08F71
:1042200039EE0108442700200F00002066F601083F
:10423000B006002008B5084B1B78012B4FF4907096
:1042400005D1FEF72FF8BDE80840FFF77BBFBDE8BA
:104250000840FFF707BF00BF0E00002008B572B688
:10426000094C01224FF48041204602F021FA6420DB
:1042700001F0B2FE204600224FF4804102F018FA0D
:10428000642001F0A9FEECE7000C024030B50024E8
:1042900095B01422214603A8CDE9094409F0C4FFD2
:1042A0001F4B01941A6C42F080521A641B6C03F08D
:1042B00080530193019B1B4B02941A6842F4804285
:1042C0001A601B6803F480430293029B0A2308933D
:1042D000102201230820CDE90B320D93A823CDE94C
:1042E00010030225072308A8CDE90E541295139355
:1042F00002F0F4FE08B1FFF7B1FF0F23CDE903355B
:1043000005904FF4A0524FF48053052103A8CDE946
:10431000062303F0BFF80028EDD115B030BD00BF73
:1043200000380240007000402DE9F04F93B00024A7
:104330007C4D01F025FEFFF7A9FF142200210DA8F6
:1043400009F072FF07942B6B774843F010032B633F
:104350002B6B03F010030793079B08942B6B43F020
:1043600004032B632B6B03F004030893089B09944D
:104370002B6B43F080032B632B6B03F080030993BB
:10438000099B0A942B6B43F001032B632B6B03F007
:1043900001030A930A9B0B942B6B43F002032B63DC
:1043A0002B6B03F002030B930B9B0C942B6B43F0D2
:1043B00008032B632B6B03F008030C9301220621E7
:1043C0000C9B02F075F958482246082102F070F95A
:1043D0005648012240F2012102F06AF95348224670
:1043E000202102F065F9524822464FF2FB6102F0AB
:1043F0005FF94F48012240F6040102F059F9012209
:104400004C484FF4807102F053F9012646484FF0B2
:10441000040A0DA9CDE90DA6CDE90F660A2702F021
:1044200069F841480DA9CDE90D76CDE90F4402F0B8
:1044300061F821233D480DA9CDE90D36CDE90F44A2
:1044400002F058F84FF4887338480F940DA9CDE95D
:104450000D3402F04FF848F2040337480F940DA9C9
:10446000CDE90D344FF4807B02F044F830480F94CE
:104470000DA94FF00309CDE90DB402F03BF84FF65A
:10448000BB632B48CDF840900DA9CDE90D360F94B4
:104490004FF4007802F02EF824480DA9CDE90F4919
:1044A000CDE90D8602F026F822480DA9CDE90F4985
:1044B000CDE90DB602F01EF81D480DA9CDE90DA6F7
:1044C000CDE90F6602F016F8402319480DA9CDE991
:1044D0000D36CDE90F4402F00DF806942B6B43F432
:1044E00080032B632B6B03F4800322462146069343
:1044F0004520069B01F096FD452001F0C5FD0F48C3
:104500000F4B04614FF4E1390C25C0E90039C0E9D3
:104510000244C0E90554C46103F018FF034688B1A2
:10452000FFF79CFE003802400010024000080240E5
:10453000000C02400000024000040240E42700207A
:1045400000140140C748C84AC0F818804FF482746C
:104550004FF0100AC0E90233C0E90433C0E907A3F1
:10456000C0E90933C0E90024C76203F007FB034632
:104570000028D5D1BD48BE4AC0E90233C0E90433A2
:10458000C0E90833C0E90A37C0E90024C0E9068A57
:1045900003F0F4FA03460028C2D1B648B64AC0F880
:1045A0001880C0E900240822C0E90233C0E90436BB
:1045B000C0E90723C0E90933C76203F0DFFA002826
:1045C000AED106F0D1F9AD48AD4B036003F0B4F8BD
:1045D00007460028A4D1014614220DA809F024FEA4
:1045E000A84CA94B05977F20C4E90037FF23C4E9F5
:1045F00002032046C4E90477A76103F0E7F8002826
:104600008ED1CDE91000ADF834008DF83600324679
:104610000DA9204603F033F9002881D19B4B059367
:10462000324605A9204603F09BF9034600287FF493
:1046300077AF97489749984A0362C0E900124FF450
:104640008042C0E90233C0E90423C0E9063302F026
:1046500021FA034600287FF463AF9048904AC0E9EE
:104660000233C0E90029C0E90435C0E9063303F08C
:104670006DFE00287FF454AF8A4C8B4F0523C4E9AC
:10468000007320464FF4FA63A36002F0FAFC00289E
:104690007FF446AF8548864B036001F029FD06464E
:1046A00000287FF43DAF0125DFF85C82814888F85F
:1046B00000502A464FF4804101F0FAFF642001F0D7
:1046C0008BFC32464FF480417A4801F0F1FF6420C0
:1046D00001F082FC2A464FF48041764801F0E8FF61
:1046E000642001F079FC32464FF48041714801F0BA
:1046F000DFFF642001F070FC2A464FF480416D48D2
:1047000001F0D6FF642001F067FC32464FF480418F
:10471000684801F0CDFF642001F05EFC664809F0B6
:10472000F1F90A222946654808F0CCFD644B65483A
:1047300020221A7025233022CDE901320C23009368
:10474000032204234FF4FD6108F0BCFD5E484FF4E2
:10475000807101F0A7FF5D4B002840F0D7801870F2
:104760005B4809F0CFF906236360276041F66413C4
:104770002046A36002F085FC00287FF4D1AE5549A5
:104780005548002207F056FEFEF76EF9FFF752FD7E
:10479000FEF7B2F9FEF7C0F90020FEF709F900F0C4
:1047A00055F900F01FFE0420FEF724FA4B4B4C494C
:1047B0004C48012205F022FCFEF7B6F805F068FC33
:1047C00098F80030B3B30020FCF774FF01F0FEFB53
:1047D00045494FF47A72B0FBF2F20020FDF764F91C
:1047E00042490020FDF760F90120FCF763FF4049D2
:1047F0000020FDF759F90220FCF75CFF3D4900203D
:10480000FDF752F90320FCF755FF39490020FDF769
:104810004BF90420FCF74EFF35490020FDF744F921
:104820000620FCF747FF34490020FDF73DF9002042
:10483000FCF740FF314D324E2B78012B70D0002019
:1048400005F02AFF2B78002B79D12E4C237813B951
:104850000420FFF7E7F92378012BEDD10420FEF7C0
:1048600009FAE9E76C280020003C00401C290020E0
:1048700000300140C4280020003800409429002066
:104880000008065074290020002800400105092373
:10489000B029002000540040801A0600282800207B
:1048A00000440040A4290020003000407C27002064
:1048B00000300240000C02408AF60108BEF60108F2
:1048C00088010108DCF6010800080240292A0020BE
:1048D00006F70108B3F001080817002001000020C6
:1048E000000800100000001025F7010839F7010842
:1048F00041F7010849F7010851F70108282A00206B
:10490000082A00200D000020162A002010481D70E3
:1049100009F0F8F806236360276041F6583327E76B
:10492000346801F053FB04F5922404F57874844252
:1049300085D2084809F0E6F8FEF710FA82E7064B40
:104940001B78002B7FF478AF044802F0C1FB73E7BB
:1049500014F7010859F70108052A0020A4290020AE
:104960000FB400B5ADF5037D84AB4FF4007153F87F
:10497000042B019302A808F025FE02A8FCF730FDE5
:1049800002A982B2044803F065FD0DF5037D5DF8D0
:1049900004EB04B0704700BFE42700200FB400B55B
:1049A000ADF5037D84AB4FF4007153F8042B0193F4
:1049B00002A808F007FE02A8FCF712FD4FF0FF3333
:1049C00082B202A9044803F0EFFC0DF5037D5DF807
:1049D00004EB04B0704700BFE42700202DE9F0414C
:1049E0000D4FDFF838800E4615460024AC4202DB3E
:1049F0002846BDE8F0814FF6FF7301223119384691
:104A000003F0D2FC98F800301BB1315D0020FCF7B8
:104A10001DFE0134EAE700BFE4270020162A00202B
:104A200010B508493022044609F0D8F940B10649CA
:104A30003022204609F0D2F900280CBF01200220C4
:104A400010BD00BFC10000209100002070B5002003
:104A500003F048FF04464FF4A85003F043FF054617
:104A60004FF4385003F03EFF2A46034621460248E1
:104A7000BDE8704008F026BC75F7010810B5044683
:104A80008AB00120FCF716FE94F82C30099394F8B4
:104A90002830089394F82430079394F82030069334
:104AA000237F0593237E0493237D0393237C02932A
:104AB000237B0193237A00932379227804490020F1
:104AC000FCF7F2FF00200AB0BDE81040FCF7F2BD91
:104AD000CDF7010810B504468AB00320FCF7EAFDC3
:104AE00094F82E30099394F82A30089394F82630DD
:104AF000079394F822300693A37F0593A37E049333
:104B0000A37D0393A37C0293A37B0193A37A0093D9
:104B1000A379A27804490020FCF7C6FF00200AB060
:104B2000BDE81040FCF7C6BDCDF7010810B504463E
:104B30008AB00220FCF7BEFDE37A0993A37A0893BA
:104B4000637A0793237A0693E3790593A379049311
:104B50006379039323790293E3780193A378009315
:104B60006378227804490020FCF79EFF00200AB0F9
:104B7000BDE81040FCF79EBDCDF7010810B5044616
:104B80008AB00420FCF796FD94F82F30099394F82E
:104B90002B30089394F82730079394F8233006932A
:104BA000E37F0593E37E0493E37D0393E37C029329
:104BB000E37B0193E37A0093E379E27804490020F0
:104BC000FCF772FF00200AB0BDE81040FCF772BD90
:104BD000CDF7010870B50E46441C0025214670191A
:104BE0000122013509F00CF90C2D04F10404F5D172
:104BF00070BD08B50C2209F0F1F8003818BF01208B
:104C000008BD000007B50E4B1B789BB90D4808F096
:104C100079FF882301224FF4407101A88DF80430F8
:104C200000F008FD084808F06DFFFEF797F803B0A4
:104C30005DF804FB054803B05DF804EB08F062BFC3
:104C4000292A00200CF8010828F5010841F801087C
:104C500007B501224FF4407101A800F001FC9DF856
:104C60000400883818BF012003B05DF804FB07B5C5
:104C700001224FF4806101A800F0F2FB9DF80400CE
:104C8000883818BF012003B05DF804FB38B50D4C1F
:104C90002368013383420D46236005D10A48002270
:104CA0004FF4805101F004FD23689D4209D1002397
:104CB00023600548BDE8384001224FF4805101F0DF
:104CC000F7BC38BD242A0020000C024038B5124C35
:104CD0002368013383420D4623600BD10F48002225
:104CE0004FF4804101F0E4FC0C4800224FF40041F5
:104CF00001F0DEFC23689D420CD1002307482360AD
:104D000001224FF4004101F0D3FCBDE838400448D3
:104D100002F0DEB938BD00BF202A0020000C02409E
:104D2000A429002010B58CB0134604460A466846F4
:104D3000044909F01DF96946204608F0BBFA0CB099
:104D400010BD00BF6DF8010810B58EB001F6E44249
:104D50000446084902A809F00BF9074B019301A981
:104D6000204609F0D9F902A9033008F0A3FA0EB0E1
:104D700010BD00BF7BF801085F5F5F00014601487E
:104D8000FFF7EEBD81F801082DE9FF474848DFF83D
:104D900034A1DFF8349108F0B5FE40F6B833ADF831
:104DA0000E3001F013F900F5EA370026C03701F0A4
:104DB0000DF98742804605D23E4808F0A3FEFDF774
:104DC000CDFFF4E74FF40041504601F06BFC0128A1
:104DD0000546ECD10DF10E033749009330224B46C6
:104DE000042004F0FFF93448FFF71AFE04460028B7
:104DF0003AD12A464FF48041304801F059FC6420F2
:104E000001F0EAF822464FF480412C4801F050FCB2
:104E1000642001F0E1F82A464FF48041274801F070
:104E200047FC642001F0D8F822464FF48041234823
:104E300001F03EFC642001F0CFF82A464FF4804197
:104E40001E4801F035FC642001F0C6F822464FF4FC
:104E500080411A4801F02CFC642001F0BDF818488C
:104E600008F050FEFDF77AFF13484146FFF76CFF4C
:104E7000BDF80E30009310494B4630220420013615
:104E800004F008F9012E06D04FF4FA72B6FBF2F3E3
:104E900002FB136313B90848FFF770FF28211420A1
:104EA000FFF7F4FE28211420FFF710FF7FE700BF73
:104EB00089F80108A6F8010838110010000C02401A
:104EC000DAF40108000402404A27002030B591B00E
:104ED0000A4604461C4904A809F04AF81B4B0193F2
:104EE00001A9204609F018F904A9033008F0E2F9F5
:104EF000174B029302A9204609F00EF9154B0393B4
:104F0000C51C03A9204609F007F9134B441BE4B262
:104F100022462946184608F073FF0022025509F080
:104F20009BF80E4B1B684FF4FA72B3FBF2F102FBD5
:104F30001133044633B901F049F8214602460848C6
:104F4000FFF70EFD11B030BDD4F801083A3A3A002F
:104F50002A2A2A005F5F5F002A2A0020402A0020B8
:104F6000D7F80108F0B52E482E4F2F4D85B008F028
:104F7000C9FD40F6B833ADF80E3001F027F806460B
:104F800001F024F806F5EA33C0338342044605D223
:104F9000264808F0B7FDFDF7E1FEF1E74FF40041C8
:104FA000384601F07FFB0128EAD129684CF25033E2
:104FB0000131994229600DD11D4808F083F940F66E
:104FC000B8331C49009330221B4B042004F062F8D4
:104FD000FDF7C4FE296819482246FFF7A3FEBDF875
:104FE0000E3000931549144B3022042004F052F87F
:104FF0000DF10E0330221249009304200E4B04F0F1
:10500000F1F800F0E3FF01460D48FFF75FFF2821AC
:105010001420FFF73BFE28211420FFF757FEAFE7CF
:10502000F6F8010800040240402A0020A6F8010812
:1050300011F90108C10000204A270020D8100010F3
:105040000811001007B50A4808F05CFD882301220A
:105050004FF4806101A88DF8043000F0EBFA0548A8
:1050600008F050FDFDF77AFE03B05DF804FB00BFC9
:105070002DF901084DF901081B4BF7B51B4C002217
:105080001A70082323801A4B1D880F46691C19804B
:10509000184B6DBAA5801D88691C6DBA198006462B
:1050A000E580E31D02F007010132202A03F8011F09
:1050B000F8D100230D4910486380282201F028F818
:1050C00040F6B83340BA60800849009328223B4636
:1050D000304603F0DFFF28B9084808F013FD002030
:1050E00003B0F0BD0648F8E7DF2A0020E02A0020E0
:1050F000F4000020F20000207C2700205EF9010867
:105100007EF90108F0B52B4E87B040F6B83307465C
:105110000C461546002196223046ADF8163009F0AF
:1051200083F80DF1160300932A462346314638468C
:1051300004F058F8337813BB82B231461E48B78862
:1051400000F0E6FFC14389B24FF6FF73994205D0E4
:105150001A4808F0B7F8002007B0F0BD7FBABFB218
:105160000635CDE90175E3780093A378627821785C
:10517000134808F0A7F8134B01221A70EBE7082B2D
:1051800014D17188B788F68819B10F48002208F049
:1051900099F80635CDE902650197E3780093A37885
:1051A00062782178094808F08DF8E4E7084808F0AB
:1051B000A9FCD0E7462A00207C27002089F90108B5
:1051C0009DF90108DF2A0020CAF90108F5F9010854
:1051D00037FA01082DE9FF4104466848684D08F098
:1051E00091FC04272B78042B2DD8DFE803F003096A
:1051F0004164BB00634808F085FC01232B7022E06A
:1052000061484FF0010808F07DFC08EB8400C00005
:1052100000F5407003F066FB0646D8B9204603F05F
:10522000EFFC41F20840414600EB441003F088FBDC
:10523000334640F6B8320321204603F01FFD10B17B
:10524000524808F05FFC013F17F0FF07CAD104B0D5
:10525000BDE8F0813228F6D14D4808F053FC4D4AA4
:10526000002313704C4A13704C4A13700223C5E795
:105270004B4808F047FC474B1B780F2B01D9042300
:10528000BCE7454E337853B94649444A4648137003
:10529000CB7800938B784A78097808F013F8337844
:1052A0004049013320463370FFF7E6FE03232B709D
:1052B0003E4B00221A703E48374EDFF8F08008F06F
:1052C00021FC204603F003FC0246C0B135492046CC
:1052D000FFF718FF31490A7801320A70354A12780F
:1052E000034662B198F800203178334807F0EAFFAE
:1052F00002232B703378042B04BF0523337098F8F6
:105300000030322B26D92D4808F0FCFB002388F80A
:10531000003002232B703378042B1ED10523337009
:10532000DFF878801F4998F800302548C3F104025F
:10533000CDE90132CB7800938B784A78097807F071
:10534000C1FF144A002388F800303370137801330A
:10535000137078E7013388F800303378052B7FF439
:1053600072AFDDE7174808F0CDFB174808F0CAFB1D
:10537000204603F045FC002340E700BF45FA010842
:10538000452A002061FA01086DFA01087FFA010838
:105390009BFA0108442A0020DE2A0020DD2A002092
:1053A000ADFA01084A270020B8FA0108DC2A0020DB
:1053B000CBFA0108DF2A0020DCFA0108F0FA010824
:1053C00000FB010824FB01083AFB010808B504486A
:1053D00008F098FBBDE808400620FFF7FBBE00BFC1
:1053E0004DFB010807B5FFF742FC90B90A4808F0E9
:1053F00089FBFF2301224FF4806101A88DF804305E
:1054000000F018F9054808F07DFBFFF7DFFFFDF716
:10541000A5FC03B05DF804FB60FB010868FB010814
:10542000014B1860704700BF082B002070B50B4E71
:1054300004460D46306890F8513053B142F2107373
:105440002A46214602F0F6FB38B1BDE87040FEF76F
:1054500005BF012000F0C0FDECE770BD082B002067
:10546000F7B51A4F05460C4616463B6893F851307F
:10547000012B23D1032316488DF804300421230C7B
:10548000002264BA8DF80530ADF8064001F010F93D
:1054900004210DEB0100FFF7C9FF38684FF47A7360
:1054A0003246294602F063FD02280BD0084801224B
:1054B000042101F0FDF8012003B0F0BD012000F04F
:1054C0008BFDD2E7012000F087FDE6E7082B0020E6
:1054D0000010024013B50A4C00222046042101F0BE
:1054E000E7F8062301A801218DF80430FFF79EFF9D
:1054F00001220421204601F0DBF802B010BD00BFFC
:105500000010024037B50A4C042500222046042131
:1055100001F0CEF80DEB050001218DF80450FFF7E6
:1055200085FF01222946204601F0C2F803B030BDB4
:105530000010024037B50523002214488DF80020E2
:1055400004218DF8043001F0B3F8012101A8FFF720
:105550006DFF0F4D2868C8230122694602F007FD40
:1055600002284FF001000ED000F036FD9DF800003B
:1055700010F00104EED105480122042101F098F851
:10558000204603B030BD00F027FDE3E700100240E5
:10559000082B00202DE9F743DFF8949007460C46CE
:1055A0009046D9F8003093F85130012BDEB239D152
:1055B000FFF790FF02238DF80430230C64BA8DF8B6
:1055C0000530ADF80640FFF785FF1848002204219A
:1055D00001F06EF804210DEB0100FFF727FF052411
:1055E000D9F800004FF47A734246394602F022FBA4
:1055F0000228054606D10520013C00F0EDFC14F020
:10560000FF04EDD101220421084801F051F8FFF711
:1056100091FFFFF777FF012D08BF0226304603B048
:10562000BDE8F083012000F0D7FCBAE7001002408B
:10563000082B00202DE9F04711F0FF0A05460F4620
:1056400014465FFA82F81AD1FF2A2ED9140A4FF4B1
:10565000807239462846FFF79DFF0128064641D152
:10566000013CA4B207F5807705F58075002CEED1DA
:10567000B8F1000F36D042463946284615E0CAF543
:105680008079FF2A1FFA89F913D8C1450DD24A46FD
:10569000FFF780FF0128064624D1A8F58072524406
:1056A00092B209EB070105EB0900BDE8F047FFF7EF
:1056B00071BF4A46FFF76EFF0128064612D1A4F5D6
:1056C00080741AFA84F44D441FFA84F84F4404F4A9
:1056D0007F442C447F1BA54205EB070105D118F040
:1056E000FF02CAD13046BDE8F0874FF480722846E9
:1056F000FFF750FF012802D105F58075EBE706465C
:10570000F0E7000082B00C4B002100915A6C42F48B
:1057100080425A645A6C02F480420092009A0191CD
:105720001A6C42F080521A641B6C03F08053019390
:10573000019B02B0704700BF003802400268094B6D
:105740009A4282B00BD100230193074B1A6B42F4AB
:1057500080521A631B6B03F480530193019B02B0C8
:10576000704700BF003002400038024030B50446A8
:1057700089B01422002103A808F056FD2268134BBB
:105780009A4221D1124C134800250195236B43F016
:1057900002032363236B03F002030193019BC022E6
:1057A0001223CDE9032303210423CDE9061303A922
:1057B00000F0A0FE0295236C43F400132364236CD5
:1057C00003F400130293029B09B030BD0054004063
:1057D00000380240000402400268094B9A4282B03D
:1057E0000BD100230193074B5A6B42F040025A63DE
:1057F0005B6B03F040030193019B02B0704700BF55
:1058000000080650003802401FB50446102200214F
:10581000684608F009FD2268094B9A420ED102231E
:10582000009368464FF40073039301F0EDFE08B156
:10583000FEF714FD034B0122C3F83C2E04B010BD4B
:105840000028004000004742F0B504468DB0142205
:10585000002107A808F0E8FC2368534A934223D1AB
:10586000524B5348002100915A6C42F480525A64C2
:105870005A6C02F480520092009A01911A6B42F025
:1058800001021A631B6B03F001030193019BE022E9
:1058900002230321CDE907230523CDE90A1307A934
:1058A00000F028FE0DB0F0BD424A934240D13F4B7C
:1058B000414800220292196C41F480411964196C2C
:1058C00001F48041029102990392196B41F00401A5
:1058D0001963196B01F004010391039904921A6B87
:1058E00042F002021A631B6B03F0020304930226C8
:1058F00003250524049B07A90423CDE907360127C6
:10590000CDE90A5400F0F6FD08232B480B9407A9B3
:10591000CDE90736CDE9097500F0ECFD4FF4806361
:10592000CDE90736CDE9097524480B9407A9B7E7F7
:10593000234A9342B6D11D4B1F48002405941A6C8C
:1059400042F400421A641A6C02F400420592059A6D
:1059500006941A6B42F004021A631B6B03F00403F3
:105960000693069B02274FF480630326062507A9AA
:10597000CDE90737CDE90A6500F0BCFD4FF4C0530F
:10598000CDE9073707A901230B480B95CDE9093667
:1059900000F0B0FD22462146332000F043FB3320C7
:1059A00000F072FB7EE700BF00300140003802408B
:1059B000000002400038004000080240000402409D
:1059C000003C004070B514228AB0064600210DEB61
:1059D000020008F029FC33683A4A93422BD13A4B33
:1059E0003A48002401941A6C42F400321A641A6C8A
:1059F00002F400320192019A02941A6B42F0010201
:105A00001A631B6B03F001030293029B0C25022314
:105A1000CDE9055305A907230326CDE9086300F066
:105A200069FD26202246214600F0FCFA262000F0DF
:105A30002BFB0AB070BD264A9342FAD1224B25486F
:105A4000254C002503955A6C42F020025A645A6C8A
:105A500002F020020392039A04951A6B42F00402AA
:105A60001A631B6B03F004030493049BC0220223FC
:105A7000CDE9052303210823CDE9081305A900F08A
:105A800039FD16484FF02063C4E900034023C4E900
:105A900002354FF48063C4E9043520464FF40033E7
:105AA000C4E90655C4E9083500F05EFB08B1FEF70D
:105AB000D5FB0022746347201146A66300F0B2FABA
:105AC0004720B4E700440040003802400000024094
:105AD000001401400008024084270020A064024016
:105AE000FEE7FEE7FEE7FEE7FEE770477047704718
:105AF000054A13880BB1013B1380044A13880BB18C
:105B0000013B138000F056BAA8060020A60600202C
:105B1000014802F0A1BD00BF28280020014802F082
:105B2000C5BA00BF6C280020014800F025BC00BFAA
:105B300084270020014802F08FBD00BFE427002029
:105B40000120704708B508F031FB162303604FF0C1
:105B5000FF3008BD08B508F029FB16230360FEE7F7
:105B600070B50D4614460E46731B9C4201DC204660
:105B700070BDAFF3008006F8010BF5E74FF0FF3082
:105B800070474FF400534B6000207047012070476E
:105B9000002070470B4A116810B5034609B90A493D
:105BA0001160106809490A4C0344091B8B4206D94D
:105BB00008F0FCFA0C2303604FF0FF3010BD1360B7
:105BC000FCE700BF0C2B0020681100100000022031
:105BD00000800000044BD3F8882042F47002C3F820
:105BE0008820024A9A60704700ED00E0000001083A
:105BF00030B59BB0054614A80C4603F037FE9DF85F
:105C0000653013939DF8643012939DF863301193BF
:105C10009DF8623010939DF85D300F939DF85C30D5
:105C20000E939DF85B300D939DF85A300C939DF8C0
:105C300061300B939DF860300A939DF85F300993B3
:105C40009DF85E3008939DF8593007939DF85830C1
:105C500006939DF8573005939DF8563004939DF8B0
:105C6000553003939DF8543002939DF853300193BF
:105C70009DF8523000939DF850209DF85130034913
:105C8000284608F075F920801BB030BD7AFB01086A
:105C900070B50C46094906461546FBF741FB40B175
:105CA00007493046FBF73CFB28B929462046FFF759
:105CB0009FFF012070BD0020FCE700BF39FC0108F8
:105CC00042FC010838B51649054604F0BDF8044603
:105CD00000B30A2104F090F8C4B20F2C1CD8284657
:105CE000104904F0B1F8054630B10A2104F084F8F7
:105CF000C5B2012D28BF012521460B4807F0E2FA65
:105D00000A4B0B4833F81410012D0CBF2A46002211
:105D100000F0CEFC60B238BD4FF0FF30FBE700BFB3
:105D200052FC010856FC01085AFC0108FC00002046
:105D3000000C0240F8B50E460C49074615461C46B5
:105D4000FBF7EEFA68B10A493846FBF7E9FA50B9B1
:105D50003046FFF7B7FF0749C2B2284608F008F9F6
:105D600020800120F8BD0020FCE700BF39FC0108BD
:105D70007EFC0108D4F801080A464FF47A73014604
:105D8000014802F0F4B800BF1C29002007B5FF232A
:105D90008DF8073001224FF47A730DF107010448A2
:105DA00002F0E5F89DF8070003B05DF804FB00BFC2
:105DB0001C2900200A464FF47A730146014801F07D
:105DC00039BF00BF1C29002007B54FF47A738DF846
:105DD000070001220DF10701024801F02BFF03B07B
:105DE0005DF804FB1C290020024801224FF40061E9
:105DF00000F05EBC000C0240024800224FF400613B
:105E000000F056BC000C024070B586B0FFF7ECFF06
:105E10002049214803F0E8FA2049214803F0F2FA2A
:105E20002049214803F000FB204B02AA03F1100691
:105E3000154618685968144603C40833B34222460D
:105E4000F7D12946092003F071FC2946002003F010
:105E50006DFC2946012003F069FC013006D114488D
:105E60000A22012107F02EFA06B070BD0DF10701DC
:105E70000F2003F05BFC013003D10E480A22012100
:105E8000F0E79DF80730002BF0D00B4807F03AFE02
:105E9000EAE700BFE95D0108F95D0108C95D010895
:105EA0008D5D0108B55D0108795D0108C1EC01084F
:105EB0008FFC0108ABFC0108C6FC01087047704765
:105EC000DFF84CD013481449144A002302E0D45898
:105ED000C4500433C4188C42F9D311481149124AF2
:105EE000002302E0D458C4500433C4188C42F9D3C0
:105EF0000E4A0F4C002301E013600432A242FBD390
:105F0000FFF768FE07F0B2F9FEF70EFA70470000DF
:105F10000000022000000020C4010020BC70020824
:105F20000000001068110010B0010108C801002035
:105F3000D4370020FEE7000038B50E4B1A784FF436
:105F40007A73B3FBF2F30C4A05461068B0FBF3F02A
:105F500000F0BAF8044658B90F2D09D80246294670
:105F60004FF0FF3000F05EF8044B20461D6038BD56
:105F70000120FCE71B010020F80000201C0100208C
:105F800008B50B4B1A6842F400721A601A6842F4A2
:105F900080621A601A6842F480721A60032000F06E
:105FA0002FF80F20FFF7C8FFFFF7ACFB002008BD5C
:105FB000003C0240034A044B11681B780B441360F9
:105FC000704700BF102B00201B010020014B1868F8
:105FD000704700BF102B002038B50446FFF7F6FFCE
:105FE000631C1CBF054B1B78054618BFE418FFF760
:105FF000EDFF431BA342FAD338BD00BF1B010020B5
:106000000749CA6822F4E0620302120403F4E06361
:10601000120C134343F0BF6343F40033CB6070476B
:1060200000ED00E0164B30B5DC68C4F30224C4F187
:106030000703251D042B28BF0423062D4FF0FF3531
:106040008CBF033C002405FA03F321EA0303A540B7
:1060500022EA0502A340002843EA0203ACBF00F194
:106060006040084A4FEA0313B8BF00F00F00DBB2EC
:10607000AABF00F56140135480F8003330BD00BF63
:1060800000ED00E014ED00E0002807DB4109044AC0
:1060900000F01F000123834042F82130704700BF09
:1060A00000E100E0BFF34F8F0549064BCA6802F4D8
:1060B000E0621343CB60BFF34F8F00BFFDE700BF2B
:1060C00000ED00E00400FA050138B0F1807F0BD24A
:1060D0004FF0E023054A5861F02182F82310002098
:1060E000072298611A6170470120704700ED00E0B7
:1060F00010B5044650B1437903F0FF0213B90271A1
:10610000FFF71CFB01236371002010BD0120FCE799
:10611000034602205871186810B5846844F00104E1
:10612000846001EB8202914203D1012200685A711E
:1061300010BD51F8044B0460F5E70000036810B58A
:10614000084C0246D9B210391820B1FBF0F0205C9F
:10615000D06523F47F7020F003005F2988BF0430EE
:10616000906510BD016B020870B50446FFF72EFF65
:106170000546002C60D0022384F8353022680023C5
:1061800084F83430136823F0010313602268136825
:10619000D8072ED413683248A1691840D4E90135D4
:1061A0002B43E5682B4325692B4365692B43E56940
:1061B0000B432B43256A2B430343606A042802BF29
:1061C000D4E90B5635432B4313605369042823F05D
:1061D000070343EA000335D1A06AE56A03438DB3A0
:1061E00091B9012820D030F002012BD1E90129D545
:1061F0001DE0FFF7EBFE401B0528C7D92023032035
:10620000636584F8350070BDB1F5005F16D10328D1
:1062100018D801A151F820F02F620108ED610108A2
:106220002F62010829620108B5F1C07F0AD140231D
:106230006365012384F835300120E4E70228F6D9AC
:106240000328D3D053612046FFF778FFE26D3F2348
:106250009340836000200123606584F83530D2E7E5
:106260003F8010F070B590F83440866D012C30D02E
:10627000012480F8344090F83540012C4FF00004A0
:1062800025D1022580F8355044650468256825F439
:106290008025256063608368402B0EBFA260A160EB
:1062A000E260C26D08BFE1603F239340B3602368A2
:1062B00043F016032360036C1BB1236843F008030B
:1062C0002360236843F001032360002070BD80F841
:1062D00034400220FAE770B50446866DFFF776FE7B
:1062E00094F83530022B054606D0802363650120E3
:1062F000002384F8343070BD23681A6822F0160237
:106300001A605A6922F080025A61226C0AB9A26CA2
:106310001AB11A6822F008021A601A6822F0010203
:106320001A602368186810F0010007D1E26D3F235E
:106330009340B360012384F83530D9E7FFF746FE78
:10634000401B0528EDD920230320636584F8350020
:10635000CEE790F83530022B03D08023436501202F
:1063600070470268052380F83530136823F0010375
:106370001360002070470000F7B5002301935C4BC9
:10638000856D1F68C36D2E6808229A40324204460C
:106390000CD001680868400708D5086820F00400A0
:1063A0000860AA60626D42F00102626501229A40B3
:1063B000324208D021684969090641BFAA60626D6E
:1063C00042F00202626504229A40324208D02168FB
:1063D0000968880741BFAA60626D42F004026265E5
:1063E00010229A40324210D02368196809070CD550
:1063F000AA601A68500337D51B68190301D4236CAF
:1064000000E0A36C0BB120469847E16D20228A4042
:1064100032423AD023681868C60636D5AA6094F886
:106420003520052A1A6827D122F016021A605A6907
:1064300022F080025A61226C0AB9A26C1AB11A6861
:1064400022F008021A603F238B40AB60012384F8DE
:106450003530002384F83430236D002B45D020469E
:1064600003B0BDE8F04018471A68D2055EBF1A684D
:1064700022F008021A60C2E7500327D51B681903EF
:1064800031D4636C0BB120469847636D6BB3636D79
:10649000DA0719D522684FF41653B7FBF3F7052333
:1064A00084F83530136823F001031360019B013336
:1064B000BB42019302D81368DB07F7D4012384F8A9
:1064C0003530002384F83430E36CC6E71A6812F4E0
:1064D000807208D1196821F010011960012384F835
:1064E000353084F83420E36BCCE703B0F0BD00BF57
:1064F000F80000202DE9F74FDFF8A491664A002349
:106500000D6801249C4004EA0506AC4340F0AF80CE
:106510004D68032705F003044FEA430807FA08FC17
:10652000671E012F6FEA0C0C34D8876807EA0C0E3F
:10653000CF6807FA08F747EA0E078760476827EA37
:10654000060EC5F300179F4047EA0E074760C7686D
:1065500007EA0C0E8F6807FA08F747EA0E07022CC5
:10656000C76019D14FEAD30A00EB8A0A03F0070B80
:10657000DAF820704FEA8B0B4FF00F0E0EFA0BFE7D
:1065800027EA0E0E0F6907FA0BF747EA0E07CAF85B
:10659000207001E0032CDAD1076804FA08F407EA56
:1065A0000C073C4315F4403F046060D00024019484
:1065B000D9F8444044F48044C9F84440D9F84440F0
:1065C00023F0030707F1804704F4804407F59C3764
:1065D000019403F0030C019CD7F808E04FEA8C0CFF
:1065E0000F2404FA0CF42EEA040E2C4CA04245D0E1
:1065F00004F58064A04243D004F58064A04241D0F9
:1066000004F58064A0423FD004F58064A0423DD0F0
:1066100004F58064A0423BD004F58064A04239D0E8
:1066200004F58064A04214BF0824072404FA0CF483
:1066300044EA0E04BC601468F74315F4803F0CBFB5
:106640003C4034431460546815F4003F0CBF3C4098
:1066500034435460946815F4801F0CBF3C403443AD
:106660009460D468AD0254BF3C403443D4600133DD
:10667000102B7FF445AF03B0BDE8F08F0024D5E7C1
:106680000124D3E70224D1E70324CFE70424CDE794
:106690000524CBE70624C9E7003C01400000024086
:1066A000003802400369194214BF012000207047DE
:1066B0000AB1816170470904FBE7436901EA0302FB
:1066C00021EA030141EA02418161704701684B6997
:1066D00013F480634FF0000210D06FF480634B61BD
:1066E0002023026380F83D3080F83E20036C80F860
:1066F0003C2043F0040303640120704718467047B0
:106700002DE9F84606460F4691461D464FEA114AC6
:106710003368BAF1010F0CBF5C699C6927EA040475
:10672000A4B2B4FA84F46409A14501D0002017E0B2
:106730006A1CEED0FFF74AFC089BC01AA84201D899
:10674000002DE5D100232022336386F83D2086F812
:106750003E30326C86F83C3042F020023264012038
:10676000BDE8F8862DE9F04104460F4616469846E6
:106770002568686927EA000080B2C0B16B695A05D4
:1067800017D52B6843F400732B606FF480636B6143
:1067900020220023236384F83D2084F83E30236CBC
:1067A00043F004032364002384F83C300120BDE857
:1067B000F081731CDDD0FFF709FCA0EB0800B042AC
:1067C00009D900232022236384F83D2084F83E3039
:1067D000236C1343E6E7002ECAD1F2E770B50446F6
:1067E0000D46164623685B691B0601D5002018E09C
:1067F0002046FFF76BFF98B96A1CF3D0FFF7E6FB62
:10680000801BA8420ED900232022236384F83D2058
:1068100084F83E30226C84F83C3042F0200222643E
:10682000012070BD002DDDD1EDE700002DE9F04322
:106830001546026885B0DDE90C789946136843F483
:10684000807313600E463B46CDF8008000224FF067
:1068500001110446FFF754FF236838B11B68DB05BC
:1068600002D54FF400732364032620E006F0FE06F1
:106870001E611A4943463A462046FFF773FFA8B9FE
:10688000236803905A6903929B69039342463946F1
:106890002046039BFFF7A2FF064660B1236C042B42
:1068A00001BF2268136843F4007313600126304669
:1068B00005B0BDE8F083B9F1010F236802D1EDB254
:1068C0001D61F4E72A0A1A61394642462046FFF75D
:1068D00085FF0028E2D12368F1E700BF0200010034
:1068E0002DE9FF479A46036815461A6842F480620C
:1068F0001A601A68DDE90C7842F480721A600E465C
:106900003B46CDF8008000224FF001110446FFF70E
:10691000F7FE236838B11B68DB0544BF4FF40073F2
:106920002364032021E05FFA86F906F0FE061E616B
:106930002B4943463A462046FFF714FFA0B9236887
:1069400003905A6903929B69039342463946204655
:10695000039BFFF743FF58B1236C042B01BF226850
:10696000136843F400731360012004B0BDE8F0879E
:10697000BAF1010F23681AD1EDB242461D613946C2
:106980002046FFF72BFF02460028E5D121680B685F
:1069900043F480730B602046CDF800803B464FF0F7
:1069A0000111FFF7ADFE226860B11368B4E72A0A4F
:1069B0001A61394642462046FFF710FF0028CBD126
:1069C0002368D9E749F001031361054943463A4674
:1069D0002046FFF7C7FE003818BF0120C5E700BFFB
:1069E0000200010070B504460D46164623685B6937
:1069F0005B0701D5002018E02046FFF767FE98B935
:106A00006A1CF3D0FFF7E2FA801BA8420ED90023DC
:106A10002022236384F83D2084F83E30226C84F8E1
:106A20003C3042F020022264012070BD002DDDD1F7
:106A3000EDE770B504460D46164621684B6913F024
:106A4000400301D0002011E04A69D2060FD56FF053
:106A500010024A612022236384F83D2084F83E30EE
:106A6000236C2364002384F83C30012070BDFFF7C1
:106A7000ADFA801BA84209D900232022236384F8A1
:106A80003D2084F83E30236C1343EAE7002DD4D137
:106A9000F2E7000070B5044608B9012070BD90F817
:106AA0003D3003F0FF021BB980F83C20FEF75EFE8C
