:020000040801F1
:100000000000022059610108715D0108735D01085B
:10001000755D0108775D0108795D01080000000049
:100020000000000000000000000000007B5D0108EF
:100030007D5D0108000000007F5D0108815D010811
:10004000CD610108CD610108CD610108CD610108D4
:10005000CD610108CD610108CD610108CD610108C4
:10006000CD610108CD610108CD610108CD610108B4
:10007000CD610108CD610108CD610108CD610108A4
:10008000CD610108CD610108CD610108CD61010894
:10009000CD610108CD610108CD610108CD61010884
:1000A000CD610108CD610108CD610108CD61010874
:1000B000CD610108CD610108CD610108CD61010864
:1000C000CD610108CD610108CD610108CD61010854
:1000D000CD610108CD610108A15D0108CD61010874
:1000E000AD5D0108CD610108CD610108CD61010858
:1000F000CD610108CD610108CD610108CD61010824
:10010000CD610108CD610108CD610108B55D01082F
:10011000CD610108CD610108CD610108CD61010803
:10012000CD610108CD610108CD610108CD610108F3
:10013000CD610108CD610108CD610108CD610108E3
:10014000CD610108CD610108CD610108CD610108D3
:10015000CD610108C15D0108CD610108CD5D0108D7
:10016000CD610108CD610108CD610108CD610108B3
:10017000CD610108CD610108CD61010800000000DA
:08018000CD610108CD61010809
:100188000200000001000000180000000400000048
:10019800040000000A000000150000003400000000
:0801A80020202020202020204F
:1001B000000000000000000000000000000000003F
:1001C000000000000000000000000000000000002F
:1001D000000000000000000000000000000000001F
:1011B000EEEEEEEEEEEEEEEEEEEEEEEE0000000007
:1011C000000000000000000000000000000000001F
:1011D000000000000000000000000000000000000F
:1011E00000000000000000000000000000000000FF
:1011F00000000000000000000000000000000000EF
:1012000000000000000000000000000000000000DE
:1012100000000000000000000000000000000000CE
:1012200000000000000000000000000000000000BE
:1012300000000000000000000000000000000000AE
:10124000000000000000000000000000000000009E
:10125000000000000000000000000000000000008E
:10126000000000000000000000000000000000007E
:10127000000000000000000000000000000000006E
:10128000000000000000000000000000000000005E
:10129000000000000000000000000000000000004E
:1012A000000000000000000000000000000000003E
:1012B000000000000000000000000000000000002E
:1012C000000000000000000000000000000000001E
:1012D000000000000000000000000000000000000E
:1012E00000000000000000000000000000000000FE
:1012F00000000000000000000000000000000000EE
:1013000000000000000000000000000000000000DD
:081310000000000000000000D5
:1013200010F8012B11F8013B012A28BF9A42F7D08F
:10133000D01A70470000000000000000000000000C
:1013400001F0FF01102A2BDB10F0070F08D010F876
:10135000013B013A8B422DD010F0070F42B3F6D17A
:10136000F0B441EA012141EA014122F007047FF093
:1013700000070023F0E80256083C85EA010586EAEA
:10138000010685FA47F5A3FA87F586FA47F6A5FA26
:1013900087F68EB9EED1F0BC01F0FF0102F0070232
:1013A00032B110F8013B013A83EA010313B1F8D1DD
:1013B0000020704701387047002D06BF35460338BE
:1013C000073815F0010F07D1013015F4807F02BFF7
:1013D000013015F4C03F0130F0BC0138704700BF48
:1013E000034613F8012B002AFBD1181A0138704765
:1013F00053B94AB9002908BF00281CBF4FF0FF317C
:101400004FF0FF3000F00CB8ADF1080C6DE904CEE0
:101410000DF090FBDDF804E0DDE9022304B0704735
:10142000704700BF0348044B834202D0034B03B113
:1014300018477047C8010020C801002000000000C4
:101440000548064B1B1AD90F01EBA301491002D026
:10145000034B03B118477047C8010020C8010020A2
:101460000000000010B5064C237843B9FFF7DAFFFF
:10147000044B13B10448AFF300800123237010BD67
:10148000C801002000000000F0ED010808B5054B80
:101490001BB105490548AFF30080BDE80840FFF7E0
:1014A000CFBF00BF00000000CC010020F0ED01081C
:1014B0000369C26893429CBF81685B18013B981A1C
:1014C00070472DE9F041D0E902840546A8EB0406F7
:1014D0004068964220440F46144406D90CF0C4FCE0
:1014E000BFF35F8FEC60BDE8F0813246A4EB0804E7
:1014F0000CF0BAFC68682246B919EFE72DE9F84309
:10150000C5680646894617464FF000083369B46837
:1015100070689D4228BF1B19641BBC4203F1FF3356
:1015200028BF3C465B1B9C4228BF1C4649462246BE
:1015300028440CF099FCB3682544A044A1443F1B07
:10154000AB4208BF0025BFF35F8FF560002FDDD1F0
:101550004046BDE8F883000008B5144BA8220021DE
:1015600018460CF05FFF0322026111494261114AE3
:101570008161C2614FF48062026200228262426233
:10158000C26201660C49416610218166034602670A
:10159000C2664267BFF35F8F084911F8010D985486
:1015A0000132102AF9D1BFF35F8F08BDF805002082
:1015B000DEEF0108F5010020E5010020880D02089A
:1015C000F8B5144B182700FB07751D4407FB0033C3
:1015D0000E46DB6A012B14460AD0022B14D023B925
:1015E0002846FFF765FF844208D900242046F8BD4D
:1015F0002846FFF75DFF844228BF04462246314655
:101600002846FFF75EFFF1E72846BDE8F840FFF700
:1016100075BF00BFF8050020F8B50B4B1B780446DA
:101620000D4616460BB9FFF797FFEFF311874FF002
:10163000200181F31188324629462046FFF7C0FF7A
:1016400087F31188F8BD00BFF8050020F8B5184CE5
:10165000237805460E460BB9FFF77EFFEFF311879F
:101660004FF0200181F31188182202FB0542506AD5
:10167000116A431C994208BF0023D16A022902D192
:10168000916A9942FBE7182202FB0541D1F828C074
:101690009C450BD005FB0222144462681654BFF32C
:1016A0005F8F01204B6287F31188F8BD0020FAE7B5
:1016B000F805002073B51C4D2B7804460BB9FFF7D5
:1016C0004BFFFF230F2C8DF8043029D8174B1B5DDF
:1016D0008DF80530EFF311864FF0200181F311886A
:1016E000EA6A02F00302022A0AD1114B11481C7067
:1016F00001A9FFF703FF002086F3118802B070BD37
:101700000C48FFF7D5FE012807D9094B09481C7082
:10171000022201A9FFF7D5FEEDE74FF0FF30EBE71E
:101720004FF0FF30EAE700BFF8050020890D0208FE
:10173000E401002010060020826810B504464068CD
:10174000531C834205D820688154A360E3680133A9
:10175000E360D4E901329A420BD121682069FFF796
:101760005BFFA368984215BF4FF0FF330023E3608F
:10177000A36010BD2DE9F84F9946DDE90A431646EE
:10178000054688460A464FF0010AB24212D2CA45BF
:1017900038BFCA4613F0010B01D184B90024EB68AD
:1017A000002B3DDB0127B9F1010F1FD909F1FF39EA
:1017B0007743F8E70AF1010AB2FBF6F2E5E79B0787
:1017C00012D5B9F1000F0CBF30272027A245E6D271
:1017D00039462846FFF7B0FFEB68002B04F1FF34D1
:1017E000DDDB002CF2D1D9E72027EFE7B8FBF7F3D8
:1017F0009E42DDD9DFF84890B8FBF7F3284619F888
:10180000031007FB1388FFF797FFEB68002B03DB40
:10181000B7FBF6F3B74205D2BBF1000F00D064B9B5
:10182000BDE8F88F1F46E7E720212846FFF784FF31
:10183000EB68002B04F1FF34F2DB5445F4D8EFE7FA
:10184000990D02082DE9F04F00239BB00E46402170
:10185000CDE90613CDE908300DF1280A03901546AD
:10186000CDF814A016F8011B39B9089D002D00F31E
:10187000108108981BB0BDE8F08F252940F0BA8090
:101880004FF0000B314611F8013B2D2B18D012D828
:10189000232B1CD02B2B17D00024314611F8013BF1
:1018A000A3F13000092815D80A2202FB0433A3F162
:1018B00030040E46F1E7302BEED14BF0020B01E085
:1018C0004BF0010B0E46DDE74BF0040BFAE74BF053
:1018D000080BF7E72E2B11D10E464FF000090A270F
:1018E000304610F8011BA1F1300CBCF1090F07D8EC
:1018F00007FB0911A1F130090646F1E74FF0000995
:10190000304610F8011B01F0FB07682F0646F8D09F
:10191000782909D86F290BD8632967D020D82529C1
:1019200068D0582900F09580089B002B9ADA9CE734
:1019300070390829F8D801A050F821F0831A01085D
:101940002919010829190108631A01082919010830
:10195000411A01082919010829190108531A010817
:101960006429E1D129680F68081D87EAE7712860BA
:10197000A1EBE7714FF001080A2009293EDCC845B8
:1019800038BFC8462CB1002F02DB1BF0040F00D07B
:10199000013C1BF0020F02D0B9F1000F04D01BF084
:1019A000010F01D17CBB002408990029BCDB002F6A
:1019B00035DA7F422D2105A8FFF7BEFE08990029E0
:1019C000B2DB0BF00301022904D1B9F1000F01D100
:1019D00054BB002408990029A6DBCDE9004B4B46F7
:1019E0000A22394605A8FFF7C5FE9DE72B681A1D98
:1019F00019782A6005A8FFF79FFE95E708F101080E
:101A0000B1FBF0F1B9E7A045CED2202105A8FFF740
:101A100093FE0899002904F1FF34C3DAC4E71BF0F0
:101A2000040FCED02B21C6E7A045D3D2302105A884
:101A3000FFF782FE0899002904F1FF34C8DAC9E7EC
:101A40002968081D2860CDE9004B4B460A22096829
:101A5000C8E72968081D2860CDE9004B4B461022D5
:101A6000F5E72B681A1D2A601C6814F8011B002971
:101A70003FF45AAF05A8FFF75FFE089B002BF4DA8E
:101A800052E729680B1D2B6000220823CDE90032A4
:101A9000E5E7079C24B1039822465146FFF7BCFDB9
:101AA0002C440894E5E600BF0EB403B503AB01AACD
:101AB00053F8041B0193FFF7C5FE02B05DF804EB79
:101AC00003B0704770470000F0B5044685B00D467E
:101AD00016461F460A4805F021FC20280CD14FF07D
:101AE000FF33CDE90173009601232A4621460448BD
:101AF00005F058FA05B0F0BD0A2004F0B9FBE9E79B
:101B0000042A0020F0B5044685B00D4616461F464F
:101B10000D4805F003FC2028FAD14FF0FF33CDE942
:101B200001732A46084800960123214605F0AAF9C8
:101B3000054D4FF0FF3301222146284605F03AFBC0
:101B40000028F6D105B0F0BD042A002008B513889E
:101B5000054A13800246A020FFF7B6FF10B1FFF739
:101B6000B1FF012008BD00BFA20600200A464FF4C5
:101B700096730146014805F01DBB00BF042A0020F2
:101B800013460B4A10B513700246A020FFF7BAFFA8
:101B9000044610B1FFF796FF012440F6B831A020AB
:101BA000FFF7E4FF10B1FFF78DFF0124204610BDC1
:101BB000A00600202DE9F84F11F00F0705460C464E
:101BC0001646C2F307185FFA82FA02F00F0B1DD116
:101BD000B8F1000F01D15A462FE0102221462846C5
:101BE000FFF7CEFF60B908F1FF38103418F0FF0896
:101BF000A4B205F11005F0D1BBF1000F02D1002015
:101C0000BDE8F88F5A462146284616E05FFA87F964
:101C1000C7F11007FFB2B8F1000F12D19742DAD224
:101C20003A46FFF7ADFF0028EAD1AAF1100A09EB06
:101C30000A023919D2B289B2E819BDE8F84FFFF7A4
:101C40009FBF3A46FFF79CFF0028D9D1F61B3D44C1
:101C50003C441FFA86F8641B06F47F662E44A4B247
:101C60002919B54289B203D118F00F02C7D0CBE7CA
:101C700010222846FFF784FF0028C1D11035EFE776
:101C8000054B0A4619688B689B07FCD501466423FF
:101C9000014806F01FB900BFC028002007B5084B57
:101CA0008DF807001A6893689B07FCD5642301220E
:101CB0000DF10701024806F00DF903B05DF804FBD1
:101CC000C028002008B5074B1B78012B04D106481B
:101CD0000022042104F038FEBDE80840012004F091
:101CE000C7BA00BF12000020000C024008B5064B26
:101CF0001A78012A03D10548042104F025FEBDE825
:101D00000840012004F0B4BA12000020000C024088
:101D10001FB5FF238DF80E30094B1A6893689B0797
:101D2000FCD5642300930DF10F0201230DF10E0188
:101D3000034806F07CF99DF80F0005B05DF804FB40
:101D4000C028002013B5FFF7D1FF0A24FF20FFF7BA
:101D5000A5FF013CFAD1FFF7B5FF40230093062110
:101D60004FF415436846ADF80430FFF789FF4FF490
:101D70000054FFF7CDFF012809D1FFF7B7FFFF207F
:101D8000FFF78CFF034B01221A7002B010BD013C1B
:101D9000EFD1F2E7A406002010B5064C4FF4FA7319
:101DA0002380FFF7B5FFFF2802D02388002BF8D14E
:101DB00010BD00BFA606002070B506460D46FFF711
:101DC000EBFFFF284FF0000423D12846FFF766FF02
:101DD000FD2D18D04FF400713046FFF751FFFFF78B
:101DE00097FFFFF795FF4125FFF792FF00F01F03D4
:101DF000052B044603D0013D15F0FF05F4D1FFF794
:101E000087FF0028FBD004F01F04631F584258418D
:101E100070BD2046FCE738B504460D46FFF7BCFF11
:101E2000FF2828D12046FFF739FF280EFFF736FF9D
:101E3000C5F30740FFF732FFC5F30720FFF72EFF7A
:101E4000E8B2FFF72BFF402C13D0482C14BF012021
:101E50008720FFF723FF4C2C01D1FFF759FF0A24FD
:101E6000FFF756FF030603D5013C14F0FF04F7D13A
:101E700038BD9520EDE7FF20FAE7000070B50F4D63
:101E8000C82304460E462B80FFF742FFFF2803D1EC
:101E900028880028F8D170BDFE280DD1651E344475
:101EA000FFF736FF05F8010FA542F9D1FFF730FF24
:101EB000FFF72EFF0120EEE70020ECE7A806002048
:101EC0002DE9F341002840F09D804F4E357815F004
:101ED000020504D03078C0B202B0BDE8F081FFF74F
:101EE00031FFFFF7EFFE29464020FFF794FF01285E
:101EF00004460DD00024454B1C70FFF7F7FEFFF79A
:101F000007FF002C7BD0337803F0FE033370E1E74A
:101F10003F4F4FF47A734FF4D57148203B80FFF761
:101F20007AFF01283DD101ADA8460424FFF7F0FE59
:101F3000013C14F0FF0408F8010BF7D19DF80630BE
:101F4000012BD7D19DF80730AA2BD3D100217720C0
:101F5000FFF761FF012803D93B88002BF6D1C9E7C1
:101F60004FF080416920FFF756FF01460028F3D16A
:101F70003B88002BBED07A20FFF74DFF0028B9D157
:101F80000424FFF7C5FE013C14F0FF0405F8010B23
:101F9000F7D19DF8043013F0400F0CBF04240C243B
:101FA000A9E729467720FFF736FF012806D82946FA
:101FB0006920FFF730FF012898BF0224022C4FF060
:101FC00000011AD17720FFF726FF012803D93B88AB
:101FD000002BF3D18EE700216920FFF71CFF0028BA
:101FE000F5D13B88002B85D04FF400715020FFF7CE
:101FF00012FF00287FF47EAF7DE74120EDE7054B1F
:102000001C7067E7012067E700000020A50600209C
:10201000A8060020A406002018B9034B1878C0B207
:1020200070470120704700BF0000002070B50E46C9
:1020300015461C46002837D1002B35D01C4B1B7889
:10204000DA0733D41B4B1B785B0758BF6D02FFF7D1
:1020500039FE012C294613D15120FFF7DCFE38B997
:102060004FF400713046FFF709FFB0FA80F46409BD
:10207000FFF73CFEFFF74CFE201E18BF012070BD8D
:102080005220FFF7C8FE0028F2D14FF4007130460D
:10209000FFF7F4FE18B1013C06F50076F5D10021FA
:1020A0004C20FFF7B8FEE3E70420E8E70320E6E76B
:1020B00000000020A5060020F8B50D4616461C4677
:1020C000002847D1002B45D0254B1A78D00743D4A0
:1020D0001B78590742D4234F3B785A0758BF7602E2
:1020E000FFF7F0FD012C13D131465820FFF793FE86
:1020F00070BBFE212846FFF75FFEB0FA80F464094A
:10210000FFF7F4FDFFF704FE201E18BF0120F8BD05
:102110003B789B0707D500217720FFF77CFE2146FF
:102120005720FFF778FE31465920FFF774FE00284C
:10213000E6D1FC212846FFF73FFE18B1013C05F52A
:102140000075F6D1FD210020FFF736FE0028D7D11B
:102150000124D5E70420DAE70320D8E70220D6E7F8
:1021600000000020A50600207FB50E461546044657
:10217000002840F08F80052913D11378012B09D056
:10218000022B0AD0002B40F08580444B187020466B
:1021900004B070BDFFF7D6FDF9E7404B1B785370D4
:1021A000F5E73F4B1C7814F0010475D1FFF78AFD69
:1021B0000D2E6DD8DFE806F04807446C6C6C6C6C33
:1021C0006C6C6C4F5D6000214920FFF724FE28B144
:1021D0000124FFF78BFDFFF79BFDD8E71021684630
:1021E000FFF74CFE0028F3D09DF800109DF8093051
:1021F0009DF808208909012906D1013303EB022348
:102200009BB29B022B60E4E79DF807109DF80A0043
:10221000920902EB81029DF80610890201F44061E7
:1022200001320A449DF805105B0001F00F0101EB3B
:10223000D01103F006030B44073B02FA03F3E1E776
:102240004FF400732B80C4E7FFF7A6FDB0F1FF0445
:1022500018BF0124BDE700214920FFF7DCFD00285D
:10226000B6D110212846FFF709FEB0FA80F46409C0
:10227000AFE700214A20F0E700217A20FFF7CBFDED
:1022800030B92C1DFFF744FD05F8010BAC42F9D124
:1022900004249EE704247AE7032478E7A4060020B8
:1022A00000000020B0F5004F00D000BF70470000D4
:1022B00030B5144987B00446112213480AF0E2F9F8
:1022C0000546E0B9214611480BF0FAF86B46122298
:1022D00001A90D480AF072FB0B480AF026FE01A97D
:1022E0000B488DF815500BF0EBF81222214601A88F
:1022F000FFF760FC2146024606480BF0E1F807B004
:1023000030BD00BF35F00108B00600203BF00108E9
:1023100075F001087FF0010810B5094B1B7898B0E3
:1023200004465D2253B9074968460BF09DFD5D22C6
:102330002146684603F09AFA18B010BD0249F3E747
:102340007D2A00202CF1010889F1010830B52D4CBF
:102350009BB0054601462C480BF0B2F82B491122E0
:1023600020460AF08FF901AB02A90F2220460AF09D
:1023700025FB20460AF0D9FD2549112220460AF006
:1023800081F901AB0DF117010F2220460AF016FB6F
:1023900020460AF0CAFD1F49112220460AF072F9B0
:1023A00001AB0DF126010F2220460AF007FB204663
:1023B0000AF0BBFD1849112220460AF063F901AB6F
:1023C0000DF135010F2220460AF0F8FA20460AF0F6
:1023D000ACFD1249112220460AF054F9224621216F
:1023E00011A80AF044FF20460AF09FFD02A90C48FC
:1023F0000BF066F85D22294602A803F037FA1BB0FD
:1024000030BD00BFB0060020E6F10108ECF0010885
:10241000F4F00108FCF0010804F101080CF10108D6
:102420001EF20108F0B59DB001465D2204A803F03C
:1024300033F904A90F226E486E4F6F4E6F4D704CEA
:102440000BF0DCFD0DF11F010F226E480BF0D6FDE5
:102450000DF12E010F226C480BF0D0FD0DF13D0166
:102460000F226A480BF0CAFD04A9032203A80BF04F
:10247000C5FD03A80BF0EAFE05A93870032203A8E6
:102480000BF0BCFD03A80BF0E1FE06A97870032257
:1024900003A80BF0B3FD03A80BF0D8FE07A9B87092
:1024A000032203A80BF0AAFD03A80BF0CFFE0DF149
:1024B0001F01F870032203A80BF0A0FD03A80BF086
:1024C000C5FE0DF123013070032203A80BF096FD29
:1024D00003A80BF0BBFE0DF127017070032203A8C7
:1024E0000BF08CFD03A80BF0B1FE0DF12B01B070C9
:1024F000032203A80BF082FD03A80BF0A7FE0DF149
:102500002E01F070032203A80BF078FD03A80BF056
:102510009DFE0DF132012870032203A80BF06EFD21
:1025200003A80BF093FE0DF136016870032203A897
:102530000BF064FD03A80BF089FE0DF13A01A870C1
:10254000032203A80BF05AFD03A80BF07FFE0DF148
:102550003D01E870032203A80BF050FD03A80BF027
:1025600075FE0DF141012070032203A80BF046FD1A
:1025700003A80BF06BFE0DF145016070032203A868
:102580000BF03CFD03A80BF061FE0DF14901A070BA
:10259000032203A80BF032FD03A80BF057FE13A98A
:1025A000E07020221A480BF029FDFB780093BB78DD
:1025B0007A78397817480AF083FFF3780093B37874
:1025C0007278317814480AF07BFFEB780093AB788F
:1025D0006A78297811480AF073FFE3780093A378AA
:1025E000627821780E480AF06BFF1DB0F0BD00BF85
:1025F00055000020772700204A270020732700205D
:102600006F27002045000020350000202500002015
:102610004E2700202FF2010846F201085DF2010862
:1026200074F20108F0B5054685B00B480BF068FB65
:102630000A4B6A4603F11007164618685968144693
:1026400003C40833BB422246F7D110222946304644
:1026500003F00CF905B0F0BD8BF20108A0F20108FF
:10266000F0B589B010220546002168460BF0DAFE6D
:102670000D4B04AA03F11007164618685968144652
:1026800003C40833BB422246F7D1294610226846CC
:1026900003F002F80F22314668460BF09DFC00382B
:1026A00018BF012009B0F0BD25F0010830B58C4CF1
:1026B0008C488D4D8DB002F025FA8C4911222046B0
:1026C00009F0E0FF2246102103A80AF0D0FD03A97B
:1026D00087480AF0EDFE03A9032202A80BF08EFC46
:1026E00002A80BF0B3FD04A92870032202A80BF086
:1026F00085FC02A80BF0AAFD05A96870032202A8B8
:102700000BF07CFC02A80BF0A1FD06A9A870032227
:1027100002A80BF073FC02A80BF098FDE870C0B2A1
:102720000090AB786A7829787248734D0AF0C8FE39
:1027300020460AF0FAFB71491122204609F0A2FF57
:102740002246102103A80AF092FD03A96C480AF062
:10275000AFFE03A9032202A80BF050FC02A80BF065
:1027600075FD04A92870032202A80BF047FC02A8FB
:102770000BF06CFD05A96870032202A80BF03EFC6B
:1027800002A80BF063FD06A9A870032202A80BF0B3
:1027900035FC02A80BF05AFDE870C0B20090AB788F
:1027A0006A7829785748584D0AF08AFE20460AF080
:1027B000BCFB56491122204609F064FF2246102135
:1027C00003A80AF054FD03A951480AF071FE03A9B9
:1027D000032202A80BF012FC02A80BF037FD04A99B
:1027E0002870032202A80BF009FC02A80BF02EFDB2
:1027F00005A96870032202A80BF000FC02A80BF0E8
:1028000025FD06A9A870032202A80BF0F7FB02A879
:102810000BF01CFDE870C0B20090AB786A782978A4
:102820003C483D4D0AF04CFE20460AF07EFB3B49F9
:102830001122204609F026FF2246102103A80AF0A3
:1028400016FD03A936480AF033FE03A9032202A8A5
:102850000BF0D4FB02A80BF0F9FC04A928700322AA
:1028600002A80BF0CBFB02A80BF0F0FC05A96870E6
:10287000032202A80BF0C2FB02A80BF0E7FC06A99A
:10288000A870032202A80BF0B9FB02A80BF0DEFC33
:10289000E870C0B20090AB786A7829782148224D60
:1028A0000AF00EFE20460AF040FB20491122204685
:1028B00009F0E8FE2246212103A80AF0D8FC2022D4
:1028C00003A928460BF09AFB20460AF02EFB0023B2
:1028D0002946174885F820300AF0F2FD0DB030BDCA
:1028E000B0060020B0F2010877270020ECF00108C4
:1028F000550000202FF201084A270020F4F00108BB
:102900004500002046F2010873270020FCF0010872
:10291000350000205DF201086F27002004F1010856
:102920002500002074F201084E2700200CF1010858
:10293000CDF2010808B51149114807F0CFFC114943
:10294000114807F0CBFC1149114807F0C7FC1149A9
:10295000114807F0C3FC1149114807F0BFFC1149A9
:10296000114807F0BBFC1149114807F0B7FCBDE85E
:1029700008401049104807F0B1BC00BF814D020863
:10298000EB080208A90D020808F00108586C0208BB
:10299000D7F2010855000020ECF0010845000020A6
:1029A000F4F0010835000020FCF0010825000020AB
:1029B00004F1010813000020E1F2010810B5002223
:1029C00004464FF400711C4803F0BEFF462003F09C
:1029D0004FFC01224FF40071174803F0B5FF462069
:1029E00003F046FC03F05CFB144B15491A689B8806
:1029F0008B80144B0A601B68C1F80630124B1B68B1
:102A0000C1F80E30114B00201B68C1F80A3007F0E6
:102A1000E9F80F4A002312880121204606F07EFAC9
:102A2000204606F00DFB012805D121460948BDE8E6
:102A300010400AF045BD10BD0008024044270020A8
:102A40000801002077270020732700206F2700202F
:102A50000A000020E9F2010838B50546012209F014
:102A600011FE2C6928460AF060FAB4FA84F0400995
:102A7000800038BD10B518491848FFF7EDFFD8B9E8
:102A800017491648FFF7E8FFB0B916491348FFF792
:102A9000E3FF88B914491148FFF7DEFF60B9134915
:102AA0000E48FFF7D9FF38B911480BF029F9BDE8F6
:102AB00010400A480AF039BA0E4B0F480024012290
:102AC00004211C7003F040FF0C482246042103F04F
:102AD0003BFF0B48E9E700BFECF00108B00600201F
:102AE000F4F0010804F10108FCF001080CF1010800
:102AF00005F3010812000020000C02400010024003
:102B000039F3010808B505480122042103F01CFF30
:102B1000BDE80840024802F09FBD00BF000C024023
:102B2000C028002038B5324B1B780BBB314D2B78B9
:102B30007BB94FF4D070FFF793FD044648B92E4897
:102B40000BF0DEF82046FFF7E7FB4FF4D070FFF7FD
:102B500069FD2B78012B06D1FFF7A8FDBDE83840B1
:102B60000020FFF7F3BBBDE838400020FFF75ABC58
:102B70000020FFF7D1FB0020FFF754FC01224FF4A7
:102B800080511E4803F0E0FE642003F071FB002238
:102B90004FF48051194803F0D7FE642003F068FB1E
:102BA00001224FF48051154803F0CEFE642003F05B
:102BB0005FFB00224FF48051104803F0C5FE6420F3
:102BC00003F056FB01224FF480510C4803F0BCFE89
:102BD000642003F04DFB094800224FF4805103F0BC
:102BE000B3FE642003F044FBBDE8384003F0A6BB0D
:102BF000582A0020120000206BF30108000C02404C
:102C0000024A00231288022106F088B90800002039
:102C1000054B01225978043281F0FB01312A5970A9
:102C200003F10403F6D1704718100010054B012280
:102C30005978043281F0FB01312A597003F1040301
:102C4000F6D170474810001037B5054603F00AFB6F
:102C50002F4B30491B88009304462F4B30222846C7
:102C600006F068FB03F0FEFA04F5FA74A0420AD2FB
:102C700000222A484FF4804103F066FE284B0022D0
:102C80001A7003B030BD274C274894F900100AF0A1
:102C900017FC224800224FF4805103F055FE1F48D4
:102CA00000224FF4004103F04FFE01224FF4804117
:102CB0001A4803F049FE642003F0DAFA00224FF4C8
:102CC0008041164803F040FE642003F0D1FA01224F
:102CD0004FF48041114803F037FE642003F0C8FA36
:102CE00000224FF480410D4803F02EFE642003F0D3
:102CF000BFFA0E4804F03CFB2378013B5BB2002B8B
:102D00002370BEDA03B0BDE8304003F017BB00BF4C
:102D100008000020650000204A270020000C024027
:102D200011000020100000207BF30108F82900208A
:102D300008B505480AF0E4FF002007F0BFFABDE837
:102D4000084003F0FBBA00BFA7F3010810B5234BFE
:102D50008AB0B3F8A51093F8A720ADF80810204961
:102D60008DF80A2004460022D3F8A1000190CDE995
:102D70000412D3F8AB00D3F8AF10ADF80B208DF8E8
:102D80000D20ADF8182007AA03C20534B3F8B330FC
:102D9000138001A92046FEF7C3FA48B104A92046D2
:102DA000FEF7BEFA20B107A92046FEF7B9FA78B9B6
:102DB0000C480AF0A5FF0C4B002207A920461A7008
:102DC000FEF7AEFA10B9094B02221A700AB010BD14
:102DD00007480AF095FF074B0122F6E708EE0108C5
:102DE00075736572BDF30108060000200500002020
:102DF000C6F30108592A002038B50F4C0F49237833
:102E0000022B08BF00234FF0200200F1080008BF8A
:102E100023700BF0E1F8054620B9094801F072FE75
:102E2000257038BD074801F06DFE2378012B04BFE3
:102E3000054A1370F5E700BF050000204E2700206B
:102E4000D9F30108E7F30108592A00202DE9F047DA
:102E500001468EB004469F480AF032FB0023E25C34
:102E60002E2A03F10107DBB205D038336B4403F897
:102E7000182C3B46F3E7032B18D1BDF820209DF812
:102E80002230ADF810208DF8123004A80BF0DEF9D6
:102E90003D46C6B2625DEB1B2E2ADBB205F1010591
:102EA00019D038336B4403F8182CF3E7022B09D1FF
:102EB00030238DF810309DF820308DF811309DF8BA
:102EC0002130E0E7012BE0D143F23003ADF81030C0
:102ED0009DF82030D7E7032B1AD1BDF820209DF8AC
:102EE0002230ADF814208DF8163005A80BF0AEF99D
:102EF000AA46C7B214F80A20AAEB05032E2ADBB2B1
:102F00000AF1010A19D038336B4403F8182CF1E7A1
:102F1000022B09D130238DF814309DF820308DF824
:102F200015309DF82130DEE7012BDED143F230036E
:102F3000ADF814309DF82030D5E7032B1DD1BDF836
:102F400020209DF82230ADF818208DF81A3006A800
:102F50000BF07CF904EB0A0580465FFA80F9002447
:102F600015F8013B621CE4B2E3B104F138010DEB4A
:102F7000010404F8183C1446F2E7022B09D130236F
:102F80008DF818309DF820308DF819309DF82130DB
:102F9000DBE7012BDBD143F23003ADF818309DF8AD
:102FA0002030D2E7032C1ED1BDF820209DF822301E
:102FB000ADF81C208DF81E30474C07A80BF046F9E1
:102FC0002378B342C0B223D16378BB4220D1A37827
:102FD0004B451DD1E37883421AD140480AF090FE58
:102FE0000EB0BDE8F087022C09D130238DF81C30DB
:102FF0009DF820308DF81D309DF82130DAE7012C46
:10300000DAD143F23003ADF81C309DF82030D1E71F
:10301000E0702670677084F802905FFA88F3009081
:103020003A462F4831460AF04BFA2E4B1D78012DB7
:1030300037D12D492D48122209F024FB0028CFD189
:103040002B480AF05DFE0A2304A903220AA88DF882
:103050000C302E240AF0D2FF05A903220BA88DF80C
:103060002B400AF0CBFF06A903220CA88DF82F40B5
:103070000AF0C4FF07A903220DA88DF833400AF017
:10308000BDFF2A4603A90DF137000AF0B7FF09ABCF
:1030900010220AA9154809F067FD144809F045FFF8
:1030A0009EE714480AF02CFE0322002104A802F037
:1030B000DDFB0322042105A802F0D8FB032208212E
:1030C00006A802F0D3FB03220C2107A802F0CEFBD6
:1030D00086E700BFFAF30108772700200CF4010807
:1030E0002EF4010812000020ECF00108B0060020C8
:1030F00049F401086FF401082DE9F04300238FB073
:103100000446E25C2E2A03F10106DBB205D0383317
:103110006B4403F8182C3346F3E7032B18D1BDF8A2
:1031200020209DF82230ADF810208DF8123004A830
:103130000BF08CF83746C5B2E25DBB1B2E2ADBB222
:1031400007F1010719D038336B4403F8182CF3E763
:10315000022B09D130238DF810309DF820308DF8E6
:1031600011309DF82130E0E7012BE0D143F230032C
:10317000ADF810309DF82030D7E7032B1AD1BDF8F9
:1031800020209DF82230ADF814208DF8163005A8C7
:103190000BF05CF8B946C6B214F80920A9EB070396
:1031A0002E2ADBB209F1010919D038336B4403F838
:1031B000182CF1E7022B09D130238DF814309DF83B
:1031C00020308DF815309DF82130DEE7012BDED15F
:1031D00043F23003ADF814309DF82030D5E7032BCF
:1031E0001DD1BDF820209DF82230ADF818208DF8B3
:1031F0001A3006A80BF02AF804EB090207465FFA1A
:1032000080F8002412F8013B611CE4B2E3B104F140
:1032100038000DEB000404F8183C0C46F2E7022BD2
:1032200009D130238DF818309DF820308DF81930F1
:103230009DF82130DBE7012BDBD143F23003ADF801
:1032400018309DF82030D2E7032C1ED1BDF8202085
:103250009DF82230ADF81C208DF81E30454C07A893
:103260000AF0F4FF2378AB42C0B223D16378B342B3
:1032700020D1A37843451DD1E37883421AD13E483B
:103280000AF03EFD0FB0BDE8F083022C09D13023D7
:103290008DF81C309DF820308DF81D309DF82130C0
:1032A000DAE7012CDAD143F23003ADF81C309DF897
:1032B0002030D1E72570E070667084F80280FBB2A0
:1032C000009029462D4832460AF0FAF82C4B1D781A
:1032D000012D37D12B492C48122209F0D3F90028AF
:1032E000D0D12A480AF00CFD0A2304A903220AA817
:1032F0008DF80C302E240AF081FE05A903220BA8BC
:103300008DF82B400AF07AFE06A903220CA88DF84E
:103310002F400AF073FE07A903220DA88DF8334051
:103320000AF06CFE2A4603A90DF137000AF066FE8A
:1033300009AB10220AA9144809F016FC124809F03A
:10334000F4FD9FE712480AF0DBFC03222D2104A8BC
:1033500002F08CFA0322312105A802F087FA032239
:10336000362106A802F082FA03223A2107A802F0C9
:103370007DFA87E76F27002099F40108BAF4010865
:103380001200002004F10108B0060020D5F4010865
:10339000FBF401082DE9F04300238FB00446E25C02
:1033A0002E2A03F10106DBB205D038336B4403F853
:1033B000182C3346F3E7032B18D1BDF820209DF8D5
:1033C0002230ADF810208DF8123004A80AF03EFF2C
:1033D0003746C5B2E25DBB1B2E2ADBB207F10107FF
:1033E00019D038336B4403F8182CF3E7022B09D1BA
:1033F00030238DF810309DF820308DF811309DF875
:103400002130E0E7012BE0D143F23003ADF810307A
:103410009DF82030D7E7032B1AD1BDF820209DF866
:103420002230ADF814208DF8163005A80AF00EFFF2
:10343000B946C6B214F80920A9EB07032E2ADBB25D
:1034400009F1010919D038336B4403F8182CF1E75E
:10345000022B09D130238DF814309DF820308DF8DF
:1034600015309DF82130DEE7012BDED143F2300329
:10347000ADF814309DF82030D5E7032B1DD1BDF8F1
:1034800020209DF82230ADF818208DF81A3006A8BB
:103490000AF0DCFE04EB090207465FFA80F800241C
:1034A00012F8013B611CE4B2E3B104F138000DEB0A
:1034B000000404F8183C0C46F2E7022B09D1302333
:1034C0008DF818309DF820308DF819309DF8213096
:1034D000DBE7012BDBD143F23003ADF818309DF868
:1034E0002030D2E7032C1ED1BDF820209DF82230D9
:1034F000ADF81C208DF81E30454C07A80AF0A6FE3A
:103500002378AB42C0B223D16378B34220D1A378F1
:1035100043451DD1E37883421AD13E4801F0F2FAC7
:103520000FB0BDE8F083022C09D130238DF81C3098
:103530009DF820308DF81D309DF82130DAE7012C00
:10354000DAD143F23003ADF81C309DF82030D1E7DA
:103550002570E070667084F80280FBB20090294606
:103560002D48324609F0ACFF2C4B1D78012D37D188
:103570002B492C48122209F085F80028D0D12A487E
:103580000AF0BEFB0A2304A903220AA88DF80C3016
:103590002E240AF033FD05A903220BA88DF82B4039
:1035A0000AF02CFD06A903220CA88DF82F400AF082
:1035B00025FD07A903220DA88DF833400AF01EFD52
:1035C0002A4603A90DF137000AF018FD09AB1022B5
:1035D0000AA9144809F0C8FA124809F0A6FC9FE7A6
:1035E00012480AF08DFB03221E2104A802F03EF9C6
:1035F0000322222105A802F039F90322262106A878
:1036000002F034F903222A2107A802F02FF987E7F4
:103610007327002025F5010848F501081200002055
:10362000FCF00108B006002063F5010889F50108E7
:103630002DE9F04300238FB00446E25C2E2A03F10B
:103640000106DBB205D038336B4403F8182C33463F
:10365000F3E7032B18D1BDF820209DF82230ADF8F8
:1036600010208DF8123004A80AF0F0FD3746C5B2DC
:10367000E25DBB1B2E2ADBB207F1010719D03833FC
:103680006B4403F8182CF3E7022B09D130238DF893
:1036900010309DF820308DF811309DF82130E0E792
:1036A000012BE0D143F23003ADF810309DF820300B
:1036B000D7E7032B1AD1BDF820209DF82230ADF8B2
:1036C00014208DF8163005A80AF0C0FDB946C6B220
:1036D00014F80920A9EB07032E2ADBB209F101092E
:1036E00019D038336B4403F8182CF1E7022B09D1B9
:1036F00030238DF814309DF820308DF815309DF86A
:103700002130DEE7012BDED143F23003ADF8143077
:103710009DF82030D5E7032B1DD1BDF820209DF862
:103720002230ADF818208DF81A3006A80AF08EFD68
:1037300004EB090207465FFA80F8002412F8013B07
:10374000611CE4B2E3B104F138000DEB000404F8AD
:10375000183C0C46F2E7022B09D130238DF81830C3
:103760009DF820308DF819309DF82130DBE7012BD2
:10377000DBD143F23003ADF818309DF82030D2E7AA
:10378000032C1ED1BDF820209DF82230ADF81C205E
:103790008DF81E30454C07A80AF058FD2378AB423F
:1037A000C0B223D16378B34220D1A37843451DD161
:1037B000E37883421AD13E4801F0A4F90FB0BDE886
:1037C000F083022C09D130238DF81C309DF8203075
:1037D0008DF81D309DF82130DAE7012CDAD143F263
:1037E0003003ADF81C309DF82030D1E72570E07033
:1037F000667084F80280FBB2009029462D4832465C
:1038000009F05EFE2C4B1D78012D37D12B492C4839
:10381000122208F037FF0028D0D12A480AF070FAA7
:103820000A2304A903220AA88DF80C302E240AF0DA
:10383000E5FB05A903220BA88DF82B400AF0DEFB5F
:1038400006A903220CA88DF82F400AF0D7FB07A980
:1038500003220DA88DF833400AF0D0FB2A4603A9B5
:103860000DF137000AF0CAFB09AB10220AA914486F
:1038700009F07AF9124809F058FB9FE712480AF05C
:103880003FFA03220F2104A801F0F0FF03221321C5
:1038900005A801F0EBFF0322172106A801F0E6FFBF
:1038A00003221B2107A801F0E1FF87E74A27002038
:1038B000B3F50108D6F5010812000020F4F0010864
:1038C000B0060020F1F5010817F6010810B5014611
:1038D0000446174809F0F4FD16480AF011FA164B91
:1038E0001B78012B19D115491548122208F0CAFE80
:1038F000E8B914480AF004FA00220023104809F03D
:1039000025FB0F49204609F0D7FC0D4809F060FA65
:10391000BDE810400A4809F008BB0B480AF0F0F96E
:1039200020462122BDE810403C2101F09FBF10BD80
:1039300041F6010834FE0108120000200CF10108D4
:10394000B006002059F601087BF60108F7B5144FC0
:1039500004460D46134816460821012202F0F4FFE2
:103960003B7833B9104900962B463022204605F0AB
:10397000E1FC3B78012B06D10C4900962B46302206
:10398000204605F0D7FC07480022082102F0DCFFA2
:103990002821142003B0BDE8F04001F093BA00BF25
:1039A0007D2A0020000C0240781000101810001032
:1039B0002DE9F04385B0DFF86082ADF80E20DFF826
:1039C0005C92012205460E4686484FF4805102F073
:1039D000BBFF10218448012202F0B6FF02F042FC36
:1039E000D8F8001099F800300131012B0446C8F8CE
:1039F000001040F0AC807D4B984235D940F6B8338A
:103A0000B1FBF3F703FB171777BB794B1A78012A41
:103A10002AD13C26774DB0FBF5F54FF47A72B0FB16
:103A2000F2F2B2FBF6F006FB10221F704EF6602099
:103A30001823B4FBF0F00192B0FBF6F206FB120083
:103A400000906D4AB5FBF3FC6C48B4FBF2F203FB4B
:103A50001C5301F039F8634800224FF4805102F002
:103A600073FF05B0BDE8F083654B48F6CF324B439A
:103A7000B2EBB31F21D34FF03C0C4FF47A72B4FB7E
:103A8000F2F2B2FBFCFE0CFB1E22182301924EF652
:103A90006022B4FBF2F2B2FBFCFE0CFB1E22554886
:103AA0000092B4FBF0F0544AB0FBF3F7B4FBF2F22F
:103AB00003FB1703534801F007F80DF10E035249B9
:103AC000009330223346284605F0DCFC4E4801F0D6
:103AD0005BF8074600283AD101224FF48041424862
:103AE00002F032FF642002F0C3FB3A464FF48041FB
:103AF0003D4802F029FF642002F0BAFB01224FF496
:103B00008041394802F020FF642002F0B1FB3A46C0
:103B10004FF48041344802F017FF642002F0A8FB04
:103B200001224FF48041304802F00EFF642002F081
:103B30009FFB3A464FF480412B4802F005FF64207A
:103B400002F096FB31480AF0DBF8FFF7F1F899F83C
:103B5000003093BBD8F80010294B48F6CF324B43C6
:103B6000B2EBB31F20D33C274FF47A72B4FBF2F2CE
:103B7000B2FBF7FE07FB1E22182301924EF66022CD
:103B8000B4FBF2F2B2FBF7FE07FB1E2219480092CB
:103B9000B4FBF0F0184AB0FBF3FCB4FBF2F203FB09
:103BA0001C031B4800F090FF0DF10E030093194910
:103BB00033463022284605F065FC2821142001F008
:103BC000A1F94FF48041074802F0B8FE012808BF70
:103BD000074B4FF0000208BF18701021024802F096
:103BE000B3FE38E700040240000C0240A08601004A
:103BF0006F2A002080EE3600005C2605A1F6010841
:103C0000DBD453BEE5F601084810001020F7010888
:103C100043F70108A8100010702A00207D2A002018
:103C20002DE9F04FC44E337885B00446E3B9C34D57
:103C30002B78002B37D102F015FB41F287339842E5
:103C400012D801F021F978B9BD480AF059F80122DB
:103C5000FF234FF4407103A82A708DF80C3001F057
:103C600005FEB8480AF04CF83578012D1BD1B64F47
:103C70003B78C3B902F0F6FA41F28733984212D882
:103C800001F002F978B9AE480AF03AF8FF232A4663
:103C90004FF4407103A83D708DF80C3001F0E6FD43
:103CA000A8480AF02DF8A9484FF4004102F046FE5A
:103CB0000128054640F0F98102462021A44802F07F
:103CC00043FE3778002F40F07681A248DFF8D49287
:103CD0002A46202102F038FE9E483A46202102F072
:103CE00033FE4FF480539C4A9C4900939C483023F8
:103CF00004F09DF99B482A464FF4807102F024FE9F
:103D000098483A464FF4807102F01EFE90483A46B9
:103D1000202102F019FE8E482A46202102F014FECE
:103D200091498D4801F072F899F800305BB18B48E9
:103D300000F0C0FF8C4801F015F8874800F0E6FF5E
:103D4000854801F037F889498748DFF85C82884F59
:103D500001F06BF80546002800F07281854B1D6864
:103D60000135012D1D602AD17B4800F023FF00237F
:103D7000C8F80030804B1D6002F074FA4FF03C0C24
:103D800018224FF47A71B0FBF1F1B1FBFCFB0CFB94
:103D90001B117A4D0091B0FBF5F57949B5FBF2FEA8
:103DA0004EF66023B0FBF1F1B0FBF3F302FB1E52C1
:103DB000B3FBFCFA73480CFB1A3300F085FE3B683A
:103DC00001333B6099F800300025C8F8005053B12A
:103DD0000620FDF76FFC3A686B492846FDF764FE44
:103DE0002846FDF767FC3A68684F46F678139A4212
:103DF00042D13B88664900933022664B204605F04D
:103E000099FA654809F07CFF01224FF4804150483F
:103E100002F09AFD642002F02BFA00224FF4804158
:103E20004B4802F091FD642002F022FA01224FF487
:103E30008041474802F088FD642002F019FA002210
:103E40004FF48041424802F07FFD642002F010FAF6
:103E500001224FF480413E4802F076FD642002F0DA
:103E600007FA3B4800224FF4804102F06DFD6420C8
:103E700002F0FEF9FEF75CFF304B1D78012D4FD1AB
:103E8000DFF8C49099F80080B8F1000F48D13B8862
:103E90004249009330223F4B042005F04BFA404842
:103EA00009F02EFF2A464FF48041294802F04CFDCC
:103EB000642002F0DDF942464FF48041244802F0CC
:103EC00043FD642002F0D4F92A464FF48041204893
:103ED00002F03AFD642002F0CBF942464FF48041F3
:103EE0001B4802F031FD642002F0C2F92A464FF46B
:103EF0008041174802F028FD642002F0B9F94246DB
:103F00004FF48041124802F01FFD642002F0B0F926
:103F10004FF47A7089F8005002F0AAF901F03EF9E6
:103F20000B480022202102F00FFD3A881949204653
:103F3000FFF70CFD3AE000BF7D2A00206D2A00202B
:103F40007BF701088CF701086C2A0020000402406E
:103F5000000C02400008024078100010A810001069
:103F600018290020000002400C1000100010001062
:103F7000682A0020602A00200C00002080EE360015
:103F8000005C2605A7F70108E2F7010808000020F9
:103F9000C50000204A2700202FF8010895000020C6
:103FA00052F801086E2A0020642A00203A8840490D
:103FB0002046FFF7FDFC3578012D76D1FEF736FE61
:103FC0003C482A46202102F0BFFC3A48002220212A
:103FD00002F0BAFC4FF48053374A3849009338480E
:103FE000302304F024F837482A464FF4807102F059
:103FF000ABFC00224FF48071324802F0A5FCFEF7C2
:1040000007FE31480022202102F09EFC2F4B1B7836
:1040100043B92F4B1B78012B04D12E4809F070FEB9
:1040200000F0CEFF2C4D22492A882046FFF7C0FC25
:104030002A881F49204605B0BDE8F04FFFF786BC2F
:10404000D8F800300133642BC8F800307FF4CBAED1
:10405000224BDFF8988018603860C8F8000002F042
:1040600001F94FF03C0E1E4AB0FBF2FC4FF47A719E
:104070001822B0FBF1F1B1FBFEFB0EFB1B1100910E
:10408000BCFBF2F91749B0FBF1F14EF6602302FBDD
:1040900019C2B0FBF3F31448B3FBFEFA0EFB1A335C
:1040A00000F012FDC8F800509DE605B0BDE8F08FA5
:1040B0004A27002000080240181000104810001085
:1040C0001829002000000240000C02406D2A002048
:1040D0006C2A002080F8010808000020602A0020D7
:1040E00080EE3600005C2605F4F701080C00002085
:1040F000F0B5144B85B06D46044603F110072A460F
:10410000186859682E4603C60833BB423546F7D1B6
:104110001346114625780022104611F8016BB5426E
:1041200008BF80181032B2F5807FF6D16178002286
:1041300013F8014BA14208BF80180132102AF7D1B1
:1041400005B0F0BDA8F801082DE9F04712248AB0A7
:104150000DEB0402014605A8ADF81240FDF7F6FC90
:10416000224605A92D48DFF8BCA009F047FF05A9A4
:10417000022204A809F042FF04A8FFF7B9FF0DF1DD
:10418000170107468AF80000022204A809F036FF4A
:1041900004A8FFF7ADFF0DF11A0180468AF801006F
:1041A000022204A809F02AFF04A8FFF7A1FF0DF1DD
:1041B0001D0181468AF80200022204A809F01EFFB0
:1041C00004A8FFF795FF08A98AF803000222044615
:1041D00004A809F013FF04A8FFF78AFF0DF12301DB
:1041E0008AF804000222054604A809F007FF04A883
:1041F000FFF77EFFEDB2C6B2E4B28AF805005FFABF
:1042000089F30296019500945FFA88F2F9B20448A6
:1042100009F056F90AB0BDE8F08700BF130000208E
:10422000F0F80108442700202DE9F04FDFF8E48082
:104230003449354F8BB01122404608F023FA002351
:104240000022404608F082FE4246122105A809F0ED
:104250000EF805A912222D4809F0D0FE05A9022268
:1042600004A809F0CBFE04A8FFF742FF0DF11701E7
:1042700081463870022204A809F0C0FE04A8FFF7A6
:1042800037FF0DF11A0182467870022204A809F066
:10429000B5FE04A8FFF72CFF0DF11D018346B87091
:1042A000022204A809F0AAFE04A8FFF721FF08A92A
:1042B000F8700222044604A809F0A0FE04A8FFF743
:1042C00017FF0DF1230138710222054604A809F0F9
:1042D00095FE04A8FFF70CFFEDB2C6B2E4B2787108
:1042E0005FFA8BF35FFA8AF25FFA89F10296019521
:1042F0000094074809F0E4F8404608F016FE0BB0B9
:10430000BDE8F08F35F0010844270020130000209D
:1043100015F90108B006002008B5084B1B78012BE1
:104320004FF4907005D1FDF7C3FFBDE80840FFF7DB
:104330007BBFBDE80840FFF707BF00BF12000020A9
:1043400008B572B6094C01224FF48041204602F0B4
:10435000FBFA642001F08CFF204600224FF48041DC
:1043600002F0F2FA642001F083FFECE7000C024057
:1043700030B5002495B01422214603A8CDE90944A4
:104380000AF050F81F4B01941A6C42F080521A64E4
:104390001B6C03F080530193019B1B4B02941A6822
:1043A00042F480421A601B6803F480430293029B2C
:1043B0000A230893102201230820CDE90B320D9324
:1043C000A823CDE910030225072308A8CDE90E5440
:1043D0001295139302F0D2FF08B1FFF7B1FF0F233C
:1043E000CDE9033505904FF4A0524FF480530521D9
:1043F00003A8CDE9062303F09DF90028EDD115B0FF
:1044000030BD00BF00380240007000402DE9F04F81
:1044100093B00024924D01F0FFFEFFF7A9FF142294
:1044200000210DA809F0FEFF07942B6B8D4843F087
:1044300010032B632B6B03F010030793079B089467
:104440002B6B43F004032B632B6B03F004030893E3
:10445000089B09942B6B43F080032B632B6B03F0B9
:1044600080030993099B0A942B6B43F001032B6390
:104470002B6B03F001030A930A9B0B942B6B43F005
:1044800002032B632B6B03F002030B930B9B0C9427
:104490002B6B43F008032B632B6B03F008030C9387
:1044A000012206210C9B02F04FFA6E482246182189
:1044B00002F04AFA6C48012240F2012102F044FA6B
:1044C00069482246202102F03FFA684822464FF40C
:1044D000805102F039FA664822464FF2FB6102F041
:1044E00033FA6348012240F6040102F02DFA01225A
:1044F00060484FF4807102F027FA01264FF004095A
:1045000058480DA9CDE90D96CDE90F6602F03EF9A8
:104510001A2354480DA9CDE90D36CDE90F4402F018
:1045200035F9212350480DA9CDE90D36CDE90F44C9
:1045300002F02CF94FF488734B480F940DA9CDE984
:104540000D3402F023F949480F940DA9CDE90D94DB
:1045500002F01CF94FF4805344480DA9CDE90D3603
:10456000CDE90F444FF4804802F010F902233F4890
:104570000F930DA9CDE90D8402F008F94FF4004E18
:104580004FF4881339480F940DA9CDE90DE34FF48A
:10459000807B02F0FBF836480F940DA94FF0030A18
:1045A000CDE90DB402F0F2F84FF6BB6330480F943A
:1045B0000DA9CDE90D36CDF840A04FF4007702F0FB
:1045C000E5F829480DA9CDE90D76CDE90F4A02F0AD
:1045D000DDF828480DA9CDE90DB6CDE90F4A02F066
:1045E000D5F823480DA9CDE90D96CDE90F6602F067
:1045F000CDF840231E480DA9CDE90D36CDE90F4475
:1046000002F0C4F822462146282001F057FE282057
:1046100001F086FE06942B6B43F480032B632B6B17
:1046200003F480032246214606934520069B01F0B1
:1046300045FE452001F074FE0F48104B04614FF415
:10464000E1390C25C0E90039C0E90244C0E905544C
:10465000C46103F0CBFF034690B1FFF771FE00BFCA
:1046600000380240001002400008024000040240EE
:10467000000C0240000002403828002000140140D5
:10468000CA48CB4A87614FF4827A4FF0100B0A2454
:10469000C0E90233C0E90433C0E907B3C0E9093314
:1046A000C0E9002AC46203F0B9FB03460028D4D154
:1046B000C048C14AC0E90233C0E90433C0E9083345
:1046C000C0E90A34C0E9002AC0E9067B03F0A6FB72
:1046D00003460028C1D1B948B94A8761C0E9002A18
:1046E0000822C0E90233C0E90436C0E90723C0E963
:1046F0000933C46203F092FB0028AED106F032FA0F
:10470000B048B14B036003F067F907460028A4D115
:10471000014614220DA809F085FEAC4CAC4B059760
:10472000C4E900374FF07F0CFF232046C4E902C3E1
:10473000C4E90477A76103F099F900288DD1CDE988
:104740001000ADF834008DF8360032460DA9204631
:1047500003F0E5F9002880D19E4B0593324605A968
:10476000204603F04DFA034600287FF476AF9A48BE
:104770009A4A9B4C0362C0E90233C0E90483C0E952
:104780000633C0E9004202F0D5FA034600287FF460
:1047900064AF9448944AC0E90233C0E90029C0E9F3
:1047A0000435C0E9063303F021FF00287FF455AF3C
:1047B0008E4CDFF8A4820523C4E9008320464FF421
:1047C000FA63A36002F0ADFD00287FF446AF88488D
:1047D000884B036001F0D8FD034600287FF43DAF0D
:1047E00085488649864A03624FF48045C0E9001235
:1047F000C0E90233C0E90453C0E9063302F09AFA73
:10480000074600287FF429AF0126DFF850927D4843
:1048100089F800603246294602F096F8642001F0DB
:1048200027FD3A462946774802F08EF8642001F0C9
:104830001FFD32462946734802F086F8642001F0D5
:1048400017FD3A4629466F4802F07EF8642001F0D1
:104850000FFD324629466B4802F076F8642001F0DD
:1048600007FD3A462946674802F06EF8642001F0D9
:10487000FFFC654809F044FA32460221634808F01B
:104880001FFE634B634820221A7015233422CDE9A2
:1048900001320A23009304231A464FF4FD6108F005
:1048A0000FFE5D484FF4807102F048F85B4B002822
:1048B00040F0DD8018705A4809F022FA0623636040
:1048C000C4F8008041F664132046A36002F029FD7D
:1048D00000287FF4C2AE53495348002207F0A8FED7
:1048E000FEF7C8F8FFF718FDFEF70CF9FEF71AF906
:1048F0000020FEF763F800F091FE0420FEF780F937
:104900004A4B4B494B48012205F0C8FCFEF712F810
:1049100099F80030B3B30020FCF7CCFE01F0A2FC04
:1049200045494FF47A72B0FBF2F20020FDF7BCF873
:1049300042490020FDF7B8F80120FCF7BBFE4049D2
:104940000020FDF7B1F80220FCF7B4FE3D4900203D
:10495000FDF7AAF80320FCF7ADFE39490020FDF76A
:10496000A3F80420FCF7A6FE35490020FDF79CF8CB
:104970000620FCF79FFE34490020FDF795F8002043
:10498000FCF798FE314D324E2B78012B7AD0002067
:1049900005F080FF2B78002B40F084802D4C23788D
:1049A000002B5DD10420FFF73BF959E0C02800201F
:1049B000003C0040702900200030014018290020F0
:1049C00000380040E829002000080650C8290020CF
:1049D0000028004001050923042A0020801A06004F
:1049E000005400407C28002000440040F8290020AA
:1049F000D0270020003002407C27002000580040D3
:104A0000A0860100000C024039F901086BF9010889
:104A10008801010889F90108000802407D2A002068
:104A2000B3F90108AFF201080817002001000020C7
:104A30000008001000000010D2F90108E6F9010892
:104A4000EEF90108F6F90108FEF901087C2A0020B8
:104A50005C2A002011000020003000406E2A002057
:104A60002378012B90D10420FEF7EEF88CE7124852
:104A70001E7009F045F906236360C4F8008041F612
:104A8000583321E7346801F0EDFB04F5922404F576
:104A900078748442BFF47BAF084809F031F9FEF71F
:104AA00047F977E7064B1B78002B7FF46DAF05487D
:104AB00002F05EFC68E700BFC1F9010806FA0108D0
:104AC000592A0020F82900200FB400B5ADF5037D68
:104AD00084AB4FF4007153F8042B019302A808F043
:104AE0006FFE02A8FCF77CFC02A982B2044803F026
:104AF00001FE0DF5037D5DF804EB04B0704700BFC7
:104B0000382800200FB400B5ADF5037D84AB4FF419
:104B1000007153F8042B019302A808F051FE02A87B
:104B2000FCF75EFC4FF0FF3382B202A9044803F0A9
:104B30008BFD0DF5037D5DF804EB04B0704700BFFD
:104B4000382800202DE9F0410D4FDFF838800E465F
:104B500015460024AC4202DB2846BDE8F0814FF642
:104B6000FF7301223119384603F06EFD98F80030CA
:104B70001BB1315D0020FCF769FD0134EAE700BF9D
:104B8000382800206E2A002010B50849302204463B
:104B900009F022FA40B106493022204609F01CFAF9
:104BA00000280CBF0120022010BD00BFC50000205E
:104BB0009500002010B50446AEB00520FCF77AFD44
:104BC00094F82F302D9394F82B302C9394F82730B1
:104BD0002B9394F823302A93E37F2993E37E289341
:104BE000E37D2793E37C2693E37B2593E37A249369
:104BF000E3792393E378229394F82E30219394F869
:104C00002A30209394F826301F9394F822301E9374
:104C1000A37F1D93A37E1C93A37D1B93A37C1A9358
:104C2000A37B1993A37A1893A3791793A378169368
:104C300094F82D30159394F82930149394F8253076
:104C4000139394F821301293637F1193637E109332
:104C5000637D0F93637C0E93637B0D93637A0C9358
:104C600063790B9363780A9394F82C30099394F842
:104C70002830089394F82430079394F82030069352
:104C8000237F0593237E0493237D0393237C029348
:104C9000237B0193237A009323792278044900200F
:104CA000FCF702FF00202EB0BDE81040FCF702BD6B
:104CB00022FA010810B504468AB00120FCF7FAFC7C
:104CC00094F82C30099394F82830089394F8243001
:104CD000079394F820300693237F0593237E049353
:104CE000237D0393237C0293237B0193237A0093F8
:104CF0002379227804490020FCF7D6FE00200AB070
:104D0000BDE81040FCF7D6BCE9FA010810B504462E
:104D10008AB00320FCF7CEFC94F82E30099394F867
:104D20002A30089394F82630079394F8223006939B
:104D3000A37F0593A37E0493A37D0393A37C029397
:104D4000A37B0193A37A0093A379A278044900205E
:104D5000FCF7AAFE00200AB0BDE81040FCF7AABC90
:104D6000E9FA010810B504468AB00220FCF7A2FC5B
:104D7000E37A0993A37A0893637A0793237A0693D5
:104D8000E3790593A37904936379039323790293D9
:104D9000E3780193A3780093637822780449002094
:104DA000FCF782FE00200AB0BDE81040FCF782BC90
:104DB000E9FA010810B504468AB00420FCF77AFC31
:104DC00094F82F30099394F82B30089394F82730F7
:104DD000079394F823300693E37F0593E37E0493CF
:104DE000E37D0393E37C0293E37B0193E37A0093F7
:104DF000E379E27804490020FCF756FE00200AB06F
:104E0000BDE81040FCF756BCE9FA010870B50E4643
:104E1000441C0025214670190122013509F0EEF8E5
:104E20000C2D04F10404F5D170BD08B50C2209F075
:104E3000D3F8003818BF012008BD000007B50E4B9D
:104E40001B789BB90D4808F05BFF882301224FF4C3
:104E5000407101A88DF8043000F008FD084808F002
:104E60004FFFFDF765FF03B05DF804FB054803B095
:104E70005DF804EB08F044BF7D2A002028FB010800
:104E80005DFB010877FB010807B501224FF4407173
:104E900001A800F001FC9DF80400883818BF01202B
:104EA00003B05DF804FB07B501224FF4806101A84F
:104EB00000F0F2FB9DF80400883818BF012003B011
:104EC0005DF804FB38B50D4C2368013383420D4671
:104ED000236005D10A4800224FF4805101F034FDCF
:104EE00023689D4209D1002323600548BDE838406E
:104EF00001224FF4805101F027BD38BD782A0020EF
:104F0000000C024038B5124C2368013383420D4631
:104F100023600BD10F4800224FF4804101F014FDB3
:104F20000C4800224FF4004101F00EFD23689D4221
:104F30000CD100230748236001224FF4004101F007
:104F400003FDBDE83840044802F012BA38BD00BF86
:104F5000742A0020000C0240F829002010B58CB003
:104F6000134604460A466846044909F0FFF86946B4
:104F7000204608F09DFA0CB010BD00BFA3FB01084D
:104F800010B58EB001F6E4420446084902A809F0C3
:104F9000EDF8074B019301A9204609F0BBF902A9DE
:104FA000033008F085FA0EB010BD00BFB1FB010858
:104FB0005F5F5F0001460148FFF786BDB7FB010850
:104FC0002DE9FF474848DFF834A1DFF8349108F0B5
:104FD00097FE40F6B833ADF80E3001F043F900F516
:104FE000EA370026C03701F03DF98742804605D2F6
:104FF0003E4808F085FEFDF79BFEF4E74FF40041C4
:10500000504601F09BFC01280546ECD10DF10E0342
:105010003749009330224B46042004F033FA3448D9
:10502000FFF7B2FD044600283AD12A464FF48041EA
:10503000304801F089FC642001F01AF922464FF44F
:1050400080412C4801F080FC642001F011F92A46CF
:105050004FF48041274801F077FC642001F008F903
:1050600022464FF48041234801F06EFC642001F099
:10507000FFF82A464FF480411E4801F065FC642089
:1050800001F0F6F822464FF480411A4801F05CFC2A
:10509000642001F0EDF8184808F032FEFDF748FEF4
:1050A00013484146FFF76CFFBDF80E3000931049DE
:1050B0004B4630220420013604F03CF9012E06D084
:1050C0004FF4FA72B6FBF2F302FB136313B908480C
:1050D000FFF770FF28211420FFF7F4FE2821142089
:1050E000FFF710FF7FE700BFBFFB0108DCFB0108F3
:1050F00038110010000C024020F7010800040240A3
:105100004A27002030B591B00A4604461C4904A83D
:1051100009F02CF81B4B019301A9204609F0FAF87D
:1051200004A9033008F0C4F9174B029302A92046E2
:1051300009F0F0F8154B0393C51C03A9204609F0AC
:10514000E9F8134B441BE4B222462946184608F0FE
:1051500055FF0022025509F07DF80E4B1B684FF4F5
:10516000FA72B3FBF2F102FB1133044633B901F0DA
:1051700079F8214602460848FFF7A6FC11B030BD79
:105180000AFC01083A3A3A002A2A2A005F5F5F00C7
:105190007E2A0020942A00200DFC0108F0B52E483C
:1051A0002E4F2F4D85B008F0ABFD40F6B833ADF86B
:1051B0000E3001F057F8064601F054F806F5EA33D0
:1051C000C0338342044605D2264808F099FDFDF716
:1051D000AFFDF1E74FF40041384601F0AFFB012885
:1051E000EAD129684CF250330131994229600DD13E
:1051F0001D4808F065F940F6B8331C490093302289
:105200001B4B042004F096F8FDF792FD296819481D
:105210002246FFF7A3FEBDF80E3000931549144B4C
:105220003022042004F086F80DF10E0330221249DA
:10523000009304200E4B04F025F901F013F8014609
:105240000D48FFF75FFF28211420FFF73BFE2821C0
:105250001420FFF757FEAFE72CFC010800040240C2
:10526000942A0020DCFB010847FC0108C50000204F
:105270004A270020D81000100811001007B50A486E
:1052800008F03EFD882301224FF4806101A88DF8CB
:10529000043000F0EBFA054808F032FDFDF748FD58
:1052A00003B05DF804FB00BF63FC010883FC010848
:1052B0001B4BF7B51B4C00221A70082323801A4B96
:1052C0001D880F46691C1980184B6DBAA5801D8872
:1052D000691C6DBA19800646E580E31D02F00701DE
:1052E0000132202A03F8011FF8D100230D4910488C
:1052F0006380282201F058F840F6B83340BA608045
:105300000849009328223B46304604F013F828B998
:10531000084808F0F5FC002003B0F0BD0648F8E7A7
:10532000332B0020342B0020F8000020F600002052
:10533000D027002094FC0108B4FC0108F0B52B4EE6
:1053400087B040F6B83307460C4615460021962232
:105350003046ADF8163009F065F80DF116030093EC
:105360002A4623463146384604F08CF8337813BB7E
:1053700082B231461E48B78801F016F8C14389B29F
:105380004FF6FF73994205D01A4808F099F80020AB
:1053900007B0F0BD7FBABFB20635CDE90175E3783D
:1053A0000093A37862782178134808F089F8134BAA
:1053B00001221A70EBE7082B14D17188B788F688A0
:1053C00019B10F48002208F07BF80635CDE90265D7
:1053D0000197E3780093A37862782178094808F070
:1053E0006FF8E4E7084808F08BFCD0E79A2A002021
:1053F000D0270020BFFC0108D3FC0108332B00207C
:1054000000FD01082BFD01086DFD01082DE9FF419C
:1054100004466848684D08F073FC04272B78042B79
:105420002DD8DFE803F003094164BB00634808F0AE
:1054300067FC01232B7022E061484FF0010808F05F
:105440005FFC08EB8400C00000F5407003F09AFB9D
:105450000646D8B9204603F023FD41F208404146F4
:1054600000EB441003F0BCFB334640F6B832032196
:10547000204603F053FD10B1524808F041FC013FB3
:1054800017F0FF07CAD104B0BDE8F0813228F6D189
:105490004D4808F035FC4D4A002313704C4A1370F8
:1054A0004C4A13700223C5E74B4808F029FC474BD0
:1054B0001B780F2B01D90423BCE7454E337853B931
:1054C0004649444A46481370CB7800938B784A7813
:1054D000097807F0F5FF33784049013320463370EF
:1054E000FFF7E6FE03232B703E4B00221A703E4866
:1054F000374EDFF8F08008F003FC204603F037FC5D
:105500000246C0B135492046FFF718FF31490A78F5
:1055100001320A70354A1278034662B198F80020C9
:105520003178334807F0CCFF02232B703378042BFB
:1055300004BF0523337098F80030322B26D92D484C
:1055400008F0DEFB002388F8003002232B7033784C
:10555000042B1ED105233370DFF878801F4998F89B
:1055600000302548C3F10402CDE90132CB78009325
:105570008B784A78097807F0A3FF144A002388F84B
:105580000030337013780133137078E7013388F8F3
:1055900000303378052B7FF472AFDDE7174808F051
:1055A000AFFB174808F0ACFB204603F079FC002362
:1055B00040E700BF7BFD0108992A002097FD010804
:1055C000A3FD0108B5FD0108D1FD0108982A0020BE
:1055D000322B0020312B0020E3FD01084A27002058
:1055E000EEFD0108302B002001FE0108332B0020C6
:1055F00012FE010826FE010836FE01085AFE0108C7
:1056000070FE010808B5044808F07AFBBDE80840C0
:105610000620FFF7FBBE00BF83FE010807B5FFF7BA
:1056200042FC90B90A4808F06BFBFF2301224FF4BB
:10563000806101A88DF8043000F018F9054808F0E1
:105640005FFBFFF7DFFFFDF773FB03B05DF804FBC3
:1056500096FE01089EFE0108014B1860704700BFCE
:105660005C2B002070B50B4E04460D46306890F858
:10567000513053B142F210732A46214602F02AFCFF
:1056800038B1BDE87040FEF75BBE012000F0F0FDD0
:10569000ECE770BD5C2B0020F7B51A4F05460C46B1
:1056A00016463B6893F85130012B23D1032316484B
:1056B0008DF804300421230C002264BA8DF80530E3
:1056C000ADF8064001F040F904210DEB0100FFF7B1
:1056D000C9FF38684FF47A733246294602F097FDC5
:1056E00002280BD008480122042101F02DF90120E5
:1056F00003B0F0BD012000F0BBFDD2E7012000F0B7
:10570000B7FDE6E75C2B00200010024013B50A4C01
:1057100000222046042101F017F9062301A80121E7
:105720008DF80430FFF79EFF01220421204601F08E
:105730000BF902B010BD00BF0010024037B50A4C93
:10574000042500222046042101F0FEF80DEB05009F
:1057500001218DF80450FFF785FF012229462046DC
:1057600001F0F2F803B030BD0010024037B5052358
:10577000002214488DF8002004218DF8043001F037
:10578000E3F8012101A8FFF76DFF0F4D2868C8233A
:105790000122694602F03BFD02284FF001000ED0C5
:1057A00000F066FD9DF8000010F00104EED1054800
:1057B0000122042101F0C8F8204603B030BD00F0FA
:1057C00057FDE3E7001002405C2B00202DE9F74372
:1057D000DFF8949007460C469046D9F8003093F8CD
:1057E0005130012BDEB239D1FFF790FF02238DF843
:1057F0000430230C64BA8DF80530ADF80640FFF78D
:1058000085FF18480022042101F09EF804210DEBC9
:105810000100FFF727FF0524D9F800004FF47A7341
:105820004246394602F056FB0228054606D10520BD
:10583000013C00F01DFD14F0FF04EDD10122042114
:10584000084801F081F8FFF791FFFFF777FF012D7E
:1058500008BF0226304603B0BDE8F083012000F007
:1058600007FDBAE7001002405C2B00202DE9F0474D
:1058700011F0FF0A05460F4614465FFA82F81AD166
:10588000FF2A2ED9140A4FF4807239462846FFF7B2
:105890009DFF0128064641D1013CA4B207F580775F
:1058A00005F58075002CEED1B8F1000F36D04246D8
:1058B0003946284615E0CAF58079FF2A1FFA89F98A
:1058C00013D8C1450DD24A46FFF780FF012806468E
:1058D00024D1A8F58072524492B209EB070105EB7E
:1058E0000900BDE8F047FFF771BF4A46FFF76EFFBA
:1058F0000128064612D1A4F580741AFA84F44D44A6
:105900001FFA84F84F4404F47F442C447F1BA542C3
:1059100005EB070105D118F0FF02CAD13046BDE8FA
:10592000F0874FF480722846FFF750FF012802D11C
:1059300005F58075EBE70646F0E7000082B00C4BFA
:10594000002100915A6C42F480425A645A6C02F46D
:1059500080420092009A01911A6C42F080521A64BF
:105960001B6C03F080530193019B02B0704700BF92
:10597000003802400268094B9A4282B00BD10023E2
:105980000193074B1A6B42F480521A631B6B03F4AA
:1059900080530193019B02B0704700BF003002406A
:1059A0000038024030B514228BB0044600210DEBC4
:1059B000020008F037FD2368274A934224D1274C80
:1059C00000250195236B43F002032363236B03F04F
:1059D00002030193019BC0201223CDE905034FF080
:1059E000030C04231E4805A9CDE908C300F0CEFE30
:1059F0000295236C43F400132364236C03F4001317
:105A00000293029B0BB030BD164A9342FAD1134C5D
:105A1000134800250395236B43F002032363236B94
:105A200003F002030393039B4FF440621223CDE97A
:105A3000052303210423CDE9081305A900F0A6FEE0
:105A40000495236C43F480032364236C03F48003E4
:105A50000493049BD6E700BF005400400038024086
:105A600000040240005800400268094B9A4282B08C
:105A70000BD100230193074B5A6B42F040025A634B
:105A80005B6B03F040030193019B02B0704700BFC2
:105A900000080650003802401FB5044610220021BD
:105AA000684608F0BFFC2268094B9A420ED10223D7
:105AB000009368464FF40073039301F0F5FE08B1BC
:105AC000FEF73EFC034B0122C3F83C2E04B010BD90
:105AD0000028004000004742F0B504468DB0142273
:105AE000002107A808F09EFC2368534A934223D163
:105AF000524B5348002100915A6C42F480525A6430
:105B00005A6C02F480520092009A01911A6B42F092
:105B100001021A631B6B03F001030193019BE02256
:105B200002230321CDE907230523CDE90A1307A9A1
:105B300000F02CFE0DB0F0BD424A934240D13F4BE5
:105B4000414800220292196C41F480411964196C99
:105B500001F48041029102990392196B41F0040112
:105B60001963196B01F004010391039904921A6BF4
:105B700042F002021A631B6B03F002030493022635
:105B800003250524049B07A90423CDE90736012733
:105B9000CDE90A5400F0FAFD08232B480B9407A91D
:105BA000CDE90736CDE9097500F0F0FD4FF400535B
:105BB000CDE90736CDE9097524480B9407A9B7E765
:105BC000234A9342B6D11D4B1F48002405941A6CFA
:105BD00042F400421A641A6C02F400420592059ADB
:105BE00006941A6B42F004021A631B6B03F0040361
:105BF0000693069B02274FF480630326062507A918
:105C0000CDE90737CDE90A6500F0C0FD4FF4C05378
:105C1000CDE9073707A901230B480B95CDE90936D4
:105C200000F0B4FD22462146332000F047FB33202C
:105C300000F076FB7EE700BF0030014000380240F4
:105C4000000002400038004000080240000402400A
:105C5000003C004070B514228AB0064600210DEBCE
:105C6000020008F0DFFB33683A4A93422BD13A4BEB
:105C70003A48002401941A6C42F400321A641A6CF7
:105C800002F400320192019A02941A6B42F001026E
:105C90001A631B6B03F001030293029B0C25022382
:105CA000CDE9055305A907230326CDE9086300F0D4
:105CB0006DFD26202246214600F000FB262000F044
:105CC0002FFB0AB070BD264A9342FAD1224B2548D9
:105CD000254C002503955A6C42F020025A645A6CF8
:105CE00002F020020392039A04951A6B42F0040218
:105CF0001A631B6B03F004030493049BC02202236A
:105D0000CDE9052303210823CDE9081305A900F0F7
:105D10003DFD16484FF02063C4E900034023C4E969
:105D200002354FF48063C4E9043520464FF4003354
:105D3000C4E90655C4E9083500F062FB08B1FEF776
:105D4000FFFA0022746347201146A66300F0B6FAFA
:105D50004720B4E700440040003802400000024001
:105D60000014014000080240D8270020A06402402F
:105D7000FEE7FEE7FEE7FEE7FEE770477047704785
:105D8000054A13880BB1013B1380044A13880BB1F9
:105D9000013B138000F05ABAA8060020A606002096
:105DA000014802F0A9BD00BF7C2800204FF400404C
:105DB00000F0D0BD014802F0C9BA00BFC0280020E1
:105DC000014800F025BC00BFD8270020014802F0A0
:105DD00093BD00BF382800200120704708B508F0A7
:105DE000E3FA162303604FF0FF3008BD08B508F052
:105DF000DBFA16230360FEE770B50D4614460E4627
:105E0000731B9C4201DC204670BDAFF3008006F896
:105E1000010BF5E74FF0FF3070474FF400534B6034
:105E20000020704701207047002070470B4A11681E
:105E300010B5034609B90A491160106809490A4CAE
:105E40000344091B8B4206D908F0AEFA0C23036009
:105E50004FF0FF3010BD1360FCE700BF602B002047
:105E6000681100100000022000800000044BD3F8ED
:105E7000882042F47002C3F88820024A9A60704772
:105E800000ED00E00000010830B59BB0054614A805
:105E90000C4603F03BFE9DF8653013939DF864308B
:105EA00012939DF8633011939DF8623010939DF822
:105EB0005D300F939DF85C300E939DF85B300D9331
:105EC0009DF85A300C939DF861300B939DF860302B
:105ED0000A939DF85F3009939DF85E3008939DF812
:105EE000593007939DF8583006939DF85730059325
:105EF0009DF8563004939DF8553003939DF8543027
:105F000002939DF8533001939DF8523000939DF811
:105F100050209DF851300349284608F027F9208089
:105F20001BB030BDB0FE010870B50C4609490646ED
:105F30001546FBF7F5F940B107493046FBF7F0F994
:105F400028B929462046FFF79FFF012070BD002099
:105F5000FCE700BF6FFF010878FF010838B516495C
:105F6000054604F0C1F8044600B30A2104F094F891
:105F7000C4B20F2C1CD82846104904F0B5F80546C9
:105F800030B10A2104F088F8C5B2012D28BF0125DF
:105F900021460B4807F094FA0A4B0B4833F81410CB
:105FA000012D0CBF2A46002200F0CEFC60B238BDA5
:105FB0004FF0FF30FBE700BF88FF01088CFF0108AE
:105FC00090FF010800010020000C0240F8B50E46C9
:105FD0000C49074615461C46FBF7A2F968B10A4969
:105FE0003846FBF79DF950B93046FFF7B7FF074930
:105FF000C2B2284608F0BAF820800120F8BD00207F
:10600000FCE700BF6FFF0108B4FF01080AFC0108AC
:106010000A464FF47A730146014802F0F8B800BF0F
:106020007029002007B5FF238DF8073001224FF4B7
:106030007A730DF10701044802F0E9F89DF80700B2
:1060400003B05DF804FB00BF702900200A464FF43E
:106050007A730146014801F03DBF00BF702900205E
:1060600007B54FF47A738DF8070001220DF107018F
:10607000024801F02FFF03B05DF804FB70290020F7
:1060800002480122102100F05FBC00BF0010024056
:1060900002480022102100F057BC00BF001002404F
:1060A00070B586B0FFF7ECFF2049214803F0ECFA09
:1060B0002049214803F0F6FA2049214803F004FB67
:1060C000204B02AA03F110061546186859681446B9
:1060D00003C40833B3422246F7D12946092003F00E
:1060E00075FC2946002003F071FC2946012003F0CD
:1060F0006DFC013006D114480A22012107F0E0F9B5
:1061000006B070BD0DF107010F2003F05FFC0130F8
:1061100003D10E480A220121F0E79DF80730002B39
:10612000F0D00B4807F0ECFDEAE700BF8160010802
:106130009160010861600108256001084D60010857
:1061400011600108BDEE0108C5FF0108E1FF01086B
:10615000FCFF010870477047DFF84CD01348144922
:10616000144A002302E0D458C4500433C4188C42AB
:10617000F9D311481149124A002302E0D458C450FF
:106180000433C4188C42F9D30E4A0F4C002301E0AB
:1061900013600432A242FBD3FFF768FE07F064F9F4
:1061A000FEF734F9704700000000022000000020D4
:1061B000C801002050730208000000106811001090
:1061C000B0010108C801002028380020FEE70000C7
:1061D00038B50E4B1A784FF47A73B3FBF2F30C4ACE
:1061E00005461068B0FBF3F000F0BAF8044658B961
:1061F0000F2D09D8024629464FF0FF3000F05EF817
:10620000044B20461D6038BD0120FCE71F01002023
:10621000FC0000202001002008B50B4B1A6842F456
:1062200000721A601A6842F480621A601A6842F4B6
:1062300080721A60032000F02FF80F20FFF7C8FFCC
:10624000FFF77CFB002008BD003C0240034A044BE2
:1062500011681B780B441360704700BF642B00204B
:106260001F010020014B1868704700BF642B0020FD
:1062700038B50446FFF7F6FF631C1CBF054B1B78BF
:10628000054618BFE418FFF7EDFF431BA342FAD3FE
:1062900038BD00BF1F0100200749CA6822F4E06230
:1062A0000302120403F4E063120C134343F0BF63D0
:1062B00043F40033CB60704700ED00E0164B30B57F
:1062C000DC68C4F30224C4F10703251D042B28BF96
:1062D0000423062D4FF0FF358CBF033C002405FA44
:1062E00003F321EA0303A54022EA0502A3400028A4
:1062F00043EA0203ACBF00F16040084A4FEA0313CF
:10630000B8BF00F00F00DBB2AABF00F56140135424
:1063100080F8003330BD00BF00ED00E014ED00E078
:10632000002807DB4109044A00F01F0001238340D5
:1063300042F82130704700BF00E100E0BFF34F8F0B
:106340000549064BCA6802F4E0621343CB60BFF311
:106350004F8F00BFFDE700BF00ED00E00400FA052D
:106360000138B0F1807F0BD24FF0E023054A58612D
:10637000F02182F823100020072298611A617047EB
:106380000120704700ED00E010B5044650B143799C
:1063900003F0FF0213B90271FFF7ECFA01236371F6
:1063A000002010BD0120FCE7034602205871186848
:1063B00010B5846844F00104846001EB82029142CC
:1063C00003D1012200685A7110BD51F8044B0460DA
:1063D000F5E70000036810B5084C0246D9B2103941
:1063E0001820B1FBF0F0205CD06523F47F7020F022
:1063F00003005F2988BF0430906510BD976D0208C7
:1064000070B50446FFF72EFF0546002C60D002232E
:1064100084F835302268002384F83430136823F080
:106420000103136022681368D8072ED4136832481A
:10643000A1691840D4E901352B43E5682B43256950
:106440002B4365692B43E5690B432B43256A2B439B
:106450000343606A042802BFD4E90B5635432B433B
:1064600013605369042823F0070343EA000335D17E
:10647000A06AE56A03438DB391B9012820D030F0BA
:1064800002012BD1E90129D51DE0FFF7EBFE401BEE
:106490000528C7D920230320636584F8350070BD23
:1064A000B1F5005F16D1032818D801A151F820F0EA
:1064B000C764010885640108C7640108C164010854
:1064C000B5F1C07F0AD140236365012384F83530DC
:1064D0000120E4E70228F6D90328D3D053612046EF
:1064E000FFF778FFE26D3F23934083600020012394
:1064F000606584F83530D2E73F8010F070B590F8D1
:106500003440866D012C30D0012480F8344090F85E
:106510003540012C4FF0000425D1022580F835507C
:1065200044650468256825F48025256063608368D8
:10653000402B0EBFA260A160E260C26D08BFE160A7
:106540003F239340B360236843F016032360036C3A
:106550001BB1236843F008032360236843F0010361
:106560002360002070BD80F834400220FAE770B547
:106570000446866DFFF776FE94F83530022B05460B
:1065800006D0802363650120002384F8343070BD79
:1065900023681A6822F016021A605A6922F08002F3
:1065A0005A61226C0AB9A26C1AB11A6822F0080268
:1065B0001A601A6822F001021A602368186810F045
:1065C000010007D1E26D3F239340B360012384F8BB
:1065D0003530D9E7FFF746FE401B0528EDD92023CB
:1065E0000320636584F83500CEE790F83530022B40
:1065F00003D080234365012070470268052380F89B
:106600003530136823F00103136000207047000049
:10661000F7B5002301935C4B856D1F68C36D2E6831
:1066200008229A40324204460CD0016808684007AC
:1066300008D5086820F004000860AA60626D42F086
:106640000102626501229A40324208D021684969FC
:10665000090641BFAA60626D42F00202626504222F
:106660009A40324208D021680968880741BFAA6071
:10667000626D42F00402626510229A40324210D0EC
:106680002368196809070CD5AA601A68500337D522
:106690001B68190301D4236C00E0A36C0BB12046E6
:1066A0009847E16D20228A4032423AD02368186828
:1066B000C60636D5AA6094F83520052A1A6827D16F
:1066C00022F016021A605A6922F080025A61226C86
:1066D0000AB9A26C1AB11A6822F008021A603F23A4
:1066E0008B40AB60012384F83530002384F83430CC
:1066F000236D002B45D0204603B0BDE8F04018477D
:106700001A68D2055EBF1A6822F008021A60C2E752
:10671000500327D51B68190331D4636C0BB1204695
:106720009847636D6BB3636DDA0719D522684FF430
:106730001653B7FBF3F7052384F83530136823F0BD
:1067400001031360019B0133BB42019302D813681C
:10675000DB07F7D4012384F83530002384F8343084
:10676000E36CC6E71A6812F4807208D1196821F048
:1067700010011960012384F8353084F83420E36B6C
:10678000CCE703B0F0BD00BFFC0000202DE9F74FBF
:10679000DFF8A491664A00230D6801249C4004EAB6
:1067A0000506AC4340F0AF804D68032705F00304B5
:1067B0004FEA430807FA08FC671E012F6FEA0C0C2A
:1067C00034D8876807EA0C0ECF6807FA08F747EA5B
:1067D0000E078760476827EA060EC5F300179F403B
:1067E00047EA0E074760C76807EA0C0E8F6807FA8A
:1067F00008F747EA0E07022CC76019D14FEAD30AFF
:1068000000EB8A0A03F0070BDAF820704FEA8B0BD3
:106810004FF00F0E0EFA0BFE27EA0E0E0F6907FA65
:106820000BF747EA0E07CAF8207001E0032CDAD113
:10683000076804FA08F407EA0C073C4315F4403FE4
:10684000046060D000240194D9F8444044F48044AA
:10685000C9F84440D9F8444023F0030707F18047C2
:1068600004F4804407F59C37019403F0030C019C69
:10687000D7F808E04FEA8C0C0F2404FA0CF42EEA47
:10688000040E2C4CA04245D004F58064A04243D0B5
:1068900004F58064A04241D004F58064A0423FD05A
:1068A00004F58064A0423DD004F58064A0423BD052
:1068B00004F58064A04239D004F58064A04214BF7E
:1068C0000824072404FA0CF444EA0E04BC6014689B
:1068D000F74315F4803F0CBF3C40344314605468C8
:1068E00015F4003F0CBF3C4034435460946815F4E9
:1068F000801F0CBF3C4034439460D468AD0254BF49
:106900003C403443D4600133102B7FF445AF03B0D7
:10691000BDE8F08F0024D5E70124D3E70224D1E7B6
:106920000324CFE70424CDE70524CBE70624C9E7F9
:10693000003C014000000240003802400369194257
:1069400014BF0120002070470AB18161704709041B
:10695000FBE70000044A5169014208B502D05061CA
:10696000FBF7A0FC08BD00BF003C014001684B697B
:1069700013F480634FF0000210D06FF480634B611A
:106980002023026380F83D3080F83E20036C80F8BD
:106990003C2043F00403036401207047184670470D
:1069A0002DE9F84606460F4691461D464FEA114A24
:1069B0003368BAF1010F0CBF5C699C6927EA0404D3
:1069C000A4B2B4FA84F46409A14501D0002017E010
:1069D0006A1CEED0FFF746FC089BC01AA84201D8FB
:1069E000002DE5D100232022336386F83D2086F870
:1069F0003E30326C86F83C3042F020023264012096
:106A0000BDE8F8862DE9F04104460F461646984643
:106A10002568686927EA000080B2C0B16B695A0531
:106A200017D52B6843F400732B606FF480636B61A0
:106A300020220023236384F83D2084F83E30236C19
:106A400043F004032364002384F83C300120BDE8B4
:106A5000F081731CDDD0FFF705FCA0EB0800B0420D
:106A600009D900232022236384F83D2084F83E3096
:106A7000236C1343E6E7002ECAD1F2E770B5044653
:106A80000D46164623685B691B0601D5002018E0F9
:106A90002046FFF76BFF98B96A1CF3D0FFF7E2FBC3
:106AA000801BA8420ED900232022236384F83D20B6
