:020000040801F1
:10000000000002201D5E01083D5A01083F5A010808
:10001000415A0108435A0108455A010800000000EE
:10002000000000000000000000000000475A010826
:10003000495A0108000000004B5A01084D5A0108B6
:10004000915E0108915E0108915E0108915E0108D0
:10005000915E0108915E0108915E0108915E0108C0
:10006000915E0108915E0108915E0108915E0108B0
:10007000915E0108915E0108915E0108915E0108A0
:10008000915E0108915E0108915E0108915E010890
:10009000915E0108915E0108915E0108915E010880
:1000A000915E0108915E0108915E0108915E010870
:1000B000915E0108915E0108915E0108915E010860
:1000C000915E0108915E0108915E0108915E010850
:1000D000915E0108915E01086D5A0108915E010868
:1000E000915E0108915E0108915E0108915E010830
:1000F000915E0108915E0108915E0108915E010820
:10010000915E0108915E0108915E0108795A01082B
:10011000915E0108915E0108915E0108915E0108FF
:10012000915E0108915E0108915E0108915E0108EF
:10013000915E0108915E0108915E0108915E0108DF
:10014000915E0108915E0108915E0108915E0108CF
:10015000915E0108855A0108915E0108915A0108D3
:10016000915E0108915E0108915E0108915E0108AF
:10017000915E0108915E0108915E01080000000097
:08018000915E0108915E010887
:100188000000000000000000000000000000000067
:100198000000000000000000000000000000000057
:1001A8000000000000000000000000000000000047
:10118800EEEEEEEEEEEEEEEEEEEEEEEE000000002F
:101198000000000000000000000000000000000047
:1011A8000000000000000000000000000000000037
:1011B8000000000000000000000000000000000027
:1011C8000000000000000000000000000000000017
:1011D8000000000000000000000000000000000007
:1011E80000000000000000000000000000000000F7
:1011F80000000000000000000000000000000000E7
:1012080000000000000000000000000000000000D6
:1012180000000000000000000000000000000000C6
:1012280000000000000000000000000000000000B6
:1012380000000000000000000000000000000000A6
:101248000000000000000000000000000000000096
:101258000000000000000000000000000000000086
:101268000000000000000000000000000000000076
:101278000000000000000000000000000000000066
:101288000000000000000000000000000000000056
:101298000000000000000000000000000000000046
:1012A8000000000000000000000000000000000036
:1012B8000000000000000000000000000000000026
:1012C8000000000000000000000000000000000016
:1012D8000000000000000000000000000000000006
:0812E8000000000000000000FE
:1012F00010F8012B11F8013B012A28BF9A42F7D0C0
:10130000D01A70470000000000000000000000003C
:1013100001F0FF01102A2BDB10F0070F08D010F8A6
:10132000013B013A8B422DD010F0070F42B3F6D1AA
:10133000F0B441EA012141EA014122F007047FF0C3
:1013400000070023F0E80256083C85EA010586EA1A
:10135000010685FA47F5A3FA87F586FA47F6A5FA56
:1013600087F68EB9EED1F0BC01F0FF0102F0070262
:1013700032B110F8013B013A83EA010313B1F8D10D
:101380000020704701387047002D06BF35460338EE
:10139000073815F0010F07D1013015F4807F02BF27
:1013A000013015F4C03F0130F0BC0138704700BF78
:1013B000034613F8012B002AFBD1181A0138704795
:1013C00053B94AB9002908BF00281CBF4FF0FF31AC
:1013D0004FF0FF3000F00CB8ADF1080C6DE904CE11
:1013E0000DF058FADDF804E0DDE9022304B070479F
:1013F000704700BF0348044B834202D0034B03B144
:1014000018477047C4010020C401002000000000FC
:101410000548064B1B1AD90F01EBA301491002D056
:10142000034B03B118477047C4010020C4010020DA
:101430000000000010B5064C237843B9FFF7DAFF2F
:10144000044B13B10448AFF300800123237010BD97
:10145000C80100200000000050EB010808B5054B52
:101460001BB105490548AFF30080BDE80840FFF710
:10147000CFBF00BF00000000CC01002050EB0108EE
:101480000369C26893429CBF81685B18013B981A4C
:1014900070472DE9F041D0E902840546A8EB040627
:1014A0004068964220440F46144406D90CF08CFB49
:1014B000BFF35F8FEC60BDE8F0813246A4EB080417
:1014C0000CF082FB68682246B919EFE72DE9F84372
:1014D000C5680646894617464FF000083369B46868
:1014E00070689D4228BF1B19641BBC4203F1FF3387
:1014F00028BF3C465B1B9C4228BF1C4649462246EF
:1015000028440CF061FBB3682544A044A1443F1B70
:10151000AB4208BF0025BFF35F8FF560002FDDD120
:101520004046BDE8F883000008B5144BA82200210E
:1015300018460CF027FE0322026111494261114A4C
:101540008161C2614FF48062026200228262426263
:10155000C26201660C49416610218166034602673A
:10156000C2664267BFF35F8F084911F8010D9854B6
:101570000132102AF9D1BFF35F8F08BDF8050020B2
:101580003EED0108F5010020E5010020D609020822
:10159000F8B5144B182700FB07751D4407FB0033F3
:1015A0000E46DB6A012B14460AD0022B14D023B955
:1015B0002846FFF765FF844208D900242046F8BD7D
:1015C0002846FFF75DFF844228BF04462246314685
:1015D0002846FFF75EFFF1E72846BDE8F840FFF731
:1015E00075BF00BFF8050020F8B50B4B1B7804460B
:1015F0000D4616460BB9FFF797FFEFF311874FF033
:10160000200181F31188324629462046FFF7C0FFAA
:1016100087F31188F8BD00BFF8050020F8B5184C15
:10162000237805460E460BB9FFF77EFFEFF31187CF
:101630004FF0200181F31188182202FB0542506A05
:10164000116A431C994208BF0023D16A022902D1C2
:10165000916A9942FBE7182202FB0541D1F828C0A4
:101660009C450BD005FB0222144462681654BFF35C
:101670005F8F01204B6287F31188F8BD0020FAE7E5
:10168000F805002073B51C4D2B7804460BB9FFF705
:101690004BFFFF230F2C8DF8043029D8174B1B5D0F
:1016A0008DF80530EFF311864FF0200181F311889A
:1016B000EA6A02F00302022A0AD1114B11481C7097
:1016C00001A9FFF703FF002086F3118802B070BD67
:1016D0000C48FFF7D5FE012807D9094B09481C70B3
:1016E000022201A9FFF7D5FEEDE74FF0FF30EBE74F
:1016F0004FF0FF30EAE700BFF8050020D7090208E5
:10170000E401002010060020826810B504464068FD
:10171000531C834205D820688154A360E3680133D9
:10172000E360D4E901329A420BD121682069FFF7C6
:101730005BFFA368984215BF4FF0FF330023E360BF
:10174000A36010BD2DE9F84F9946DDE90A4316461E
:10175000054688460A464FF0010AB24212D2CA45EF
:1017600038BFCA4613F0010B01D184B90024EB68DD
:10177000002B3DDB0127B9F1010F1FD909F1FF391A
:101780007743F8E70AF1010AB2FBF6F2E5E79B07B7
:1017900012D5B9F1000F0CBF30272027A245E6D2A1
:1017A00039462846FFF7B0FFEB68002B04F1FF3401
:1017B000DDDB002CF2D1D9E72027EFE7B8FBF7F308
:1017C0009E42DDD9DFF84890B8FBF7F3284619F8B8
:1017D000031007FB1388FFF797FFEB68002B03DB71
:1017E000B7FBF6F3B74205D2BBF1000F00D064B9E6
:1017F000BDE8F88F1F46E7E720212846FFF784FF62
:10180000EB68002B04F1FF34F2DB5445F4D8EFE72A
:10181000E70902082DE9F04F00239BB00E46402156
:10182000CDE90613CDE908300DF1280A03901546DD
:10183000CDF814A016F8011B39B9089D002D00F34E
:10184000108108981BB0BDE8F08F252940F0BA80C0
:101850004FF0000B314611F8013B2D2B18D012D858
:10186000232B1CD02B2B17D00024314611F8013B21
:10187000A3F13000092815D80A2202FB0433A3F192
:1018800030040E46F1E7302BEED14BF0020B01E0B5
:101890004BF0010B0E46DDE74BF0040BFAE74BF083
:1018A000080BF7E72E2B11D10E464FF000090A273F
:1018B000304610F8011BA1F1300CBCF1090F07D81C
:1018C00007FB0911A1F130090646F1E74FF00009C5
:1018D000304610F8011B01F0FB07682F0646F8D0D0
:1018E000782909D86F290BD8632967D020D82529F2
:1018F00068D0582900F09580089B002B9ADA9CE765
:1019000070390829F8D801A050F821F0531A0108BD
:10191000F9180108F9180108331A0108F918010823
:10192000111A0108F9180108F9180108231A010809
:101930006429E1D129680F68081D87EAE7712860EA
:10194000A1EBE7714FF001080A2009293EDCC845E8
:1019500038BFC8462CB1002F02DB1BF0040F00D0AB
:10196000013C1BF0020F02D0B9F1000F04D01BF0B4
:10197000010F01D17CBB002408990029BCDB002F9A
:1019800035DA7F422D2105A8FFF7BEFE0899002910
:10199000B2DB0BF00301022904D1B9F1000F01D130
:1019A00054BB002408990029A6DBCDE9004B4B4627
:1019B0000A22394605A8FFF7C5FE9DE72B681A1DC8
:1019C00019782A6005A8FFF79FFE95E708F101083E
:1019D000B1FBF0F1B9E7A045CED2202105A8FFF771
:1019E00093FE0899002904F1FF34C3DAC4E71BF021
:1019F000040FCED02B21C6E7A045D3D2302105A8B5
:101A0000FFF782FE0899002904F1FF34C8DAC9E71C
:101A10002968081D2860CDE9004B4B460A22096859
:101A2000C8E72968081D2860CDE9004B4B46102205
:101A3000F5E72B681A1D2A601C6814F8011B0029A1
:101A40003FF45AAF05A8FFF75FFE089B002BF4DABE
:101A500052E729680B1D2B6000220823CDE90032D4
:101A6000E5E7079C24B1039822465146FFF7BCFDE9
:101A70002C440894E5E600BF0EB403B503AB01AAFD
:101A800053F8041B0193FFF7C5FE02B05DF804EBA9
:101A900003B0704770470000F0B5044685B00D46AE
:101AA00016461F460A4805F097FA20280CD14FF039
:101AB000FF33CDE90173009601232A4621460448ED
:101AC00005F0CEF805B0F0BD0A2004F033FAE9E7DE
:101AD000B0290020F0B5044685B00D4616461F46D5
:101AE0000D4805F079FA2028FAD14FF0FF33CDE9FF
:101AF00001732A46084800960123214605F020F884
:101B0000054D4FF0FF3301222146284605F0B0F97C
:101B10000028F6D105B0F0BDB029002008B5138823
:101B2000054A13800246A020FFF7B6FF10B1FFF769
:101B3000B1FF012008BD00BFA20600200A464FF4F5
:101B400096730146014805F093B900BFB029002003
:101B500013460B4A10B513700246A020FFF7BAFFD8
:101B6000044610B1FFF796FF012440F6B831A020DB
:101B7000FFF7E4FF10B1FFF78DFF0124204610BDF1
:101B8000A00600202DE9F84F11F00F0705460C467E
:101B90001646C2F307185FFA82FA02F00F0B1DD146
:101BA000B8F1000F01D15A462FE0102221462846F5
:101BB000FFF7CEFF60B908F1FF38103418F0FF08C6
:101BC000A4B205F11005F0D1BBF1000F02D1002045
:101BD000BDE8F88F5A462146284616E05FFA87F995
:101BE000C7F11007FFB2B8F1000F12D19742DAD255
:101BF0003A46FFF7ADFF0028EAD1AAF1100A09EB37
:101C00000A023919D2B289B2E819BDE8F84FFFF7D4
:101C10009FBF3A46FFF79CFF0028D9D1F61B3D44F1
:101C20003C441FFA86F8641B06F47F662E44A4B277
:101C30002919B54289B203D118F00F02C7D0CBE7FA
:101C400010222846FFF784FF0028C1D11035EFE7A6
:101C5000054B0A4619688B689B07FCD5014664232F
:101C6000014805F095BF00BF6C28002007B5084B60
:101C70008DF807001A6893689B07FCD5642301223E
:101C80000DF10701024805F083FF03B05DF804FB86
:101C90006C28002008B5074B1B78012B04D106489F
:101CA0000022042104F0B2FCBDE80840012004F049
:101CB00041B900BF0E000020000C024008B5064BE1
:101CC0001A78012A03D10548042104F09FFCBDE8DD
:101CD0000840012004F02EB90E000020000C024044
:101CE0001FB5FF238DF80E30094B1A6893689B07C8
:101CF000FCD5642300930DF10F0201230DF10E01B9
:101D0000034805F0F2FF9DF80F0005B05DF804FBF5
:101D10006C28002013B5FFF7D1FF0A24FF20FFF73E
:101D2000A5FF013CFAD1FFF7B5FF40230093062140
:101D30004FF415436846ADF80430FFF789FF4FF4C0
:101D40000054FFF7CDFF012809D1FFF7B7FFFF20AF
:101D5000FFF78CFF034B01221A7002B010BD013C4B
:101D6000EFD1F2E7A406002010B5064C4FF4FA7349
:101D70002380FFF7B5FFFF2802D02388002BF8D17E
:101D800010BD00BFA606002070B506460D46FFF741
:101D9000EBFFFF284FF0000423D12846FFF766FF32
:101DA000FD2D18D04FF400713046FFF751FFFFF7BB
:101DB00097FFFFF795FF4125FFF792FF00F01F0304
:101DC000052B044603D0013D15F0FF05F4D1FFF7C4
:101DD00087FF0028FBD004F01F04631F58425841BE
:101DE00070BD2046FCE738B504460D46FFF7BCFF42
:101DF000FF2828D12046FFF739FF280EFFF736FFCE
:101E0000C5F30740FFF732FFC5F30720FFF72EFFAA
:101E1000E8B2FFF72BFF402C13D0482C14BF012051
:101E20008720FFF723FF4C2C01D1FFF759FF0A242D
:101E3000FFF756FF030603D5013C14F0FF04F7D16A
:101E400038BD9520EDE7FF20FAE7000070B50F4D93
:101E5000C82304460E462B80FFF742FFFF2803D11C
:101E600028880028F8D170BDFE280DD1651E3444A5
:101E7000FFF736FF05F8010FA542F9D1FFF730FF54
:101E8000FFF72EFF0120EEE70020ECE7A806002078
:101E90002DE9F341002840F09D804F4E357815F034
:101EA000020504D03078C0B202B0BDE8F081FFF77F
:101EB00031FFFFF7EFFE29464020FFF794FF01288E
:101EC00004460DD00024454B1C70FFF7F7FEFFF7CA
:101ED00007FF002C7BD0337803F0FE033370E1E77B
:101EE0003F4F4FF47A734FF4D57148203B80FFF792
:101EF0007AFF01283DD101ADA8460424FFF7F0FE8A
:101F0000013C14F0FF0408F8010BF7D19DF80630EE
:101F1000012BD7D19DF80730AA2BD3D100217720F0
:101F2000FFF761FF012803D93B88002BF6D1C9E7F1
:101F30004FF080416920FFF756FF01460028F3D19A
:101F40003B88002BBED07A20FFF74DFF0028B9D187
:101F50000424FFF7C5FE013C14F0FF0405F8010B53
:101F6000F7D19DF8043013F0400F0CBF04240C246B
:101F7000A9E729467720FFF736FF012806D829462A
:101F80006920FFF730FF012898BF0224022C4FF090
:101F900000011AD17720FFF726FF012803D93B88DB
:101FA000002BF3D18EE700216920FFF71CFF0028EA
:101FB000F5D13B88002B85D04FF400715020FFF7FE
:101FC00012FF00287FF47EAF7DE74120EDE7054B4F
:101FD0001C7067E7012067E700000020A5060020CD
:101FE000A8060020A406002018B9034B1878C0B238
:101FF00070470120704700BF0000002070B50E46FA
:1020000015461C46002837D1002B35D01C4B1B78B9
:10201000DA0733D41B4B1B785B0758BF6D02FFF701
:1020200039FE012C294613D15120FFF7DCFE38B9C7
:102030004FF400713046FFF709FFB0FA80F46409ED
:10204000FFF73CFEFFF74CFE201E18BF012070BDBD
:102050005220FFF7C8FE0028F2D14FF4007130463D
:10206000FFF7F4FE18B1013C06F50076F5D100212A
:102070004C20FFF7B8FEE3E70420E8E70320E6E79B
:1020800000000020A5060020F8B50D4616461C46A7
:10209000002847D1002B45D0254B1A78D00743D4D0
:1020A0001B78590742D4234F3B785A0758BF760212
:1020B000FFF7F0FD012C13D131465820FFF793FEB6
:1020C00070BBFE212846FFF75FFEB0FA80F464097A
:1020D000FFF7F4FDFFF704FE201E18BF0120F8BD36
:1020E0003B789B0707D500217720FFF77CFE214630
:1020F0005720FFF778FE31465920FFF774FE00287D
:10210000E6D1FC212846FFF73FFE18B1013C05F55A
:102110000075F6D1FD210020FFF736FE0028D7D14B
:102120000124D5E70420DAE70320D8E70220D6E728
:1021300000000020A50600207FB50E461546044687
:10214000002840F08F80052913D11378012B09D086
:10215000022B0AD0002B40F08580444B187020469B
:1021600004B070BDFFF7D6FDF9E7404B1B78537004
:10217000F5E73F4B1C7814F0010475D1FFF78AFD99
:102180000D2E6DD8DFE806F04807446C6C6C6C6C63
:102190006C6C6C4F5D6000214920FFF724FE28B174
:1021A0000124FFF78BFDFFF79BFDD8E71021684660
:1021B000FFF74CFE0028F3D09DF800109DF8093081
:1021C0009DF808208909012906D1013303EB022378
:1021D0009BB29B022B60E4E79DF807109DF80A0074
:1021E000920902EB81029DF80610890201F4406118
:1021F00001320A449DF805105B0001F00F0101EB6C
:10220000D01103F006030B44073B02FA03F3E1E7A6
:102210004FF400732B80C4E7FFF7A6FDB0F1FF0475
:1022200018BF0124BDE700214920FFF7DCFD00288D
:10223000B6D110212846FFF709FEB0FA80F46409F0
:10224000AFE700214A20F0E700217A20FFF7CBFD1D
:1022500030B92C1DFFF744FD05F8010BAC42F9D154
:1022600004249EE704247AE7032478E7A4060020E8
:102270000000002030B5144987B0044611221348ED
:102280000AF0B0F80546E0B9214611480AF0C8FF47
:102290006B46122201A90D480AF040FA0B480AF0D9
:1022A000F4FC01A90B488DF815500AF0B9FF122271
:1022B000214601A8FFF766FC2146024606480AF0BF
:1022C000AFFF07B030BD00BF95ED0108B00600209C
:1022D0009BED0108D5ED0108DFED010810B5094BB4
:1022E0001B7898B004465D2253B9074968460BF045
:1022F0006BFC5D222146684603F04AF918B010BD18
:102300000249F3E7292A00208CEE0108E9EE0108D2
:1023100030B52D4C9BB0054601462C480AF080FF95
:102320002B49112220460AF05DF801AB02A90F22C9
:1023300020460AF0F3F920460AF0A7FC25491122AD
:1023400020460AF04FF801AB0DF117010F2220468D
:102350000AF0E4F920460AF098FC1F4911222046B1
:102360000AF040F801AB0DF126010F2220460AF0D9
:10237000D5F920460AF089FC1849112220460AF0B6
:1023800031F801AB0DF135010F2220460AF0C6F9F4
:1023900020460AF07AFC1249112220460AF022F85F
:1023A0002246212111A80AF012FE20460AF06DFCF7
:1023B00002A90C480AF034FF5D22294602A803F066
:1023C000E7F81BB030BD00BFB006002046EF0108A3
:1023D0004CEE010854EE01085CEE010864EE0108C1
:1023E0006CEE01087EEF0108F0B59DB001465D225C
:1023F00004A802F0E3FF04A90F226E486E4F6F4E4F
:102400006F4D704C0BF0AAFC0DF11F010F226E48AE
:102410000BF0A4FC0DF12E010F226C480BF09EFC7A
:102420000DF13D010F226A480BF098FC04A903222C
:1024300003A80BF093FC03A80BF0B8FD05A93870B6
:10244000032203A80BF08AFC03A80BF0AFFD06A93A
:102450007870032203A80BF081FC03A80BF0A6FD03
:1024600007A9B870032203A80BF078FC03A80BF0AF
:102470009DFD0DF11F01F870032203A80BF06EFC07
:1024800003A80BF093FD0DF123013070032203A884
:102490000BF064FC03A80BF089FD0DF127017070AF
:1024A000032203A80BF05AFC03A80BF07FFD0DF1EB
:1024B0002B01B070032203A80BF050FC03A80BF013
:1024C00075FD0DF12E01F070032203A80BF046FC00
:1024D00003A80BF06BFD0DF132012870032203A855
:1024E0000BF03CFC03A80BF061FD0DF136016870A8
:1024F000032203A80BF032FC03A80BF057FD0DF1EB
:102500003A01A870032203A80BF028FC03A80BF0E3
:102510004DFD0DF13D01E870032203A80BF01EFCF8
:1025200003A80BF043FD0DF141012070032203A825
:102530000BF014FC03A80BF039FD0DF145016070A0
:10254000032203A80BF00AFC03A80BF02FFD0DF1EA
:102550004901A070032203A80BF000FC03A80BF0B4
:1025600025FD13A9E07020221A480BF0F7FBFB7839
:102570000093BB787A78397817480AF051FEF378DF
:102580000093B3787278317814480AF049FEEB78FA
:102590000093AB786A78297811480AF041FEE37815
:1025A0000093A378627821780E480AF039FE1DB0B6
:1025B000F0BD00BF51000020772700204A270020EF
:1025C000732700206F2700204100002031000020E9
:1025D000210000204E2700208FEF0108A6EF010800
:1025E000BDEF0108D4EF0108F0B5054685B00B48F2
:1025F0000BF036FA0A4B6A4603F1100716461868C4
:102600005968144603C40833BB422246F7D110224E
:102610002946304602F0BCFF05B0F0BDEBEF0108E3
:1026200000F00108F0B589B0102205460021684687
:102630000BF0A8FD0D4B04AA03F11007164618680D
:102640005968144603C40833BB422246F7D12946D1
:102650001022684602F0B2FE0F22314668460BF0A7
:102660006BFB003818BF012009B0F0BD85ED0108F3
:1026700030B58C4C8C488D4D8DB002F03DF98C49B5
:102680001122204609F0AEFE2246102103A80AF0CE
:102690009EFC03A987480AF0BBFD03A9032202A8F8
:1026A0000BF05CFB02A80BF081FC04A9287003224C
:1026B00002A80BF053FB02A80BF078FC05A9687088
:1026C000032202A80BF04AFB02A80BF06FFC06A93C
:1026D000A870032202A80BF041FB02A80BF066FCD5
:1026E000E870C0B20090AB786A7829787248734D70
:1026F0000AF096FD20460AF0C8FA714911222046D8
:1027000009F070FE2246102103A80AF060FC03A91C
:102710006C480AF07DFD03A9032202A80BF01EFB02
:1027200002A80BF043FC04A92870032202A80BF0B6
:1027300015FB02A80BF03AFC05A96870032202A859
:102740000BF00CFB02A80BF031FC06A9A8700322C9
:1027500002A80BF003FB02A80BF028FCE870C0B243
:102760000090AB786A7829785748584D0AF058FDA0
:1027700020460AF08AFA56491122204609F032FE14
:102780002246102103A80AF022FC03A951480AF0AE
:102790003FFD03A9032202A80BF0E0FA02A80BF008
:1027A00005FC04A92870032202A80BF0D7FA02A89E
:1027B0000BF0FCFB05A96870032202A80BF0CEFA0F
:1027C00002A80BF0F3FB06A9A870032202A80BF0E5
:1027D000C5FA02A80BF0EAFBE870C0B20090AB7833
:1027E0006A7829783C483D4D0AF01AFD20460AF0E7
:1027F0004CFA3B491122204609F0F4FD22461021F3
:1028000003A80AF0E4FB03A936480AF001FD03A976
:10281000032202A80BF0A2FA02A80BF0C7FB04A93E
:102820002870032202A80BF099FA02A80BF0BEFB55
:1028300005A96870032202A80BF090FA02A80BF019
:10284000B5FB06A9A870032202A80BF087FA02A81C
:102850000BF0ACFBE870C0B20090AB786A782978D6
:102860002148224D0AF0DCFC20460AF00EFA2049ED
:102870001122204609F0B6FD2246212103A80AF0C4
:10288000A6FB202203A928460BF068FA20460AF08E
:10289000FCF900232946174885F820300AF0C0FCCF
:1028A0000DB030BDB006002010F0010877270020E1
:1028B0004CEE0108510000208FEF01084A2700204C
:1028C00054EE010841000020A6EF01087327002004
:1028D0005CEE010831000020BDEF01086F270020E9
:1028E00064EE010821000020D4EF01084E270020EB
:1028F0006CEE01082DF0010808B51149114807F0E8
:102900004BFB1149114807F047FB1149114807F0EB
:1029100043FB1149114807F03FFB1149114807F0EB
:102920003BFB1149114807F037FB1149114807F0EB
:1029300033FBBDE808401049104807F02DBB00BF2D
:10294000CF49020839050208F709020868ED0108B5
:10295000A668020837F00108510000204CEE01087B
:102960004100002054EE0108310000205CEE010817
:102970002100002064EE01080F00002041F0010852
:1029800010B5002204464FF400711C4803F03EFECF
:10299000462003F0CFFA01224FF40071174803F0EC
:1029A00035FE462003F0C6FA03F0DCF9144B154956
:1029B0001A689B888B80144B0A601B68C1F806302C
:1029C000124B1B68C1F80E30114B00201B68C1F878
:1029D0000A3006F065FF0F4A0023128801212046C5
:1029E00006F0FAF8204606F089F9012805D12146BB
:1029F0000948BDE810400AF013BC10BD00080240B1
:102A0000442700200401002077270020732700209E
:102A10006F2700200A00002049F0010810B5124974
:102A20001248002209F0B4FC11491248112209F0A1
:102A3000D9FC38B9104801F05FFFBDE810400D48DF
:102A40000AF023B90D4B0E480024012204211C700A
:102A500003F0DCFD0B482246042103F0D7FD0A48B1
:102A60000AF0FEFFE9E700BF0FF001080817002099
:102A70004CEE0108B006002065F001080E000020B1
:102A8000000C02400010024071F0010808B5054832
:102A90000122042103F0BAFDBDE80840024802F01B
:102AA0006DBC00BF000C02406C28002038B5324BD2
:102AB0001B780BBB314D2B787BB94FF4D070FFF7EF
:102AC000B1FD044648B92E480AF0CAFF2046FFF778
:102AD00005FC4FF4D070FFF787FD2B78012B06D152
:102AE000FFF7C6FDBDE838400020FFF711BCBDE888
:102AF00038400020FFF778BC0020FFF7EFFB0020F4
:102B0000FFF772FC01224FF480511E4803F07EFD56
:102B1000642003F00FFA00224FF48051194803F0AB
:102B200075FD642003F006FA01224FF48051154828
:102B300003F06CFD642003F0FDF900224FF4805196
:102B4000104803F063FD642003F0F4F901224FF410
:102B500080510C4803F05AFD642003F0EBF909485A
:102B600000224FF4805103F051FD642003F0E2F99C
:102B7000BDE8384003F044BA042A00200E000020CB
:102B80007FF00108000C0240024A00231288022153
:102B900006F022B80800002008B501220A480821E2
:102BA00003F034FD094B01225978043281F0FB0116
:102BB000312A597003F10403F6D1BDE808400248F8
:102BC0000022082103F022BD000C02401810001062
:102BD00008B501220A48082103F018FD094B01221B
:102BE0005978043281F0FB01312A597003F1040352
:102BF000F6D1BDE8084002480022082103F006BDD6
:102C0000000C02404810001037B5054603F08CF95F
:102C10002F4B30491B88009304462F4B3022284607
:102C200006F0E6F903F080F904F5FA74A0420AD23E
:102C300000222A484FF4804103F0E8FC284B002290
:102C40001A7003B030BD274C274894F900100AF0E1
:102C5000E7FA224800224FF4805103F0D7FC1F48C6
:102C600000224FF4004103F0D1FC01224FF48041D7
:102C70001A4803F0CBFC642003F05CF900224FF407
:102C80008041164803F0C2FC642003F053F901228E
:102C90004FF48041114803F0B9FC642003F04AF975
:102CA00000224FF480410D4803F0B0FC642003F093
:102CB00041F90E4804F0BAF92378013B5BB2002BCE
:102CC0002370BEDA03B0BDE8304003F099B900BF0D
:102CD00008000020610000204A270020000C02406C
:102CE0000D0000200C0000208FF00108A429002016
:102CF00008B505480AF0B4FE002007F03DF9BDE82C
:102D0000084003F07DB900BFBBF0010810B5234BAC
:102D10008AB0B3F8A51093F8A720ADF808102049A1
:102D20008DF80A2004460022D3F8A1000190CDE9D5
:102D30000412D3F8AB00D3F8AF10ADF80B208DF828
:102D40000D20ADF8182007AA03C20534B3F8B3303C
:102D5000138001A92046FEF7CBFA48B104A920460A
:102D6000FEF7C6FA20B107A92046FEF7C1FA78B9E6
:102D70000C480AF075FE0C4B002207A920461A7079
:102D8000FEF7B6FA10B9094B02221A700AB010BD4C
:102D900007480AF065FE074B0122F6E768EB0108D9
:102DA00075736572D1F0010806000020050000204F
:102DB000DAF00108052A002038B50F4C0F492378B6
:102DC000022B08BF00234FF0200200F1080008BFCB
:102DD00023700AF0B1FF054620B9094801F08CFDC7
:102DE000257038BD074801F087FD2378012B04BF0B
:102DF000054A1370F5E700BF050000204E270020AC
:102E0000EDF00108FBF00108052A00202DE9F0474C
:102E100001468EB004469F480AF002FA0023E25CA5
:102E20002E2A03F10107DBB205D038336B4403F8D7
:102E3000182C3B46F3E7032B18D1BDF820209DF852
:102E40002230ADF810208DF8123004A80BF0AEF847
:102E50003D46C6B2625DEB1B2E2ADBB205F10105D1
:102E600019D038336B4403F8182CF3E7022B09D13F
:102E700030238DF810309DF820308DF811309DF8FA
:102E80002130E0E7012BE0D143F23003ADF8103000
:102E90009DF82030D7E7032B1AD1BDF820209DF8EC
:102EA0002230ADF814208DF8163005A80BF07EF80E
:102EB000AA46C7B214F80A20AAEB05032E2ADBB2F1
:102EC0000AF1010A19D038336B4403F8182CF1E7E2
:102ED000022B09D130238DF814309DF820308DF865
:102EE00015309DF82130DEE7012BDED143F23003AF
:102EF000ADF814309DF82030D5E7032B1DD1BDF877
:102F000020209DF82230ADF818208DF81A3006A840
:102F10000BF04CF804EB0A0580465FFA80F90024B8
:102F200015F8013B621CE4B2E3B104F138010DEB8A
:102F3000010404F8183C1446F2E7022B09D13023AF
:102F40008DF818309DF820308DF819309DF821301B
:102F5000DBE7012BDBD143F23003ADF818309DF8ED
:102F60002030D2E7032C1ED1BDF820209DF822305E
:102F7000ADF81C208DF81E30474C07A80BF016F852
:102F80002378B342C0B223D16378BB4220D1A37867
:102F90004B451DD1E37883421AD140480AF060FDC9
:102FA0000EB0BDE8F087022C09D130238DF81C301B
:102FB0009DF820308DF81D309DF82130DAE7012C86
:102FC000DAD143F23003ADF81C309DF82030D1E760
:102FD000E0702670677084F802905FFA88F30090C2
:102FE0003A462F4831460AF01BF92E4B1D78012D29
:102FF00037D12D492D48122209F0F4F90028CFD1FC
:103000002B480AF02DFD0A2304A903220AA88DF8F3
:103010000C302E240AF0A2FE05A903220BA88DF87D
:103020002B400AF09BFE06A903220CA88DF82F4026
:103030000AF094FE07A903220DA88DF833400AF088
:103040008DFE2A4603A90DF137000AF087FE09AB71
:1030500010220AA9154809F037FC144809F015FE9A
:103060009EE714480AF0FCFC0322002104A802F0A9
:103070008FFA0322042105A802F08AFA032208210C
:1030800006A802F085FA03220C2107A802F080FAB4
:1030900086E700BF0EF101087727002020F1010824
:1030A00042F101080E0000204CEE0108B00600209D
:1030B0005DF1010883F101082DE9F04300238FB091
:1030C0000446E25C2E2A03F10106DBB205D0383358
:1030D0006B4403F8182C3346F3E7032B18D1BDF8E3
:1030E00020209DF82230ADF810208DF8123004A871
:1030F0000AF05CFF3746C5B2E25DBB1B2E2ADBB28D
:1031000007F1010719D038336B4403F8182CF3E7A3
:10311000022B09D130238DF810309DF820308DF826
:1031200011309DF82130E0E7012BE0D143F230036C
:10313000ADF810309DF82030D7E7032B1AD1BDF839
:1031400020209DF82230ADF814208DF8163005A807
:103150000AF02CFFB946C6B214F80920A9EB070300
:103160002E2ADBB209F1010919D038336B4403F878
:10317000182CF1E7022B09D130238DF814309DF87B
:1031800020308DF815309DF82130DEE7012BDED19F
:1031900043F23003ADF814309DF82030D5E7032B0F
:1031A0001DD1BDF820209DF82230ADF818208DF8F3
:1031B0001A3006A80AF0FAFE04EB090207465FFA85
:1031C00080F8002412F8013B611CE4B2E3B104F181
:1031D00038000DEB000404F8183C0C46F2E7022B13
:1031E00009D130238DF818309DF820308DF8193032
:1031F0009DF82130DBE7012BDBD143F23003ADF842
:1032000018309DF82030D2E7032C1ED1BDF82020C5
:103210009DF82230ADF81C208DF81E30454C07A8D3
:103220000AF0C4FE2378AB42C0B223D16378B34224
:1032300020D1A37843451DD1E37883421AD13E487B
:103240000AF00EFC0FB0BDE8F083022C09D1302348
:103250008DF81C309DF820308DF81D309DF8213000
:10326000DAE7012CDAD143F23003ADF81C309DF8D7
:103270002030D1E72570E070667084F80280FBB2E0
:10328000009029462D48324609F0CAFF2C4B1D7884
:10329000012D37D12B492C48122209F0A3F8002820
:1032A000D0D12A480AF0DCFB0A2304A903220AA889
:1032B0008DF80C302E240AF051FD05A903220BA82D
:1032C0008DF82B400AF04AFD06A903220CA88DF8C0
:1032D0002F400AF043FD07A903220DA88DF83340C3
:1032E0000AF03CFD2A4603A90DF137000AF036FD2D
:1032F00009AB10220AA9144809F0E6FA124809F0AD
:10330000C4FC9FE712480AF0ABFB03222D2104A85E
:1033100002F03EF90322312105A802F039F9032217
:10332000362106A802F034F903223A2107A802F058
:103330002FF987E76F270020ADF10108CEF10108D2
:103340000E00002064EE0108B0060020E9F101083B
:103350000FF201082DE9F04300238FB00446E25C30
:103360002E2A03F10106DBB205D038336B4403F893
:10337000182C3346F3E7032B18D1BDF820209DF815
:103380002230ADF810208DF8123004A80AF00EFE9D
:103390003746C5B2E25DBB1B2E2ADBB207F101073F
:1033A00019D038336B4403F8182CF3E7022B09D1FA
:1033B00030238DF810309DF820308DF811309DF8B5
:1033C0002130E0E7012BE0D143F23003ADF81030BB
:1033D0009DF82030D7E7032B1AD1BDF820209DF8A7
:1033E0002230ADF814208DF8163005A80AF0DEFD65
:1033F000B946C6B214F80920A9EB07032E2ADBB29E
:1034000009F1010919D038336B4403F8182CF1E79E
:10341000022B09D130238DF814309DF820308DF81F
:1034200015309DF82130DEE7012BDED143F2300369
:10343000ADF814309DF82030D5E7032B1DD1BDF831
:1034400020209DF82230ADF818208DF81A3006A8FB
:103450000AF0ACFD04EB090207465FFA80F800248D
:1034600012F8013B611CE4B2E3B104F138000DEB4A
:10347000000404F8183C0C46F2E7022B09D1302373
:103480008DF818309DF820308DF819309DF82130D6
:10349000DBE7012BDBD143F23003ADF818309DF8A8
:1034A0002030D2E7032C1ED1BDF820209DF8223019
:1034B000ADF81C208DF81E30454C07A80AF076FDAB
:1034C0002378AB42C0B223D16378B34220D1A37832
:1034D00043451DD1E37883421AD13E4801F00CFAEE
:1034E0000FB0BDE8F083022C09D130238DF81C30D9
:1034F0009DF820308DF81D309DF82130DAE7012C41
:10350000DAD143F23003ADF81C309DF82030D1E71A
:103510002570E070667084F80280FBB20090294646
:103520002D48324609F07CFE2C4B1D78012D37D1F9
:103530002B492C48122208F055FF0028D0D12A48E8
:103540000AF08EFA0A2304A903220AA88DF80C3087
:103550002E240AF003FC05A903220BA88DF82B40AA
:103560000AF0FCFB06A903220CA88DF82F400AF0F4
:10357000F5FB07A903220DA88DF833400AF0EEFBF6
:103580002A4603A90DF137000AF0E8FB09AB102227
:103590000AA9144809F098F9124809F076FB9FE748
:1035A00012480AF05DFA03221E2104A801F0F0FF80
:1035B0000322222105A801F0EBFF0322262106A801
:1035C00001F0E6FF03222A2107A801F0E1FF87E7C7
:1035D0007327002039F201085CF201080E00002078
:1035E0005CEE0108B006002077F201089DF20108A8
:1035F0002DE9F04300238FB00446E25C2E2A03F14C
:103600000106DBB205D038336B4403F8182C33467F
:10361000F3E7032B18D1BDF820209DF82230ADF838
:1036200010208DF8123004A80AF0C0FC3746C5B24D
:10363000E25DBB1B2E2ADBB207F1010719D038333C
:103640006B4403F8182CF3E7022B09D130238DF8D3
:1036500010309DF820308DF811309DF82130E0E7D2
:10366000012BE0D143F23003ADF810309DF820304B
:10367000D7E7032B1AD1BDF820209DF82230ADF8F2
:1036800014208DF8163005A80AF090FCB946C6B291
:1036900014F80920A9EB07032E2ADBB209F101096E
:1036A00019D038336B4403F8182CF1E7022B09D1F9
:1036B00030238DF814309DF820308DF815309DF8AA
:1036C0002130DEE7012BDED143F23003ADF81430B8
:1036D0009DF82030D5E7032B1DD1BDF820209DF8A3
:1036E0002230ADF818208DF81A3006A80AF05EFCDA
:1036F00004EB090207465FFA80F8002412F8013B48
:10370000611CE4B2E3B104F138000DEB000404F8ED
:10371000183C0C46F2E7022B09D130238DF8183003
:103720009DF820308DF819309DF82130DBE7012B12
:10373000DBD143F23003ADF818309DF82030D2E7EA
:10374000032C1ED1BDF820209DF82230ADF81C209E
:103750008DF81E30454C07A80AF028FC2378AB42B0
:10376000C0B223D16378B34220D1A37843451DD1A1
:10377000E37883421AD13E4801F0BEF80FB0BDE8AD
:10378000F083022C09D130238DF81C309DF82030B5
:103790008DF81D309DF82130DAE7012CDAD143F2A3
:1037A0003003ADF81C309DF82030D1E72570E07073
:1037B000667084F80280FBB2009029462D4832469C
:1037C00009F02EFD2C4B1D78012D37D12B492C48AB
:1037D000122208F007FE0028D0D12A480AF040F94A
:1037E0000A2304A903220AA88DF80C302E240AF01B
:1037F000B5FA05A903220BA88DF82B400AF0AEFA02
:1038000006A903220CA88DF82F400AF0A7FA07A9F1
:1038100003220DA88DF833400AF0A0FA2A4603A926
:103820000DF137000AF09AFA09AB10220AA91448E0
:1038300009F04AF8124809F028FA9FE712480AF0FE
:103840000FF903220F2104A801F0A2FE0322132185
:1038500005A801F09DFE0322172106A801F098FE9D
:1038600003221B2107A801F093FE87E74A270020C7
:10387000C7F20108EAF201080E00002054EE010828
:10388000B006002005F301082BF3010810B501462E
:103890000446174809F0C4FC16480AF0E1F8164B34
:1038A0001B78012B19D115491548122208F09AFDF1
:1038B000E8B914480AF0D4F800220023104809F0AF
:1038C000F5F90F49204609F0A7FB0D4809F030F93A
:1038D000BDE810400A4809F0D8B90B480AF0C0F812
:1038E00020462122BDE810403C2101F051BE10BD10
:1038F00055F30108910302080E0000206CEE010848
:10390000B00600206DF301088FF30108F7B5144FDE
:1039100004460D46134816460821012202F076FEA1
:103920003B7833B9104900962B463022204605F0EB
:103930005FFB3B78012B06D10C4900962B463022C9
:10394000204605F055FB07480022082102F05EFEE4
:103950002821142003B0BDE8F04001F045B900BFB4
:10396000292A0020000C02407810001018100010C6
:103970002DE9F04188B0824FADF816200646884602
:1039800002F0D2FA3A687F4B0132984204463A601C
:103990003FD942F21073B2FBF3F003FB1020002872
:1039A00037D17949794D0B68B4FBF5F501330B60DC
:1039B000774BB4FBF3F81823B5FBF3F103FB115578
:1039C0003C234EF66026B4FBF6F6B6FBF3F103FBA0
:1039D00011664FF47A71B4FBF1F4B4FBF3F103FB1D
:1039E00011446C4B1B7833B1CDE901646A490095F1
:1039F0004346FEF741F8CDE900642B463968664836
:103A0000424600F05BFF3B6801333B6008B0BDE815
:103A1000F081624C62480122102102F0F7FD237808
:103A200043B90DF1160300935E49434630223046F8
:103A300005F086FB2578012D40F097800DF11603E7
:103A40005949009330224346304605F079FB5648E9
:103A500000F094FF044600283AD12A464FF48041F2
:103A60004F4802F0D3FD642002F064FA22464FF47E
:103A700080414B4802F0CAFD642002F05BFA2A46FE
:103A80004FF48041464802F0C1FD642002F052FA32
:103A900022464FF48041424802F0B8FD642002F013
:103AA00049FA2A464FF480413D4802F0AFFD6420B8
:103AB00002F040FA22464FF48041394802F0A6FD58
:103AC000642002F037FA394809F0CAFFFFF710F90D
:103AD000354800F053FF0128044646D102464FF412
:103AE00080412F4802F092FD642002F023FA002268
:103AF0004FF480412A4802F089FD642002F01AFA4E
:103B000022464FF48041264802F080FD642002F0F6
:103B100011FA00224FF48041214802F077FD642021
:103B200002F008FA22464FF480411D4802F06EFD73
:103B3000642002F0FFF900224FF48041184802F09F
:103B400065FD642002F0F6F9194809F089FF882321
:103B500022464FF4407107A88DF81C3001F018FD83
:103B6000144809F07DFFFFF7C3F80D48002210212B
:103B700002F04CFD2821142001F056F846E700BF62
:103B80001C2A0020A0860100182A002080EE3600A2
:103B9000005C2605162A0020B5F30108292A00201A
:103BA000000C0240A810001048100010E8F30108B3
:103BB0000BF4010836F401082DE9F0437C4E33780C
:103BC00085B00446E3B97B4D2B78002B37D102F04A
:103BD000ABF941F28733984212D800F0E7FF78B989
:103BE000754809F03DFF0122FF234FF4407103A8FF
:103BF0002A708DF80C3001F0CBFC704809F030FFD2
:103C00003578012D1BD16E4F3B78C3B902F08CF98A
:103C100041F28733984212D800F0C8FF78B966485D
:103C200009F01EFFFF232A464FF4407103A83D70A0
:103C30008DF80C3001F0ACFC604809F011FF6148D0
:103C40004FF4004102F0DCFC0128054640F08B8176
:103C50005D484FF4804102F0DEFC3778002F40F0E1
:103C600038815A48DFF89C812A46202102F0CEFC98
:103C700056483A46202102F0C9FC53482A462021E2
:103C800002F0C4FC4FF48053514A52490093524809
:103C9000302304F02AF84C483A46202102F0B6FCC2
:103CA0004E482A464FF4807102F0B0FC4B483A4629
:103CB0004FF4807102F0AAFC4949454800F038FFF2
:103CC00098F800305BB1424800F086FE444800F0AE
:103CD000DBFE3F4800F0ACFE3D4800F0FDFE4149F0
:103CE0003F48414D414F00F032FF414A002800F06B
:103CF0008B802B6801332B6098F800304FF000095F
:103D000082F8009053B10620FDF7BCFC2A683949BF
:103D10004846FDF7B1FE4846FDF7B4FC2A6846F672
:103D200078139A4277D13B88334900933022334B42
:103D3000204605F05DF9324809F092FE01224FF469
:103D40008041214802F062FC642002F0F3F8002276
:103D50004FF480411C4802F059FC642002F0EAF85C
:103D600001224FF48041184802F050FC642002F018
:103D7000E1F800224FF48041134802F047FC642030
:103D800002F0D8F801224FF480410F4802F03EFCC7
:103D9000642002F0CFF800224FF480410A4802F07C
:103DA00035FC642002F0C6F8FEF7A2FF33E000BF46
:103DB000292A0020152A002050F4010861F4010886
:103DC000142A002000040240000C024000080240B7
:103DD00078100010A8100010C42800200000024035
:103DE0000C10001000100010102A00200800002005
:103DF0000C2A00207CF40108C10000204A27002082
:103E00008EF40108162A002013780133DBB2642BEC
:103E1000137083D12860554B1D78012D4FD1DFF8E9
:103E2000749199F80080B8F1000F48D13B8850494F
:103E3000009330224F4B042005F0DAF84E4809F089
:103E40000FFE2A464FF480414C4802F0DFFB64200D
:103E500002F070F842464FF48041484802F0D6FB29
:103E6000642002F067F82A464FF48041434802F08C
:103E7000CDFB642002F05EF842464FF480413F489B
:103E800002F0C4FB642002F055F82A464FF480414A
:103E90003A4802F0BBFB642002F04CF842464FF473
:103EA0008041364802F0B2FB642002F043F84FF440
:103EB0007A7089F8005002F03DF801F001F83A8874
:103EC0002C492046FFF722FD3A882A492046FFF771
:103ED0004FFD3578012D46D1FEF77AFE28482A4657
:103EE000202102F093FB26480022202102F08EFBC5
:103EF00022482A46202102F089FB4FF48053214AB0
:103F0000214900932148302303F0EFFE1B48002293
:103F1000202102F07BFBFEF73FFE1D482A464FF4AE
:103F2000807102F073FB1A4800224FF4807102F096
:103F30006DFB0E4B1B7843B9164B1B78012B04D13C
:103F4000154809F08DFD00F0CDFE144D09492A8871
:103F50002046FFF70DFD2A880649204605B0BDE83A
:103F6000F043FFF7D3BC05B0BDE8F083152A00206D
:103F7000910000204A270020B1F40108000C024003
:103F8000000802401810001048100010C42800203B
:103F900000000240142A0020DFF40108080000207D
:103FA000F0B5144B85B06D46044603F110072A4660
:103FB000186859682E4603C60833BB423546F7D108
:103FC0001346114625780022104611F8016BB542C0
:103FD00008BF80181032B2F5807FF6D161780022D8
:103FE00013F8014BA14208BF80180132102AF7D103
:103FF00005B0F0BD07F501082DE9F04712248AB09D
:104000000DEB0402014605A8ADF81240FDF786FD50
:10401000224605A92D48DFF8BCA009F09FFE05A99E
:10402000022204A809F09AFE04A8FFF7B9FF0DF1D7
:10403000170107468AF80000022204A809F08EFE44
:1040400004A8FFF7ADFF0DF11A0180468AF80100C0
:10405000022204A809F082FE04A8FFF7A1FF0DF1D7
:104060001D0181468AF80200022204A809F076FEAA
:1040700004A8FFF795FF08A98AF803000222044666
:1040800004A809F06BFE04A8FFF78AFF0DF12301D5
:104090008AF804000222054604A809F05FFE04A87D
:1040A000FFF77EFFEDB2C6B2E4B28AF805005FFA10
:1040B00089F30296019500945FFA88F2F9B20448F8
:1040C00009F0AEF80AB0BDE8F08700BF0F0000208D
:1040D0004FF50108442700202DE9F04FDFF8E48078
:1040E0003449354F8BB01122404608F07BF900234C
:1040F0000022404608F0DAFD4246122105A808F0E9
:1041000066FF05A912222D4809F028FE05A9022202
:1041100004A809F023FE04A8FFF742FF0DF11701E0
:1041200081463870022204A809F018FE04A8FFF79F
:1041300037FF0DF11A0182467870022204A809F0B7
:104140000DFE04A8FFF72CFF0DF11D018346B8708A
:10415000022204A809F002FE04A8FFF721FF08A923
:10416000F8700222044604A809F0F8FD04A8FFF73D
:1041700017FF0DF1230138710222054604A809F04A
:10418000EDFD04A8FFF70CFFEDB2C6B2E4B2787102
:104190005FFA8BF35FFA8AF25FFA89F10296019572
:1041A0000094074809F03CF8404608F06EFD0BB05B
:1041B000BDE8F08F95ED0108442700200F00002096
:1041C00074F50108B006002008B5084B1B78012BD8
:1041D0004FF4907005D1FEF74DF8BDE80840FFF7A9
:1041E0007BBFBDE80840FFF707BF00BF0E000020FF
:1041F00008B572B6094C01224FF48041204602F006
:1042000005FA642001F096FE204600224FF480411A
:1042100002F0FCF9642001F08DFEECE7000C024096
:1042200030B5002495B01422214603A8CDE90944F5
:1042300009F0A8FF1F4B01941A6C42F080521A64D7
:104240001B6C03F080530193019B1B4B02941A6873
:1042500042F480421A601B6803F480430293029B7D
:104260000A230893102201230820CDE90B320D9375
:10427000A823CDE910030225072308A8CDE90E5491
:104280001295139302F0D8FE08B1FFF7B1FF0F2388
:10429000CDE9033505904FF4A0524FF4805305212A
:1042A00003A8CDE9062303F0A3F80028EDD115B04B
:1042B00030BD00BF00380240007000402DE9F04FD3
:1042C0008FB000247C4D01F009FEFFF7A9FF1422F6
:1042D000002109A809F056FF03942B6B774843F09F
:1042E00010032B632B6B03F010030393039B0494C5
:1042F0002B6B43F004032B632B6B03F00403049339
:10430000049B05942B6B43F080032B632B6B03F012
:1043100080030593059B06942B6B43F001032B63ED
:104320002B6B03F001030693069B07942B6B43F062
:1043300002032B632B6B03F002030793079B089484
:104340002B6B43F008032B632B6B03F008030893DC
:1043500001220621089B02F059F9584822460821FB
:1043600002F054F95648012240F2012102F04EF9C0
:1043700053482246202102F049F9524822464FF282
:10438000FB6102F043F94F48012240F6040102F0BC
:104390003DF901224C484FF4807102F037F90126B3
:1043A00046484FF0040A09A9CDE909A6CDE90B66F4
:1043B0000A2702F04DF8414809A9CDE90976CDE96F
:1043C0000B4402F045F821233D4809A9CDE90936FF
:1043D000CDE90B4402F03CF84FF4887338480B9455
:1043E00009A9CDE9093402F033F848F2040337484B
:1043F0000B9409A9CDE909344FF4807B02F028F829
:1044000030480B9409A94FF00309CDE909B402F033
:104410001FF84FF6BB632B48CDF8309009A9CDE9C2
:1044200009360B944FF4007802F012F8244809A9D9
:10443000CDE90B49CDE9098602F00AF8224809A91D
:10444000CDE90B49CDE909B602F002F81D4809A9EA
:10445000CDE909A6CDE90B6601F0FAFF4023194822
:1044600009A9CDE90936CDE90B4401F0F1FF029429
:104470002B6B43F480032B632B6B03F480032246E6
:10448000214602934520029B01F07AFD452001F070
:10449000A9FD0F480F4B04614FF4E1390C25C0E929
:1044A0000039C0E90244C0E90554C46103F0FCFED0
:1044B000034688B1FFF79CFE00380240001002401E
:1044C00000080240000C02400000024000040240CC
:1044D000E427002000140140C948CA4AC0F81880E7
:1044E0004FF482744FF0100AC0E90233C0E904337C
:1044F000C0E907A3C0E90933C0E90024C76203F09B
:10450000EBFA03460028D5D1BF48C04AC0E90233C0
:10451000C0E90433C0E90833C0E90A37C0E9002420
:10452000C0E9068A03F0D8FA03460028C2D1B84889
:10453000B84AC0F81880C0E900240822C0E9023354
:10454000C0E90436C0E90723C0E90933C76203F0B4
:10455000C3FA0028AED106F0B5F9AF48AF4B0360FF
:1045600003F098F807460028A4D10146142209A8B0
:1045700009F008FEAA4CAB4B01977F20C4E9003735
:10458000FF23C4E902032046C4E90477A76103F0CE
:10459000CBF800288ED1CDE90C00ADF824008DF8C1
:1045A0002600324609A9204603F017F9002881D1D8
:1045B0009D4B0193324601A9204603F07FF9034643
:1045C00000287FF477AF994899499A4A0362C0E975
:1045D00000124FF48042C0E90233C0E90423C0E96D
:1045E000063302F005FA034600287FF463AF9248D1
:1045F000924AC0E90233C0E90029C0E90435C0E9A4
:10460000063303F051FE00287FF454AF8C4C8D4FDD
:104610000523C4E9007320464FF4FA63A36002F057
:10462000DEFC00287FF446AF8748884B036001F02A
:104630000DFD064600287FF43DAF0125DFF85C82C2
:10464000834888F800502A464FF4804101F0DEFF8D
:10465000642001F06FFC32464FF480417C4801F049
:10466000D5FF642001F066FC2A464FF4804178486B
:1046700001F0CCFF642001F05DFC32464FF4804134
:10468000734801F0C3FF642001F054FC2A464FF444
:1046900080416F4801F0BAFF642001F04BFC3246C4
:1046A0004FF480416A4801F0B1FF642001F042FC00
:1046B000684809F0D5F909222946674808F0B0FD95
:1046C00066484FF4807101F09BFF654B00287DD157
:1046D0001870644809F0C4F906236360276041F646
:1046E00064132046A36002F07AFC00287FF4E2AE57
:1046F000FEF794F9FFF768FDFEF7C8F9FEF7D6F963
:104700000020FEF73DF900F04FF900F019FE0420FB
:10471000FEF73AFA544B55495548012205F01CFC66
:10472000FEF7EAF805F062FC98F80030B3B3002019
:10473000FCF7A8FF01F0F8FB4E494FF47A72B0FB8A
:10474000F2F20020FDF798F94B490020FDF794F9AB
:104750000120FCF797FF49490020FDF78DF9022061
:10476000FCF790FF46490020FDF786F90320FCF78F
:1047700089FF42490020FDF77FF90420FCF782FF02
:104780003E490020FDF778F90620FCF77BFF3D4904
:104790000020FDF771F90020FCF774FF3A4D3B4E05
:1047A0002B78012B1CD0002005F024FF2B78002B48
:1047B00076D1374C237813B90420FFF7FDF923781D
:1047C000012BEDD10420FEF71FFAE9E731481D70F7
:1047D00009F046F906236360276041F6583380E705
:1047E000346801F0A1FB04F5922404F57874844246
:1047F000D9D2294809F034F9FEF77AFAD6E700BF92
:104800006C280020003C00401C29002000300140A2
:10481000C4280020003800409429002000080650D9
:10482000742900200028004001050923B029002038
:1048300000540040801A0600282800200044004050
:10484000A4290020003000407C27002000300240D6
:10485000000C024098F50108CCF501080008024060
:10486000292A0020EAF501080100002000080010B4
:104870000000001009F601081DF6010825F60108E0
:104880002DF6010835F60108282A0020082A002004
:104890000D000020F8F501083DF60108162A002059
:1048A000044B1B78002B7FF47BAF034802F0BEFB68
:1048B00076E700BF052A0020A42900200FB400B528
:1048C000ADF5037D84AB4FF4007153F8042B0193D5
:1048D00002A808F025FE02A8FCF76AFD02A982B230
:1048E000044803F065FD0DF5037D5DF804EB04B0AD
:1048F000704700BFE42700200FB400B5ADF5037D7D
:1049000084AB4FF4007153F8042B019302A808F014
:1049100007FE02A8FCF74CFD4FF0FF3382B202A95C
:10492000044803F0EFFC0DF5037D5DF804EB04B0E3
:10493000704700BFE42700202DE9F0410D4FDFF85C
:1049400038800E4615460024AC4202DB2846BDE8FE
:10495000F0814FF6FF7301223119384603F0D2FC83
:1049600098F800301BB1315D0020FCF757FE013490
:10497000EAE700BFE4270020162A002010B5084906
:104980003022044609F0D8F940B1064930222046C9
:1049900009F0D2F900280CBF0120022010BD00BF91
:1049A000C10000209100002070B5002003F048FFF6
:1049B00004464FF4A85003F043FF05464FF4385027
:1049C00003F03EFF2A46034621460248BDE87040F8
:1049D00008F026BC59F6010810B504468AB001203B
:1049E000FCF750FE94F82C30099394F82830089383
:1049F00094F82430079394F820300693237F05938E
:104A0000237E0493237D0393237C0293237B0193D2
:104A1000237A00932379227804490020FDF72CF8AB
:104A200000200AB0BDE81040FCF72CBEB1F601082A
:104A300010B504468AB00320FCF724FE94F82E300B
:104A4000099394F82A30089394F82630079394F841
:104A500022300693A37F0593A37E0493A37D039343
:104A6000A37C0293A37B0193A37A0093A379A278FA
:104A700004490020FDF700F800200AB0BDE810400E
:104A8000FCF700BEB1F6010810B504468AB002205A
:104A9000FCF7F8FDE37A0993A37A0893637A079306
:104AA000237A0693E3790593A379049363790393B7
:104AB00023790293E3780193A378009363782278B3
:104AC00004490020FCF7D8FF00200AB0BDE81040E0
:104AD000FCF7D8BDB1F6010810B504468AB0042031
:104AE000FCF7D0FD94F82F30099394F82B300893FD
:104AF00094F82730079394F823300693E37F0593C7
:104B0000E37E0493E37D0393E37C0293E37B0193D1
:104B1000E37A0093E379E27804490020FCF7ACFFE4
:104B200000200AB0BDE81040FCF7ACBDB1F60108AA
:104B300070B50E46441C002521467019012201352E
:104B400009F00CF90C2D04F10404F5D170BD08B581
:104B50000C2209F0F1F8003818BF012008BD000050
:104B600007B50E4B1B789BB90D4808F079FF8823D9
:104B700001224FF4407101A88DF8043000F008FDC7
:104B8000084808F06DFFFEF7B3F803B05DF804FBCA
:104B9000054803B05DF804EB08F062BF292A002045
:104BA000F0F6010836F4010825F7010807B50122DF
:104BB0004FF4407101A800F001FC9DF80400883812
:104BC00018BF012003B05DF804FB07B501224FF4C4
:104BD000806101A800F0F2FB9DF80400883818BF3E
:104BE000012003B05DF804FB38B50D4C2368013398
:104BF00083420D46236005D10A4800224FF48051BC
:104C000001F004FD23689D4209D10023236005487B
:104C1000BDE8384001224FF4805101F0F7BC38BDA7
:104C2000242A0020000C024038B5124C23680133BE
:104C300083420D4623600BD10F4800224FF4804180
:104C400001F0E4FC0C4800224FF4004101F0DEFCCE
:104C500023689D420CD100230748236001224FF4B2
:104C6000004101F0D3FCBDE83840044802F0DEB951
:104C700038BD00BF202A0020000C0240A4290020DB
:104C800010B58CB0134604460A466846044909F03C
:104C90001DF96946204608F0BBFA0CB010BD00BFF4
:104CA00051F7010810B58EB001F6E44204460849F8
:104CB00002A809F00BF9074B019301A9204609F05E
:104CC000D9F902A9033008F0A3FA0EB010BD00BF55
:104CD0005FF701085F5F5F0001460148FFF7EEBD27
:104CE00065F701082DE9FF474848DFF834A1DFF8F0
:104CF000349108F0B5FE40F6B833ADF80E3001F04F
:104D000013F900F5EA370026C03701F00DF98742A4
:104D1000804605D23E4808F0A3FEFDF7E9FFF4E720
:104D20004FF40041504601F06BFC01280546ECD1E0
:104D30000DF10E033749009330224B46042004F056
:104D4000FFF93448FFF71AFE044600283AD12A46F4
:104D50004FF48041304801F059FC642001F0EAF83A
:104D600022464FF480412C4801F050FC642001F0B1
:104D7000E1F82A464FF48041274801F047FC6420BF
:104D800001F0D8F822464FF48041234801F03EFC60
:104D9000642001F0CFF82A464FF480411E4801F00C
:104DA00035FC642001F0C6F822464FF480411A48D1
:104DB00001F02CFC642001F0BDF8184808F050FE0A
:104DC000FDF796FF13484146FFF76CFFBDF80E3024
:104DD000009310494B4630220420013604F008F9B4
:104DE000012E06D04FF4FA72B6FBF2F302FB136306
:104DF00013B90848FFF770FF28211420FFF7F4FECD
:104E000028211420FFF710FF7FE700BF6DF701088E
:104E10008AF7010838110010000C0240E8F301087D
:104E2000000402404A27002030B591B00A460446EB
:104E30001C4904A809F04AF81B4B019301A920461C
:104E400009F018F904A9033008F0E2F9174B0293AE
:104E500002A9204609F00EF9154B0393C51C03A9BE
:104E6000204609F007F9134B441BE4B222462946B9
:104E7000184608F073FF0022025509F09BF80E4B0C
:104E80001B684FF4FA72B3FBF2F102FB11330446D4
:104E900033B901F049F8214602460848FFF70EFDF4
:104EA00011B030BDB8F701083A3A3A002A2A2A0070
:104EB0005F5F5F002A2A0020402A0020BBF701081C
:104EC000F0B52E482E4F2F4D85B008F0C9FD40F6A5
:104ED000B833ADF80E3001F027F8064601F024F89B
:104EE00006F5EA33C0338342044605D2264808F06B
:104EF000B7FDFDF7FDFEF1E74FF40041384601F044
:104F00007FFB0128EAD129684CF2503301319942E4
:104F100029600DD11D4808F083F940F6B8331C49CB
:104F2000009330221B4B042004F062F8FDF7E0FEF2
:104F3000296819482246FFF7A3FEBDF80E300093FA
:104F40001549144B3022042004F052F80DF10E03E1
:104F500030221249009304200E4B04F0F1F800F0C7
:104F6000E3FF01460D48FFF75FFF28211420FFF7FC
:104F70003BFE28211420FFF757FEAFE7DAF70108C0
:104F800000040240402A00208AF70108F5F70108D2
:104F9000C10000204A270020D8100010081100107E
:104FA00007B50A4808F05CFD882301224FF48061B0
:104FB00001A88DF8043000F0EBFA054808F050FD28
:104FC000FDF796FE03B05DF804FB00BF11F8010881
:104FD00031F801081B4BF7B51B4C00221A7008234F
:104FE00023801A4B1D880F46691C1980184B6DBA17
:104FF000A5801D88691C6DBA19800646E580E31DF1
:1050000002F007010132202A03F8011FF8D1002322
:105010000D4910486380282201F028F840F6B83383
:1050200040BA60800849009328223B46304603F08E
:10503000DFFF28B9084808F013FD002003B0F0BDD9
:105040000648F8E7DF2A0020E02A0020F4000020CC
:10505000F20000207C27002042F8010862F80108D5
:10506000F0B52B4E87B040F6B83307460C461546D0
:10507000002196223046ADF8163009F083F80DF184
:10508000160300932A4623463146384604F058F862
:10509000337813BB82B231461E48B78800F0E6FF72
:1050A000C14389B24FF6FF73994205D01A4808F000
:1050B000B7F8002007B0F0BD7FBABFB20635CDE922
:1050C0000175E3780093A37862782178134808F09B
:1050D000A7F8134B01221A70EBE7082B14D1718843
:1050E000B788F68819B10F48002208F099F80635FC
:1050F000CDE902650197E3780093A378627821787F
:10510000094808F08DF8E4E7084808F0A9FCD0E762
:10511000462A00207C2700206DF8010881F801084C
:10512000DF2A0020AEF80108D9F801081BF90108B0
:105130002DE9FF4104466848684D08F091FC0427BA
:105140002B78042B2DD8DFE803F003094164BB0062
:10515000634808F085FC01232B7022E061484FF082
:10516000010808F07DFC08EB8400C00000F54070E9
:1051700003F066FB0646D8B9204603F0EFFC41F287
:105180000840414600EB441003F088FB334640F6EC
:10519000B8320321204603F01FFD10B1524808F039
:1051A0005FFC013F17F0FF07CAD104B0BDE8F081F2
:1051B0003228F6D14D4808F053FC4D4A00231370B5
:1051C0004C4A13704C4A13700223C5E74B4808F051
:1051D00047FC474B1B780F2B01D90423BCE7454EF6
:1051E000337853B94649444A46481370CB78009304
:1051F0008B784A78097808F013F8337840490133FE
:1052000020463370FFF7E6FE03232B703E4B00224F
:105210001A703E48374EDFF8F08008F021FC204637
:1052200003F003FC0246C0B135492046FFF718FFE2
:1052300031490A7801320A70354A1278034662B160
:1052400098F800203178334807F0EAFF02232B70EA
:105250003378042B04BF0523337098F80030322BC9
:1052600026D92D4808F0FCFB002388F800300223E3
:105270002B703378042B1ED105233370DFF8788030
:105280001F4998F800302548C3F10402CDE90132E6
:10529000CB7800938B784A78097807F0C1FF144ADD
:1052A000002388F80030337013780133137078E7E7
:1052B000013388F800303378052B7FF472AFDDE7D7
:1052C000174808F0CDFB174808F0CAFB204603F04A
:1052D00045FC002340E700BF29F90108452A0020CA
:1052E00045F9010851F9010863F901087FF901083E
:1052F000442A0020DE2A0020DD2A002091F901083E
:105300004A2700209CF90108DC2A0020AFF9010897
:10531000DF2A0020C0F90108D4F90108E4F90108E6
:1053200008FA01081EFA010808B5044808F098FBBD
:10533000BDE808400620FFF7FBBE00BF31FA0108B8
:1053400007B5FFF742FC90B90A4808F089FBFF2334
:1053500001224FF4806101A88DF8043000F018F9A3
:10536000054808F07DFBFFF7DFFFFDF7C1FC03B048
:105370005DF804FB44FA01084CFA0108014B18607F
:10538000704700BF082B002070B50B4E04460D4639
:10539000306890F8513053B142F210732A462146DA
:1053A00002F0F6FB38B1BDE87040FEF721BF0120E6
:1053B00000F0C0FDECE770BD082B0020F7B51A4FD8
:1053C00005460C4616463B6893F85130012B23D115
:1053D000032316488DF804300421230C002264BAFC
:1053E0008DF80530ADF8064001F010F904210DEB01
:1053F0000100FFF7C9FF38684FF47A733246294637
:1054000002F063FD02280BD008480122042101F0BC
:10541000FDF8012003B0F0BD012000F08BFDD2E7C4
:10542000012000F087FDE6E7082B00200010024075
:1054300013B50A4C00222046042101F0E7F80623A8
:1054400001A801218DF80430FFF79EFF01220421FD
:10545000204601F0DBF802B010BD00BF0010024092
:1054600037B50A4C042500222046042101F0CEF86D
:105470000DEB050001218DF80450FFF785FF012297
:105480002946204601F0C2F803B030BD00100240AA
:1054900037B50523002214488DF8002004218DF82B
:1054A000043001F0B3F8012101A8FFF76DFF0F4DA3
:1054B0002868C8230122694602F007FD02284FF040
:1054C00001000ED000F036FD9DF8000010F0010440
:1054D000EED105480122042101F098F8204603B0DE
:1054E00030BD00F027FDE3E700100240082B00204C
:1054F0002DE9F743DFF8949007460C469046D9F81B
:10550000003093F85130012BDEB239D1FFF790FF14
:1055100002238DF80430230C64BA8DF80530ADF801
:105520000640FFF785FF18480022042101F06EF8BD
:1055300004210DEB0100FFF727FF0524D9F8000037
:105540004FF47A734246394602F022FB02280546A0
:1055500006D10520013C00F0EDFC14F0FF04EDD174
:1055600001220421084801F051F8FFF791FFFFF7ED
:1055700077FF012D08BF0226304603B0BDE8F08357
:10558000012000F0D7FCBAE700100240082B0020F1
:105590002DE9F04711F0FF0A05460F4614465FFA61
:1055A00082F81AD1FF2A2ED9140A4FF48072394694
:1055B0002846FFF79DFF0128064641D1013CA4B2D1
:1055C00007F5807705F58075002CEED1B8F1000F56
:1055D00036D042463946284615E0CAF58079FF2A7A
:1055E0001FFA89F913D8C1450DD24A46FFF780FF4B
:1055F0000128064624D1A8F58072524492B209EBE4
:10560000070105EB0900BDE8F047FFF771BF4A4607
:10561000FFF76EFF0128064612D1A4F580741AFA2E
:1056200084F44D441FFA84F84F4404F47F442C441E
:105630007F1BA54205EB070105D118F0FF02CAD177
:105640003046BDE8F0874FF480722846FFF750FFE0
:10565000012802D105F58075EBE70646F0E700006A
:1056600082B00C4B002100915A6C42F480425A6483
:105670005A6C02F480420092009A01911A6C42F036
:1056800080521A641B6C03F080530193019B02B09B
:10569000704700BF003802400268094B9A4282B04E
:1056A0000BD100230193074B1A6B42F480521A630B
:1056B0001B6B03F480530193019B02B0704700BF42
:1056C000003002400038024030B5044689B0142250
:1056D000002103A808F056FD2268134B9A4221D1FD
:1056E000124C134800250195236B43F002032363FA
:1056F000236B03F002030193019BC0221223CDE927
:10570000032303210423CDE9061303A900F0A0FE1F
:105710000295236C43F400132364236C03F40013F9
:105720000293029B09B030BD005400400038024093
:10573000000402400268094B9A4282B00BD1002358
:105740000193074B5A6B42F040025A635B6B03F0C4
:1057500040030193019B02B0704700BF0008065050
:10576000003802401FB5044610220021684608F0A8
:1057700009FD2268094B9A420ED102230093684624
:105780004FF40073039301F0EDFE08B1FEF730FD16
:10579000034B0122C3F83C2E04B010BD002800408A
:1057A00000004742F0B504468DB01422002107A83E
:1057B00008F0E8FC2368534A934223D1524B5348E4
:1057C000002100915A6C42F480525A645A6C02F4DF
:1057D00080520092009A01911A6B42F001021A6302
:1057E0001B6B03F001030193019BE02202230321C1
:1057F000CDE907230523CDE90A1307A900F028FE08
:105800000DB0F0BD424A934240D13F4B4148002287
:105810000292196C41F480411964196C01F48041C1
:10582000029102990392196B41F004011963196BFB
:1058300001F004010391039904921A6B42F00202F1
:105840001A631B6B03F0020304930226032505244D
:10585000049B07A90423CDE907360127CDE90A54A3
:1058600000F0F6FD08232B480B9407A9CDE9073675
:10587000CDE9097500F0ECFD4FF48063CDE9073602
:10588000CDE9097524480B9407A9B7E7234A934249
:10589000B6D11D4B1F48002405941A6C42F40042F7
:1058A0001A641A6C02F400420592059A06941A6B67
:1058B00042F004021A631B6B03F004030693069B79
:1058C00002274FF480630326062507A9CDE9073791
:1058D000CDE90A6500F0BCFD4FF4C053CDE90737B0
:1058E00007A901230B480B95CDE9093600F0B0FD5F
:1058F00022462146332000F043FB332000F072FBA8
:105900007EE700BF00300140003802400000024046
:10591000003800400008024000040240003C004003
:1059200070B514228AB0064600210DEB020008F083
:1059300029FC33683A4A93422BD13A4B3A48002427
:1059400001941A6C42F400321A641A6C02F40032A8
:105950000192019A02941A6B42F001021A631B6BC6
:1059600003F001030293029B0C250223CDE90553AA
:1059700005A907230326CDE9086300F069FD262069
:105980002246214600F0FCFA262000F02BFB0AB04C
:1059900070BD264A9342FAD1224B2548254C00255A
:1059A00003955A6C42F020025A645A6C02F02002AD
:1059B0000392039A04951A6B42F004021A631B6B5C
:1059C00003F004030493049BC0220223CDE90523C2
:1059D00003210823CDE9081305A900F039FD164875
:1059E0004FF02063C4E900034023C4E902354FF4BB
:1059F0008063C4E9043520464FF40033C4E90655FA
:105A0000C4E9083500F05EFB08B1FEF7F1FB0022A7
:105A1000746347201146A66300F0B2FA4720B4E74A
:105A200000440040003802400000024000140140E1
:105A30000008024084270020A0640240FEE7FEE741
:105A4000FEE7FEE7FEE7704770477047054A138898
:105A50000BB1013B1380044A13880BB1013B138047
:105A600000F056BAA8060020A6060020014802F061
:105A7000A1BD00BF28280020014802F0C5BA00BF20
:105A80006C280020014800F025BC00BF84270020BE
:105A9000014802F08FBD00BFE427002001207047BD
:105AA00008B508F031FB162303604FF0FF3008BD46
:105AB00008B508F029FB16230360FEE770B50D4614
:105AC00014460E46731B9C4201DC204670BDAFF3AA
:105AD000008006F8010BF5E74FF0FF3070474FF4F8
:105AE00000534B6000207047012070470020704732
:105AF0000B4A116810B5034609B90A4911601068CC
:105B000009490A4C0344091B8B4206D908F0FCFAE8
:105B10000C2303604FF0FF3010BD1360FCE700BFA3
:105B20000C2B0020681100100000022000800000F3
:105B3000044BD3F8882042F47002C3F88820024A4C
:105B40009A60704700ED00E00000010830B59BB09E
:105B5000054614A80C4603F037FE9DF865301393F4
:105B60009DF8643012939DF8633011939DF8623074
:105B700010939DF85D300F939DF85C300E939DF867
:105B80005B300D939DF85A300C939DF861300B9368
:105B90009DF860300A939DF85F3009939DF85E3060
:105BA00008939DF8593007939DF8583006939DF857
:105BB000573005939DF8563004939DF85530039364
:105BC0009DF8543002939DF8533001939DF8523064
:105BD00000939DF850209DF851300349284608F065
:105BE00075F920801BB030BD5EFA010870B50C4617
:105BF000094906461546FBF77BFB40B1074930468D
:105C0000FBF776FB28B929462046FFF79FFF0120C6
:105C100070BD0020FCE700BF1DFB010826FB01084A
:105C200038B51649054604F0BDF8044600B30A210C
:105C300004F090F8C4B20F2C1CD82846104904F088
:105C4000B1F8054630B10A2104F084F8C5B2012D3F
:105C500028BF012521460B4807F0E2FA0A4B0B4802
:105C600033F81410012D0CBF2A46002200F0CEFCA0
:105C700060B238BD4FF0FF30FBE700BF36FB0108D4
:105C80003AFB01083EFB0108FC000020000C02402A
:105C9000F8B50E460C49074615461C46FBF728FB8F
:105CA00068B10A493846FBF723FB50B93046FFF785
:105CB000B7FF0749C2B2284608F008F92080012042
:105CC000F8BD0020FCE700BF1DFB010862FB0108D6
:105CD000B8F701080A464FF47A730146014802F00A
:105CE000F4B800BF1C29002007B5FF238DF807304A
:105CF00001224FF47A730DF10701044802F0E5F830
:105D00009DF8070003B05DF804FB00BF1C290020CC
:105D10000A464FF47A730146014801F039BF00BFCB
:105D20001C29002007B54FF47A738DF80700012273
:105D30000DF10701024801F02BFF03B05DF804FBF1
:105D40001C290020024801224FF4006100F05EBCD3
:105D5000000C0240024800224FF4006100F056BCE3
:105D6000000C024070B586B0FFF7ECFF20492148D7
:105D700003F0E8FA2049214803F0F2FA20492148CB
:105D800003F000FB204B02AA03F110061546186829
:105D90005968144603C40833B3422246F7D1294652
:105DA000092003F071FC2946002003F06DFC294610
:105DB000012003F069FC013006D114480A220121B8
:105DC00007F02EFA06B070BD0DF107010F2003F0A9
:105DD0005BFC013003D10E480A220121F0E79DF857
:105DE0000730002BF0D00B4807F03AFEEAE700BF7F
:105DF000455D0108555D0108255D0108E95C010864
:105E0000115D0108D55C01081DEC010873FB010858
:105E10008FFB0108AAFB010870477047DFF84CD0E0
:105E200013481449144A002302E0D458C4500433E0
:105E3000C4188C42F9D311481149124A002302E0D8
:105E4000D458C4500433C4188C42F9D30E4A0F4CB2
:105E5000002301E013600432A242FBD3FFF768FE87
:105E600007F0B2F9FEF72AFA70470000000002209E
:105E700000000020C4010020A06F020800000010F4
:105E80006811001088010108C8010020D4370020E3
:105E9000FEE7000038B50E4B1A784FF47A73B3FB67
:105EA000F2F30C4A05461068B0FBF3F000F0BAF8C4
:105EB000044658B90F2D09D8024629464FF0FF3045
:105EC00000F05EF8044B20461D6038BD0120FCE761
:105ED0001B010020F80000201C01002008B50B4B1E
:105EE0001A6842F400721A601A6842F480621A60FA
:105EF0001A6842F480721A60032000F02FF80F2015
:105F0000FFF7C8FFFFF7ACFB002008BD003C0240D4
:105F1000034A044B11681B780B441360704700BFA1
:105F2000102B00201B010020014B1868704700BF98
:105F3000102B002038B50446FFF7F6FF631C1CBF8A
:105F4000054B1B78054618BFE418FFF7EDFF431B10
:105F5000A342FAD338BD00BF1B0100200749CA681D
:105F600022F4E0620302120403F4E063120C134310
:105F700043F0BF6343F40033CB60704700ED00E0B3
:105F8000164B30B5DC68C4F30224C4F10703251DA9
:105F9000042B28BF0423062D4FF0FF358CBF033C94
:105FA000002405FA03F321EA0303A54022EA0502CF
:105FB000A340002843EA0203ACBF00F16040084A56
:105FC0004FEA0313B8BF00F00F00DBB2AABF00F521
:105FD0006140135480F8003330BD00BF00ED00E095
:105FE00014ED00E0002807DB4109044A00F01F001F
:105FF0000123834042F82130704700BF00E100E0F8
:10600000BFF34F8F0549064BCA6802F4E0621343A1
:10601000CB60BFF34F8F00BFFDE700BF00ED00E096
:106020000400FA050138B0F1807F0BD24FF0E02375
:10603000054A5861F02182F8231000200722986158
:106040001A6170470120704700ED00E010B504466A
:1060500050B1437903F0FF0213B90271FFF71CFB43
:1060600001236371002010BD0120FCE703460220DC
:106070005871186810B5846844F00104846001EB1D
:106080008202914203D1012200685A7110BD51F879
:10609000044B0460F5E70000036810B5084C0246A5
:1060A000D9B210391820B1FBF0F0205CD06523F490
:1060B0007F7020F003005F2988BF0430906510BD19
:1060C000E569020870B50446FFF72EFF0546002C6F
:1060D00060D0022384F835302268002384F83430FD
:1060E000136823F00103136022681368D8072ED4C5
:1060F00013683248A1691840D4E901352B43E5689B
:106100002B4325692B4365692B43E5690B432B43DF
:10611000256A2B430343606A042802BFD4E90B5667
:1061200035432B4313605369042823F0070343EAE4
:10613000000335D1A06AE56A03438DB391B9012804
:1061400020D030F002012BD1E90129D51DE0FFF765
:10615000EBFE401B0528C7D920230320636584F884
:10616000350070BDB1F5005F16D1032818D801A124
:1061700051F820F08B610108496101088B61010829
:1061800085610108B5F1C07F0AD140236365012311
:1061900084F835300120E4E70228F6D90328D3D06B
:1061A00053612046FFF778FFE26D3F239340836001
:1061B00000200123606584F83530D2E73F8010F07D
:1061C00070B590F83440866D012C30D0012480F8F1
:1061D000344090F83540012C4FF0000425D10225C1
:1061E00080F8355044650468256825F480252560CD
:1061F00063608368402B0EBFA260A160E260C26D45
:1062000008BFE1603F239340B360236843F0160367
:106210002360036C1BB1236843F0080323602368E9
:1062200043F001032360002070BD80F83440022059
:10623000FAE770B50446866DFFF776FE94F83530C0
:10624000022B054606D0802363650120002384F8D5
:10625000343070BD23681A6822F016021A605A6939
:1062600022F080025A61226C0AB9A26C1AB11A6833
:1062700022F008021A601A6822F001021A602368EC
:10628000186810F0010007D1E26D3F239340B3601E
:10629000012384F83530D9E7FFF746FE401B052877
:1062A000EDD920230320636584F83500CEE790F80C
:1062B0003530022B03D080234365012070470268EC
:1062C000052380F83530136823F0010313600020A4
:1062D00070470000F7B5002301935C4B856D1F6884
:1062E000C36D2E6808229A40324204460CD00168E1
:1062F0000868400708D5086820F004000860AA6014
:10630000626D42F00102626501229A40324208D079
:1063100021684969090641BFAA60626D42F0020224
:10632000626504229A40324208D0216809688807D1
:1063300041BFAA60626D42F00402626510229A4079
:10634000324210D02368196809070CD5AA601A6870
:10635000500337D51B68190301D4236C00E0A36CEC
:106360000BB120469847E16D20228A4032423AD054
:1063700023681868C60636D5AA6094F83520052A21
:106380001A6827D122F016021A605A6922F0800298
:106390005A61226C0AB9A26C1AB11A6822F008027A
:1063A0001A603F238B40AB60012384F83530002313
:1063B00084F83430236D002B45D0204603B0BDE86F
:1063C000F04018471A68D2055EBF1A6822F008022A
:1063D0001A60C2E7500327D51B68190331D4636CD8
:1063E0000BB120469847636D6BB3636DDA0719D51F
:1063F00022684FF41653B7FBF3F7052384F83530C2
:10640000136823F001031360019B0133BB42019326
:1064100002D81368DB07F7D4012384F83530002352
:1064200084F83430E36CC6E71A6812F4807208D13D
:10643000196821F010011960012384F8353084F8BF
:106440003420E36BCCE703B0F0BD00BFF8000020C0
:106450002DE9F74FDFF8A491664A00230D68012467
:106460009C4004EA0506AC4340F0AF804D6803272A
:1064700005F003044FEA430807FA08FC671E012FE2
:106480006FEA0C0C34D8876807EA0C0ECF6807FA5D
:1064900008F747EA0E078760476827EA060EC5F344
:1064A00000179F4047EA0E074760C76807EA0C0ECF
:1064B0008F6807FA08F747EA0E07022CC76019D160
:1064C0004FEAD30A00EB8A0A03F0070BDAF82070D0
:1064D0004FEA8B0B4FF00F0E0EFA0BFE27EA0E0E53
:1064E0000F6907FA0BF747EA0E07CAF8207001E0B8
:1064F000032CDAD1076804FA08F407EA0C073C43D6
:1065000015F4403F046060D000240194D9F8444061
:1065100044F48044C9F84440D9F8444023F00307C8
:1065200007F1804704F4804407F59C37019403F099
:10653000030C019CD7F808E04FEA8C0C0F2404FAF6
:106540000CF42EEA040E2C4CA04245D004F58064D5
:10655000A04243D004F58064A04241D004F5806499
:10656000A0423FD004F58064A0423DD004F5806491
:10657000A0423BD004F58064A04239D004F5806489
:10658000A04214BF0824072404FA0CF444EA0E04C1
:10659000BC601468F74315F4803F0CBF3C403443A3
:1065A0001460546815F4003F0CBF3C403443546001
:1065B000946815F4801F0CBF3C4034439460D46849
:1065C000AD0254BF3C403443D4600133102B7FF400
:1065D00045AF03B0BDE8F08F0024D5E70124D3E731
:1065E0000224D1E70324CFE70424CDE70524CBE739
:1065F0000624C9E7003C0140000002400038024088
:106600000369194214BF0120002070470AB181615B
:1066100070470904FBE7436901EA030221EA030129
:1066200041EA02418161704701684B6913F480635C
:106630004FF0000210D06FF480634B61202302639F
:1066400080F83D3080F83E20036C80F83C2043F019
:106650000403036401207047184670472DE9F8468B
:1066600006460F4691461D464FEA114A3368BAF175
:10667000010F0CBF5C699C6927EA0404A4B2B4FA58
:1066800084F46409A14501D0002017E06A1CEED013
:10669000FFF74AFC089BC01AA84201D8002DE5D19B
:1066A00000232022336386F83D2086F83E30326C8A
:1066B00086F83C3042F0200232640120BDE8F886C2
:1066C0002DE9F04104460F4616469846256868694C
:1066D00027EA000080B2C0B16B695A0517D52B6854
:1066E00043F400732B606FF480636B6120220023FE
:1066F000236384F83D2084F83E30236C43F0040388
:106700002364002384F83C300120BDE8F081731C31
:10671000DDD0FFF709FCA0EB0800B04209D9002347
:106720002022236384F83D2084F83E30236C1343F9
:10673000E6E7002ECAD1F2E770B504460D461646CC
:1067400023685B691B0601D5002018E02046FFF78F
:106750006BFF98B96A1CF3D0FFF7E6FB801BA842D9
:106760000ED900232022236384F83D2084F83E3094
:10677000226C84F83C3042F020022264012070BD7B
:10678000002DDDD1EDE700002DE9F043154602684C
:1067900085B0DDE90C789946136843F48073136083
:1067A0000E463B46CDF8008000224FF00111044612
:1067B000FFF754FF236838B11B68DB0502D54FF49F
:1067C00000732364032620E006F0FE061E611A49CA
:1067D00043463A462046FFF773FFA8B92368039063
:1067E0005A6903929B690393424639462046039BAC
:1067F000FFF7A2FF064660B1236C042B01BF22689D
:10680000136843F4007313600126304605B0BDE8F9
:10681000F083B9F1010F236802D1EDB21D61F4E7F5
:106820002A0A1A61394642462046FFF785FF0028AA
:10683000E2D12368F1E700BF020001002DE9FF4724
:106840009A46036815461A6842F480621A601A680C
:10685000DDE90C7842F480721A600E463B46CDF8B2
:10686000008000224FF001110446FFF7F7FE236875
:1068700038B11B68DB0544BF4FF400732364032069
:1068800021E05FFA86F906F0FE061E612B494346B9
:106890003A462046FFF714FFA0B9236803905A69CF
:1068A00003929B690393424639462046039BFFF7B8
:1068B00043FF58B1236C042B01BF2268136843F4D3
:1068C00000731360012004B0BDE8F087BAF1010F36
:1068D00023681AD1EDB242461D6139462046FFF7C2
:1068E0002BFF02460028E5D121680B6843F4807332
:1068F0000B602046CDF800803B464FF00111FFF7BA
:10690000ADFE226860B11368B4E72A0A1A613946FD
:1069100042462046FFF710FF0028CBD12368D9E775
:1069200049F001031361054943463A462046FFF703
:10693000C7FE003818BF0120C5E700BF02000100F4
:1069400070B504460D46164623685B695B0701D5A2
:10695000002018E02046FFF767FE98B96A1CF3D0C4
:10696000FFF7E2FA801BA8420ED9002320222363FE
:1069700084F83D2084F83E30226C84F83C3042F0AC
:1069800020022264012070BD002DDDD1EDE770B53D
:1069900004460D46164621684B6913F0400301D0AA
:1069A000002011E04A69D2060FD56FF010024A614B
:1069B0002022236384F83D2084F83E30236C236436
:1069C000002384F83C30012070BDFFF7ADFA801B36
:1069D000A84209D900232022236384F83D2084F8AB
:1069E0003E30236C1343EAE7002DD4D1F2E70000D8
:1069F00070B5044608B9012070BD90F83D3003F031
:106A0000FF021BB980F83C20FEF75EFE242384F8C9
:106A10003D3023681A6822F001021A601A6842F4B5
:106A200000421A601A6822F400421A6000F07AFDEF
:106A30003F4B65689D4294BF3E4B3F4B98428CBF95
:106A400000230123002BD6D12268394E51683B4BDD
:106A5000B0FBF3F321F03F011943B542516088BF09
:106A60004FF49676116A88BF734321F03F0184BFCB
:106A70004FF47A76B3FBF6F301330B431362D1691B
:106A8000431E2B4821F44F41854221F0FF0132D8AB
:106A90006D0040F6FC70B3FBF5F30133034242D0C6
